:100000000C9440070C9478070C9478070C947807AC
:100010000C9478070C9478070C9478070C94780764
:100020000C9478070C9478070C94F82C0C94CA2D37
:100030000C9463260C9478070C9478070C9478073A
:100040000C9478070C9478070C9478070C94780734
:100050000C9478070C94EB260C9478070C94780792
:100060000C9478070C9478070C9478070C94780714
:100070000C9478070C9478070C9478070C94780704
:100080000C9478070C9478070C9478070C947807F4
:100090000C9478070C9478070C9478070C947807E4
:1000A0000C9478070C9478070C947807460C460C4F
:1000B000720C720CDA0CF80CDF0DDF0D030D6B0DFA
:1000C0007C0D7C0D311D341D541D651D6D1D781D6D
:1000D000BE1DBE1DBE1DBE1DBE1D7B1D7E1D831D06
:1000E000901D9D1DA01DA41DB11D0821F6200F21EE
:1000F0008120BC21BC21F320BC21BC213C21BC219E
:1001000050219C21BC21BC21BC21BC217021BC21DF
:10011000BC216D21BC212821BC21BC21B621B621E6
:10012000B621B621B621B621B621B621B621B82115
:10013000BC210821EB20BC21BC21BC21BC21BC215D
:10014000BC21BC21BC21BC21BC21B821BC21BC21CB
:10015000F320BC21B421B421B421B421B421B421B1
:10016000B421B421B421B821372E5E2E562F5E2E35
:10017000562FAA2ECD2E562F242F332F29001E00A6
:100180001F0020002100220023002400250026005B
:1001900027002D002E002A004A002B0014001A0010
:1001A0000800150017001C0018000C0012001300B6
:1001B0002F00300031004D000151040016000700EF
:1001C00009000A000B000D000E000F003300340080
:1001D0002A0028004B00E1001D001B00060019004A
:1001E000050011001000360037003800E100000063
:1001F00052004E00E000E300E2002C0000002C0062
:1002000000002C000000015135005000000051009A
:100210004F00005C3A003B003C003D003E003F00C8
:100220004000410042004300440045004C000100F2
:1002300039000100520001000100010053005F007D
:1002400060006100AC00AE00AB00010001000100E5
:10025000500051004F000100AA00A9005C005D00A1
:100260005E00010001004C00010001000100E400FB
:10027000E700E60001000100620059005A005B003F
:100280000100010000004B0001000100010001001D
:100290000100000001000000010000000100010059
:1002A0004A0000004E004D00010001000100010065
:1002B0000100010001000100010001000100010036
:1002C0000100010001000100010001000100010026
:1002D0000100010001000100010001000100010016
:1002E0000100010001000100010001000100010006
:1002F00001000100010001000100010001000100F6
:1003000001000100010001000100010001000100E5
:1003100001000100010001000100000001000100D6
:1003200001000100010001000000010000000100C7
:1003300000000100010001000000010001000100B7
:1003400001000100010001000100010001000100A5
:100350000100010001000100010001000100010095
:100360000100010001000100010001000100010085
:100370000100010001000100010001000100010075
:100380000100010001000100010001000100010065
:100390000100010001000100010001000100010055
:1003A0000100010001000100010001000100010045
:1003B0000000010001000100010001000100000037
:1003C0000100000001000000010001000100000028
:1003D0000100010044454255473A20646973616257
:1003E0006C65642E0A0044454255473A20656E61AB
:1003F000626C65642E0A0000000000000000002A04
:100400002B28000000000000000000000000000099
:10041000000029000000002C1E3420212224342654
:1004200027252E362D3738271E1F2021222324254D
:10043000263333362E37381F0405060708090A0B02
:100440000C0D0E0F101112131415161718191A1B74
:100450001C1D2F3130232D350405060708090A0B12
:100460000C0D0E0F101112131415161718191A1B54
:100470001C1D2F3130354C00000000000000000032
:10048000000000000000000000000000000000006C
:1004900000000000000000000000007E0F00D4FFFC
:1004A000FFFFC7000000780A0025303258006C6555
:1004B000645F7461736B3A20004F6E6573686F748C
:1004C0003A206163746976653A2025640A000A005F
:1004D0002530313662003A200025303258000A7249
:1004E0002F63203031323334353637383941424387
:1004F0004445460A00290A002575002F002575008D
:100500005D2800256400200025640020002564008B
:1005100020002564007C0025303258006D6F757313
:10052000656B6579205B62746E7C7820792076201B
:10053000685D287265702F61636C293A205B003119
:100540003A0964656C6179282A31306D73293A2043
:1005500025750A323A09696E74657276616C286D88
:1005600073293A2025750A333A096D61785F7370F3
:100570006565643A2025750A343A0974696D655FCA
:10058000746F5F6D61783A2025750A353A0977688E
:1005900065656C5F6D61785F73706565643A202591
:1005A000750A363A09776865656C5F74696D655FD1
:1005B000746F5F6D61783A2025750A00703A097092
:1005C00072696E742076616C7565730A643A09739A
:1005D00065742064656661756C74730A75703A0998
:1005E0002B310A646E3A092D310A6C743A092B31A9
:1005F000300A72743A092D31300A4553432F713A4B
:1006000009717569740A0A7370656564203D206418
:10061000656C7461202A206D61785F737065656414
:10062000202A2028726570656174202F2074696DFE
:10063000655F746F5F6D6178290A77686572652000
:1006400064656C74613A20637572736F723D2564E2
:100650002C20776865656C3D25640A5365652068C4
:100660007474703A2F2F656E2E77696B69706564AC
:1006700069612E6F72672F77696B692F4D6F757384
:10068000655F6B6579730A004D3E20004D25753A14
:1006900025733E20003F0A003D2025750A003F0AD1
:1006A0000064656661756C74730A0025750A003F05
:1006B0000A000A092D2056616C756573202D0A0009
:1006C000710A000A092D204D6F7573656B657920DD
:1006D0002D0A003F00433E20004C25640A000A0911
:1006E0002D20537461747573202D0A686F73745FC5
:1006F0006B6579626F6172645F6C65647328293A17
:1007000020253032580A6B6579626F6172645F70C0
:10071000726F746F636F6C3A20253032580A6B65C4
:1007200079626F6172645F69646C653A202530326A
:10073000580A6B65796D61705F636F6E6669672ECD
:100740006E6B726F3A20253032580A74696D65728B
:100750005F72656164333228293A202530386C583D
:100760000A000A092D2056657273696F6E202D0AE2
:100770005649443A203078413130332853776974F0
:100780006368706C61746520506572697068657229
:10079000616C7329205049443A2030783030303130
:1007A000284C756E617229205645523A20307830B7
:1007B0003030310A4255494C443A20202841707269
:1007C0002020312032303232290A4F5054494F4EC6
:1007D000533A204C554641204D4F5553454B4559B2
:1007E0002045585452414B455920434F4E534F4C8E
:1007F0004520434F4D4D414E44204E4B524F2034E7
:100800003039360A4743433A20352E342E302041C2
:1008100056522D4C4942433A20322E302E30204140
:1008200056525F415243483A20617672350A000AB7
:10083000092D20436F6E736F6C65202D0A4553435D
:100840002F713A09717569740A6D3A096D6F757384
:10085000656B65790A000A092D204D61676963207F
:100860002D0A443A094465627567204D65737361CA
:10087000676520546F67676C650A583A094D617463
:10088000726978204465627567204D6F64652054F5
:100890006F67676C65202D2053686F77206B6579D3
:1008A0007072657373657320696E206D617472690F
:1008B0007820677269640A4B3A094B6579626F6107
:1008C000726420446562756720546F67676C6520A9
:1008D0002D2053686F77206B657970726573732074
:1008E0007265706F72740A4D3A09446562756720CB
:1008F0004D6F75736520546F67676C650A563A09CA
:1009000056657273696F6E0A533A09537461747550
:10091000730A433A09416374697661746520436FD1
:100920006E736F6C65204D6F64650A46312D4631DC
:10093000303A0953776974636820746F204C617989
:10094000657220302D392028463130203D204C3032
:10095000290A302D393A0953776974636820746F16
:10096000204C6179657220302D390A475241564535
:100970003A0953776974636820746F204C61796514
:100980007220302028616C7465726E617465290A6A
:10099000423A094A756D7020746F20426F6F746C13
:1009A0006F616465720A4553433A094A756D702058
:1009B000746F20426F6F746C6F6164657220286180
:1009C0006C7465726E617465290A453A09507269E2
:1009D0006E7420454550524F4D2053657474696EB6
:1009E00067730A4253504143453A09436C6561724B
:1009F00020454550524F4D0A4E3A094E4B524F201A
:100A0000546F67676C650A006B65796D61705F6331
:100A10006F6E6669672E7261773A20253032580A08
:100A20002E737761705F636F6E74726F6C5F63615A
:100A300070736C6F636B3A2025750A2E6361707357
:100A40006C6F636B5F746F5F636F6E74726F6C3A21
:100A50002025750A2E737761705F6C63746C5F6C10
:100A60006775693A2025750A2E737761705F726326
:100A7000746C5F726775693A2025750A2E73776109
:100A8000705F6C616C745F6C6775693A2025750ADC
:100A90002E737761705F72616C745F726775693A0B
:100AA0002025750A2E6E6F5F6775693A2025750AD5
:100AB0002E737761705F67726176655F6573633A05
:100AC0002025750A2E737761705F6261636B736CAA
:100AD0006173685F6261636B73706163653A20255F
:100AE000750A2E6E6B726F3A2025750A0064656276
:100AF00075675F636F6E6669672E7261773A20254E
:100B00003032580A2E656E61626C653A2025750A8E
:100B10002E6D61747269783A2025750A2E6B65799D
:100B2000626F6172643A2025750A2E6D6F75736568
:100B30003A2025750A006565636F6E6669673A0A33
:100B400064656661756C745F6C617965723A2025C5
:100B5000750A003F004E4B524F3A206F66660A00FE
:100B60004E4B524F3A206F6E0A000A6D6F757365D7
:100B70003A206F66660A000A6D6F7573653A206FDA
:100B80006E0A000A6B6579626F6172643A206F6663
:100B9000660A000A6B6579626F6172643A206F6E53
:100BA0000A000A6D61747269783A206F66660A00FD
:100BB0000A6D61747269783A206F6E0A000A646582
:100BC0006275673A206F66660A000A646562756737
:100BD0003A206F6E0A000A0A4A756D70696E6720C6
:100BE000746F20626F6F746C6F616465722E2E2E4D
:100BF0002000433E2000436C656172696E672045AA
:100C00004550524F4D0A000A002530325820006BE3
:100C10006579626F6172645F7265706F72743A2099
:100C20000064656C5F6B65795F6269743A2063612B
:100C30006E27742064656C3A20253032580A0061B2
:100C400064645F6B65795F6269743A2063616E27E3
:100C500074206164643A20253032580A005B735D69
:100C6000005B575D005B535D005B525D005B445D64
:100C7000005B435D000C034C0075006E0061007268
:100C800000000030035300770069007400630068BF
:100C90000070006C00610074006500200050006569
:100CA0000072006900700068006500720061006CED
:100CB00000730000000403090409027B0004010022
:100CC000A0FA09040000010301010009211101003B
:100CD0000122400007058103080001090401000208
:100CE00003000000092111010001222200070582F2
:100CF000032000010705030320000109040200018D
:100D00000300000009211101000122B6000705843B
:100D1000032000010904030002030000000921115F
:100D200001000122220007058503200001070505B7
:100D300003200001120100020000000803A10100CD
:100D40000100010200010631FF0974A101097515B6
:100D50000026FF009520750881020976150026FF00
:100D600000952075089102C00660FF0961A1010984
:100D700062150026FF0095207508810209631500A1
:100D800026FF00952075089102C005010902A10106
:100D900085020901A100050919012908150025018D
:100DA0009508750181020501093009311581257FFA
:100DB00095027508810609381581257F950175080A
:100DC0008106050C0A38021581257F950175088179
:100DD00006C0C005010980A101850319012AB700D9
:100DE000150126B700950175108100C0050C090199
:100DF000A101850419012AA002150126A00295016E
:100E000075108100C005010906A1018506050719B5
:100E1000E029E715002501950875018102050719EC
:100E20000029EF1500250195F075018102050819CB
:100E3000012905950575019102950175039101C080
:100E400005010906A101050719E029E7150025019B
:100E50009508750181029501750881010507190042
:100E600029FF150026FF0095067508810005081961
:100E7000012905950575019102950175039101C040
:100E800011241FBECFEFDAE0DEBFCDBF04B603FEF4
:100E900018C08091240390912503A0912603B0915E
:100EA00027038730904BA740B04B59F4109224038E
:100EB000109225031092260310922703E0E0F8E336
:100EC000099512E0A0E0B1E0E6E3F0E602C005908B
:100ED0000D92A030B107D9F723E0A0E0B2E001C045
:100EE0001D92A432B207E1F70E9460190C941930E8
:100EF0000C940000FF93EF93E0910002F091010247
:100F0000309709F00995EF91FF910895FC018591C3
:100F1000803011F0EFDFFBCF0895FF27E0E230E2F1
:100F200047FF0CC0419597FF09C0EDE260957095B1
:100F300080959095611D711D811D911D27FF02C037
:100F4000219530E350E2AA27660F771F881F991F6B
:100F5000AA1FA41710F0A41B63955A95A9F7AA30ED
:100F600008F0A95FA05DAF93F39561157105810548
:100F7000910541F7ED3211F4EF93F395F21718F460
:100F80003F93F395FBCF8F91B5DFFA95E1F7089585
:100F9000E991F9918591803021F0853219F0AADF2D
:100FA000F9CF089520E0E89455915532C1F35033BC
:100FB00011F4689455915A3348F4505390F3220F2A
:100FC000022E220F220F200D250FF4CF0EF42195B3
:100FD00089919991533619F3533729F1533559F1C2
:100FE000BC0188279927E8945C3621F4899199916E
:100FF00068945591543639F446EF7EF077FF0DC072
:101000008FEF9FEF0AC055374AE039F0583540E17D
:1010100021F0523642E009F00895FF93EF937DDF0F
:10102000EF91FF91B7CFFF93EF93FC018191803057
:10103000B9F360DFFBCFFF93EF9368DFF1CFDF936E
:10104000CF93CDB7DEB72596A3DFCF91DF9108957B
:1010500081E0089581E008950C942A0808950C9485
:101060002E081F93CF93DF9300D000D01F92CDB7EF
:10107000DEB749835A836B833091030289819A8159
:10108000311114C0662359F0222349F00E946E0FDB
:10109000182F682F89819A810E94170F03C00E9420
:1010A000420F182F69817A81812F04C00E946E0F30
:1010B00069817A810F900F900F900F900F90DF91C0
:1010C000CF911F910C94EB22FC01262F408151817E
:1010D0006281738184810C94310881E00895CF93FB
:1010E000DF93EC0160E00E946408BE01DF91CF91C4
:1010F0000C942F08E1E0F0E0DF0102C0AA0FBB1F53
:101100006A95E2F7BD01DF0102C0AA0FBB1F4A9535
:10111000E2F7AD01462B01C0EE0F2A95EAF7942FB6
:101120009823491302C08E2B0895E0958E230895CD
:10113000242F462F682F809122020E947A080C9457
:10114000D40E0C9411180C940D1808950E946F0E73
:101150000E94A5082FEF84E39CE02150804090403E
:10116000E1F700C000000C9411270F931F93CF9359
:10117000DF938C0161E00E946408EC01B8010E94D9
:10118000E01C882309F462C0B801CE010E942C083B
:10119000882309F45BC0B801CE010E945124882342
:1011A00009F454C0B801CE010E94CA1D882309F475
:1011B0004DC0B801CE010E94AD23882309F446C07A
:1011C000F80182818823D9F1CE3D8CE5D80779F1E9
:1011D00040F4C115FCE5DF0791F0C130DC4591F02A
:1011E0002EC0CB35EDE5DE0741F1CC35FDE5DF075F
:1011F00009F1CA35DD4519F50E94F01320C00E949F
:10120000A60824C08091B202C82FC095C170C0FB4F
:1012100080F98093B202CC2329F086EE93E00E94FD
:10122000860714C084ED93E00E94860710C00E94D8
:10123000A3140CC00E94E71302C00E94F313C8015C
:10124000DF91CF911F910F910C942808C0E08C2F53
:10125000DF91CF911F910F9108950E9445260C9424
:101260003D0A0E94400A0C944B26DF92EF92FF92B7
:101270000F931F93CF93DF93E82FF0E0E950FC4FDB
:10128000D490282F26952695269530E0F901E95629
:10129000FB4F0491877010E0082E02C0159507954A
:1012A0000A94E2F701701127F901E957FB4FE49026
:1012B000F12C082E02C0F594E7940A94E2F791E02D
:1012C000E922FF24F901E958FB4FC491D0E002C0A4
:1012D000D595C7958A95E2F7C170DD2701151105EF
:1012E00019F081EE0E94C60AE114F10419F086EEAD
:1012F0000E94C60A8D2D0E94F40BEF2819F086EE8D
:101300000E94750B012B19F081EE0E94750BCD2BFD
:1013100051F08CE2DF91CF911F910F91FF90EF90F0
:10132000DF900C94F40BDF91CF911F910F91FF9000
:10133000EF90DF900895EF92FF920F931F93CF935A
:10134000DF93EC01162F0AE08881882309F455C049
:10135000813009F043C08981813041F47E0182E00F
:10136000E80EF11C8A810E94F40B09C0823049F416
:101370007E01E2E0EE0EF11C8A810E94C60AE701BE
:101380002FC0833041F47E01F2E0EF0EF11C8A8120
:101390000E94750BF4CF843011F0219621C02A8170
:1013A000229680E090E030E0205331092A30310568
:1013B00058F4089FA001099F500D1124C901840F02
:1013C000951F21962881EFCF009751F0EFE9FFE0BC
:1013D0003197F1F700C000000197F6CF0E94350960
:1013E0002196812F882309F4AFCFEFE9FFE03197F1
:1013F000F1F700C000008150F5CFDF91CF911F9130
:101400000F91FF90EF90089560E00C949B098295F6
:10141000982F937344E0949F900111248C7C8695BF
:101420008695282B822F8575880F2A7A2695822B00
:101430000895CF93DF93D92F0E94070AC82F8D2FCD
:101440000E94070A2C2F30E0322F2227A901482BB7
:10145000CA01DF91CF91089508950C942C0A81E080
:1014600008950C942F0A0895CF93C82F0E942D0A37
:101470008C2F0E94310ACF91089580E00C94340A99
:101480000E94AD240C94340ACF930E94AD24C82F3F
:1014900080910202C81741F1C09302028091B2020A
:1014A00082FF1EC080FF04C08EEA94E00E9486077F
:1014B0008091B20280FF0CC01F92CF9389EA94E022
:1014C0009F938F930E941F080F900F900F900F9083
:1014D0008091B20280FF04C087EA94E00E948607F0
:1014E0008C2FCF910C94340ACF910895CF93DF9332
:1014F000CDB7DEB72B970FB6F894DEBF0FBECDBFCA
:101500004F83588769877A878B8761110E941F13E1
:101510009E012F5F3F4F86E0F90111928A95E9F70E
:1015200085E0FE013796D90101900D928A95E1F789
:1015300089819A814C815D81452B31F09F3F31F447
:1015400091E08F3F19F403C091E001C090E090FF5B
:1015500009C049815A816B817C818D819E810E9465
:10156000401205C0C9010E946D088111F2CF2B966F
:101570000FB6F894DEBF0FBECDBFDF91CF910895B7
:10158000FC01808191810E949B0F0895CF93882355
:1015900009F4A9C0C82F8238C1F40E94AD2481FD8E
:1015A000A2C069E380910201909103010E9400268C
:1015B0000E9441132FEF81EE94E021508040904033
:1015C000E1F700C0000069E319C0833801F50E940B
:1015D000AD2480FD88C063E58091020190910301F4
:1015E0000E9400260E9441132FEF81EE94E02150CB
:1015F00080409040E1F700C0000063E58091020167
:10160000909103010E940B26CF910C9441138438D2
:10161000C1F40E94AD2482FD66C067E4809102019E
:10162000909103010E9400260E9441132FEF81EE4A
:1016300094E0215080409040E1F700C0000067E452
:10164000DDCF8CEF8C0F813AF8F48C2F0E94CE21E5
:10165000811149C06C2F80910201909103010E9479
:101660005E25882349F06C2F80910201909103013F
:101670000E940B260E9441136C2F809102019091D1
:1016800003010E940026C0CF80E28C0F883048F40E
:10169000C77081E001C0880FCA95EAF70E94021363
:1016A000B3CFEBE5EC0FE33040F4F0E0E95BFE4F45
:1016B000808190E0CF910C941C25E8E5EC0FE73198
:1016C00050F4F0E0EE0FFF1FE75EFE4F8081918146
:1016D000CF910C943225C03F30F08C2F0E94E51939
:1016E000CF910C94B71ACF910895882309F464C060
:1016F000823879F40E94AD2481FF5EC069E3809155
:101700000201909103010E9400260E94411369E3A7
:1017100010C08338B1F40E94AD2480FF4DC063E552
:1017200080910201909103010E9400260E944113C2
:1017300063E580910201909103010E940B260C94B5
:101740004113843879F40E94AD2482FF35C067E4E8
:1017500080910201909103010E9400260E94411392
:1017600067E4E7CF9CEF980F913A10F4682FE1CF30
:1017700090E2980F983050F4877091E001C0990F73
:101780008A95EAF7892F0E940813D9CF9BE5980F15
:10179000933020F480E090E00C941C2598E5980F9D
:1017A000973120F480E090E00C943225803F20F0C7
:1017B0000E94401A0C94B71A08951F93CF93DF9399
:1017C000182FEB010E94C60A209741F08FE99FE095
:1017D0000197F1F700C000002197F6CF812FDF912C
:1017E000CF911F910C94750B893319F060E070E074
:1017F00002C060E570E00C94DD0B882321F00E94AC
:1018000002130C9441130895882321F00E940813B9
:101810000C9441130895CF92DF92EF92FF920F93B1
:101820001F93CF93DF937C01162FC72FFC01D2812A
:10183000058102950F700E94F8128823B9F0DD230C
:10184000A9F08C2F807F803421F080E2810F8830D6
:1018500068F08091FE0282FD09C082E00E94A1131F
:101860000E94F81291E0D82ED92601C0D12CCC2E9E
:10187000C2948FE0C8228C2D90E08C30910508F046
:101880009EC1FC01EA5AFF4F0C94A92F8C2F807F38
:10189000CF70882311F0C295C07FDD2399F0CC234F
:1018A00009F479C180E2810F883010F0111104C071
:1018B0008C2F0E94021303C08C2F0E9412130E94CF
:1018C000411369C1812F0E94750BCC2309F477C1A4
:1018D00080E2810F883038F1112329F18C2F0E948A
:1018E000181324C08C2F807FCF70803211F0C295E6
:1018F000C07F112319F01130A1F13DC08091FE028B
:1019000082FF17C0DD2349F0CC2329F08C2F0E94E1
:1019100002130E94411380E03FC180E00E94750BDA
:10192000CC2309F44CC18C2F0E9408130E94411350
:1019300046C1DD2371F0002341F0013031F40E94F3
:1019400022138C2B0E942A133AC10E9422138C2B43
:101950001DC0002319F0013009F431C10E94371372
:1019600025C0DD2321F0063008F029C10EC0053066
:1019700008F025C11BC0DD2361F0002331F0F70121
:10198000858180FF08C18F7085838C2F0E94FD0B9D
:1019900016C1002359F0193309F00EC1FFEF27EEED
:1019A00083E0F15020408040E1F704C18C2F0E9479
:1019B000040C05C18C2F86958695837019F08130B3
:1019C00061F0FDC0DD2321F0812F9C2F937002C0B8
:1019D00080E090E00E941C25FAC0DD2321F0812FD9
:1019E0009C2F937002C080E090E00E943225EFC0EF
:1019F000812FDD2319F00E94E51902C00E94401AD0
:101A00000E94B71AE4C08C2F837079F5D111DBC026
:101A1000412F429546954770440F440F212F2F7058
:101A2000042E01C0220F0A94EAF714FF08C08FE0C9
:101A300090E001C0880F4A95EAF7809501C080E0E8
:101A4000C695C695C370822BC23049F058F4C13098
:101A500019F00E94C80EB7C00E94C30EB4C00E9405
:101A6000CD0EB1C00E94C10EAEC0DD2319F08C2F87
:101A7000817001C08695882309F4A5C0412F429545
:101A800046954770440F440F212F2F70042E01C03C
:101A9000220F0A94EAF714FF08C08FE090E001C01B
:101AA000880F4A95EAF7809501C080E0C695C695F3
:101AB000C370822BC23049F058F4C13019F00E9433
:101AC0000C0F81C00E94070F7EC00E94110F7BC0C7
:101AD0000E94D40E78C0CF70DD2339F08C2F0E9485
:101AE000E50E812F0E94FD0B6EC0812F0E94040C19
:101AF0008C2F0E94F00E67C0123F21F128F4103F96
:101B000041F0113FC1F043C0133F19F1143F79F088
:101B10003EC0DD2341F0053008F051C08C2F8F719D
:101B20000E94FC0E4CC0063008F049C0F7CF8091EF
:101B3000FE0282FF18C0DD2339F08C2F8F710E94C6
:101B4000E50E3DC0DD23C9F38C2F8F710E94F00E8E
:101B500036C0DD2329F08C2F8F710E94DD0E2FC03F
:101B60000E94DA0E2CC0DD2349F0CF718C2F0E9429
:101B7000E50E63E08C2F0E94861321C081E00E9455
:101B8000A1130230E0F082E00E94A11318C0DD230F
:101B900031F0002391F2812F0E94C60A10C0002369
:101BA00099F2193349F49FEFE7EEF3E09150E040EA
:101BB000F040E1F700C00000812F0E94750B88EF14
:101BC0008C0D843020F40E94AD240E94340ADD2064
:101BD000C9F00E94F41280FD15C0F70112820E9424
:101BE000EE120E94E50EC7010E94230E0E94EE1223
:101BF000DF91CF911F910F91FF90EF90DF90CF90E9
:101C00000C94F00EDF91CF911F910F91FF90EF9008
:101C1000DF90CF9008950F931F93CF93DF93EC0144
:101C2000688179818A810E94A60F8C010E94160F1B
:101C30000E94B50EB801CE010E940B0CDF91CF912E
:101C40001F910F910895CF93DF93EC0198818981C3
:101C50002B813C81232B31F08F3F31F481E09F3F7A
:101C600019F403C081E001C080E080FD1DC0CE01F9
:101C70000E94B508811110C00E94F8128823A1F0BB
:101C80008A81882389F08091FE0282FD0DC082E066
:101C9000DF91CF910C94A113CE010E940B0ECE01C7
:101CA000DF91CF910C946F08DF91CF91089580E080
:101CB00090E00E941C2580E090E00E9432250E9466
:101CC0001F130E9441130E946A1C0C94B71A809142
:101CD0000201909103010E9416260C94570E0E9457
:101CE0000F130C94670E92959F70963079F010F454
:101CF000925001C09A50923068F4803F69F018F415
:101D0000883E40F409C0843F29F406C0883E20F094
:101D1000813F11F080E0089581E00895FC01808109
:101D200091810E949B0F0E94730E0895CF93DF93C1
:101D300000D000D01F92CDB7DEB70F900F900F905C
:101D40000F900F90DF91CF910895CF93DF9300D044
:101D500000D000D0CDB7DEB726960FB6F894DEBF20
:101D60000FBECDBFDF91CF910895089508950C94D3
:101D7000B60E0C94B70E0E94B90E809323020C94F9
:101D8000570E0C94BB0E90912302892B0C94BB0E22
:101D90009091230289230C94BB0E909123028927F2
:101DA0000C94BB0E0C94B60E0E94D20E80932202AD
:101DB0000C94570E80E00C94D40E91E001C0990F62
:101DC0008A95EAF7892F0C94D40E21E030E001C007
:101DD000220F8A95EAF780912202822B0C94D40E6E
:101DE00021E030E001C0220F8A95EAF7209580912A
:101DF000220282230C94D40E21E030E001C0220F95
:101E00008A95EAF78091220282270C94D40E909151
:101E10002202892B0C94D40E9091220289230C94D7
:101E2000D40E9091220289270C94D40E08952FE0AD
:101E3000929F800D1124E82FE695E695E695877030
:101E400051E001C0550F8A95EAF783E0E89FF00161
:101E50001124EC5FFD4F20E030E070E04081CB01C9
:101E6000022E02C0969587950A94E2F781708195BB
:101E700084278523842781932F5F3F4F23303105AB
:101E800069F708952FE0929F800D1124682F6695C1
:101E900066956695982F977083E0689FB00111242E
:101EA00040E050E080E0FB01E40FF51FEC5FFD4FE8
:101EB000208130E0092E02C0369527950A94E2F77A
:101EC00021703327042E01C0220F0A94EAF7822BD7
:101ED0004F5F5F4F4330510531F70895CF92DF9246
:101EE000FF920F931F93CF93DF936C010091220217
:101EF00080912302082BC7E0D0E010E0C8010C2E2F
:101F000002C0959587950A94E2F780FD04C0219759
:101F1000A8F7F12C07C0FC2EB6018C2F0E94A41646
:101F20000197A9F38F2DDF91CF911F910F91FF9012
:101F3000DF90CF900895CF93DF93EC010E946E0F56
:101F4000BE010E94A416DF91CF9108951F93CF93F5
:101F5000DF93EB0190910302992321F0CB010E94C2
:101F60009B0F13C0882349F0CB010E946E0F182FDE
:101F7000682FCE010E94170F04C0CB010E94420FB0
:101F8000182FBE01812F0E94A416DF91CF911F91BF
:101F900008951F93CF93DF93C091240216E08091A0
:101FA0002502C81799F0D0E01C9FF0011D9FF00D8D
:101FB0001124EA5DFD4F40815181628173818481EA
:101FC00095810E94A50E2196C770E9CFDF91CF9130
:101FD0001F91089540915602509157026091580206
:101FE0007091590280915A0290915B020C94A50E57
:101FF000EF92FF920F931F93CF93DF9380915B0239
:1020000082958F7009F065C080915802882309F489
:1020100060C080912402F090250210915602009138
:1020200057026091590270915A0291E01F3F09F0E6
:1020300090E0C0910001D0910101292F96E0E92E96
:102040008F1509F446C06115710521F00F3F21F08D
:1020500030E003C031E001C0322F90E030FD36C0E7
:10206000E89EF001E99EF00D1124DF01AA5DBD4F4D
:1020700011963C911197301329C03C91311326C021
:1020800012963C911297311121C013964D915C919B
:102090001497461B570B4C175D07C0F480915B02E9
:1020A0008F70806180935B02E55DFD4F80818F7052
:1020B0008061808386E592E00E94230EDF91CF91BC
:1020C0001F910F91FF90EF900C94C90F01968770AC
:1020D000B7CFDF91CF911F910F91FF90EF900895AF
:1020E0009F92AF92BF92CF92DF92EF92FF920F93A7
:1020F0001F93CF93DF93CDB7DEB761970FB6F894F8
:10210000DEBF0FBECDBF8C0185E0F801DE011D965C
:1021100001900D928A95E1F7D8011296EC9090917A
:102120005602E09157022091590230915A0221152E
:10213000310531F0EF3F31F481E09F3F19F403C0E6
:1021400081E001C080E0B82FB1709B2E80FD47C1B7
:10215000D8014C9111965C9111971396AD90BC905B
:10216000149786E5C82E82E0D82EF0905802B5016B
:10217000621B730B2091000130910101FF2009F4D3
:10218000D9C080915B026217730708F095C0282FB1
:10219000207F09F052C05E1313C0491311C0FE2CFA
:1021A000E1100EC08F70806180935B020E94EA0F85
:1021B000C6010E94230E80915B02F80185834DC108
:1021C000AB2831F05F3F31F481E04F3F19F403C099
:1021D00081E001C080E080FD03C081E08E2502C067
:1021E00080E090E0F82FF170FF2E80FF1CC08091FE
:1021F00024022091250236E0821709F40BC190E0F9
:10220000389FF001399FF00D1124EA5DFD4F618187
:10221000561306C06081461303C06281E61203C0F4
:1022200001968770E9CFFE2CEE2009F416C180914B
:102230005B02816080935B0254C05E1306C0491349
:1022400004C0E11002C0F80199C0C8010E948E0EBE
:10225000882361F1EE2051F120915B02822F82955B
:102260008F7090E0029774F080915602909157021F
:1022700098878F831986BB86AA862C87CE010796FE
:102280000E94230E86E0F801A6E5B2E001900D92CF
:102290008A95E1F70E94F80F0E94EA0F0AC05E17C4
:1022A00011F1C8010E948E0E81112CC0C8010E943C
:1022B000230EFF24F394D1C0282F207F81F77A2D9D
:1022C000B98AA88A6E2D89890E94960E86E592E0C9
:1022D0000E94230E86E0D6011D928A95E9F70E949E
:1022E000EA0FF12CBAC04913DCCFE110DACFF801C4
:1022F0008583C8010E94230E86E0D6011D928A952F
:10230000E9F7ABC0EE2091F220915B02822F82951B
:102310008F7090E002970CF4B5CF809156029091A7
:1023200057029A8389831B82BD82AC822E83CE01A1
:102330000196A6CF6217730708F044C0FE2CEE206A
:1023400009F4B4CF5E1330C049132EC020915B0254
:1023500020FD21C0822F82958F70482F50E04115BB
:102360005105C9F0F80125834F30510541F08F5FC9
:10237000982F9295907F822F8F70892B8583C8012B
:102380000E94230E86E0F801A6E5B2E001900D92CE
:102390008A95E1F73CC086E0F801A6E5B2E001903D
:1023A0000D928A95E1F759C0C8010E948E0E8111E5
:1023B00069CF80915B02816080935B02C8010E94BB
:1023C000230E4BC07A2DB98AA88A6E2D89890E9466
:1023D000960E86E0D6011D928A95E9F718C0EE2088
:1023E00009F464CFC8010E948E0EF82E882309F4E8
:1023F0005DCF86E0F801A6E5B2E001900D928A95E6
:10240000E1F786E592E00E94C00A0E94F80F0E9460
:10241000EA0F23C04D875E878D859E850E949B0FA6
:10242000292F22952F70223028F49F7039F08111C6
:1024300005C00BC0243028F49F7049F4805E8830BA
:1024400020F0C8010E94230E9F2CF92C06C0D80151
:1024500015969C91907F91F7F8CF8F2D61960FB6CE
:10246000F894DEBF0FBECDBFDF91CF911F910F91CA
:10247000FF90EF90DF90CF90BF90AF909F90089526
:102480001F93CF93DF93CDB7DEB72C970FB6F89499
:10249000DEBF0FBECDBF4F83588769877A878B8792
:1024A0009C87CE0107960E9470108823D1F09F81EF
:1024B00088852A853B85232B31F08F3F31F481E0DD
:1024C0009F3F19F403C081E001C080E080FD47C058
:1024D0004F81588569857A858B859C850E94A50EDC
:1024E0003EC086E0FE013796DE01119601900D9206
:1024F0008A95E1F7FF81E8856A857B85611571051D
:1025000031F0EF3F31F481E0FF3F19F403C081E087
:1025100001C080E080FD23C02091250230E0C90188
:102520000196877099274091240250E084179507FF
:10253000F1F1F983EA837D836C8396E0929FD00169
:10254000939FB00D1124AA5DBD4FFE0131960190FD
:102550000D929A95E1F7809325020E94C90F16E02B
:102560008091240290912502891771F1189FC00172
:1025700011248A5D9D4F0E947010882329F1E091FB
:1025800024021E9FF0011124EA5DFD4F408151811C
:1025900062817381848195810E94A50E80912402BD
:1025A00090E001968770992780932402D9CF0E94EA
:1025B0006F0E1092250210922402E6E5F2E086E00A
:1025C000DF011D928A95E9F72C960FB6F894DEBFCD
:1025D0000FBECDBFDF91CF911F91089580917C02F6
:1025E000859585958595089580917C0287700895DD
:1025F00090917C02977081E009F480E008958091C9
:102600009F02089590919F02892B80939F020895C5
:10261000809590919F02892380939F020895109244
:102620009F02089590919E02892B80939E020895A7
:10263000809590919E02892380939E020895109226
:102640009E02089580917D02089508950C942513AB
:102650000C9426139091FE0292FD08C090917D0289
:10266000981721F080937D020C942813089580918F
:102670007D02882329F010927D0280E00C942813BB
:102680000895CF93DF93E0910201F09103018091CF
:102690009F028083E0910201F0910301908180917B
:1026A0009E02892B808380917D02882381F0E091B6
:1026B0000201F09103019081892B808380910201B6
:1026C000909103010E94482581110E943713C09107
:1026D0000201D091030140E250E06CE572E0CE01CE
:1026E0000E94CA2F892B69F080E2FE01ACE5B2E0BE
:1026F00001900D928A95E1F7CE01DF91CF910C9474
:10270000B924DF91CF9108950C9425139091FE0286
:1027100092FD10C098E0899F90011124262B2093F0
:102720007C020E94E50E80917C02859585958595B9
:102730000C9484130C94E50E10927C0280E00C94AF
:10274000841320917C028095822380937C02982FB1
:10275000977099F430E0482F082E000C550B241781
:10276000350759F09091FE0292FD07C08595859539
:1027700085950E94F00E0C949C130895CF93909130
:10278000FE0292FB222720F92817F9F0C82F892F83
:10279000C0FB82F98093FE028091FD029091FE02BF
:1027A0000E94201482E00E94A1138091B20280FF57
:1027B0000CC01F92CF9389EB94E09F938F930E945C
:1027C0001F080F900F900F900F90CF910895809158
:1027D000FE0282FB882780F991E089270C94BE13C2
:1027E00081E00C94BE1380E00C94BE136FEF7FEF7A
:1027F00080E090E00C94033080E090E00E94DF2FB6
:10280000893E9E4F11F40C94781C80E0089582E07C
:1028100090E00C94D72F83E090E00C94D72FCF93C7
:1028200084E090E00E94D72FC82F82E290E00E94BF
:10283000D72F2C2F30E0A901582BCA01CF91089532
:10284000CF93C92F682F84E090E00E94E52F6C2F72
:1028500082E290E0CF910C94E52FAB01BC018FE0B8
:1028600090E00C94F72FAB01BC0183E190E00C9455
:10287000F72F60E070E0CB010C94331460E070E05F
:10288000CB010E942D140C94391469EE7EEF80E088
:1028900090E00E94033060E082E090E00E94E52F2B
:1028A00060E083E090E00E94E52F1092230260E058
:1028B00084E090E00E94E52F60E082E290E00E94D8
:1028C000E52F60E085E090E00E94E52F60E086E083
:1028D00090E00E94E52F6FEF87E090E00E94E52FE7
:1028E00040E050E0BA0188E090E00E94F72F60E0FD
:1028F0008DE090E00E94E52F40E050E0BA0188E1D1
:1029000090E00E94F72F60E087E190E00E94E52FC1
:1029100040E050E0BA018CE190E00E94F72F60E0C7
:1029200070E080E290E00E94033040E050E0BA01A5
:1029300088E190E00E94F72F80E00E94911C0E94A5
:10294000C41C0C943E140C944514682F8EE090E047
:102950000C94E52F0E94D0266093AE027093AF02D4
:102960008093B0029093B1026093AA027093AB027D
:102970008093AC029093AD02089585B7806885BFBF
:1029800085B7806885BF089581E008950C94C414CC
:1029900008950C94C8140C94C8140C94CB140C9483
:1029A000C8140C94CF140C94C8140E94BD1480E574
:1029B00099E20E94A3240E94D3140C94D1140E9483
:1029C000C9140C94C8140E9498170C94330A0E94DE
:1029D000BB260E94D31C0E94B9180E94E3140C94D9
:1029E000CD145F926F927F928F929F92AF92BF921F
:1029F000CF92DF92EF92FF920F931F93CF93DF93CB
:102A0000CDB7DEB72A970FB6F894DEBF0FBECDBFA5
:102A10000E94CE18C82E81110E94AA1430EA832E7B
:102A200032E0932E00E010E0502E802F0E94B2176B
:102A30005C01F401619071904F0168267926611460
:102A40007104B1F40F5F1F4F0530110569F78FEF67
:102A500089838A831B820E94C4268160782F9D838C
:102A60008C8349815A816B818D810E94760A3AC09C
:102A70008091B20281FD0E94BB17D12CEE24E39419
:102A8000F12CC3018E219F21892B29F10E94C614AC
:102A90008823A9F0DE825F82AE20BF2081E0AB28D0
:102AA00009F480E088870E94C4268160782F9A8785
:102AB00089874E815F8168858A850E94760A000F2A
:102AC000111FF801E056FD4F80819181E826F9261B
:102AD000F182E08207C0D394EE0CFF1CFFE0DF120E
:102AE000D0CFB0CF81E0C11001C080E02A960FB6F0
:102AF000F894DEBF0FBECDBFDF91CF911F910F9134
:102B0000FF90EF90DF90CF90BF90AF909F908F900D
:102B10007F906F905F9008950E94F1140E94571B60
:102B20000C94440ACF93DF930E94A916EC018115FF
:102B300021E5920708F045C0811530E5930708F0BC
:102B400094C0883E910528F5803E910508F0F8C0B4
:102B5000883A910570F4853A910508F07CC081307F
:102B6000910509F475C008F4E8C0049708F0E8C0BE
:102B7000E4C08F3B910508F0E0C0C85AD0E0CC0F0C
:102B8000DD1FC65BDE4F0990D881C02DCE01946455
:102B9000D8C0811540E2940758F4811551E095079B
:102BA00008F0CEC0803F910508F4C7C09065C9C049
:102BB000C11580E4D80708F4C0C0DF70CE01906A68
:102BC000C0C0811525E59207A8F4811534E5930767
:102BD00008F095C0811543E5940708F07BC0811586
:102BE00052E5950708F061C0D82FCC27CE01816F40
:102BF000906AA7C0C11589E5D807A0F4C11528E5DA
:102C0000D20708F082C0C11536E5D30708F095C099
:102C10008C2F0E943D178F7190E0D82FCC27CE01CA
:102C200090628FC0C1154AE5D40708F474C0CE0184
:102C300090568115904208F080C08D2F8F710E94B0
:102C40003D17DD27D0628F71AE01582BCA0179C0C4
:102C500081E090E076C0C55AD0E0C858DE4F888148
:102C6000C82FD0E0CE0190646CC074E09695879533
:102C70007A95E1F7282F23703C2F337081E090E0A4
:102C800002C0880F991F3A95E2F79C68AC01522B5D
:102C90009A019C2F9F709695969550E2959FE00122
:102CA0001124C9018C2B9D2B4CC08370992721E0E6
:102CB00030E002C0220F331F8A95E2F79C2F9695D1
:102CC000969580E2989FE0011124C22BD32BCE0170
:102CD0009C6837C08370992721E030E002C0220F42
:102CE000331F8A95E2F79C2F9695969540E2949F24
:102CF000E0011124C22BD32BCE019A6822C0D82F19
:102D0000CC27CE01846F906A1CC0DC2FCC27CE016B
:102D1000806F906A16C08C2F8F700E943D1794E0D0
:102D2000D695C7959A95E1F7CF70D0E0DC2FCC27E8
:102D3000D0699E01282BC90104C080E090E001C049
:102D4000CE01DF91CF9108950E94EB220E9492154F
:102D500008958238910569F1B0F48133910509F441
:102D60006DC048F48932910509F463C08A32910537
:102D700009F469C008958533910509F455C0893374
:102D80009105B9F00895833E910569F138F4803ECC
:102D90009105B1F0823E910509F10895863E9105B5
:102DA000A9F1873E9105B9F1843E910509F064C00F
:102DB00023C02091FD0220FD4FC021FD4DC008958C
:102DC0008091FD0280FD44C08091FE0280FF44C0DE
:102DD0008091FD0284FD42C083EE4DC08091FD02D2
:102DE00082FF38C0F5CF8091FD0282FD33C0809113
:102DF000FE0280FD31C0ECCF8091FE0281FF32C027
:102E00008091FD0284FD2AC087EE35C08091FD02CD
:102E100083FF26C0F5CF8091FD0283FD21C0809104
:102E2000FE0281FD1FC0ECCF8091FD0285FD1CC01C
:102E30001DC08091FD0285FD19C016C08091FD0264
:102E400086FD16C017C08091FD0286FD13C010C01C
:102E500089E311C082EE0FC080EE0DC080E00BC090
:102E600086EE09C084EE07C089E205C085E303C091
:102E70008AE201C081E390E008959091FD0292FF03
:102E80000DC0282F2871283019F4877F846006C070
:102E9000282F2471243011F48B7F886093FF0DC09C
:102EA000282F2871283119F4877E846106C0282FC5
:102EB0002471243111F48B7E88612091FE0220FF61
:102EC0000DC0382F3871383019F4877F816006C003
:102ED000382F3171313011F48E7F886021FF0DC0A1
:102EE000282F2871283119F4877E816106C0282F88
:102EF0002171213111F48E7E886194FD877E0895C1
:102F00000C94F6130E94CE188FE39CE90197F1F719
:102F100000C000000E94CE1880E00E94B21780FF1F
:102F200004C00E9480170C94112708950C948217F6
:102F30000E94FC13811102C00E94A3140E94071476
:102F40008093B2020E940F149093FE028093FD02C0
:102F50000E9496170E940B140E94C10E80912202BB
:102F60000C94D20EE82FF0E0EE0FFF1FE75FFC4F4E
:102F7000808191810895CF92DF92EF92FF920F931B
:102F80001F93CF93DF938EED94E00E94860789E034
:102F9000E82E83E0F82EC0E0D0E099EDC92E94E051
:102FA000D92E00ED14E0DF93CF93DF92CF920E94F1
:102FB0001F0886ED94E00E948607F70181919191A8
:102FC0007F010E94190A9F938F931F930F930E9472
:102FD0001F088EEC94E00E94860721968DB79EB75D
:102FE00008960FB6F8949EBF0FBE8DBFC530D105B1
:102FF000D1F6DF91CF911F910F91FF90EF90DF906D
:10300000CF90089580EA8A95F1F7089500C0089559
:103010000C94021808950C940A180C940B180C9434
:103020000A180C940F18F894E82FE295EF70F0E06E
:1030300031A1282F2F7081E090E001C0880F2A95E0
:10304000EAF7982F9095932391A392A1892B82A3BD
:10305000789408950F931F93CF93DF93CAE8D1E03C
:1030600089918F3F11F00E94131881E0CF38D80763
:10307000B9F7CBE7D1E00AE811E089918F3F11F071
:103080000E9413180C171D07C1F7DF91CF911F91F4
:103090000F910895BF92CF92DF92EF92FF920F931C
:1030A0001F93CF93DF938C01C62FD0E0CE018657BC
:1030B0009E4F6C01FC0190819F3F09F450C0B62ED9
:1030C000F894E92FE295EF70F0E081A19F7021E084
:1030D00030E001C0220F9A95EAF7822B81A382A1EA
:1030E0002095282322A378940E940618EBE7F1E0AC
:1030F0004AE851E021E030E0E12CF12C61916F3F92
:1031000089F0A62FA295AF70B0E090968C9190E0D8
:103110006F7002C0959587956A95E2F780FD02C0B1
:10312000C90102C080E090E0E82AF92A220F331F8B
:103130004E175F0719F7F60180818F3F11F00E944B
:10314000131861E0E114F10409F460E08B2D0E9492
:103150000818CC0FDD1FC00FD11FF982E882DF9164
:10316000CF911F910F91FF90EF90DF90CF90BF9084
:1031700008950E942A188AE0E9E0F3E0DF01982F21
:103180001D929A95E9F7EFEFF2E0DF011D928A9523
:10319000E9F785E00E9419190C94A108FF920F939A
:1031A0001F93CF93DF93CDB7DEB72A970FB6F8946E
:1031B000DEBF0FBECDBF8E010F5F1F4F8AE0F8014B
:1031C00011928A95E9F7F12C6F2DC8010E944A18D7
:1031D000F394F5E0FF12F8CF4AE050E0B8018FEF2A
:1031E00092E00E94CA2FFF24F394009709F4F12C77
:1031F000892B41F08AE0F801AFEFB2E001900D9227
:103200008A95E1F72F2D45E069E073E08FEF92E0BA
:103210000E941A190E94A3088F2D2A960FB6F894BF
:10322000DEBF0FBECDBFDF91CF911F910F91FF90F9
:1032300008950895FF920F931F93CF93DF93F82E75
:10324000092F162FD72FC42F222349F081E0809316
:10325000B5020E94C4269093B4028093B302809179
:10326000B5028823D9F08091B3029091B4020E94F4
:10327000DC26059798F0EF2DF02FA12FBD2F80E0D1
:1032800090E04C2F50E08417950734F42191319150
:103290002D933D930196F7CF1092B502DF91CF9118
:1032A0001F910F91FF9008950E94CC290E94E7146E
:1032B0000C94D8290E94DC290E948C150C94FA29C0
:1032C0000E9462260E94B3290E94D5140E945419BC
:1032D0000E945A190E94DF14FBCF8091BC0280FF2C
:1032E00006C06091090170E0660F771F26C081FF5C
:1032F00004C06091090184E005C082FF07C06091AD
:10330000090188E0689FB001112417C09091BB02A9
:103310009923D1F060910801961788F7209109014F
:1033200088E0289F90011124929FA001939F500D47
:10333000112470E0CA010E94952F6038710540F495
:103340006115710519F406C068E070E0862F0895D4
:103350008FE7089581E008958091BC0280FF08C046
:103360006091050170E0759567957595679521C029
:1033700081FF06C06091050170E07595679519C0E1
:1033800082FF04C06091050170E010C09091BA0204
:10339000992399F0609104019617A0F78091050197
:1033A000899FC001112470E00E94952F603871053B
:1033B00040F46115710519F406C061E070E0862FD4
:1033C00008958FE7089581E00895803F21F40E94D9
:1033D0006D19819504C0813F29F40E946D19809375
:1033E000C0020895823F21F40E946D19819504C0A6
:1033F000833F29F40E946D198093BF020895893F8D
:1034000019F40E94AC1905C08A3F31F40E94AC192E
:1034100081958093C10208958B3F21F40E94AC19DD
:10342000819504C08C3F29F40E94AC198093C2029C
:1034300008959CE0980F953078F421E030E0A901E0
:1034400002C0440F551F9A95E2F7CA019091BE023F
:10345000892B8093BE0208958D3F21F48091BC0298
:1034600081600BC08E3F21F48091BC02826005C058
:103470008F3F29F48091BC0284608093BC02089540
:10348000803F39F49091C00297FF35C01092C0027E
:1034900059C0813F29F49091C0021916BCF32BC08A
:1034A0009091BF02823F29F497FF25C01092BF027E
:1034B00049C0833F19F41916CCF31DC09091C10285
:1034C000893F29F41916BCF41092C1023BC08A3F0F
:1034D00019F497FF10C0F8CF8B3F39F49091C202D6
:1034E00097FF09C01092C2022DC08C3F21F4909129
:1034F000C2021916BCF39CE0980F953080F421E0CD
:1035000030E0A90102C0440F551F9A95E2F7CA01A5
:1035100080959091BE0289238093BE0213C08D3F97
:1035200021F48091BC028E7F0BC08E3F21F48091EC
:10353000BC028D7F05C08F3F29F48091BC028B7F38
:103540008093BC028091BF02811106C08091C002AD
:10355000811102C01092BB028091C102811106C08C
:103560008091C202811102C01092BA020895809126
:10357000B20283FF7EC08CE195E00E9486078091B5
:10358000BE021F928F9387E195E09F938F930E94D5
:103590001F0885E195E00E9486078091BF02282FD1
:1035A000082E000C330B3F938F9382E195E09F939D
:1035B0008F930E941F0880E195E00E94860780910A
:1035C000C002282F082E000C330B3F938F938DE001
:1035D00095E09F938F930E941F088BE095E00E94D7
:1035E00086078091C102282F082E000C330B3F93D1
:1035F0008F9388E095E09F938F930E941F0886E049
:1036000095E00E9486078091C202282F082E000CA8
:10361000330B3F938F9383E095E09F938F930E94AA
:103620001F0880E095E00E9486078091BB021F92F0
:103630008F938DEF94E09F938F930E941F088BEFE1
:1036400094E00E9486078091BC021F928F9388EFBE
:1036500094E09F938F930E941F0885EF94E00E944F
:1036600086078DB79EB74C960FB6F8949EBF0FBED7
:103670008DBF0E94C4262091BF02211104C0209159
:10368000C002222321F09093B9028093B8022091C6
:10369000C102211104C02091C202222321F0909383
:1036A000B7028093B6028DEB92E00C940E25EF9258
:1036B000FF920F931F93CF93DF9300D000D000D0E1
:1036C000CDB7DEB786E0EDEBF2E0DE0111960190BA
:1036D0000D928A95E1F7E090BF02F090C002009150
:1036E000C1021091C2021092BF021092C002109249
:1036F000C1021092C202E11003C0FF2009F45DC0B4
:103700008091B8029091B9020E94DC26AC019091A0
:10371000BB02992339F020910A0130E024173507C4
:1037200058F04BC020910B018AE0289F9001112492
:103730002417350718F041C09F3F19F09F5F909301
:10374000BB02EE2061F00E946D191E1414F09FEF71
:1037500001C091E0989F902D11249093BF02FF200B
:1037600061F00E946D191F1414F09FEF01C091E0E9
:10377000989F902D11249093C0023091BF02332363
:10378000E1F02091C0022223C1F045EB3403C001D7
:103790001124992319F09093BF0203C081E0809314
:1037A000BF0235EB2303C0011124992319F0909334
:1037B000C00203C081E08093C002011103C0112345
:1037C00009F45DC08091B6029091B7020E94DC2698
:1037D000AC019091BA02992339F02091060130E0B2
:1037E0002417350758F04BC0209107018AE0289F25
:1037F000900111242417350718F041C09F3F19F09C
:103800009F5F9093BA02002361F00E94AC191016DA
:1038100014F09FEF01C091E0989F902D1124909398
:10382000C102112361F00E94AC19111614F09FEF30
:1038300001C091E0989F902D11249093C202309185
:10384000C1023323E1F02091C2022223C1F045EBF3
:103850003403C0011124992319F09093C10203C0CD
:1038600081E08093C10235EB2303C0011124992329
:1038700019F09093C20203C081E08093C20280914C
:10388000BF0281110BC08091C002811107C08091DD
:10389000C102811103C08091C20281110E94B71A36
:1038A000EB82FC820D831E8386E0FE013196ADEB38
:1038B000B2E001900D928A95E1F726960FB6F89442
:1038C000DEBF0FBECDBFDF91CF911F910F91FF9053
:1038D000EF900895EDEBF2E086E0DF011D928A950E
:1038E000E9F71092BB021092BA021092BC0208953E
:1038F00083E290E00E94D72F823281F484E290E04C
:103900000E94D72F843051F485E290E00E94D72F97
:1039100091E0813009F090E0892F01C080E0817052
:103920000895CF93C82F811102C06FEF01C062E2EA
:1039300083E290E00E94E52FC11102C06FEF01C049
:1039400064E084E290E00E94E52FC11102C06FEFB5
:1039500001C061E085E290E0CF910C94E52F0895DD
:1039600086E290E00E94D72F682F70E080E090E020
:1039700008950895CF93C62F0E94B91C6C2F86E23C
:1039800090E0CF910C94E52F80E00E94911C60E0C4
:1039900070E0CB010E94BA1C0E9466220E9445235F
:1039A00081E00C94911C0E94AF1C0E94B01C0E94EC
:1039B000B91C0E94781C811102C00C94C41C08958B
:1039C000CF93FB01C281CC23E9F09C0122513F45FA
:1039D0002031310520F482510E9455230CC08031E2
:1039E000FFE59F0751F481E00E94E50E43E062E0AD
:1039F00081E00E949808C0E018C081319F45A9F479
:103A000082E0F2CF8031EFE59E0711F481E004C03F
:103A100081319F4549F482E00E94F00E43E062E06C
:103A200081E00E94980801C0C1E08C2FCF910895D9
:103A30002FEFFC0120830895EF92FF920F931F93C5
:103A4000CF93DF93EC01062FE8818E2F90E0FC01ED
:103A50003197E331F10508F091C0EE59FF4F0C9416
:103A6000A92F198289E04DC08981823039F08330D5
:103A700061F0813029F50E94D02602C00E94B01C5E
:103A80009A838B837C836D837BC07E0110E0812FC2
:103A90000E94B217F701928383831F5FF2E0EF0E5B
:103AA000F11C1530A1F76CC08981823049F46A811C
:103AB0007B818C819D810E94AF2F0E94BA1C60C0C7
:103AC000602FCE010E94181D5BC04B816A818981E5
:103AD0000E9438229C838D8353C02C813D813227E4
:103AE000232732274B816A8189810E94512248C055
:103AF0000E94662245C00E94F82224C00E94FA2239
:103B000099838A833DC06B8170E089819A81AE017F
:103B10004C5F5F4F9827892798270E94FD2230C06D
:103B20006B8170E089819A81AE014C5F5F4F98276D
:103B3000892798270E94222323C00E94452320C062
:103B40000E94252289831CC06B8170E089819A8143
:103B5000AE014C5F5F4F9827892798270E94A522C6
:103B60000FC06B8170E089819A81AE014C5F5F4F1D
:103B70009827892798270E94C92202C08FEF88833F
:103B8000602FCE01DF91CF911F910F91FF90EF90A9
:103B90000C94CB27CF93DF93EC01FB018281882328
:103BA00009F43CC1C330FDE5DF0760F4CA3F9CE582
:103BB000D90788F49E0122503C452431310508F094
:103BC0002EC109C0C136EDE5DE0729F0C53AFDE595
:103BD000DF0709F024C10E940F149093FE02809326
:103BE000FD02C1318CE5D80709F4C6C008F042C017
:103BF000C930ECE5DE0709F49BC000F5C5308CE563
:103C0000D80709F485C078F4C330ECE5DE0709F481
:103C100078C008F07AC0C230DC4509F0F5C0809168
:103C2000FD028160EFC0C7309CE5D90709F478C078
:103C300008F07AC08091FD028061E4C0CD30FCE5DF
:103C4000DF0709F487C058F4CB309CE5D90709F4A5
:103C500079C008F07BC08091FD0288606FC0CF30D2
:103C6000FCE5DF0709F480C008F082C08091FD0206
:103C7000877FC8C0CD3F9CE5D90709F471C000F526
:103C8000C531FCE5DF0709F485C068F4C3319CE564
:103C9000D90709F475C008F095C00E946F0E809195
:103CA000FD028F77AFC0CB3FFCE5DF07A9F108F03D
:103CB00054C0CA3FDC4509F0A7C08091FE0240C055
:103CC000C130EDE5DE0709F489C058F4CF3F8CE53B
:103CD000D80709F45AC008F069C08091FE028260DA
:103CE0002FC0C136EDE5DE0709F47CC0C53AFDE51D
:103CF000DF0709F481C0C230DD4509F085C080E0EE
:103D00006EC08091FD0282607DC08091FD0216C070
:103D10008091FD02886076C08091FE0282604FC073
:103D20008091FD0280626EC08091FD0280646AC055
:103D30000E946F0E8091FD02806864C0846062C042
:103D400081603DC08091FD028E7F5CC08091FD024C
:103D50008D7F58C08091FD0216C08091FE0218C070
:103D60008091FE028D7F2BC08091FD028F7E4AC024
:103D70008091FD028F7D46C08091FD028F7B42C005
:103D80008091FD02877F8B7F3DC08091FE028D7FF9
:103D90008E7F15C08091FD0282FB222720F991E0E1
:103DA000922790FB82F990FB83F92CC08091FE0250
:103DB000982F909591708E7F892B90FB81F980933D
:103DC000FE0222C00E946F0E8091FD0287FB222717
:103DD00020F991E0922790FB87F914C081E00E94BE
:103DE000A51412C08091FD0284FB222720F991E0E6
:103DF000922790FB84F906C08091FD02982F909540
:103E000090FB80F98093FD028091FD029091FE026B
:103E10000E9420140E946F0E80E001C081E0DF91BB
:103E2000CF910895809104011F928F938091050195
:103E30001F928F93809108011F928F9380910901A7
:103E40001F928F9380910A011F928F9380910B0193
:103E50001F928F938FE395E09F938F930E941F088B
:103E60008DB79EB70E960FB6F8949EBF0FBE8DBF4E
:103E70000895883220F58E3108F068C08B3091F1BA
:103E8000C0F4873009F0BEC081E080930B0184E16B
:103E900080930A018AE0809309018EE180930801F2
:103EA00088E08093050188E28093040181EA96E02E
:103EB000C6C0833109F443C0843169F1A3C08F3493
:103EC00009F49EC028F4893231F1883359F09AC040
:103ED000813531F008F4D4C0823509F4A7C092C00E
:103EE0008FEFA5C083EC96E00E9486070E94121F08
:103EF0001F9281E08F931F9288E08F938CEB95E067
:103F00009F938F930E941F080F900F900F900F9018
:103F10000F900F9096C080EC96E00E9486078091EB
:103F2000C702882309F4AAC01092C7021092C602E1
:103F30001092C5021092C4021092C302B1C082EB6B
:103F400096E00E9486070E94121F7BC08D518093CD
:103F5000C702833031F170F48130D1F0823009F042
:103F60003FC08AE091E09093C6028093C5028CE93D
:103F700091E01FC0853059F108F1863089F584E061
:103F800091E09093C6028093C50287ED91E011C045
:103F90008BE091E09093C6028093C50283E991E0A3
:103FA00008C089E091E09093C6028093C50288EA38
:103FB00091E09093C4028093C30218C088E091E01E
:103FC0009093C6028093C50285EB91E0F2CF85E025
:103FD00091E09093C6028093C50284EC91E0E9CF12
:103FE0001092C7028FEA96E00E9486078091C7026E
:103FF000882309F455C01F928F938BEA96E00DC079
:104000008AE015C08EE996E01AC097FF47C010827B
:1040100080811F928F9388E996E09F938F930E94EF
:104020001F080F900F900F900F900BC081E0E09150
:10403000C502F091C602309729F585E996E00E9405
:1040400086072091C702222359F18091C3029091E3
:10405000C402009711F48FE891E09F938F931F9211
:104060002F938CE896E09F938F930E941F080F90E8
:104070000F900F900F900F900F9016C080E0089552
:1040800086EFD5CF2081082E000C990B820F911D51
:104090008F3F910509F00CF4B8CF8FEF8083B8CF34
:1040A00088E896E00E94860781E00895CF93C82FA4
:1040B0001F928F9389ED96E09F938F930E941F0824
:1040C00081E001C0880FCA95EAF70E94C10E0F90E7
:1040D0000F900F900F90CF910C946F0EDF92EF9294
:1040E000FF920F931F93CF93DF93482F50E0FA0175
:1040F0003597EF33F10508F03FC1EB58FF4F0C94B3
:10410000A92F0E940B141F928F9386E39BE09F932D
:104110008F930E941F080E94071483FB992790F930
:104120001F929F9382FB992790F91F929F9381FB87
:10413000992790F91F929F93982F91701F929F93A8
:104140001F928F938DEE9AE09F938F930E941F088A
:104150000E940F1487FB222720F91F922F9386FBC2
:10416000222720F91F922F9385FB222720F91F92E7
:104170002F9384FB222720F91F922F9383FB222762
:1041800020F91F922F9382FB222720F91F922F9351
:1041900091FB222720F91F922F93292F21701F9224
:1041A0002F9381FB222720F91F922F93282F217014
:1041B0001F922F939F938F9388E09AE09F938F9302
:1041C0000E941F088DB79EB788960FB6F8949EBFC1
:1041D0000FBE8DBF06C086EF9BE00E9486070E943F
:1041E000A314C1E0CEC086E598E074C08091B2020D
:1041F000817F8E7F8093B2028FE298E00E948607D3
:1042000082EF9BE00E94860781E08093C802E9CF9D
:1042100086ED9BE00E9486070E94A608E2CF80916F
:10422000B202C82FC095C170C0FB80F98093B20262
:10423000CC2319F08AEC9BE091C08DEB9BE00E94AF
:1042400086078091B202897F877F8093B202C9CFAF
:104250009091B20291FBCC27C0F981E0C827892F49
:10426000C0FB81F98093B202CC2319F080EB9BE074
:1042700027C082EA9BE02EC09091B20292FBCC272D
:10428000C0F981E0C827892FC0FB82F98093B20270
:10429000CC2319F083E99BE013C083E89BE01AC0AC
:1042A0009091B20293FBCC27C0F981E0C827892FF7
:1042B000C0FB83F98093B202CC2351F087E79BE0E7
:1042C0000E9486078091B20281608093B20259C039
:1042D0008AE69BE00E94860784CF82E697E0FACFC9
:1042E0000E94D026062FF72EE82ED92EC091FD026F
:1042F000C7FBCC27C0F91091FC02D09118010E9495
:10430000AD24DF92EF92FF920F931F92CF931F92F3
:104310001F931F92DF931F928F938EED96E09F93D2
:104320008F930E941F088DB79EB70E960FB6F89414
:104330009EBF0FBE8DBF55CF0E946F0E9091FD02A4
:1043400097FBCC27C0F981E0C827892FC0FB87F9EC
:104350008093FD02CC2329F080E69BE00E94860733
:1043600010C085E59BE0B6CF895303C08D5101C0D5
:1043700080E00E94562035CF83E59BE00E948607AF
:10438000C0E08C2FDF91CF911F910F91FF90EF90A4
:10439000DF90089580E008950C94CA21CF93C82F30
:1043A0008091C802813071F040F0823009F045C040
:1043B0008C2F0E94391F81E046C00E94FF1282327A
:1043C000F1F504C00E94FF12823261F48C2F0E942A
:1043D000CC21811104C08C2F0E946E202CC081E062
:1043E00090E029C08C2F0E94CA21811123C0C431C2
:1043F000C9F058F4CB3069F0C031B9F482E0809351
:10440000C80288E30E94391F15C0C93259F0C83369
:1044100061F48FE298E00E94860785ED96E00E94A5
:10442000860708C01092C8020CC083ED96E00E9477
:10443000860707C081E0817006C01092C80280E044
:1044400002C080E0F8CFCF91089584E0089550E055
:10445000440F551F2EE1629F400D511D11249A01FA
:1044600066E9869F200D311D1124C90187960895A4
:104470000F931F93CF93DF930E9427228C010E94FA
:10448000D72FC82FD0E0DC2FCC27C80101960E947F
:10449000D72F9E01282BC901DF91CF911F910F913A
:1044A00008950F931F93CF93DF93122F032F0E9432
:1044B0002722EC01602F0E94E52F612FCE0101968B
:1044C000DF91CF911F910F910C94E52FAF92BF9286
:1044D000CF92DF92EF92FF920F931F93CF93DF93D0
:1044E000A12CE12CF12CB12C00E010E0C0E0D0E0D8
:1044F0006701C00ED11EFE01EE0FFF1FEC0DFD1D6A
:10450000E458FE4F259134914C2F6B2D8A2D0E943B
:1045100051222196CF30D10571F7025E1F4FB3941F
:1045200085E0B812E3CF86E9E80EF11CA39484E09D
:10453000A812D9CFDF91CF911F910F91FF90EF90EB
:10454000DF90CF90BF90AF900895EF92FF920F93BE
:104550001F93CF93DF93EA017A01E60EF71E8C01D9
:10456000C8018796CE15DF0569F0083522E01207ED
:1045700020F40E94D72F888301C0188221960F5FF4
:104580001F4FEECFDF91CF911F910F91FF90EF90D2
:104590000895EF92FF920F931F93CF93DF93EA0159
:1045A0007A01E60EF71E8C01C8018796CE15DF054D
:1045B00059F0083522E0120718F468810E94E52FAF
:1045C00021960F5F1F4FF0CFDF91CF911F910F9179
:1045D000FF90EF900895462F843038F4753028F41A
:1045E0006F3018F4672F0C94382280E090E0089523
:1045F00080E1089581E891E00895EF92FF920F9392
:104600001F93CF93DF93EA017A01E60EF71E8C0128
:10461000C80181589D4FCE15DF0569F0013821E0B2
:10462000120720F40E94D72F888301C01882219698
:104630000F5F1F4FEDCFDF91CF911F910F91FF9033
:10464000EF900895EF92FF920F931F93CF93DF9314
:10465000EA017A01E60EF71E8C01C80181589D4FD0
:10466000CE15DF0559F0013821E0120718F46881F2
:104670000E94E52F21960F5F1F4FEFCFDF91CF9163
:104680001F910F91FF90EF900895CF93DF93CFE7A5
:10469000D2E060E0CE010E94E52F2196C11584E0B2
:1046A000D807B9F7DF91CF910895DF92EF92FF928B
:1046B0000F931F93CF93DF9300D000D0CDB7DEB719
:1046C000F82E8FE08F15E8F18FEF93E00E94D72F3F
:1046D000811137C00FE712E0FF2069F0011584E077
:1046E000180779F1C8010E94D72F811101C0FA94EF
:1046F0000F5F1F4FF1CF19821A821B821C82DD24AB
:10470000D39478018FEFE81AF80AC8010E94D72FD6
:1047100089831A828823A9F09FEF980F933058F469
:104720008A83D9820E5F1F4FC7010E94D72F8B83C8
:10473000882339F07801CE0101960E94040A87018E
:10474000E0CF0F900F900F900F90DF91CF911F91BE
:104750000F91FF90EF90DF900895CF93DF93863114
:104760009C4541F5EB010E94FF12982F8A81209110
:10477000020130910301882379F09A7A81E009F4EB
:1047800080E08093C902911102C069E201C065E333
:10479000C9010E9400260AC08091C902811102C08D
:1047A00069E201C065E3C9010E940B260E94411322
:1047B00080E001C081E0DF91CF9108950F931F93B6
:1047C000CF93DF93C42FD22FFC0182818823C9F0BD
:1047D0004093CC020E94C4269093CB028093CA02DD
:1047E00080E28C0F883008F057C0C77081E001C0AC
:1047F000880FCA95EAF7DF91CF911F910F910C9422
:10480000FD0B8091CC02481330C08091CA02909178
:10481000CB020E94DC26883C910538F510E21D0F82
:10482000CD17B9F080E28C0F883040F4C77081E07A
:1048300001C0880FCA95EAF70E94040C183028F5C9
:1048400081E09D2F977001C0880F9A95EAF70E942A
:10485000FD0B802F0E94F40B1830F0F4D77081E02C
:1048600001C0880FDA95EAF70AC080E28C0F883021
:1048700098F4C77081E001C0880FCA95EAF7DF910C
:10488000CF911F910F910C94040C802FDF91CF9149
:104890001F910F910C94F40BDF91CF911F910F9109
:1048A00008950F939C01CB01233F4CE5340731F170
:1048B00088F4283DFCE53F07D9F0293D4CE5340755
:1048C00079F1273D3C45A9F506E221EE41EE67ED81
:1048D0007CE52BC0253FFCE53F07E1F0A8F0263F33
:1048E0003C4539F507E225EE46EE66EF7CE51DC056
:1048F00007E225EE45EE68ED7CE517C006E221EE05
:1049000040EE63EF7CE511C007E225EE44EE64EF74
:104910007CE50BC006E221EE42EE65EF7CE505C0CA
:1049200008E221E045EE69ED7CE50E94DE2380E0AF
:1049300008C0FC018281882319F01092CC0201C0CA
:1049400081E00F91089590930102809300020895F1
:104950009093D2028093D1020895E091D102F09118
:10496000D202309721F00190F081E02D099480E08F
:104970000895EF92FF921F93CF93DF93FC01A091D4
:10498000D102B091D202109709F442C0809118016F
:10499000882341F08091FD0287FF04C080818183DC
:1049A00086E08083EF011296ED91FC911397CE0182
:1049B00009958091B20282FF2BC080FF04C08FE076
:1049C0009CE00E94860718E089E0E82E8CE0F82E33
:1049D0008091B20280FF0BC088811F928F93FF925B
:1049E000EF920E941F080F900F900F900F901150A0
:1049F00021961111EDCF8091B20280FF09C087E0AE
:104A00009CE0DF91CF911F91FF90EF900C9486076F
:104A1000DF91CF911F91FF90EF900895E091D10227
:104A2000F091D202309739F022E0DC012C9304801F
:104A3000F581E02D099408952091CF023091D002A4
:104A40002817390771F09093D0028093CF02E0913C
:104A5000D102F091D202309721F00680F781E02D4B
:104A6000099408952091CD023091CE02281739077C
:104A700071F09093CE028093CD02E091D102F0913B
:104A8000D202309721F00084F185E02D0994089539
:104A9000FC01329680911801882331F08091FD024B
:104AA00087FF02C09EE101C096E080E0915028F0AF
:104AB00021912223D9F38F5FF9CF0895662351F115
:104AC000209118012223E9F02091FD0227FF19C04F
:104AD000462F4695469546954E31E0F4677021E0A5
:104AE00030E002C0220F331F6A95E2F7FC01E40FA9
:104AF000F11D828190E02823392381E0232B69F482
:104B000009C0FC01329608962191621729F0E81736
:104B1000F907D1F780E0089581E008959C01FC0138
:104B200032969FEF80E04191461789F09F3F19F43C
:104B3000411101C0982F8F5F8630A9F79F3F39F050
:104B4000F901E90FF11D97FDFA9562830895089523
:104B50009C012A5F3F4FFC014281461301C0128233
:104B6000019682179307B9F70895262F2695269563
:104B700026952E3170F4FC01E20FF11D677021E0E3
:104B800030E001C0220F6A95EAF78281282B228348
:104B900008958091B20280FF0CC01F926F938FE343
:104BA0009CE09F938F930E941F080F900F900F908F
:104BB0000F900895262F2695269526952E3178F468
:104BC000FC01E20FF11D677021E030E001C0220F0F
:104BD0006A95EAF72095828128232283089580919F
:104BE000B20280FF0CC01F926F9381E29CE09F9302
:104BF0008F930E941F080F900F900F900F900895B1
:104C000020911801222329F02091FD0227FD0C9408
:104C1000B5250C948E2520911801222329F020918E
:104C2000FD0227FD0C94DA250C94A825209118018B
:104C3000FC013296222331F08091FD0287FF02C0F1
:104C40008EE101C086E0DF011D928A95E9F70895A3
:104C500008950C94282683E08093D3020C9429268F
:104C6000811102C081E001C082E08093D3020C94E4
:104C700029260C94302681E08093D3020C942926B7
:104C80000C943B2608950C9442260C9443260C94D5
:104C900042260C9442260C944226CF930E94492629
:104CA0000E94CE180E944726C0E08C2F0E94B217A7
:104CB000892B29F4CF5FC530C1F780E001C081E0C6
:104CC000CF91089508951F920F920FB60F9211245D
:104CD0008F939F93AF93BF938091D402811113C0A0
:104CE0008091130390911403A0911503B0911603C2
:104CF0004196A11DB11D8093130390931403A093BB
:104D00001503B0931603BF91AF919F918F910F90B0
:104D10000FBE0F901F90189580911B03843031F1C6
:104D20000E942D091092D40220E488E190E00FB691
:104D3000F894A895809360000FBE2093600083B71D
:104D4000817F846083BF83B7816083BF78948895B7
:104D500083B78E7F83BF0FB6F894A89580916000CB
:104D6000886180936000109260000FBE08950E94D9
:104D70006F0E0C94310982E084BD93E095BD9AEFEB
:104D800097BD80936E0008952FB7F8948091130318
:104D900090911403A0911503B09116032FBF0895AD
:104DA0002FB7F89460911303709114038091150349
:104DB000909116032FBF08959C014FB7F8948091EE
:104DC000130390911403A0911503B09116034FBFE4
:104DD000821B930B089578941F920F920FB60F9237
:104DE00011248F939F93AF93BF938091130390915E
:104DF0001403A0911503B09116030196A11DB11DD6
:104E00008093130390931403A0931503B093160398
:104E1000BF91AF919F918F910F900FBE0F901F90F8
:104E2000189581E08093E00080E28093D800109292
:104E3000C9008FE19EE40197F1F700C0000087E010
:104E400090EBDC018093240390932503A093260329
:104E5000B09327039CE088E10FB6F894A89580935F
:104E600060000FBE90936000FFCF8091FB02089519
:104E7000089524E02093E9002FEF3091E8002150BD
:104E800035FD06C035ED3A95F1F700002111F5CF5B
:104E90002091E80025FF0BC040E050E066E070E0A4
:104EA0000E94A12A8091E8008E778093E8000895FF
:104EB000CF93DF9320911801222339F02091FD0236
:104EC00027FF03C060E224E002C068E021E02093F5
:104ED000E9002FEF3091E800215035FD06C035ED97
:104EE0003A95F1F700002111F5CF2091E80025FF58
:104EF0001DC0EC0180911801811105C040E050E017
:104F000068E070E003C070E040E050E0CE010E9435
:104F1000A12A8091E8008E778093E80080E2FE016C
:104F2000ABEDB2E001900D928A95E1F7DF91CF9160
:104F300008958093D7027093D9026093D80280912C
:104F40001B038430F9F48093E9008FEF9091E8001F
:104F5000815095FD06C095ED9A95F1F700008111FD
:104F6000F5CF8091E80085FF0DC040E050E063E0A0
:104F700070E087ED92E00E94A12A8091E8008E7790
:104F80008093E8000895BC0184E00C949927BC014B
:104F900083E00C949927CF93603219F520911B037D
:104FA0002430F9F4C091E900CF703091EC00232F48
:104FB000217030FD20E8C22B22E02093E9002091EF
:104FC000E80020FF0BC040E050E060E270E00E948B
:104FD000A12A8091E8008E778093E800CF70C0937B
:104FE000E900CF91089581E79CE00E9486078091B7
:104FF0001A03811109C00E947D2C0E94DA2C809135
:10500000E20084608093E20008958DE69CE00E94B7
:10501000860710921A03089589E69CE00E9486078D
:105020000C94402685E69CE00E9486076091170359
:1050300081E0611101C080E00C942B2681E69CE0A8
:105040000E94860790911B0381E0943009F080E074
:10505000609117030C9430262091D6022F5F822F87
:1050600062E30E94892F992319F02093D6020895B4
:105070001092D6028091DA02882371F180911B038D
:10508000843041F58091E9008F702091EC00922FDF
:10509000917020FD90E8892B95E09093E900909124
:1050A000EB0090FF14C09091EE0097FF10C090911C
:1050B000E80095FF03C01092F100F9CF9091E8004D
:1050C00090FF05C09091E8009E779093E8008F7064
:1050D0008093E9001092DA02089542E061EC81E0E9
:1050E0000E94F62B42E261EC84E00E94F62B42E241
:1050F00061EC82E00E94F62B42E260EC83E00E94C9
:10510000F62B42E261EC85E00E94F62B90911B03A6
:1051100081E0943009F080E0609117030C94392607
:1051200080911D03833009F463C030F4813071F045
:10513000823009F49CC008958A3009F488C08B300D
:1051400009F46EC0893009F0AAC020C080911C0308
:10515000813A09F0A4C08091E800877F8093E8003D
:105160008091200390912103892B21F460E28BED43
:1051700092E003C060E080E090E070E00E94372B96
:105180008091E8008B778093E800089580911C035C
:10519000813209F084C0809120039091210300970F
:1051A00019F0029709F07BC08091E800877F809317
:1051B000E8008091E80082FD05C080911B03811109
:1051C000F8CF6DC02091F3008091F20090E0922B17
:1051D000029731F48091F100813011F0863021F492
:1051E0008091F1008093FB028091E8008B7753C09F
:1051F00080911C03813A09F052C080912003909164
:105200002103892B09F04BC08091E800877F8093B0
:10521000E8008091E80080FFFCCF8091180136C043
:1052200080911C038132D9F5809120039091210354
:10523000892BA9F58091E800877F8093E8000E9480
:105240002B2C80911E03809318010C946F0E80917B
:105250001C03813221F58091E800877F8093E8006C
:105260000E942B2C80911F038093FC020895809153
:105270001C03813AA1F48091E800877F8093E800C5
:105280008091E80080FFFCCF8091FC028093F100C8
:105290008091E8008E778093E8000C942B2C089581
:1052A0009FB7F8941092DA029FBF90911B0394303D
:1052B00009F057C09091E9009F703091EC00232FC6
:1052C000217030FD20E8922B25E02093E900209109
:1052D000EB0020FF43C02091EE0027FF3FC020914C
:1052E000D502222321F02091E80025FF37C010923B
:1052F000D50226E03091E80035FD15C030911B0342
:10530000343061F53091EB0035FD28C0215021F497
:1053100081E08093D50222C0EFE9FFE03197F1F7F9
:1053200000C00000E7CF8093F1008091E80085FD88
:105330000AC08091E80080FFFCCF8091E8008E7762
:105340008093E80006C08FB7F89421E02093DA023A
:105350008FBF9F709093E90080E008959F709093B5
:10536000E9008FEF089584B7877F84BF0FB6F89464
:10537000A895809160008861809360001092600021
:105380000FBE90E080E80FB6F89480936100909390
:1053900061000FBE0C943B260E947D2C0E94DA2CEB
:1053A000E2EEF0E080818460808378940C946E2F2C
:1053B0008CE091E00C94A82480911B038530C9F403
:1053C0008DE59CE00E94860780911B03853079F46F
:1053D0000E948C26809119038823B1F30E944D26E8
:1053E000882391F30E948B2A0E946F0EEDCF0C94BC
:1053F000B7260895CF93DF93CDB7DEB7A0970FB64A
:10540000F894DEBF0FBECDBF80911B03843011F531
:1054100083E08093E9008091E80082FF1BC08091C7
:10542000E80085FF0AC040E050E060E270E0CE0195
:1054300001960E94EC2A91E001C090E08091E80082
:105440008B778093E800992329F060E2CE010196E2
:105450000E941C1DA0960FB6F894DEBF0FBECDBFF4
:10546000DF91CF9108950C94352A292F33272330CB
:105470003105C9F060F42130310581F02230310569
:1054800009F041C08BE790E029EB3CE040C02132BD
:105490003105E1F02232310531F135C082E190E091
:1054A00024E33DE034C099278130910549F028F08C
:1054B000029749F5E5E7FCE005C0E5EBFCE002C03A
:1054C000E3E8FCE0849190E09F0121C06430710525
:1054D000D0F4660F771FFB01E850FE4F2081318129
:1054E00089E090E014C06430710568F4FB01EE0FB0
:1054F000FF1FE051FE4F20813181FB01E451FE4F3F
:10550000808190E004C080E090E020E030E0FA018B
:1055100031832083089580E189BD82E189BD09B48A
:1055200000FEFDCF8091D8008F7D8093D8008091C0
:10553000E00082608093E0008091E00081FDFCCF7C
:105540000895CF92DF92EF92FF920F931F93CF9324
:10555000DF93EC018B017A010E944A2C811133C048
:10556000E114F10439F0F70180819181081B190BD6
:10557000C80FD91FC12CD12C0115110519F180912B
:10558000E80085FD16C08091E8008E778093E800E2
:10559000E114F10449F0F70180819181C80ED91E10
:1055A000D182C08285E00FC00E944A2C882321F35B
:1055B0000AC089918093F10001501109FFEFCF1AC1
:1055C000DF0ADACF80E0DF91CF911F910F91FF903A
:1055D000EF90DF90CF900895CF92DF92EF92FF92FD
:1055E0000F931F93CF93DF93EC018B017A010E94FD
:1055F0004A2C811133C0E114F10439F0F7018081A4
:105600009181081B190BC80FD91FC12CD12C011572
:10561000110519F18091E80085FD16C08091E80020
:105620008B778093E800E114F10449F0F701808161
:105630009181C80ED91ED182C08285E00FC00E9420
:105640004A2C882321F30AC08091F10089930150EC
:105650001109FFEFCF1ADF0ADACF80E0DF91CF9197
:105660001F910F91FF90EF90DF90CF9008952091C0
:105670002203309123032617370748F0611571057F
:1056800039F42091E8002E772093E80001C0B90199
:10569000FC0120E06115710579F180911B038823DD
:1056A000F1F18530F1F18091E80083FD3CC08091FB
:1056B000E80082FD2EC08091E80080FFEBCF2091B2
:1056C000F3008091F20090E0922B6115710551F08A
:1056D0008830910538F421912093F10061507109CF
:1056E0000196F3CF21E0089709F020E08091E800CF
:1056F0008E778093E800CECF2111CFCF0AC0809162
:105700001B03882361F0853061F08091E80083FD00
:105710000AC08091E80082FFF2CF80E0089582E025
:10572000089583E0089581E0089520912203309147
:1057300023032617370748F06115710539F42091C6
:10574000E8002E772093E80001C0B901FC0120E0B9
:105750006115710591F180911B03882309F440C004
:10576000853009F43FC08091E80083FD3DC0809101
:10577000E80082FD2FC08091E80080FFE9CF2091F2
:10578000F3008091F20090E0922B6115710559F0C1
:105790008830910540F424912093F10031966150B6
:1057A00071090196F2CF21E0089709F020E080917D
:1057B000E8008E778093E800CBCF2111CCCF0AC0D0
:1057C00080911B03882361F0853061F08091E800AF
:1057D00083FD0AC08091E80082FFF2CF80E0089547
:1057E00082E0089583E0089581E00895982F97302E
:1057F00068F59093E900981739F07091EC002091CA
:10580000ED005091F00003C0242F762F50E021FDD1
:1058100002C09F5FECCF3091EB003E7F3093EB00F6
:105820003091ED003D7F3093ED003091EB00316021
:105830003093EB007093EC002093ED005093F00058
:105840002091EE0027FDE5CF80E008958F708093D2
:10585000E90081E0089580911C0387FF11C08091C9
:10586000E80082FD05C080911B038111F8CF11C0B3
:105870008091E8008B770BC080911B03882349F04F
:105880008091E80080FFF8CF8091E8008E778093C8
:10589000E80008952091E4003091E50095E64091FC
:1058A000EC00842F817040FF23C08091E80080FDD0
:1058B0001DC080911B03882399F0853099F0809159
:1058C000EB0085FD11C04091E4005091E5002417E4
:1058D000350729F3915011F09A01E1CF84E0089542
:1058E00082E0089583E0089581E0089580E00895BE
:1058F0004091E80042FFDDCF08950E94EB2C0E940A
:10590000F32CE0EEF0E0808181608083E8EDF0E050
:1059100080818F77808319BCA7EDB0E08C918E7F5A
:105920008C9380818F7E808310921A0308950F9349
:105930001F93CF93DF930E94EB2C0E94F32CC8EDB2
:10594000D0E088818F778883888180688883888188
:105950008F7D888319BC10921B031092170310923D
:1059600019031092180300EE10E0F80180818B7F7C
:10597000808388818160888342E060E080E00E94CB
:10598000F62BE1EEF0E080818E7F8083E2EEF0E0A6
:10599000808181608083808188608083F80180813C
:1059A0008E7F8083888180618883DF91CF911F9172
:1059B0000F910895E8EDF0E080818F7E8083E7ED20
:1059C000F0E080818160808384E082BF81E0809309
:1059D0001A030C94972CE8EDF0E080818E7F808391
:1059E0001092E20008951092DA001092E1000895FA
:1059F0001F920F920FB60F9211242F933F934F9344
:105A00005F936F937F938F939F93AF93BF93EF9326
:105A1000FF938091E10082FF0BC08091E20082FF42
:105A200007C08091E1008B7F8093E1000E942C28C9
:105A30008091DA0080FF1FC08091D80080FF1BC0DA
:105A40008091DA008E7F8093DA008091D90080FF08
:105A50000DC080E189BD82E189BD09B400FEFDCFA2
:105A600081E080931B030E94F32705C019BC1092AC
:105A70001B030E9405288091E10080FF19C08091DE
:105A8000E20080FF15C08091E2008E7F8093E200EB
:105A90008091E20080618093E2008091D800806272
:105AA0008093D80019BC85E080931B030E941228C4
:105AB0008091E10084FF30C08091E20084FF2CC01F
:105AC00080E189BD82E189BD09B400FEFDCF8091EE
:105AD000D8008F7D8093D8008091E1008F7E8093E5
