:100000000C9433020C9450020C9450020C94500245
:100010000C9450020C9450020C9450020C94500218
:100020000C9450020C9450020C94B71F0C9489202D
:100030000C943B1A0C9450020C9450020C945002F5
:100040000C9450020C9450020C9450020C945002E8
:100050000C9450020C94C31A0C9450020C9450024D
:100060000C9450020C9450020C9450020C945002C8
:100070000C9450020C9450020C9450020C945002B8
:100080000C9450020C9450020C9450020C945002A8
:100090000C9450020C9450020C9450020C94500298
:1000A0000C9450020C9450020C9450025D055D05B6
:1000B00089058905D806F105D806D806FC05640629
:1000C00075067506FA14FD141D152E153615411505
:1000D00087158715871587158715441547154C15FE
:1000E0005915661569156D157A15F6201D2115220D
:1000F0001D21152269218C211522E321F2212900DD
:1001000014001A000800150017002B000400160048
:10011000070009000A00E0001D001B00060019008E
:1001200005002A0007000800E30091002C411C0094
:1001300018000C00120013002D000B000D000E0023
:100140000F003300E50011001000360037003800C2
:10015000E40028429000E6000600040005000100CB
:100160000000000000000000000001001E001F0051
:10017000200021002200010000000000000000001B
:100180000000010001000100010001000100000069
:100190002E002E0225022202010023002400250049
:1001A00026002700010000000000010001000100FE
:1001B00001004C00010001000100010001000100EC
:1001C00031001E022402310200000100200235002D
:1001D0003402340035020100000000002F022F001D
:1001E0002602010001000100010001002A000000B8
:1001F0002E002E0225022202010050005100520062
:100200004F00210201002702300030021F022302AA
:1002100001000100010001000100010001000100D6
:1002200001000100010001000100010001000100C6
:1002300001000100010001000100010001000100B6
:1002400001000100010001000100010001000100A6
:100250000100010001000100010001000100010096
:100260000100010001000100010001000100010086
:100270000100010001000100010001000100000077
:100280000000000000002A2B2800000000000000F1
:1002900000000000000000000029000000002C1EEB
:1002A0003420212224342627252E362D3738271EA8
:1002B0001F202122232425263333362E37381F04CE
:1002C00005060708090A0B0C0D0E0F101112131466
:1002D00015161718191A1B1C1D2F3130232D350424
:1002E00005060708090A0B0C0D0E0F101112131446
:1002F00015161718191A1B1C1D2F3130354C00000C
:1003000000000000000000000000000000000000ED
:1003100000000000000000000000000000000000DD
:1003200000007E0F00D4FFFFFFC7000000780C0321
:100330006200610074003400330000000C03790097
:10034000660075006B0075000000040309040902D3
:100350005B00030100A0FA09040000010301010091
:100360000921110100012240000705810308000155
:10037000090401000203000000092111010001220B
:100380002200070582032000010705030320000166
:1003900009040200010300000009211101000122EB
:1003A000490007058403200001120100020000003B
:1003B00008465902000100010200010660FF0961C0
:1003C000A1010962150026FF009520750881020928
:1003D00063150026FF00952075089102C0050109EC
:1003E00002A10185020901A10005091901290815C9
:1003F00000250195087501810205010930093115B3
:1004000081257F95027508810609381581257F951C
:100410000175088106050C0A38021581257F9501B2
:1004200075088106C0C005010906A101050719E08C
:1004300029E71500250195087501810295017508C8
:1004400081010507190029FF150026FF0095067593
:100450000881000508190129059505750191029586
:100460000175039101C011241FBECFEFDAE0DEBF9A
:10047000CDBF11E0A0E0B1E0EEE9F5E402C00590E7
:100480000D92A633B107D9F721E0A6E3B1E001C090
:100490001D92A43FB207E1F70E94AB110C94CD224C
:1004A0000C94000081E0089581E008950C945402BA
:1004B00008950C9458021F93CF93DF9300D000D07F
:1004C0001F92CDB7DEB749835A836B8330913901D0
:1004D00089819A81311114C0662359F0222349F091
:1004E0000E946108182F682F89819A810E9408084C
:1004F00003C00E943408182F69817A81812F04C0BB
:100500000E94610869817A810F900F900F900F907F
:100510000F90DF91CF911F910C94A117FC01262F12
:10052000408151816281738184810C945B0281E0FE
:100530000895CF93DF93EC0160E00E948E02BE012C
:10054000DF91CF910C945902E1E0F0E0DF0102C0AD
:10055000AA0FBB1F6A95E2F7BD01DF0102C0AA0F17
:10056000BB1F4A95E2F7AD01462B01C0EE0F2A955D
:10057000EAF7942F9823491302C08E2B0895E09533
:100580008E230895242F462F682F80914C010E94BE
:10059000A4020C94C5070C946B100C94671008957A
:1005A0000E9460070E94CF022FEF84E39CE021505D
:1005B00080409040E1F700C000000C94E91A0F93CE
:1005C0001F93CF93DF938C0161E00E948E02EC01B8
:1005D000B8010E94A914882309F444C0B801CE01CF
:1005E0000E9456028823F1F1B801CE010E9407193A
:1005F0008823C1F1B801CE010E949315882391F19F
:10060000B801CE010E946318882361F1F80182814C
:10061000882309F1CA358DE5D807C1F050F4C1151A
:10062000FCE5DF0781F0CE3DDC45A9F40E94820D98
:1006300019C0CB35EDE5DE0761F0CC35DD4559F469
:100640000E94C60C08C00E94D0020CC00E94CF0CB1
:1006500002C00E94D20CC801DF91CF911F910F916F
:100660000C94520280E0DF91CF911F910F91089579
:100670000E941E1A0C9423040E9426040C94241A2F
:10068000DF92EF92FF920F931F93CF93DF93E82FA8
:10069000F0E0E258FD4FD490282F26952695269518
:1006A00030E0F901E25EFC4F0491877010E0082E03
:1006B00002C0159507950A94E2F701701127F90118
:1006C000E25FFC4FE490F12C082E02C0F594E79411
:1006D0000A94E2F791E0E922FF24F901E250FD4F8C
:1006E000C491D0E002C0D595C7958A95E2F7C17054
:1006F000DD270115110519F081EE0E948504E11432
:10070000F10419F086EE0E9485048D2D0E940B05E0
:10071000EF2819F086EE0E94C004012B19F081EE3B
:100720000E94C004CD2B51F08CE2DF91CF911F913C
:100730000F91FF90EF90DF900C940B05DF91CF911C
:100740001F910F91FF90EF90DF900895EF92FF922D
:100750000F931F93CF93DF93EC01162F0AE088814C
:10076000882309F455C0813009F043C08981813064
:1007700041F47E0182E0E80EF11C8A810E940B05A3
:1007800009C0823049F47E01E2E0EE0EF11C8A815C
:100790000E948504E7012FC0833041F47E01F2E01E
:1007A000EF0EF11C8A810E94C004F4CF843011F056
:1007B000219621C02A81229680E090E030E02053EB
:1007C00031092A30310558F4089FA001099F500DC6
:1007D0001124C901840F951F21962881EFCF00971E
:1007E00051F0EFE9FFE03197F1F700C00000019709
:1007F000F6CF0E9440032196812F882309F4AFCFC2
:10080000EFE9FFE03197F1F700C000008150F5CF2C
:10081000DF91CF911F910F91FF90EF90089560E0CD
:100820000C94A60308950C94120481E008950C948E
:1008300015040895CF93C82F0E9413048C2F0E9493
:100840001704CF91089580E00C941A040E94631954
:100850000C941A040E94631990913801891721F0B1
:10086000809338010C941A040895CF93DF93CDB789
:10087000DEB72B970FB6F894DEBF0FBECDBF4F8308
:10088000588769877A878B8761110E94120C9E01B5
:100890002F5F3F4F86E0F90111928A95E9F785E0D5
:1008A000FE013796D90101900D928A95E1F7898171
:1008B0009A814C815D81452B31F09F3F31F491E06D
:1008C0008F3F19F403C091E001C090E090FF09C090
:1008D00049815A816B817C818D819E810E94330B7D
:1008E00005C0C9010E9497028111F2CF2B960FB665
:1008F000F894DEBF0FBECDBFDF91CF910895FC010C
:10090000808191810E948E080895CF938823B1F150
:10091000C82F8CEF8C0F813AD0F46C2F809102019C
:10092000909103010E94C019882349F06C2F809197
:100930000201909103010E94F8190E94340C6C2F5F
:1009400080910201909103010E94F6190CC080E28F
:100950008C0F883058F4C77081E001C0880FCA95A9
:10096000EAF70E94F50BCF910C94340CC03F30F0A5
:100970008C2F0E943012CF910C940213CF910895C6
:10098000882389F19CEF980F913A40F4682F809169
:100990000201909103010E94F8190DC090E2980F96
:1009A000983058F4877091E001C0990F8A95EAF762
:1009B000892F0E94FB0B0C94340C9BE5980F93300D
:1009C00020F480E090E00C94881998E5980F973116
:1009D00020F480E090E00C949E19803F20F00E946B
:1009E0008B120C94021308951F93CF93DF93182F4B
:1009F000EB010E948504209741F08FE99FE0019769
:100A0000F1F700C000002197F6CF812FDF91CF9141
:100A10001F910C94C004893319F060E070E002C0AB
:100A200060E570E00C94F404882321F00E94F50B3B
:100A30000C94340C0895882321F00E94FB0B0C9435
:100A4000340C0895CF92DF92EF92FF920F931F9391
:100A5000CF93DF937C01D62FC72FFC011281058134
:100A600002950F700E94EB0B8823B9F01123A9F0B7
:100A70008C2F807F803421F080E28D0F883068F0E9
:100A80008091D20182FD09C082E00E94940C0E94F4
:100A9000EB0B91E0D82ED92601C0D12CCC2EC294DC
:100AA0008FE0C8228C2D90E08C30910508F080C139
:100AB000FC01EA5AFF4F0C945D228C2F807FCF708F
:100AC000882311F0C295C07F112399F0CC2309F43B
:100AD0005BC180E28D0F883010F0D11104C08C2FE3
:100AE0000E94F50B03C08C2F0E94050C0E94340C51
:100AF0004BC18D2F0E94C004CC2309F459C180E260
:100B00008D0F883038F1DD2329F18C2F0E940B0CDA
:100B100024C08C2F807FCF70803211F0C295C07FAF
:100B2000DD2319F0D130A1F13DC08091D20182FFC7
:100B300017C0112349F0CC2329F08C2F0E94F50B0C
:100B40000E94340C80E021C180E00E94C004CC23CC
:100B500009F42EC18C2F0E94FB0B0E94340C28C17B
:100B6000112371F0002341F0013031F40E94150C83
:100B70008C2B0E941D0C1CC10E94150C8C2B1DC0BF
:100B8000002319F0013009F413C10E942A0C25C07A
:100B9000112321F0063008F00BC10EC0053008F01B
:100BA00007C11BC0112361F0002331F0F7018581DB
:100BB00080FFEAC08F7085838C2F0E941405F8C0D7
:100BC000002359F0D93309F0F0C0FFEF27EE83E09E
:100BD000F15020408040E1F7E6C08C2F0E941B05B9
:100BE000E7C08D2F112319F00E94301202C00E941D
:100BF0008B120E940213E4C08C2F837079F51111BF
:100C0000DBC04D2F429546954770440F440F2D2F62
:100C10002F70042E01C0220F0A94EAF7D4FF08C0F7
:100C20008FE090E001C0880F4A95EAF7809501C0F7
:100C300080E0C695C695C370822BC23049F058F447
:100C4000C13019F00E94B907B7C00E94B407B4C000
:100C50000E94BE07B1C00E94B207AEC0112319F0B6
:100C60008C2F817001C08695882309F4A5C04D2F73
:100C7000429546954770440F440F2D2F2F70042E38
:100C800001C0220F0A94EAF7D4FF08C08FE090E079
:100C900001C0880F4A95EAF7809501C080E0C695AB
:100CA000C695C370822BC23049F058F4C13019F098
:100CB0000E94FD0781C00E94F8077EC00E940208C2
:100CC0007BC00E94C50778C0CF70112339F08C2FEC
:100CD0000E94D6078D2F0E9414056EC08D2F0E9492
:100CE0001B058C2F0E94E10767C0D23F21F128F439
:100CF000D03F41F0D13FC1F043C0D33F19F1D43FC1
:100D000079F03EC0112341F0053008F051C08C2F1E
:100D10008F710E94ED074CC0063008F049C0F7CF34
:100D20008091D20182FF18C0112339F08C2F8F716E
:100D30000E94D6073DC01123C9F38C2F8F710E94EA
:100D4000E10736C0112329F08C2F8F710E94CE0746
:100D50002FC00E94CB072CC0112349F0CF718C2FDC
:100D60000E94D60763E08C2F0E94790C21C081E09D
:100D70000E94940C0230E0F082E00E94940C18C0B3
:100D8000112331F0002391F28D2F0E94850410C0B1
:100D9000002399F2D93349F49FEFE7EEF3E0915045
:100DA000E040F040E1F700C000008D2F0E94C00439
:100DB00088EF8C0D843020F40E9463190E941A047D
:100DC000DD20C9F00E94E70B80FD15C0F7011282FB
:100DD0000E94E10B0E94D607C7010E941C070E94D7
:100DE000E10BDF91CF911F910F91FF90EF90DF907A
:100DF000CF900C94E107DF91CF911F910F91FF905D
:100E0000EF90DF90CF9008950F931F93CF93DF93D0
:100E1000EC01688179818A810E9499088C010E9485
:100E200007080E94A607B801CE010E942205DF91A3
:100E3000CF911F910F910895CF93DF93EC0198818B
:100E400089812B813C81232B31F08F3F31F481E06C
:100E50009F3F19F403C081E001C080E080FD1DC008
:100E6000CE010E94DF02811110C00E94EB0B88238B
:100E7000A1F08A81882389F08091D20182FD0DC082
:100E800082E0DF91CF910C94940CCE010E94040774
:100E9000CE01DF91CF910C949902DF91CF9108950B
:100EA0000E94120C0E94340C0E9433140C94021302
:100EB00080910201909103010E94FA190C9450074D
:100EC0000E94020C0C94580792959F70963079F00E
:100ED00010F4925001C09A50923068F4803F69F04B
:100EE00018F4883E40F409C0843F29F406C0883EC7
:100EF00020F0813F11F080E0089581E00895FC0129
:100F0000808191810E948E080E9464070895CF938A
:100F1000DF9300D000D01F92CDB7DEB70F900F90B7
:100F20000F900F900F90DF91CF910895CF93DF93A3
:100F300000D000D000D0CDB7DEB726960FB6F8941B
:100F4000DEBF0FBECDBFDF91CF9108950895089504
:100F50000C94A7070C94A8070E94AA0780934D0140
:100F60000C9450070C94AC0790914D01892B0C9474
:100F7000AC0790914D0189230C94AC0790914D01E1
:100F800089270C94AC070C94A7070E94C307809391
:100F90004C010C94500780E00C94C50791E001C00F
:100FA000990F8A95EAF7892F0C94C50721E030E064
:100FB00001C0220F8A95EAF780914C01822B0C9494
:100FC000C50721E030E001C0220F8A95EAF720959D
:100FD00080914C0182230C94C50721E030E001C0D0
:100FE000220F8A95EAF780914C0182270C94C5075D
:100FF00090914C01892B0C94C50790914C01892349
:101000000C94C50790914C0189270C94C50708954D
:10101000292F220F920F990F890FE82FE695E69559
:10102000E695877051E001C0550F8A95EAF783E095
:10103000E89FF0011124E65CFE4F20E030E070E014
:101040004081CB01022E02C0969587950A94E2F763
:101050008170819584278523842781932F5F3F4F5B
:101060002330310569F70895292F220F920F990F28
:10107000890F682F669566956695982F977083E01F
:10108000689FB001112440E050E080E0FB01E40FD4
:10109000F51FE65CFE4F208130E0092E02C0369538
:1010A00027950A94E2F721703327042E01C0220FFE
:1010B0000A94EAF7822B4F5F5F4F4330510531F7B7
:1010C0000895CF92DF92FF920F931F93CF93DF93F8
:1010D0006C0100914C0180914D01082BC7E0D0E0DC
:1010E00010E0C8010C2E02C0959587950A94E2F78E
:1010F00080FD04C02197A8F7F12C07C0FC2EB60193
:101100008C2F0E94450F0197A9F38F2DDF91CF916E
:101110001F910F91FF90DF90CF900895CF93DF93B1
:10112000EC010E946108BE010E94450FDF91CF9142
:1011300008951F93CF93DF93EB0190913901992389
:1011400021F0CB010E948E0813C0882349F0CB0107
:101150000E946108182F682FCE010E94080804C061
:10116000CB010E943408182FBE01812F0E94450F29
:10117000DF91CF911F9108951F93CF93DF93C0917B
:101180004E0116E080914F01C81799F0D0E01C9FE6
:10119000F0011D9FF00D1124E05BFE4F4081518155
:1011A00062817381848195810E9496072196C77020
:1011B000E9CFDF91CF911F91089540918001509127
:1011C00081016091820170918301809184019091ED
:1011D00085010C949607EF92FF920F931F93CF9384
:1011E000DF938091850182958F7009F065C08091B1
:1011F0008201882309F460C080914E01F0904F0174
:1012000010918001009181016091830170918401AE
:1012100091E01F3F09F090E0C0910001D0910101E1
:10122000292F96E0E92E8F1509F446C06115710546
:1012300021F00F3F21F030E003C031E001C0322F38
:1012400090E030FD36C0E89EF001E99EF00D1124DB
:10125000DF01A05BBE4F11963C911197301329C05E
:101260003C91311326C012963C911297311121C046
:1012700013964D915C911497461B570B4C175D07C5
:10128000C0F4809185018F70806180938501EB5A55
:10129000FE4F80818F708061808380E891E00E94A2
:1012A0001C07DF91CF911F910F91FF90EF900C944D
:1012B000BC0801968770B7CFDF91CF911F910F9136
:1012C000FF90EF9008959F92AF92BF92CF92DF92DE
:1012D000EF92FF920F931F93CF93DF93CDB7DEB7BB
:1012E00061970FB6F894DEBF0FBECDBF8C0185E0CD
:1012F000F801DE011D9601900D928A95E1F7D80163
:101300001296EC9090918001E091810120918301EF
:10131000309184012115310531F0EF3F31F481E046
:101320009F3F19F403C081E001C080E0B82FB17085
:101330009B2E80FD47C1D8014C9111965C9111976D
:101340001396AD90BC90149780E8C82E81E0D82EFB
:10135000F0908201B501621B730B20910001309166
:101360000101FF2009F4D9C080918501621773073C
:1013700008F095C0282F207F09F052C05E1313C0DB
:10138000491311C0FE2CE1100EC08F708061809354
:1013900085010E94DD08C6010E941C07809185011D
:1013A000F80185834DC1AB2831F05F3F31F481E016
:1013B0004F3F19F403C081E001C080E080FD03C00D
:1013C00081E08E2502C080E090E0F82FF170FF2EC2
:1013D00080FF1CC080914E0120914F0136E08217A2
:1013E00009F40BC190E0389FF001399FF00D1124F2
:1013F000E05BFE4F6181561306C06081461303C057
:101400006281E61203C001968770E9CFFE2CEE20C0
:1014100009F416C18091850181608093850154C0D3
:101420005E1306C0491304C0E11002C0F80199C060
:10143000C8010E947F07882361F1EE2051F12091BD
:101440008501822F82958F7090E0029774F08091D1
:1014500080019091810198878F831986BB86AA8627
:101460002C87CE0107960E941C0786E0F801A0E8B1
:10147000B1E001900D928A95E1F70E94EB080E947D
:10148000DD080AC05E1711F1C8010E947F078111B3
:101490002CC0C8010E941C07FF24F394D1C0282F40
:1014A000207F81F77A2DB98AA88A6E2D89890E94BA
:1014B000870780E891E00E941C0786E0D6011D9214
:1014C0008A95E9F70E94DD08F12CBAC04913DCCFF8
:1014D000E110DACFF8018583C8010E941C0786E07D
:1014E000D6011D928A95E9F7ABC0EE2091F22091CA
:1014F0008501822F82958F7090E002970CF4B5CF12
:1015000080918001909181019A8389831B82BD82A1
:10151000AC822E83CE010196A6CF6217730708F026
:1015200044C0FE2CEE2009F4B4CF5E1330C0491342
:101530002EC02091850120FD21C0822F82958F70C1
:10154000482F50E041155105C9F0F80125834F306F
:10155000510541F08F5F982F9295907F822F8F7069
:10156000892B8583C8010E941C0786E0F801A0E84A
:10157000B1E001900D928A95E1F73CC086E0F80158
:10158000A0E8B1E001900D928A95E1F759C0C80139
:101590000E947F07811169CF8091850181608093CE
:1015A0008501C8010E941C074BC07A2DB98AA88A00
:1015B0006E2D89890E94870786E0D6011D928A9543
:1015C000E9F718C0EE2009F464CFC8010E947F0734
:1015D000F82E882309F45DCF86E0F801A0E8B1E099
:1015E00001900D928A95E1F780E891E00E947F04D6
:1015F0000E94EB080E94DD0823C04D875E878D8521
:101600009E850E948E08292F22952F70223028F463
:101610009F7039F0811105C00BC0243028F49F70F1
:1016200049F4805E883020F0C8010E941C079F2C7E
:10163000F92C06C0D80115969C91907F91F7F8CFB0
:101640008F2D61960FB6F894DEBF0FBECDBFDF9130
:10165000CF911F910F91FF90EF90DF90CF90BF90AF
:10166000AF909F9008951F93CF93DF93CDB7DEB7D0
:101670002C970FB6F894DEBF0FBECDBF4F835887AF
:1016800069877A878B879C87CE0107960E946309BA
:101690008823D1F09F8188852A853B85232B31F0D3
:1016A0008F3F31F481E09F3F19F403C081E001C016
:1016B00080E080FD47C04F81588569857A858B859C
:1016C0009C850E9496073EC086E0FE013796DE01AB
:1016D000119601900D928A95E1F7FF81E8856A8560
:1016E0007B856115710531F0EF3F31F481E0FF3FFB
:1016F00019F403C081E001C080E080FD23C0209187
:101700004F0130E0C90101968770992740914E0141
:1017100050E084179507F1F1F983EA837D836C83A8
:1017200096E0929FD001939FB00D1124A05BBE4F15
:10173000FE01319601900D929A95E1F780934F0149
:101740000E94BC0816E080914E0190914F018917CC
:1017500071F1189FC0011124805B9E4F0E946309A4
:10176000882329F1E0914E011E9FF0011124E05BD6
:10177000FE4F4081518162817381848195810E94F5
:10178000960780914E0190E001968770992780938B
:101790004E01D9CF0E94600710924F0110924E0166
:1017A000E0E8F1E086E0DF011D928A95E9F72C96EA
:1017B0000FB6F894DEBF0FBECDBFDF91CF911F9162
:1017C000089580918E0185958595859508958091E0
:1017D0008E018770089590918E01977081E009F4D1
:1017E00080E0089580919901089590919901892B45
:1017F0008093990108958095909199018923809310
:101800009901089510929901089590919801892B5A
:1018100080939801089580959091980189238093F1
:101820009801089510929801089580918F0108956C
:1018300008950C94180C0C94190C9091D20192FDFF
:1018400008C090918F01981721F080938F010C941C
:101850001B0C089580918F01882329F010928F012D
:1018600080E00C941B0C0895CF93DF93E09102016C
:10187000F0910301809199018083E0910201F09140
:101880000301908180919801892B808380918F0141
:10189000882381F0E0910201F09103019081892B6E
:1018A000808380910201909103010E94B4198111FB
:1018B0000E942A0CC0910201D091030148E050E03F
:1018C00066E871E0CE010E947E22892B69F088E0F3
:1018D000FE01A6E8B1E001900D928A95E1F7CE01F4
:1018E000DF91CF910C946F19DF91CF9108950C94F3
:1018F000180C9091D20192FD10C098E0899F900140
:101900001124262B20938E010E94D60780918E01F0
:101910008595859585950C94770C0C94D607109237
:101920008E0180E00C94770C20918E0180958223AB
:1019300080938E01982F977099F430E0482F082EED
:10194000000C550B2417350759F09091D20192FDE8
:1019500007C08595859585950E94E1070C948F0CAD
:1019600008959091D20192FB222720F9281769F05F
:1019700080FB92F99093D2018091D1019091D20194
:101980000E94FF0C82E00C94940C08958091D20187
:1019900082FB882780F991E089270C94B10C81E0C3
:1019A0000C94B10C80E00C94B10C6FEF7FEF80E0F1
:1019B00090E00C94B72280E090E00E949322893E50
:1019C0009E4F11F40C94411480E0089582E090E061
:1019D0000C948B2283E090E00C948B22CF9384E0D4
:1019E00090E00E948B22C82F82E290E00E948B221E
:1019F0002C2F30E0A901582BCA01CF910895CF9325
:101A0000C92F682F84E090E00E9499226C2F82E217
:101A100090E0CF910C949922AB01BC018FE090E053
:101A20000C94AB22AB01BC0183E190E00C94AB229F
:101A300060E070E0CB010C94120D60E070E0CB012F
:101A40000E940C0D0C94180D69EE7EEF80E090E082
:101A50000E94B72260E082E090E00E94992260E05C
:101A600083E090E00E94992210924D0160E084E0B2
:101A700090E00E94992260E082E290E00E94992228
:101A800060E085E090E00E94992260E086E090E0CE
:101A90000E9499226FEF87E090E00E94992240E037
:101AA00050E0BA0188E090E00E94AB2260E08DE057
:101AB00090E00E94992240E050E0BA0188E190E075
:101AC0000E94AB2260E087E190E00E94992240E012
:101AD00050E0BA018CE190E00E94AB2260E070E03F
:101AE00080E290E00E94B72240E050E0BA0188E135
:101AF00090E00E94AB2280E00E945A140E948D1454
:101B00000C941D0D0C94240D682F8EE090E00C9425
:101B100099220E94A81A6093A6017093A70180934E
:101B2000A8019093A9016093A2017093A3018093EF
:101B3000A4019093A501089585B7806885BF85B7F6
:101B4000806885BF089581E008950C94A30D0895E1
:101B50000C94A70D0C94A70D0C94AA0D0C94A70D32
:101B60000C94AE0D0C94A70D0E949C0D81E290E1A7
:101B70000E9459190E94B20D0C94B00D0E94A80D3C
:101B80000C94A70D0E943B100C9419040E94931A08
:101B90000E949C140E9408110E94C20D0C94AC0D6E
:101BA0008F929F92AF92BF92CF92DF92EF92FF926D
:101BB0000F931F93CF93DF93CDB7DEB72A970FB65E
:101BC000F894DEBF0FBECDBF0E941D11982E81116B
:101BD0000E94890D8AE9A82E81E0B82E00E010E06D
:101BE000802E802F0E945510D82EF501C1905F01E4
:101BF000C826B1F40F5F1F4F0830110589F78FEF2A
:101C000089838A831B820E949C1A8160782F9D831E
:101C10008C8349815A816B818D810E9435042FC04C
:101C20008091AA0181FD0E945B10E12CFF24F394B6
:101C30008C2D8F21F1F00E94A50D882399F0EE8262
:101C40008F82DF2081E009F480E088870E949C1A5F
:101C50008160782F9A8789874E815F8168858A8520
:101C60000E943504F801E656FE4F8081F826F08286
:101C700006C0E394FF0CF6E0EF12DACFBBCF81E0B1
:101C8000911001C080E02A960FB6F894DEBF0FBE17
:101C9000CDBFDF91CF911F910F91FF90EF90DF901B
:101CA000CF90BF90AF909F908F9008950E94D00DDD
:101CB0000E9420130C942A04CF93DF930E944A0FB2
:101CC000EC01811522E5920778F5811531E593073E
:101CD00008F09DC08F3F910509F0B8F4803F910551
:101CE00008F06FC0853A910550F48430910508F0F2
:101CF000C8C0019709F0C2C081E090E0C3C0805E17
:101D00009109089708F4BDC0B9C0811540E5940752
:101D100008F05DC08115904408F055C0C11580E2FF
:101D2000D80708F4AEC0AAC0811526E5920728F5A9
:101D3000811535E5930708F087C0811544E59407C0
:101D400008F07CC0AC0143705527282F26952695B6
:101D5000C115D34508F061C081E090E002C0880F52
:101D6000991F4A95E2F740E2249F90011124EC016B
:101D7000C22BD32BCE019C6885C081152AE5920722
:101D800080F4811539E5930708F067C0811548E5AF
:101D9000940708F473C0D82FCC27CE01806F906AC7
:101DA00071C090568115904208F068C08D2F8F71D8
:101DB0000E94DE0FDD27D0628F71AE01582BCA0161
:101DC00061C090655FC0DF70CE01906A5BC074E057
:101DD000969587957A95E1F7282F23703C2F3370DD
:101DE00081E090E002C0880F991F3A95E2F79C6865
:101DF000AC01522B9A019C2F9F709695969550E2BC
:101E0000959FE0011124C9018C2B9D2B3BC0D82F3D
:101E1000CC27CE01816F906A35C081E090E002C08E
:101E2000880F991F4A95E2F750E2259F90011124EF
:101E3000EC01C22BD32BCE019A6824C0D82FCC271B
:101E4000CE01846F906A1EC00E94DE0F8F7190E0F9
:101E5000D82FCC27CE01906215C08F700E94DE0F64
:101E600094E0D695C7959A95E1F7CF70D0E0DC2F36
:101E7000CC27D0699E01282BC90104C080E090E0E6
:101E800001C0CE01DF91CF9108950E94A1170E9459
:101E90005C0E08958238910569F1B0F481339105A3
:101EA00009F46DC048F48932910509F463C08A329F
:101EB000910509F469C008958533910509F455C069
:101EC00089339105B9F00895833E910569F138F49D
:101ED000803E9105B1F0823E910509F10895863E5C
:101EE0009105A9F1873E9105B9F1843E910509F06C
:101EF00064C023C02091D10120FD4FC021FD4DC001
:101F000008958091D10180FD44C08091D20180FF6D
:101F100044C08091D10184FD42C083EE4DC08091C8
:101F2000D10182FF38C0F5CF8091D10182FD33C04D
:101F30008091D20180FD31C0ECCF8091D20181FF30
:101F400032C08091D10184FD2AC087EE35C08091D6
:101F5000D10183FF26C0F5CF8091D10183FD21C03F
:101F60008091D20181FD1FC0ECCF8091D10185FD10
:101F70001CC01DC08091D10185FD19C016C0809183
:101F8000D10186FD16C017C08091D10186FD13C016
:101F900010C089E311C082EE0FC080EE0DC080E05A
:101FA0000BC086EE09C084EE07C089E205C085E358
:101FB00003C08AE201C081E390E008959091D101CD
:101FC00092FF0DC0282F2871283019F4877F846074
:101FD00006C0282F2471243011F48B7F886093FF72
:101FE0000DC0282F2871283119F4877E846106C01E
:101FF000282F2471243111F48B7E88612091D20125
:1020000020FF0DC0382F3871383019F4877F816078
:1020100006C0382F3171313011F48E7F886021FF76
:102020000DC0282F2871283119F4877E816106C0E0
:10203000282F2171213111F48E7E886194FD877ED5
:10204000089580E008950C94D50C0E941D118FE333
:102050009CE90197F1F700C000000E941D1180E08B
:102060000E94551080FF04C00E9423100C94E91AAE
:1020700008950C9425100E94DB0C811102C00E946F
:10208000820D0E94E60C8093AA010E94EE0C9093B0
:10209000D2018093D1010E9439100E94EA0C0E9463
:1020A000B20780914C010C94C307E82FF0E0E55291
:1020B000FE4F80810895089580EA8A95F1F708958A
:1020C00000C008950C945C1008950C9464100C9456
:1020D00065100C9464100C946910F894E82FE29544
:1020E000EF70F0E031A1282F2F7081E090E001C067
:1020F000880F2A95EAF7982F9095932391A392A1A0
:10210000892B82A3789408950F931F93CF93DF9325
:10211000CFE1D1E089918F3F11F00E946D1081E0F5
:10212000C732D807B9F7C9E1D1E00FE111E08991D1
:102130008F3F11F00E946D100C171D07C1F7DF9142
:10214000CF911F910F910895CF92DF92EF92FF925E
:102150000F931F93CF93DF938C01C62FD0E0CE0156
:10216000815E9E4F7C01FC0190819F3F09F447C036
:10217000D62EF894E92FE295EF70F0E081A19F70E0
:1021800021E030E001C0220F9A95EAF7822B81A36B
:1021900082A12095282322A378940E946010E9E16F
:1021A000F1E04FE151E031E0C12C21912F3F89F066
:1021B000A22FA295AF70B0E090968C9190E02F7016
:1021C00002C0959587952A95E2F780FD02C0832F7E
:1021D00001C080E0C82A330F4E175F0731F7F701BF
:1021E00080818F3F11F00E946D1061E0C11001C02D
:1021F00060E08D2D0E946210C00FD11FC882DF9158
:10220000CF911F910F91FF90EF90DF90CF900895A5
:102210000E94841088E0EBEDF1E0DF01982F1D9221
:102220009A95E9F7E3EDF1E0DF011D928A95E9F770
:1022300088E00E9468110C94CB02FF920F931F93C9
:10224000CF93DF93CDB7DEB728970FB6F894DEBFF4
:102250000FBECDBF8E010F5F1F4F88E0F8011192B6
:102260008A95E9F7F12C6F2DC8010E94A410F39410
:10227000F8E0FF12F8CF48E050E0B80183ED91E0BC
:102280000E947E22FF24F394009709F4F12C892BFD
:1022900041F088E0F801A3EDB1E001900D928A953C
:1022A000E1F72F2D48E06BED71E083ED91E00E94A6
:1022B00069110E94CD028F2D28960FB6F894DEBFCB
:1022C0000FBECDBFDF91CF911F910F91FF90089569
:1022D0000895FF920F931F93CF93DF938C01F62EF7
:1022E000D72FC42F222349F081E08093AD010E94B3
:1022F0009C1A9093AC018093AB018091AD0188232F
:10230000C1F08091AB019091AC010E94B41A059785
:1023100080F0EF2DFD2FD8014C2F50E0CD01801B18
:10232000910B841795071CF48D918193F7CF109230
:10233000AD01DF91CF911F910F91FF9008950E9401
:102340008F1C0E94C60D0C949B1C0E949F1C0E9417
:10235000560E0C94B91C0E943A1A0E94761C0E94D8
:10236000B40D0E949F110E94A5110E94BE0DFBCFCB
:102370008091B40180FF06C06091090170E0660F92
:10238000771F26C081FF04C06091090184E005C069
:1023900082FF07C06091090188E0689FB0011124A5
:1023A00017C09091B3019923D1F06091080196175D
:1023B00088F72091090188E0289F90011124929FBD
:1023C000A001939F500D112470E0CA010E94492280
:1023D0006038710540F46115710519F406C068E0B4
:1023E00070E0862F08958FE7089581E00895809129
:1023F000B40180FF08C06091050170E07595679594
:102400007595679521C081FF06C06091050170E058
:102410007595679519C082FF04C06091050170E051
:1024200010C09091B201992399F060910401961720
:10243000A0F780910501899FC001112470E00E94DE
:1024400049226038710540F46115710519F406C020
:1024500061E070E0862F08958FE7089581E0089588
:10246000803F21F40E94B811819504C0813F29F476
:102470000E94B8118093B8010895823F21F40E9410
:10248000B811819504C0833F29F40E94B81180934C
:10249000B7010895893F19F40E94F71105C08A3FDA
:1024A00031F40E94F71181958093B90108958B3F13
:1024B00021F40E94F711819504C08C3F29F40E94F9
:1024C000F7118093BA0108959CE0980F953078F445
:1024D00021E030E0A90102C0440F551F9A95E2F7B0
:1024E000CA019091B601892B8093B60108958D3F62
:1024F00021F48091B40181600BC08E3F21F4809162
:10250000B401826005C08F3F29F48091B4018460DA
:102510008093B4010895803F39F49091B80197FFFA
:1025200035C01092B80159C0813F29F49091B8018B
:102530001916BCF32BC09091B701823F29F497FF85
:1025400025C01092B70149C0833F19F41916CCF386
:102550001DC09091B901893F29F41916BCF410925D
:10256000B9013BC08A3F19F497FF10C0F8CF8B3FE9
:1025700039F49091BA0197FF09C01092BA012DC0A9
:102580008C3F21F49091BA011916BCF39CE0980F8E
:10259000953080F421E030E0A90102C0440F551FBE
:1025A0009A95E2F7CA0180959091B60189238093AC
:1025B000B60113C08D3F21F48091B4018E7F0BC012
:1025C0008E3F21F48091B4018D7F05C08F3F29F4A7
:1025D0008091B4018B7F8093B4018091B701811108
:1025E00006C08091B801811102C01092B3018091A0
:1025F000B901811106C08091BA01811102C0109207
:10260000B20108950E949C1A2091B701211104C0C3
:102610002091B801222321F09093B1018093B00161
:102620002091B901211104C02091BA01222321F087
:102630009093AF018093AE0185EB91E00C947A19F1
:10264000EF92FF920F931F93CF93DF9300D000D0B0
:1026500000D0CDB7DEB786E0E5EBF1E0DE01119604
:1026600001900D928A95E1F7E090B701F090B801E2
:102670000091B9011091BA011092B7011092B801FE
:102680001092B9011092BA01E11003C0FF2009F4C1
:102690005DC08091B0019091B1010E94B41AAC016B
:1026A0009091B301992339F020910A0130E0241769
:1026B000350758F04BC020910B018AE0289F90010C
:1026C00011242417350718F041C09F3F19F09F5F70
:1026D0009093B301EE2061F00E94B8111E1414F023
:1026E0009FEF01C091E0989F902D11249093B70126
:1026F000FF2061F00E94B8111F1414F09FEF01C079
:1027000091E0989F902D11249093B8013091B701DA
:102710003323E1F02091B8012223C1F045EB3403CB
:10272000C0011124992319F09093B70103C081E0EF
:102730008093B70135EB2303C0011124992319F0CD
:102740009093B80103C081E08093B801011103C0E8
:10275000112309F45DC08091AE019091AF010E94F8
:10276000B41AAC019091B201992339F0209106017D
:1027700030E02417350758F04BC0209107018AE05C
:10278000289F900111242417350718F041C09F3F5E
:1027900019F09F5F9093B201002361F00E94F7113E
:1027A000101614F09FEF01C091E0989F902D112416
:1027B0009093B901112361F00E94F711111614F0E2
:1027C0009FEF01C091E0989F902D11249093BA0142
:1027D0003091B9013323E1F02091BA012223C1F0F5
:1027E00045EB3403C0011124992319F09093B901EA
:1027F00003C081E08093B90135EB2303C0011124AC
:10280000992319F09093BA0103C081E08093BA0133
:102810008091B70181110BC08091B801811107C06F
:102820008091B901811103C08091BA0181110E9488
:102830000213EB82FC820D831E8386E0FE0131963B
:10284000A5EBB1E001900D928A95E1F726960FB6BF
:10285000F894DEBF0FBECDBFDF91CF911F910F91D6
:10286000FF90EF900895E5EBF1E086E0DF011D9227
:102870008A95E9F71092B3011092B2011092B40157
:10288000089583E290E00E948B22823281F484E2F8
:1028900090E00E948B22843051F485E290E00E9407
:1028A0008B2291E0813009F090E0892F01C080E017
:1028B00081700895CF93C82F811102C06FEF01C0BE
:1028C00062E283E290E00E949922C11102C06FEFA0
:1028D00001C064E084E290E00E949922C11102C02C
:1028E0006FEF01C061E085E290E0CF910C949922F6
:1028F000089586E290E00E948B22682F70E080E0CD
:1029000090E008950895CF93C62F0E9482146C2FF3
:1029100086E290E0CF910C94992280E00E945A14B4
:1029200060E070E0CB010E9483140E941C170E949B
:10293000FB1781E00C945A140E9478140E947914B9
:102940000E9482140E944114811102C00C948D14C3
:102950000895CF93FB01C281CC23E9F09C01225161
:102960003F452031310520F482510E940B180CC0E4
:102970008031FFE59F0751F481E00E94D60743E0D4
:1029800062E081E00E94C202C0E018C081319F4530
:10299000A9F482E0F2CF8031EFE59E0711F481E0E7
:1029A00004C081319F4549F482E00E94E10743E081
:1029B00062E081E00E94C20201C0C1E08C2FCF9191
:1029C00008952FEFFC0120830895EF92FF920F935B
:1029D0001F93CF93DF93EC01062FE8818E2F90E0B9
:1029E000FC013197E331F10508F091C0EE59FF4F3A
:1029F0000C945D22198289E04DC08981823039F0C2
:102A0000833061F0813029F50E94A81A02C00E942B
:102A100079149A838B837C836D837BC07E0182E0F3
:102A2000E80EF11C10E0812F0E945510F7018193F0
:102A30007F011F5F1830B9F76CC08981823049F47B
:102A40006A817B818C819D810E9463220E94831414
:102A500060C0602FCE010E94E1145BC04B816A818F
:102A600089810E94EE169C838D8353C02C813D8109
:102A70003227232732274B816A8189810E940717D9
:102A800048C00E941C1745C00E94AE1724C00E9477
:102A9000B01799838A833DC06B8170E089819A81E8
:102AA000AE014C5F5F4F9827892798270E94B31784
:102AB00030C06B8170E089819A81AE014C5F5F4FBD
:102AC0009827892798270E94D81723C00E94FB17B0
:102AD00020C00E94DB1689831CC06B8170E0898155
:102AE0009A81AE014C5F5F4F9827892798270E94F3
:102AF0005B170FC06B8170E089819A81AE014C5FDA
:102B00005F4F9827892798270E947F1702C08FEF71
:102B10008883602FCE01DF91CF911F910F91FF909D
:102B2000EF900C944B1BCF93DF93EC01FB01828160
:102B3000882309F43CC1C330FDE5DF0760F4CA3FD8
:102B40009CE5D90788F49E0122503C45243131058B
:102B500008F02EC109C0C136EDE5DE0729F0C53AFF
:102B6000FDE5DF0709F024C10E94EE0C9093D2012D
:102B70008093D101C1318CE5D80709F4C6C008F0B3
:102B800042C0C930ECE5DE0709F49BC000F5C53052
:102B90008CE5D80709F485C078F4C330ECE5DE078E
:102BA00009F478C008F07AC0C230DC4509F0F5C0FD
:102BB0008091D1018160EFC0C7309CE5D90709F44D
:102BC00078C008F07AC08091D1018061E4C0CD3036
:102BD000FCE5DF0709F487C058F4CB309CE5D90742
:102BE00009F479C008F07BC08091D10188606FC082
:102BF000CF30FCE5DF0709F480C008F082C0809187
:102C0000D101877FC8C0CD3F9CE5D90709F471C0C9
:102C100000F5C531FCE5DF0709F485C068F4C33170
:102C20009CE5D90709F475C008F095C00E946007BB
:102C30008091D1018F77AFC0CB3FFCE5DF07A9F1D1
:102C400008F054C0CA3FDC4509F0A7C08091D2010A
:102C500040C0C130EDE5DE0709F489C058F4CF3F2C
:102C60008CE5D80709F45AC008F069C08091D201F8
:102C700082602FC0C136EDE5DE0709F47CC0C53A9D
:102C8000FDE5DF0709F481C0C230DD4509F085C0EC
:102C900080E06EC08091D10182607DC08091D101C1
:102CA00016C08091D101886076C08091D201826087
:102CB0004FC08091D10180626EC08091D10180644B
:102CC0006AC00E9460078091D101806864C08460FE
:102CD00062C081603DC08091D1018E7F5CC08091D7
:102CE000D1018D7F58C08091D10116C08091D20151
:102CF00018C08091D2018D7F2BC08091D1018F7E31
:102D00004AC08091D1018F7D46C08091D1018F7BD7
:102D100042C08091D101877F8B7F3DC08091D201DD
:102D20008D7F8E7F15C08091D10182FB222720F9F3
:102D300091E0922790FB82F990FB83F92CC080915F
:102D4000D201982F909591708E7F892B90FB81F9FD
:102D50008093D20122C00E9460078091D10187FB3D
:102D6000222720F991E0922790FB87F914C081E097
:102D70000E94840D12C08091D10184FB222720F98A
:102D800091E0922790FB84F906C08091D101982FA1
:102D9000909590FB80F98093D1018091D101909121
:102DA000D2010E94FF0C0E94600780E001C081E018
:102DB000DF91CF91089584E0089550E0440F551FAE
:102DC0002CE0629F400D511D11249A0160E6869F00
:102DD000200D311D1124C901879608950F931F936B
:102DE000CF93DF930E94DD168C010E948B22C82FA7
:102DF000D0E0DC2FCC27C80101960E948B229E01D7
:102E0000282BC901DF91CF911F910F9108950F9346
:102E10001F93CF93DF93122F032F0E94DD16EC0137
:102E2000602F0E949922612FCE010196DF91CF91F0
:102E30001F910F910C949922AF92BF92CF92DF9283
:102E4000EF92FF920F931F93CF93DF93A12CE12C6E
:102E5000F12CB12C00E010E0C0E0D0E06701C00E22
:102E6000D11EFE01EE0FFF1FEC0DFD1DE250FF4FC6
:102E7000259134914C2F6B2D8A2D0E940717219696
:102E8000C630D10571F7045F1F4FB39488E0B812C4
:102E9000E3CF80E6E80EF11CA39484E0A812D9CF1A
:102EA000DF91CF911F910F91FF90EF90DF90CF9026
:102EB000BF90AF900895EF92FF920F931F93CF931F
:102EC000DF93EA017A01E60EF71E8C01C8018796AE
:102ED000CE15DF0569F0003821E0120720F40E94CA
:102EE0008B22888301C0188221960F5F1F4FEECF7F
:102EF000DF91CF911F910F91FF90EF900895EF9286
:102F0000FF920F931F93CF93DF93EA017A01E60EAE
:102F1000F71E8C01C8018796CE15DF0559F00038E1
:102F200021E0120718F468810E94992221960F5F10
:102F30001F4FF0CFDF91CF911F910F91FF90EF9036
:102F40000895462F843038F4783028F4663018F429
:102F5000672F0C94EE1680E090E0089580E10895CC
:102F600089E592E00895EF92FF920F931F93CF931C
:102F7000DF93EA017A01E60EF71E8C01C80189553C
:102F80009E4FCE15DF0569F0093522E0120720F4C7
:102F90000E948B22888301C0188221960F5F1F4FE9
:102FA000EDCFDF91CF911F910F91FF90EF9008959A
:102FB000EF92FF920F931F93CF93DF93EA017A0171
:102FC000E60EF71E8C01C80189559E4FCE15DF0510
:102FD00059F0093522E0120718F468810E949922FD
:102FE00021960F5F1F4FEFCFDF91CF911F910F9170
:102FF000FF90EF900895CF93DF93C7EAD1E060E0B0
:10300000CE010E9499222196C11584E0D807B9F714
:10301000DF91CF910895DF92EF92FF920F931F936C
:10302000CF93DF9300D000D0CDB7DEB7F82E8FE07E
:103030008F15E8F18FEF93E00E948B22811137C04A
:1030400007EA11E0FF2069F0011584E0180779F123
:10305000C8010E948B22811101C0FA940F5F1F4F9B
:10306000F1CF19821A821B821C82DD24D39478014D
:103070008FEFE81AF80AC8010E948B2289831A820E
:103080008823A9F09FEF980F933058F48A83D98250
:103090000E5F1F4FC7010E948B228B83882339F05C
:1030A0007801CE0101960E940F048701E0CF0F90B6
:1030B0000F900F900F90DF91CF911F910F91FF9084
:1030C000EF90DF900895CF93DF9386319C4541F5D3
:1030D000EB010E94F20B982F8A812091020130911E
:1030E0000301882379F09A7A81E009F480E08093E3
:1030F000BB01911102C069E201C065E3C9010E94F0
:10310000F6190AC08091BB01811102C069E201C0B9
:1031100065E3C9010E94F8190E94340C80E001C0E7
:1031200081E0DF91CF9108950F931F93CF93DF93A9
:10313000C42FD22FFC0182818823C9F04093BE01A5
:103140000E949C1A9093BD018093BC0180E28C0F79
:10315000883008F057C0C77081E001C0880FCA9559
:10316000EAF7DF91CF911F910F910C941405809194
:10317000BE01481330C08091BC019091BD010E94F6
:10318000B41A883C910538F510E21D0FCD17B9F03F
:1031900080E28C0F883040F4C77081E001C0880F56
:1031A000CA95EAF70E941B05183028F581E09D2F8B
:1031B000977001C0880F9A95EAF70E941405802F36
:1031C0000E940B051830F0F4D77081E001C0880F21
:1031D000DA95EAF70AC080E28C0F883098F4C7705D
:1031E00081E001C0880FCA95EAF7DF91CF911F9166
:1031F0000F910C941B05802FDF91CF911F910F91A0
:103200000C940B05DF91CF911F910F9108950F93AF
:103210009C01CB01233F4CE5340731F188F4283D74
:10322000FCE53F07D9F0293D4CE5340779F1273D0E
:103230003C45A9F506E221EE41EE67ED7CE52BC0A9
:10324000253FFCE53F07E1F0A8F0263F3C4539F576
:1032500007E225EE46EE66EF7CE51DC007E225EEAF
:1032600045EE68ED7CE517C006E221EE40EE63EF27
:103270007CE511C007E225EE44EE64EF7CE50BC06F
:1032800006E221EE42EE65EF7CE505C008E221E0B2
:1032900045EE69ED7CE50E94941880E008C0FC01D1
:1032A0008281882319F01092BE0101C081E00F9144
:1032B0000895909337018093360108959093C40147
:1032C0008093C3010895E091C301F091C401309748
:1032D00021F00190F081E02D099480E00895E091C3
:1032E000C301F091C401309721F00280F381E02DF9
:1032F00009940895E091C301F091C401309739F029
:1033000022E0DC012C930480F581E02D09940895DE
:103310002091C1013091C2012817390771F09093B3
:10332000C2018093C101E091C301F091C4013097C3
:1033300021F00680F781E02D099408952091BF01C6
:103340003091C0012817390771F09093C001809324
:10335000BF01E091C301F091C401309721F00084D6
:10336000F185E02D09940895FC01329697E080E004
:10337000915029F021912223D9F38F5FF9CF08953D
:10338000662349F0FC01329608962191621729F0D4
:10339000E817F907D1F780E0089581E008959C01CE
:1033A000FC0132969FEF80E04191461789F09F3FE4
:1033B00019F4411101C0982F8F5F8630A9F79F3F04
:1033C00039F0F901E90FF11D97FDFA95628308952F
:1033D00008959C012A5F3F4FFC014281461301C0C2
:1033E0001282019682179307B9F708950C94CF19AA
:1033F0000C94E919029626E0FC0111922A95E9F74E
:10340000089508950C94011A83E08093C5010C94EB
:10341000021A811102C081E001C082E08093C501DF
:103420000C94021A0C94091A81E08093C5010C9443
:10343000021A0C94141A08950C941B1A0C941C1A5A
:103440000C941B1A0C941B1A0C941B1ACF930E94F9
:10345000221A0E941D110E94201AC0E08C2F0E9487
:103460005510811104C0CF5FC830C1F701C081E0A1
:10347000CF91089508951F920F920FB60F921124C5
:103480008F939F93AF93BF938091C601811113C017
:103490008091E3019091E401A091E501B091E601F2
:1034A0004196A11DB11D8093E3019093E401A09387
:1034B000E501B093E601BF91AF919F918F910F907D
:1034C0000FBE0F901F9018958091EB01843031F161
:1034D0000E9438031092C60120E488E190E00FB604
:1034E000F894A895809360000FBE2093600083B786
:1034F000817F846083BF83B7816083BF7894889520
:1035000083B78E7F83BF0FB6F894A8958091600033
:10351000886180936000109260000FBE08950E9441
:1035200060070C943C0382E084BD93E095BD9AEF64
:1035300097BD80936E0008952FB7F8948091E301B2
:103540009091E401A091E501B091E6012FBF0895AB
:103550002FB7F8946091E3017091E4018091E50147
:103560009091E6012FBF08959C014FB7F894809188
:10357000E3019091E401A091E501B091E6014FBF14
:10358000821B930B089578941F920F920FB60F929F
:1035900011248F939F93AF93BF938091E3019091F8
:1035A000E401A091E501B091E6010196A11DB11DD4
:1035B0008093E3019093E401A093E501B093E601C9
:1035C000BF91AF919F918F910F900FBE0F901F9061
:1035D000189587E797E790930108809300089AE091
:1035E00088E10FB6F894A895809360000FBE909381
:1035F0006000FFCF8091CF0108950895089524E0E1
:103600002093E9002FEF3091E800215035FD06C0EE
:1036100035ED3A95F1F700002111F5CF2091E80042
:1036200025FF0BC040E050E066E070E00E94601DA6
:103630008091E8008E778093E8000895CF93DF9320
:1036400021E02093E9002FEF3091E800215035FD73
:1036500006C035ED3A95F1F700002111F5CF209124
:10366000E80025FF14C0EC0140E050E068E070E0A5
:103670000E94601D8091E8008E778093E80088E0CA
:10368000FE01A7ECB1E001900D928A95E1F7DF9180
:10369000CF9108950895CF93603219F52091EB01F1
:1036A0002430F9F4C091E900CF703091EC00232F61
:1036B000217030FD20E8C22B22E02093E900209108
:1036C000E80020FF0BC040E050E060E270E00E94A4
:1036D000601D8091E8008E778093E800CF70C093E2
:1036E000E900CF9108958091EA01811109C00E94FB
:1036F0003C1F0E94991F8091E20084608093E20049
:1037000008951092EA0108950C94191A6091E70146
:1037100081E0611101C080E00C94041A9091EB01EA
:1037200081E0943009F080E06091E7010C94091A7F
:1037300042E061EC81E00E94B51E42E261EC84E06F
:103740000E94B51E42E261EC82E00E94B51E42E298
:1037500060EC83E00E94B51E9091EB0181E0943013
:1037600009F080E06091E7010C94121A8091ED015C
:10377000833009F463C030F4813071F0823009F491
:103780009CC008958A3009F488C08B3009F46EC05B
:10379000893009F0AAC020C08091EC01813A09F07B
:1037A000A4C08091E800877F8093E8008091F001B9
:1037B0009091F101892B21F468E087EC91E003C03E
:1037C00060E080E090E070E00E94F61D8091E800EB
:1037D0008B778093E80008958091EC01813209F0A5
:1037E00084C08091F0019091F101009719F0029747
:1037F00009F07BC08091E800877F8093E80080918A
:10380000E80082FD05C08091EB018111F8CF6DC009
:103810002091F3008091F20090E0922B029731F416
:103820008091F100813011F0863021F48091F10017
:103830008093CF018091E8008B7753C08091EC0199
:10384000813A09F052C08091F0019091F101892BE9
:1038500009F04BC08091E800877F8093E800809159
:10386000E80080FFFCCF8091180136C08091EC0108
:103870008132D9F58091F0019091F101892BA9F560
:103880008091E800877F8093E8000E94EA1E809183
:10389000EE01809318010C9460078091EC01813255
:1038A00021F58091E800877F8093E8000E94EA1E5E
:1038B0008091EF018093D00108958091EC01813ACD
:1038C000A1F48091E800877F8093E8008091E80070
:1038D00080FFFCCF8091D0018093F1008091E800BF
:1038E0008E778093E8000C94EA1E089584B7877F52
:1038F00084BF0FB6F894A89580916000886180938A
:103900006000109260000FBE90E080E80FB6F8945F
:1039100080936100909361000FBE0C94141A0E9472
:103920003C1F0E94991FE2EEF0E08081846080835A
:1039300078940C942E228CE091E00C945E19809186
:10394000EB018530A9F48091EB01853079F40E9478
:10395000641A8091E9018823B1F30E94261A882312
:1039600091F30E944A1D0E946007EDCF0C948F1ABC
:103970000895CF93DF93CDB7DEB7A0970FB6F89435
:10398000DEBF0FBECDBF8091EB01843011F583E027
:103990008093E9008091E80082FF1BC08091E800DD
:1039A00085FF0AC040E050E060E270E0CE01019681
:1039B0000E94AB1D91E001C090E08091E8008B7700
:1039C0008093E800992329F060E2CE0101960E94DD
:1039D000E514A0960FB6F894DEBF0FBECDBFDF9101
:1039E000CF9108950C94F41C292F332723303105EF
:1039F000C9F060F42130310581F02230310509F041
:103A000041C08BE590E02EE433E040C02132310527
:103A1000E1F02232310531F135C082E190E029EA4E
:103A200033E034C099278130910549F028F002979E
:103A300049F5EEE2F3E005C0EAE4F3E002C0ECE3AE
:103A4000F3E0849190E09F0121C063307105D0F4D0
:103A5000660F771FFB01E05DFE4F2081318189E019
:103A600090E014C06330710568F4FB01EE0FFF1F96
:103A7000E65DFE4F20813181FB01E95DFE4F8081D3
:103A800090E004C080E090E020E030E0FA01318373
:103A90002083089580E189BD82E189BD09B400FEDB
:103AA000FDCF8091D8008F7D8093D8008091E00079
:103AB00082608093E0008091E00081FDFCCF08955A
:103AC000CF92DF92EF92FF920F931F93CF93DF93EA
:103AD000EC018B017A010E94091F811133C0E114AE
:103AE000F10439F0F70180819181081B190BC80F8F
:103AF000D91FC12CD12C0115110519F18091E800B5
:103B000085FD16C08091E8008E778093E800E1146F
:103B1000F10449F0F70180819181C80ED91ED1824C
:103B2000C08285E00FC00E94091F882321F30AC0CC
:103B300089918093F10001501109FFEFCF1ADF0A3C
:103B4000DACF80E0DF91CF911F910F91FF90EF903E
:103B5000DF90CF900895CF92DF92EF92FF920F9374
:103B60001F93CF93DF93EC018B017A010E94091F11
:103B7000811133C0E114F10439F0F70180819181A2
:103B8000081B190BC80FD91FC12CD12C0115110509
:103B900019F18091E80085FD16C08091E8008B77CF
:103BA0008093E800E114F10449F0F70180819181EC
:103BB000C80ED91ED182C08285E00FC00E94091FA5
:103BC000882321F30AC08091F100899301501109E3
:103BD000FFEFCF1ADF0ADACF80E0DF91CF911F919C
:103BE0000F91FF90EF90DF90CF9008952091F20118
:103BF0003091F3012617370748F06115710539F444
:103C00002091E8002E772093E80001C0B901FC0163
:103C100020E06115710579F18091EB018823F1F1C4
:103C20008530F1F18091E80083FD3CC08091E8008F
:103C300082FD2EC08091E80080FFEBCF2091F30041
:103C40008091F20090E0922B6115710551F088305F
:103C5000910538F421912093F1006150710901968A
:103C6000F3CF21E0089709F020E08091E8008E77FB
:103C70008093E800CECF2111CFCF0AC08091EB0115
:103C8000882361F0853061F08091E80083FD0AC0EF
:103C90008091E80082FFF2CF80E0089582E00895ED
:103CA00083E0089581E008952091F2013091F301BD
:103CB0002617370748F06115710539F42091E8009F
:103CC0002E772093E80001C0B901FC0120E06115C6
:103CD000710591F18091EB01882309F440C0853092
:103CE00009F43FC08091E80083FD3DC08091E80069
:103CF00082FD2FC08091E80080FFE9CF2091F30082
:103D00008091F20090E0922B6115710559F0883096
:103D1000910540F424912093F1003196615071098E
:103D20000196F2CF21E0089709F020E08091E800A9
:103D30008E778093E800CBCF2111CCCF0AC0809141
:103D4000EB01882361F0853061F08091E80083FD0C
:103D50000AC08091E80082FFF2CF80E0089582E0FF
:103D6000089583E0089581E00895982F973068F5CD
:103D70009093E900981739F07091EC002091ED00D4
:103D80005091F00003C0242F762F50E021FD02C097
:103D90009F5FECCF3091EB003E7F3093EB00309192
:103DA000ED003D7F3093ED003091EB0031603093BA
:103DB000EB007093EC002093ED005093F000209105
:103DC000EE0027FDE5CF80E008958F708093E90035
:103DD00081E008958091EC0187FF11C08091E80097
:103DE00082FD05C08091EB018111F8CF11C0809157
:103DF000E8008B770BC08091EB01882349F080911C
:103E0000E80080FFF8CF8091E8008E778093E8008B
:103E100008952091E4003091E50095E64091EC0092
:103E2000842F817040FF23C08091E80080FD1DC079
:103E30008091EB01882399F0853099F08091EB0017
:103E400085FD11C04091E4005091E500241735072D
:103E500029F3915011F09A01E1CF84E0089582E0B6
:103E6000089583E0089581E0089580E008954091E9
:103E7000E80042FFDDCF08950E94AA1F0E94B21FF2
:103E8000E0EEF0E0808181608083E8EDF0E0808109
:103E90008F77808319BCA7EDB0E08C918E7F8C93D7
:103EA00080818F7E80831092EA0108950F931F9383
:103EB000CF93DF930E94AA1F0E94B21FC8EDD0E0EB
:103EC00088818F77888388818068888388818F7DC7
:103ED000888319BC1092EB011092E7011092E9015E
:103EE0001092E80100EE10E0F80180818B7F808362
:103EF00088818160888342E060E080E00E94B51E96
:103F0000E1EEF0E080818E7F8083E2EEF0E0808160
:103F100081608083808188608083F80180818E7FCA
:103F20008083888180618883DF91CF911F910F9179
:103F30000895E8EDF0E080818F7E8083E7EDF0E08A
:103F400080818160808384E082BF81E08093EA0188
:103F50000C94561FE8EDF0E080818E7F80831092F4
:103F6000E20008951092DA001092E10008951F9285
:103F70000F920FB60F9211242F933F934F935F939D
:103F80006F937F938F939F93AF93BF93EF93FF9321
:103F90008091E10082FF0BC08091E20082FF07C0A8
:103FA0008091E1008B7F8093E1000E942D2280911F
:103FB000DA0080FF1FC08091D80080FF1BC0809175
:103FC000DA008E7F8093DA008091D90080FF0DC0E7
:103FD00080E189BD82E189BD09B400FEFDCF81E0A9
:103FE0008093EB010E94731B05C019BC1092EB017A
:103FF0000E94811B8091E10080FF19C08091E20046
:1040000080FF15C08091E2008E7F8093E200809156
:10401000E20080618093E2008091D800806280930A
:10402000D80019BC85E08093EB010E94861B80912B
:10403000E10084FF30C08091E20084FF2CC080E169
:1040400089BD82E189BD09B400FEFDCF8091D80011
:104050008F7D8093D8008091E1008F7E8093E10076
:104060008091E2008F7E8093E2008091E200816087
:104070008093E2008091E701882311F084E007C07B
:104080008091E30087FD02C081E001C083E080935E
:10409000EB010E948E1B8091E10083FF29C080917B
:1040A000E20083FF25C08091E100877F8093E100DB
:1040B00082E08093EB011092E7018091E1008E7F16
:1040C0008093E1008091E2008E7F8093E2008091F6
:1040D000E20080618093E20042E060E080E00E94C4
:1040E000B51E8091F00088608093F0000E94841BD0
:1040F000FF91EF91BF91AF919F918F917F916F91C0
:104100005F914F913F912F910F900FBE0F901F9095
:1041100018951F920F920FB60F9211242F933F9371
:104120004F935F936F937F938F939F93AF93BF93BF
:10413000CF93DF93EF93FF93C091E900CF7080910D
:10414000EC00D82FD17080FDD0E81092E90080916A
:10415000F000877F8093F00078940E94CD20109229
:10416000E9008091F00088608093F000CD2BCF7043
:10417000C093E900FF91EF91DF91CF91BF91AF9193
:104180009F918F917F916F915F914F913F912F916F
:104190000F900FBE0F901F9018951F93CF93DF9332
:1041A000CDB7DEB7AA970FB6F894DEBF0FBECDBF6E
:1041B000ECEEF1E08091F100819321E0E43FF20721
:1041C000C9F70E94B61B8091E80083FF2EC1809141
:1041D000EC019091ED01492F50E04A30510508F073
:1041E00024C1FA01EB58FF4F0C945D22803821F076
:1041F000823809F01AC108C08091E8019091E90164
:10420000992389F082600FC08091F0018F70873010
:1042100008F00BC18093E9008091EB0085FB8827B3
:1042200080F91092E9009091E800977F9093E80060
:104230008093F1001092F100D1C0282F2D7F09F05A
:10424000F4C0882319F0823061F0EFC08091EE0154
:10425000813009F0EAC0933009F080E08093E901F1
:104260002EC08091EE0181112AC08091F0018F70E3
:104270002FEF280F263008F0D8C08093E900209156
:10428000EB0020FF1CC0933021F48091EB00806292
:1042900014C09091EB0090619093EB0021E030E02E
:1042A000A90102C0440F551F8A95E2F74093EA0026
:1042B0001092EA008091EB0088608093EB001092EE
:1042C000E9008091E800877F8093E8000E94EA1E61
:1042D000ACC08111AAC01091EE011F778091E3005C
:1042E0008078812B8093E3008091E800877F809322
:1042F000E8000E94EA1E8091E80080FFFCCF8091D8
:10430000E30080688093E300111102C082E001C0E5
:1043100083E08093EB0189C08058823008F085C02B
:104320008091EE019091EF018C3D53E0950779F576
:1043300083E08A838AE289834FB7F894DE0113967B
:1043400020E03EE051E2E32FF0E050935700E4918B
:1043500020FF03C0E295EF703F5FEF708E2F90E07B
:10436000EA3010F0C79601C0C0968D939D932F5FE1
:10437000243149F74FBF8091E800877F8093E800A0
:104380006AE270E0CE0101960E94F61D16C06091AF
:10439000F0017091F101AE014F5F5F4F0E94F21C7E
:1043A000BC01892B09F441C09091E800977F90935C
:1043B000E80089819A810E94541E8091E8008B77E1
:1043C0008093E80032C0803881F58091E800877FD3
:1043D0008093E8008091E7018093F1008091E800EC
:1043E0008E7772CF811121C08091EE019091EF0103
:1043F00099270297D4F48091E800877F8093E800A2
:104400008091EE018093E7010E94EA1E8091E7010E
:10441000811106C08091E30087FD02C081E001C0E8
:1044200084E08093EB010E94981B8091E80083FF59
:104430000AC08091E800877F8093E8008091EB00BC
:1044400080628093EB00AA960FB6F894DEBF0FBE91
:10445000CDBFDF91CF911F9108950895CF938091A3
:10446000EB018823A1F0C091E900CF709091EC009E
:10447000892F817090FD80E8C82B1092E90080910F
:10448000E80083FD0E94CD20CF70C093E900CF915A
:10449000089597FB072E16F4009407D077FD09D0F6
:1044A0000E946A2207FC05D03EF4909581959F4FAB
:1044B0000895709561957F4F0895EE0FFF1F059049
:1044C000F491E02D09946927962769277827872793
:1044D00078270895AA1BBB1B51E107C0AA1FBB1F69
:1044E000A617B70710F0A61BB70B881F991F5A9580
:1044F000A9F780959095BC01CD010895FB01DC01E1
:1045000004C08D910190801921F441505040C8F7AA
:10451000881B990B0895F999FECF92BD81BDF89A39
:10452000992780B50895A8E1B0E042E050E00C94EE
:10453000BF22262FF999FECF92BD81BDF89A01972F
:1045400000B4021639F01FBA20BD0FB6F894FA9ADB
:10455000F99A0FBE08950396272F0E949A220E946F
:104560009922252F0E949A22242F0C949A22019698
:10457000272F0E949A220C949922DC01CB01FC0186
:10458000F999FECF06C0F2BDE1BDF89A319600B4AC
:0E4590000D9241505040B8F70895F894FFCFB7
:10459E00C8009001280850011E0A1401FA1A1E1BA9
:1045AE00FF1A4A1BFD1AFE1A01363233313534C654
:1045BE00976694F7F6F5F44022492604BB03DD0313
:0645CE006003790399036C
:00000001FF
