:100000000C940B050C942A050C942A050C942A05D3
:100010000C942A050C942A050C942A050C942A05A4
:100020000C942A050C942A050C94F9150C9430159F
:100030000C94F91A0C942A050C942A050C942A05A0
:100040000C942A050C942A050C942A050C942A0574
:100050000C942A050C94C71A0C942A050C942A05B2
:100060000C942A050C942A050C942A050C942A0554
:100070000C942A050C942A050C942A050C942A0544
:100080000C942A050C942A050C942A050C942A0534
:100090000C942A050C942A0591099109C409C409F4
:1000A000370A560B560B560B550AC90ADA0ADA0AF2
:1000B00045136C1312156C131215B813DB131215BC
:1000C000CD14DD14F918FC1814192119281949192F
:1000D000DF19DF19DF19DF19DF194C194E19531910
:1000E000771998199B199E19C0190000000000008B
:1000F0000000000000000000000000000000000000
:1001000000000000000000000000000000007E0F62
:1001100000D4FFFFFFC700000078000000000000CF
:1001200000002A2B28000000000000000000000052
:10013000000000000029000000002C1E34202122B5
:1001400024342627252E362D3738271E1F2021221E
:10015000232425263333362E37381F040506070897
:10016000090A0B0C0D0E0F10111213141516171887
:10017000191A1B1C1D2F3130232D350405060708C5
:10018000090A0B0C0D0E0F10111213141516171867
:10019000191A1B1C1D2F3130354C05010980A10196
:1001A000850319012AB700150126B70095017510BE
:1001B0008100C0050C0901A101850419012AA002D2
:1001C000150126A002950175108100C005010906E0
:1001D000A1018506050719E029E715002501950805
:1001E000750181020507190029EF1500250195F019
:1001F000750181020508190129059505750191020E
:10020000950175039101C00660FF0961A1010962B2
:10021000150026FF00952075088102096315002648
:10022000FF00952075089102C005010906A101058E
:100230000719E029E7150025019508750181029548
:1002400001750881010507190029FF150026FF0027
:1002500095067508810005081901290595057501A0
:100260009102950175039101C009025B0003010031
:10027000A0FA090400000103010100092111010095
:100280000122400007058103080001090401000262
:10029000030000000921110100012222000705824C
:1002A00003200001070503032000010904020001E7
:1002B00003000000092111010001226D00070584DF
:1002C0000320000112010002000000084344D7216E
:1002D0000001010200011803530063007200610075
:1002E000620062006C006500500061006400000064
:1002F000180344006F006E00750074004300610035
:1003000062006C00650073000000040309042C0007
:100310002C001600060015000400050005000F0063
:1003200008001300040007002C002C002C002C00F7
:100330001600060015000400050005000F00080067
:100340001300040007002C002C002C002C001600C9
:10035000060015000400050005000F00080013004A
:10036000040007002C002C002C002C0016000600B6
:1003700015000400050005000F000800130004002C
:1003800007002C002C002C002C0016000600150085
:100390000400050005000F0008001300040007001A
:1003A0002C002C002C002C00160006001500040068
:1003B000050005000F0008001300040007002C00D2
:1003C0002C002C002C00160006001500040005006F
:1003D00005000F0008001300040007002C002C008B
:1003E0002C002C0016000600150004000500050076
:1003F0000F0008001300040007002C002C002C0044
:100400002C001600060015000400050005000F0072
:1004100008001300040007002C002C002C002C0006
:100420001600060015000400050005000F00080076
:100430001300040007002C002C002C002C001600D8
:10044000060015000400050005000F000800130059
:10045000040007002C002C002C002C0016000600C5
:1004600015000400050005000F000800130004003B
:1004700007002C002C002C002C0016000600150094
:100480000400050005000F00080013000400070029
:100490002C002C002C002C00160006001500040077
:1004A000050005000F0008001300040007002C00E1
:1004B0002C002C002C00160006001500040005007E
:1004C00005000F0008001300040007002C002C009A
:1004D0000100010001000100010001000100010014
:1004E0000100010001000100010001000100010004
:1004F00001000100010001000100010001000100F4
:1005000001000100010001000100010001000100E3
:100A100001000100010011241FBECFEFD0E2DEBFB4
:100A2000CDBF11E0A0E0B1E0E8E0FFE300E00BBFE4
:100A300002C007900D92AC36B107D9F722E0ACE6C0
:100A4000B1E001C01D92A53EB207E1F70E94331745
:100A50000C94821F0C9400001F93CF93DF93CDB7AB
:100A6000DEB767970FB6F894DEBF0FBECDBF4B8BD6
:100A70005C8B6D8B7E8B8F8B61111092E80186E011
:100A80009E01235F3F4FD901E82F1D92EA95E9F7B8
:100A900095E0FE017396D90101900D929A95E1F7C8
:100AA0009C894E895F897B897D879E876F87598B5B
:100AB000488BF901DE01179601900D928A95E1F7B6
:100AC000CE0107960E94FA0F81113EC086E0FE011A
:100AD0003796DE01119601900D928A95E1F7FF811C
:100AE000E8856A857B856115710531F0EF3F31F44A
:100AF00081E0FF3F19F403C081E001C080E080FD88
:100B000023C02091950130E0C90101968770992793
:100B10004091C60150E08417950779F1F983EA8383
:100B20007D836C8396E0929FD001939FB00D11243A
:100B3000AA56BE4FFE01319601900D929A95E1F7AB
:100B4000809395010E94770F16E08091C6019091E5
:100B500095018917F9F0189FC00111248A569E4FFC
:100B60000E94FA0F8823B1F08091C60190E00196AF
:100B7000877099278093C601E8CF0E94CD1D1092FF
:100B800095011092C601EFE8F1E086E0DF011D92C9
:100B90008A95E9F767960FB6F894DEBF0FBECDBF12
:100BA000DF91CF911F9108953F924F925F926F9284
:100BB0007F928F929F92AF92BF92CF92DF92EF92ED
:100BC000FF920F931F93CF93DF93CDB7DEB7299793
:100BD0000FB6F894DEBF0FBECDBFFC0180819181BE
:100BE00023813481232B31F09F3F31F491E08F3FFB
:100BF00019F403C091E001C090E090FD94C57F011D
:100C000085E0DE01119601900D928A95E1F7F701DA
:100C1000228189819A81222349F00E94081D182F80
:100C2000682F89819A810E94631D03C00E94371D2D
:100C3000182F69817A81812F0E94A51C8C01F701F0
:100C40008281882309F4F2C0980122513F45203166
:100C5000310508F01DC18FEF9FE00E94231F811115
:100C6000EFC002513FE2832E37E0932E002379F04C
:100C70008114F0E19F0609F4E3C0C4010E94231F20
:100C8000811101C001502FEF821A920AEFCF1E820C
:100C90001F8218861986442443942AE0322E840148
:100CA0000F5F1F4FC4010E94231F8E831F82882362
:100CB00009F4C6C09FEF980F933060F48F834E8283
:100CC00032E0830E911CC8010E94231F8887811186
:100CD00002C0B6C048018E010A5F1F4FF801208193
:100CE0002223E9F2213009F04CC08181813049F49E
:100CF0006801F2E0CF0ED11CF80182810E94051F2D
:100D00000AC0823051F46801F2E0CF0ED11CF80124
:100D100082810E944A1E860186C0833049F46801A0
:100D2000F2E0CF0ED11CF80182810E94F31DF3CFB7
:100D3000843019F00F5F1F4F76C0F80122810E5FDB
:100D40001F4F80E090E030E0205331092A30310518
:100D500068F4389EA001399E500D1124C901840FFA
:100D6000951F0F5F1F4FF8012081EDCF009709F409
:100D70005AC0EFE9FFE03197F1F700C0000001979A
:100D8000F5CFE22FF0E0E65EFE4F5490822F86957D
:100D90008695869590E0FC01E65FFE4F6490277093
:100DA000712C022E02C0759467940A94E2F7F1E068
:100DB0006F227724FC01E650FF4FA490B12C022E45
:100DC00002C0B594A7940A94E2F731E0A322BB24B1
:100DD000FC01E651FF4FC490D12C02C0D594C794BA
:100DE0002A95E2F781E0C822DD246114710419F02C
:100DF00081EE0E944A1EA114B10419F086EE0E94F1
:100E00004A1E852D0E94051FAB2819F086EE0E9410
:100E1000F31D672819F081EE0E94F31DCD2819F00B
:100E20008CE20E94051F0F5F1F4F58CF00313FE536
:100E3000130709F06FC481E00E94921D0E945412B2
:100E40008091C701877009F46EC4F70182818823FD
:100E500009F469C480918A0282FD65C482E0299602
:100E60000FB6F894DEBF0FBECDBFDF91CF911F91BB
:100E70000F91FF90EF90DF90CF90BF90AF909F9039
:100E80008F907F906F905F904F903F900C943D0FAC
:100E90000031FFE51F0711F481E005C001312FE5A6
:100EA000120721F482E00E949E1DC8CF033FFCE59B
:100EB0001F0799F406E221EE40EE63EF7CE509C0DE
:100EC000073DECE51E0711F506E221EE41EE67ED68
:100ED0007CE5C7010E94B71BB3CF043F2CE5120786
:100EE00008F05CC1083D3CE5130731F407E225EE4C
:100EF00045EE68ED7CE5EDCF093D9CE5190701F76E
:100F000008E221E045EE69ED7CE5E3CF882309F4B2
:100F10007AC110927D0203309DE5190758F40A3F0B
:100F2000ECE51E0780F4C80182509C45449708F008
:100F300054C109C00136FDE51F0729F0053A2DE52A
:100F4000120709F04AC10E94600E90938A028093B2
:100F5000890201313CE5130709F4C6C008F042C01C
:100F600009309CE5190709F49BC000F50530FCE544
:100F70001F0709F485C078F403303CE5130709F432
:100F800078C008F07AC002301C4509F0F7C08091A3
:100F900089028160F1C00730ECE51E0709F478C0D2
:100FA00008F07AC0809189028061E6C00D302CE59E
:100FB000120709F487C058F40B308CE5180709F4C0
:100FC00079C008F07BC08091890288606FC00F30C3
:100FD000ECE51E0709F480C008F082C08091890208
:100FE000877FCAC00D3F2CE5120709F471C000F5D8
:100FF00005318CE5180709F485C068F40331ECE588
:101000001E0709F475C008F095C00E94CD1D80919F
:1010100089028F77B1C00B3F2CE51207A9F108F0C8
:1010200054C00A3F1C4509F0A9C080918A0240C003
:1010300001309DE5190709F489C058F40F3FFCE51C
:101040001F0709F45AC008F069C080918A028260C3
:101050002FC001363DE5130709F47EC0053A8DE542
:10106000180709F483C002301D4509F087C060E00D
:101070006EC08091890282607FC08091890216C013
:1010800080918902886078C080918A0282604FC016
:1010900080918902806270C08091890280646CC0F6
:1010A0000E94CD1D80918902806866C0846064C002
:1010B00081603DC0809189028E7F5EC080918902EF
:1010C0008D7F5AC08091890216C080918A0218C013
:1010D00080918A028D7F2BC0809189028F7E4CC0C7
:1010E000809189028F7D48C0809189028F7B44C0A6
:1010F00080918902877F8B7F3FC080918A028D7F9C
:101100008E7F15C08091890282FB222720F991E011
:10111000922790FB82F990FB83F92EC080918A027E
:10112000982F909591708E7F892B90FB81F98093F9
:101130008A0224C00E94CD1D8091890287FB22274C
:1011400020F991E0922790FB87F916C061E08EE0CC
:1011500090E00E94311F12C08091890284FB2227F7
:1011600020F991E0922790FB84F906C080918902D2
:10117000982F909590FB80F9809389026091890265
:1011800010918A0284E090E00E94311F612F82E278
:1011900090E00E94311F0E94CD1D52CE053FFCE51C
:1011A0001F0731F406E221EE42EE65EF7CE591CEB9
:1011B000053F2CE5120730F407E225EE44EE64EF1C
:1011C0007CE587CE063F3CE5130709F09FCE07E29A
:1011D00025EE46EE66EF7CE57CCE06318CE5180701
:1011E00011F58091E9018A7A91E009F490E09093F9
:1011F0006E01882311F065E301C069E28FE691E09A
:101200000E944A1B0DC006311C45F1F580916E010C
:10121000882309F486C265E38FE691E00E94221BD1
:101220000E94E80E0DCE0A35EDE51E0741F150F49F
:1012300001152CE51207A9F00E3D1C4529F50E9469
:10124000710EFECD0B358DE51807D9F00C351D4517
:10125000D9F480918A0282FB882780F991E089275E
:1012600011C00E94CD1DEFEFF4E32CE0E150F040FF
:101270002040E1F700C000000E94951AE1CD81E016
:1012800001C080E00E945A0FF70182810081118124
:10129000882349F0C8010E94081DD82E682FC80174
:1012A0000E94631D04C0C8010E94371DD82EB801DA
:1012B0008D2D0E94A51C0E94D70CB82E192F982E98
:1012C000F7010281A580A2949FE0A9228091C70125
:1012D0008770B9F00023A9F0812F807F803421F03E
:1012E00080E28B0D883068F080918A0282FD09C00F
:1012F00082E00E943D0F8091C7018770DD24D39466
:101300008111D12CC12EC2948FE0C8228C2D90E087
:101310008C30910508F0CAC1FC01E45BFF4F0C94CE
:10132000651F812F807F1F70882311F01295107F19
:101330000023B9F0112309F4A7C180E28B0D883096
:1013400010F0911006C08091E901182B1093E9016B
:1013500005C08091E801182B1093E8010E94E80E67
:1013600093C18B2D0E94F31D112309F49FC180E2CC
:101370008B0D883080F1992071F110958091E801F2
:1013800018231093E8012AC0812F807F1F708032BC
:1013900011F01295107F8B2D992021F0F1E09F160E
:1013A000D9F149C080918A0282FF1BC0002369F0F5
:1013B000112339F08091E901182B1093E9010E9463
:1013C000E80E80E00E944A1E71C180E00E94F31D79
:1013D000112309F46BC1812F0E94E10E0E94E80ED7
:1013E00065C1002381F08091EA01AA2051F021E03B
:1013F000A21207C0182B181709F458C11093EA015C
:1014000055C1812B10C0AA2021F031E0A31609F4A8
:101410004DC10E94DB0E27C0002341F085E08A15F4
:1014200008F444C1812F0E94E91D40C194E09A153F
:1014300008F43CC118C0002349F0AA2099F3F70131
:10144000858180FF21C18F708583ECCFAA2059F060
:10145000893309F028C1FFEF27EE33E0F150204037
:101460003040E1F71EC1812F0E94E21D1FC1812F74
:1014700086958695837019F0813061F017C100233D
:1014800021F08B2D912F937002C080E090E00E949C
:10149000951B12C1002321F08B2D912F937002C058
:1014A00080E090E00E947F1B07C1812F8370A9F527
:1014B000011100C14B2D429546954770440F440FD2
:1014C0008B2D8F7090E09C01042E01C0220F0A9496
:1014D000EAF7B4FE08C08FE090E001C0880F4A959B
:1014E000EAF7809501C080E01695169513701230CA
:1014F00069F088F49091EB01113019F0822B892367
:1015000002C0922B892B0E94A91DD4C0822B9091DE
:10151000EB018927F8CF822BF6CF002319F0812F1A
:10152000817001C08695882309F4C4C04B2D429573
:1015300046954770440F440F8B2D8F7090E09C01AF
:10154000042E01C0220F0A94EAF7B4FE08C08FE00F
:1015500090E001C0880F4A95EAF7809501C080E0CD
:10156000169516951370123059F078F490911E026A
:10157000113019F0822B892309C0922B892B06C0C8
:10158000822B90911E02892701C0822B0E948E1D02
:1015900091C01F70002339F0812F0E949E1D8B2D5A
:1015A0000E94E91D87C08B2D0E94E21D812F0E94A1
:1015B000921D80C08B2D92EF991679F1991538F014
:1015C000E0EF9E1659F0F1EF9F1611F159C023EF8D
:1015D000921651F134EF9316B9F052C0002379F00E
:1015E00084E08A1508F462C01F7181E090E001C0B8
:1015F000880F1A95EAF790911E0289271FC095E07F
:101600009A1508F453C0F0CF80918A0282FF19C066
:10161000002329F0812F8F7126C00023D9F3812F59
:101620008F710E94921D42C0002339F01F7181E02A
:1016300001C0880F1A95EAF701C080E00E948E1D54
:1016400035C0002399F01F71812F0E949E1D80914B
:101650008A0282FD07C0E8E01E9FC001112483605A
:101660008093C701812F0E949E1D20C081E00E94AF
:101670003D0FF1E0FA15D0F482E00E943D0F16C054
:10168000002321F0AA2031F28B2D9CCEAA2039F222
:10169000893349F42FEF37EE83E02150304080400A
:1016A000E1F700C000008B2D0E94F31D88EF8C0D28
:1016B000843010F40E94AB1BDD20A9F18091C7019A
:1016C00080FD31C0F70112828595859585950E9430
:1016D0009E1DC7010E94D4058091C70185958595FF
:1016E000859529960FB6F894DEBF0FBECDBFDF916A
:1016F000CF911F910F91FF90EF90DF90CF90BF900F
:10170000AF909F908F907F906F905F904F903F90A1
:101710000C94921D01319FE5190709F0C7CB82E0B7
:101720008BCB69E279CD29960FB6F894DEBF0FBE58
:10173000CDBFDF91CF911F910F91FF90EF90DF9080
:10174000CF90BF90AF909F908F907F906F905F9061
:101750004F903F90089580E008959091890292FF04
:101760000DC0282F2871283019F4877F846006C0A7
:10177000282F2471243011F48B7F886093FF0DC0D3
:10178000282F2871283119F4877E846106C0282FFC
:101790002471243111F48B7E886120918A0220FF0C
:1017A0000DC0382F3871383019F4877F816006C03A
:1017B000382F3171313011F48E7F886021FF0DC0D8
:1017C000282F2871283119F4877E816106C0282FBF
:1017D0002171213111F48E7E886194FD877E0895F8
:1017E000F894E82FE295EF70F0E031A1282F2F70E8
:1017F00081E090E001C0880F2A95EAF7982F909534
:10180000932391A392A1892B82A3789408958F9218
:101810009F92AF92BF92CF92DF92EF92FF920F937F
:101820001F93CF93DF93CDB7DEB76E970FB6F894C3
:10183000DEBF0FBECDBFAE014F5F5F4F7A018EE1BD
:10184000FA0111928A95E9F70DE411E06A01AA24E0
:10185000A394B12CF80180818F3F09F447C0F8941C
:10186000E82FE295EF70F0E021A18F70A50102C092
:10187000440F551F8A95E2F7CA01922F982B91A326
:1018800092A18095892382A3789400C0ECE5F1E0D1
:1018900021E030E0812C912C41914F3F89F0A42F21
:1018A000A295AF70B0E090968C9190E04F7002C01E
:1018B000959587954A95E2F780FD02C0C90102C05F
:1018C00080E090E0882A992A220F331F51E0EB36FE
:1018D000F50711F7F80180818F3F11F00E94F00B9E
:1018E000F0EAFA95F1F7F601918280820F5F1F4FBF
:1018F000F2E0CF0ED11C41E00C35140709F0AACF5D
:101900004EE150E0B7018FE192E00E94751F11E0B7
:10191000009709F410E0892B89F08EE1F701AFE11F
:10192000B2E001900D928A95E1F781E08093EE019B
:101930000E94ED1A9093ED018093EC018091EE01ED
:10194000882309F12091EC013091ED014FB7F89413
:101950008091850290918602A0918702B0918802C1
:101960004FBF821B930B059770F0EFE1F2E0ADE300
:10197000B2E0819191918D939D9352E0ED33F50703
:10198000C1F71092EE01812F6E960FB6F894DEBF6C
:101990000FBECDBFDF91CF911F910F91FF90EF90C0
:1019A000DF90CF90BF90AF909F908F900895CF938E
:1019B000DF938238910569F1B0F48133910509F420
:1019C0006FC048F48932910509F465C08A329105E7
:1019D00009F46BC08AC08533910509F457C0893377
:1019E0009105B9F082C0833E910571F138F4803ED3
:1019F0009105B1F0823E910511F177C0863E9105C7
:101A0000B9F1873E9105C9F1843E910509F06DC099
:101A100024C02091890220FD53C021FD51C065C022
:101A20008091890280FD46C080918A0280FF48C073
:101A30008091890284FD3FC183EE90E03EC1809198
:101A4000890282FF3AC0F4CF8091890282FD35C0BD
:101A500080918A0280FD34C0EBCF80918A0281FFA1
:101A600035C08091890284FD26C187EE90E025C1B2
:101A70008091890283FF27C0F4CF8091890283FD82
:101A800022C080918A0281FD21C0EBCF8091890222
:101A900085FD1FC021C08091890285FD1DC019C030
:101AA0008091890286FD1BC01DC08091890286FD40
:101AB00019C015C089E390E000C182EE90E0FDC03E
:101AC00080EE90E0FAC086EE90E0F7C084EE90E001
:101AD000F4C089E290E0F1C085E390E0EEC08AE2D4
:101AE00090E0EBC081E390E0E8C0811532E5930718
:101AF00008F069C0811541E5940728F0982F8827E0
:101B0000816F906ADAC0883E910568F5803E910544
:101B100008F0D3C0883A9105B8F4853A910548F0A9
:101B2000855AE82FF0E0E35FFE4F808190E09064FB
:101B3000C4C08130910509F4BBC008F4BCC0843036
:101B4000910508F4B8C0B9C08F3B910508F0B3C047
:101B5000885AE82FF0E0EE0FFF1FE05FFE4F808114
:101B600091819464AAC0811520E59207F0F09C0150
:101B700074E0369527957A95E1F7922F9370482F68
:101B8000437021E030E002C0220F331F4A95E2F794
:101B90003C68392B8F70982F9695969540E2949FCC
:101BA000C0011124822B932B88C0811530E4930748
:101BB00018F09F70906A81C09C013A9521153F41B1
:101BC00008F47BC078C0EC01C11586E5D807E8F5BC
:101BD000C11525E5D20748F08C2F0E94AD0B8F71FF
:101BE00090E0982F8827906268C0C11534E5D3072C
:101BF00028F09C2F8827846F906A5FC0AE014370E5
:101C000055272C2F26952695C115D34578F481E0CC
:101C100090E002C0880F991F4A95E2F740E2249FA6
:101C200090011124822B932B9C6847C081E090E0A7
:101C300002C0880F991F4A95E2F740E2249F900165
:101C40001124822B932B9A6838C0C1152AE5D2073C
:101C5000F8F4C11539E5D30790F08C2F8F700E94EE
:101C6000AD0B94E0D695C7959A95E1F7CF70D0E08B
:101C7000DC2FCC27D0699E01282BC9011EC0C115BD
:101C800048E5D407C0F09C2F8827806F906A15C064
:101C9000CE0190568115904270F48D2F8F710E9465
:101CA000AD0B282F2F71CE0199279062922B05C082
:101CB00081E090E002C080E090E0DF91CF91089554
:101CC000CF9384E090E00E94231FC82F82E290E02F
:101CD0000E94231F2C2F30E0A901582BCA01CF915D
:101CE000089569EE7EEF80E090E00E944F1F60E073
:101CF00082E090E00E94311F60E083E090E00E946B
:101D0000311F1092EB0160E084E090E00E94311FEF
:101D100060E082E290E00E94311F60E085E090E0A8
:101D20000E94311F60E086E090E00E94311F6FEF5B
:101D300087E090E00E94311F40E050E0BA0188E067
:101D400090E00E94431F60E08DE090E00E94311F10
:101D500040E050E0BA0188E190E00E94431F60E05B
:101D600087E190E00E94311F40E050E0BA018CE131
:101D700090E00E94431F60E070E080E290E00E94EB
:101D80004F1F40E050E0BA0188E190E00E94431FFD
:101D900080E00E94B61C0E94D41C40E050E0BA01D2
:101DA0008FE090E00E94431F40E050E0BA0183E1E1
:101DB00090E00C94431F8091EA0181111092EA0196
:101DC000089580959091E90189238093E901089510
:101DD0009091E9018091E801982B90936F01809197
:101DE000EA018823D9F0892B80936F01809100014B
:101DF000882331F08091890287FF02C08EE101C003
:101E000086E0E1E7F1E090E0815028F02191222383
:101E1000D9F39F5FF9CF91110E94DB0E40E250E0B1
:101E200068EC71E08FE691E00E94751F892B21F12B
:101E300080E2EFE6F1E0A8ECB1E001900D928A9526
:101E4000E1F7E0918002F09181023097A9F0809152
:101E50000001882359F08091890287FF07C0809193
:101E60006F018093700186E080936F010280F3819F
:101E7000E02D8FE691E0099408952091C7018095A7
:101E800082238093C701982F977099F430E0482FF0
:101E9000082E000C550B2417350759F090918A0233
:101EA00092FD07C08595859585950E94921D10929B
:101EB000C7010895CF93C0918A02C2FB992790F978
:101EC000981799F080FBC2F9C0938A026091890249
:101ED00084E090E00E94311F6C2F82E290E00E942B
:101EE000311F82E0CF910C943D0FCF9108958091E6
:101EF000C60190919501891719F08F5F8770FBCF0C
:101F000008950F931F93CF93DF938091940182954F
:101F10008F7009F05DC080919101882309F458C049
:101F20008091C6011091950160918F01709190018F
:101F3000C0919201D091930191E06F3F09F090E040
:101F4000292F06E0811709F443C0209721F07F3F35
:101F500021F030E003C031E001C0322F90E030FDCD
:101F600034C0089FF001099FF00D1124DF01AA562B
:101F7000BE4F11963C911197371327C03C913613F1
:101F800024C012963C91129731111FC013964D91A7
:101F90005C9114974C1B5D0B483C5105B0F480914B
:101FA00094018F70806180939401E556FE4F80818B
:101FB0008F70806180838FE891E00E94D405DF916B
:101FC000CF911F910F910C94770F01968770BACF24
:101FD000DF91CF911F910F910895CF93DF93EC0183
:101FE0000E94081DBE010E94A51C0E94D70CDF9113
:101FF000CF9108959F92AF92BF92CF92DF92EF92CE
:10200000FF920F931F93CF93DF93CDB7DEB7619706
:102010000FB6F894DEBF0FBECDBF8C0185E0F8018E
:10202000DE011D9601900D928A95E1F7F801E2809C
:1020300090918F0160919001409192015091930194
:102040004115510531F06F3F31F481E09F3F19F4A4
:1020500003C081E001C080E0F82FF1709F2E80FD69
:102060001AC1F80130812181C380D4808FE8A82E65
:1020700081E0B82EF0909101F601E41BF50BFF20F2
:1020800009F4C6C080919401E83CF10508F091C0C4
:10209000482F407F09F050C0621311C093130FC046
:1020A000FE2CE1100CC08F70806180939401C501FB
:1020B0000E94D40580919401F801858329C1CD281F
:1020C00031F02F3F31F481E03F3F19F403C081E04C
:1020D00001C080E080FD03C081E08E2502C080E069
:1020E00090E0F82FF170FF2E80FF1CC08091C60198
:1020F0004091950156E0841709F4E8C090E0589F9C
:10210000F001599FF00D1124EA56FE4F618126130C
:1021100006C06081631303C06281E61203C00196AA
:102120008770E9CFFE2CEE2009F4F2C08091940173
:1021300081608093940149C0621306C0931304C068
:10214000E11002C0F80186C0C8010E94AD1D8823BD
:1021500051F1EE2041F120919401822F82958F70F0
:1021600090E0029774F080918F0190919001988790
:102170008F831986DB86CA862C87CE0107960E943C
:10218000D40586E0F801AFE8B1E001900D928A95A0
:10219000E1F70E94810F0AC06217C9F0C8010E94CE
:1021A000AD1D81111EC0C8010E94D405FF24F39407
:1021B000AFC0482F407F81F78FE891E00E94D4059F
:1021C00086E0F50111928A95E9F7F12CA1C09313ED
:1021D000E5CFE110E3CFF8018583C8010E94D40563
:1021E00054C0EE2001F320919401822F82958F70CC
:1021F00090E0029734F280918F01909190019A8340
:1022000089831B82DD82CC822E83CE010196B7CFDB
:10221000E83CF105D0F5FE2CEE2029F2621327C030
:10222000931325C02091940120FD18C0822F829520
:102230008F70482F50E04115510581F0F80125833A
:102240004F30510541F08F5F982F9295907F822FEC
:102250008F70892B8583C8010E94D40586E0F80120
:10226000AFE8B1E001900D928A95E1F751C0C80145
:102270000E94AD1D811185CF809194018160809372
:102280009401C8010E94D40543C086E0F501119273
:102290008A95E9F73DC0EE2009F485CFC8010E9478
:1022A000AD1DF82E882309F47ECF86E0F801AFE853
:1022B000B1E001900D928A95E1F780918F019091A4
:1022C00090010E94ED0F0E94810F22C03D872E8752
:1022D0008D859E850E94ED0F292F22952F7022302B
:1022E00028F49F7039F0811105C00BC0243028F408
:1022F0009F7049F4805E883020F0C8010E94D405A8
:102300009F2CF92C05C0F8019581907F99F7F9CFA2
:102310008F2D61960FB6F894DEBF0FBECDBFDF9153
:10232000CF911F910F91FF90EF90DF90CF90BF90D2
:10233000AF909F9008958091160287FF11C0809101
:10234000E80082FD05C0809114028111F8CF11C010
:102350008091E8008B770BC080911402882349F0AC
:102360008091E80080FFF8CF8091E8008E7780931D
:10237000E8000895982F973068F59093E900981732
:1023800039F07091EC002091ED005091F00003C005
:10239000242F762F50E021FD02C09F5FECCF3091BB
:1023A000EB003E7F3093EB003091ED003D7F3093AA
:1023B000ED003091EB0031603093EB007093EC0056
:1023C0002093ED005093F0002091EE0027FDE5CF23
:1023D00080E008958F708093E90081E00895209156
:1023E0001C0230911D022617370748F06115710550
:1023F00039F42091E8002E772093E80001C0B9015C
:10240000FC0120E06115710569F1809114028823B7
:10241000E1F18530E1F18091E80083FD3AC08091DF
:10242000E80082FD2CC08091E80080FFEBCF809116
:10243000F2009091F3006115710551F0883091051B
:1024400038F421912093F100615071090196F3CF86
:1024500021E0089709F020E08091E8008E778093D2
:10246000E800D0CF2111D1CF0AC080911402882377
:1024700061F0853061F08091E80083FD0AC08091B1
:10248000E80082FFF2CF80E0089582E0089583E0C3
:10249000089581E008950895BC0184E00C946B1ABE
:1024A000BC0183E00C946B1A80911E02982F9670E9
:1024B000963011F4886001C0877F0C948E1D1F93A5
:1024C000CF93DF93CDB7DEB7AA970FB6F894DEBFF0
:1024D0000FBECDBFE6E1F2E08EE192E02091F10087
:1024E00021938E179F07D1F780911702833009F44B
:1024F00061C030F4813071F0823009F49BC0B2C009
:102500008A3009F487C08B3009F46CC0893009F037
:10251000A9C020C080911602813A09F0A3C0809121
:10252000E800877F8093E80080911A0290911B0257
:10253000892B21F460E282EF91E003C060E080E04B
:1025400090E070E00E94EF118091E8008B7780931B
:10255000E80088C080911602813209F083C0809122
:102560001A0290911B02009719F0029709F07AC0A5
:102570008091E800877F8093E8008091E80082FDE9
:1025800005C0809114028111F8CF6CC08091F200D7
:102590009091F300029731F48091F100813011F0B5
:1025A000863021F48091F1008093F1018091E80060
:1025B0008B7754C080911602813A09F053C0809104
:1025C0001A0290911B02892B09F04CC08091E800FF
:1025D000877F8093E8008091E80080FFFCCF8091A6
:1025E000000137C0809116028132E1F580911A0214
:1025F00090911B02892BB1F58091E800877F809331
:10260000E8000E949B1180911802809300010E94B3
:10261000CD1D28C080911602813221F58091E800FD
:10262000877F8093E8000E949B118091190280931C
:10263000F00118C080911602813AA1F48091E8005F
:10264000877F8093E8008091E80080FFFCCF809135
:10265000F0018093F1008091E8008E778093E8008C
:102660000E949B118091E80083FFDCC180911602DB
:1026700090911702492F50E04A30510508F0D2C11D
:10268000FA01E85AFF4F0C94651F803821F0823818
:1026900009F0C8C108C080911202909113029923D9
:1026A00089F082600FC080911A028F70873008F025
:1026B000B9C18093E9008091EB0085FB882780F900
:1026C0001092E9009091E800977F9093E800809342
:1026D000F1001092F1006DC1282F2D7F09F0A2C1E9
:1026E000882319F0823061F09DC1809118028130F9
:1026F00009F098C1933009F080E0809313022EC056
:102700008091180281112AC080911A028F702FEFD8
:10271000280F263008F086C18093E9002091EB0055
:1027200020FF1CC0933021F48091EB00806214C024
:102730009091EB0090619093EB0021E030E0A901D3
:1027400002C0440F551F8A95E2F74093EA001092A9
:10275000EA008091EB0088608093EB001092E90022
:102760008091E800877F8093E8000E949B115AC106
:10277000811158C1109118021F778091E300807871
:10278000812B8093E3008091E800877F8093E800AD
:102790000E949B118091E80080FFFCCF8091E300B4
:1027A00080688093E300111102C082E001C083E0E1
:1027B0008093140237C18058823008F033C12091D1
:1027C0001802309119022C3D53E0350779F583E06A
:1027D0008A838AE289834FB7F894DE01139620E05A
:1027E0003EE051E2E32FF0E050935700E49120FFE8
:1027F00003C0E295EF703F5FEF708E2F90E0EA30FC
:1028000010F0C79601C0C0968D939D932F5F243121
:1028100049F74FBF8091E800877F8093E8006AE224
:1028200070E0CE0101960E94EF11B1C080911A02B2
:1028300090911B02432F552743305105A9F068F4AE
:102840004130510509F4FDC04230510509F0EAC09C
:102850008BE590E0E9E6F2E04BC04132510529F109
:102860004232510589F1DEC0C901992781309105B5
:10287000A1F058F0029709F0D5C0E6EDF2E0E4913E
:102880008E2F90E0E6EDF2E030C0EAE0F3E0E49174
:102890008E2F90E0EAE0F3E028C0E0EFF2E0E49170
:1028A0008E2F90E0E0EFF2E020C08330910508F039
:1028B000B9C0880F991FFC01E95BFE4F0190F081C0
:1028C000E02D89E090E014C08330910508F0AAC0A3
:1028D000FC01EE0FFF1FEF5BFE4F0190F081E02D3A
:1028E000DC01A25CBE4F8C9190E0009709F49AC085
:1028F0002091E800277F2093E80020911C0230916E
:102900001D022817390708F4C90140E0009771F14A
:10291000209114022223D9F12530C9F12091E80039
:1029200023FD35C02091E80022FD2DC02091E80054
:1029300020FFECCF2091F2003091F300009759F086
:102940002830310540F444914093F10031960197CD
:102950002F5F3F4FF3CF41E02830310509F040E0D1
:102960002091E8002E772093E800D0CF4111D0CFFE
:102970000AC080911402882351F0853041F0809183
:10298000E80083FD04C08091E80082FFF2CF8091CF
:10299000E8008B778093E80045C0803809F042C09A
:1029A0008091E800877F8093E800809115028093F2
:1029B000F1008091E8008E77D6CE811133C08091EE
:1029C0001802909119029927029764F58091E80006
:1029D000877F8093E80010911802109315020E94DF
:1029E0009B11111106C08091E30087FD02C081E0B8
:1029F00001C084E08093140242E061EC81E00E9417
:102A0000BA1142E261EC84E00E94BA1142E261EC48
:102A100082E00E94BA1142E260EC83E00E94BA11A7
:102A2000809114028091E80083FF10C08091E8003B
:102A3000877F8093E8008091EB0080628093EB00B9
:102A400005C082E190E0E4ECF2E052CFAA960FB626
:102A5000F894DEBF0FBECDBFDF91CF911F910895D7
:102A60001F920F920FB60F9211240BB60F922F9355
:102A70003F934F935F936F937F938F939F93AF9306
:102A8000BF93CF93DF93EF93FF93C091E900CF7093
:102A90008091EC00D82FD17080FDD0E81092E90031
:102AA0008091F000877F8093F00078940E945F12FD
:102AB0001092E9008091F00088608093F000CD2BA7
:102AC000CF70C093E900FF91EF91DF91CF91BF915B
:102AD000AF919F918F917F916F915F914F913F91B6
:102AE0002F910F900BBE0F900FBE0F901F90189557
:102AF000E8EDF0E080818C7F80831092E2001092FC
:102B0000DA001092E100A0EEB0E08C9181608C932D
:102B100080818F77808319BCA7EDB0E08C918E7F88
:102B20008C9380818F7E80831092EF010895CF92E5
:102B3000DF92EF92FF920F931F93CF93DF93C8ED35
:102B4000D0E088818F7E8883E7EDF0E0808181602E
:102B5000808381E08093EF0188818C7F888302EEFF
:102B600010E0D8011C921092DA0081EEC82ED12C10
:102B7000D6011C9288818F778883888180688883BA
:102B800088818F7D888380818068808319BC1092C2
:102B9000140210921502109213021092120290EE7B
:102BA000E92EF12CF70180818B7F80838881816001
:102BB000888342E060E080E00E94BA11D6018C91E7
:102BC0008E7F8C93F8018081816080838081886012
:102BD0008083D7018C918E7F8C93888180618883DC
:102BE000DF91CF911F910F91FF90EF90DF90CF90E9
:102BF00008951F920F920FB60F9211240BB60F92E9
:102C00002F933F934F935F936F937F938F939F93F4
:102C1000AF93BF93EF93FF938091E10082FF09C0D0
:102C20008091E20082FF05C08091E1008B7F80935C
:102C3000E1008091DA0080FF2AC08091D80080FFF7
:102C400026C08091DA008E7F8093DA008091D900CF
:102C500080FF18C084E189BD86E189BD09B400FE0A
:102C6000FDCF81E0809314028091EF0181110FC0AC
:102C70000E9478150E9497158091E20084608093ED
:102C8000E20005C019BC109214021092EF0180916D
:102C9000E10080FF17C08091E20080FF13C08091A7
:102CA000E2008E7F8093E2008091E2008061809359
:102CB000E2008091D80080628093D80019BC85E042
:102CC000809314028091E10084FF30C08091E20083
:102CD00084FF2CC084E189BD86E189BD09B400FE72
:102CE000FDCF8091D8008F7D8093D8008091E10046
:102CF0008F7E8093E1008091E2008F7E8093E200DE
:102D00008091E20081608093E20080911502882327
:102D100011F084E007C08091E30087FD02C081E0EC
:102D200001C083E080931402809114028091E1003D
:102D300083FF27C08091E20083FF23C08091E100E0
:102D4000877F8093E10082E0809314021092150245
:102D50008091E1008E7F8093E1008091E2008E7F80
:102D60008093E2008091E20080618093E20042E083
:102D700060E080E00E94BA118091F000886080934A
:102D8000F000FF91EF91BF91AF919F918F917F9153
:102D90006F915F914F913F912F910F900BBE0F90CC
:102DA0000FBE0F901F9018952091E4003091E50020
:102DB00095E64091EC00842F817040FF23C0809104
:102DC000E80080FD1DC080911402882399F08530B1
:102DD00099F08091EB0085FD11C04091E400509185
:102DE000E5002417350729F3915011F09A01E1CF3E
:102DF00084E0089582E0089583E0089581E00895D5
:102E000080E008954091E80042FFDDCF0895EF9201
:102E1000FF920F931F93CF93DF937C018B010E944E
:102E2000D416811119C0E70101151105A1F0809197
:102E3000E80085FD0AC08091E8008E778093E80065
:102E40000E94D416882381F307C089918093F100F2
:102E500001501109E9CF80E0DF91CF911F910F91CF
:102E6000FF90EF900895CF93DF93CDB7DEB7AA9789
:102E70000FB6F894DEBF0FBECDBF84B7877F84BF87
:102E80000FB6F894A89580916000886180936000E7
:102E9000109260000FBE90E080E80FB6F894809327
:102EA0006100909361000FBE85B7806885BF85B7CC
:102EB000806885BF8BEA9BE090936D0180936C01E5
:102EC0000E9478150E9497158091E200846080939B
:102ED000E2007894809114028823A1F01091E90017
:102EE0001F709091EC00892F817090FD80E8182B65
:102EF0001092E9008091E80083FD0E945F121F702C
:102F00001093E90082E084BD93E095BD9AEF97BDF0
:102F100080936E000E94E31C811102C00E94D41CA9
:102F20000DE411E0D8018D918D018F3F11F00E94C9
:102F3000F00BB1E00C351B07A9F70CE511E0F80127
:102F400081918F018F3F11F00E94F00BF1E00B3661
:102F50001F07A9F78EE1EDE3F2E0DF01282F1D92B4
:102F60002A95E9F7EFE1F2E0DF011D928A95E9F792
:102F700080E090E00E942B1F893E9E4F21F40E942A
:102F8000E31C811102C00E94710E82E090E00E9459
:102F9000231F80935B020E94600E90938A028093AD
:102FA00089020E94070CEFE3FCE93197F1F700C0BA
:102FB00000000E94070C80913D0280FF08C06FEF67
:102FC0007FEF80E090E00E944F1F0E94951A83E0FF
:102FD00090E00E94231F0E94A91D81E091E0909340
:102FE00081028093800258E1452E512C60E4362EF8
:102FF0007BE5672E72E0772ECE0101967C01E2EC34
:10300000CE2EDD24D39480911402853009F041C086
:1030100004E116E180911402853009F036C08091F8
:103020001402843009F1109284020FB6F894A89526
:10303000409260000FBE3092600083B7817F846051
:1030400083BF83B7816083BF7894889583B78E7F71
:1030500083BF0FB6F894A895809160008861809333
:103060006000109260000FBE80911302882391F2DD
:103070000E94070CEDE3F2E081919191892B09F018
:10308000C6C16E167F06C1F7C5CF0E94CD1D0E9436
:10309000AB1B0E94070C882359F08FB7F89440911E
:1030A00085025091860260918702709188028FBFDD
:1030B000EDE3F2E0ACE5B2E000E010E0702F21912A
:1030C00031918D919D9182279327009779F160E04E
:1030D000AA24A394B12CAC014A215B21452B09F110
:1030E00069A37AA32A213B2181E0232B09F480E004
:1030F0008BA30E94ED1A8160782F9DA38CA349A118
:103100005AA16BA18DA10E942C05000F111FF8017F
:10311000E45AFD4F80819181A826B926B182A08210
:103120001AC06F5FAA0CBB1C6F30A9F60F5F1F4F50
:103130000F30110519F68FEF8EA38FA318A60E94EA
:10314000ED1A8160782F9AA789A74EA15FA168A583
:103150008AA50E942C050E94AB1B90917A028913CC
:1031600080937A0280911402843009F04CCF83E07E
:103170008093E9008091E80082FF45CF8091E800CC
:1031800085FF21C00E94D41681111BC000E210E00F
:10319000DE0111965D0108C08091F100F501819377
:1031A0005F010150110969F08091E80085FDF4CFBD
:1031B0008091E8008B778093E8000E94D4168823E2
:1031C00099F391E001C090E08091E8008B778093C3
:1031D000E800992309F417CFE9818E2F90E0FC01D4
:1031E0003197E331F10508F0EAC0EE59FF4F0C9436
:1031F000651F1A8289E055C08A81823009F41DC199
:10320000833009F4DEC0813009F0D9C02FB7F894BB
:103210008091850290918602A0918702B0918802E8
:103220002FBFBB83AC8312C08A81823009F0C7C034
:103230006B817C818D819E810E946E1F0E94B21CD9
:10324000C0C04C816B818A810E947A1C9D83FCC026
:10325000AD80BE80BA24AB24BA248C819B812A81A4
:103260002C9D80012D9D100D1124FEE19F9F000DCE
:10327000111D1124080F111D080F111D6B2DC80100
:1032800087960E94311F6A2DC80188960E94311FBF
:1032900098C00E94461C95C080E14EC088E08A8399
:1032A00081ED8B838EC00A811B8110270127102797
:1032B0008C80912C5701C801815D984F95012E1982
:1032C0003F092815390508F07CC0013D28E01207A8
:1032D00030F40E94231FD50114968C9302C0F5018F
:1032E00014820F5F1F4FFFEFAF1ABF0AE4CF0A81AE
:1032F0001B811027012710278C80912C5701C801B2
:10330000815D984F95012E193F092815390508F060
:1033100058C0013D28E0120728F4D50114966C919D
:103320000E94311F0F5F1F4FBFEFAB1ABB0AE7CFE1
:103330000E94361C46C084E08A8343C00A811B81F8
:103340001027012710278C80912C5701C8018796E0
:1033500095012E193F092815390598F50830E7E041
:103360001E0730F40E94231FD50114968C9302C0CF
:10337000F50114820F5F1F4FFFEFAF1ABF0AE6CFB0
:103380000A811B811027012710278C80912C57015F
:10339000C801879695012E193F092815390588F42B
:1033A000083027E0120728F4D50114966C910E948A
:1033B000311F0F5F1F4FBFEFAB1ABB0AE9CF8FEF73
:1033C000898380911402843009F01DCE1091E900A8
:1033D0001F709091EC00892F817090FD80E8182B70
:1033E00082E08093E9008091E80080FF0CC040E01B
:1033F00050E060E270E0C7010E9407178091E8008A
:103400008E778093E8001F701093E900FCCD09BD12
:1034100019BD09B400FEFDCF8091D8008F7D809347
:10342000D8008091E00082608093E0008091E0000D
:1034300081FDFCCF0E94CD1DEDCD86E290E00E9483
:10344000231F1B821C821D828E83BBCF0895809117
:10345000F1010895CF93DF9320910001222339F0E9
:103460002091890227FF03C060E224E002C068E0E7
:1034700021E02093E9002FEF3091E800215035FD45
:1034800006C035ED3A95F1F700002111F5CF2091F6
:10349000E80025FF1DC0EC0180910001811105C0ED
:1034A00040E050E068E070E003C070E040E050E0D1
:1034B000CE010E9407178091E8008E778093E80084
:1034C00080E2FE01A2EFB1E001900D928A95E1F752
:1034D000DF91CF91089580938B0270938D0260935A
:1034E0008C02809114028430F9F48093E9008FEF0C
:1034F0009091E800815095FD06C095ED9A95F1F701
:1035000000008111F5CF8091E80085FF0DC040E0FB
:1035100050E063E070E08BE892E00E940717809132
:10352000E8008E778093E8000895F89481E0809316
:10353000E00080E28093D800E9ECF0E010828FE1B7
:103540009EE40197F1F700C000001DBA10926800D8
:103550001CBC10BE1FBA10927A0010926E0010921E
:103560006F00109270001092710010821092BC00D7
:1035700011B814B817B81AB81DB810BA12B815B8DF
:1035800018B81BB81EB811BA0C9400FE08957894B0
:103590001F920F920FB60F9211248F939F93AF93A8
:1035A000BF938091850290918602A0918702B0918D
:1035B00088020196A11DB11D809385029093860219
:1035C000A0938702B0938802BF91AF919F918F9192
:1035D0000F900FBE0F901F9018952FB7F894809101
:1035E000850290918602A0918702B09188022FBF38
:1035F00008951F920F920FB60F9211248F939F93ED
:10360000AF93BF9380918402811113C08091850292
:1036100090918602A0918702B09188024196A11DE7
:10362000B11D8093850290938602A0938702B09388
:103630008802BF91AF919F918F910F900FBE0F9015
:103640001F901895209100012223C9F02091890232
:1036500027FF15C0262F2695269526952E31C8F4CE
:10366000FC01E20FF11D677081E090E001C0880F5E
:103670006A95EAF780959281892382830895FC01F7
:1036800006962281621301C012823196E817F9076B
:10369000C1F70895209100012223C1F020918902F1
:1036A00027FF14C0262F2695269526952E3130F516
:1036B000FC01E20FF11D677081E090E001C0880F0E
:1036C0006A95EAF79281892B82830895FC013296EC
:1036D0002FEF30E04191641789F02F3F19F4411129
:1036E00001C0232F3F5F3630A9F72F3F39F0FC018F
:1036F000E20FF11D27FDFA95628308950895209148
:103700008202309183022817390771F09093830267
:1037100080938202E0918002F0918102309721F043
:103720000084F185E02D0994089520917E02309166
:103730007F022817390771F090937F0280937E02F1
:10374000E0918002F0918102309721F00680F781AC
:10375000E02D09940895E0918002F0918102309764
:1037600021F00190F081E02D099480E008950F93FD
:103770001F93CF93DF93C42F122FFC0182818823E4
:10378000C9F040937D020E94ED1A90937C028093D1
:103790007B0280E28C0F883008F063C0C77081E044
:1037A00001C0880FCA95EAF7DF91CF911F910F9161
:1037B0000C94E91D80917D0248133CC020917B024E
:1037C00030917C024FB7F8948091850290918602E7
:1037D000A0918702B09188024FBF821B930B883C57
:1037E000910540F5D0E2D10FC117B9F080E28C0FFE
:1037F000883040F4C77081E001C0880FCA95EAF7AD
:103800000E94E21DD83030F581E0912F977001C001
:10381000880F9A95EAF70E94E91D802F0E94051FE4
:10382000D830F8F4212F277081E001C0880F2A9545
:10383000EAF70AC080E28C0F883098F4C77081E004
:1038400001C0880FCA95EAF7DF91CF911F910F91C0
:103850000C94E21D802FDF91CF911F910F910C945A
:10386000051FDF91CF911F910F910895CF93DF93A3
:10387000CFE2D7E060E0CE010E94311F2196C11552
:1038800080E1D807B9F7DF91CF910895CF92DF9209
:10389000EF92FF920F931F93CF93DF93C0E0D0E09E
:1038A0008E010E531E4F6E018EE1C80ED11CFE011B
:1038B000E25FFC4FE590F4906F2DCE0187960E9459
:1038C000311F6E2DCE0188960E94311F2296CC1595
:1038D000DD0569F70C171D0731F7E80108301740BF
:1038E000F9F6DF91CF911F910F91FF90EF90DF904C
:1038F000CF9008950F931F93CF93DF9350E0440F21
:10390000551F2EE1629F400D511D112422EC31E024
:10391000682F629FC001639F900D11248A01080FD8
:10392000191FC80187960E94231FC82FD0E0DC2FE3
:10393000CC27C80188960E94231F9E01282BC9010D
:10394000DF91CF911F910F910895462F843038F465
:103950007F3028F46F3018F4672F0C947A1C80E0C5
:1039600090E0089586E290E00C94311FCF93C82F29
:10397000811102C06FEF01C062E283E290E00E9419
:10398000311FC11102C06FEF01C064E084E290E01A
:103990000E94311FC11102C06FEF01C061E085E2DA
:1039A00090E0CF910C94311F80E00E94B61C60E043
:1039B00070E0CB010E94B21C0E94461C0E94361C83
:1039C00081E00C94B61C83E290E00E94231F8232B7
:1039D00081F484E290E00E94231F843051F485E258
:1039E00090E00E94231F91E0813009F090E0892F40
:1039F00001C080E08170089580E090E00E94951BF6
:103A000080E090E00E947F1B1092E8010C94E80E89
:103A1000CF92DF92FF920F931F93CF93DF936C01AE
:103A200000911E028091EB01082BC7E0D0E010E06E
:103A3000C8010C2E02C0959587950A94E2F780FD87
:103A400004C02197A8F7F12C09C0FC2EB6018C2FD9
:103A50000E94A51C0E94D70C019799F38F2DDF912E
:103A6000CF911F910F91FF90DF90CF9008952FE09D
:103A7000929F800D1124682F669566956695982F04
:103A8000977083E0689FB001112440E050E080E02F
:103A9000FB01E40FF51FE257FD4F208130E0092EB6
:103AA00002C0369527950A94E2F721703327042E39
:103AB00001C0220F0A94EAF7822B4F5F5F4F433019
:103AC000510531F708952FE0929F800D1124E82FC2
:103AD000E695E695E695877051E001C0550F8A9509
:103AE000EAF783E0E89FF0011124E257FD4F20E060
:103AF00030E070E04081CB01022E02C096958795A0
:103B00000A94E2F781708195842785238427819325
:103B10002F5F3F4F2330310569F7089580931E02D0
:103B20000C94FC1C21E030E001C0220F8A95EAF7DA
:103B3000209580911E0282230C948E1D21E030E09E
:103B400001C0220F8A95EAF780911E02822B0C9405
:103B50008E1D8093EB010C94FC1CFC0180819181F3
:103B60000E94ED0F92959F70963079F010F492506C
:103B700001C09A50923068F4803F69F018F4883E92
:103B800040F409C0843F29F406C0883E20F0813FFC
:103B900011F080E0089581E008951092E90180918C
:103BA0000001882331F08091890287FF02C08EE1F5
:103BB00001C086E0E1E7F1E0DF011D928A95E9F7B7
:103BC0000C94FC1C882321F00E94E10E0C94E80E5A
:103BD0000895882339F09091E901892B8093E901B8
:103BE0000C94E80E0895882309F453C0682F823896
:103BF00069F40E94AB1B81FF4CC069E38FE691E042
:103C00000E944A1B0E94E80E69E30EC0833891F4BB
:103C10000E94AB1B80FF3DC063E58FE691E00E94F0
:103C20004A1B0E94E80E63E58FE691E00E94221B8A
:103C30000C94E80E843869F40E94AB1B82FF29C003
:103C400067E48FE691E00E944A1B0E94E80E67E459
:103C5000EBCF8CEF860F813A38F380E2860F883005
:103C600048F4677081E001C0880F6A95EAF70E9406
:103C7000E10EDECF8BE5860F833020F480E090E00C
:103C80000C94951B685A673120F480E090E00C9406
:103C90007F1B0895CF93882309F4B5C0C82F8238BD
:103CA000B1F40E94AB1B81FDAEC069E38FE691E0E9
:103CB0000E944A1B0E94E80E2FEF81EE94E02150F3
:103CC00080409040E1F700C0000069E317C08338EE
:103CD000E1F40E94AB1B80FD96C063E58FE691E0A6
:103CE0000E944A1B0E94E80E2FEF81EE94E02150C3
:103CF00080409040E1F700C0000063E58FE691E06E
:103D00000E94221BCF910C94E80E8438B1F40E94DB
:103D1000AB1B82FD78C067E48FE691E00E944A1BEE
:103D20000E94E80E2FEF81EE94E0215080409040F9
:103D3000E1F700C0000067E4E1CF8CEF8C0F813A1F
:103D4000B8F5809100018823E1F08091890287FF16
:103D500018C0EC2FE695E695E695F0E0E159FE4FA8
:103D60008281282F30E04C2F477081E090E002C024
:103D7000880F991F4A95E2F782239323892B59F4E0
:103D800011C0E1E7F1E08191C81729F021E0E737A0
:103D9000F207C9F707C06C2F8FE691E00E94221B43
:103DA0000E94E80E6C2F8FE691E00E944A1BAACF7A
:103DB00080E28C0F883068F4C77081E090E001C029
:103DC000880FCA95EAF79091E901892B8093E90160
:103DD00099CFEBE5EC0FE33040F4F0E0E35FFE4F0A
:103DE000808190E0CF910C94951BC85AC73158F44C
:103DF000EC2FF0E0EE0FFF1FE05FFE4F808191811E
:103E0000CF910C947F1BCF9108951F93CF93DF9395
:103E1000182F893319F0C0E0D0E002C0C0E5D0E02F
:103E2000812F0E944A1E209741F08FE99FE0019761
:103E3000F1F700C000002197F6CF812FDF91CF91DD
:103E40001F910C94F31DF999FECF92BD81BDF89A94
:103E5000992780B50895A8E1B0E042E050E00C94C5
:103E6000571F262FF999FECF92BD81BDF89A019771
:103E700000B4021639F01FBA20BD0FB6F894FA9AB2
:103E8000F99A0FBE08950396272F0E94321F0E94B1
:103E9000311F252F0E94321F242F0C94321F0196B0
:103EA000272F0E94321F0C94311FDC01CB01FC0133
:103EB000F999FECF06C0F2BDE1BDF89A319600B483
:103EC0000D9241505040B8F70895EE0FFF1F0024A7
:103ED000001C0BBE0790F691E02D099469279627E8
:103EE00069277827872778270895FB01DC0104C01C
:103EF0008D910190801921F441505040C8F7881BE2
:083F0000990B0895F894FFCF1E
:103F080001271A2A1A261A50124C124B1281828340
:103F1800E200E900EA00B500B600B700CD00830171
:103F2800CC008A0192019401210223022402250275
:103F3800260227022A02B300B4006F007000402254
:103F48006D290207029A017B029402B40295F16777
:103F5800F266F365F464F563F662F7619697C0C19B
:0C3F68003792939460343536F0C6C700E1
:00000001FF
