:100000000C94D7020C940F030C940F030C940F0361
:100010000C940F030C940F030C940F030C940F0318
:100020000C940F030C940F030C94D1210C94A32275
:100030000C94121C0C940F030C940F030C940F03DC
:100040000C940F030C940F030C940F030C940F03E8
:100050000C940F030C949A1C0C940F030C940F0334
:100060000C940F030C940F030C940F030C940F03C8
:100070000C940F030C940F030C940F030C940F03B8
:100080000C940F030C940F030C940F030C940F03A8
:100090000C940F030C940F030C940F030C940F0398
:1000A0000C940F030C940F030C940F03BF06BF06B0
:1000B000EB06EB0653077107580858087C07E4075E
:1000C000F507F507D016D316F31604170C171717F4
:1000D0005D175D175D175D175D171A171D1722173E
:1000E0002F173C173F1743175017102337232F2480
:1000F00037232F248323A6232F24FD230C24290018
:100100001E001F00200021002200230024002500E3
:10011000260027002D002E002A002A004C002B006C
:10012000000014001A000800150017001C00180039
:100130000C00120013002F00300031004B0039007A
:10014000000004001600070009000A000B000D0063
:100150000E000F0033003400280000004E000000A5
:10016000E1001D001B000600190005001100100031
:100170003600370038000000E50052000151E00071
:1001800000000000E2000000000000002C00000061
:1001900000000000E6000000500051004F00350054
:1001A0003A003B003C003D003E003F004000410063
:1001B000420043004400450001000100010001002D
:1001C0000000010001000100010001000100010028
:1001D0000100010001000100010001000100010017
:1001E0000000010001000100010001000100010008
:1001F00001000100010001000100000001000000F9
:1002000001000100010001000100010001000100E6
:1002100001000100010000000100010001000100D7
:1002200000000000010000000000000001000000CC
:1002300000000000010000000100010001000100B9
:1002400001000100010001000100010001000100A6
:100250000100010001000100010001000100010096
:100260000000010001000100010001000100010087
:100270000100010001000100010001000100010076
:100280000000010001000100010001000100010067
:100290000100010001000100010000000100000058
:1002A0000100010001000100010001000100010046
:1002B0000100010001000000010001000100010037
:1002C000000000000100000000000000010000002C
:1002D0000000000001000000010001000100010019
:1002E0000100010001000100010001000100010006
:1002F00001000100010001000100010001000100F6
:1003000000000100010001000100010001000100E6
:1003100001000100010001000100010001000100D5
:1003200000000100010001000100010001000100C6
:1003300001000100010001000100000001000000B7
:1003400001000100010001000100010001000100A5
:100350000100010001000000010001000100010096
:10036000000000000100000000000000010000008B
:100370000000000001000000010001000100000079
:100380000000000000002A2B2800000000000000F0
:1003900000000000000000000029000000002C1EEA
:1003A0003420212224342627252E362D3738271EA7
:1003B0001F202122232425263333362E37381F04CD
:1003C00005060708090A0B0C0D0E0F101112131465
:1003D00015161718191A1B1C1D2F3130232D350423
:1003E00005060708090A0B0C0D0E0F101112131445
:1003F00015161718191A1B1C1D2F3130354C00000B
:1004000000000000000000000000000000000000EC
:1004100000000000000000000000000000000000DC
:1004200000007E0F00D4FFFFFFC7000000780A0322
:1004300065006B00360035000000240345006E00A7
:100440006900690067006D00610020004B006500D5
:10045000790062006F0061007200640073000000A8
:100460000403090409025B00030100A0FA09040067
:1004700000010301010009211101000122400007D0
:1004800005810308000109040100020300000009BE
:10049000211101000122220007058203200001072B
:1004A0000503032000010904020001030000000904
:1004B0002111010001227B000705840320000112A5
:1004C000010002000000084B45020001000102008B
:1004D000010660FF0961A1010962150026FF009570
:1004E00020750881020963150026FF009520750814
:1004F0009102C005010902A10185020901A10005BF
:1005000009190129081500250195087501810205C1
:1005100001093009311581257F9502750881060989
:10052000381581257F950175088106050C0A38026A
:100530001581257F950175088106C0C005010980D8
:10054000A101850319012AB700150126B7009501FD
:1005500075108100C0050C0901A101850419012A4B
:10056000A002150126A002950175108100C00501A9
:100570000906A101050719E029E7150025019508DD
:10058000750181029501750881010507190029FF90
:10059000150026FF00950675088100050819012938
:1005A00005950575019102950175039101C011240E
:1005B0001FBECFEFDAE0DEBFCDBF04B603FE18C02A
:1005C0008091730290917402A0917502B0917602AD
:1005D0008730904BA740B04B59F4109273021092A1
:1005E00074021092750210927602E0E0F8E3099529
:1005F00011E0A0E0B1E0E2EDF9E402C005900D9257
:10060000A03AB107D9F722E0A0EAB1E001C01D92FB
:10061000A337B207E1F70E9481130C94E7240C94EE
:10062000000081E0089581E008950C94130308957B
:100630000C9417031F93CF93DF9300D000D01F9229
:10064000CDB7DEB749835A836B833091A30189818B
:100650009A81311114C0662359F0222349F00E9477
:10066000E709182F682F89819A810E94900903C099
:100670000E94BB09182F69817A81812F04C00E94D2
:10068000E70969817A810F900F900F900F900F907A
:10069000DF91CF911F910C947719FC01262F408197
:1006A00051816281738184810C941A0381E00895E1
:1006B000CF93DF93EC0160E00E944D03BE01DF9118
:1006C000CF910C941803E1E0F0E0DF0102C0AA0F23
:1006D000BB1F6A95E2F7BD01DF0102C0AA0FBB1F75
:1006E0004A95E2F7AD01462B01C0EE0F2A95EAF7D5
:1006F000942F9823491302C08E2B0895E0958E23E2
:100700000895242F462F682F8091C2010E94630311
:100710000C944D090C9432120C942E1208950E94E0
:10072000E8080E948E032FEF84E39CE02150804074
:100730009040E1F700C000000C94C01C0F931F9381
:10074000CF93DF938C0161E00E944D03EC01B8016F
:100750000E947F16882309F444C0B801CE010E948C
:1007600015038823F1F1B801CE010E94DD1A882318
:10077000C1F1B801CE010E946917882391F1B80137
:10078000CE010E94391A882361F1F8018281882301
:1007900009F1CA358DE5D807C1F050F4C115FCE563
:1007A000DF0781F0CE3DDC45A9F40E94080F19C097
:1007B000CB35EDE5DE0761F0CC35DD4559F40E941F
:1007C0004C0E08C00E948F030CC00E94550E02C040
:1007D0000E94580EC801DF91CF911F910F910C9488
:1007E000110380E0DF91CF911F910F9108950E9436
:1007F000F41B0C94E2040E94E5040C94FA1BDF92B3
:10080000EF92FF920F931F93CF93DF93E82FF0E0C7
:10081000E258FC4FD490282F26952695269530E057
:10082000F901E25EFB4F0491877010E0082E02C0D0
:10083000159507950A94E2F701701127F901E25F17
:10084000FB4FE490F12C082E02C0F594E7940A9433
:10085000E2F791E0E922FF24F901E250FC4FC49154
:10086000D0E002C0D595C7958A95E2F7C170DD2723
:100870000115110519F081EE0E944405E114F104FF
:1008800019F086EE0E9444058D2D0E946D06EF281A
:1008900019F086EE0E94EE05012B19F081EE0E9400
:1008A000EE05CD2B51F08CE2DF91CF911F910F918E
:1008B000FF90EF90DF900C946D06DF91CF911F9128
:1008C0000F91FF90EF90DF900895EF92FF920F93BA
:1008D0001F93CF93DF93EC01162F0AE088818823C2
:1008E00009F455C0813009F043C08981813041F459
:1008F0007E0182E0E80EF11C8A810E946D0609C02B
:10090000823049F47E01E2E0EE0EF11C8A810E9401
:100910004405E7012FC0833041F47E01F2E0EF0E81
:10092000F11C8A810E94EE05F4CF843011F02196EB
:1009300021C02A81229680E090E030E020533109E6
:100940002A30310558F4089FA001099F500D112449
:10095000C901840F951F21962881EFCF009751F090
:10096000EFE9FFE03197F1F700C000000197F6CF03
:100970000E94FF032196812F882309F4AFCFEFE96E
:10098000FFE03197F1F700C000008150F5CFDF9113
:10099000CF911F910F91FF90EF90089560E00C941C
:1009A000650408950C94D10481E008950C94D40456
:1009B0000895CF93C82F0E94D2048C2F0E94D60492
:1009C000CF91089580E00C94D9040E94391B0C94B7
:1009D000D9040E94391B9091A201891721F08093BC
:1009E000A2010C94D9040895CF93DF93CDB7DEB75D
:1009F0002B970FB6F894DEBF0FBECDBF4F8358873D
:100A000069877A878B8761110E94980D9E012F5FFD
:100A10003F4F86E0F90111928A95E9F785E0FE01E2
:100A20003796D90101900D928A95E1F789819A81D3
:100A30004C815D81452B31F09F3F31F491E08F3F38
:100A400019F403C091E001C090E090FF09C0498112
:100A50005A816B817C818D819E810E94B90C05C079
:100A6000C9010E9456038111F2CF2B960FB6F8945C
:100A7000DEBF0FBECDBFDF91CF910895FC01808115
:100A800091810E94140A0895CF93882309F4A4C089
:100A9000C82F8238C1F40E94391B81FD9DC069E3D3
:100AA00080910201909103010E94CC1B0E94BA0D1B
:100AB0002FEF81EE94E0215080409040E1F700C09C
:100AC000000069E319C0833801F50E94391B80FDDD
:100AD00083C063E580910201909103010E94CC1BC9
:100AE0000E94BA0D2FEF81EE94E02150804090409B
:100AF000E1F700C0000063E58091020190910301DD
:100B00000E94CE1BCF910C94BA0D8438C1F40E9480
:100B1000391B82FD61C067E480910201909103015D
:100B20000E94CC1B0E94BA0D2FEF81EE94E0215061
:100B300080409040E1F700C0000067E4DDCF8CEF1B
:100B40008C0F813AD0F46C2F8091020190910301B7
:100B50000E94961B882349F06C2F8091020190918E
:100B600003010E94CE1B0E94BA0D6C2F80910201DE
:100B7000909103010E94CC1BC5CF80E28C0F88307E
:100B800048F4C77081E001C0880FCA95EAF70E9457
:100B90007B0DB8CFEBE5EC0FE33040F4F0E0E95B20
:100BA000FE4F808190E0CF910C945E1BE8E5EC0F46
:100BB000E73150F4F0E0EE0FFF1FE75EFE4F80815B
:100BC0009181CF910C94741BC03F30F08C2F0E9408
:100BD0000614CF910C94D814CF910895882309F46A
:100BE00064C0823879F40E94391B81FF5EC069E3DA
:100BF00080910201909103010E94CC1B0E94BA0DCA
:100C000069E310C08338B1F40E94391B80FF4DC0E6
:100C100063E580910201909103010E94CC1B0E9428
:100C2000BA0D63E580910201909103010E94CE1BF1
:100C30000C94BA0D843879F40E94391B82FF35C0B8
:100C400067E480910201909103010E94CC1B0E94F5
:100C5000BA0D67E4E7CF9CEF980F913A10F4682F34
:100C6000E1CF90E2980F983050F4877091E001C086
:100C7000990F8A95EAF7892F0E94810DD9CF9BE5BC
:100C8000980F933020F480E090E00C945E1B98E580
:100C9000980F973120F480E090E00C94741B803F13
:100CA00020F00E9461140C94D81408951F93CF93E0
:100CB000DF93182FEB010E944405209741F08FE944
:100CC0009FE00197F1F700C000002197F6CF812F38
:100CD000DF91CF911F910C94EE05893319F060E0FC
:100CE00070E002C060E570E00C945606882321F0A5
:100CF0000E947B0D0C94BA0D0895882321F00E9468
:100D0000810D0C94BA0D0895CF92DF92EF92FF926D
:100D10000F931F93CF93DF937C01162FC72FFC01F6
:100D2000D281058102950F700E94710D8823B9F060
:100D3000DD23A9F08C2F807F803421F080E2810FA9
:100D4000883068F080914D0282FD09C082E00E94E7
:100D50001A0E0E94710D91E0D82ED92601C0D12C17
:100D6000CC2EC2948FE0C8228C2D90E08C3091055F
:100D700008F09EC1FC01EA5AFF4F0C9477248C2F97
:100D8000807FCF70882311F0C295C07FDD2399F05A
:100D9000CC2309F479C180E2810F883010F0111161
:100DA00004C08C2F0E947B0D03C08C2F0E948B0DE2
:100DB0000E94BA0D69C1812F0E94EE05CC2309F46F
:100DC00077C180E2810F883038F1112329F18C2F0F
:100DD0000E94910D24C08C2F807FCF70803211F043
:100DE000C295C07F112319F01130A1F13DC080914F
:100DF0004D0282FF17C0DD2349F0CC2329F08C2F50
:100E00000E947B0D0E94BA0D80E03FC180E00E94ED
:100E1000EE05CC2309F44CC18C2F0E94810D0E9459
:100E2000BA0D46C1DD2371F0002341F0013031F4E9
:100E30000E949B0D8C2B0E94A30D3AC10E949B0D1A
:100E40008C2B1DC0002319F0013009F431C10E9420
:100E5000B00D25C0DD2321F0063008F029C10EC0F9
:100E6000053008F025C11BC0DD2361F0002331F0FF
:100E7000F701858180FF08C18F7085838C2F0E94C8
:100E8000760616C1002359F0193309F00EC1FFEFA1
:100E900027EE83E0F15020408040E1F704C18C2F21
:100EA0000E947D0605C18C2F86958695837019F06A
:100EB000813061F0FDC0DD2321F0812F9C2F9370E4
:100EC00002C080E090E00E945E1BFAC0DD2321F0AA
:100ED000812F9C2F937002C080E090E00E94741BD1
:100EE000EFC0812FDD2319F00E94061402C00E947A
:100EF00061140E94D814E4C08C2F837079F5D1114D
:100F0000DBC0412F429546954770440F440F212F77
:100F10002F70042E01C0220F0A94EAF714FF08C0B4
:100F20008FE090E001C0880F4A95EAF7809501C0F4
:100F300080E0C695C695C370822BC23049F058F444
:100F4000C13019F00E944109B7C00E943C09B4C0E9
:100F50000E944609B1C00E943A09AEC0DD2319F0D3
:100F60008C2F817001C08695882309F4A5C0412F7C
:100F7000429546954770440F440F212F2F70042E41
:100F800001C0220F0A94EAF714FF08C08FE090E036
:100F900001C0880F4A95EAF7809501C080E0C695A8
:100FA000C695C370822BC23049F058F4C13019F095
:100FB0000E94850981C00E9480097EC00E948A0922
:100FC0007BC00E944D0978C0CF70DD2339F08C2F93
:100FD0000E945E09812F0E9476066EC0812F0E94BA
:100FE0007D068C2F0E94690967C0123F21F128F409
:100FF000103F41F0113FC1F043C0133F19F1143FBE
:1010000079F03EC0DD2341F0053008F051C08C2F4F
:101010008F710E9475094CC0063008F049C0F7CFA7
:1010200080914D0282FF18C0DD2339F08C2F8F7123
:101030000E945E093DC0DD23C9F38C2F8F710E9491
:10104000690936C0DD2329F08C2F8F710E94560963
:101050002FC00E9453092CC0DD2349F0CF718C2F83
:101060000E945E0963E08C2F0E94FF0D21C081E089
:101070000E941A0E0230E0F082E00E941A0E18C0A0
:10108000DD2331F0002391F2812F0E94440510C02E
:10109000002399F2193349F49FEFE7EEF3E0915002
:1010A000E040F040E1F700C00000812F0E94EE0513
:1010B00088EF8C0D843020F40E94391B0E94D904E3
:1010C000DD20C9F00E946D0D80FD15C0F701128270
:1010D0000E94670D0E945E09C7010E949C080E9441
:1010E000670DDF91CF911F910F91FF90EF90DF90EF
:1010F000CF900C946909DF91CF911F910F91FF90D0
:10110000EF90DF90CF9008950F931F93CF93DF93CD
:10111000EC01688179818A810E941F0A8C010E94FA
:101120008F090E942E09B801CE010E948406DF912A
:10113000CF911F910F910895CF93DF93EC01988188
:1011400089812B813C81232B31F08F3F31F481E069
:101150009F3F19F403C081E001C080E080FD1DC005
:10116000CE010E949E03811110C00E94710D882340
:10117000A1F08A81882389F080914D0282FD0DC003
:1011800082E0DF91CF910C941A0ECE010E94840868
:10119000CE01DF91CF910C945803DF91CF91089548
:1011A00080E090E00E945E1B80E090E00E94741B53
:1011B0000E94980D0E94BA0D0E9409160C94D81432
:1011C00080910201909103010E94D01B0C94D008E1
:1011D0000E94880D0C94E00892959F70963079F0EB
:1011E00010F4925001C09A50923068F4803F69F038
:1011F00018F4883E40F409C0843F29F406C0883EB4
:1012000020F0813F11F080E0089581E00895FC0115
:10121000808191810E94140A0E94EC080895CF9366
:10122000DF9300D000D01F92CDB7DEB70F900F90A4
:101230000F900F900F90DF91CF910895CF93DF9390
:1012400000D000D000D0CDB7DEB726960FB6F89408
:10125000DEBF0FBECDBFDF91CF91089508950895F1
:101260000C942F090C9430090E9432098093C30119
:101270000C94D0080C9434099091C301892B0C94E0
:1012800034099091C30189230C9434099091C301CE
:1012900089270C9434090C942F090E944B098093E0
:1012A000C2010C94D00880E00C944D0991E001C07B
:1012B000990F8A95EAF7892F0C944D0921E030E0C7
:1012C00001C0220F8A95EAF78091C201822B0C940B
:1012D0004D0921E030E001C0220F8A95EAF7209500
:1012E0008091C20182230C944D0921E030E001C0BD
:1012F000220F8A95EAF78091C20182270C944D094A
:101300009091C201892B0C944D099091C2018923BF
:101310000C944D099091C20189270C944D090895B0
:1013200020E1929F800D1124E82FE695E695E69541
:10133000877051E001C0550F8A95EAF783E0E89F76
:10134000F0011124EC55FE4F20E030E070E04081C8
:10135000CB01022E02C0969587950A94E2F7817020
:10136000819584278523842781932F5F3F4F2330E6
:10137000310569F7089520E1929F800D1124682FAF
:10138000669566956695982F977083E0689FB00183
:10139000112440E050E080E0FB01E40FF51FEC5524
:1013A000FE4F208130E0092E02C0369527950A9421
:1013B000E2F721703327042E01C0220F0A94EAF7C6
:1013C000822B4F5F5F4F4330510531F70895CF9225
:1013D000DF92FF920F931F93CF93DF936C010091E5
:1013E000C2018091C301082BC7E0D0E010E0C80122
:1013F0000C2E02C0959587950A94E2F780FD04C0F3
:101400002197A8F7F12C07C0FC2EB6018C2F0E9463
:1014100009110197A9F38F2DDF91CF911F910F91A2
:10142000FF90DF90CF900895CF93DF93EC010E945F
:10143000E709BE010E940911DF91CF9108951F9322
:10144000CF93DF93EB019091A301992321F0CB017E
:101450000E94140A13C0882349F0CB010E94E709B7
:10146000182F682FCE010E94900904C0CB010E9462
:10147000BB09182FBE01812F0E940911DF91CF9166
:101480001F9108951F93CF93DF93C091C40116E07D
:101490008091C501C81799F0D0E01C9FF0011D9FF5
:1014A000F00D1124EA53FE4F408151816281738116
:1014B000848195810E941E092196C770E9CFDF9132
:1014C000CF911F9108954091F6015091F7016091DD
:1014D000F8017091F9018091FA019091FB010C944F
:1014E0001E09EF92FF920F931F93CF93DF9380918A
:1014F000FB0182958F7009F065C08091F801882307
:1015000009F460C08091C401F090C5011091F6010A
:101510000091F7016091F9017091FA0191E01F3F8C
:1015200009F090E0C0910001D0910101292F96E0CF
:10153000E92E8F1509F446C06115710521F00F3FA2
:1015400021F030E003C031E001C0322F90E030FDE7
:1015500036C0E89EF001E99EF00D1124DF01AA5388
:10156000BE4F11963C911197301329C03C91311315
:1015700026C012963C911297311121C013964D91BD
:101580005C911497461B570B4C175D07C0F4809174
:10159000FB018F7080618093FB01E553FE4F8081DA
:1015A0008F708061808386EF91E00E949C08DF91BC
:1015B000CF911F910F91FF90EF900C94420A0196EA
:1015C0008770B7CFDF91CF911F910F91FF90EF9070
:1015D00008959F92AF92BF92CF92DF92EF92FF92C7
:1015E0000F931F93CF93DF93CDB7DEB761970FB6FD
:1015F000F894DEBF0FBECDBF8C0185E0F801DE019F
:101600001D9601900D928A95E1F7D8011296EC9003
:101610009091F601E091F7012091F9013091FA01E2
:101620002115310531F0EF3F31F481E09F3F19F48E
:1016300003C081E001C080E0B82FB1709B2E80FD17
:1016400047C1D8014C9111965C9111971396AD90BA
:10165000BC90149786EFC82E81E0D82EF090F80148
:10166000B501621B730B2091000130910101FF2035
:1016700009F4D9C08091FB016217730708F095C087
:10168000282F207F09F052C05E1313C0491311C0E8
:10169000FE2CE1100EC08F7080618093FB010E94D0
:1016A000630AC6010E949C088091FB01F8018583B2
:1016B0004DC1AB2831F05F3F31F481E04F3F19F469
:1016C00003C081E001C080E080FD03C081E08E2581
:1016D00002C080E090E0F82FF170FF2E80FF1CC068
:1016E0008091C4012091C50136E0821709F40BC135
:1016F00090E0389FF001399FF00D1124EA53FE4F1E
:101700006181561306C06081461303C06281E612F0
:1017100003C001968770E9CFFE2CEE2009F416C1B4
:101720008091FB0181608093FB0154C05E1306C071
:10173000491304C0E11002C0F80199C0C8010E9419
:101740000709882361F1EE2051F12091FB01822FDE
:1017500082958F7090E0029774F08091F6019091DD
:10176000F70198878F831986BB86AA862C87CE01BE
:1017700007960E949C0886E0F801A6EFB1E0019070
:101780000D928A95E1F70E94710A0E94630A0AC0CD
:101790005E1711F1C8010E94070981112CC0C80110
:1017A0000E949C08FF24F394D1C0282F207F81F74A
:1017B0007A2DB98AA88A6E2D89890E940F0986EF31
:1017C00091E00E949C0886E0D6011D928A95E9F777
:1017D0000E94630AF12CBAC04913DCCFE110DACFC2
:1017E000F8018583C8010E949C0886E0D6011D92FD
:1017F0008A95E9F7ABC0EE2091F22091FB01822F90
:1018000082958F7090E002970CF4B5CF8091F6012D
:101810009091F7019A8389831B82BD82AC822E83CB
:10182000CE010196A6CF6217730708F044C0FE2CC4
:10183000EE2009F4B4CF5E1330C049132EC02091BE
:10184000FB0120FD21C0822F82958F70482F50E030
:1018500041155105C9F0F80125834F30510541F07C
:101860008F5F982F9295907F822F8F70892B858321
:10187000C8010E949C0886E0F801A6EFB1E0019043
:101880000D928A95E1F73CC086E0F801A6EFB1E041
:1018900001900D928A95E1F759C0C8010E9407098D
:1018A000811169CF8091FB0181608093FB01C801A8
:1018B0000E949C084BC07A2DB98AA88A6E2D89890E
:1018C0000E940F0986E0D6011D928A95E9F718C09B
:1018D000EE2009F464CFC8010E940709F82E88237E
:1018E00009F45DCF86E0F801A6EFB1E001900D921A
:1018F0008A95E1F786EF91E00E943E050E94710A09
:101900000E94630A23C04D875E878D859E850E9455
:10191000140A292F22952F70223028F49F7039F055
:10192000811105C00BC0243028F49F7049F4805EFB
:10193000883020F0C8010E949C089F2CF92C06C01A
:10194000D80115969C91907F91F7F8CF8F2D6196D5
:101950000FB6F894DEBF0FBECDBFDF91CF911F91C0
:101960000F91FF90EF90DF90CF90BF90AF909F903E
:1019700008951F93CF93DF93CDB7DEB72C970FB6A3
:10198000F894DEBF0FBECDBF4F83588769877A8733
:101990008B879C87CE0107960E94E90A8823D1F0A5
:1019A0009F8188852A853B85232B31F08F3F31F439
:1019B00081E09F3F19F403C081E001C080E080FD19
:1019C00047C04F81588569857A858B859C850E94A3
:1019D0001E093EC086E0FE013796DE011196019099
:1019E0000D928A95E1F7FF81E8856A857B8561150F
:1019F000710531F0EF3F31F481E0FF3F19F403C08E
:101A000081E001C080E080FD23C02091C50130E06D
:101A1000C9010196877099274091C40150E084174D
:101A20009507F1F1F983EA837D836C8396E0929FB9
:101A3000D001939FB00D1124AA53BE4FFE013196E1
:101A400001900D929A95E1F78093C5010E94420A98
:101A500016E08091C4019091C501891771F1189F1A
:101A6000C00111248A539E4F0E94E90A882329F15C
:101A7000E091C4011E9FF0011124EA53FE4F408102
:101A8000518162817381848195810E941E098091B8
:101A9000C40190E00196877099278093C401D9CF43
:101AA0000E94E8081092C5011092C401E6EFF1E02F
:101AB00086E0DF011D928A95E9F72C960FB6F8941F
:101AC000DEBF0FBECDBFDF91CF911F9108958091F2
:101AD0000402859585958595089580910402877007
:101AE000089590910402977081E009F480E00895D0
:101AF00080910F02089590910F02892B80930F021D
:101B00000895809590910F02892380930F02089584
:101B100010920F02089590910E02892B80930E026D
:101B20000895809590910E02892380930E02089566
:101B300010920E02089580910502089508950C9464
:101B40009E0D0C949F0D90914D0292FD08C09091B6
:101B50000502981721F0809305020C94A10D0895B9
:101B600080910502882329F01092050280E00C94F0
:101B7000A10D0895CF93DF93E0910201F09103014D
:101B800080910F028083E0910201F0910301908126
:101B900080910E02892B808380910502882381F039
:101BA000E0910201F09103019081892B8083809163
:101BB0000201909103010E948A1B81110E94B00DC5
:101BC000C0910201D091030148E050E06CEF71E058
:101BD000CE010E949824892B69F088E0FE01ACEFC9
:101BE000B1E001900D928A95E1F7CE01DF91CF919E
:101BF0000C94451BDF91CF9108950C949E0D90910C
:101C00004D0292FD10C098E0899F90011124262B6F
:101C1000209304020E945E098091040285958595B7
:101C200085950C94FD0D0C945E091092040280E0E1
:101C30000C94FD0D20910402809582238093040270
:101C4000982F977099F430E0482F082E000C550B10
:101C50002417350759F090914D0292FD07C08595E4
:101C6000859585950E9469090C94150E08959091AB
:101C70004D0292FB222720F9281769F080FB92F988
:101C800090934D0280914C0290914D020E94850EDE
:101C900082E00C941A0E089580914D0282FB8827F1
:101CA00080F991E089270C94370E81E00C94370E6F
:101CB00080E00C94370E6FEF7FEF80E090E00C94A3
:101CC000D12480E090E00E94AD24893E9E4F11F423
:101CD0000C94171680E0089582E090E00C94A524FF
:101CE00083E090E00C94A524CF9384E090E00E94E0
:101CF000A524C82F82E290E00E94A5242C2F30E07A
:101D0000A901582BCA01CF910895CF93C92F682FED
:101D100084E090E00E94B3246C2F82E290E0CF91A7
:101D20000C94B324AB01BC018FE090E00C94C5246B
:101D3000AB01BC0183E190E00C94C52460E070E04D
:101D4000CB010C94980E60E070E0CB010E94920EE3
:101D50000C949E0E69EE7EEF80E090E00E94D1240C
:101D600060E082E090E00E94B32460E083E090E0D5
:101D70000E94B3241092C30160E084E090E00E94CE
:101D8000B32460E082E290E00E94B32460E085E04A
:101D900090E00E94B32460E086E090E00E94B324CB
:101DA0006FEF87E090E00E94B32440E050E0BA017A
:101DB00088E090E00E94C52460E08DE090E00E9401
:101DC000B32440E050E0BA0188E190E00E94C524CD
:101DD00060E087E190E00E94B32440E050E0BA0167
:101DE0008CE190E00E94C52460E070E080E290E029
:101DF0000E94D12440E050E0BA0188E190E00E94C6
:101E0000C52480E00E9430160E9463160C94A30E35
:101E10000C94AA0E682F8EE090E00C94B3240E94DC
:101E20007F1C60931E0270931F0280932002909388
:101E3000210260931A0270931B0280931C029093FC
:101E40001D02089585B7806885BF85B7806885BF06
:101E5000089581E008950C94290F08950C942D0F96
:101E60000C942D0F0C94300F0C942D0F0C94340FF8
:101E70000C942D0F0E94220F85EE91E10E942F1BE2
:101E80000E94380F0C94360F0E942E0F0C942D0FC9
:101E90000E94FF110C94D8040E946A1C0E947216C2
:101EA0000E94DA120E94480F0C94320F5F926F92D8
:101EB0007F928F929F92AF92BF92CF92DF92EF92DA
:101EC000FF920F931F93CF93DF93CDB7DEB72A977F
:101ED0000FB6F894DEBF0FBECDBF0E94EF12C82E22
:101EE00081110E940F0F30E1832E32E0932E00E02B
:101EF00010E0502E802F0E9419125C01F4016190B5
:101F000071904F016826792661147104B1F40F5F56
:101F10001F4F0530110569F78FEF89838A831B8274
:101F20000E94731C8160782F9D838C8349815A8124
:101F30006B818D810E94F4043AC08091220281FD60
:101F40000E942212D12CEE24E394F12CC3018E21A5
:101F50009F21892B29F10E942B0F8823A9F0DE8273
:101F60005F82AE20BF2081E0AB2809F480E0888743
:101F70000E94731C8160782F9A8789874E815F81C8
:101F800068858A850E94F404000F111FF801E05F44
:101F9000FD4F80819181E826F926F182E08207C019
:101FA000D394EE0CFF1CF0E1DF12D0CFB0CF81E074
:101FB000C11001C080E02A960FB6F894DEBF0FBEB4
:101FC000CDBFDF91CF911F910F91FF90EF90DF90E8
:101FD000CF90BF90AF909F908F907F906F905F90C9
:101FE00008950E94560F0E94F6140C94E904CF93B2
:101FF000DF930E940E11EC01811521E5920708F094
:1020000045C0811530E5930708F094C0883E9105DE
:1020100028F5803E910508F0F8C0883A910570F4E3
:10202000853A910508F07CC08130910509F475C0AE
:1020300008F4E8C0049708F0E8C0E4C08F3B9105BD
:1020400008F0E0C0C85AD0E0CC0FDD1FC65BDE4F01
:102050000990D881C02DCE019464D8C0811540E28A
:10206000940758F4811551E0950708F0CEC0803FE1
:10207000910508F4C7C09065C9C0C11580E4D807B0
:1020800008F4C0C0DF70CE01906AC0C0811525E59C
:102090009207A8F4811534E5930708F095C08115DF
:1020A00043E5940708F07BC0811552E5950708F0D9
:1020B00061C0D82FCC27CE01816F906AA7C0C1150F
:1020C00089E5D807A0F4C11528E5D20708F082C039
:1020D000C11536E5D30708F095C08C2F0E94A211D8
:1020E0008F7190E0D82FCC27CE0190628FC0C115A0
:1020F0004AE5D40708F474C0CE0190568115904289
:1021000008F080C08D2F8F710E94A211DD27D06250
:102110008F71AE01582BCA0179C081E090E076C082
:10212000C55AD0E0C858DE4F8881C82FD0E0CE0114
:1021300090646CC074E0969587957A95E1F7282FA6
:1021400023703C2F337081E090E002C0880F991F0C
:102150003A95E2F79C68AC01522B9A019C2F9F7034
:102160009695969550E2959FE0011124C9018C2B1C
:102170009D2B4CC08370992721E030E002C0220FD4
:10218000331F8A95E2F79C2F9695969580E2989F4B
:10219000E0011124C22BD32BCE019C6837C0837081
:1021A000992721E030E002C0220F331F8A95E2F721
:1021B0009C2F9695969540E2949FE0011124C22BA6
:1021C000D32BCE019A6822C0D82FCC27CE01846FA2
:1021D000906A1CC0DC2FCC27CE01806F906A16C09D
:1021E0008C2F8F700E94A21194E0D695C7959A9576
:1021F000E1F7CF70D0E0DC2FCC27D0699E01282BEF
:10220000C90104C080E090E001C0CE01DF91CF9110
:1022100008950E9477190E94F70F0895823891055A
:1022200069F1B0F48133910509F46DC048F4893245
:10223000910509F463C08A32910509F469C00895D3
:102240008533910509F455C089339105B9F0089596
:10225000833E910569F138F4803E9105B1F0823EEC
:10226000910509F10895863E9105A9F1873E9105F2
:10227000B9F1843E910509F064C023C020914C025D
:1022800020FD4FC021FD4DC0089580914C0280FD7E
:1022900044C080914D0280FF44C080914C0284FD77
:1022A00042C083EE4DC080914C0282FF38C0F5CF12
:1022B00080914C0282FD33C080914D0280FD31C07F
:1022C000ECCF80914D0281FF32C080914C0284FDA1
:1022D0002AC087EE35C080914C0283FF26C0F5CF1F
:1022E00080914C0283FD21C080914D0281FD1FC071
:1022F000ECCF80914C0285FD1CC01DC080914C022A
:1023000085FD19C016C080914C0286FD16C017C00D
:1023100080914C0286FD13C010C089E311C082EE8B
:102320000FC080EE0DC080E00BC086EE09C084EEC9
:1023300007C089E205C085E303C08AE201C081E3EA
:1023400090E0089590914C0292FF0DC0282F2871C3
:10235000283019F4877F846006C0282F2471243028
:1023600011F48B7F886093FF0DC0282F28712831CE
:1023700019F4877E846106C0282F2471243111F45A
:102380008B7E886120914D0220FF0DC0382F38715F
:10239000383019F4877F816006C0382F31713130B1
:1023A00011F48E7F886021FF0DC0282F28712831FD
:1023B00019F4877E816106C0282F2171213111F423
:1023C0008E7E886194FD877E089580E008950C9448
:1023D0005B0E0E94EF128FE39CE90197F1F700C0BA
:1023E00000000E94EF1280E00E94191280FF04C0DA
:1023F0000E94E7110C94C01C08950C94E9110E94EE
:10240000610E811102C00E94080F0E946C0E809321
:1024100022020E94740E90934D0280934C020E94FF
:10242000FD110E94700E0E943A098091C2010C9425
:102430004B09E82FF0E0EE0FFF1FE85AFD4F8081B7
:1024400091810895089580EA8A95F1F7089500C072
:1024500008950C94231208950C942B120C942C12B2
:102460000C942B120C943012F894E82FE295EF7034
:10247000F0E031A1282F2F7081E090E001C0880F9B
:102480002A95EAF7982F9095932391A392A1892BEF
:1024900082A3789408950F931F93CF93DF93CBE893
:1024A000D1E089918F3F11F00E94341281E0C03950
:1024B000D807B9F7CBE7D1E00BE811E089918F3F5E
:1024C00011F00E9434120C171D07C1F7DF91CF9154
:1024D0001F910F910895BF92CF92DF92EF92FF92DA
:1024E0000F931F93CF93DF938C01C62FD0E0CE01C3
:1024F00085579E4F6C01FC0190819F3F09F450C0AD
:10250000B62EF894E92FE295EF70F0E081A19F706C
:1025100021E030E001C0220F9A95EAF7822B81A3D7
:1025200082A12095282322A378940E942712EBE70A
:10253000F1E04BE851E021E030E0E12CF12C619139
:102540006F3F89F0A62FA295AF70B0E090968C9166
:1025500090E06F7002C0959587956A95E2F780FDCF
:1025600002C0C90102C080E090E0E82AF92A220FE7
:10257000331F4E175F0719F7F60180818F3F11F067
:102580000E94341261E0E114F10409F460E08B2D43
:102590000E942912CC0FDD1FC00FD11FF982E882E3
:1025A000DF91CF911F910F91FF90EF90DF90CF902F
:1025B000BF9008950E944B128AE0E8E5F2E0DF0147
:1025C000982F1D929A95E9F7EEE4F2E0DF011D9253
:1025D0008A95E9F785E00E943A130C948A03FF92EA
:1025E0000F931F93CF93DF93CDB7DEB72A970FB624
:1025F000F894DEBF0FBECDBF8E010F5F1F4F8AE084
:10260000F80111928A95E9F7F12C6F2DC8010E940B
:102610006B12F394F5E0FF12F8CF4AE050E0B801F6
:102620008EE492E00E949824FF24F394009709F42A
:10263000F12C892B41F08AE0F801AEE4B2E0019080
:102640000D928A95E1F72F2D45E068E572E08EE462
:1026500092E00E943B130E948C038F2D2A960FB6A6
:10266000F894DEBF0FBECDBFDF91CF911F910F91C8
:10267000FF9008950895FF920F931F93CF93DF93D8
:10268000F82E092F162FD72FC42F222349F081E0CF
:10269000809325020E94731C90932402809323024E
:1026A000809125028823D9F0809123029091240201
:1026B0000E948B1C059798F0EF2DF02FA12FBD2FB6
:1026C00080E090E04C2F50E08417950734F421917E
:1026D00031912D933D930196F7CF10922502DF9112
:1026E000CF911F910F91FF9008950E94A91E0E9403
:1026F0004C0F0C94B51E0E94B91E0E94F10F0C9451
:10270000D31E0E94111C0E94901E0E943A0F0E942C
:1027100075130E947B130E94440FFBCF80912C0203
:1027200080FF06C06091090170E0660F771F26C028
:1027300081FF04C06091090184E005C082FF07C0E9
:102740006091090188E0689FB001112417C0909141
:102750002B029923D1F060910801961788F72091F8
:10276000090188E0289F90011124929FA001939F66
:10277000500D112470E0CA010E9463246038710575
:1027800040F46115710519F406C068E070E0862F09
:1027900008958FE7089581E0089580912C0280FFCD
:1027A00008C06091050170E075956795759567950E
:1027B00021C081FF06C06091050170E075956795A5
:1027C00019C082FF04C06091050170E010C09091B3
:1027D0002A02992399F0609104019617A0F780913D
:1027E0000501899FC001112470E00E9463246038B4
:1027F000710540F46115710519F406C061E070E0DF
:10280000862F08958FE7089581E00895803F21F491
:102810000E948E13819504C0813F29F40E948E137B
:10282000809330020895823F21F40E948E13819597
:1028300004C0833F29F40E948E1380932F020895D1
:10284000893F19F40E94CD1305C08A3F31F40E94DC
:10285000CD1381958093310208958B3F21F40E941E
:10286000CD13819504C08C3F29F40E94CD13809331
:10287000320208959CE0980F953078F421E030E022
:10288000A90102C0440F551F9A95E2F7CA01909121
:102890002E02892B80932E0208958D3F21F4809182
:1028A0002C0281600BC08E3F21F480912C0282604B
:1028B00005C08F3F29F480912C02846080932C0204
:1028C0000895803F39F49091300297FF35C01092FF
:1028D000300259C0813F29F4909130021916BCF39F
:1028E0002BC090912F02823F29F497FF25C01092B0
:1028F0002F0249C0833F19F41916CCF31DC09091E3
:102900003102893F29F41916BCF4109231023BC000
:102910008A3F19F497FF10C0F8CF8B3F39F490919C
:10292000320297FF09C0109232022DC08C3F21F471
:10293000909132021916BCF39CE0980F953080F408
:1029400021E030E0A90102C0440F551F9A95E2F73B
:10295000CA01809590912E02892380932E0213C084
:102960008D3F21F480912C028E7F0BC08E3F21F48D
:1029700080912C028D7F05C08F3F29F480912C021D
:102980008B7F80932C0280912F02811106C0809151
:102990003002811102C010922B028091310281110C
:1029A00006C080913202811102C010922A0208955D
:1029B0000E94731C20912F02211104C0209130022B
:1029C000222321F090932902809328022091310242
:1029D000211104C020913202222321F0909327027A
:1029E000809326028DE292E00C94501BEF92FF92AE
:1029F0000F931F93CF93DF9300D000D000D0CDB7BB
:102A0000DEB786E0EDE2F2E0DE01119601900D9274
:102A10008A95E1F7E0902F02F090300200913102A8
:102A20001091320210922F02109230021092310255
:102A300010923202E11003C0FF2009F45DC08091C2
:102A40002802909129020E948B1CAC0190912B02CC
:102A5000992339F020910A0130E02417350758F006
:102A60004BC020910B018AE0289F9001112424176C
:102A7000350718F041C09F3F19F09F5F90932B02DC
:102A8000EE2061F00E948E131E1414F09FEF01C01F
:102A900091E0989F902D112490932F02FF2061F0D8
:102AA0000E948E131F1414F09FEF01C091E0989FB5
:102AB000902D11249093300230912F023323E1F0B6
:102AC000209130022223C1F045EB3403C0011124D0
:102AD000992319F090932F0203C081E080932F0275
:102AE00035EB2303C0011124992319F09093300290
:102AF00003C081E080933002011103C0112309F467
:102B00005DC080912602909127020E948B1CAC012F
:102B100090912A02992339F02091060130E0241780
:102B2000350758F04BC0209107018AE0289F90019B
:102B300011242417350718F041C09F3F19F09F5FFB
:102B400090932A02002361F00E94CD13101614F016
:102B50009FEF01C091E0989F902D11249093310236
:102B6000112361F00E94CD13111614F09FEF01C0E4
:102B700091E0989F902D1124909332023091310270
:102B80003323E1F0209132022223C1F045EB3403DC
:102B9000C0011124992319F09093310203C081E000
:102BA0008093310235EB2303C0011124992319F0DE
:102BB0009093320203C081E08093320280912F0211
:102BC00081110BC080913002811107C080913102C8
:102BD000811103C08091320281110E94D814EB82CE
:102BE000FC820D831E8386E0FE013196ADE2B2E0E9
:102BF00001900D928A95E1F726960FB6F894DEBF04
:102C00000FBECDBFDF91CF911F910F91FF90EF903D
:102C10000895EDE2F2E086E0DF011D928A95E9F782
:102C200010922B0210922A0210922C02089583E235
:102C300090E00E94A524823281F484E290E00E9418
:102C4000A524843051F485E290E00E94A52491E00F
:102C5000813009F090E0892F01C080E081700895F3
:102C6000CF93C82F811102C06FEF01C062E283E2EF
:102C700090E00E94B324C11102C06FEF01C064E074
:102C800084E290E00E94B324C11102C06FEF01C042
:102C900061E085E290E0CF910C94B324089586E240
:102CA00090E00E94A524682F70E080E090E00895F5
:102CB0000895CF93C62F0E9458166C2F86E290E09D
:102CC000CF910C94B32480E00E94301660E070E055
:102CD000CB010E9459160E94F2180E94D11981E07E
:102CE0000C9430160E944E160E944F160E945816E1
:102CF0000E941716811102C00C9463160895CF9399
:102D0000FB01C281CC23E9F09C0122513F452031D7
:102D1000310520F482510E94E1190CC08031FFE599
:102D20009F0751F481E00E945E0943E062E081E088
:102D30000E948103C0E018C081319F45A9F482E060
:102D4000F2CF8031EFE59E0711F481E004C08131BC
:102D50009F4549F482E00E94690943E062E081E016
:102D60000E94810301C0C1E08C2FCF9108952FEF05
:102D7000FC0120830895EF92FF920F931F93CF934E
:102D8000DF93EC01062FE8818E2F90E0FC01319754
:102D9000E331F10508F091C0EE59FF4F0C94772410
:102DA000198289E04DC08981823039F0833061F029
:102DB000813029F50E947F1C02C00E944F169A8321
:102DC0008B837C836D837BC07E0110E0812F0E940A
:102DD0001912F701928383831F5FF2E0EF0EF11C5B
:102DE0001530A1F76CC08981823049F46A817B81FA
:102DF0008C819D810E947D240E94591660C0602FA5
:102E0000CE010E94B7165BC04B816A8189810E9406
:102E1000C4189C838D8353C02C813D813227232786
:102E200032274B816A8189810E94DD1848C00E9447
:102E3000F21845C00E94841924C00E948619998303
:102E40008A833DC06B8170E089819A81AE014C5FBD
:102E50005F4F9827892798270E94891930C06B8176
:102E600070E089819A81AE014C5F5F4F9827892776
:102E700098270E94AE1923C00E94D11920C00E9439
:102E8000B11889831CC06B8170E089819A81AE0181
:102E90004C5F5F4F9827892798270E9431190FC0F0
:102EA0006B8170E089819A81AE014C5F5F4F9827FA
:102EB000892798270E94551902C08FEF8883602FB9
:102EC000CE01DF91CF911F910F91FF90EF900C9465
:102ED000651DCF93DF93EC01FB018281882309F408
:102EE0003CC1C330FDE5DF0760F4CA3F9CE5D9076C
:102EF00088F49E0122503C452431310508F02EC152
:102F000009C0C136EDE5DE0729F0C53AFDE5DF076A
:102F100009F024C10E94740E90934D0280934C02DC
:102F2000C1318CE5D80709F4C6C008F042C0C930E9
:102F3000ECE5DE0709F49BC000F5C5308CE5D80749
:102F400009F485C078F4C330ECE5DE0709F478C0F5
:102F500008F07AC0C230DC4509F0F5C080914C021F
:102F60008160EFC0C7309CE5D90709F478C008F04C
:102F70007AC080914C028061E4C0CD30FCE5DF076F
:102F800009F487C058F4CB309CE5D90709F479C01F
:102F900008F07BC080914C0288606FC0CF30FCE5A8
:102FA000DF0709F480C008F082C080914C02877F5F
:102FB000C8C0CD3F9CE5D90709F471C000F5C53103
:102FC000FCE5DF0709F485C068F4C3319CE5D90747
:102FD00009F475C008F095C00E94E80880914C0281
:102FE0008F77AFC0CB3FFCE5DF07A9F108F054C0F5
:102FF000CA3FDC4509F0A7C080914D0240C0C130F6
:10300000EDE5DE0709F489C058F4CF3F8CE5D80719
:1030100009F45AC008F069C080914D0282602FC047
:10302000C136EDE5DE0709F47CC0C53AFDE5DF07F2
:1030300009F481C0C230DD4509F085C080E06EC072
:1030400080914C0282607DC080914C0216C08091BC
:103050004C02886076C080914D0282604FC08091A2
:103060004C0280626EC080914C0280646AC00E94F3
:10307000E80880914C02806864C0846062C081600E
:103080003DC080914C028E7F5CC080914C028D7F50
:1030900058C080914C0216C080914D0218C080919A
:1030A0004D028D7F2BC080914C028F7E4AC0809153
:1030B0004C028F7D46C080914C028F7B42C0809134
:1030C0004C02877F8B7F3DC080914D028D7F8E7F2C
:1030D00015C080914C0282FB222720F991E09227B3
:1030E00090FB82F990FB83F92CC080914D02982FC0
:1030F000909591708E7F892B90FB81F980934D0282
:1031000022C00E94E80880914C0287FB222720F908
:1031100091E0922790FB87F914C081E00E940A0F8A
:1031200012C080914C0284FB222720F991E0922763
:1031300090FB84F906C080914C02982F909590FBEB
:1031400080F980934C0280914C0290914D020E9434
:10315000850E0E94E80880E001C081E0DF91CF91F8
:10316000089584E0089550E0440F551F20E2629FC7
:10317000400D511D11249A0160EA869F200D311DDA
:103180001124C901879608950F931F93CF93DF935E
:103190000E94B3188C010E94A524C82FD0E0DC2F18
:1031A000CC27C80101960E94A5249E01282BC901A5
:1031B000DF91CF911F910F9108950F931F93CF939C
:1031C000DF93122F032F0E94B318EC01602F0E948F
:1031D000B324612FCE010196DF91CF911F910F9102
:1031E0000C94B324AF92BF92CF92DF92EF92FF92F2
:1031F0000F931F93CF93DF93A12CE12CF12CB12CD3
:1032000000E010E0C0E0D0E06701C00ED11EF60182
:10321000EC0FFD1FEE0FFF1FE250FF4F2591349181
:103220004C2F6B2D8A2D0E94DD182196C031D105BF
:1032300071F7005F1F4FB39485E0B812E3CF80E5CC
:10324000E80EF11CA39484E0A812D9CFDF91CF91AE
:103250001F910F91FF90EF90DF90CF90BF90AF90B4
:103260000895EF92FF920F931F93CF93DF93EA019C
:103270007A01E60EF71E8C01C8018796CE15DF0590
:1032800069F0003822E0120720F40E94A524888308
:1032900001C0188221960F5F1F4FEECFDF91CF91B3
:1032A0001F910F91FF90EF900895EF92FF920F936F
:1032B0001F93CF93DF93EA017A01E60EF71E8C018C
:1032C000C8018796CE15DF0559F0003822E01207B5
:1032D00018F468810E94B32421960F5F1F4FF0CF2E
:1032E000DF91CF911F910F91FF90EF900895462F9E
:1032F000843038F4753028F4603118F4672F0C945A
:10330000C41880E090E0089580E1089589E591E097
:103310000895EF92FF920F931F93CF93DF93EA01EB
:103320007A01E60EF71E8C01C80189559D4FCE1516
:10333000DF0569F0093521E0120720F40E94A52479
:10334000888301C0188221960F5F1F4FEDCFDF9158
:10335000CF911F910F91FF90EF900895EF92FF9200
:103360000F931F93CF93DF93EA017A01E60EF71EC6
:103370008C01C80189559D4FCE15DF0559F00935DF
:1033800021E0120718F468810E94B32421960F5F90
:103390001F4FEFCFDF91CF911F910F91FF90EF90D3
:1033A0000895CF93DF93C7EAD2E060E0CE010E9498
:1033B000B3242196C11584E0D807B9F7DF91CF91E6
:1033C0000895DF92EF92FF920F931F93CF93DF93B5
:1033D00000D000D0CDB7DEB7F82E8FE08F15E8F122
:1033E0008FEF93E00E94A524811137C007EA12E015
:1033F000FF2069F0011584E0180779F1C8010E94E7
:10340000A524811101C0FA940F5F1F4FF1CF1982DB
:103410001A821B821C82DD24D39478018FEFE81A74
:10342000F80AC8010E94A52489831A828823A9F07A
:103430009FEF980F933058F48A83D9820E5F1F4F05
:10344000C7010E94A5248B83882339F07801CE011F
:1034500001960E94CE048701E0CF0F900F900F904D
:103460000F90DF91CF911F910F91FF90EF90DF9020
:103470000895CF93DF9386319C4541F5EB010E947F
:10348000780D982F8A8120910201309103018823C1
:1034900079F09A7A81E009F480E080933302911107
:1034A00002C069E201C065E3C9010E94CC1B0AC0E9
:1034B00080913302811102C069E201C065E3C90154
:1034C0000E94CE1B0E94BA0D80E001C081E0DF9116
:1034D000CF9108950F931F93CF93DF93C42FD22FD3
:1034E000FC0182818823C9F0409336020E94731C3C
:1034F000909335028093340280E28C0F883008F07C
:1035000057C0C77081E001C0880FCA95EAF7DF9104
:10351000CF911F910F910C9476068091360248133B
:1035200030C080913402909135020E948B1C883CFF
:10353000910538F510E21D0FCD17B9F080E28C0F20
:10354000883040F4C77081E001C0880FCA95EAF75F
:103550000E947D06183028F581E09D2F977001C0EC
:10356000880F9A95EAF70E947606802F0E946D06D2
:103570001830F0F4D77081E001C0880FDA95EAF7CF
:103580000AC080E28C0F883098F4C77081E001C0D7
:10359000880FCA95EAF7DF91CF911F910F910C9494
:1035A0007D06802FDF91CF911F910F910C946D06B6
:1035B000DF91CF911F910F9108950F939C01CB0143
:1035C000233F4CE5340731F188F4283DFCE53F0703
:1035D000D9F0293D4CE5340779F1273D3C45A9F563
:1035E00006E221EE41EE67ED7CE52BC0253FFCE5D0
:1035F0003F07E1F0A8F0263F3C4539F507E225EE0C
:1036000046EE66EF7CE51DC007E225EE45EE68ED6F
:103610007CE517C006E221EE40EE63EF7CE511C0C9
:1036200007E225EE44EE64EF7CE50BC006E221EEF6
:1036300042EE65EF7CE505C008E221E045EE69ED6C
:103640007CE50E946A1A80E008C0FC018281882320
:1036500019F01092360201C081E00F910895909305
:10366000A1018093A001089590933C0280933B02B6
:103670000895E0913B02F0913C02309721F00190D7
:10368000F081E02D099480E00895E0913B02F091F3
:103690003C02309721F00280F381E02D09940895D7
:1036A000E0913B02F0913C02309739F022E0DC01DE
:1036B0002C930480F581E02D09940895209139021E
:1036C00030913A022817390771F090933A028093AB
:1036D0003902E0913B02F0913C02309721F00680E4
:1036E000F781E02D09940895209137023091380236
:1036F0002817390771F09093380280933702E091D0
:103700003B02F0913C02309721F00084F185E02DDE
:1037100009940895FC01329697E080E0915029F0D9
:1037200021912223D9F38F5FF9CF0895662349F0C1
:10373000FC01329608962191621729F0E817F907E3
:10374000D1F780E0089581E008959C01FC01329654
:103750009FEF80E04191461789F09F3F19F4411196
:1037600001C0982F8F5F8630A9F79F3F39F0F9018C
:10377000E90FF11D97FDFA956283089508959C0164
:103780002A5F3F4FFC014281461301C0128201961D
:1037900082179307B9F708950C94A51B0C94BF1BCF
:1037A000029626E0FC0111922A95E9F70895089502
:1037B0000C94D71B83E080933D020C94D81B81119D
:1037C00002C081E001C082E080933D020C94D81BCE
:1037D0000C94DF1B81E080933D020C94D81B0C9469
:1037E000EA1B08950C94F11B0C94F21B0C94F11B32
:1037F0000C94F11B0C94F11BCF930E94F81B0E94B8
:10380000EF120E94F61BC0E08C2F0E941912892B28
:1038100029F4CF5FC530C1F780E001C081E0CF91CE
:10382000089508951F920F920FB60F9211248F934F
:103830009F93AF93BF9380913E02811113C08091FB
:10384000620290916302A0916402B0916502419678
:10385000A11DB11D8093620290936302A093640244
:10386000B0936502BF91AF919F918F910F900FBE62
:103870000F901F90189580916A02843031F10E9458
:10388000F70310923E0220E488E190E00FB6F8942E
:10389000A895809360000FBE2093600083B7817F5E
:1038A000846083BF83B7816083BF7894889583B732
:1038B0008E7F83BF0FB6F894A895809160008861D1
:1038C00080936000109260000FBE08950E94E80887
:1038D0000C94FB0382E084BD93E095BD9AEF97BD05
:1038E00080936E0008952FB7F894809162029091B2
:1038F0006302A0916402B09165022FBF08952FB7B3
:10390000F8946091620270916302809164029091D8
:1039100065022FBF08959C014FB7F8948091620211
:1039200090916302A0916402B09165024FBF821B27
:10393000930B089578941F920F920FB60F92112453
:103940008F939F93AF93BF93809162029091630294
:10395000A0916402B09165020196A11DB11D8093F2
:10396000620290936302A0936402B0936502BF91D8
:10397000AF919F918F910F900FBE0F901F90189550
:1039800081E08093E00080E28093D8001092C9002B
:103990008FE19EE40197F1F700C0000087E090EB13
:1039A000DC018093730290937402A0937502B0932C
:1039B00076029CE088E10FB6F894A89580936000A9
:1039C0000FBE90936000FFCF80914A020895089542
:1039D00024E02093E9002FEF3091E800215035FDDD
:1039E00006C035ED3A95F1F700002111F5CF209191
:1039F000E80025FF0BC040E050E066E070E00E9468
:103A00007A1F8091E8008E778093E8000895CF9325
:103A1000DF9321E02093E9002FEF3091E80021505F
:103A200035FD06C035ED3A95F1F700002111F5CFCF
:103A30002091E80025FF14C0EC0140E050E068E070
:103A400070E00E947A1F8091E8008E778093E800F2
:103A500088E0FE01A2E4B2E001900D928A95E1F7C0
:103A6000DF91CF91089580933F027093410260935C
:103A7000400280916A028430F9F48093E9008FEF6C
:103A80009091E800815095FD06C095ED9A95F1F76B
:103A900000008111F5CF8091E80085FF0DC040E066
:103AA00050E063E070E08FE392E00E947A1F809123
:103AB000E8008E778093E8000895BC0184E00C94C0
:103AC000331DBC0183E00C94331DCF93603219F594
:103AD00020916A022430F9F4C091E900CF7030914E
:103AE000EC00232F217030FD20E8C22B22E0209330
:103AF000E9002091E80020FF0BC040E050E060E2C8
:103B000070E00E947A1F8091E8008E778093E80031
:103B1000CF70C093E900CF9108958091690281111F
:103B200009C00E9456210E94B3218091E200846066
:103B30008093E20008951092690208950C94EF1B9F
:103B40006091660281E0611101C080E00C94DA1B93
:103B500090916A0281E0943009F080E06091660201
:103B60000C94DF1B42E061EC81E00E94CF2042E236
:103B700061EC84E00E94CF2042E261EC82E00E948E
:103B8000CF2042E260EC83E00E94CF2090916A0255
:103B900081E0943009F080E0609166020C94E81BAB
:103BA00080916C02833009F463C030F4813071F08D
:103BB000823009F49CC008958A3009F488C08B30A3
:103BC00009F46EC0893009F0AAC020C080916B0250
:103BD000813A09F0A4C08091E800877F8093E800D3
:103BE00080916F0290917002892B21F468E082E449
:103BF00092E003C060E080E090E070E00E9410205E
:103C00008091E8008B778093E800089580916B02A3
:103C1000813209F084C080916F0290917002009708
:103C200019F0029709F07BC08091E800877F8093AC
:103C3000E8008091E80082FD05C080916A02811150
:103C4000F8CF6DC02091F3008091F20090E0922BAC
:103C5000029731F48091F100813011F0863021F427
:103C60008091F10080934A028091E8008B7753C0E5
:103C700080916B02813A09F052C080916F0290915D
:103C80007002892B09F04BC08091E800877F8093F8
:103C9000E8008091E80080FFFCCF8091180136C0D9
:103CA00080916B028132D9F580916F029091700200
:103CB000892BA9F58091E800877F8093E8000E9416
:103CC000042180916D02809318010C94E808809182
:103CD0006B02813221F58091E800877F8093E800B4
:103CE0000E94042180916E0280934B02089580917E
:103CF0006B02813AA1F48091E800877F8093E8000D
:103D00008091E80080FFFCCF80914B028093F1000E
:103D10008091E8008E778093E8000C940421089548
:103D200084B7877F84BF0FB6F894A8958091600010
:103D3000886180936000109260000FBE90E080E880
:103D40000FB6F89480936100909361000FBE0C94BD
:103D5000EA1B0E9456210E94B321E2EEF0E080812E
:103D60008460808378940C9448248CE091E00C94D7
:103D7000341B80916A028530A9F480916A028530F3
:103D800079F40E943B1C809168028823B1F30E9461
:103D9000FC1B882391F30E94641F0E94E808EDCF6A
:103DA0000C94661C0895CF93DF93CDB7DEB7A09730
:103DB0000FB6F894DEBF0FBECDBF80916A0284308B
:103DC00011F583E08093E9008091E80082FF1BC039
:103DD0008091E80085FF0AC040E050E060E270E0BA
:103DE000CE0101960E94C51F91E001C090E0809134
:103DF000E8008B778093E800992329F060E2CE01F8
:103E000001960E94BB16A0960FB6F894DEBF0FBEB7
:103E1000CDBFDF91CF9108950C940E1F292F33272A
:103E200023303105C9F060F42130310581F02230B2
:103E3000310509F041C08BE590E024E634E040C054
:103E400021323105E1F02232310531F135C082E114
:103E500090E02FEB34E034C099278130910549F090
:103E600028F0029749F5EEE2F4E005C0E0E6F4E060
:103E700002C0EAE3F4E0849190E09F0121C0633046
:103E80007105D0F4660F771FFB01E756FE4F2081C6
:103E9000318189E090E014C06330710568F4FB0162
:103EA000EE0FFF1FED56FE4F20813181FB01E057E1
:103EB000FE4F808190E004C080E090E020E030E0A0
:103EC000FA0131832083089580E189BD82E189BDB3
:103ED00009B400FEFDCF8091D8008F7D8093D8007B
:103EE0008091E00082608093E0008091E00081FD9D
:103EF000FCCF0895CF92DF92EF92FF920F931F9322
:103F0000CF93DF93EC018B017A010E942321811171
:103F100033C0E114F10439F0F70180819181081B6D
:103F2000190BC80FD91FC12CD12C0115110519F17E
:103F30008091E80085FD16C08091E8008E7780931F
:103F4000E800E114F10449F0F70180819181C80E85
:103F5000D91ED182C08285E00FC00E942321882310
:103F600021F30AC089918093F10001501109FFEFFC
:103F7000CF1ADF0ADACF80E0DF91CF911F910F9146
:103F8000FF90EF90DF90CF900895CF92DF92EF9265
:103F9000FF920F931F93CF93DF93EC018B017A0174
:103FA0000E942321811133C0E114F10439F0F7019B
:103FB00080819181081B190BC80FD91FC12CD12CEE
:103FC0000115110519F18091E80085FD16C0809159
:103FD000E8008B778093E800E114F10449F0F701E1
:103FE00080819181C80ED91ED182C08285E00FC028
:103FF0000E942321882321F30AC08091F100899334
:1040000001501109FFEFCF1ADF0ADACF80E0DF910C
:10401000CF911F910F91FF90EF90DF90CF90089577
:1040200020917102309172022617370748F061150E
:10403000710539F42091E8002E772093E80001C043
:10404000B901FC0120E06115710579F180916A02E6
:104050008823F1F18530F1F18091E80083FD3CC0C7
:104060008091E80082FD2EC08091E80080FFEBCFB8
:104070002091F3008091F20090E0922B6115710580
:1040800051F08830910538F421912093F10061506E
:1040900071090196F3CF21E0089709F020E08091A3
:1040A000E8008E778093E800CECF2111CFCF0AC0F1
:1040B00080916A02882361F0853061F08091E80088
:1040C00083FD0AC08091E80082FFF2CF80E008956E
:1040D00082E0089583E0089581E0089520917102BF
:1040E000309172022617370748F06115710539F4CF
:1040F0002091E8002E772093E80001C0B901FC016F
:1041000020E06115710591F180916A02882309F41C
:1041100040C0853009F43FC08091E80083FD3DC078
:104120008091E80082FD2FC08091E80080FFE9CFF8
:104130002091F3008091F20090E0922B61157105BF
:1041400059F08830910540F424912093F100319684
:10415000615071090196F2CF21E0089709F020E043
:104160008091E8008E778093E800CBCF2111CCCFEF
:104170000AC080916A02882361F0853061F08091E5
:10418000E80083FD0AC08091E80082FFF2CF80E062
:10419000089582E0089583E0089581E00895982FBE
:1041A000973068F59093E900981739F07091EC001A
:1041B0002091ED005091F00003C0242F762F50E0A5
:1041C00021FD02C09F5FECCF3091EB003E7F30932A
:1041D000EB003091ED003D7F3093ED003091EB002E
:1041E00031603093EB007093EC002093ED0050931E
:1041F000F0002091EE0027FDE5CF80E008958F705C
:104200008093E90081E0089580916B0287FF11C0DF
:104210008091E80082FD05C080916A028111F8CF8B
:1042200011C08091E8008B770BC080916A028823CF
:1042300049F08091E80080FFF8CF8091E8008E7708
:104240008093E80008952091E4003091E50095E620
:104250004091EC00842F817040FF23C08091E800E2
:1042600080FD1DC080916A02882399F0853099F005
:104270008091EB0085FD11C04091E4005091E50074
:104280002417350729F3915011F09A01E1CF84E00A
:10429000089582E0089583E0089581E0089580E024
:1042A00008954091E80042FFDDCF08950E94C421A7
:1042B0000E94CC21E0EEF0E0808181608083E8ED17
:1042C000F0E080818F77808319BCA7EDB0E08C91FE
:1042D0008E7F8C9380818F7E8083109269020895F7
:1042E0000F931F93CF93DF930E94C4210E94CC2190
:1042F000C8EDD0E088818F77888388818068888343
:1043000088818F7D888319BC10926A0210926602A0
:10431000109268021092670200EE10E0F8018081AE
:104320008B7F808388818160888342E060E080E0C9
:104330000E94CF20E1EEF0E080818E7F8083E2EE6C
:10434000F0E0808181608083808188608083F801D3
:1043500080818E7F8083888180618883DF91CF9187
:104360001F910F910895E8EDF0E080818F7E8083AA
:10437000E7EDF0E080818160808384E082BF81E0AE
:10438000809369020C947021E8EDF0E080818E7FCB
:1043900080831092E20008951092DA001092E100FA
:1043A00008951F920F920FB60F9211242F933F93EF
:1043B0004F935F936F937F938F939F93AF93BF932D
:1043C000EF93FF938091E10082FF0BC08091E200A8
:1043D00082FF07C08091E1008B7F8093E1000E9403
:1043E00047248091DA0080FF1FC08091D80080FFB1
:1043F0001BC08091DA008E7F8093DA008091D90013
:1044000080FF0DC080E189BD82E189BD09B400FE55
:10441000FDCF81E080936A020E948D1D05C019BC0A
:1044200010926A020E949B1D8091E10080FF19C0DA
:104430008091E20080FF15C08091E2008E7F809322
:10444000E2008091E20080618093E2008091D800D8
:1044500080628093D80019BC85E080936A020E9434
:10446000A01D8091E10084FF30C08091E20084FFB4
:104470002CC080E189BD82E189BD09B400FEFDCF79
:104480008091D8008F7D8093D8008091E1008F7E4D
:104490008093E1008091E2008F7E8093E200809122
:1044A000E20081608093E20080916602882311F02F
:1044B00084E007C08091E30087FD02C081E001C075
:1044C00083E080936A020E94A81D8091E10083FF2F
:1044D00029C08091E20083FF25C08091E100877FA1
:1044E0008093E10082E080936A02109266028091DC
:1044F000E1008E7F8093E1008091E2008E7F8093C7
:10450000E2008091E20080618093E20042E060E09E
:1045100080E00E94CF208091F00088608093F000BE
:104520000E949E1DFF91EF91BF91AF919F918F913E
:104530007F916F915F914F913F912F910F900FBE9F
:104540000F901F9018951F920F920FB60F92112483
:104550002F933F934F935F936F937F938F939F938B
:10456000AF93BF93CF93DF93EF93FF93C091E90095
:10457000CF708091EC00D82FD17080FDD0E81092E0
:10458000E9008091F000877F8093F00078940E948A
:10459000E7221092E9008091F00088608093F0009B
:1045A000CD2BCF70C093E900FF91EF91DF91CF91B8
:1045B000BF91AF919F918F917F916F915F914F913B
:1045C0003F912F910F900FBE0F901F9018951F9342
:1045D000CF93DF93CDB7DEB7AA970FB6F894DEBFBF
:1045E0000FBECDBFEBE6F2E08091F100819322E0B7
:1045F000E337F207C9F70E94D01D8091E80083FFDE
:104600002EC180916B0290916C02492F50E04A308C
:10461000510508F024C1FA01EB58FF4F0C947724A0
:10462000803821F0823809F01AC108C080916702F1
:1046300090916802992389F082600FC080916F0287
:104640008F70873008F00BC18093E9008091EB00F8
:1046500085FB882780F91092E9009091E800977F08
:104660009093E8008093F1001092F100D1C0282FC0
:104670002D7F09F0F4C0882319F0823061F0EFC07B
:1046800080916D02813009F0EAC0933009F080E03A
:10469000809368022EC080916D0281112AC08091A2
:1046A0006F028F702FEF280F263008F0D8C080934C
:1046B000E9002091EB0020FF1CC0933021F4809191
:1046C000EB00806214C09091EB0090619093EB003E
:1046D00021E030E0A90102C0440F551F8A95E2F79E
:1046E0004093EA001092EA008091EB00886080938A
:1046F000EB001092E9008091E800877F8093E8004A
:104700000E940421ACC08111AAC010916D021F77D4
:104710008091E3008078812B8093E3008091E80012
:10472000877F8093E8000E9404218091E80080FF49
:10473000FCCF8091E30080688093E300111102C0F8
:1047400082E001C083E080936A0289C08058823091
:1047500008F085C080916D0290916E028C3D53E00F
:10476000950779F583E08A838AE289834FB7F894C5
:10477000DE01139620E03EE051E2E32FF0E050939B
:104780005700E49120FF03C0E295EF703F5FEF70A8
:104790008E2F90E0EA3010F0C79601C0C0968D933E
:1047A0009D932F5F243149F74FBF8091E800877FA9
:1047B0008093E8006AE270E0CE0101960E9410202A
:1047C00016C060916F0270917002AE014F5F5F4F33
:1047D0000E940C1FBC01892B09F441C09091E80094
:1047E000977F9093E80089819A810E946E20809142
:1047F000E8008B778093E80032C0803881F58091A3
:10480000E800877F8093E800809166028093F10042
:104810008091E8008E7772CF811121C080916D0266
:1048200090916E0299270297D4F48091E800877FD7
:104830008093E80080916D02809366020E940421BB
:1048400080916602811106C08091E30087FD02C05D
:1048500081E001C084E080936A020E94B21D8091D1
:10486000E80083FF0AC08091E800877F8093E8001A
:104870008091EB0080628093EB00AA960FB6F894CB
:10488000DEBF0FBECDBFDF91CF911F910895089578
:10489000CF9380916A028823A1F0C091E900CF7084
:1048A0009091EC00892F817090FD80E8C82B1092C8
:1048B000E9008091E80083FD0E94E722CF70C09359
:1048C000E900CF91089597FB072E16F4009407D0C6
:1048D00077FD09D00E94842407FC05D03EF4909512
:1048E00081959F4F0895709561957F4F0895EE0FC4
:1048F000FF1F0590F491E02D0994692796276927F9
:104900007827872778270895AA1BBB1B51E107C08A
:10491000AA1FBB1FA617B70710F0A61BB70B881F4F
:10492000991F5A95A9F780959095BC01CD010895DE
:10493000FB01DC0104C08D910190801921F44150EC
:104940005040C8F7881B990B0895F999FECF92BD86
:1049500081BDF89A992780B50895A8E1B0E042E0BA
:1049600050E00C94D924262FF999FECF92BD81BD39
:10497000F89A019700B4021639F01FBA20BD0FB69D
:10498000F894FA9AF99A0FBE08950396272F0E9479
:10499000B4240E94B324252F0E94B424242F0C9405
:1049A000B4240196272F0E94B4240C94B324DC0174
:1049B000CB01FC01F999FECF06C0F2BDE1BDF89A2A
:1049C000319600B40D9241505040B8F70895F894D4
:0249D000FFCF17
:1049D200C8000602280850011E0A1401E41C071D23
:1049E200E81C611D5D1DE71C01E200E900EA00B55B
:1049F20000B600B700CD008301CC008A0192019479
:104A0200012102230224022502260227022A02B3DE
:104A120000B4006F007000818283E200E900EA00C6
:104A2200B500B600B700CD008301CC008A01920127
:104A320094012102230224022502260227022A02CD
:104A4200B300B4006F007000818283F0F1F4F5F6D8
:104A5200F7676636353497C6323130909192939526
:104A620040227B6E05D104F30476048F04AF040068
:00000001FF
