:100000000C9429040C9461040C9461040C94610414
:100010000C9461040C9461040C9461040C946104CC
:100020000C9461040C9461040C94BD2D0C948C2EE2
:100030000C94EA270C9461040C9461040C94610400
:100040000C9461040C9461040C9461040C9461049C
:100050000C9461040C9472280C9461040C94610457
:100060000C9461040C9461040C9461040C9461047C
:100070000C9461040C9461040C9461040C9461046C
:100080000C9461040C9461040C9461040C9461045C
:100090000C9461040C9461040C9461040C9461044C
:1000A0000C9461040C9461040C9461041D081D08F7
:1000B00049084908B108CF08B609B609DA08420963
:1000C00053095309DE20E120012112211A212521A3
:1000D00028212B212E217421742131213421392111
:1000E0004621532156215A21672163235923662330
:1000F000B623BA23BA23B623BA23BA238723BA2353
:1001000091239B23BA23BA23BA23BA23B623BA2353
:10011000BA23B623BA237423BA23BA23AB23AB235F
:10012000AB23AB23AB23AB23AB23AB23AB23B82352
:10013000BA2363235623BA23BA23BA23BA23BA2392
:10014000BA23BA23BA23BA23BA23B823BA23BA23C9
:10015000B623BA23A923A923A923A923A923A92321
:10016000A923A923A923B823F92E202F1830202F43
:1001700018306C2F8F2F1830E62FF52F165C1E00CD
:100180001F0020002100220023002400250026005B
:1001900027002D002E002A002B0014001A00080052
:1001A000150017001C0018000C00120013002F008F
:1001B00030003100390004001600070009000A0071
:1001C0000B000D000E000F0033003400000028006B
:1001D000E1001D001B0006001900050011001000C1
:1001E0003600370038000000E5000000E000E300C2
:1001F000E200000000002C00000000000000E6000B
:10020000E70000000151E400165C3A003B003C00AE
:100210003D003E003F0040004100420043004400DA
:1002200045004C000100C25CC35CC55CC65CC75C99
:10023000C85CC95CCA5C0100460047004800005C1D
:100240000100CB5CCC5C0100010001000100010059
:100250000100010001000100000001000100010097
:100260000100010001000100145C01000100010017
:100270000100000001000000010001000100000079
:10028000000001000000000000000100010000006B
:100290000100010001000100010001000100010056
:1002A0000100010001000100010001000100010046
:1002B0000100010001000100010001000100010036
:1002C0000100010001000100010001000100010026
:1002D0000100010001000100010001000100010016
:1002E0000100010000000100010001000100010007
:1002F00001000100010001000100010001000000F7
:1003000001000000010001000100000000000100E8
:1003100000000000000001000100000001000100D9
:1003200001000100010001000100010001000100C5
:1003300001000100010001000100010001000100B5
:1003400001000100010001000100010001000100A5
:100350000100010001000100010001000100010095
:100360000100010001000100010001000100010085
:100370000000010001000100010001000100010076
:100380000100010001000100010000000100000067
:100390000100010001000000000001000000000059
:1003A0000000010001000000010001000000000049
:1003B000000000002A2B28000000000000000000C0
:1003C0000000000000000029000000002C1E342066
:1003D000212224342627252E362D3738271E1F208C
:1003E0002122232425263333362E37381F040506D1
:1003F0000708090A0B0C0D0E0F1011121314151615
:100400001718191A1B1C1D2F3130232D3504050612
:100410000708090A0B0C0D0E0F10111213141516F4
:100420001718191A1B1C1D2F3130354C0000000005
:1004300000000000000000000000000000000000BC
:1004400000000000000000000000000000000000AC
:100450007E0F00D4FFFFFFC7000000781E0F0500CD
:10046000047F3F1F643214643214783C1E1E140A49
:10047000052223252628292A2C2D2F3032333536E4
:10048000383A3B3D3E4042434547494A4C4E505125
:10049000535557595A5C5E6062646668696B6D6F4C
:1004A00071737577797B7D7F81838587898A8C8E4F
:1004B00090929496989A9C9E9FA1A3A5A7A8AAAC57
:1004C000AEAFB1B3B4B6B8B9BBBCBEBFC1C2C3C591
:1004D000C6C7C9CACBCCCDCED0D1D2D2D3D4D5D633
:1004E000D7D7D8D9D9DADADBDBDBDCDCDCDCDCDD66
:1004F000DDDDDDDCDCDCDCDCDBDBDBDADAD9D9D84A
:10050000D7D7D6D5D4D3D2D2D1D0CECDCCCBCAC9E1
:10051000C7C6C5C3C2C1BFBEBCBBB9B8B6B4B3B110
:10052000AFAEACAAA8A7A5A3A19F9E9C9A989694AB
:1005300092908E8C8A89878583817F7D7B79777580
:1005400073716F6D6B6968666462605E5C5A59575F
:10055000555351504E4C4A4947454342403E3D3B1E
:100560003A3836353332302F2D2C2A2928262523A8
:1005700022FFAA7F55400001010101010101010193
:100580000202020202020202020303030303030344
:100590000304040404040404050505050506060611
:1005A0000606070707070708080808090909090ACE
:1005B0000A0A0B0B0B0C0C0C0D0D0D0E0E0E0F0F73
:1005C0000F10101111111212131314141515161601
:1005D0001717181819191A1A1B1B1C1D1D1E1E1F70
:1005E0002020212222232424252626272829292ABF
:1005F0002B2C2D2D2E2F30313232333435363738E7
:10060000393A3B3C3D3E3F404142434445464748E2
:10061000494A4C4D4E4F50515354555658595A5BB8
:100620005D5E5F616264656668696B6C6D6F707258
:10063000737577787A7B7D7E8082838587888A8CC4
:100640008E8F91939596989A9C9EA0A2A3A5A7A9F8
:10065000ABADAFB1B3B5B7BABCBEC0C2C4C6C9CBEF
:10066000CDCFD1D4D6D8DBDDDFE2E4E7E9EBEEF0A5
:10067000F3F5F8FAFDFF1C034D004B003600310086
:100680002D005200470042002D0041004E00530053
:100690004900000032034D006500630068006100FE
:1006A0006E006900630061006C0020004B00650073
:1006B000790062006F006100720064007300200026
:1006C0004C004C00430000000403090409025B00D5
:1006D000030100A0FA09040000010301010009213F
:1006E00011010001224000070581030800010904EF
:1006F0000100020300000009211101000122220073
:1007000007058203200001070503032000010904F7
:100710000200010300000009211101000122B600BE
:100720000705840320000112010002000000087484
:100730007011100100010200010660FF0961A101B2
:100740000962150026FF00952075088102096315CE
:100750000026FF00952075089102C005010902A13D
:100760000185020901A100050919012908150025C3
:1007700001950875018102050109300931158125AE
:100780007F95027508810609381581257F950175C9
:10079000088106050C0A38021581257F9501750828
:1007A0008106C0C005010980A101850319012AB78E
:1007B00000150126B700950175108100C0050C09D0
:1007C00001A101850419012AA002150126A00295A4
:1007D0000175108100C005010906A1018506050704
:1007E00019E029E715002501950875018102050723
:1007F000190029EF1500250195F075018102050802
:10080000190129059505750191029501750391015D
:10081000C005010906A101050719E029E715002512
:100820000195087501810295017508810105071977
:100830000029FF150026FF009506750881000508B0
:10084000190129059505750191029501750391011D
:10085000C00011241FBECFEFDAE0DEBFCDBF04B66B
:1008600003FE18C080910D0590910E05A0910F0513
:10087000B09110058730904BA740B04B59F41092BF
:100880000D0510920E0510920F0510921005E0E074
:10089000F8E3099511E0A0E0B1E0EEE7F3E602C06D
:1008A00005900D92A03EB107D9F725E0A0EEB1E08A
:1008B00001C01D92AD30B207E1F70E94E3140C9421
:1008C000BD310C94000081E0089581E008950C94FE
:1008D000650408950C9469041F93CF93DF9300D0AF
:1008E00000D01F92CDB7DEB749835A836B83309116
:1008F000E30189819A81311114C0662359F02223C2
:1009000049F00E94450B182F682F89819A810E9417
:10091000EE0A03C00E94190B182F69817A81812F7A
:1009200004C00E94450B69817A810F900F900F904F
:100930000F900F90DF91CF911F910C94CF24FC0169
:10094000262F408151816281738184810C946C04D3
:1009500081E00895CF93DF93EC0160E00E949F0453
:10096000BE01DF91CF910C946A04E1E0F0E0DF0179
:1009700002C0AA0FBB1F6A95E2F7BD01DF0102C0EA
:10098000AA0FBB1F4A95E2F7AD01462B01C0EE0F3F
:100990002A95EAF7942F9823491302C08E2B0895C5
:1009A000E0958E230895242F462F682F8091FF0114
:1009B0000E94B5040C94AB0A0C9494130C949013FD
:1009C00008950E94460A0E94E0042FE78AE196E01B
:1009D000215080409040E1F700C000000C9498281E
:1009E0000F931F93CF93DF938C0161E00E949F04CC
:1009F000EC01B8010E943620882309F44BC0B801ED
:100A0000CE010E946704882309F444C0B801CE01D6
:100A10000E9435268823F1F1B801CE010E94802181
:100A20008823C1F1B801CE010E949125882391F15C
:100A3000B801CE010E94DB1E882361F1F80182819A
:100A4000882309F1CA358DE5D807C1F050F4C115E6
:100A5000FCE5DF0781F0CE3DDC45A9F40E9466107D
:100A600019C0CB35EDE5DE0761F0CC35DD4559F435
:100A70000E94AA0F08C00E94E1040CC00E94B30F9C
:100A800002C00E94B60FC801DF91CF911F910F9154
:100A90000C94630480E0DF91CF911F910F91089532
:100AA0000E94CC270C943B060E943E060C94D22751
:100AB000DF92EF92FF920F931F93CF93DF93E82F74
:100AC000F0E0E455FC4FD490282F269526952695E6
:100AD00030E0F901E45BFB4F0491877010E0082ED1
:100AE00002C0159507950A94E2F701701127F901E4
:100AF000E45CFB4FE490F12C082E02C0F594E794DF
:100B00000A94E2F791E0E922FF24F901E45DFB4F4A
:100B1000C491D0E002C0D595C7958A95E2F7C1701F
:100B2000DD270115110519F081EE0E949D06E114E3
:100B3000F10419F086EE0E949D068D2D0E94CB07D0
:100B4000EF2819F086EE0E944C07012B19F081EE78
:100B50000E944C07CD2B51F08CE2DF91CF911F9179
:100B60000F91FF90EF90DF900C94CB07DF91CF9126
:100B70001F910F91FF90EF90DF900895EF92FF92F9
:100B80000F931F93CF93DF93EC01162F0AE0888118
:100B9000882309F455C0813009F043C08981813030
:100BA00041F47E0182E0E80EF11C8A810E94CB07AD
:100BB00009C0823049F47E01E2E0EE0EF11C8A8128
:100BC0000E949D06E7012FC0833041F47E01F2E0D0
:100BD000EF0EF11C8A810E944C07F4CF843011F093
:100BE000219621C02A81229680E090E030E02053B7
:100BF00031092A30310558F4089FA001099F500D92
:100C00001124C901840F951F21962881EFCF0097E9
:100C100051F0EFECF7E03197F1F700C000000197D9
:100C2000F6CF0E9458052196812F882309F4AFCF73
:100C3000EFECF7E03197F1F700C000008150F5CFFD
:100C4000DF91CF911F910F91FF90EF90089560E099
:100C50000C94BE0508950C942A0681E008950C9426
:100C60002D060895CF93C82F0E942B068C2F0E942B
:100C70002F06CF91089580E00C9432060E949126B1
:100C80000C9432060E9491269091E201891721F07E
:100C90008093E2010C9432060895CF93DF93CDB791
:100CA000DEB72B970FB6F894DEBF0FBECDBF4F83D4
:100CB000588769877A878B8761110E94F60E9E019B
:100CC0002F5F3F4F86E0F90111928A95E9F785E0A1
:100CD000FE013796D90101900D928A95E1F789813D
:100CE0009A814C815D81452B31F09F3F31F491E039
:100CF0008F3F19F403C091E001C090E090FF09C05C
:100D000049815A816B817C818D819E810E94170E61
:100D100005C0C9010E94A8048111F2CF2B960FB61D
:100D2000F894DEBF0FBECDBFDF91CF910895FC01D7
:100D3000808191810E94720B0895CF93882309F4DA
:100D4000A9C0C82F8238C1F40E94912681FDA2C09B
:100D500069E380910601909107010E9487270E9414
:100D6000180F2FEF80E792E0215080409040E1F78C
:100D700000C0000069E319C0833801F50E94912684
:100D800080FD88C063E580910601909107010E9473
:100D900087270E94180F2FEF80E792E021508040B4
:100DA0009040E1F700C0000063E58091060190915A
:100DB00007010E949227CF910C94180F8438C1F438
:100DC0000E94912682FD66C067E4809106019091A1
:100DD00007010E9487270E94180F2FEF80E792E0FB
:100DE000215080409040E1F700C0000067E4DDCF73
:100DF0008CEF8C0F813AF8F48C2F0E94C023811164
:100E000049C06C2F80910601909107010E9407272D
:100E1000882349F06C2F80910601909107010E9470
:100E200092270E94180F6C2F809106019091070164
:100E30000E948727C0CF80E28C0F883048F4C770AB
:100E400081E001C0880FCA95EAF70E94D90EB3CF9E
:100E5000EBE5EC0FE33040F4F0E0E25AFE4F808126
:100E600090E0CF910C94C526E8E5EC0FE73150F403
:100E7000F0E0EE0FFF1FE05DFE4F80819181CF918A
:100E80000C94DB26C03F30F08C2F0E946815CF9168
:100E90000C943A16CF910895882309F464C08238DF
:100EA00079F40E94912681FF5EC069E3809106017A
:100EB000909107010E9487270E94180F69E310C0D4
:100EC0008338B1F40E94912680FF4DC063E5809184
:100ED0000601909107010E9487270E94180F63E581
:100EE00080910601909107010E9492270C94180F9F
:100EF000843879F40E94912682FF35C067E480919E
:100F00000601909107010E9487270E94180F67E44D
:100F1000E7CF9CEF980F913A10F4682FE1CF90E261
:100F2000980F983050F4877091E001C0990F8A951E
:100F3000EAF7892F0E94DF0ED9CF9BE5980F9330F7
:100F400020F480E090E00C94C52698E5980F973146
:100F500020F480E090E00C94DB26803F20F00E949B
:100F6000C3150C943A1608951F93CF93DF93182F4F
:100F7000EB010E949D06209741F08FEC97E00197CE
:100F8000F1F700C000002197F6CF812FDF91CF91BC
:100F90001F910C944C07893319F060E070E002C097
:100FA00060E570E00C94B407882321F00E94D90E0C
:100FB0000C94180F0895882321F00E94DF0E0C94E2
:100FC000180F0895CF92DF92EF92FF920F931F9325
:100FD000CF93DF937C01162FC72FFC01D2810581AF
:100FE00002950F700E94CF0E8823B9F0DD23A9F07F
:100FF0008C2F807F803421F080E2810F883068F070
:101000008091220482FD09C082E00E94780F0E9434
:10101000CF0E91E0D82ED92601C0D12CCC2EC2946F
:101020008FE0C8228C2D90E08C30910508F09EC195
:10103000FC01EA5AFF4F0C94A2308C2F807FCF70B6
:10104000882311F0C295C07FDD2399F0CC2309F4E9
:1010500079C180E2810F883010F0111104C08C2F0B
:101060000E94D90E03C08C2F0E94E90E0E94180F17
:1010700069C1812F0E944C07CC2309F477C180E21B
:10108000810F883038F1112329F18C2F0E94EF0E47
:1010900024C08C2F807FCF70803211F0C295C07F2A
:1010A000112319F01130A1F13DC08091220482FF7B
:1010B00017C0DD2349F0CC2329F08C2F0E94D90ED4
:1010C0000E94180F80E03FC180E00E944C07CC23B3
:1010D00009F44CC18C2F0E94DF0E0E94180F46C1EC
:1010E000DD2371F0002341F0013031F40E94F90E4C
:1010F0008C2B0E94010F3AC10E94F90E8C2B1DC04F
:10110000002319F0013009F431C10E940E0F25C0EF
:10111000DD2321F0063008F029C10EC0053008F0AB
:1011200025C11BC0DD2361F0002331F0F70185816B
:1011300080FF08C18F7085838C2F0E94D40716C151
:10114000002359F0193309F00EC1FFEF23EF81E0BE
:10115000F15020408040E1F704C18C2F0E94DB0752
:1011600005C18C2F86958695837019F0813061F0CA
:10117000FDC0DD2321F0812F9C2F937002C080E001
:1011800090E00E94C526FAC0DD2321F0812F9C2F1C
:10119000937002C080E090E00E94DB26EFC0812FB8
:1011A000DD2319F00E94681502C00E94C3150E9439
:1011B0003A16E4C08C2F837079F5D111DBC0412F32
:1011C000429546954770440F440F212F2F70042EEF
:1011D00001C0220F0A94EAF714FF08C08FE090E0E4
:1011E00001C0880F4A95EAF7809501C080E0C69556
:1011F000C695C370822BC23049F058F4C13019F043
:101200000E949F0AB7C00E949A0AB4C00E94A40A12
:10121000B1C00E94980AAEC0DD2319F08C2F8170F6
:1012200001C08695882309F4A5C0412F42954695B3
:101230004770440F440F212F2F70042E01C0220F3E
:101240000A94EAF714FF08C08FE090E001C0880F0D
:101250004A95EAF7809501C080E0C695C695C370AF
:10126000822BC23049F058F4C13019F00E94E30AD1
:1012700081C00E94DE0A7EC00E94E80A7BC00E94F4
:10128000AB0A78C0CF70DD2339F08C2F0E94BC0AE6
:10129000812F0E94D4076EC0812F0E94DB078C2F04
:1012A0000E94C70A67C0123F21F128F4103F41F0A5
:1012B000113FC1F043C0133F19F1143F79F03EC014
:1012C000DD2341F0053008F051C08C2F8F710E9452
:1012D000D30A4CC0063008F049C0F7CF80912204F1
:1012E00082FF18C0DD2339F08C2F8F710E94BC0A59
:1012F0003DC0DD23C9F38C2F8F710E94C70A36C011
:10130000DD2329F08C2F8F710E94B40A2FC00E9418
:10131000B10A2CC0DD2349F0CF718C2F0E94BC0A8A
:1013200063E08C2F0E945D0F21C081E00E94780F46
:101330000230E0F082E00E94780F18C0DD2331F027
:10134000002391F2812F0E949D0610C0002399F284
:10135000193349F49FEFE3EFF1E09150E040F040A2
:10136000E1F700C00000812F0E944C0788EF8C0D30
:10137000843020F40E9491260E943206DD20C9F0BC
:101380000E94CB0E80FD15C0F70112820E94C50E8F
:101390000E94BC0AC7010E94FA090E94C50EDF9193
:1013A000CF911F910F91FF90EF90DF90CF900C9411
:1013B000C70ADF91CF911F910F91FF90EF90DF90BF
:1013C000CF9008950F931F93CF93DF93EC01688123
:1013D00079818A810E947D0B8C010E94ED0A0E9416
:1013E0008C0AB801CE010E94E207DF91CF911F91D4
:1013F0000F910895CF93DF93EC01988189812B8120
:101400003C81232B31F08F3F31F481E09F3F19F471
:1014100003C081E001C080E080FD1DC0CE010E94BC
:10142000F004811110C00E94CF0E8823A1F08A81A0
:10143000882389F08091220482FD0DC082E0DF9133
:10144000CF910C94780FCE010E94E209CE01DF917A
:10145000CF910C94AA04DF91CF91089580E090E0A1
:101460000E94C52680E090E00E94DB260E94F60ED6
:101470000E94180F0E946B170C943A168091060177
:10148000909107010E949D270C942E0A0E94E60E5F
:101490000C943E0A92959F70963079F010F4925019
:1014A00001C09A50923068F4803F69F018F4883E89
:1014B00040F409C0843F29F406C0883E20F0813FF3
:1014C00011F080E0089581E00895FC018081918110
:1014D0000E94720B0E944A0A0895CF93DF9300D0B6
:1014E00000D01F92CDB7DEB70F900F900F900F90E6
:1014F0000F90DF91CF910895CF93DF9300D000D06C
:1015000000D0CDB7DEB726960FB6F894DEBF0FBE7B
:10151000CDBFDF91CF910895089508950C948D0A61
:101520000C948E0A0E94900A809300020C942E0A5A
:101530000C94920A90910002892B0C94920A90913B
:10154000000289230C94920A9091000289270C943E
:10155000920A0C948D0A0E94A90A8093FF010C94B0
:101560002E0A80E00C94AB0A91E001C0990F8A9595
:10157000EAF7892F0C94AB0A21E030E001C0220F7A
:101580008A95EAF78091FF01822B0C94AB0A21E047
:1015900030E001C0220F8A95EAF720958091FF0183
:1015A00082230C94AB0A21E030E001C0220F8A951F
:1015B000EAF78091FF0182270C94AB0A9091FF011A
:1015C000892B0C94AB0A9091FF0189230C94AB0AF0
:1015D0009091FF0189270C94AB0A08952EE0929F09
:1015E000800D1124E82FE695E695E695877051E089
:1015F00001C0550F8A95EAF783E0E89FF0011124B6
:10160000EC51FE4F20E030E070E04081CB01022E33
:1016100002C0969587950A94E2F781708195842798
:101620008523842781932F5F3F4F2330310569F74E
:1016300008952EE0929F800D1124682F669566957F
:101640006695982F977083E0689FB001112440E061
:1016500050E080E0FB01E40FF51FEC51FE4F2081CC
:1016600030E0092E02C0369527950A94E2F72170E2
:101670003327042E01C0220F0A94EAF7822B4F5F12
:101680005F4F4330510531F70895CF92DF92FF92BB
:101690000F931F93CF93DF936C010091FF01809113
:1016A0000002082BC7E0D0E010E0C8010C2E02C0F9
:1016B000959587950A94E2F780FD04C02197A8F7D5
:1016C000F12C07C0FC2EB6018C2F0E946B120197E3
:1016D000A9F38F2DDF91CF911F910F91FF90DF9094
:1016E000CF900895CF93DF93EC010E94450BBE018C
:1016F0000E946B12DF91CF9108951F93CF93DF93D8
:10170000EB019091E301992321F0CB010E94720B30
:1017100013C0882349F0CB010E94450B182F682F76
:10172000CE010E94EE0A04C0CB010E94190B182FB3
:10173000BE01812F0E946B12DF91CF911F910895FE
:101740001F93CF93DF93C091010216E080910202B4
:10175000C81799F0D0E01C9FF0011D9FF00D1124D7
:10176000ED5FFD4F4081518162817381848195815C
:101770000E947C0A2196C770E9CFDF91CF911F911B
:101780000895409133025091340260913502709176
:10179000360280913702909138020C947C0AEF92C5
:1017A000FF920F931F93CF93DF938091380282951E
:1017B0008F7009F065C080913502882309F460C0FC
:1017C00080910102F09002021091330200913402E4
:1017D000609136027091370291E01F3F09F090E06E
:1017E000C0910401D0910501292F96E0E92E8F15B3
:1017F00009F446C06115710521F00F3F21F030E07A
:1018000003C031E001C0322F90E030FD36C0E89EC9
:10181000F001E99EF00D1124DF01AD5FBD4F11967F
:101820003C911197301329C03C91311326C0129678
:101830003C911297311121C013964D915C911497F0
:10184000461B570B4C175D07C0F4809138028F7010
:10185000806180933802E85FFD4F80818F708061E6
:10186000808383E392E00E94FA09DF91CF911F9178
:101870000F91FF90EF900C94A00B01968770B7CF5B
:10188000DF91CF911F910F91FF90EF9008959F925C
:10189000AF92BF92CF92DF92EF92FF920F931F937E
:1018A000CF93DF93CDB7DEB761970FB6F894DEBF65
:1018B0000FBECDBF8C0185E0F801DE011D960190C1
:1018C0000D928A95E1F7D8011296EC90909133022F
:1018D000E091340220913602309137022115310512
:1018E00031F0EF3F31F481E09F3F19F403C081E014
:1018F00001C080E0B82FB1709B2E80FD47C1D80198
:101900004C9111965C9111971396AD90BC901497E1
:1019100083E3C82E82E0D82EF0903502B501621B19
:10192000730B2091040130910501FF2009F4D9C007
:10193000809138026217730708F095C0282F207F26
:1019400009F052C05E1313C0491311C0FE2CE11000
:101950000EC08F708061809338020E94C10BC60157
:101960000E94FA0980913802F80185834DC1AB28A5
:1019700031F05F3F31F481E04F3F19F403C081E063
:1019800001C080E080FD03C081E08E2502C080E0C0
:1019900090E0F82FF170FF2E80FF1CC080910102B3
:1019A0002091020236E0821709F40BC190E0389FC3
:1019B000F001399FF00D1124ED5FFD4F6181561349
:1019C00006C06081461303C06281E61203C001961F
:1019D0008770E9CFFE2CEE2009F416C18091380201
:1019E00081608093380254C05E1306C0491304C05E
:1019F000E11002C0F80199C0C8010E94650A88235D
:101A000061F1EE2051F120913802822F82958F7082
:101A100090E0029774F0809133029091340298879D
:101A20008F831986BB86AA862C87CE0107960E94D3
:101A3000FA0986E0F801A3E3B2E001900D928A95DD
:101A4000E1F70E94CF0B0E94C10B0AC05E1711F193
:101A5000C8010E94650A81112CC0C8010E94FA09C0
:101A6000FF24F394D1C0282F207F81F77A2DB98AE3
:101A7000A88A6E2D89890E946D0A83E392E00E94F4
:101A8000FA0986E0D6011D928A95E9F70E94C10BFA
:101A9000F12CBAC04913DCCFE110DACFF80185830D
:101AA000C8010E94FA0986E0D6011D928A95E9F7DD
:101AB000ABC0EE2091F220913802822F82958F7078
:101AC00090E002970CF4B5CF8091330290913402EC
:101AD0009A8389831B82BD82AC822E83CE010196BC
:101AE000A6CF6217730708F044C0FE2CEE2009F45D
:101AF000B4CF5E1330C049132EC02091380220FDB0
:101B000021C0822F82958F70482F50E041155105DA
:101B1000C9F0F80125834F30510541F08F5F982FB0
:101B20009295907F822F8F70892B8583C8010E94A8
:101B3000FA0986E0F801A3E3B2E001900D928A95DC
:101B4000E1F73CC086E0F801A3E3B2E001900D921A
:101B50008A95E1F759C0C8010E94650A811169CFD1
:101B600080913802816080933802C8010E94FA098E
:101B70004BC07A2DB98AA88A6E2D89890E946D0A78
:101B800086E0D6011D928A95E9F718C0EE2009F487
:101B900064CFC8010E94650AF82E882309F45DCF3E
:101BA00086E0F801A3E3B2E001900D928A95E1F797
:101BB00083E392E00E9497060E94CF0B0E94C10B24
:101BC00023C04D875E878D859E850E94720B292FCD
:101BD00022952F70223028F49F7039F0811105C0B2
:101BE0000BC0243028F49F7049F4805E883020F0C8
:101BF000C8010E94FA099F2CF92C06C0D80115963D
:101C00009C91907F91F7F8CF8F2D61960FB6F89445
:101C1000DEBF0FBECDBFDF91CF911F910F91FF901F
:101C2000EF90DF90CF90BF90AF909F9008951F935B
:101C3000CF93DF93CDB7DEB72C970FB6F894DEBF06
:101C40000FBECDBF4F83588769877A878B879C8764
:101C5000CE0107960E94470C8823D1F09F8188858A
:101C60002A853B85232B31F08F3F31F481E09F3F64
:101C700019F403C081E001C080E080FD47C04F81BE
:101C8000588569857A858B859C850E947C0A3EC033
:101C900086E0FE013796DE01119601900D928A953D
:101CA000E1F7FF81E8856A857B856115710531F073
:101CB000EF3F31F481E0FF3F19F403C081E001C040
:101CC00080E080FD23C02091020230E0C90101962E
:101CD000877099274091010250E084179507F1F130
:101CE000F983EA837D836C8396E0929FD001939F72
:101CF000B00D1124AD5FBD4FFE01319601900D92E4
:101D00009A95E1F7809302020E94A00B16E0809161
:101D1000010290910202891771F1189FC0011124EC
:101D20008D5F9D4F0E94470C882329F1E0910102AD
:101D30001E9FF0011124ED5FFD4F408151816281B2
:101D40007381848195810E947C0A8091010290E0D8
:101D500001968770992780930102D9CF0E94460A85
:101D60001092020210920102E3E3F2E086E0DF014A
:101D70001D928A95E9F72C960FB6F894DEBF0FBE38
:101D8000CDBFDF91CF911F91089580915902859524
:101D90008595859508958091590287700895909151
:101DA0005902977081E009F480E0089580917C02E7
:101DB000089590917C02892B80937C0208958095F0
:101DC00090917C02892380937C02089510927C027A
:101DD000089590917B02892B80937B0208958095D2
:101DE00090917B02892380937B02089510927B025D
:101DF000089580915A02089508950C94FC0E0C9455
:101E0000FD0E9091220492FD08C090915A029817FD
:101E100021F080935A020C94FF0E089580915A028B
:101E2000882329F010925A0280E00C94FF0E089546
:101E3000CF93DF93E0910601F091070180917C023E
:101E40008083E0910601F0910701908180917B02EF
:101E5000892B808380915A02882381F0E0910601CA
:101E6000F09107019081892B8083809106019091E8
:101E700007010E94F12681110E940E0FC0910601F8
:101E8000D091070140E250E069E372E0CE010E9488
:101E90004931892B69F080E2FE01A9E3B2E00190AB
:101EA0000D928A95E1F7CE01DF91CF910C949D269A
:101EB000DF91CF9108950C94FC0E9091220492FD35
:101EC00010C098E0899F90011124262B209359027D
:101ED0000E94BC0A809159028595859585950C9440
:101EE0005B0F0C94BC0A1092590280E00C945B0FBB
:101EF000209159028095822380935902982F9770E0
:101F000099F430E0482F082E000C550B24173507A4
:101F100059F09091220492FD07C08595859585958D
:101F20000E94C70A0C94730F08959091220492FBAB
:101F3000222720F9281769F080FB92F99093220458
:101F400080912104909122040E94E30F82E00C947E
:101F5000780F08958091220482FB882780F991E010
:101F600089270C94950F81E00C94950F80E00C94D8
:101F7000950F6FEF7FEF80E090E00C94883180E068
:101F800090E00E946431893E9E4F11F40C94CE1F64
:101F900080E0089582E090E00C94563183E090E078
:101FA0000C945631CF9384E090E00E945631C82FB4
:101FB00082E290E00E9456312C2F30E0A901582B8C
:101FC000CA01CF910895CF93C92F682F84E090E084
:101FD0000E946A316C2F82E290E0CF910C946A31BA
:101FE000AB01BC018FE090E00C947C31AB01BC01F3
:101FF00083E190E00C947C3160E070E0CB010C94C4
:10200000F60F60E070E0CB010E94F00F0C94FC0F23
:1020100069EE7EEF80E090E00E94883160E082E02F
:1020200090E00E946A3160E083E090E00E946A31B3
:102030001092000260E084E090E00E946A3160E06B
:1020400082E290E00E946A3160E085E090E00E94C8
:102050006A3160E086E090E00E946A316FEF87E0CD
:1020600090E00E946A3140E050E0BA0188E090E0E0
:102070000E947C3160E08DE090E00E946A3140E097
:1020800050E0BA0188E190E00E947C3160E087E195
:1020900090E00E946A3140E050E0BA018CE190E0AB
:1020A0000E947C3160E070E080E290E00E94883124
:1020B00040E050E0BA0188E190E00E947C3180E08D
:1020C0000E94E71F0E941A200C9401100C94081023
:1020D000682F8EE090E00C946A310E94572860933C
:1020E0008B0270938C0280938D0290938E0260938A
:1020F0008702709388028093890290938A020895E0
:1021000085B7806885BF85B7806885BF089581E001
:1021100008950C94871008950C948B100C948B10D8
:102120000C948E100C948B100C9492100C948B10B9
:102130000E94801087E493E10E9487260E949610F7
:102140000C9494100E948C100C948B100E946113BC
:102150000C9431060E9442280E9429200E943C14BF
:102160000E94A6100E94E21D0C9490105F926F9244
:102170007F928F929F92AF92BF92CF92DF92EF9217
:10218000FF920F931F93CF93DF93CDB7DEB72A97BC
:102190000FB6F894DEBF0FBECDBF0E945114C82EFB
:1021A00081110E946D103DE7832E32E0932E00E0F6
:1021B00010E0502E802F0E947B135C01F40161908F
:1021C00071904F016826792661147104B1F40F5F94
:1021D0001F4F0530110569F78FEF89838A831B82B2
:1021E0000E944B288160782F9D838C8349815A817E
:1021F0006B818D810E944D063AC080918F0281FDD6
:102200000E948413D12CEE24E394F12CC3018E217F
:102210009F21892B29F10E9489108823A9F0DE8251
:102220005F82AE20BF2081E0AB2809F480E0888780
:102230000E944B288160782F9A8789874E815F8121
:1022400068858A850E944D06000F111FF801E3582A
:10225000FD4F80819181E826F926F182E08207C056
:10226000D394EE0CFF1CFEE0DF12D0CFB0CF81E0A4
:10227000C11001C080E02A960FB6F894DEBF0FBEF1
:10228000CDBFDF91CF911F910F91FF90EF90DF9025
:10229000CF90BF90AF909F908F907F906F905F9006
:1022A00008950E94B6100E941D1E0E9458160C949C
:1022B0004206CF93DF930E947012EC01811521E555
:1022C000920708F045C0811530E5930708F094C0E7
:1022D000883E910528F5803E910508F0F8C0883ABF
:1022E000910570F4853A910508F07CC08130910524
:1022F00009F475C008F4E8C0049708F0E8C0E4C029
:102300008F3B910508F0E0C0C85AD0E0CC0FDD1F2C
:10231000CF59DE4F0990D881C02DCE019464D8C02A
:10232000811540E2940758F4811551E0950708F0B3
:10233000CEC0803F910508F4C7C09065C9C0C115E3
:1023400080E4D80708F4C0C0DF70CE01906AC0C036
:10235000811525E59207A8F4811534E5930708F067
:1023600095C0811543E5940708F07BC0811552E5BF
:10237000950708F061C0D82FCC27CE01816F906AF5
:10238000A7C0C11589E5D807A0F4C11528E5D20773
:1023900008F082C0C11536E5D30708F095C08C2F30
:1023A0000E9404138F7190E0D82FCC27CE01906249
:1023B0008FC0C1154AE5D40708F474C0CE01905609
:1023C0008115904208F080C08D2F8F710E940413F8
:1023D000DD27D0628F71AE01582BCA0179C081E030
:1023E00090E076C0C55AD0E0C157DE4F8881C82F33
:1023F000D0E0CE0190646CC074E0969587957A9594
:10240000E1F7282F23703C2F337081E090E002C069
:10241000880F991F3A95E2F79C68AC01522B9A01FC
:102420009C2F9F709695969550E2959FE001112400
:10243000C9018C2B9D2B4CC08370992721E030E083
:1024400002C0220F331F8A95E2F79C2F969596952E
:1024500080E2989FE0011124C22BD32BCE019C680F
:1024600037C08370992721E030E002C0220F331F6C
:102470008A95E2F79C2F9695969540E2949FE0010D
:102480001124C22BD32BCE019A6822C0D82FCC277F
:10249000CE01846F906A1CC0DC2FCC27CE01806FE8
:1024A000906A16C08C2F8F700E94041394E0D6950A
:1024B000C7959A95E1F7CF70D0E0DC2FCC27D06993
:1024C0009E01282BC90104C080E090E001C0CE012C
:1024D000DF91CF9108950E94CF240E945911089551
:1024E0008238910569F1B0F48133910509F46DC02A
:1024F00048F48932910509F463C08A32910509F4E0
:1025000069C008958533910509F455C08933910553
:10251000B9F00895833E910569F138F4803E910544
:10252000B1F0823E910509F10895863E9105A9F129
:10253000873E9105B9F1843E910509F064C023C03E
:102540002091210420FD4FC021FD4DC008958091B0
:10255000210480FD44C08091220480FF44C080910A
:10256000210484FD42C083EE4DC08091210482FF8E
:1025700038C0F5CF8091210482FD33C080912204C0
:1025800080FD31C0ECCF8091220481FF32C0809168
:10259000210484FD2AC087EE35C08091210483FF89
:1025A00026C0F5CF8091210483FD21C080912204B3
:1025B00081FD1FC0ECCF8091210485FD1CC01DC092
:1025C0008091210485FD19C016C08091210486FDEB
:1025D00016C017C08091210486FD13C010C089E386
:1025E00011C082EE0FC080EE0DC080E00BC086EE01
:1025F00009C084EE07C089E205C085E303C08AE212
:1026000001C081E390E008959091210492FF0DC0F4
:10261000282F2871283019F4877F846006C0282F5E
:102620002471243011F48B7F886093FF0DC0282F14
:102630002871283119F4877E846106C0282F2471FF
:10264000243111F48B7E88612091220420FF0DC07B
:10265000382F3871383019F4877F816006C0382FE1
:102660003171313011F48E7F886021FF0DC0282F29
:102670002871283119F4877E816106C0282F2171C5
:10268000213111F48E7E886194FD877E089580E06B
:1026900008950C94B90F0E9451148FE19EE40197A4
:1026A000F1F700C000000E94511480E00E947B13EB
:1026B00080FF04C00E9449130C94982808950C943C
:1026C0004B130E94BF0F811102C00E9466100E942E
:1026D000CA0F80938F020E94D20F9093220480939E
:1026E00021040E945F130E94CE0F0E94980A8091DD
:1026F000FF010C94A90AE82FF0E0EE0FFF1FE35D45
:10270000FB4F808191810895089580E58A95F1F7C6
:10271000089500C008950C94851308950C948D13AA
:102720000C948E130C948D130C949213F894E82F40
:10273000E295EF70F0E031A1282F2F7081E090E05A
:1027400001C0880F2A95EAF7982F9095932391A3BB
:1027500092A1892B82A3789408950F931F93CF930E
:10276000DF93C0EAD1E089918F3F11F00E94961368
:1027700081E0C53AD807B9F7C2E9D1E000EA11E033
:1027800089918F3F11F00E9496130C171D07C1F716
:10279000DF91CF911F910F910895BF92CF92DF9259
:1027A000EF92FF920F931F93CF93DF938C01C62F6D
:1027B000D0E0CE0180569E4F6C01FC0190819F3F7E
:1027C00009F450C0B62EF894E92FE295EF70F0E0CE
:1027D00081A19F7021E030E001C0220F9A95EAF7B5
:1027E000822B81A382A12095282322A378940E9482
:1027F0008913E2E9F1E040EA51E021E030E0E12C28
:10280000F12C61916F3F89F0A62FA295AF70B0E0D7
:1028100090968C9190E06F7002C0959587956A951F
:10282000E2F780FD02C0C90102C080E090E0E82A22
:10283000F92A220F331F4E175F0719F7F60180811F
:102840008F3F11F00E94961361E0E114F10409F446
:1028500060E08B2D0E948B13CC0FDD1FC00FD11FAA
:10286000F982E882DF91CF911F910F91FF90EF9055
:10287000DF90CF90BF9008950E94AD138AE0EDE203
:10288000F4E0DF01982F1D929A95E9F7E3E2F4E076
:10289000DF011D928A95E9F785E00E949C140C9453
:1028A000DC04FF920F931F93CF93DF93CDB7DEB776
:1028B0002A970FB6F894DEBF0FBECDBF8E010F5F13
:1028C0001F4F8AE0F80111928A95E9F7F12C6F2DDC
:1028D000C8010E94CD13F394F5E0FF12F8CF4AE04F
:1028E00050E0B80183E294E00E944931FF24F39460
:1028F000009709F4F12C892B41F08AE0F801A3E25A
:10290000B4E001900D928A95E1F72F2D45E06DE23C
:1029100074E083E294E00E949D140E94DE048F2DF7
:102920002A960FB6F894DEBF0FBECDBFDF91CF91D0
:102930001F910F91FF9008950895FF920F931F9399
:10294000CF93DF93F82E092F162FD72FC42F2223D2
:1029500049F081E0809392020E944B28909391026B
:1029600080939002809192028823D9F08091900206
:10297000909191020E946328059798F0EF2DF02F17
:10298000A12FBD2F80E090E04C2F50E084179507D9
:1029900034F4219131912D933D930196F7CF10920C
:1029A0009202DF91CF911F910F91FF9008950E94A5
:1029B000962A0E94AA100C94A22A0E94A62A0E947B
:1029C00051110C94C02A0E94E9270E947D2A0E947E
:1029D00098100E94D7140E94DD140E94A210FBCF11
:1029E0008091990280FF06C060910D0170E0660F32
:1029F000771F26C081FF04C060910D0184E005C0EF
:102A000082FF07C060910D0188E0689FB00111242A
:102A100017C0909198029923D1F060910C019617FC
:102A200088F720910D0188E0289F90011124929F42
:102A3000A001939F500D112470E0CA010E946C30D8
:102A40006038710540F46115710519F406C068E03D
:102A500070E0862F08958FE7089581E008958091B2
:102A6000990280FF08C06091090170E07595679533
:102A70007595679521C081FF06C06091090170E0DE
:102A80007595679519C082FF04C06091090170E0D7
:102A900010C090919702992399F0609108019617C0
:102AA000A0F780910901899FC001112470E00E9464
:102AB0006C306038710540F46115710519F406C079
:102AC00061E070E0862F08958FE7089581E0089512
:102AD000803F21F40E94F014819504C0813F29F4C5
:102AE0000E94F01480939D020895823F21F40E9479
:102AF000F014819504C0833F29F40E94F014809360
:102B00009C020895893F19F40E942F1505C08A3F41
:102B100031F40E942F15819580939E0208958B3F7A
:102B200021F40E942F15819504C08C3F29F40E9446
:102B30002F1580939F0208959CE0980F953078F4AC
:102B400021E030E0A90102C0440F551F9A95E2F739
:102B5000CA0190919B02892B80939B0208958D3F1F
:102B600021F48091990281600BC08E3F21F4809105
:102B70009902826005C08F3F29F480919902846098
:102B8000809399020895803F39F490919D0297FFB8
:102B900035C010929D0259C0813F29F490919D0249
:102BA0001916BCF32BC090919C02823F29F497FF29
:102BB00025C010929C0249C0833F19F41916CCF32A
:102BC0001DC090919E02893F29F41916BCF4109201
:102BD0009E023BC08A3F19F497FF10C0F8CF8B3F8D
:102BE00039F490919F0297FF09C010929F022DC067
:102BF0008C3F21F490919F021916BCF39CE0980F32
:102C0000953080F421E030E0A90102C0440F551F47
:102C10009A95E2F7CA01809590919B02892380934F
:102C20009B0213C08D3F21F4809199028E7F0BC0CF
:102C30008E3F21F4809199028D7F05C08F3F29F44A
:102C4000809199028B7F8093990280919C028111DF
:102C500006C080919D02811102C01092980280915D
:102C60009E02811106C080919F02811102C01092C4
:102C7000970208950E944B2820919C02211104C0C4
:102C800020919D02222321F0909396028093950239
:102C900020919E02211104C020919F02222321F045
:102CA00090939402809393028AE992E00C94B72661
:102CB000EF92FF920F931F93CF93DF9300D000D03A
:102CC00000D0CDB7DEB786E0EAE9F2E0DE0111968A
:102CD00001900D928A95E1F7E0909C02F0909D02A0
:102CE00000919E0210919F0210929C0210929D02F0
:102CF00010929E0210929F02E11003C0FF2009F47F
:102D00005DC080919502909196020E946328AC016B
:102D100090919802992339F020910E0130E0241708
:102D2000350758F04BC020910F018AE0289F900191
:102D300011242417350718F041C09F3F19F09F5FF9
:102D400090939802EE2061F00E94F0141E1414F08B
:102D50009FEF01C091E0989F902D112490939C02C9
:102D6000FF2061F00E94F0141F1414F09FEF01C0C7
:102D700091E0989F902D112490939D0230919C0298
:102D80003323E1F020919D022223C1F045EB34036F
:102D9000C0011124992319F090939C0203C081E093
:102DA00080939C0235EB2303C0011124992319F071
:102DB00090939D0203C081E080939D02011103C0A6
:102DC000112309F45DC080919302909194020E94B6
:102DD0006328AC0190919702992339F020910A0160
:102DE00030E02417350758F04BC020910B018AE0E2
:102DF000289F900111242417350718F041C09F3FE8
:102E000019F09F5F90939702002361F00E942F15A5
:102E1000101614F09FEF01C091E0989F902D11249F
:102E200090939E02112361F00E942F15111614F049
:102E30009FEF01C091E0989F902D112490939F02E5
:102E400030919E023323E1F020919F022223C1F0B2
:102E500045EB3403C0011124992319F090939E028D
:102E600003C081E080939E0235EB2303C00111244F
:102E7000992319F090939F0203C081E080939F02F1
:102E800080919C0281110BC080919D02811107C02D
:102E900080919E02811103C080919F0281110E9446
:102EA0003A16EB82FC820D831E8386E0FE0131968A
:102EB000AAE9B2E001900D928A95E1F726960FB645
:102EC000F894DEBF0FBECDBFDF91CF911F910F9160
:102ED000FF90EF900895EAE9F2E086E0DF011D92AD
:102EE0008A95E9F71092980210929702109299022F
:102EF0000895EF92FF920F931F93CF93DF938B016F
:102F0000682F11110AC0442329F0E82FF0E0EA5895
:102F1000FA4F6491762F862F75C0212F30E0E82F6D
:102F2000F0E0442321F0EA58FA4FE491F0E046E063
:102F3000049FC0011124CFEFD0E0BE010E945830A1
:102F40004BEA4603C001479F900D1124800F911D4D
:102F5000800F911D982F990F890FAE01421B530BC3
:102F60004E9FD0014F9FB00D5E9FB00D11249B2F3F
:102F7000189FA0011124452F55278E01041B150B06
:102F80000E9FA0010F9F500D1E9F500D11247E011A
:102F9000E81AF108E29E8001E39E100DF29E100DEA
:102FA0001124212F3327C21BD30BCE9F9001CF9F1B
:102FB000300DDE9F300D112462307105A9F048F408
:102FC0006115710569F061307105C9F48B2F752F9A
:102FD0000DC06430710581F058F06630710579F4E8
:102FE0007E2F8B2F932F0DC0832F7B2F9E2F09C0F9
:102FF0008E2F7B2F952F05C08E2F732F02C07E2F13
:10300000852F692FDF91CF911F910F91FF90EF9046
:10301000089541E00E947917089508950E940918C3
:103020000895CF93DF93762FE901682F842F0E94B4
:103030000E18798368838A83DF91CF9108954D3686
:1030400008F04CE60C94111880913704282F26952F
:1030500030E02115310519F48170826005C02B32F2
:10306000310524F0817084658093370480913A049F
:103070008D3618F08CE680933A04089588E090E04D
:103080000C945E31CF92DF92EF92FF926B017C0144
:103090000E942418B701A60188E090E0FF90EF900D
:1030A000DF90CF900C947C3160913704709138049C
:1030B0008091390490913A040C944218E7E3F4E0CB
:1030C00083E1808311828FEF82838CE6838380E9A2
:1030D000848360817181828193810C9442188091F4
:1030E000370480FF02C08695089580E0089590918E
:1030F0003B04933018F49F5F90933B04882351F076
:1031000060913704709138048091390490913A04A9
:103110000C944218089581E00C94771890913B0428
:10312000992319F0915090933B04882351F06091BA
:103130003704709138048091390490913A040C94CA
:103140004218089581E00C948E1880913B040895F4
:1031500080933B04662351F06091370470913804EA
:103160008091390490913A040C944218089560E0DB
:103170000C94A8188091380408958091390408951A
:1031800080913A04089570E00C94A81F6091140196
:103190008091370480FF0AC08091130123E0829F51
:1031A000C0011124845C9B4F0C94C31880911501BD
:1031B00090911601891780F7E82FF0E09F01220F08
:1031C000331FE20FF31FE45CFB4F11821082128267
:1031D0008F5FF0CF9091370490FF16C0909115014A
:1031E00020911601921770F4E92FF0E0DF01AA0F89
:1031F000BB1FEA0FFB1FE45CFB4F818360834283AC
:103200009F5FF0CF0C94C6180895CF93DF9300D042
:103210001F92CDB7DEB79091370490FF0AC09E0190
:103220002F5F3F4F0E941F184B8169818A810E9446
:10323000EA180F900F900F90DF91CF910895CF93E0
:10324000DF93EC01EC81F0E0EF58FB4F4491E7E3B2
:10325000F4E0628181810E9405198C818F5F8C83EB
:10326000DF91CF910895CF93DF93EC01E7E3F4E092
:10327000438162818C810E9405198C818F5F8C83D0
:10328000DF91CF9108950F931F93CF93DF9300D0D9
:103290001F92CDB7DEB78C018091A00281110AC0C8
:1032A0009E012F5F3F4F4CE66FEF0E941F188A81EF
:1032B0008093A002F8018481813051F028F082309F
:1032C00061F44091A0020AC08091A00240E007C0D2
:1032D0006091A00240E080E003C040E080E060E058
:1032E0000E94EA18F801848190E0019663E070E0A2
:1032F0000E946C3084830F900F900F90DF91CF91DC
:103300001F910F910895AF92BF92CF92DF92EF92EB
:10331000FF920F931F93CF93DF9300D01F92CDB7EF
:10332000DEB7182FF62E042FE22E9091370490FF6F
:103330006DC0E92FE695AE2FB0E0AB55BE4F8C9136
:103340008093EA039E7F923061F49E012F5F3F4F8E
:10335000812F0E941F184B8169818A810E94EA187F
:1033600043C0823019F400913A043EC0863019F40B
:103370001091380439C08930D9F38931A9F5E95160
:103380008E2F8170D82EE695F0E0EF58FA4FA59079
:10339000B490C12CBB2460911701C61618F52C2DD2
:1033A00030E0A29EC001A39E900DB29E900D11240C
:1033B00070E00E945830812FD11002C0860F01C0EA
:1033C000861B90911501290F311DA901440F551F2E
:1033D000240F351F245C3B4F402F6F2D0E941F1878
:1033E000C394D9CF0E94C61810933804F0923904C0
:1033F00000933A04EE2051F0609137047091380444
:103400008091390490913A040E9442180F900F90D5
:103410000F90DF91CF911F910F91FF90EF90DF9070
:10342000CF90BF90AF900895E7E3F4E09181282F0B
:103430004381628188E0890F0C94831981E00C94A8
:10344000141AE7E3F4E09181282F4381628188EF29
:10345000890F0C94831981E00C94211AE7E3F4E0BE
:10346000628121E1620F08F46FEF282F438181818F
:103470000C94831981E00C942E1AE7E3F4E0628146
:1034800021E1621B08F460E0282F438181810C94C4
:10349000831981E00C943D1AE7E3F4E0438121E1D4
:1034A000420F08F44FEF282F628181810C94831919
:1034B00081E00C944C1AE7E3F4E0438121E1421BE4
:1034C00008F440E0282F628181810C94831981E007
:1034D0000C945B1A20E00C948319FF920F931F93B6
:1034E000CF93DF93EC01F12C0FEF10E06091170107
:1034F000F616F0F4809115012F2D30E0280F311DC4
:10350000C901880F991F280F391F245C3B4F70E0B9
:10351000C8010E946C30962F8C8140913A046091D2
:103520003904F99E800D11240E941F18F394DECFF8
:103530000E94C6189A818C8190FF02C08F5F01C0E3
:1035400081508C83DF91CF911F910F91FF9008954F
:10355000BF92CF92DF92EF92FF920F931F93CF9380
:10356000DF93FC01828180FF02C00FEF01C001E008
:1035700010E080911701181708F040C080911501E4
:10358000C12ED12CE601C80FD11DCE01880F991F85
:10359000C80FD91FC45CDB4F198218821A8234E02D
:1035A000E32EF12CB12C8091A2028B0D813414F00A
:1035B0008F7305C087FF03C090911701890F082EF4
:1035C000000C990BC816D90691F480913A048E9D8F
:1035D000A0018F9D500D1124559547955595479500
:1035E0009E0160913904809138040E941F18B00E2A
:1035F000F1E0EF1AF108B9F61F5FBBCF0E94C618C1
:103600008091A202013031F4811102C08091170132
:10361000815007C090E001966091170170E00E9410
:103620006C308093A202DF91CF911F910F91FF9098
:10363000EF90DF90CF90BF900895CF9380911501C8
:1036400090911601891770F4E82FF0E09F01220F86
:10365000331FE20FF31FE45CFB4F118210821282D2
:103660008F5FF0CFC0E060911701C617C0F5EC2F57
:10367000F0E070E0CF010E946C3020911501820FC4
:103680002091A102022E000C330B90E0E217F30709
:10369000CCF020911201022E000C330B2E173F07A5
:1036A0008CF09C01220F331F820F931F9C01245C1E
:1036B0003B4F40913A0460913904809138040E9454
:1036C0001F180BC0FC01EE0FFF1F8E0F9F1FFC0188
:1036D000E45CFB4F118210821282CF5FC4CF0E9444
:1036E000C618209111018091A102820F8093A1023E
:1036F00090911201920F9093120119165CF4082E0A
:10370000000C990B4091170150E04150510984176A
:1037100095071CF0219520931101CF9108958F9268
:103720009F92AF92BF92CF92DF92EF92FF920F9350
:103730001F93CF93DF938C01FC014481C42FD0E011
:103740009E01DE010E94B7309B01AC010E94CD308A
:103750006B017C01E0E2F0E0EC1BFD0BA5E5B0E0C5
:103760009B01AC010E94CD304B015C019F01DF0148
:103770000E94AF309B01AC010E94D8309B01AC018C
:103780002C0D3D1D4E1D5F1DC501B4010E948030F2
:10379000C22FD22F2A3228F4F3E02F9F9001112458
:1037A0000DC025E530E02C1B3109C901880F991F98
:1037B000280F391F37FF02C02F5F3F4F35952795E0
:1037C000C22FC095F12C85E5E82EED1A80911701E6
:1037D000F816C8F4F1FC02C08E2D01C08D2F909117
:1037E00015012F2D30E0290F311DA901440F551F60
:1037F000240F351F245C3B4F4C2F609139040E94ED
:103800001F18F394E3CF0E94C618F8018481811138
:1038100002C091E003C0803219F49FEF9093100131
:1038200090911001890FF8018483DF91CF911F914E
:103830000F91FF90EF90DF90CF90BF90AF909F904F
:103840008F9008950F931F93CF93DF93EC0100E0C7
:1038500010E080911701282F30E00217130724F59C
:10386000909115019801290F311DA901440F551F91
:10387000240F351F245C3B4F869590E04C81081740
:1038800019071CF4442331F002C0411103C04091D8
:103890003A0401C040E060913904809138040E94EC
:1038A0001F180F5F1F4FD5CF0E94C6188C8190E064
:1038B0000196817099278C83DF91CF911F910F9191
:1038C00008957F928F929F92AF92BF92CF92DF9294
:1038D000EF92FF920F931F93CF93DF93FC018280AF
:1038E000748081E08483E1E7F4E09490E0EFF4E019
:1038F000E491A12CF5E0BF2ECC24CA94D12CE91977
:103900000E2F10E080911701A81608F0A2C0EA2C33
:10391000F12C22E0281568F0BE9CF001BF9CF00D50
:103920001124ED55FD4F8091380480838091390436
:10393000818371100AC0BE9CF001BF9CF00D112460
:10394000ED55FD4F138212826AC0BE9CE001BF9C00
:10395000D00D1124CD55DD4F8B818823F9F0815096
:103960008B832FEF829FC00111246C8170E00E9435
:103970005830FB01FF27EF58FB4F8491E82FE919DE
:103980002FEFE29FC0011124B8010E9458308091AE
:103990003A04689FB00111247A8341C00E942C31FF
:1039A00020913A042695215830E0A901440F551F73
:1039B000322F2227240F351F232F332782179307F7
:1039C00074F582E0881588F40E942C31B6010E94BB
:1039D0006C3088830E942C31209139042695622F07
:1039E00070E00E946C30280F2983BE9CF001BF9CC0
:1039F000F00D1124ED55FD4F128280913A0484316F
:103A000020F0893C18F088EC01C084E1BE9CF001F4
:103A1000BF9CF00D1124ED55FD4F8483838380916D
:103A200015019701280F311DC901880F991F280F13
:103A3000391F245C3B4FBE9CF001BF9CF00D11244C
:103A4000ED55FD4F4281618180810E941F18A39432
:103A500059CFDF91CF911F910F91FF90EF90DF90A1
:103A6000CF90BF90AF909F908F907F900C94C6188E
:103A7000E7E3F4E080818E7F8083608171818281C1
:103A800093810E9442181092EB032FE788E391E0A4
:103A9000215080409040E1F700C000000C94C6180F
:103AA000E7E3F4E080818E7F80831092EB032FE7C1
:103AB00088E391E0215080409040E1F700C0000091
:103AC0000C94C61860913704669570E04BE050E0A6
:103AD00088E191E00E943C31892B19F481E08093C8
:103AE000EB030E944B289093E4038093E303089533
:103AF0009091370490FF35C09170811102C092609F
:103B000006C08B3210F0946502C0880F982B9093FA
:103B10003704662351F06091370470913804809126
:103B2000390490913A040E944218609137046695D6
:103B300070E04BE050E088E191E00E943C31892B3D
:103B400019F01092EB0302C00E94621D81E0809385
:103B5000E60340913A0460913904809138040C9452
:103B60006A1A0895682F90913704969581E0890F1D
:103B70008B3208F081E00C94781D81E00C94B21D2A
:103B8000682F9091370496958FEF890F09F48AE298
:103B90000C94781D81E00C94C01D61E00C94781D9C
:103BA000E7E3F4E080818160808386950C94CD1DED
:103BB0008091370480FD0C94381D0C94D01D60E07A
:103BC0000C94781D8091E90381112EC00E94BF0FD3
:103BD000811104C00E9466100E945E180E943E1867
:103BE00060933704709338048093390490933A04B7
:103BF0006E7F61F40E945E180E943E186093370445
:103C0000709338048093390490933A040E942418E6
:103C10001092EB038091370480FF03C086950E94C9
:103C2000DF1D81E08093E9030895E7E3F4E08081FC
:103C30008160808386950C94DF1D0F931F93CF9333
:103C4000DF938091EB03882309F495C08091EA0308
:103C5000E0913704E695E81BE093E503823049F4F0
:103C6000F0E0E359FB4FE491CE2FD0E00FE119E1F2
:103C700059C0863049F4F0E0E659FB4FE491CE2F6D
:103C8000D0E003E319E14EC0893051F4E695F0E04D
:103C9000E959FB4FE491CE2FD0E00DE61AE142C086
:103CA0008F3051F4E695F0E0EC59FB4FE491CE2FC4
:103CB000D0E008EA1AE136C0853149F4F0E0EF5966
:103CC000FB4FE491CE2FD0E00DE11BE12BC08831FA
:103CD000D9F0833239F4EFE5F4E0C591D49103E4EF
:103CE00019E120C08432A9F08532C1F48E2F63E03F
:103CF0000E944C30E92FF0E0E45AFB4FE491CE2FC4
:103D0000D0E001E61CE10EC0C8E2D0E00FE81BE104
:103D100009C0C4EFD1E002E21CE104C0C0EDD7E06D
:103D20000DE018E18091E603882361F01092E6032C
:103D30000E944B289093E4038093E3031092E803DE
:103D40001092E7030E944B28E091E303F091E40313
:103D50008E1B9F0B8F3F9F4770F4EC0FFD1FF0935E
:103D6000E403E093E30383EE93E0F801DF91CF9166
:103D70001F910F910994DF91CF911F910F91089599
:103D8000882311F0FA0101C0FB010994CF93DF935E
:103D9000C82FD62F0E946F188C1740F00E946F1802
:103DA0008D1720F4DF91CF910C94BD1D8C2FDF91E6
:103DB000CF910C94CD1D1F93CF93DF93FB01128104
:103DC0001111C1C0EC010E94D60E8272CC3CFCE500
:103DD000DF0709F49AC008F043C0C63CECE5DE07F3
:103DE00009F47FC0D8F4C33C9CE5D90709F46DC041
:103DF00038F4C23CDC4509F0A5C00E94D81DA3C020
:103E0000C43C9CE5D90709F465C0C53CDC4509F014
:103E100099C04BE25AE16EE17AE160C0C93CFCE531
:103E2000DF0709F468C070F4C73CECE5DE0709F46D
:103E30005DC0C83CDC4509F085C04AE35AE169E44D
:103E40007AE14CC0CA3C9CE5D90709F459C0CB3C87
:103E5000DC4509F077C042EA58E16BE878E13EC002
:103E6000C13DFCE5DF0709F45DC098F4CE3C9CE55C
:103E7000D90709F451C008F44DC0CF3CFCE5DF0779
:103E800009F44DC0C03DDC4509F05CC06EE089E03E
:103E900056C0C43D9CE5D90709F44AC058F4C23D58
:103EA000FCE5DF0709F441C0C33DDC4509F04AC029
:103EB00088E142C0C53D9CE5D907E9F1CD35DD4536
:103EC00009F040C06AE285E23AC04AEC5DE16DEB80
:103ED0007DE104C04DEB5DE16AEC7DE10E94C01E16
:103EE00032C04EE15AE16BE27AE1F8CF49E45AE19F
:103EF0006AE37AE1F3CF47E65AE168E57AE1EECF8B
:103F000048E55AE167E67AE1E9CF4BE858E162EA31
:103F100078E1E4CF81E010C065E082E010C068E0A5
:103F200086E00DC064E18FE00AC067E185E107C06B
:103F300062E289E104C083E20E94CD1D04C00E94B8
:103F4000C61E01C011E0812FDF91CF911F9108950E
:103F5000879A21B32F7731B330684FB7F894FC01BB
:103F6000CB01880F991F680F791F6E0F7F1FE6170F
:103F7000F70761F0819198E031BB87FF21BB880F83
:103F8000000000C021BB9A95B9F7F1CF4FBF8FE277
:103F900092E00197F1F700C00000089583E290E0FD
:103FA0000E945631823281F484E290E00E945631C0
:103FB000843051F485E290E00E94563191E08130E6
:103FC00009F090E0892F01C080E081700895CF93BF
:103FD000C82F811102C06FEF01C062E283E290E05E
:103FE0000E946A31C11102C06FEF01C064E084E237
:103FF00090E00E946A31C11102C06FEF01C061E020
:1040000085E290E0CF910C946A31089586E290E0C9
:104010000E945631682F70E080E090E00895089586
:10402000CF93C62F0E940F206C2F86E290E0CF9195
:104030000C946A3180E00E94E71F60E070E0CB01E1
:104040000E9410200E944A240E94292581E00C949D
:10405000E71F0E9405200E9406200E940F200E9458
:10406000CE1F811102C00C941A200895CF93FB013A
:10407000C281CC23E9F09C0122513F45203131051A
:1040800020F482510E9439250CC08031FFE59F0742
:1040900051F481E00E94BC0A43E062E081E00E94AA
:1040A000D304C0E018C081319F45A9F482E0F2CF6B
:1040B0008031EFE59E0711F481E004C081319F4516
:1040C00049F482E00E94C70A43E062E081E00E9476
:1040D000D30401C0C1E08C2FCF9108952FEFFC01D4
:1040E00020830895CF93DF93EC018881813889F094
:1040F00028F48038A1F40E94C01810C0823861F002
:10410000833869F40E94BA1889830E94BD188A8393
:1041100006C00E946F1802C00E94A5188983DF9113
:10412000CF910895CF93DF93EC0188818138B1F06E
:1041300058F4803851F5D9810E94BD18C82F0E94CB
:10414000BA184D2F6C2F1DC08238B1F08338E9F4B6
:104150000E94C018482F6A81898113C089810E94FA
:10416000DF1D8981811104C0DF91CF910C94501D16
:10417000DF91CF910C94151E8981DF91CF910C9422
:10418000B718DF91CF910C946A1ADF91CF910895FF
:10419000EF92FF920F931F93CF93DF93EC01062FC3
:1041A0000196E8814E2F50E0FA013197E331F10595
:1041B00008F09AC0EE59FF4F0C94A230198289E0A2
:1041C00056C08981823039F0833061F0813029F521
:1041D0000E94572802C00E9406209A838B837C830A
:1041E0006D8384C07E0110E0812F0E947B13F70154
:1041F000928383831F5FF2E0EF0EF11C1530A1F76D
:1042000075C08981823049F46A817B818C819D816E
:104210000E94A8300E94102069C0602FCE010E9429
:104220006E2064C04B816A8189810E941C249C831A
:104230008D835CC02C813D813227232732274B811F
:104240006A8189810E94352451C00E944A244EC04F
:104250000E9492204BC00E94722048C00E945418B5
:1042600045C00E94DC2424C00E94DE2499838A83F6
:104270003DC06B8170E089819A81AE014C5F5F4FD8
:104280009827892798270E94E12430C06B8170E02D
:1042900089819A81AE014C5F5F4F982789279827C3
:1042A0000E94062523C00E94292520C00E940924BF
:1042B00089831CC06B8170E089819A81AE014C5F5B
:1042C0005F4F9827892798270E9489240FC06B8108
:1042D00070E089819A81AE014C5F5F4F98278927F2
:1042E00098270E94AD2402C08FEF8883602FCE01F3
:1042F000DF91CF911F910F91FF90EF900C94522975
:10430000CF93DF93EC01FB018281882309F43CC148
:10431000C330FDE5DF0760F4CA3F9CE5D90788F4A8
:104320009E0122503C452431310508F02EC109C0C0
:10433000C136EDE5DE0729F0C53AFDE5DF0709F0F6
:1043400024C10E94D20F9093220480932104C13192
:104350008CE5D80709F4C6C008F042C0C930ECE5C6
:10436000DE0709F49BC000F5C5308CE5D80709F4D9
:1043700085C078F4C330ECE5DE0709F478C008F0B6
:104380007AC0C230DC4509F0F5C08091210481601B
:10439000EFC0C7309CE5D90709F478C008F07AC0AF
:1043A000809121048061E4C0CD30FCE5DF0709F491
:1043B00087C058F4CB309CE5D90709F479C008F0E0
:1043C0007BC08091210488606FC0CF30FCE5DF079F
:1043D00009F480C008F082C080912104877FC8C0A2
:1043E000CD3F9CE5D90709F471C000F5C531FCE566
:1043F000DF0709F485C068F4C3319CE5D90709F4E7
:1044000075C008F095C00E94460A809121048F77FC
:10441000AFC0CB3FFCE5DF07A9F108F054C0CA3FAD
:10442000DC4509F0A7C08091220440C0C130EDE511
:10443000DE0709F489C058F4CF3F8CE5D80709F4AA
:104440005AC008F069C08091220482602FC0C13632
:10445000EDE5DE0709F47CC0C53AFDE5DF0709F4A8
:1044600081C0C230DD4509F085C080E06EC080911A
:10447000210482607DC08091210416C080912104B6
:10448000886076C08091220482604FC080912104B0
:1044900080626EC08091210480646AC00E94460AD6
:1044A00080912104806864C0846062C081603DC0E6
:1044B000809121048E7F5CC0809121048D7F58C043
:1044C0008091210416C08091220418C0809122049A
:1044D0008D7F2BC0809121048F7E4AC08091210462
:1044E0008F7D46C0809121048F7B42C08091210442
:1044F000877F8B7F3DC0809122048D7F8E7F15C08A
:104500008091210482FB222720F991E0922790FBE1
:1045100082F990FB83F92CC080912204982F90950A
:1045200091708E7F892B90FB81F98093220422C0A9
:104530000E94460A8091210487FB222720F991E0FE
:10454000922790FB87F914C081E00E94681012C086
:104550008091210484FB222720F991E0922790FB8F
:1045600084F906C080912104982F909590FB80F9E2
:104570008093210480912104909122040E94E30FF2
:104580000E94460A80E001C081E0DF91CF9108954A
:10459000893289F1F0F4843171F1B0F4873009F097
:1045A00077C081E080930F0184E180930E018AE05F
:1045B00080930D018EE180930C0188E080930901C6
:1045C00088E28093080164C092EE980F9A30F0F070
:1045D0005FC0803509F444C028F48F3409F058C016
:1045E0008AE03FC0813529F0823509F051C081E071
:1045F00038C08FEF36C08091EE03882379F1109296
:10460000EE031092ED031092EC0342C08D518093A3
:10461000EE03833099F038F4813069F08230D9F4B8
:104620008EE091E00DC0853099F078F0863099F4F5
:1046300088E091E005C08FE091E002C08DE091E05C
:104640009093ED038093EC0323C08CE091E0F8CFCE
:1046500089E091E0F5CF1092EE031AC080E0089552
:1046600086EFE091EC03F091ED03309789F0208123
:10467000082E000C990B820F911D8F3F910519F0A8
:1046800014F08FEF04C097FF02C0108201C0808336
:1046900081E00895482F50E0FA013597EF33F10596
:1046A00008F068C0EB58FF4F0C94A2300E946610CF
:1046B0005DC080918F02817F8E7F80938F0281E029
:1046C0008093EF0308950E94E10450C080918F020F
:1046D000982F9095917090FB80F980938F029111A3
:1046E00045C0897F877F10C080918F0281FB222780
:1046F00020F991E0922790FB81F980938F02992312
:10470000A9F180918F02816080938F022FC08091E8
:104710008F0282FB222720F991E0922790FB82F9F9
:10472000ECCF80918F0283FB222720F991E0922722
:1047300090FB83F9E2CF0E94460A8091210487FB17
:10474000222720F991E0922790FB87F9809321049A
:104750000DC0895301C08D5191E001C0990F8A9518
:10476000EAF7892F0E94980A0E94460A81E008957C
:1047700081E0F8CF80E0089580E008950C94BC2398
:10478000CF93C82F8091EF03813069F038F08230E9
:10479000C1F58C2F0E94C82281E039C00E94D60E3C
:1047A000823289F504C00E94D60E823261F48C2FC9
:1047B0000E94BE23811104C08C2F0E944A231FC077
:1047C00081E090E01CC08C2F0E94BC23811116C098
:1047D000C43189F058F4CB3089F0C031B1F482E0B3
:1047E0008093EF0388E30E94C82208C0C93219F001
:1047F000C83321F00AC01092EF0307C081E0817036
:1048000006C01092EF0380E002C080E0F8CFCF91A5
:10481000089584E0089550E0440F551F2CE1629FF5
:10482000400D511D11249A016CE8869F200D311D09
:104830001124C901879608950F931F93CF93DF9397
:104840000E940B248C010E945631C82FD0E0DC2F2F
:10485000CC27C80101960E9456319E01282BC90120
:10486000DF91CF911F910F9108950F931F93CF93D5
:10487000DF93122F032F0E940B24EC01602F0E9464
:104880006A31612FCE010196DF91CF911F910F9177
:104890000C946A31AF92BF92CF92DF92EF92FF9267
:1048A0000F931F93CF93DF93A12CE12CF12CB12C0C
:1048B00000E010E0C0E0D0E06701C00ED11EFE01B4
:1048C000EE0FFF1FEC0DFD1DE458FE4F25913491B6
:1048D0004C2F6B2D8A2D0E9435242196CE30D10588
:1048E00071F7045E1F4FB39485E0B812E3CF8CE8F4
:1048F000E80EF11CA39484E0A812D9CFDF91CF91E8
:104900001F910F91FF90EF90DF90CF90BF90AF90ED
:104910000895EF92FF920F931F93CF93DF93EA01D5
:104920007A01E60EF71E8C01C8018796CE15DF05C9
:1049300069F0003322E0120720F40E945631888388
:1049400001C0188221960F5F1F4FEECFDF91CF91EC
:104950001F910F91FF90EF900895EF92FF920F93A8
:104960001F93CF93DF93EA017A01E60EF71E8C01C5
:10497000C8018796CE15DF0559F0003322E01207F3
:1049800018F468810E946A3121960F5F1F4FF0CFA3
:10499000DF91CF911F910F91FF90EF900895462FD7
:1049A000843038F4753028F46E3018F4672F0C9486
:1049B0001C2480E090E0089580E1089589EA91E068
:1049C0000895EF92FF920F931F93CF93DF93EA0125
:1049D0007A01E60EF71E8C01C801895A9D4FCE154B
:1049E000DF0569F0093A21E0120720F40E945631F0
:1049F000888301C0188221960F5F1F4FEDCFDF9192
:104A0000CF911F910F91FF90EF900895EF92FF9239
:104A10000F931F93CF93DF93EA017A01E60EF71EFF
:104A20008C01C801895A9D4FCE15DF0559F0093A0E
:104A300021E0120718F468810E946A3121960F5F05
:104A40001F4FEFCFDF91CF911F910F91FF90EF900C
:104A50000895CF93DF93C7E5D2E060E0CE010E94D6
:104A60006A312196C11584E0D807B9F7DF91CF915B
:104A70000895DF92EF92FF920F931F93CF93DF93EE
:104A800000D000D0CDB7DEB7F82E8FE08F15E8F15B
:104A90008FEF93E00E945631811137C007E512E095
:104AA000FF2069F0011584E0180779F1C8010E9420
:104AB0005631811101C0FA940F5F1F4FF1CF198257
:104AC0001A821B821C82DD24D39478018FEFE81AAE
:104AD000F80AC8010E94563189831A828823A9F0F6
:104AE0009FEF980F933058F48A83D9820E5F1F4F3F
:104AF000C7010E9456318B83882339F07801CE019B
:104B000001960E9427068701E0CF0F900F900F902B
:104B10000F90DF91CF911F910F91FF90EF90DF9059
:104B20000895CF93DF9386319C4541F5EB010E94B8
:104B3000D60E982F8A812091060130910701882393
:104B400079F09A7A81E009F480E08093F003911182
:104B500002C069E201C065E3C9010E9487270AC05B
:104B60008091F003811102C069E201C065E3C901CF
:104B70000E9492270E94180F80E001C081E0DF911F
:104B8000CF9108950F931F93CF93DF93C42FD22F0C
:104B9000FC0182818823C9F04093F3030E944B28D3
:104BA0009093F2038093F10380E28C0F883008F039
:104BB00057C0C77081E001C0880FCA95EAF7DF913E
:104BC000CF911F910F910C94D4078091F303481358
:104BD00030C08091F1039091F2030E946328883CD9
:104BE000910538F510E21D0FCD17B9F080E28C0F5A
:104BF000883040F4C77081E001C0880FCA95EAF799
:104C00000E94DB07183028F581E09D2F977001C0C6
:104C1000880F9A95EAF70E94D407802F0E94CB074D
:104C20001830F0F4D77081E001C0880FDA95EAF708
:104C30000AC080E28C0F883098F4C77081E001C010
:104C4000880FCA95EAF7DF91CF911F910F910C94CD
:104C5000DB07802FDF91CF911F910F910C94CB0731
:104C6000DF91CF911F910F9108950F939C01CB017C
:104C7000233F4CE5340731F188F4283DFCE53F073C
:104C8000D9F0293D4CE5340779F1273D3C45A9F59C
:104C900006E221EE41EE67ED7CE52BC0253FFCE509
:104CA0003F07E1F0A8F0263F3C4539F507E225EE45
:104CB00046EE66EF7CE51DC007E225EE45EE68EDA9
:104CC0007CE517C006E221EE40EE63EF7CE511C003
:104CD00007E225EE44EE64EF7CE50BC006E221EE30
:104CE00042EE65EF7CE505C008E221E045EE69EDA6
:104CF0007CE50E94C22580E008C0FC0182818823F7
:104D000019F01092F30301C081E00F910895909380
:104D1000E1018093E00108959093F9038093F803F3
:104D20000895E091F803F091F903309721F0019094
:104D3000F081E02D099480E00895E091F803F0916E
:104D4000F903309799F020912F01222359F02091F7
:104D5000210427FF07C0DC012C9111962C93119799
:104D600026E02C930280F381E02D09940895E091D0
:104D7000F803F091F903309739F022E0DC012C932D
:104D80000480F581E02D099408952091F603309177
:104D9000F7032817390771F09093F7038093F60310
:104DA000E091F803F091F903309721F00680F78144
:104DB000E02D099408952091F4033091F50328170C
:104DC000390771F09093F5038093F403E091F803B1
:104DD000F091F903309721F00084F185E02D0994DA
:104DE0000895FC01329680912F01882331F0809143
:104DF000210487FF02C09EE101C096E080E091504F
:104E000028F021912223D9F38F5FF9CF08956623EB
:104E100051F120912F012223E9F02091210427FF55
:104E200019C0462F4695469546954E31E0F4677079
:104E300021E030E002C0220F331F6A95E2F7FC0147
:104E4000E40FF11D828190E02823392381E0232B98
:104E500069F409C0FC01329608962191621729F085
:104E6000E817F907D1F780E0089581E008959C01E3
:104E7000FC0132969FEF80E04191461789F09F3FF9
:104E800019F4411101C0982F8F5F8630A9F79F3F19
:104E900039F0F901E90FF11D97FDFA956283089544
:104EA00008959C012A5F3F4FFC014281461301C0D7
:104EB0001282019682179307B9F70895262F269537
:104EC000269526952E3168F4FC01E20FF11D6770DE
:104ED00021E030E001C0220F6A95EAF78281282B99
:104EE00022830895262F2695269526952E3170F437
:104EF000FC01E20FF11D677021E030E001C0220FDC
:104F00006A95EAF7209582812823228308952091CB
:104F10002F01222329F02091210427FD0C945E27E4
:104F20000C94372720912F01222329F0209121046E
:104F300027FD0C9472270C94512720912F01FC011E
:104F40003296222331F08091210487FF02C08EE146
:104F500001C086E0DF011D928A95E9F70895089562
:104F60000C94AF2783E08093FA030C94B02781114F
:104F700002C081E001C082E08093FA030C94B02764
:104F80000C94B72781E08093FA030C94B0270C941B
:104F9000C22708950C94C9270C94CA270C94C927DA
:104FA0000C94C9270C94C927CF930E94D0270E9444
:104FB00051140E94CE27C0E08C2F0E947B13892BB6
:104FC00029F4CF5FC530C1F780E001C081E0CF9107
:104FD000089508951F920F920FB60F9211248F9388
:104FE0009F93AF93BF938091FB03811113C0809176
:104FF000FC049091FD04A091FE04B091FF04419641
:10500000A11DB11D8093FC049093FD04A093FE04A8
:10501000B093FF04BF91AF919F918F910F900FBEFE
:105020000F901F90189580910405843031F10E94F3
:1050300050051092FB0320E488E190E00FB6F8944D
:10504000A895809360000FBE2093600083B7817F96
:10505000846083BF83B7816083BF7894889583B76A
:105060008E7F83BF0FB6F894A89580916000886109
:1050700080936000109260000FBE08950E94460A5F
:105080000C94540582E084BD93E095BD9DE797BDE7
:1050900080936E0008952FB7F8948091FC0490914E
:1050A000FD04A091FE04B091FF042FBF08952FB717
:1050B000F8946091FC047091FD048091FE0490913D
:1050C000FF042FBF08959C014FB7F8948091FC0412
:1050D0009091FD04A091FE04B091FF044FBF821B8C
:1050E000930B089578941F920F920FB60F9211248C
:1050F0008F939F93AF93BF938091FC049091FD0495
:10510000A091FE04B091FF040196A11DB11D8093F2
:10511000FC049093FD04A093FE04B093FF04BF91A0
:10512000AF919F918F910F900FBE0F901F90189588
:1051300081E08093E00080E28093D8001092C90063
:105140008FE097E20197F1F700C0000087E090EB55
:10515000DC0180930D0590930E05A0930F05B0938D
:1051600010059CE088E10FB6F894A8958093600044
:105170000FBE90936000FFCF80911F0408950895A3
:1051800024E02093E9002FEF3091E800215035FD15
:1051900006C03AE63A95F1F700C02111F5CF20910B
:1051A000E80025FF0BC040E050E066E070E00E94A0
:1051B000662B8091E8008E778093E8000895CF9366
:1051C000DF9320912F01222339F02091210427FF22
:1051D00003C060E224E002C068E021E02093E9001F
:1051E0002FEF3091E800215035FD06C03AE63A95A0
:1051F000F1F700C02111F5CF2091E80025FF1DC077
:10520000EC0180912F01811105C040E050E068E081
:1052100070E003C070E040E050E0CE010E94662BD9
:105220008091E8008E778093E80080E2FE01AFEF86
:10523000B3E001900D928A95E1F7DF91CF91089547
:105240008093FC037093FE036093FD03809104053B
:105250008430F9F48093E9008FEF9091E800815059
:1052600095FD06C09AE69A95F1F700C08111F5CF39
:105270008091E80085FF0DC040E050E063E070E001
:105280008CEF93E00E94662B8091E8008E778093EC
:10529000E8000895BC0184E00C942029BC0183E05F
:1052A0000C942029CF93603219F520910405243005
:1052B000F9F4C091E900CF703091EC00232F2170F8
:1052C00030FD20E8C22B22E02093E9002091E80085
:1052D00020FF0BC040E050E060E270E00E94662BCF
:1052E0008091E8008E778093E800CF70C093E9004A
:1052F000CF91089580910305811109C00E94422D2C
:105300000E949F2D8091E20084608093E2000895C6
:105310001092030508950C94C7276091000581E061
:10532000611101C080E00C94B2279091040581E0E6
:10533000943009F080E0609100050C94B72742E0BA
:1053400061EC81E00E94BB2C42E261EC84E00E94AF
:10535000BB2C42E261EC82E00E94BB2C42E260EC9A
:1053600083E00E94BB2C9091040581E0943009F009
:1053700080E0609100050C94C02780910605833081
:1053800009F463C030F4813071F0823009F49CC0BC
:1053900008958A3009F488C08B3009F46EC08930D2
:1053A00009F0AAC020C080910505813A09F0A4C087
:1053B0008091E800877F8093E800809109059091B3
:1053C0000A05892B21F460E28FEF93E003C060E0CF
:1053D00080E090E070E00E94FC2B8091E8008B77E9
:1053E0008093E800089580910505813209F084C01A
:1053F0008091090590910A05009719F0029709F02C
:105400007BC08091E800877F8093E8008091E8006E
:1054100082FD05C0809104058111F8CF6DC02091F7
:10542000F3008091F20090E0922B029731F480918A
:10543000F100813011F0863021F48091F1008093E9
:105440001F048091E8008B7753C080910505813A55
:1054500009F052C08091090590910A05892B09F045
:105460004BC08091E800877F8093E8008091E8003E
:1054700080FFFCCF80912F0136C0809105058132DD
:10548000D9F58091090590910A05892BA9F580919C
:10549000E800877F8093E8000E94F02C8091070548
:1054A00080932F010C94460A80910505813221F5E5
:1054B0008091E800877F8093E8000E94F02C809123
:1054C000080580932004089580910505813AA1F490
:1054D0008091E800877F8093E8008091E80080FF5A
:1054E000FCCF809120048093F1008091E8008E77BA
:1054F0008093E8000C94F02C089584B7877F84BFD4
:105500000FB6F894A8958091600088618093600040
:10551000109260000FBE90E080E80FB6F894809380
:105520006100909361000FBE0C94C2270E94422D2F
:105530000E949F2DE2EEF0E0808184608083789469
:105540000C94313083E291E00C948C268091040518
:105550008530A9F480910405853079F40E941328E0
:10556000809102058823B1F30E94D427882391F308
:105570000E94512B0E94460AEDCF0C943E280895BC
:10558000CF93DF93CDB7DEB7A0970FB6F894DEBF09
:105590000FBECDBF80910405843011F583E0809368
:1055A000E9008091E80082FF1BC08091E80085FF40
:1055B0000AC040E050E060E270E0CE0101960E9437
:1055C000B12B91E001C090E08091E8008B7780934F
:1055D000E800992329F060E2CE0101960E94C820DC
:1055E000A0960FB6F894DEBF0FBECDBFDF91CF916E
:1055F00008950C94FB2A292F332723303105C9F055
:1056000060F42130310581F02230310509F041C0CC
:105610008BE590E02CEC36E040C021323105E1F022
:105620002232310531F135C082E190E027E237E0E6
:1056300034C099278130910549F028F0029749F547
:10564000E6E7F6E005C0E8ECF6E002C0E4E9F6E0E3
:10565000849190E09F0121C063307105D0F4660F02
:10566000771FFB01E752FE4F2081318189E090E0F6
:1056700014C06330710568F4FB01EE0FFF1FED529B
:10568000FE4F20813181FB01E053FE4F808190E08D
:1056900004C080E090E020E030E0FA013183208314
:1056A000089519BC82E089BD09B400FEFDCF809148
:1056B000D8008F7D8093D8008091E0008260809335
:1056C000E0008091E00081FDFCCF0895CF92DF9251
:1056D000EF92FF920F931F93CF93DF93EC018B0117
:1056E0007A010E940F2D811133C0E114F10439F0C9
:1056F000F70180819181081B190BC80FD91FC12C9C
:10570000D12C0115110519F18091E80085FD16C015
:105710008091E8008E778093E800E114F10449F06D
:10572000F70180819181C80ED91ED182C08285E0A7
:105730000FC00E940F2D882321F30AC08991809306
:10574000F10001501109FFEFCF1ADF0ADACF80E034
:10575000DF91CF911F910F91FF90EF90DF90CF904D
:105760000895CF92DF92EF92FF920F931F93CF9302
:10577000DF93EC018B017A010E940F2D811133C060
:10578000E114F10439F0F70180819181081B190BB4
:10579000C80FD91FC12CD12C0115110519F1809109
:1057A000E80085FD16C08091E8008B778093E800C3
:1057B000E114F10449F0F70180819181C80ED91EEE
:1057C000D182C08285E00FC00E940F2D882321F373
:1057D0000AC08091F100899301501109FFEFCF1A9F
:1057E000DF0ADACF80E0DF91CF911F910F91FF9018
:1057F000EF90DF90CF90089520910B0530910C052C
:105800002617370748F06115710539F42091E80033
:105810002E772093E80001C0B901FC0120E061155A
:10582000710579F1809104058823F1F18530F1F15A
:105830008091E80083FD3CC08091E80082FD2EC08D
:105840008091E80080FFEBCF2091F3008091F2007F
:1058500090E0922B6115710551F08830910538F474
:1058600021912093F100615071090196F3CF21E05D
:10587000089709F020E08091E8008E778093E80097
:10588000CECF2111CFCF0AC080910405882361F0CB
:10589000853061F08091E80083FD0AC08091E800C6
:1058A00082FFF2CF80E0089582E0089583E00895BA
:1058B00081E0089520910B0530910C0526173707DC
:1058C00048F06115710539F42091E8002E77209396
:1058D000E80001C0B901FC0120E06115710591F1FA
:1058E00080910405882309F440C0853009F43FC045
:1058F0008091E80083FD3DC08091E80082FD2FC0CB
:105900008091E80080FFE9CF2091F3008091F200C0
:1059100090E0922B6115710559F08830910540F4A3
:1059200024912093F1003196615071090196F2CFD4
:1059300021E0089709F020E08091E8008E778093BD
:10594000E800CBCF2111CCCF0AC080910405882379
:1059500061F0853061F08091E80083FD0AC080919C
:10596000E80082FFF2CF80E0089582E0089583E0AE
:10597000089581E00895982F973068F59093E90095
:10598000981739F07091EC002091ED005091F000E3
:1059900003C0242F762F50E021FD02C09F5FECCF83
:1059A0003091EB003E7F3093EB003091ED003D7F76
:1059B0003093ED003091EB0031603093EB00709349
:1059C000EC002093ED005093F0002091EE0027FDB5
:1059D000E5CF80E008958F708093E90081E008951D
:1059E0008091050587FF11C08091E80082FD05C008
:1059F000809104058111F8CF11C08091E8008B7768
:105A00000BC080910405882349F08091E80080FF55
:105A1000F8CF8091E8008E778093E8000895209178
:105A2000E4003091E50095E64091EC00842F817010
:105A300040FF23C08091E80080FD1DC080910405D7
:105A4000882399F0853099F08091EB0085FD11C095
:105A50004091E4005091E5002417350729F3915057
:105A600011F09A01E1CF84E0089582E0089583E087
:105A7000089581E0089580E008954091E80042FF94
:105A8000DDCF08950E94B02D0E94B82DE0EEF0E029
:105A9000808181608083E8EDF0E080818F77808372
:105AA00019BCA7EDB0E08C918E7F8C9380818F7EA6
:105AB00080831092030508950F931F93CF93DF9374
:105AC0000E94B02D0E94B82DC8EDD0E088818F775C
:105AD000888388818068888388818F7D888319BCCA
