:100000000C943D030C9408280C9475030C94750310
:100010000C9475030C9475030C9475030C94750380
:100020000C9475030C9475030C94C12F0C949330AD
:100030000C94042A0C9475030C9475030C947503AA
:100040000C9475030C9475030C9475030C94750350
:100050000C9475030C94A82A0C9475030C947503E6
:100060000C9475030C9475030C9475030C94750330
:100070000C9475030C9475030C9475030C94750320
:100080000C9475030C9475030C9475030C94750310
:100090000C9475030C9475030C9475030C94750300
:1000A0000C9475030C9475030C9475032E072E079E
:1000B0005A075A07C207BC08BC08BC08E007480832
:1000C000590859084D2150217021812189219421FD
:1000D00097219A219D21E321E321A021A321A82199
:1000E000B521C221C521C921D621003127311F32B6
:1000F00027311F32733196311F32ED31FC31290027
:1001000014001A000800150017002B000400160048
:10011000070009000A00E1001D001B00060019008D
:100120000500E000E300E2004C0001512C00A800B3
:10013000130012000C0018001C00280033000F00F0
:100140000E000D000B00E5003800370036001000EF
:1001500011002D00340030002F0002512A0035001C
:100160001E001F00200021002200010001000100EC
:1001700052000100010001000100500051004F0039
:100180000100010001000100010001510100010016
:100190002700260025002400230001000100230081
:1001A0002200210001000100310020001F001E007C
:1001B00001002E00310037002700270001003A001F
:1001C0003B003C003D003E003F00C55CC75CC95C95
:1001D000C35C0100C25CC65CC85CCA5CC45C010054
:1001E000C25C0100010001000100010001004500A6
:1001F00044004300420041004000010001000100B2
:100200000100010001000100520001000100010095
:1002100001004F0051005000010002510100010097
:1002200001000100010001000100010001000100C6
:1002300001000100010001000100010001000100B6
:1002400001000100010001000100010001000100A6
:100250000100010001000100010001000100010096
:100260000100010001000100010001000100010086
:100270000100010001000100010001000100000077
:100280000000000000002A2B2800000000000000F1
:1002900000000000000000000029000000002C1EEB
:1002A0003420212224342627252E362D3738271EA8
:1002B0001F202122232425263333362E37381F04CE
:1002C00005060708090A0B0C0D0E0F101112131466
:1002D00015161718191A1B1C1D2F3130232D350424
:1002E00005060708090A0B0C0D0E0F101112131446
:1002F00015161718191A1B1C1D2F3130354C00000C
:1003000000000000000000000000000000000000ED
:1003100000000000000000000000000000000000DD
:1003200000007E0F00D4FFFFFFC70000007800042C
:100330007F3F1F643214643214783C1E1E140A0579
:100340002223252628292A2C2D2F303233353638E2
:100350003A3B3D3E4042434547494A4C4E5051533B
:100360005557595A5C5E6062646668696B6D6F715F
:10037000737577797B7D7F81838587898A8C8E9061
:10038000929496989A9C9E9FA1A3A5A7A8AAACAE6A
:10039000AFB1B3B4B6B8B9BBBCBEBFC1C2C3C5C6AA
:1003A000C7C9CACBCCCDCED0D1D2D2D3D4D5D6D753
:1003B000D7D8D9D9DADADBDBDBDCDCDCDCDCDDDD91
:1003C000DDDDDCDCDCDCDCDBDBDBDADAD9D9D8D781
:1003D000D7D6D5D4D3D2D2D1D0CECDCCCBCAC9C723
:1003E000C6C5C3C2C1BFBEBCBBB9B8B6B4B3B1AF5A
:1003F000AEACAAA8A7A5A3A19F9E9C9A98969492FA
:10040000908E8C8A89878583817F7D7B79777573D0
:10041000716F6D6B6968666462605E5C5A595755AE
:100420005351504E4C4A4947454342403E3D3B3A6A
:100430003836353332302F2D2C2A292826252322F1
:10044000FFAA7F554000010203040506070F0E0DA9
:100450000C0B0A090800010101010101010101025F
:100460000202020202020202030303030303030364
:10047000040404040404040505050505060606062F
:1004800006070707070708080808090909090A0AEB
:100490000A0B0B0B0C0C0C0D0D0D0E0E0E0F0F0F8F
:1004A000101011111112121313141415151616171A
:1004B00017181819191A1A1B1B1C1D1D1E1E1F2088
:1004C00020212222232424252626272829292A2BD5
:1004D0002C2D2D2E2F3031323233343536373839FA
:1004E0003A3B3C3D3E3F40414243444546474849F4
:1004F0004A4C4D4E4F50515354555658595A5B5DC6
:100500005E5F616264656668696B6C6D6F70727363
:100510007577787A7B7D7E8082838587888A8C8ECA
:100520008F91939596989A9C9EA0A2A3A5A7A9ABFC
:10053000ADAFB1B3B5B7BABCBEC0C2C4C6C9CBCDEE
:10054000CFD1D4D6D8DBDDDFE2E4E7E9EBEEF0F3A0
:10055000F5F8FAFDFF0C037A0070006C0069007476
:10056000000000100366006C00750078006C0061EC
:1005700000620000000403090409025B000301009B
:10058000A0FA090400000103010100092111010082
:10059000012240000705810308000109040100024F
:1005A0000300000009211101000122220007058239
:1005B00003200001070503032000010904020001D4
:1005C0000300000009211101000122320007058407
:1005D00003200001120100020000000876700100F3
:1005E0000100010200010660FF0961A10109621515
:1005F0000026FF009520750881020963150026FF7B
:1006000000952075089102C005010980A1018503AC
:1006100019012AB700150126B70095017510810050
:10062000C0050C0901A101850419012AA0021501C8
:1006300026A002950175108100C005010906A101DF
:10064000050719E029E715002501950875018102C4
:100650009501750881010507190029FF150026FF7E
:10066000009506750881000508190129059505758D
:10067000019102950175039101C011241FBECFEFB6
:10068000DAE0DEBFCDBF04B603FE18C0809143039D
:1006900090914403A0914503B09146038730904B5D
:1006A000A740B04B59F410924303109244031092A8
:1006B000450310924603E0E0F8E3099512E0A0E05C
:1006C000B1E0E6EAF6E602C005900D92A830B10767
:1006D000D9F723E0A8E0B2E001C01D92A334B2072D
:1006E000E1F70E94A5170C9451330C94000023E00D
:1006F00042E061E00C94D703662311F08AEA01C05E
:1007000089EA0E94DC0681E0089581E0089581E095
:1007100008950C94870308950C948B031F93CF9333
:10072000DF9300D000D01F92CDB7DEB749835A8344
:100730006B8330910B0289819A81311114C0662339
:1007400059F0222349F00E94490A182F682F898105
:100750009A810E94F00903C00E941C0A182F698127
:100760007A81812F04C00E94490A69817A810F90A1
:100770000F900F900F900F90DF91CF911F910C94DD
:10078000EF24FC01262F4081518162817381848195
:100790000C948E0381E00895CF93DF93EC0160E029
:1007A0000E94C103BE01DF91CF910C948C03E1E064
:1007B000F0E0DF0102C0AA0FBB1F6A95E2F7BD019E
:1007C000DF0102C0AA0FBB1F4A95E2F7AD01462B1D
:1007D00001C0EE0F2A95EAF7942F9823491302C01F
:1007E0008E2B0895E0958E230895242F462F682F91
:1007F00080911E020E94D7030C94AD090C94DA126A
:100800000C94D61208950E9448090E9402042FEF0A
:1008100084E39CE0215080409040E1F700C000005C
:100820000C94CE2A0F931F93CF93DF938C0161E03A
:100830000E94C103EC01B8010E94A520882309F49D
:100840004BC0B801CE010E948903882309F444C03B
:10085000B801CE010E9415278823F1F1B801CE011D
:100860000E9407228823C1F1B801CE010E9471269F
:10087000882391F1B801CE010E94431F882361F1C2
:10088000F8018281882309F1CA358DE5D807C1F0C6
:1008900050F4C115FCE5DF0781F0CE3DDC45A9F43D
:1008A0000E946A0F19C0CB35EDE5DE0761F0CC354B
:1008B000DD4559F40E94AE0E08C00E9403040CC02E
:1008C0000E94B70E02C00E94BA0EC801DF91CF91FC
:1008D0001F910F910C94850380E0DF91CF911F91C0
:1008E0000F9108950E94E7290C945D050E94600510
:1008F0000C94ED29DF92EF92FF920F931F93CF9309
:10090000DF93E82FF0E0E258FD4FD490282F269592
:100910002695269530E0F901E25EFC4F0491877040
:1009200010E0082E02C0159507950A94E2F70170B1
:100930001127F901E25FFC4FE490F12C082E02C070
:10094000F594E7940A94E2F791E0E922FF24F90193
:10095000E250FD4FC491D0E002C0D595C7958A956D
:10096000E2F7C170DD270115110519F081EE0E9433
:10097000BF05E114F10419F086EE0E94BF058D2D2C
:100980000E94DC06EF2819F086EE0E946606012B15
:1009900019F081EE0E946606CD2B51F08CE2DF91BA
:1009A000CF911F910F91FF90EF90DF900C94DC0698
:1009B000DF91CF911F910F91FF90EF90DF900895FD
:1009C000EF92FF920F931F93CF93DF93EC01162FBB
:1009D0000AE08881882309F455C0813009F043C0BA
:1009E0008981813041F47E0182E0E80EF11C8A8128
:1009F0000E94DC0609C0823049F47E01E2E0EE0E7E
:100A0000F11C8A810E94BF05E7012FC0833041F4A9
:100A10007E01F2E0EF0EF11C8A810E946606F4CF9F
:100A2000843011F0219621C02A81229680E090E046
:100A300030E0205331092A30310558F4089FA001D5
:100A4000099F500D1124C901840F951F21962881FB
:100A5000EFCF009751F0EFE9FFE03197F1F700C0D9
:100A600000000197F6CF0E947A042196812F8823F7
:100A700009F4AFCFEFE9FFE03197F1F700C00000D4
:100A80008150F5CFDF91CF911F910F91FF90EF90A3
:100A9000089560E00C94E00408950C944C0581E006
:100AA00008950C944F050895CF93C82F0E944D05CB
:100AB0008C2F0E945105CF91089580E00C9454052D
:100AC0000E9433290C9454050E94332990910A0204
:100AD000891721F080930A020C9454050895CF934E
:100AE000DF93CDB7DEB72B970FB6F894DEBF0FBEFE
:100AF000CDBF4F83588769877A878B8761110E94A2
:100B0000FA0D9E012F5F3F4F86E0F90111928A9501
:100B1000E9F785E0FE013796D90101900D928A959B
:100B2000E1F789819A814C815D81452B31F09F3FAE
:100B300031F491E08F3F19F403C091E001C090E0DF
:100B400090FF09C049815A816B817C818D819E8192
:100B50000E941B0D05C0C9010E94CA038111F2CF7A
:100B60002B960FB6F894DEBF0FBECDBFDF91CF91AD
:100B70000895FC01808191810E94760A0895CF93A7
:100B8000882309F4A1C0C82F8238C1F40E943329F8
:100B900081FD9AC069E380910201909103010E9456
:100BA000BF290E941C0E2FEF81EE94E0215080405F
:100BB0009040E1F700C0000069E319C0833801F5F7
:100BC0000E94332980FD80C063E5809102019091ED
:100BD00003010E94BF290E941C0E2FEF81EE94E0BA
:100BE000215080409040E1F700C0000063E5809113
:100BF0000201909103010E94C129CF910C941C0E17
:100C00008438C1F40E94332982FD5EC067E480917C
:100C10000201909103010E94BF290E941C0E2FEF38
:100C200081EE94E0215080409040E1F700C0000048
:100C300067E4DDCF8CEF8C0F813AF8F48C2F0E94A3
:100C4000ED23811141C06C2F80910201909103012D
:100C50000E948929882349F06C2F8091020190918C
:100C600003010E94C1290E941C0E6C2F8091020179
:100C7000909103010E94BF29C0CF80E28C0F883081
:100C800048F4C77081E001C0880FCA95EAF70E9456
:100C9000DD0DB3CFEBE5EC0FE33040F4F0E0ED57C2
:100CA000FE4F808190E0CF910C945129C85AC731F2
:100CB00058F4EC2FF0E0EE0FFF1FEB5AFE4F80814F
:100CC0009181CF910C946729CF910895882309F4DD
:100CD0005BC0682F823879F40E94332981FF54C0A9
:100CE00069E380910201909103010E94BF290E9453
:100CF0001C0E69E310C08338B1F40E94332980FFD1
:100D000043C063E580910201909103010E94BF29D5
:100D10000E941C0E63E580910201909103010E94E4
:100D2000C1290C941C0E843879F40E94332982FF67
:100D30002BC067E480910201909103010E94BF29BA
:100D40000E941C0E67E4E7CF8CEF860F813A18F300
:100D500080E2860F883048F4677081E001C0880F18
:100D60006A95EAF70E94E30DDCCF8BE5860F8330AE
:100D700020F480E090E00C945129685A673120F407
:100D800080E090E00C94672908951F93CF93DF9340
:100D9000182FEB010E94BF05209741F08FE99FE0DB
:100DA0000197F1F700C000002197F6CF812FDF9166
:100DB000CF911F910C946606893319F060E070E0C2
:100DC00002C060E570E00C94C506882321F00E9403
:100DD000DD0D0C941C0E0895882321F00E94E30D74
:100DE0000C941C0E0895CF92DF92EF92FF920F9316
:100DF0001F93CF93DF937C01162FC72FFC01D28165
:100E0000058102950F700E94D30D8823B9F0DD2370
:100E1000A9F08C2F807F803421F080E2810F883010
:100E200068F08091EA0282FD09C082E00E947C0E97
:100E30000E94D30D91E0D82ED92601C0D12CCC2E02
:100E4000C2948FE0C8228C2D90E08C30910508F080
:100E500093C1FC01EA5AFF4F0C94A8328C2F807F7B
:100E6000CF70882311F0C295C07FDD2399F0CC2389
:100E700009F46EC180E2810F883010F0111104C0B6
:100E80008C2F0E94DD0D03C08C2F0E94ED0D0E945F
:100E90001C0E5EC1812F0E946606CC2309F46CC132
:100EA00080E2810F883038F1112329F18C2F0E94C4
:100EB000F30D24C08C2F807FCF70803211F0C2954B
:100EC000C07F112319F01130A1F13DC08091EA02D9
:100ED00082FF17C0DD2349F0CC2329F08C2F0E941C
:100EE000DD0D0E941C0E80E034C180E00E94660689
:100EF000CC2309F441C18C2F0E94E30D0E941C0EEB
:100F00003BC1DD2371F0002341F0013031F40E9438
:100F1000FD0D8C2B0E94050E2FC10E94FD0D8C2B08
:100F20001DC0002319F0013009F426C10E94120EE1
:100F300025C0DD2321F0063008F01EC10EC00530AB
:100F400008F01AC11BC0DD2361F0002331F0F70166
:100F5000858180FFFDC08F7085838C2F0E94E50600
:100F60000BC1002359F0193309F003C1FFEF27EE3D
:100F700083E0F15020408040E1F7F9C08C2F0E94BF
:100F8000EC06FAC08C2F86958695837019F0813017
:100F900061F0F2C0DD2321F0812F9C2F937002C0FD
:100FA00080E090E00E945129EFC0DD2321F0812FE5
:100FB0009C2F937002C080E090E00E946729E4C0FB
:100FC0008C2F837079F5D111DBC0412F4295469566
:100FD0004770440F440F212F2F70042E01C0220FA1
:100FE0000A94EAF714FF08C08FE090E001C0880F70
:100FF0004A95EAF7809501C080E0C695C695C37012
:10100000822BC23049F058F4C13019F00E94A10976
:10101000B7C00E949C09B4C00E94A609B1C00E943A
:101020009A09AEC0DD2319F08C2F817001C086951E
:10103000882309F4A5C0412F429546954770440F77
:10104000440F212F2F70042E01C0220F0A94EAF7BB
:1010500014FF08C08FE090E001C0880F4A95EAF7BE
:10106000809501C080E0C695C695C370822BC230C2
:1010700049F058F4C13019F00E94E50981C00E947E
:10108000E0097EC00E94EA097BC00E94AD0978C0D9
:10109000CF70DD2339F08C2F0E94BE09812F0E9472
:1010A000E5066EC0812F0E94EC068C2F0E94C909B4
:1010B00067C0123F21F128F4103F41F0113FC1F009
:1010C00043C0133F19F1143F79F03EC0DD2341F0D6
:1010D000053008F051C08C2F8F710E94D5094CC08B
:1010E000063008F049C0F7CF8091EA0282FF18C0AD
:1010F000DD2339F08C2F8F710E94BE093DC0DD23A6
:10110000C9F38C2F8F710E94C90936C0DD2329F0E5
:101110008C2F8F710E94B6092FC00E94B3092CC07A
:10112000DD2349F0CF718C2F0E94BE0963E08C2F24
:101130000E94610E21C081E00E947C0E0230E0F02E
:1011400082E00E947C0E18C0DD2331F0002391F272
:10115000812F0E94BF0510C0002399F2193349F472
:101160009FEFE7EEF3E09150E040F040E1F700C080
:101170000000812F0E94660688EF8C0D843020F4D9
:101180000E9433290E945405DD20C9F00E94CF0D32
:1011900080FD15C0F70112820E94C90D0E94BE0990
:1011A000C7010E9400090E94C90DDF91CF911F91D4
:1011B0000F91FF90EF90DF90CF900C94C909DF91D1
:1011C000CF911F910F91FF90EF90DF90CF900895F6
:1011D0000F931F93CF93DF93EC01688179818A810C
:1011E0000E94810A8C010E94EF090E948E09B801B9
:1011F000CE010E94F306DF91CF911F910F910895C8
:10120000CF93DF93EC01988189812B813C81232B43
:1012100031F08F3F31F481E09F3F19F403C081E04A
:1012200001C080E080FD1DC0CE010E94120481112A
:1012300010C00E94D30D8823A1F08A81882389F0F1
:101240008091EA0282FD0DC082E0DF91CF910C9483
:101250007C0ECE010E94E808CE01DF91CF910C9464
:10126000CC03DF91CF91089580E090E00E94512956
:1012700080E090E00E9467290E94FA0D0C941C0EF9
:1012800080910201909103010E94C3290C943409BA
:101290000E94EA0D0C94400992959F70963079F067
:1012A00010F4925001C09A50923068F4803F69F077
:1012B00018F4883E40F409C0843F29F406C0883EF3
:1012C00020F0813F11F080E0089581E00895FC0155
:1012D000808191810E94760A0E944C090895CF93E3
:1012E000DF9300D000D01F92CDB7DEB70F900F90E4
:1012F0000F900F900F90DF91CF910895CF93DF93D0
:1013000000D000D000D0CDB7DEB726960FB6F89447
:10131000DEBF0FBECDBFDF91CF9108950895089530
:101320000C948F090C9490090E94920980931F02DB
:101330000C9434090C94940990911F02892B0C94FD
:10134000940990911F0289230C94940990911F0293
:1013500089270C9494090C9477030E94AB0980931D
:101360001E020C94340980E00C94AD0991E001C098
:10137000990F8A95EAF7892F0C94AD0921E030E0A6
:1013800001C0220F8A95EAF780911E02822B0C94ED
:10139000AD0921E030E001C0220F8A95EAF72095DF
:1013A00080911E0282230C94AD0921E030E001C03F
:1013B000220F8A95EAF780911E0282270C94AD09CC
:1013C00090911E02892B0C94AD0990911E028923E5
:1013D0000C94AD0990911E0289270C94AD090895D3
:1013E000292F220F920F990F890FE82FE695E69586
:1013F000E695877051E001C0550F8A95EAF783E0C2
:10140000E89FF0011124E45FFD4F20E030E070E040
:101410004081CB01022E02C0969587950A94E2F78F
:101420008170819584278523842781932F5F3F4F87
:101430002330310569F70895292F220F920F990F54
:10144000890F682F669566956695982F977083E04B
:10145000689FB001112440E050E080E0FB01E40F00
:10146000F51FE45FFD4F208130E0092E02C0369564
:1014700027950A94E2F721703327042E01C0220F2A
:101480000A94EAF7822B4F5F5F4F4330510531F7E3
:101490000895CF92DF92FF920F931F93CF93DF9324
:1014A0006C0100911E0280911F02082BC7E0D0E062
:1014B00010E0C8010C2E02C0959587950A94E2F7BA
:1014C00080FD04C02197A8F7F12C07C0FC2EB601BF
:1014D0008C2F0E946A110197A9F38F2DDF91CF9174
:1014E0001F910F91FF90DF90CF900895CF93DF93DE
:1014F000EC010E94490ABE010E946A11DF91CF915E
:1015000008951F93CF93DF93EB0190910B029923E2
:1015100021F0CB010E94760A13C0882349F0CB0149
:101520000E94490A182F682FCE010E94F00904C0BA
:10153000CB010E941C0A182FBE01812F0E946A1144
:10154000DF91CF911F9108951F93CF93DF93C091A7
:10155000200216E080912102C81799F0D0E01C9F6C
:10156000F0011D9FF00D1124EE5DFD4F4081518172
:1015700062817381848195810E947E092196C77062
:10158000E9CFDF91CF911F91089540915202509180
:1015900053026091540270915502809156029091CD
:1015A00057020C947E09EF92FF920F931F93CF93F3
:1015B000DF938091570282958F7009F065C080910A
:1015C0005402882309F460C080912002F090210227
:1015D000109152020091530260915502709156028F
:1015E00091E01F3F09F090E0C0910001D09101010E
:1015F000292F96E0E92E8F1509F446C06115710573
:1016000021F00F3F21F030E003C031E001C0322F64
:1016100090E030FD36C0E89EF001E99EF00D112407
:10162000DF01AE5DBD4F11963C911197301329C07B
:101630003C91311326C012963C911297311121C072
:1016400013964D915C911497461B570B4C175D07F1
:10165000C0F4809157028F70806180935702E95DDA
:10166000FD4F80818F708061808382E592E00E94CF
:101670000009DF91CF911F910F91FF90EF900C9493
:10168000A40A01968770B7CFDF91CF911F910F9178
:10169000FF90EF9008959F92AF92BF92CF92DF920A
:1016A000EF92FF920F931F93CF93DF93CDB7DEB7E7
:1016B00061970FB6F894DEBF0FBECDBF8C0185E0F9
:1016C000F801DE011D9601900D928A95E1F7D8018F
:1016D0001296EC9090915202E091530220915502A3
:1016E000309156022115310531F0EF3F31F481E0A0
:1016F0009F3F19F403C081E001C080E0B82FB170B2
:101700009B2E80FD47C1D8014C9111965C91119799
:101710001396AD90BC90149782E5C82E82E0D82E27
:10172000F0905402B501621B730B209100013091BF
:101730000101FF2009F4D9C0809157026217730795
:1017400008F095C0282F207F09F052C05E1313C007
:10175000491311C0FE2CE1100EC08F708061809380
:1017600057020E94C50AC6010E94000980915702D3
:10177000F80185834DC1AB2831F05F3F31F481E042
:101780004F3F19F403C081E001C080E080FD03C039
:1017900081E08E2502C080E090E0F82FF170FF2EEE
:1017A00080FF1CC0809120022091210236E0821728
:1017B00009F40BC190E0389FF001399FF00D11241E
:1017C000EE5DFD4F6181561306C06081461303C074
:1017D0006281E61203C001968770E9CFFE2CEE20ED
:1017E00009F416C18091570281608093570254C05A
:1017F0005E1306C0491304C0E11002C0F80199C08D
:10180000C8010E946709882361F1EE2051F12091FF
:101810005702822F82958F7090E0029774F080912A
:1018200052029091530298878F831986BB86AA86AD
:101830002C87CE0107960E94000986E0F801A2E5F8
:10184000B2E001900D928A95E1F70E94D30A0E94BE
:10185000C50A0AC05E1711F1C8010E94670981110B
:101860002CC0C8010E940009FF24F394D1C0282F86
:10187000207F81F77A2DB98AA88A6E2D89890E94E6
:101880006F0982E592E00E94000986E0D6011D9270
:101890008A95E9F70E94C50AF12CBAC04913DCCF3A
:1018A000E110DACFF8018583C8010E94000986E0C3
:1018B000D6011D928A95E9F7ABC0EE2091F22091F6
:1018C0005702822F82958F7090E002970CF4B5CF6B
:1018D00080915202909153029A8389831B82BD8228
:1018E000AC822E83CE010196A6CF6217730708F053
:1018F00044C0FE2CEE2009F4B4CF5E1330C049136F
:101900002EC02091570220FD21C0822F82958F701A
:10191000482F50E041155105C9F0F80125834F309B
:10192000510541F08F5F982F9295907F822F8F7095
:10193000892B8583C8010E94000986E0F801A2E591
:10194000B2E001900D928A95E1F73CC086E0F80183
:10195000A2E5B2E001900D928A95E1F759C0C80165
:101960000E946709811169CF80915702816080933D
:101970005702C8010E9400094BC07A2DB98AA88A73
:101980006E2D89890E946F0986E0D6011D928A9585
:10199000E9F718C0EE2009F464CFC8010E94670976
:1019A000F82E882309F45DCF86E0F801A2E5B2E0C5
:1019B00001900D928A95E1F782E592E00E94B905C7
:1019C0000E94D30A0E94C50A23C04D875E878D8579
:1019D0009E850E94760A292F22952F70223028F4A6
:1019E0009F7039F0811105C00BC0243028F49F701E
:1019F00049F4805E883020F0C8010E9400099F2CC5
:101A0000F92C06C0D80115969C91907F91F7F8CFDC
:101A10008F2D61960FB6F894DEBF0FBECDBFDF915C
:101A2000CF911F910F91FF90EF90DF90CF90BF90DB
:101A3000AF909F9008951F93CF93DF93CDB7DEB7FC
:101A40002C970FB6F894DEBF0FBECDBF4F835887DB
:101A500069877A878B879C87CE0107960E944B0BFC
:101A60008823D1F09F8188852A853B85232B31F0FF
:101A70008F3F31F481E09F3F19F403C081E001C042
:101A800080E080FD47C04F81588569857A858B85C8
:101A90009C850E947E093EC086E0FE013796DE01ED
:101AA000119601900D928A95E1F7FF81E8856A858C
:101AB0007B856115710531F0EF3F31F481E0FF3F27
:101AC00019F403C081E001C080E080FD23C02091B3
:101AD000210230E0C90101968770992740912002C8
:101AE00050E084179507F1F1F983EA837D836C83D5
:101AF00096E0929FD001939FB00D1124AE5DBD4F33
:101B0000FE01319601900D929A95E1F780932102A2
:101B10000E94A40A16E08091200290912102891768
:101B200071F1189FC00111248E5D9D4F0E944B0BD7
:101B3000882329F1E09120021E9FF0011124EE5D1F
:101B4000FD4F4081518162817381848195810E9422
:101B50007E098091200290E00196877099278093FA
:101B60002002D9CF0E94480910922102109220022F
:101B7000E2E5F2E086E0DF011D928A95E9F72C9616
:101B80000FB6F894DEBF0FBECDBFDF91CF911F918E
:101B90000895809160028595859585950895809139
:101BA00060028770089590916002977081E009F457
:101BB00080E0089580916B02089590916B02892BCB
:101BC00080936B020895809590916B028923809396
:101BD0006B02089510926B02089590916A02892B0E
:101BE00080936A020895809590916A028923809378
:101BF0006A02089510926A02089580916102089520
:101C000008950C94000E0C94010E9091EA0292FD3E
:101C100008C090916102981721F0809361020C94A2
:101C2000030E089580916102882329F010926102C9
:101C300080E00C94030E0895CF93DF93E0910201AE
:101C4000F091030180916B028083E0910201F09199
:101C50000301908180916A02892B808380916102C7
:101C6000882381F0E0910201F09103019081892B9A
:101C7000808380910201909103010E947D2981114E
:101C80000E94120EC0910201D091030148E050E081
:101C900068E572E0CE010E94F332892B69F088E09A
:101CA000FE01A8E5B2E001900D928A95E1F7CE0120
:101CB000DF91CF910C944629DF91CF9108950C9438
:101CC000000E9091EA0292FD10C098E0899F900169
:101CD0001124262B209360020E94BE09809160028D
:101CE0008595859585950C945F0E0C94BE09109290
:101CF000600280E00C945F0E209160028095822348
:101D000080936002982F977099F430E0482F082E46
:101D1000000C550B2417350759F09091EA0292FDFB
:101D200007C08595859585950E94C9090C94770E05
:101D300008959091EA0292FB222720F9281769F072
:101D400080FB92F99093EA028091E9029091EA0275
:101D50000E94E70E82E00C947C0E08958091EA02C6
:101D600082FB882780F991E089270C94990E81E005
:101D70000C94990E80E00C94990E6FEF7FEF80E049
:101D800090E00C943B3380E090E00E941733893E52
:101D90009E4F11F40C943D2080E0089582E090E085
:101DA0000C94093383E090E00C940933CF9384E0E2
:101DB00090E00E940933C82F82E290E00E9409332C
:101DC0002C2F30E0A901582BCA01CF910895CF9351
:101DD000C92F682F84E090E00E941D336C2F82E2AF
:101DE00090E0CF910C941D33AB01BC018FE090E0EB
:101DF0000C942F33AB01BC0183E190E00C942F33A2
:101E000060E070E0CB010C94FA0E60E070E0CB0172
:101E10000E94F40E0C94000F69EE7EEF80E090E0DB
:101E20000E943B3360E082E090E00E941D3360E05E
:101E300083E090E00E941D3310921F0260E084E076
:101E400090E00E941D3360E082E290E00E941D332A
:101E500060E085E090E00E941D3360E086E090E065
:101E60000E941D336FEF87E090E00E941D3340E039
:101E700050E0BA0188E090E00E942F3360E08DE0EE
:101E800090E00E941D3340E050E0BA0188E190E00C
:101E90000E942F3360E087E190E00E941D3340E014
:101EA00050E0BA018CE190E00E942F3360E070E0D6
:101EB00080E290E00E943B3340E050E0BA0188E1CC
:101EC00090E00E942F3380E00E9456200E948920DB
:101ED0000C94050F0C940C0F682F8EE090E00C947E
:101EE0001D330E94712A60937C0270937D0280935F
:101EF0007E0290937F0260937802709379028093C0
:101F00007A0290937B0208950E94712A60937C026A
:101F100070937D0280937E0290937F02609374029F
:101F2000709375028093760290937702089585B737
:101F3000806885BF85B7806885BF08950C948A1432
:101F400008950C94A00F0C94A00F0C94A30F0C9464
:101F5000A00F0C94A70F0C94A00F0E94970F80E97C
:101F600092E10E9429290E94AB0F0C94A90F0E94B4
:101F7000A10F0C94A00F0E94AA120C9453050E946A
:101F80005C2A0E9446120E9498200E94AF140E9470
:101F9000DB130E94BB0F0E94EF210E94331E0E94A0
:101FA000BA250E94C3140C94A50F8F929F92AF92F2
:101FB000BF92CF92DF92EF92FF920F931F93CF9336
:101FC000DF93CDB7DEB72A970FB6F894DEBF0FBE0A
:101FD000CDBF0E94FF13982E81110E94710F8CE6D5
:101FE000A82E82E0B82E00E010E0802E802F0E9404
:101FF000C412D82EF501C1905F01C826B1F40F5F5D
:102000001F4F0830110589F78FEF89838A831B8260
:102010000E94652A8160782F9D838C8349815A8133
:102020006B818D810E946F052FC08091800281FDA0
:102030000E94CA12E12CFF24F3948C2D8F21F1F021
:102040000E949E0F882399F0EE828F82DF2081E02C
:1020500009F480E088870E94652A8160782F9A873A
:1020600089874E815F8168858A850E946F05F801A6
:10207000E459FD4F8081F826F08206C0E394FF0CFE
:10208000F6E0EF12DACFBBCF81E0911001C080E023
:102090002A960FB6F894DEBF0FBECDBFDF91CF9169
:1020A0001F910F91FF90EF90DF90CF90BF90AF9076
:1020B0009F908F9008950E94D50F0E948A140E94CD
:1020C0006B1E0E94D52581110E94840F0C9464051B
:1020D000CF93DF930E946F11EC01811522E59207E7
:1020E000E8F5811531E5930708F0B6C0883E910503
:1020F00028F5803E910508F0E9C0883A910570F412
:10210000853A910508F07AC08130910509F473C0D1
:1021100008F4D9C0049708F0D9C0D5C08F3B910509
:1021200008F0D1C0C85AD0E0CC0FDD1FCA57DE4F2F
:102130000990D881C02DCE019464C9C0811540E5B5
:10214000940708F069C0811550E4950708F060C055
:102150009A9581159F4108F4B9C0B5C0811536E53F
:10216000930728F5811545E5940708F092C081157D
:1021700054E5950708F087C0AC0143705527282F18
:1021800026952695C115D34508F06CC081E090E0F6
:1021900002C0880F991F4A95E2F740E2249F900100
:1021A0001124EC01C22BD32BCE019C6890C0811569
:1021B0002AE5920780F4811539E5930708F072C08B
:1021C000811548E5940708F47EC0D82FCC27CE01AE
:1021D000806F906A7CC090568115904208F073C061
:1021E0008D2F8F710E940312DD27D0628F71AE0197
:1021F000582BCA016CC081E090E069C0C55AD0E09C
:10220000CC54DE4F8881C82FD0E0CE0190645FC0EF
:10221000DF70CE01906A5BC074E0969587957A95E1
:10222000E1F7282F23703C2F337081E090E002C04B
:10223000880F991F3A95E2F79C68AC01522B9A01DE
:102240009C2F9F709695969550E2959FE0011124E2
:10225000C9018C2B9D2B3BC0D82FCC27CE01816F81
:10226000906A35C081E090E002C0880F991F4A95BE
:10227000E2F750E2259F90011124EC01C22BD32BF1
:10228000CE019A6824C0D82FCC27CE01846F906AE3
:102290001EC00E9403128F7190E0D82FCC27CE0170
:1022A000906215C08F700E94031294E0D695C79576
:1022B0009A95E1F7CF70D0E0DC2FCC27D0699E0152
:1022C000282BC90104C080E090E001C0CE01DF915D
:1022D000CF9108950E94EF240E94681008958238DB
:1022E000910569F1B0F48133910509F46DC048F4AA
:1022F0008932910509F463C08A32910509F469C0F5
:1023000008958533910509F455C089339105B9F0D5
:102310000895833E910569F138F4803E9105B1F04E
:10232000823E910509F10895863E9105A9F1873E07
:102330009105B9F1843E910509F064C023C0209154
:10234000E90220FD4FC021FD4DC008958091E902B2
:1023500080FD44C08091EA0280FF44C08091E90280
:1023600084FD42C083EE4DC08091E90282FF38C0F7
:10237000F5CF8091E90282FD33C08091EA0280FDB1
:1023800031C0ECCF8091EA0281FF32C08091E90236
:1023900084FD2AC087EE35C08091E90283FF26C004
:1023A000F5CF8091E90283FD21C08091EA0281FD91
:1023B0001FC0ECCF8091E90285FD1CC01DC080913B
:1023C000E90285FD19C016C08091E90286FD16C09C
:1023D00017C08091E90286FD13C010C089E311C0C7
:1023E00082EE0FC080EE0DC080E00BC086EE09C00B
:1023F00084EE07C089E205C085E303C08AE201C01C
:1024000081E390E008959091E90292FF0DC0282F9A
:102410002871283019F4877F846006C0282F247122
:10242000243011F48B7F886093FF0DC0282F287112
:10243000283119F4877E846106C0282F2471243145
:1024400011F48B7E88612091EA0220FF0DC0382FA5
:102450003871383019F4877F816006C0382F3171A8
:10246000313011F48E7F886021FF0DC0282F287134
:10247000283119F4877E816106C0282F217121310E
:1024800011F48E7E886194FD877E08951092E50296
:102490001092E6021092E7021092E8020895CF929D
:1024A000DF92EF92FF926B017C010E948A148111EE
:1024B0000EC00E94712AC61AD70AE80AF90AC09209
:1024C000E502D092E602E092E702F092E802FF9085
:1024D000EF90DF90CF9008950F931F930E948A147E
:1024E000882321F01F910F910C94712A0E94712A68
:1024F0000091E5021091E6022091E7023091E80296
:10250000600F711F821F931F1F910F9108950E94EA
:102510008A1481110C94652A0E946C12CB010895D3
:1025200080E008950C94BD0E0E94FF138FE39CE998
:102530000197F1F700C000000E94FF1380E00E94A5
:10254000C41280FF04C00E9492120C94CE2A0895F7
:102550000C9494120E94C30E811102C00E946A0F53
:102560000E94CE0E809380020E94D60E9093EA02C3
:102570008093E9020E94A8120E94D20E0E949A093A
:1025800080911E020C94AB09E82FF0E0EC50FD4F57
:1025900080810895089580EA8A95F1F7089500C032
:1025A00008950C94CB1208950C94D3120C94D41269
:1025B0000C94D3120C94D8120C94D3120F931F9333
:1025C000CF93DF9300D000D0CDB7DEB70E948A143E
:1025D0006091FC028823E9F119821A821B821C8215
:1025E000862F90E08E010F5F1F4FB8018C509D4FDA
:1025F0000E94D114882389F08091EB0290E044E09E
:1026000050E0B8018C509D4F0E94F33221E020939E
:102610008102892B69F410E019C08091810288231E
:10262000D1F384E0F80111928A95E9F710928102C2
:10263000E091EB02F0E0EC50FD4F89819A81AB8193
:10264000BC8180839183A283B38311E00E94000444
:102650000DC070E06C507D4F8091EB0290E08C508B
:102660009D4F0E945B150E94DC1210E0812F0F909D
:102670000F900F900F90DF91CF911F910F910895C0
:10268000F894E82FE295EF70F0E031A1282F2F7039
:1026900081E090E001C0880F2A95EAF7982F909585
:1026A000932391A392A1892B82A3789408950F93E9
:1026B0001F93CF93DF93CDEBD1E089918F3F11F042
:1026C0000E94401381E0C13CD807B9F7C7EBD1E0C5
:1026D0000DEB11E089918F3F11F00E9440130C1710
:1026E0001D07C1F7DF91CF911F910F910895CF92F0
:1026F000DF92EF92FF920F931F93CF93DF938C01A2
:10270000C62FD0E0CE0183549E4F7C01FC01908106
:102710009F3F09F447C0D62EF894E92FE295EF7059
:10272000F0E081A19F7021E030E001C0220F9A9576
:10273000EAF7822B81A382A12095282322A37894F3
:102740000E94CF12E7EBF1E04DEB51E031E0C12CFC
:1027500021912F3F89F0A22FA295AF70B0E0909603
:102760008C9190E02F7002C0959587952A95E2F79D
:1027700080FD02C0832F01C080E0C82A330F4E17AE
:102780005F0731F7F70180818F3F11F00E944013FE
:1027900061E0C11001C060E08D2D0E94D112C00F18
:1027A000D11FC882DF91CF911F910F91FF90EF90C1
:1027B000DF90CF90089580910401809104018111F0
:1027C00002C094E001C090E09093FC0284E0891B79
:1027D0008093EB020E94571388E0E4EFF2E0DF0100
:1027E000982F1D929A95E9F7ECEEF2E0DF011D9229
:1027F0008A95E9F784E00E9453140C94FE03EF924B
:10280000FF920F931F93CF93DF93CDB7DEB7289737
:102810000FB6F894DEBF0FBECDBF8E010F5F1F4F06
:1028200088E0F80111928A95E9F7F12C6F2DC80123
:102830000E947713F394F4E0FF12F8CF48E050E0E1
:10284000B8018CEE92E00E94F3327C0121E0892BEA
:1028500009F420E0E114F10441F088E0F801ACEE65
:10286000B2E001900D928A95E1F76091FC0270E070
:102870006C507D4F44E08CEE92E00E945414EF289F
:1028800019F40E94DE1202C081E090E028960FB693
:10289000F894DEBF0FBECDBFDF91CF911F910F9196
:1028A000FF90EF9008950895FF920F931F93CF9399
:1028B000DF938C01F62ED72FC42F222349F081E01D
:1028C000809384020E94652A9093830280938202FF
:1028D000809184028823C1F08091820290918302CA
:1028E0000E947D2A059780F0EF2DFD2FD8014C2FF7
:1028F00050E0CD01801B910B841795071CF48D913E
:102900008193F7CF10928402DF91CF911F910F91A5
:10291000FF900895CF9380918702811116C0C2E382
:102920000E94583281110AC08FE39CE90197F1F7A8
:1029300000C00000C150A1F782E001C081E0809397
:102940008702823011F40E94533281E09091870215
:10295000913009F080E0CF9108950C948A140E9480
:10296000AD14809304018091040168E0882311F084
:1029700080E001C088E00E9447180E948A148111FB
:102980000C94091508950E948A14811102C00C94B8
:102990000B15089581E0909188029A3008F080E04C
:1029A00008950F931F93CF93DF93EC018B018091D8
:1029B00088028A3038F4B801CE010E94591581117D
:1029C0001DC00AC080918502909186020E947D2AD6
:1029D000843F914080F715C0809188028F3F19F0A5
:1029E0008F5F80938802809188028A3060F00E9415
:1029F000652A909386028093850203C01092880214
:102A000002C080E001C081E0DF91CF911F910F9162
:102A100008950C94C2270C94C527DF92EF92FF9281
:102A20000F931F93CF93DF937901C82F880FDD0B8E
:102A300041155105A9F0FE0193E0EE0FFF1F9A9595
:102A4000E1F7EB5FFE4F8181928187579D4F208197
:102A500030E04217530708F49A01A9010E9400339D
:102A6000CE010E94AE28D82E8823D1F00115110581
:102A7000B9F083E0CC0FDD1F8A95E1F7FE01EB5F33
:102A8000FE4F438150E00417150708F4A801CB5FFF
:102A9000DE4F6C817D8167577D4FC7010E940033F7
:102AA0008D2DDF91CF911F910F91FF90EF90DF90CF
:102AB00008950C9408170C9434170F931F93CF9319
:102AC000DF9300D000D0CDB7DEB76091AC0270913B
:102AD000AD028091AE029091AF020E948C2A6436C2
:102AE00071058105910528F10E946C12DC01CB0172
:102AF0000296A11DB11D89839A83AB83BC8300E03C
:102B000010E020E030E044E050E0BE016F5F7F4F16
:102B100084E00E940D15182F882361F00E94712A0D
:102B20006093AC027093AD028093AE029093AF02BB
:102B300001C011E0812F0F900F900F900F90DF9147
:102B4000CF911F910F9108957F928F929F92AF9294
:102B5000BF92CF92DF92EF92FF920F931F93CF938A
:102B6000DF931F92CDB7DEB7762E4A015901680177
:102B700001E010E09E012F5F3F4F40E050E060E039
:102B800070E00E940D15182F882379F1F4016081FF
:102B90007181828193810E948C2A6436710581053E
:102BA0009105E0F08701950140E050E060E070E0C1
:102BB000872D0E940D15182FB701C6010E94F02124
:102BC00091E02981281390E01923A1F00E94712A35
:102BD000F40160837183828393830CC0B701C601C3
:102BE0000E94F02199818913DDCFA701B601C501AB
:102BF0000E940033812F0F90DF91CF911F910F9191
:102C0000FF90EF90DF90CF90BF90AF909F908F900C
:102C10007F900895EF92FF920F931F93CF93DF93CE
:102C20001F92CDB7DEB70091C1011091C2010A5FBA
:102C30001F4FEE24E394F12C9E012F5F3F4F48EA93
:102C400052E063E082E00E94A415182F882321F04F
:102C5000CE0101960E943226812F0F90DF91CF91F5
:102C60001F910F91FF90EF900895CF92DF92EF9216
:102C7000FF920F931F93CF93DF9300D000D0CDB777
:102C8000DEB76B010091C1011091C2010F5F1F4FB0
:102C900084E0E82EF12C9E012F5F3F4F44EA52E082
:102CA00061E080E00E94A415882361F049815A8187
:102CB0006B817C814093A0025093A1026093A20299
:102CC0007093A3024091A0025091A1026091A202D0
:102CD0007091A302F60140835183628373830F9046
:102CE0000F900F900F90DF91CF911F910F91FF9058
:102CF000EF90DF90CF900895AF92BF92CF92DF9286
:102D0000EF92FF920F931F93CF93DF937C015B01B0
:102D10006A010E94CA14811103C001E010E002C0E0
:102D20000AE010E0C1E0D0E0F894B501C701F60177
:102D300009957894811115C021960C171D0794F000
:102D4000CC9F9001CD9F300D300D112480E090E09C
:102D500045E34A95F1F70000019682179307C1F702
:102D6000E3CF81E0DF91CF911F910F91FF90EF9022
:102D7000DF90CF90BF90AF9008950F931F93CF93A4
:102D8000DF93CDB7DEB728970FB6F894DEBF0FBE3E
:102D9000CDBFCE0101960E941E1D18856091B00224
:102DA0007091B1028091B2029091B3020E948C2A7C
:102DB000643671058105910510F41123D9F000E006
:102DC00010E020E030E048E050E0BE016F5F7F4F50
:102DD00085E00E940D15882359F00E94712A6093A6
:102DE000B0027093B1028093B2029093B30202C01A
:102DF00080E003C00E941B1D81E028960FB6F89466
:102E0000DEBF0FBECDBFDF91CF911F910F9108950F
:102E10000F931F93CF93DF93EC018B0145E356E1B2
:102E20000E947C168823D1F04AE056E1B801CE0119
:102E30000E947C16882391F04DE555E1B801CE0142
:102E40000E947C16882351F04DEB56E1B801CE016B
:102E5000DF91CF911F910F910C947C1680E0DF9150
:102E6000CF911F910F910895CF92DF92EF92FF9231
:102E70000F931F93CF93DF931F92CDB7DEB7F894D4
:102E80000091C1011091C201C801019624E0FB012B
:102E9000DC0101900D922A95E1F764E070E00E9458
:102EA000F021F80180837894F894CE0101960E9475
:102EB00029268981F801868361E070E0CE010196C0
:102EC0000E94F021F80185837894F89467817085D9
:102ED00081859285C0909C02D0909D02E0909E02D8
:102EE000F0909F026C157D058E059F0551F0609353
:102EF0009C0270939D0280939E0290939F020E9479
:102F00004F127894F894F8018289882339F060E0B0
:102F1000C8010B960E94FE1DF801128A78940F904A
:102F2000DF91CF911F910F91FF90EF90DF90CF90A5
:102F300008950E94992C0E94BF0F0C94A52C0E940A
:102F4000A92C0E945B100C94C32C0E94032A0E949F
:102F5000802C0E94AD0F0E9499170E949F170E941B
:102F6000B70FFBCFEF92FF920F931F93CF93DF9397
:102F70008B01682F11110AC0442329F0E82FF0E0DB
:102F8000EB5AFB4F6491762F862F75C0212F30E0CE
:102F9000E82FF0E0442321F0EB5AFB4FE491F0E0FE
:102FA00046E0049FC0011124CFEFD0E0BE010E9493
:102FB0005E324BEA4603C001479F900D1124800FFB
:102FC000911D800F911D982F990F890FAE01421B03
:102FD000530B4E9FD0014F9FB00D5E9FB00D11243B
:102FE0009B2F189FA0011124452F55278E01041BEC
:102FF000150B0E9FA0010F9F500D1E9F500D112409
:103000007E01E81AF108E29E8001E39E100DF29E17
:10301000100D1124212F3327C21BD30BCE9F9001FB
:10302000CF9F300DDE9F300D112462307105A9F065
:1030300048F46115710569F061307105C9F48B2F91
:10304000752F0DC06430710581F058F06630710540
:1030500079F47E2F8B2F932F0DC0832F7B2F9E2FE4
:1030600009C08E2F7B2F952F05C08E2F732F02C086
:103070007E2F852F692FDF91CF911F910F91FF90A8
:10308000EF90089541E00E94B21708950895E8E393
:10309000F1E08083618308950E9442180895CF93E0
:1030A000DF93762FE901682F842F0E944C187983D3
:1030B00068838A83DF91CF9108958091FD02282F44
:1030C000269530E02115310519F48170826005C024
:1030D0002532310524F0817088648093FD020895C3
:1030E00088E090E00C941133CF92DF92EF92FF9240
:1030F0006B017C010E945D18B701A60188E090E099
:10310000FF90EF90DF90CF900C942F336091FD02F1
:103110007091FE028091FF02909100030C9474184C
:10312000EDEFF2E083E0808311828FEF828383836F
:103130001482A1ECB2E012968C91129783601296E1
:103140008C9360817181828193810C947418809139
:10315000FD0280FF02C08695089580E00895909159
:103160000103933018F49F5F90930103882351F07B
:103170006091FD027091FE028091FF029091000328
:103180000C947418089581E00C94AF189091010389
:10319000992319F0915090930103882351F0609185
:1031A000FD027091FE028091FF02909100030C9449
:1031B0007418089581E00C94C61880910103089555
:1031C00080930103662351F06091FD027091FE022D
:1031D0008091FF02909100030C947418089560E0B0
:1031E0000C94E0188091FE0208958091FF020895EA
:1031F00080910003089570E00C941220CF92DF922A
:10320000EF920F931F93CF93DF93CDB7DEB7E09785
:103210000FB6F894DEBF0FBECDBF6091390180912B
:10322000FD0280FF0AC0E5E4F4E0AE014F5F5F4FAE
:103230008E010F5C1F4FCA0114C080913A0190911A
:103240003B01891780F7E82FF0E09F01220F331F21
:10325000E20FF31FEE5FFC4F1182108212828F5F2C
:10326000F0CF249130E0D901AA0FBB1F2A0F3B1FDA
:10327000D901AE5FBC4FCD90DD90EC90DA01CD92DC
:10328000DD92ED92AD013196A017B10751F7209173
:103290003801B3E02B9F800D911D11240E94FB1873
:1032A000E0960FB6F894DEBF0FBECDBFDF91CF9191
:1032B0001F910F91EF90DF90CF9008959091FD02B4
:1032C00090FF16C090913A0120913B01921770F443
:1032D000E92FF0E0DF01AA0FBB1FEA0FFB1FEE5F33
:1032E000FC4F8183608342839F5FF0CF0C94FE1874
:1032F0000895CF93DF9300D01F92CDB7DEB79091A2
:10330000FD0290FF0AC09E012F5F3F4F0E944F18A1
:103310004B8169818A810E945E190F900F900F90F6
:10332000DF91CF910895CF93DF93EC01EC81F0E032
:10333000E05CFC4F4491EDEFF2E0628181810E94FC
:1033400079198C818F5F8C83DF91CF910895CF9312
:10335000DF93EC01EDEFF2E0438162818C810E940A
:1033600079198C818F5F8C83DF91CF9108950F93B2
:103370001F93CF93DF9300D01F92CDB7DEB78C01A0
:103380008091B40281110AC09E012F5F3F4F4FEF21
:103390006FEF0E944F188A818093B402F8018481F4
:1033A000813051F028F0823061F44091B4020AC0BB
:1033B0008091B40240E007C06091B40240E080E038
:1033C00003C040E080E060E00E945E19F801848163
:1033D00090E0019663E070E00E94723284830F9067
:1033E0000F900F90DF91CF911F910F910895AF92A1
:1033F000BF92CF92DF92EF92FF920F931F93CF93E2
:10340000DF9300D01F92CDB7DEB7182FF62E042F12
:10341000E22E9091FD0290FF7EC0E92FE695AE2F3F
:10342000B0E0AD53BE4F8C918093C1029E7F92302D
:1034300061F49E012F5F3F4F812F0E944F184B81F7
:1034400069818A810E945E1943C0823019F400911B
:1034500000033EC0863019F41091FE0239C0893055
:10346000D9F38931A9F5E9518E2F8170D82EE695CF
:10347000F0E0E05CFB4FA590B490C12CBB246091C0
:103480003C01C61618F52C2D30E0A29EC001A39E6B
:10349000900DB29E900D112470E00E945E32812F3B
:1034A000D11002C0860F01C0861B90913A01290FEE
:1034B000311DA901440F551F240F351F2E5F3C4FAE
:1034C000402F6F2D0E944F18C394D9CF0E94FE1831
:1034D0008091FE02181308C08091FF02F81204C008
:1034E00080910003081729F08091C30282608093C5
:1034F000C3021093FE02F092FF0200930003EE203D
:1035000051F06091FD027091FE028091FF02909156
:1035100000030E9474180F900F900F90DF91CF91CD
:103520001F910F91FF90EF90DF90CF90BF90AF90E1
:103530000895EDEFF2E09181282F4381628188E0C8
:10354000890F0C94F71981E00C94991AEDEFF2E0D1
:103550009181282F4381628188EF890F0C94F7199C
:1035600081E00C94A61AEDEFF2E0628121E1620F96
:1035700008F46FEF282F438181810C94F71981E0C3
:103580000C94B31AEDEFF2E0628121E1621B08F4C2
:1035900060E0282F438181810C94F71981E00C941D
:1035A000C21AEDEFF2E0438121E1420F08F44FEF40
:1035B000282F628181810C94F71981E00C94D11A33
:1035C000EDEFF2E0438121E1421B08F440E0282FB7
:1035D000628181810C94F71981E00C94E01A20E05B
:1035E0000C94F719FF920F931F93CF93DF93EC0185
:1035F000F12C0FEF10E060913C01F616F0F4809191
:103600003A012F2D30E0280F311DC901880F991F75
:10361000280F391F2E5F3C4F70E0C8010E947232A4
:10362000962F8C81409100036091FF02F99E800DDE
:1036300011240E944F18F394DECF0E94FE189A8145
:103640008C8190FF02C08F5F01C081508C83DF911D
:10365000CF911F910F91FF9008959F92AF92BF92CB
:10366000CF92DF92EF92FF920F931F93CF93DF934E
:10367000EC018A8180FF03C0BB24BA9402C0BB2442
:10368000B3948C8181110DC081E0B81206C0809185
:103690003C0181508093B60202C01092B60281E0D4
:1036A0008C83A12C80913C01A81608F041C0809128
:1036B0003A01CA2CD12C8601080F111DC801880FB0
:1036C000991F080F191F0E5F1C4FF80111821082FD
:1036D000128234E0E32EF12C912C8091B602890DF8
:1036E000813114F08F7005C087FF03C090913C01B9
:1036F000890F082E000C990BC816D90691F48091F9
:1037000000038E9DA0018F9D500D11245595479566
:103710005595479598016091FF028091FE020E94A5
:103720004F189B0CF1E0EF1AF108B9F6A394BACF49
:103730000E94FE188091B60291E0B9120EC081116C
:1037400007C080913C0181508093B6021C820FC05B
:1037500081508093B602BC820AC090E001966091CD
:103760003C0170E00E9472328093B6028C83DF913C
:10377000CF911F910F91FF90EF90DF90CF90BF906E
:10378000AF909F9008951F93CF93DF93EC018C81AE
:10379000811109C081E08C831092B50292E0909370
:1037A00037018093360180913A0190913B0189174E
:1037B00070F4E82FF0E09F01220F331FE20FF31F98
:1037C000EE5FFC4F1182108212828F5FF0CF10E00B
:1037D00060913C011617C0F5E12FF0E070E0CF01D9
:1037E0000E94723220913A01820F2091B502022E7E
:1037F000000C330B90E0E217F307CCF02091370177
:10380000022E000C330B2E173F078CF09C01220F69
:10381000331F820F931F9C012E5F3C4F409100038A
:103820006091FF028091FE020E944F180BC0FC01C4
:10383000EE0FFF1F8E0F9F1FFC01EE5FFC4F1182EA
:10384000108212821F5FC4CF0E94FE188091360141
:103850002091B502280F2093B50290913701980F5F
:103860009093370119165CF4022E000C330B409133
:103870003C0150E0415051092417350734F081953F
:1038800080933601813009F41C82DF91CF911F9122
:1038900008958F929F92AF92BF92CF92DF92EF9254
:1038A000FF920F931F93CF93DF938C01FC01448110
:1038B000C42FD0E09E01DE010E94BD329B01AC010D
:1038C0000E94D3326B017C01E0E2F0E0EC1BFD0BC7
:1038D000A5E5B0E09B01AC010E94D3324B015C0135
:1038E0009F01DF010E94B5329B01AC010E94DE32D4
:1038F0009B01AC012C0D3D1D4E1D5F1DC501B4018A
:103900000E948632C22FD22F2A3228F4F3E02F9F52
:10391000900111240DC025E530E02C1B3109C901AF
:10392000880F991F280F391F37FF02C02F5F3F4FA5
:1039300035952795C22FC095F12C85E5E82EED1A17
:1039400080913C01F816C8F4F1FC02C08E2D01C034
:103950008D2F90913A012F2D30E0290F311DA901B3
:10396000440F551F240F351F2E5F3C4F4C2F609185
:10397000FF020E944F18F394E3CF0E94FE18F80153
:103980008481811102C091E003C0803219F49FEF5D
:103990009093350190913501890FF8018483DF916F
:1039A000CF911F910F91FF90EF90DF90CF90BF903C
:1039B000AF909F908F9008950F931F93CF93DF93B5
:1039C000EC0100E010E080913C01282F30E002176C
:1039D000130724F590913A019801290F311DA9018F
:1039E000440F551F240F351F2E5F3C4F869590E0E6
:1039F0004C81081719071CF4442331F002C041110F
:103A000003C04091000301C040E06091FF0280913B
:103A1000FE020E944F180F5F1F4FD5CF0E94FE1865
:103A20008C8190E00196817099278C83DF91CF91F2
:103A30001F910F9108951092C302089525E0EDEFB4
:103A4000F2E0DC0101900D922A95E1F72091C1028C
:103A50003091C2024091C302FC0125833683478323
:103A600008956091FD02669570E04BE050E08DE3B3
:103A700091E00E94E632892B19F481E08093C20222
:103A80000E9487129093BB028093BA028091C30276
:103A900084608093C3020895E1ECF2E01182828198
:103AA0008460828308959091FD0290FF3AC09170E6
:103AB000811102C0926006C0853210F0986402C085
:103AC000880F982B9093FD028091C30281608093B0
:103AD000C302662351F06091FD027091FE02809155
:103AE000FF02909100030E9474186091FD02669598
:103AF00070E04BE050E08DE391E00E94E632892BCC
:103B000019F00E944C1D02C00E94311D81E080937B
:103B1000BD02409100036091FF028091FE020C946F
:103B2000EF1A0895682F9091FD02969581E0890F14
:103B3000853208F081E00C94531D81E00C94921DB5
:103B4000682F9091FD0296958FEF890F09F484E21A
:103B50000C94531D81E00C94A01D61E00C94531D46
:103B6000EDEFF2E080818160808386950C94AD1D3D
:103B700060E00C94531DEDEFF2E080818160808362
:103B800086950C94B81DEDEFF2E080818E7F8083E6
:103B900060817181828193810E9474180E944C1D02
:103BA000E1ECF2E08281816082832FEF80E792E096
:103BB000215080409040E1F700C000000C94FE18B6
:103BC0008091FD0280FD0C94C31D0C94B01DEDEF9F
:103BD000F2E080818E7F80830E944C1DE1ECF2E058
:103BE0008281816082832FEF80E792E021508040C4
:103BF0009040E1F700C000000C94FE181F93CF9393
:103C0000DF93EC01162F8F8180FF0FC0888180FF2A
:103C10000AC08091FD0281608093FD0288818695B3
:103C20000E94531D02C00E94E71D8F8181FF06C0C4
:103C3000212F4B816A8189810E94F7198F8182FF30
:103C400008C08E81882319F00E94311D02C00E9495
:103C50004C1D8F8183FF03C081E08093BD02DF9103
:103C6000CF911F9108958091C002811133C00E94AD
:103C7000C30E811104C00E946A0F0E9490180E9416
:103C800070186093FD027093FE028093FF02909380
:103C900000038091C30283608093C3026E7F61F44E
:103CA0000E9490180E9470186093FD027093FE02AB
:103CB0008093FF02909300030E945D180E944C1DA8
:103CC0008091FD0280FF03C086950E94B81D81E0AF
:103CD0008093C0020895EF92FF920F931F93CF93AA
:103CE000DF938091C202882309F4ABC08091C102A6
:103CF000E091FD02E695E81BE093BC02823049F4B6
:103D0000F0E0E45CFC4FE491CE2FD0E003E919E150
:103D100049C0863049F4F0E0E75CFC4FE491CE2FD7
:103D2000D0E007EA19E13EC0893051F4E695F0E0B1
:103D3000EA5CFC4FE491CE2FD0E002EF1AE132C0F2
:103D40008F3051F4E695F0E0ED5CFC4FE491CE2F1E
:103D5000D0E00DE21BE126C0853149F4F0E0E05DE2
:103D6000FC4FE491CE2FD0E003EC1BE11BC0883167
:103D700081F0833239F4EEE2F3E0C591D49107EBA0
:103D800019E110C0843251F4C4EFD1E00CED1CE114
:103D900009C0C8E2D0E009E41CE104C0C0EDD7E0EE
:103DA00006E418E18091BD02882361F01092BD0203
:103DB0000E9487129093BB028093BA021092BF02B6
:103DC0001092BE020E948712E091BA02F091BB02EB
:103DD0009C012E1B3F0B2F3F3F4798F52091B902C6
:103DE0002223B1F01092B9022091B7023091B802AB
:103DF000821B930B8F3F9F4758F4205D3A483093C6
:103E0000B8022093B7028091C30288608093C302F6
:103E1000E090BE02F090BF02EC0FFD1FF093BB02DA
:103E2000E093BA028AEB92E0F80109958091BE0214
:103E30009091BF02892B29F4EF2819F081E080933B
:103E4000B902DF91CF911F910F91FF90EF900895EC
:103E5000882311F0FA0101C0FB010994CF93DF938D
:103E6000C82FD62F0E94A7188C1740F00E94A718C1
:103E70008D1720F4DF91CF910C949D1D8C2FDF9135
:103E8000CF910C94AD1D1F93CF93DF93FB01128153
:103E90001111C3C0EC010E94DA0D8272CC3CFCE52A
:103EA000DF0709F49AC0A8F5C63CECE5DE0709F483
:103EB00076C0A8F4C33C9CE5D90709F45FC028F498
:103EC000C23CDC4509F457C054C0C43C9CE5D9074A
:103ED00009F459C0C53CDC4509F45CC04AC0C93C82
:103EE000FCE5DF0709F46AC050F4C73CECE5DE07E7
:103EF00009F45AC0C83CDC4509F45BC03AC0CA3C6E
:103F00009CE5D90709F45FC0CB3CDC4509F460C0EF
:103F100030C0C13DFCE5DF0709F46FC088F4CE3C3A
:103F20009CE5D90709F460C008F45CC0CF3CFCE50F
:103F3000DF0709F45CC0C03DDC4509F45BC019C073
:103F4000C43D9CE5D90709F460C050F4C23DFCE5CE
:103F5000DF0709F455C0C33DDC4509F454C009C06E
:103F6000C53D9CE5D90709F455C0CD35DD4509F4BB
:103F700054C011E052C00E94E01D4FC04AEA5DE10A
:103F80006DE97DE104C04DE95DE16AEA7DE10E94F1
:103F9000281F43C040EB5AE163EA7AE1F8CF43EAD5
:103FA0005AE160EB7AE1F3CF4EEC5AE16FEB7AE144
:103FB000EECF4FEB5AE16EEC7AE1E9CF4CEE5AE1ED
:103FC0006DED7AE1E4CF4DED5AE16CEE7AE1DFCFB1
:103FD0004AED58E163EC78E1DACF43EC58E16AED61
:103FE00078E1D5CF81E017C065E082E010C068E0DD
:103FF00086E00DC06EE089E00AC064E18FE007C092
:1040000067E185E104C088E106C062E289E10E94BF
:104010002E1F03C083E20E94AD1D812FDF91CF913F
:104020001F910895539A2BB1277F3BB138604FB74A
:10403000F894FC01CB01880F991F680F791F6E0F50
:104040007F1FE617F70789F0819198E03BB90000E0
:1040500000C087FF2BB9880F000000C000C000C05F
:104060002BB900C09A9591F7ECCF4FBF8FE594E044
:104070000197F1F700C00000089583E290E00E94EC
:104080000933823281F484E290E00E940933843063
:1040900051F485E290E00E94093391E0813009F00B
:1040A00090E0892F01C080E081700895CF93C82FE0
:1040B000811102C06FEF01C062E283E290E00E94D2
:1040C0001D33C11102C06FEF01C064E084E290E0D3
:1040D0000E941D33C11102C06FEF01C061E085E293
:1040E00090E0CF910C941D33089586E290E00E94F9
:1040F0000933682F70E080E090E008950895CF9331
:10410000C62F0E947E206C2F86E290E0CF910C9407
:104110001D3380E00E94562060E070E0CB010E94D9
:104120007F200E946A240E94492581E00C94562039
:104130000E9474200E9475200E947E200E943D20D3
:10414000811102C00C9489200895CF93FB01C28194
:10415000CC23E9F09C0122513F452031310520F468
:1041600082510E9459250CC08031FFE59F0751F410
:1041700081E00E94BE0943E062E081E00E94F50315
:10418000C0E018C081319F45A9F482E0F2CF8031B0
:10419000EFE59E0711F481E004C081319F4549F4A9
:1041A00082E00E94C90943E062E081E00E94F503D9
:1041B00001C0C1E08C2FCF9108952FEFFC01208327
:1041C0000895CF93DF93EC018881813889F028F43A
:1041D0008038A1F40E94F81810C0823861F083384A
:1041E00069F40E94F21889830E94F5188A8306C038
:1041F0000E94A71802C00E94DD188983DF91CF9129
:104200000895CF93DF93EC0188818138B1F058F4A1
:10421000803851F5D9810E94F518C82F0E94F218F4
:104220004D2F6C2F1DC08238B1F08338E9F40E9405
:10423000F818482F6A81898113C089810E94B81DAE
:104240008981811104C0DF91CF910C94E71DDF912A
:10425000CF910C94BB1D8981DF91CF910C94EF1805
:10426000DF91CF910C94EF1ADF91CF910895EF92E7
:10427000FF920F931F93CF93DF93EC01062F0196CC
:10428000E8814E2F50E0FA013197E331F10508F053
:104290009AC0EE59FF4F0C94A832198289E056C09B
:1042A0008981823039F0833061F0813029F50E94B4
:1042B000712A02C00E9475209A838B837C836D8350
:1042C00084C07E0182E0E80EF11C10E0812F0E9484
:1042D000C412F70181937F011F5F1830B9F775C0D1
:1042E0008981823049F46A817B818C819D810E9421
:1042F000AE320E947F2069C0602FCE010E94DD2077
:1043000064C04B816A8189810E943C249C838D8397
:104310005CC02C813D813227232732274B816A8163
:1043200089810E94552451C00E946A244EC00E9477
:1043300001214BC00E94E12048C00E94861845C060
:104340000E94FC2424C00E94FE2499838A833DC0DD
:104350006B8170E089819A81AE014C5F5F4F982735
:10436000892798270E94012530C06B8170E08981E0
:104370009A81AE014C5F5F4F9827892798270E944A
:10438000262523C00E94492520C00E942924898314
:104390001CC06B8170E089819A81AE014C5F5F4FD8
:1043A0009827892798270E94A9240FC06B8170E065
:1043B00089819A81AE014C5F5F4F982789279827A2
:1043C0000E94CD2402C08FEF8883602FCE01DF9141
:1043D000CF911F910F91FF90EF900C94552B089562
:1043E000FC01680F791F8FEF91E3E617F70771F073
:1043F0002191822728E030E087FF03C0880F8927BA
:1044000001C0880F21503109B9F7EFCF0895CF933C
:10441000DF93EC01FB018281882309F43CC1C330A6
:10442000FDE5DF0760F4CA3F9CE5D90788F49E01EB
:1044300022503C452431310508F02EC109C0C13657
:10444000EDE5DE0729F0C53AFDE5DF0709F024C1F7
:104450000E94D60E9093EA028093E902C1318CE566
:10446000D80709F4C6C008F042C0C930ECE5DE0741
:1044700009F49BC000F5C5308CE5D80709F485C068
:1044800078F4C330ECE5DE0709F478C008F07AC0B0
:10449000C230DC4509F0F5C08091E9028160EFC0CF
:1044A000C7309CE5D90709F478C008F07AC080913C
:1044B000E9028061E4C0CD30FCE5DF0709F487C084
:1044C00058F4CB309CE5D90709F479C008F07BC0DB
:1044D0008091E90288606FC0CF30FCE5DF0709F406
:1044E00080C008F082C08091E902877FC8C0CD3FBC
:1044F0009CE5D90709F471C000F5C531FCE5DF077B
:1045000009F485C068F4C3319CE5D90709F475C086
:1045100008F095C00E9448098091E9028F77AFC0EA
:10452000CB3FFCE5DF07A9F108F054C0CA3FDC45EA
:1045300009F0A7C08091EA0240C0C130EDE5DE0776
:1045400009F489C058F4CF3F8CE5D80709F45AC064
:1045500008F069C08091EA0282602FC0C136EDE5A3
:10456000DE0709F47CC0C53AFDE5DF0709F481C028
:10457000C230DD4509F085C080E06EC08091E9025F
:1045800082607DC08091E90216C08091E902886056
:1045900076C08091EA0282604FC08091E902806219
:1045A0006EC08091E90280646AC00E9448098091CF
:1045B000E902806864C0846062C081603DC080910F
:1045C000E9028E7F5CC08091E9028D7F58C08091A6
:1045D000E90216C08091EA0218C08091EA028D7F3C
:1045E0002BC08091E9028F7E4AC08091E9028F7DC5
:1045F00046C08091E9028F7B42C08091E902877FAB
:104600008B7F3DC08091EA028D7F8E7F15C08091A7
:10461000E90282FB222720F991E0922790FB82F9A0
:1046200090FB83F92CC08091EA02982F90959170AD
:104630008E7F892B90FB81F98093EA0222C00E9431
:1046400048098091E90287FB222720F991E092270F
:1046500090FB87F914C081E00E946C0F12C080911A
:10466000E90284FB222720F991E0922790FB84F94C
:1046700006C08091E902982F909590FB80F9809375
:10468000E9028091E9029091EA020E94E70E0E94FD
:10469000480980E001C081E0DF91CF9108958B311E
:1046A00009F469C058F58B3009F48DC078F4863070
:1046B00009F446C020F4853009F44CC088C0873026
:1046C00009F44BC0883009F47EC081C0803109F400
:1046D00065C068F48E3009F07AC08091800282FB58
:1046E000222720F991E0922790FB82F94DC0863174
:1046F00009F469C0893109F466C069C08A32E9F0F9
:1047000060F4873209F461C028F48E3108F45FC088
:104710008D514FC08932F1F05AC0833450F48A333E
:1047200008F046C0853309F450C0883309F44BC003
:104730004EC0833409F449C04AC00E946A0F43C086
:1047400080918002817F8E7F8093800281E08093C0
:10475000C40208950E94030436C080918002982FFD
:104760009095917090FB80F98093800291112BC0FD
:10477000897F877F10C08091800281FB222720F9EA
:1047800091E0922790FB81F9809380029923D9F0E0
:104790008091800281608093800215C080918002A8
:1047A00083FB222720F991E0922790FB83F9ECCF3D
:1047B000895391E001C0990F8A95EAF7892F0E94E9
:1047C0009A090E94480981E0089581E0F8CF80E0CD
:1047D000089580E008950C94E923CF93C82F809129
:1047E000C402882319F0813031F02BC00E94DA0D09
:1047F000823249F504C00E94DA0D823261F48C2FB6
:104800000E94EB23811104C08C2F0E944F2317C0FC
:1048100081E090E014C08C2F0E94E92381110EC02A
:10482000C43149F018F4CB3049F00FC0C93219F047
:10483000C83321F00AC01092C40207C081E0817021
:1048400006C01092C40280E002C080E0F8CFCF9191
:10485000089584E0089550E0440F551F2CE0629FB6
:10486000400D511D11249A0160E6869F200D311DD7
:104870001124C901879608950F931F93CF93DF9357
:104880000E942B248C010E940933C82FD0E0DC2F1A
:10489000CC27C80101960E9409339E01282BC9012B
:1048A000DF91CF911F910F9108950F931F93CF9395
:1048B000DF93122F032F0E942B24EC01602F0E9404
:1048C0001D33612FCE010196DF91CF911F910F9182
:1048D0000C941D33AF92BF92CF92DF92EF92FF9272
:1048E0000F931F93CF93DF93A12CE12CF12CB12CCC
:1048F00000E010E0C0E0D0E06701C00ED11EFE0174
:10490000EE0FFF1FEC0DFD1DE250FF4F259134917E
:104910004C2F6B2D8A2D0E9455242196C630D1052F
:1049200071F7045F1F4FB39488E0B812E3CF80E6BD
:10493000E80EF11CA39484E0A812D9CFDF91CF91A7
:104940001F910F91FF90EF90DF90CF90BF90AF90AD
:104950000895EF92FF920F931F93CF93DF93EA0195
:104960007A01E60EF71E8C01C8018796CE15DF0589
:1049700069F0003821E0120720F40E94093388838F
:1049800001C0188221960F5F1F4FEECFDF91CF91AC
:104990001F910F91FF90EF900895EF92FF920F9368
:1049A0001F93CF93DF93EA017A01E60EF71E8C0185
:1049B000C8018796CE15DF0559F0003821E01207AF
:1049C00018F468810E941D3321960F5F1F4FF0CFAE
:1049D000DF91CF911F910F91FF90EF900895462F97
:1049E000843038F4783028F4663018F4672F0C944B
:1049F0003C2480E090E0089580E1089589E592E00C
:104A00000895EF92FF920F931F93CF93DF93EA01E4
:104A10007A01E60EF71E8C01C80189559E4FCE150E
:104A2000DF0569F0093522E0120720F40E940933FE
:104A3000888301C0188221960F5F1F4FEDCFDF9151
:104A4000CF911F910F91FF90EF900895EF92FF92F9
:104A50000F931F93CF93DF93EA017A01E60EF71EBF
:104A60008C01C80189559E4FCE15DF0559F00935D7
:104A700022E0120718F468810E941D3321960F5F0F
:104A80001F4FEFCFDF91CF911F910F91FF90EF90CC
:104A90000895CF93DF93C7EAD1E060E0CE010E9492
:104AA0001D332196C11584E0D807B9F7DF91CF9166
:104AB0000895DF92EF92FF920F931F93CF93DF93AE
:104AC00000D000D0CDB7DEB7F82E8FE08F15E8F11B
:104AD0008FEF93E00E940933811137C007EA11E09C
:104AE000FF2069F0011584E0180779F1C8010E94E0
:104AF0000933811101C0FA940F5F1F4FF1CF198262
:104B00001A821B821C82DD24D39478018FEFE81A6D
:104B1000F80AC8010E94093389831A828823A9F000
:104B20009FEF980F933058F48A83D9820E5F1F4FFE
:104B3000C7010E9409338B83882339F07801CE01A5
:104B400001960E9449058701E0CF0F900F900F90CA
:104B50000F90DF91CF911F910F91FF90EF90DF9019
:104B600008958FE891E00197F1F700C000000895E3
:104B70000C947C032098289A52985A9A0E94B12546
:104B800083B1982F91704A9902C080E001C082E001
:104B9000892B8093CA029091040181E09827909319
:104BA000C602891B8093C5020895CF93E091CA0283
:104BB000EE0FEE0FE093CA0243B1842F817090E0B4
:104BC00049B142FB222720F930E042FF02C022E037
:104BD00030E0822B932B8E2B8093CA02C091C602A9
:104BE0008F70E82FF0E0E851FE4F90818091C9026C
:104BF000890F8093C90284306CF0EC2FF0E0E95308
:104C0000FD4F80818F5F808360E08C2F0E94B825EC
:104C100021E001C020E08091C9028D3F64F4EC2FB7
:104C2000F0E0E953FD4F80818150808361E08C2F5B
:104C30000E94B82521E08091C902082E000C990B32
:104C400064E070E00E9472328093C902822FCF919B
:104C50000895E091C602F0E0E953FD4F2081FC0188
:104C600020830895FF920F931F93CF93DF93D091EA
:104C7000C5020D2F10E009531D4FFC01C081F80142
:104C80008081C81BFC2E80E01F145CF4FA94F801AC
:104C900080818F5F808360E08D2F0E94B82581E046
:104CA000F3CF9C2FC7FD90E0C91BCC2359F0CF5FF9
:104CB000F80180818150808361E08D2F0E94B825AA
:104CC00081E0F3CF882339F0DF91CF911F910F91CD
:104CD000FF900C94840FDF91CF911F910F91FF9063
:104CE0000895CF93DF9386319C4541F5EB010E94F7
:104CF000DA0D982F8A8120910201309103018823D7
:104D000079F09A7A81E009F480E08093CB029111E6
:104D100002C069E201C065E3C9010E94BF290AC05F
:104D20008091CB02811102C069E201C065E3C90133
:104D30000E94C1290E941C0E80E001C081E0DF9129
:104D4000CF9108950F931F93CF93DF93C42FD22F4A
:104D5000FC0182818823C9F04093CE020E94652A1B
:104D60009093CD028093CC0280E28C0F883008F0C3
:104D700057C0C77081E001C0880FCA95EAF7DF917C
:104D8000CF911F910F910C94E5068091CE024813AC
:104D900030C08091CC029091CD020E947D2A883C47
:104DA000910538F510E21D0FCD17B9F080E28C0F98
:104DB000883040F4C77081E001C0880FCA95EAF7D7
:104DC0000E94EC06183028F581E09D2F977001C0F5
:104DD000880F9A95EAF70E94E506802F0E94DC066C
:104DE0001830F0F4D77081E001C0880FDA95EAF747
:104DF0000AC080E28C0F883098F4C77081E001C04F
:104E0000880FCA95EAF7DF91CF911F910F910C940B
:104E1000EC06802FDF91CF911F910F910C94DC064F
:104E2000DF91CF911F910F9108950F939C01CB01BA
:104E3000233F4CE5340731F188F4283DFCE53F077A
:104E4000D9F0293D4CE5340779F1273D3C45A9F5DA
:104E500006E221EE41EE67ED7CE52BC0253FFCE547
:104E60003F07E1F0A8F0263F3C4539F507E225EE83
:104E700046EE66EF7CE51DC007E225EE45EE68EDE7
:104E80007CE517C006E221EE40EE63EF7CE511C041
:104E900007E225EE44EE64EF7CE50BC006E221EE6E
:104EA00042EE65EF7CE505C008E221E045EE69EDE4
:104EB0007CE50E94A22680E008C0FC018281882354
:104EC00019F01092CE0201C081E00F9108958EE199
:104ED000489B02C08150E1F7489BFECF0895589847
:104EE00080E28A95F1F7589A0895FC012AE02A9504
:104EF000F1F728E090E080E031E040E14A95F1F7F9
:104F0000880F489B02C08160932700C0000040E1E9
:104F10004A95F1F7215089F720E12A95F1F729B157
:104F200000C0000030E13A95F1F72170922720810E
:104F3000920F90830895EF92FF920F931F93CF9358
:104F4000DF931F92CDB7DEB719828C017C01E60E8C
:104F5000F11C0E151F0551F00E946727CE01019626
:104F60000E947527F80181938F01F3CF81E0998129
:104F7000911180E00F90DF91CF911F910F91FF90E1
:104F8000EF900895509A589A08955098589AE89A30
:104F9000E9E6F0E080818C7F80830895615091E0A4
:104FA00001C0990F6A95EAF720E031E0992361F09A
:104FB000492F482319F0589A232701C0589840E2F6
:104FC0004A95F1F79695F2CF222311F0589A01C035
:104FD000589880E28A95F1F758980895FF920F93B8
:104FE0001F93CF93DF93EC018C01060F111DC017A7
:104FF000D10741F0F9900E946F2768E08F2D0E9441
:10500000CE27F5CFDF91CF911F910F91FF9008959B
:105010001F920F920FB60F9211240F931F932F938D
:105020003F934F935F936F937F938F939F93AF9330
:10503000BF93EF93FF93CF93DF931F92CDB7DEB76C
:1050400019820E946727CE0101960E947527082FBA
:10505000069506950695902F96959570202F2570AC
:10506000920F292F237096959695920F877089132A
:105070005FC0898181115CC0073008F059C080E1B0
:105080008A95F1F7589A509A82E08A95F1F700C014
:10509000589888E0089F80011124D801AB5FBE4F6B
:1050A0001696ED91FC9117973097A9F06091C10188
:1050B0007091C20114962D913C911597260F371FC0
:1050C00011968D919C911297680F791F13964C91B0
:1050D00013978C910995F801EB5FFE4F638166236E
:1050E00051F08091C1019091C20124813581820FDC
:1050F000931F0E94EE270E946F2780E18A95F1F7A7
:1051000058985098589A80E18A95F1F7F801EB5F2A
:10511000FE4F6081662351F08091C1019091C201E0
:1051200021813281820F931F0E949B270E94672753
:105130000F90DF91CF91FF91EF91BF91AF919F9130
:105140008F917F916F915F914F913F912F911F911F
:105150000F910F900FBE0F901F9018950F931F93F4
:10516000CF93DF93873091050CF06DC0EC01F8947C
:10517000509A589885E08A95F1F700009C2F9695F3
:1051800095702C2F2570920F892F83709695969588
:1051900023E0CC0FDD1F2A95E1F7980F8E01092B34
:1051A0000E946F2784E08A95F1F700C068E0802FA5
:1051B0000E94CE2780E18A95F1F75098589A489935
:1051C00002C000C0FCCF87E090E0489B08C0019778
:1051D00021F4509A589A789436C000C0F6CFFE0158
:1051E000EB5FFE4F6381662381F08091C101909156
:1051F000C20124813581820F931F0E949B27811158
:1052000004C0509A589A78941FC00E94672780E281
:105210008A95F1F75898509A80E18A95F1F7CB5F1B
:10522000DE4F6881662351F08091C1019091C201E7
:1052300029813A81820F931F0E94EE270E946F27D7
:10524000789481E001C080E0DF91CF911F910F91B0
:105250000895909309028093080208959093D502CF
:105260008093D40208950E948A14811103C0809112
:10527000CF020895E091D402F091D502309721F049
:105280000190F081E02D099480E00895E091D4022E
:10529000F091D502309721F00280F381E02D09943E
:1052A00008952091D2023091D3022817390771F066
:1052B0009093D3028093D202E091D402F091D50270
:1052C000309721F00680F781E02D09940895209110
:1052D000D0023091D1022817390771F09093D10292
:1052E0008093D002E091D402F091D502309721F062
:1052F0000084F185E02D09940895FC01329697E031
:1053000080E0915029F021912223D9F38F5FF9CFCA
:105310000895662349F0FC013296089621916217A0
:1053200029F0E817F907D1F780E0089581E00895A2
:105330009C01FC0132969FEF80E04191461789F075
:105340009F3F19F4411101C0982F8F5F8630A9F754
:105350009F3F39F0F901E90FF11D97FDFA9562833E
:10536000089508959C012A5F3F4FFC014281461336
:1053700001C01282019682179307B9F708950C9421
:1053800098290C94B229029626E0FC0111922A95E4
:10539000E9F7089508950C94CA2983E08093D60212
:1053A0000C94CB29811102C081E001C082E080937E
:1053B000D6020C94CB290C94D22981E08093D6029A
:1053C0000C94CB290C94DD2908950C94E4290C94B9
:1053D000E5290C94E4290C94E4290C94E429CF9356
:1053E0000E94EB290E94FF130E94E929C0E08C2F44
:1053F0000E94C412811104C0CF5FC830C1F701C040
:1054000081E0CF91089508951F920F920FB60F92E9
:1054100011248F939F93AF93BF938091D7028111F3
:1054200013C08091320390913303A0913403B09163
:1054300035034196A11DB11D809332039093330330
:10544000A0933403B0933503BF91AF919F918F9197
:105450000F900FBE0F901F90189580913A038430E3
:1054600031F10E9472041092D70220E488E190E0AA
:105470000FB6F894A895809360000FBE209360004B
:1054800083B7817F846083BF83B7816083BF789453
:10549000889583B78E7F83BF0FB6F894A8958091C7
:1054A0006000886180936000109260000FBE0895D4
:1054B0000E9448090C94760482E084BD93E095BD77
:1054C0009AEF97BD80936E0008952FB7F89480915E
:1054D000320390913303A0913403B09135032FBF71
:1054E00008952FB7F894609132037091330380913F
:1054F0003403909135032FBF08959C014FB7F89462
:105500008091320390913303A0913403B09135031D
:105510004FBF821B930B0895CF92DF92EF92FF92C1
:105520002FB7F894C0903203D0903303E090340347
:10553000F09035032FBFA7019601261B370B480BB0
:10554000590BCA01B901FF90EF90DF90CF900895F9
:1055500078941F920F920FB60F9211248F939F93FE
:10556000AF93BF938091320390913303A0913403A2
:10557000B09135030196A11DB11D80933203909324
:105580003303A0933403B0933503BF91AF919F9140
:105590008F910F900FBE0F901F90189581E0809310
:1055A000E00080E28093D8001092C9008FE19EE471
:1055B0000197F1F700C0000087E090EBDC018093D9
:1055C000430390934403A0934503B09346039CE0A8
:1055D00088E10FB6F894A895809360000FBE909371
:1055E0006000FFCF8091E30208950895CF93DF9389
:1055F00021E02093E9002FEF3091E800215035FDA4
:1056000006C035ED3A95F1F700002111F5CF209154
:10561000E80025FF14C0EC0140E050E068E070E0D5
:105620000E946A2D8091E8008E778093E80088E0E0
:10563000FE01ABEDB2E001900D928A95E1F7DF91AA
:10564000CF9108958093D8027093DA026093D902C3
:1056500080913A038430F9F48093E9008FEF9091C0
:10566000E800815095FD06C095ED9A95F1F7000090
:105670008111F5CF8091E80085FF0DC040E050E03A
:1056800063E070E088ED92E00E946A2D8091E8006E
:105690008E778093E8000895BC0184E00C94222B5F
:1056A000BC0183E00C94222B0895CF93603219F54E
:1056B00020913A032430F9F4C091E900CF70309181
:1056C000EC00232F217030FD20E8C22B22E0209334
:1056D000E9002091E80020FF0BC040E050E060E2CC
:1056E00070E00E946A2D8091E8008E778093E80038
:1056F000CF70C093E900CF91089580913903811153
:1057000009C00E94462F0E94A32F8091E20084606E
:105710008093E20008951092390308950C94E229D1
:105720006091360381E0611101C080E00C94CD29C5
:1057300090913A0381E0943009F080E06091360363
:105740000C94D22942E061EC81E00E94BF2E42E23B
:1057500061EC84E00E94BF2E42E261EC82E00E9494
:10576000BF2E42E260EC83E00E94BF2E90913A038C
:1057700081E0943009F080E0609136030C94DB29DD
:1057800080913C03833009F463C030F4813071F0C0
:10579000823009F49CC008958A3009F488C08B30A7
:1057A00009F46EC0893009F0AAC020C080913B0383
:1057B000813A09F0A4C08091E800877F8093E800D7
:1057C00080913F0390914003892B21F468E08BED99
:1057D00092E003C060E080E090E070E00E94002E64
:1057E0008091E8008B778093E800089580913B03D7
:1057F000813209F084C080913F039091400300976B
:1058000019F0029709F07BC08091E800877F8093B0
:10581000E8008091E80082FD05C080913A03811183
:10582000F8CF6DC02091F3008091F20090E0922BB0
:10583000029731F48091F100813011F0863021F42B
:105840008091F1008093E3028091E8008B7753C050
:1058500080913B03813A09F052C080913F039091BF
:105860004003892B09F04BC08091E800877F80932B
:10587000E8008091E80080FFFCCF8091540136C0A1
:1058800080913B038132D9F580913F039091400391
:10589000892BA9F58091E800877F8093E8000E941A
:1058A000F42E80913D03809354010C94480980911B
:1058B0003B03813221F58091E800877F8093E800E7
:1058C0000E94F42E80913E038093E402089580911B
:1058D0003B03813AA1F48091E800877F8093E80040
:1058E0008091E80080FFFCCF8091E4028093F1007A
:1058F0008091E8008E778093E8000C94F42E089550
:1059000084B7877F84BF0FB6F894A8958091600014
:10591000886180936000109260000FBE90E080E884
:105920000FB6F89480936100909361000FBE0C94C1
:10593000DD290E94462F0E94A32FE2EEF0E0808135
:105940008460808378940C94383288E491E00C94DD
:105950002E2980913A038530A9F480913A0385304D
:1059600079F40E942D2A809138038823B1F30E9494
:10597000EF29882391F30E94542D0E944809EDCF0E
:105980000C94582A0895CF93DF93CDB7DEB7A09734
:105990000FB6F894DEBF0FBECDBF80913A038430BE
:1059A00011F583E08093E9008091E80082FF1BC03D
:1059B0008091E80085FF0AC040E050E060E270E0BE
:1059C000CE0101960E94B52D91E001C090E080913A
:1059D000E8008B778093E800992329F060E2CE01FC
:1059E00001960E943721A0960FB6F894DEBF0FBE35
:1059F000CDBFDF91CF9108950C94FE2C292F332732
:105A000023303105C9F060F42130310581F02230B6
:105A1000310509F041C08BE590E029E735E040C051
:105A200021323105E1F02232310531F135C082E118
:105A300090E024ED35E034C099278130910549F09C
:105A400028F0029749F5E5E5F5E005C0E5E7F5E062
:105A500002C0E3E6F5E0849190E09F0121C063304D
:105A60007105D0F4660F771FFB01EF5FFD4F2081BA
:105A7000318189E090E014C06330710568F4FB0166
:105A8000EE0FFF1FE550FE4F20813181FB01E850F2
:105A9000FE4F808190E004C080E090E020E030E0A4
:105AA000FA0131832083089580E189BD82E189BDB7
:105AB00009B400FEFDCF8091D8008F7D8093D8007F
:105AC0008091E00082608093E0008091E00081FDA1
:105AD000FCCF0895CF92DF92EF92FF920F931F9326
