:100000000C94D0040C940A050C940A050C940A056F
:100010000C940A050C940A050C940A050C940A0524
:100020000C940A050C940A050C94F71C0C942E1CD5
:100030000C9493200C940A050C940A050C940A0560
:100040000C940A050C940A050C940A050C940A05F4
:100050000C940A050C9452200C940A050C940A0581
:100060000C940A050C940A050C940A050C940A05D4
:100070000C940A050C940A050C940A050C940A05C4
:100080000C940A050C940A050C940A050C940A05B4
:100090000C940A050C940A051F0C1F0C510C510CF2
:1000A000C30CDF0C0C0E0C0EEA0C780D890D890DBB
:1000B00096119911C911D611DE11FE119C129C12D4
:1000C0009C129C129C120112031208122E12511241
:1000D000541257127B123D1A641A101C641A101C19
:1000E000B01AD31A101CC61BD61B0000000000005B
:1000F0000000000000000000000000000000000000
:1001000000000000000000000000000000007E0F62
:1001100000D4FFFFFFC700000078000000000000CF
:1001200000002A2B28000000000000000000000052
:10013000000000000029000000002C1E34202122B5
:1001400024342627252E362D3738271E1F2021221E
:10015000232425263333362E37381F040506070897
:10016000090A0B0C0D0E0F10111213141516171887
:10017000191A1B1C1D2F3130232D350405060708C5
:10018000090A0B0C0D0E0F10111213141516171867
:10019000191A1B1C1D2F3130354C44454255473A26
:1001A0002064697361626C65642E0A00444542559F
:1001B000473A20656E61626C65642E0A005B735D70
:1001C000000A002530313662003A200025303258CE
:1001D000000A722F632030313233343536373839E4
:1001E0004142434445460A000A0025303258006C1B
:1001F00065645F7461736B3A20004F6E6573686F5E
:10020000743A206163746976653A2025640A000AAD
:10021000002530325820006B6579626F6172645F2F
:100220007265706F72743A20000631FF0974A10183
:100230000975150026FF00952075088102097615BD
:100240000026FF00952075089102C005010902A152
:100250000185020901A100050919012908150025D8
:1002600001950875018102050109300931158125C3
:100270007F95027508810609381581257F950175DE
:10028000088106050C0A38021581257F950175083D
:100290008106C0C005010980A101850319012AB7A3
:1002A00000150126B700950175108100C0050C09E5
:1002B00001A101850419012AA002150126A00295B9
:1002C0000175108100C005010906A1018506050719
:1002D00019E029E715002501950875018102050738
:1002E000190029EF1500250195F075018102050817
:1002F0001901290595057501910295017503910173
:10030000C00660FF0961A1010962150026FF009582
:1003100020750881020963150026FF0095207508E5
:100320009102C005010906A101050719E029E71599
:100330000025019508750181029501750881010567
:1003400007190029FF150026FF0095067508810092
:100350000508190129059505750191029501750397
:100360009101C05B435D005B445D005B535D005BDE
:10037000575D005B525D0009027B00040100A0FA9A
:1003800009040000010301010009211101000122FB
:100390004000070581030800010904010002030071
:1003A000000009211101000122220007058203201B
:1003B00000010705030320000109040200010300F6
:1003C000000009211101000122B600070584032065
:1003D00000010904030002030000000921110100CB
:1003E00001222200070585032000010705050320DF
:1003F000000112010002000000086266407701005F
:10040000010200011A03570061006B0069007A00C5
:1004100061007300680069002000340030000000B3
:100420001403660075006D006200750063006B00C8
:1004300065007200000004030904290A0025750004
:100440002F002575005D280025640020002564002C
:10045000200025640020002564007C0025303258EF
:10046000006D6F7573656B6579205B62746E7C7867
:100470002079207620685D287265702F61636C2971
:100480003A205B002B00000014001A000800150041
:1004900017001C0018000C00120013002A00035162
:1004A00004001600070009000A0000000B000D0000
:1004B0000E000F0033002800E1001D001B000600A5
:1004C000190005002900110010003600370038001F
:1004D000E500E000E3000000E20000002C41000025
:1004E0002C420000E20000007600E0003A0000002C
:1004F0003B003C003D003E003E0040004100420009
:100500004300440045000B511E001F002000210045
:1005100022000000230024002500260027000100FF
:10052000010001000100010001002D0001002E006A
:1005300001000100010001000100010001000000B4
:10054000010000002C0000002C0000000100000051
:100550000100010001000000010001000100010094
:1005600001000100010001000100010031000B51F8
:1005700001000100010001000100000050005100D5
:1005800052004F0001003400010001000100010091
:100590000100010001000100010001000100010053
:1005A0000100010001000000010000002C0000001B
:1005B0002C0000000100000001000100010000000B
:1005C000010001000100005C0100010001000100C8
:1005D00001000100310001000100010001000100E3
:1005E00001000000010001000100010001003400D1
:1005F00001000100010001000100010001000100F3
:1006000001000100010001000100010001000000E3
:1006100001000000010000000100000001000000D6
:1006200001000100010000000100010001000100C3
:1006300001000100010001000100010001000100B2
:1006400001000100010001000100000001000100A3
:100650000100010001000100010001000100010092
:100660000100010001000100010001000100010082
:100670000100010001000000010000000100000075
:100680000100000001000000010001000100000065
:100690000100010001000100010001000100010052
:1006A0000100010001000100010001000100010042
:1006B0000100000001000100010001000100010033
:1006C0000100010001000100010001000100010022
:1006D0000100010001000100010001000100000013
:1006E0000100000001000000010000000100000006
:1006F00001000100010000000100010001000100F3
:1007000001000100010001000100010001000100E1
:1007100001000100010001000100000001000100D2
:1007200001000100010001000100010001000100C1
:1007300001000100010001000100010001000100B1
:1007400001000100010000000100000001000000A4
:100750000100000001000000010001000100000094
:100760000100010001000100010001000100010081
:100770000100010001000100010001000100010071
:100780000100000001000100010001000100010062
:100790000100010001000100010001000100010051
:1007A0000100010001000100010001000100000042
:1007B0000100000001000000010000000100000035
:1007C0000100010001000000010001000100010022
:1007D0000100010001000100010001000100010011
:1007E0000100010001000100010000000100010002
:1007F00001000100010001000100010001000100F1
:1008000001000100010001000100010001000100E0
:1008100001000100010000000100000001000000D3
:1008200001000000010000000100010001000000C3
:1008300001000100010001000100010001000100B0
:1008400001000100010001000100010001000100A0
:100850000100000001000100010001000100010091
:100860000100010001000100010001000100010080
:100870000100010001000100010001000100000071
:100880000100000001000000010000000100000064
:100890000100010001000000010001000100010051
:1008A0000100010001000100010001000100010040
:1008B0000100010001000100010000000100010031
:1008C0000100010001000100010001000100010020
:1008D0000100010001000100010001000100010010
:1008E0000100010001000000010000000100000003
:1008F00001000000010000000100010001000000F3
:10090000010001000100005C010001000100010084
:1009100001000100010001000100010001000100CF
:1009200001000000010001000100010001000100C0
:1009300001000100010001000100010001000100AF
:1009400001000100010001000100010001000000A0
:100950000100000001000000010000000100000093
:10096000010001006164645F6B65795F6269743ADC
:100970002063616E2774206164643A202530325808
:100980000A0064656C5F6B65795F6269743A206325
:10099000616E27742064656C3A20253032580A0055
:1009A00011241FBECFEFD0E2DEBFCDBF04B603FEE1
:1009B00018C08091720290917302A0917402B0915C
:1009C00075028730904BA740B04B59F410927202D9
:1009D000109273021092740210927502E0E0F0EF30
:1009E000099511E0A0E0B1E0E8EFF9E400E00BBF09
:1009F00002C007900D92A436B107D9F722E0A4E611
:100A0000B1E001C01D92A237B207E1F70E94730E58
:100A10000C94FA240C940000FF93EF93E09164018E
:100A2000F0916501309709F00995EF91FF910895D4
:100A3000FC018591803011F0EFDFFBCF0895FF2797
:100A4000E0E230E247FF0CC0419597FF09C0EDE2BC
:100A50006095709580959095611D711D811D911D0A
:100A600027FF02C0219530E350E2AA27660F771FC7
:100A7000881F991FAA1FA41710F0A41B63955A95ED
:100A8000A9F7AA3008F0A95FA05DAF93F3956115AF
:100A900071058105910541F7ED3211F4EF93F3955E
:100AA000F21718F43F93F395FBCF8F91B5DFFA95CA
:100AB000E1F70895E991F9918591803021F085322F
:100AC00019F0AADFF9CF089520E0E8945591553246
:100AD000C1F3503311F4689455915A3348F450538C
:100AE00090F3220F022E220F220F200D250FF4CF9C
:100AF0000EF4219589919991533619F3533729F1C1
:100B0000533559F1BC0188279927E8945C3621F4C4
:100B10008991999168945591543639F446EF7EF055
:100B200077FF0DC08FEF9FEF0AC055374AE039F0CD
:100B3000583540E121F0523642E009F00895FF9324
:100B4000EF937DDFEF91FF91B7CFFF93EF93FC0120
:100B500081918030B9F360DFFBCFFF93EF9368DFC3
:100B6000F1CFDF93CF93CDB7DEB72596A3DFCF913B
:100B7000DF9108952DE0929F800D1124682F6695D6
:100B800066956695982F977084E0689FB001112450
:100B900040E050E080E0FB01E40FF51FE959FE4F13
:100BA000208130E0092E02C0369527950A94E2F79D
:100BB00021703327042E01C0220F0A94EAF7822BFA
:100BC0004F5F5F4F4430510531F708952DE0929FFC
:100BD000800D1124E82FE695E695E695877051E0A3
:100BE00001C0550F8A95EAF784E0E89FF0011124CF
:100BF000E959FE4F20E030E070E04081CB01022E49
:100C000002C0969587950A94E2F7817081958427B2
:100C10008523842781932F5F3F4F2430310569F767
:100C2000089580E090E00E94512180E090E00E94D1
:100C30003B21109215020E944516E7E5F2E086E09E
:100C4000DF011D928A95E9F710925202109250022C
:100C5000109251020C94A722882379F19CEF980FEF
:100C6000913A30F4682F8CE991E00E94BC200DC0CD
:100C700090E2980F983058F4877091E001C0990F76
:100C80008A95EAF7892F0E943E160C9445169BE53B
:100C9000980F933020F480E090E00C94512198E577
:100CA000980F973120F480E090E00C943B21803F36
:100CB00020F00E9453230C94A7220895CF938823F9
:100CC00009F472C0C82F8CEF8C0F813AC0F5809167
:100CD0000C018823E1F080916C0287FF18C0EC2F93
:100CE000E695E695E695F0E0E456FE4F8281282FE2
:100CF00030E04C2F477081E090E002C0880F991FD0
:100D00004A95E2F782239323892B61F412C0EEE91E
:100D1000F1E084EA91E02191C21721F08E179F073C
:100D2000D1F707C06C2F8CE991E00E94BC200E9493
:100D300045166C2F8CE991E00E94F52010C080E2EE
:100D40008C0F883078F4C77081E090E001C0880F84
:100D5000CA95EAF790911602892B80931602CF91DB
:100D60000C944516EBE5EC0FE33040F4F0E0E25E66
:100D7000FE4F808190E0CF910C945121E8E5EC0F7B
:100D8000E73150F4F0E0EE0FFF1FEF5DFE4F808182
:100D90009181CF910C943B21C03F30F08C2F0E9469
:100DA0000C24CF910C94A722CF910895BF92CF929B
:100DB000DF92EF92FF920F931F93CF93DF937C010B
:100DC00000914E0210914F028091180290911902E9
:100DD000082B192BCFE0D0E0CC24C394D12CC60132
:100DE0000C2E02C0880F991F0A94E2F780239123EA
:100DF000892B21F4219798F7B12C09C0BC2EB7019B
:100E00008C2F0E9450220E942114019799F38B2D60
:100E1000DF91CF911F910F91FF90EF90DF90CF90D6
:100E2000BF90089590934F0280934E020C94110648
:100E300021E030E002C0220F331F8A95E2F72095AF
:100E4000309580914E0290914F02822393230C940F
:100E5000120721E030E002C0220F331F8A95E2F72B
:100E600080914E0290914F02822B932B0C9412078B
:100E700090931902809318020C941106FC01808152
:100E800091810E949B1792959F70963079F010F493
:100E9000925001C09A50923068F4803F69F018F483
:100EA000883E40F409C0843F29F406C0883E20F003
:100EB000813F11F080E0089581E0089510921602BC
:100EC00080910C01882331F080916C0287FF02C071
:100ED0008EE101C086E0EEE9F1E0DF011D928A9526
:100EE000E9F70C941106882321F00E943E160C9419
:100EF00045160895882339F090911602892B809326
:100F000016020C94451608951F93CF93DF93182F64
:100F1000893319F0C0E0D0E002C0C0E5D0E0812FF5
:100F20000E945E06209741F08FE99FE00197F1F75C
:100F300000C000002197F6CF812FDF91CF911F9144
:100F40000C942C061F93CF93DF93CDB7DEB7679732
:100F50000FB6F894DEBF0FBECDBF4B8B5C8B6D8B95
:100F60007E8B8F8B61111092150286E09E01235FAC
:100F70003F4FD901E82F1D92EA95E9F795E0FE0170
:100F80007396D90101900D929A95E1F79C894E894B
:100F90005F897B897D879E876F87598B488BF90195
:100FA000DE01179601900D928A95E1F7CE01079622
:100FB0000E94A81781113EC086E0FE013796DE012F
:100FC000119601900D928A95E1F7FF81E8856A8577
:100FD0007B856115710531F0EF3F31F481E0FF3F12
:100FE00019F403C081E001C080E080FD23C020919E
:100FF000C20130E0C9010196877099274091F30141
:1010000050E08417950779F1F983EA837D836C8337
:1010100096E0929FD001939FB00D1124AD53BE4F27
:10102000FE01319601900D929A95E1F78093C201ED
:101030000E94251716E08091F3019091C201891753
:10104000F9F0189FC00111248D539E4F0E94A817DC
:101050008823B1F08091F30190E001968770992781
:101060008093F301E8CF0E945E071092C2011092B4
:10107000F301ECEBF1E086E0DF011D928A95E9F7E0
:1010800067960FB6F894DEBF0FBECDBFDF91CF914C
:101090001F9108953F924F925F926F927F928F922D
:1010A0009F92AF92BF92CF92DF92EF92FF920F93F7
:1010B0001F93CF93DF93CDB7DEB729970FB6F89480
:1010C000DEBF0FBECDBFFC018081918123813481C1
:1010D000232B31F09F3F31F491E08F3F19F403C08F
:1010E00091E001C090E090FDD4C57F0185E0DE0174
:1010F000119601900D928A95E1F7F701228189817D
:101100009A81222349F00E94D606182F682F8981E0
:101110009A810E94E60503C00E94BA05182F6981D2
:101120007A81812F0E9450228C01F70182818823CD
:1011300009F4F2C0980122513F452031310508F0F1
:101140001DC18FEF9FE00E9467248111EFC0025103
:1011500037E0832E35E0932E002379F08114F0E1FF
:101160009F0609F4E3C0C4010E946724811101C0F5
:1011700001502FEF821A920AEFCF1E821F8218862B
:101180001986442443942AE0322E84010F5F1F4FB6
:10119000C4010E9467248E831F82882309F4C6C07D
:1011A0009FEF980F933060F48F834E8232E0830E6E
:1011B000911CC8010E9467248887811102C0B6C0B3
:1011C00048018E010A5F1F4FF80120812223E9F2B6
:1011D000213009F04CC08181813049F46801F2E08E
:1011E000CF0ED11CF80182810E9484070AC0823090
:1011F00051F46801F2E0CF0ED11CF80182810E9407
:101200005E06860186C0833049F46801F2E0CF0EA5
:10121000D11CF80182810E942C06F3CF843019F092
:101220000F5F1F4F76C0F80122810E5F1F4F80E0D5
:1012300090E030E0205331092A30310568F4389EBF
:10124000A001399E500D1124C901840F951F0F5F15
:101250001F4FF8012081EDCF009709F45AC0EFE944
:10126000FFE03197F1F700C000000197F5CFE22FC2
:10127000F0E0E65EFE4F5490822F86958695869527
:1012800090E0FC01E65FFE4F64902770712C022E07
:1012900002C0759467940A94E2F7F1E06F22772414
:1012A000FC01E650FF4FA490B12C022E02C0B59471
:1012B000A7940A94E2F731E0A322BB24FC01E65193
:1012C000FF4FC490D12C02C0D594C7942A95E2F761
:1012D00081E0C822DD246114710419F081EE0E94BE
:1012E0005E06A114B10419F086EE0E945E06852DFB
:1012F0000E948407AB2819F086EE0E942C0667280E
:1013000019F081EE0E942C06CD2819F08CE20E9483
:1013100084070F5F1F4F58CF00313FE5130709F0D7
:10132000AFC481E00E9418070E9449198091F4011E
:10133000877009F4AEC4F7018281882309F4A9C437
:1013400080916D0282FDA5C482E029960FB6F894C3
:10135000DEBF0FBECDBFDF91CF911F910F91FF90E8
:10136000EF90DF90CF90BF90AF909F908F907F9045
:101370006F905F904F903F900C94D9160031FFE52D
:101380001F0711F481E005C001312FE5120721F498
:1013900082E00E942907C8CF033FFCE51F0799F4AC
:1013A00006E221EE40EE63EF7CE509C0073DECE587
:1013B0001E0711F506E221EE41EE67ED7CE5C7015F
:1013C0000E947321B3CF043F2CE5120708F05CC1E3
:1013D000083D3CE5130731F407E225EE45EE68EDE4
:1013E0007CE5EDCF093D9CE5190701F708E221E016
:1013F00045EE69ED7CE5E3CF882309F47AC11092CC
:101400005F0203309DE5190758F40A3FECE51E071B
:1014100080F4C80182509C45449708F054C109C02B
:101420000136FDE51F0729F0053A2DE5120709F001
:101430004AC10E94BB1590936D0280936C020131EA
:101440003CE5130709F4C6C008F042C009309CE52A
:10145000190709F49BC000F50530FCE51F0709F4E6
:1014600085C078F403303CE5130709F478C008F030
:101470007AC002301C4509F0F7C080916C0281608F
:10148000F1C00730ECE51E0709F478C008F07AC017
:1014900080916C028061E6C00D302CE5120709F4E2
:1014A00087C058F40B308CE5180709F479C008F0B0
:1014B0007BC080916C0288606FC00F30ECE51E0726
:1014C00009F480C008F082C080916C02877FCAC096
:1014D0000D3F2CE5120709F471C000F505318CE5CC
:1014E000180709F485C068F40331ECE51E0709F418
:1014F00075C008F095C00E945E0780916C028F77DE
:10150000B1C00B3F2CE51207A9F108F054C00A3F07
:101510001C4509F0A9C080916D0240C001309DE5D5
:10152000190709F489C058F40F3FFCE51F0709F4B7
:101530005AC008F069C080916D0282602FC00136E8
:101540003DE5130709F47EC0053A8DE5180709F457
:1015500083C002301D4509F087C060E06EC08091F5
:101560006C0282607FC080916C0216C080916C0218
:10157000886078C080916D0282604FC080916C025B
:10158000806270C080916C0280646CC00E945E07B3
:1015900080916C02806866C0846064C081603DC0D8
:1015A00080916C028E7F5EC080916C028D7F5AC0EC
:1015B00080916C0216C080916D0218C080916D02FE
:1015C0008D7F2BC080916C028F7E4CC080916C020D
:1015D0008F7D48C080916C028F7B44C080916C02EB
:1015E000877F8B7F3FC080916D028D7F8E7F15C07E
:1015F00080916C0282FB222720F991E0922790FBD8
:1016000082F990FB83F92EC080916D02982F9095FE
:1016100091708E7F892B90FB81F980936D0224C09D
:101620000E945E0780916C0287FB222720F991E0DF
:10163000922790FB87F916C061E08EE090E00E944F
:10164000752412C080916C0284FB222720F991E05E
:10165000922790FB84F906C080916C02982F909598
:1016600090FB80F980936C0260916C0210916D0286
:1016700084E090E00E947524612F82E290E00E9455
:1016800075240E945E0752CE053FFCE51F0731F42A
:1016900006E221EE42EE65EF7CE591CE053F2CE5BA
:1016A000120730F407E225EE44EE64EF7CE587CEC6
:1016B000063F3CE5130709F09FCE07E225EE46EE14
:1016C00066EF7CE57CCE06318CE5180719F5809134
:1016D00016028A7A91E009F490E0909366018823DB
:1016E00011F065E301C069E28CE991E00E94F52008
:1016F0000EC006311C4509F056C080916601882352
:1017000009F4C5C265E38CE991E00E94BC200E9407
:1017100045160CCE0E3DECE51E07B9F140F401155F
:101720002CE5120789F001301C45E1F03CC00B3577
:101730008DE51807A9F10C359DE5190749F10A3522
:101740001D4589F581E02DC00E945E07FFEF24E36F
:101750003CE0F15020403040E1F700C000000E9422
:101760002E20E4CD80916602982F9095917090FB89
:1017700080F980936602992319F08CEA91E002C007
:101780008AE991E00E941805D1CD0E94CC15CECDFA
:1017900080916D0282FB882780F991E0892701C042
:1017A00080E00E94F616F701828100811181882372
:1017B00049F0C8010E94D606D82E682FC8010E94A1
:1017C000E60504C0C8010E94BA05D82EB8018D2DC7
:1017D0000E9450220E9421148C01982EF701D28081
:1017E000A580A2949FE0A9228091F4018770B9F0AE
:1017F000DD20A9F0812F807F803421F080E2800FEE
:10180000883068F080916D0282FD09C082E00E94FC
:10181000D9168091F4018770CC24C3948111C12C16
:10182000B12EB2948FE0B8228B2D90E08C309105D0
:1018300008F0F2C1FC01E45BFF4F0C94C924812F36
:10184000807F1F70882311F01295107FDD20B9F082
:10185000112309F4CFC180E2800F883010F091107D
:1018600006C080911602182B1093160205C08091B5
:101870001502182B109315020E944516BBC1802F2C
:101880000E942C06112309F4C7C1005E083078F1CC
:10189000992069F110958091150218231093150273
:1018A00029C0812F807F1F70803211F01295107F28
:1018B000992021F0F1E09F16D9F149C080916D0285
:1018C00082FF1BC0DD2069F0112339F080911602E0
:1018D000182B109316020E94451680E00E945E06A7
:1018E0009BC180E00E942C06112309F495C1812F31
:1018F0000E943E160E9445168FC1DD2081F0809126
:101900001702AA2051F021E0A21207C0182B1817C5
:1019100009F482C1109317027FC1812B10C0AA2045
:1019200021F031E0A31609F477C10E94381627C0D0
:10193000DD2041F085E08A1508F46EC1812F0E94F8
:101940007A076AC194E09A1508F466C118C0DD20D0
:1019500049F0AA2099F3F701858180FF4BC18F7070
:101960008583ECCFAA2059F0093309F052C1FFEF6B
:1019700027EE33E0F15020403040E1F748C1812F9D
:101980000E94730749C1812F86958695837019F04F
:10199000813059F041C1DD2019F0C801937002C0B7
:1019A00080E090E00E9451213DC1DD2019F0C80186
:1019B000937002C080E090E00E943B2133C1802FF1
:1019C000DD2019F00E940C2402C00E9453230E94C3
:1019D000A72228C1812F837009F041C0D11020C1F6
:1019E000302F329536953770330F330F802F8F702D
:1019F00090E0032E02C0880F991F0A94E2F704FFBB
:101A00000BC04FE050E002C0440F551F3A95E2F77B
:101A10009A012095309502C020E030E01695169589
:101A20001370123099F068F4409118025091190225
:101A3000113029F0822B932B8423952304C0842B0F
:101A4000952B822B932B0E943807EAC0822B932B75
:101A5000209118023091190282279327F4CFDD20BC
:101A600019F0812F817001C08695882309F4D8C0B0
:101A7000302F329536953770330F330F802F8F709C
:101A800090E0032E02C0880F991F0A94E2F704FF2A
:101A90000BC04FE050E002C0440F551F3A95E2F7EB
:101AA0009A012095309502C020E030E016951695F9
:101AB0001370123079F0B8F440914E0250914F02F9
:101AC000113029F0822B932B842395230EC0842B75
:101AD000952B09C0822B932B20914E0230914F02FF
:101AE0008227932702C0822B932B0E94120798C053
:101AF0001F70DD2039F0812F0E942907802F0E945E
:101B00007A078EC0802F0E947307812F0E941807CA
:101B100087C0802F92EF991699F1991538F0E0EF70
:101B20009E1659F0F1EF9F1631F160C023EF921627
:101B300071F134EF9316D9F059C0DD2099F084E0AB
:101B40008A1508F469C01F7181E090E002C0880F17
:101B5000991F1A95E2F720914E0230914F02822789
:101B6000932722C095E09A1508F456C0ECCF8091D7
:101B70006D0282FF1CC0DD2029F0812F8F7129C0EA
:101B8000DD20D9F3812F8F710E94180745C0DD2019
:101B900049F01F7181E090E002C0880F991F1A95EB
:101BA000E2F702C080E090E00E94120735C0DD201D
:101BB00099F01F71812F0E94290780916D0282FD8B
:101BC00007C0E8E01E9FC001112483608093F401E8
:101BD000812F0E94290720C081E00E94D916F1E0E0
:101BE000FA15D0F482E00E94D91616C0DD2021F04B
:101BF000AA2019F2802F72CEAA2021F2893349F44B
:101C00002FEF37EE83E0215030408040E1F700C0F5
:101C10000000802F0E942C0688EF8B0D843010F47A
:101C20000E946721CC20A9F18091F40180FD31C090
:101C3000F70112828595859585950E942907C70130
:101C40000E944A088091F40185958595859529968D
:101C50000FB6F894DEBF0FBECDBFDF91CF911F91BD
:101C60000F91FF90EF90DF90CF90BF90AF909F903B
:101C70008F907F906F905F904F903F900C941807DB
:101C800001319FE5190709F087CB82E04BCB69E270
:101C90003ACD29960FB6F894DEBF0FBECDBFDF91C7
:101CA000CF911F910F91FF90EF90DF90CF90BF9059
:101CB000AF909F908F907F906F905F904F903F90EC
:101CC00008958295982F937344E0949F9001112476
:101CD0008C7C86958695282B822F8575880F2A7A8D
:101CE0002695822B0895CF93DF93CDB7DEB7AB97C0
:101CF0000FB6F894DEBF0FBECDBF84B7877F84BF19
:101D00000FB6F894A8958091600088618093600078
:101D1000109260000FBE90E080E80FB6F8948093B8
:101D20006100909361000FBE85B7806885BF85B75D
:101D3000806885BF89E89EE1909365018093640186
:101D40000E94761C0E94951C8091E2008460809322
:101D5000E2007894809144028823A1F01091E90078
:101D60001F709091EC00892F817090FD80E8182BF6
:101D70001092E9008091E80083FD0E9458191F70BD
:101D80001093E90082E084BD93E095BD9AEF97BD82
:101D900080936E000E948E22811102C00E947F22D9
:101DA0000DE011E0B1E1EB2EB1E0FB2ED8018D91F9
:101DB0008D018F3F11F00E943113E016F106B1F74B
:101DC00001E111E0AEE1EA2EA1E0FA2EF8018191E5
:101DD0008F018F3F11F00E943113E016F106B1F729
:101DE00088E0E4E9F1E0DF01282F1D922A95E9F768
:101DF000E3E8F1E0DF011D928A95E9F780E090E0E9
:101E00000E946F24893E9E4F21F40E948E228111F0
:101E100002C00E94CC1582E090E00E94672480936B
:101E200066020E94BB1590936D0280936C020E9423
:101E30004813EFE3FCE93197F1F700C000000E947E
:101E400048138091940180FF08C06FEF7FEF80E01E
:101E500090E00E9493240E942E2083E090E00E9454
:101E6000672490E00E94380780E091E0909363023D
:101E70008093620280914402853009F04CC08DEB62
:101E800091E00E941805F0E4FF2E04E116E1809134
:101E90004402853009F03BC080914402843019F13E
:101EA0001092670228E130E00FB6F894A8952093CD
:101EB00060000FBEF092600083B7817F846083BFB3
:101EC00083B7816083BF7894889583B78E7F83BF03
:101ED0000FB6F894A89580916000886180936000A7
:101EE000109260000FBE80914302882309F4CFCF87
:101EF0000E944813E4E9F1E081919191892B09F066
:101F000045C34CE951E04E175F07B1F7C0CF0E94BF
:101F10005E070E9467210E944813882359F08FB7FB
:101F2000F894409168025091690260916A02709140
:101F30006B028FBF7BE8472E71E0572EE4E96E2ECF
:101F4000E1E07E2E00E010E00BA7D301AD90BD9044
:101F50003D01F201C190D1902F01CA24DB24C114AC
:101F6000D104B1F40F5F1F4F0430110569F78FEFF3
:101F70008EA38FA318A60E9487208160782F9AA72E
:101F800089A74EA15FA168A58AA50E94A20778C073
:101F90008091660281FD05C080E0EE24E394F12C7F
:101FA00049C081ED91E00E94180554E9852E51E069
:101FB000952EE12CF12CFF92EF922CEC31E03F9327
:101FC0002F930E94B10589EC91E00E941805D4017D
:101FD0008C9111962C90B2E08B0E911C0E94610E98
:101FE000382E822D0E94610E232D30E0322F2227C1
:101FF000F901E82BCF019F938F9323EC31E03F93BE
:102000002F930E94B10581EC91E00E9418055FEFCB
:10201000E51AF50A0FB6F894DEBF0FBECDBF94E007
:10202000E916F10441F6B8CF8F5FEE0CFF1C8D303E
:1020300009F498CF96012E213F21232BA9F389A3E0
:10204000ABA5AAA3AE20BF2081E0AB2809F480E0B5
:102050008BA30E9487208160782F9DA38CA349A128
:102060005AA16BA18DA10E94A207000F111FF801B8
:10207000E557FE4F80819181E826F926F182E082C2
:1020800086E0E7E5F2E08E010F5F1F4FD801019077
:102090000D928A95E1F7C0905902D0905A02E090D3
:1020A0005B02F0905C021092590210925A02109258
:1020B0005B0210925C02C11003C0DD2009F451C024
:1020C00080915502909156020E9478209C01909137
:1020D0005202992309F478C22531310508F441C030
:1020E0009F3F19F09F5F90935202CC2061F00E94B5
:1020F000EC231C1414F491E001C09FEF899F802D04
:10210000112480935902DD2061F00E94EC231D14FC
:1021100014F491E001C09FEF899F802D11248093DA
:102120005A02309159023323E1F020915A022223BE
:10213000C1F045EB3403C0011124992319F09093A9
:10214000590203C081E08093590255EB2503C00179
:102150001124992319F090935A0203C081E08093CF
:102160005A02E11003C0FF2009F451C080915302CC
:10217000909154020E9478209C01909150029923E2
:1021800009F427C22135310508F441C09F3F19F0F9
:102190009F5F90935002EE2061F00E94CA231E14AC
:1021A00014F491E001C09FEF899F802D112480934A
:1021B0005B02FF2061F00E94CA231F1414F491E017
:1021C00001C09FEF899F802D112480935C02309184
:1021D0005B023323E1F020915C022223C1F045EB46
:1021E0003403C0011124992319F090935B0203C0BA
:1021F00081E080935B0255EB2503C00111249923F4
:1022000019F090935C0203C081E080935C0280919E
:10221000590281110BC080915A02811107C080912F
:102220005B02811103C080915C0281110E94A72290
:10223000CB82DC82ED82FE8286E0F801A7E5B2E087
:1022400001900D928A95E1F70E946721F82E809106
:102250009301F81621F1F09293018091660282FFBA
:102260001EC080FF04C08FEE91E00E94180580918F
:10227000660280FF0CC01F92FF928AEE91E09F934E
:102280008F930E94B1050F900F900F900F90809147
:10229000660280FF04C088EE91E00E9418058091DC
:1022A0004402843009F0E6CD83E08093E900809118
:1022B000E80082FFDFCD8091E80085FF21C00E9409
:1022C000261E81111BC080E2E82EF12C680109C096
:1022D0008091F100D6018D936D01B1E0EB1AF10808
:1022E00069F08091E80085FDF3CF8091E8008B775D
:1022F0008093E8000E94261E882399F391E001C094
:1023000090E08091E8008B778093E800992309F4AE
:10231000B1CDE9818E2F90E0FC013197E331F105D9
:1023200008F00AC1E85AFF4F0C94C9241A8289E0C8
:102330006DC08A81823009F43FC1833089F08130D9
:1023400009F0FAC02FB7F894809168029091690261
:10235000A0916A02B0916B022FBFBB83AC832BC0EC
:1023600080919401909195019B838C83809196013B
:10237000909197019D838E8380919801909199010E
:102380009F83888780919A0190919B0199878A8782
:10239000D5C08A81823009F0CFC06B817C818D816C
:1023A0009E810E94D2240E945D22C8C04C816B8114
:1023B0008A810E942A229D838E83C0C0CD80DE80C8
:1023C000DC24CD24DC248C81EB809A81EAE1EE9E32
:1023D00070011124F8E69F9FE00CF11C1124E80E17
:1023E000F11CE80EF11C6D2DC70187960E94752423
:1023F0006C2DC70188960E947524A0C00E94F6210A
:102400009DC080E152C08AE08A8389EF8B8396C0A9
:10241000EA80FB80FE24EF24FE24AC80B12C68010E
:10242000C701895F9A4F9601201B310B2A153B0586
:1024300008F084C029EFE2162AE0F20630F40E9488
:102440006724D60114968C9302C0F6011482FFEF24
:10245000EF1AFF0A2FEFC21AD20AE2CFEA80FB80FE
:10246000FE24EF24FE24AC80B12C6801C701895FF3
:102470009A4F9601201B310B2A153B0508F05EC0D0
:1024800039EFE3163AE0F30628F4D60114966C917E
:102490000E947524BFEFEB1AFB0AEFEFCE1ADE0A9B
:1024A000E5CF0E94E6214AC08CE08A8347C0EA80DB
:1024B000FB80FE24EF24FE24AC80B12C6801C70110
:1024C00087969601201B310B2A153B05B8F5F0EED7
:1024D000EF16F4E0FF0630F40E946724D60114964C
:1024E0008C9302C0F6011482FFEFEF1AFF0A2FEF60
:1024F000C21AD20AE4CFEA80FB80FE24EF24FE2435
:10250000AC80B12C6801C70187969601201B310B66
:102510002A153B0598F430EEE31634E0F30628F470
:10252000D60114966C910E947524BFEFEB1AFB0A3A
:10253000EFEFCE1ADE0AE7CF8FEF89838091440256
:10254000843009F097CC8091E9008F702091EC00E5
:10255000922F917020FD90E8F92EF82A82E0809366
:10256000E9008091E80080FF0CC040E050E060E2AC
:1025700070E0C8010E94591E8091E8008E77809318
:10258000E8008F2D8F708093E90074CC09BD19BDD0
:1025900009B400FEFDCF8091D8008F7D8093D800D4
:1025A0008091E00082608093E0008091E00081FDF6
:1025B000FCCF0E945E076BCC86E290E00E9467240D
:1025C0001B821C821D82F8CE2B30310508F08ACD8B
:1025D000C8CD2B30310508F0DBCD19CE90916C02BF
:1025E00092FF0DC0282F2871283019F4877F84604E
:1025F00006C0282F2471243011F48B7F886093FF4C
:102600000DC0282F2871283119F4877E846106C0F7
:10261000282F2471243111F48B7E886120916D0262
:1026200020FF0DC0382F3871383019F4877F816052
:1026300006C0382F3171313011F48E7F886021FF50
:102640000DC0282F2871283119F4877E816106C0BA
:10265000282F2171213111F48E7E886194FD877EAF
:102660000895F894E82FE295EF70F0E031A1282F5B
:102670002F7081E090E001C0880F2A95EAF7982F2B
:102680009095932391A392A1892B82A37894089586
:102690008F929F92AF92BF92CF92DF92EF92FF9272
:1026A0000F931F93CF93DF93CDB7DEB728970FB665
:1026B000F894DEBF0FBECDBFAE014F5F5F4F7A0112
:1026C00088E0FA0111928A95E9F70DE011E06A01BC
:1026D000AA24A394B12CF80180818F3F09F447C04C
:1026E000F894E82FE295EF70F0E021A18F70A5013A
:1026F00002C0440F551F8A95E2F7CA01922F982B0A
:1027000091A392A18095892382A3789400C0E1E1EE
:10271000F1E021E030E0812C912C41914F3F89F094
:10272000A42FA295AF70B0E090968C9190E04F707E
:1027300002C0959587954A95E2F780FD02C0C901D0
:1027400002C080E090E0882A992A220F331F51E0CE
:10275000EE31F50711F7F80180818F3F11F00E94EB
:102760003113F0EAFA95F1F7F601918280820F5F5A
:102770001F4FF2E0CF0ED11C41E00131140709F0E8
:10278000AACF48E050E0B70183E891E00E94ED2431
:1027900011E0009709F410E0892B89F088E0F70137
:1027A000A3E8B1E001900D928A95E1F781E0809372
:1027B0001C020E94872090931B0280931A02809132
:1027C0001C02882351F180911A0290911B020E94F1
:1027D0007820059710F18091830190918401909366
:1027E0009501809394018091850190918601909349
:1027F0009701809396018091870190918801909331
:102800009901809398018091890190918A01909318
:102810009B0180939A0110921C02812F28960FB67B
:10282000F894DEBF0FBECDBFDF91CF911F910F9106
:10283000FF90EF90DF90CF90BF90AF909F908F90E0
:102840000895CF93DF938238910569F1B0F4813315
:10285000910509F46FC048F48932910509F465C007
:102860008A32910509F46BC08AC08533910509F459
:1028700057C089339105B9F082C0833E910571F14B
:1028800038F4803E9105B1F0823E910511F177C098
:10289000863E9105B9F1873E9105C9F1843E9105C7
:1028A00009F06DC024C020916C0220FD53C021FDB1
:1028B00051C065C080916C0280FD46C080916D0260
:1028C00080FF48C080916C0284FD50C183EE90E08F
:1028D0004FC180916C0282FF3AC0F4CF80916C02AC
:1028E00082FD35C080916D0280FD34C0EBCF8091B8
:1028F0006D0281FF35C080916C0284FD37C187EE87
:1029000090E036C180916C0283FF27C0F4CF8091A4
:102910006C0283FD22C080916D0281FD21C0EBCF4E
:1029200080916C0285FD1FC021C080916C0285FDE5
:102930001DC019C080916C0286FD1BC01DC0809116
:102940006C0286FD19C015C089E390E011C182EECA
:1029500090E00EC180EE90E00BC186EE90E008C1E1
:1029600084EE90E005C189E290E002C185E390E049
:10297000FFC08AE290E0FCC081E390E0F9C08115DD
:1029800031E5930708F069C0811540E59407F0F040
:102990009C0174E0369527957A95E1F7922F937014
:1029A000482F437021E030E002C0220F331F4A95C8
:1029B000E2F73C68392B982F9F709695969540E2E8
:1029C000949FC0011124822B932BD2C0883E910585
:1029D00068F5803E910508F0CBC0883A9105B8F4BF
:1029E000853A910548F0855AE82FF0E0E25EFE4F07
:1029F000808190E09064BCC08130910509F4B3C03F
:102A000008F4B4C08430910508F4B0C0B1C08F3B65
:102A1000910508F0ABC0885AE82FF0E0EE0FFF1FD9
:102A2000EF5DFE4F808191819464A2C0811520E208
:102A3000920758F4811531E0930708F099C0803F60
:102A4000910508F493C0906593C0811540E4940704
:102A500008F48CC09F70906A8BC0811525E59207A1
:102A600008F042C0811534E5930728F0982F882795
:102A7000846F906A7DC0811543E59407B0F09C0196
:102A80002370332741E050E002C0440F551F2A95C0
:102A9000E2F7282F2695269580E2289F90011124A1
:102AA000CA01822B932B9A6863C0811522E5920795
:102AB00028F4982F8827816F906A5AC09C01237050
:102AC000332741E050E002C0440F551F2A95E2F73A
:102AD000282F2695269580E2289F90011124CA016F
:102AE000822B932B9C6844C0EC01811539E5930738
:102AF000A8F48115984528F09C2F8827806F906A4C
:102B000037C0C11586E5D80788F58C2F0E94EE12D4
:102B10008F7190E0982F882790622AC081152AE54E
:102B2000920790F48C2F8F700E94EE1294E0D6954D
:102B3000C7959A95E1F7CF70D0E0DC2FCC27D0690C
:102B40009E01282BC90114C090568115904270F443
:102B50008D2F8F710E94EE12282F2F71CE01992791
:102B60009062922B05C081E090E002C080E090E08E
:102B7000DF91CF910895CF9384E090E00E94672485
:102B8000C82F82E290E00E9467242C2F30E0A90138
:102B9000582BCA01CF91089569EE7EEF80E090E056
:102BA0000E94932460E082E090E00E94752460E03F
:102BB00083E090E00E94752410921902109218028E
:102BC00060E084E090E00E94752460E082E290E0A2
:102BD0000E94752460E085E090E00E94752460E02A
:102BE00086E090E00E9475246FEF87E090E00E94FD
:102BF000752440E050E0BA0188E090E00E9487240C
:102C000060E08DE090E00E94752440E050E0BA0161
:102C100088E190E00E94872460E087E190E00E94D4
:102C2000752440E050E0BA018CE190E00E948724D6
:102C300060E070E080E290E00E94932440E050E089
:102C4000BA0188E190E00E94872480E00E9461221E
:102C50000E947F2240E050E0BA018FE090E00E94A5
:102C6000872440E050E0BA0183E190E00C9487248F
:102C7000809117028111109217020895809590910A
:102C800016028923809316020895EF92FF920F9304
:102C90001F93CF939091160280911502982B9093D9
:102CA0009C01809117028823D9F0892B80939C0185
:102CB00080910C01882331F080916C0287FF02C063
:102CC0008EE101C086E0EEE9F1E090E0815028F06D
:102CD00021912223D9F39F5FF9CF91110E943816D9
:102CE00040E250E065EF71E08CE991E00E94ED2454
:102CF000892B09F458C080E2ECE9F1E0A5EFB1E0DE
:102D000001900D928A95E1F7E0916202F0916302E1
:102D1000309709F448C080910C01882359F08091C4
:102D20006C0287FF07C080919C0180939D0186E023
:102D300080939C010280F381E02D8CE991E009955C
:102D40008091660282FF2FC080FF04C087E192E07D
:102D50000E9418050CE911E0C8E081E1E82E82E04C
:102D6000F82E8091660280FF0CC0F80180811F92CE
:102D70008F93FF92EF920E94B1050F900F900F90EA
:102D80000F90C1500F5F1F4FC111EBCF80916602B2
:102D900080FF09C08FE092E0CF911F910F91FF90CB
:102DA000EF900C941805CF911F910F91FF90EF9029
:102DB00008952091F401809582238093F401982F47
:102DC000977099F430E0482F082E000C550B24170B
:102DD000350759F090916D0292FD07C08595859554
:102DE00085950E9418071092F4010895CF93DF9300
:102DF000C0916D02C2FB992790F9981719F1D82F4D
:102E000080FBC2F9C0936D0260916C0284E090E097
:102E10000E9475246C2F82E290E00E94752482E06B
:102E20000E94D9168091660280FF0CC01F92DF932A
:102E30008AEF91E09F938F930E94B1050F900F90BE
:102E40000F900F90DF91CF9108958091F3019091B1
:102E5000C201891719F08F5F8770FBCF08950F9318
:102E60001F93CF93DF938091C10182958F7009F0FA
:102E70005DC08091BE01882309F458C08091F301A0
:102E80001091C2016091BC017091BD01C091BF0160
:102E9000D091C00191E06F3F09F090E0292F06E04A
:102EA000811709F443C0209721F07F3F21F030E0E3
:102EB00003C031E001C0322F90E030FD34C0089FE4
:102EC000F001099FF00D1124DF01AD53BE4F1196A3
:102ED0003C911197371327C03C91361324C01296AA
:102EE0003C91129731111FC013964D915C9114972C
:102EF0004C1B5D0B483C5105B0F48091C1018F70B3
:102F000080618093C101E853FE4F80818F708061A2
:102F100080838CEB91E00E944A08DF91CF911F9152
:102F20000F910C94251701968770BACFDF91CF913E
:102F30001F910F910895CF93DF93EC010E94D60665
:102F4000BE010E9450220E942114DF91CF9108956A
:102F50009F92AF92BF92CF92DF92EF92FF920F9328
:102F60001F93CF93DF93CDB7DEB761970FB6F89479
:102F7000DEBF0FBECDBF8C0185E0F801DE011D96DE
:102F800001900D928A95E1F7F801E2809091BC01E1
:102F90006091BD014091BF015091C00141155105A3
:102FA00031F06F3F31F481E09F3F19F403C081E0BD
:102FB00001C080E0F82FF1709F2E80FD1AC1F8014A
:102FC00030812181C380D4808CEBA82E81E0B82E83
:102FD000F090BE01F601E41BF50BFF2009F4C6C01A
:102FE0008091C101E83CF10508F091C0482F407F75
:102FF00009F050C0621311C093130FC0FE2CE110F2
:103000000CC08F7080618093C101C5010E944A0885
:103010008091C101F801858329C1CD2831F02F3F6E
:1030200031F481E03F3F19F403C081E001C080E04A
:1030300080FD03C081E08E2502C080E090E0F82F83
:10304000F170FF2E80FF1CC08091F3014091C201FE
:1030500056E0841709F4E8C090E0589FF001599FAA
:10306000F00D1124ED53FE4F6181261306C06081DF
:10307000631303C06281E61203C001968770E9CF33
:10308000FE2CEE2009F4F2C08091C1018160809392
:10309000C10149C0621306C0931304C0E11002C00D
:1030A000F80186C0C8010E943E07882351F1EE2036
:1030B00041F12091C101822F82958F7090E002979B
:1030C00074F08091BC019091BD0198878F8319861F
:1030D000DB86CA862C87CE0107960E944A0886E0C6
:1030E000F801ACEBB1E001900D928A95E1F70E94F6
:1030F0002F170AC06217C9F0C8010E943E0781114C
:103100001EC0C8010E944A08FF24F394AFC0482F94
:10311000407F81F78CEB91E00E944A0886E0F50140
:1031200011928A95E9F7F12CA1C09313E5CFE11034
:10313000E3CFF8018583C8010E944A0854C0EE20FD
:1031400001F32091C101822F82958F7090E0029748
:1031500034F28091BC019091BD019A8389831B82D6
:10316000DD82CC822E83CE010196B7CFE83CF105FB
:10317000D0F5FE2CEE2029F2621327C0931325C050
:103180002091C10120FD18C0822F82958F70482F99
:1031900050E04115510581F0F80125834F3051056C
:1031A00041F08F5F982F9295907F822F8F70892B9F
:1031B0008583C8010E944A0886E0F801ACEBB1E0C3
:1031C00001900D928A95E1F751C0C8010E943E0717
:1031D000811185CF8091C10181608093C101C801B7
:1031E0000E944A0843C086E0F50111928A95E9F7EA
:1031F0003DC0EE2009F485CFC8010E943E07F82E9D
:10320000882309F47ECF86E0F801ACEBB1E00190B1
:103210000D928A95E1F78091BC019091BD010E94C9
:103220009B170E942F1722C03D872E878D859E8574
:103230000E949B17292F22952F70223028F49F700F
:1032400039F0811105C00BC0243028F49F7049F477
:10325000805E883020F0C8010E944A089F2CF92C1B
:1032600005C0F8019581907F99F7F9CF8F2D619670
:103270000FB6F894DEBF0FBECDBFDF91CF911F9187
:103280000F91FF90EF90DF90CF90BF90AF909F9005
:10329000089580914E0290914F029C012670332731
:1032A0002630310511F4886001C0877F0C94120725
:1032B0001F93CF93DF93CDB7DEB7AA970FB6F894DD
:1032C000DEBF0FBECDBFE6E4F2E08091F100819356
:1032D00042E0EE34F407C9F780914702833009F4E5
:1032E00061C030F4813071F0823009F49BC0B2C00B
:1032F0008A3009F487C08B3009F46CC0893009F03A
:10330000A9C020C080914602813A09F0A3C08091F3
:10331000E800877F8093E80080914A0290914B02F9
:10332000892B21F460E282E292E003C060E080E059
:1033300090E070E00E94D21F8091E8008B7780932C
:10334000E80088C080914602813209F083C08091F4
:103350004A0290914B02009719F0029709F07AC047
:103360008091E800877F8093E8008091E80082FDEB
:1033700005C0809144028111F8CF6CC08091F200A9
:103380009091F300029731F48091F100813011F0B7
:10339000863021F48091F100809321028091E80031
:1033A0008B7754C080914602813A09F053C08091D6
:1033B0004A0290914B02892B09F04CC08091E800A1
:1033C000877F8093E8008091E80080FFFCCF8091A8
:1033D0000C0137C0809146028132E1F580914A02AA
:1033E00090914B02892BB1F58091E800877F809303
:1033F000E8000E947E1F8091480280930C010E9489
:103400005E0728C080914602813221F58091E80054
:10341000877F8093E8000E947E1F809149028093FD
:10342000200218C080914602813AA1F48091E80000
:10343000877F8093E8008091E80080FFFCCF809137
:1034400020028093F1008091E8008E778093E8005D
:103450000E947E1F8091E80083FFE2C180914602B6
:1034600090914702492F50E04A30510508F0D8C1E9
:10347000FA01E559FF4F0C94C924803821F08238B5
:1034800009F0CEC108C08091420290914302992375
:1034900089F082600FC080914A028F70873008F0F7
:1034A000BFC18093E9008091EB0085FB882780F9FC
:1034B0001092E9009091E800977F9093E800809344
:1034C000F1001092F1006EC1282F2D7F09F0A8C1E4
:1034D000882319F0823061F0A3C1809148028130C5
:1034E00009F09EC1933009F080E0809343022EC022
:1034F0008091480281112AC080914A028F702FEF7B
:10350000280F263008F08CC18093E9002091EB0051
:1035100020FF1CC0933021F48091EB00806214C026
:103520009091EB0090619093EB0021E030E0A901D5
:1035300002C0440F551F8A95E2F74093EA001092AB
:10354000EA008091EB0088608093EB001092E90024
:103550008091E800877F8093E8000E947E1F60C111
:1035600081115EC1109148021F778091E30080783D
:10357000812B8093E3008091E800877F8093E800AF
:103580000E947E1F8091E80080FFFCCF8091E300C5
:1035900080688093E300111102C082E001C083E0E3
:1035A000809344023DC18058823008F039C1209197
:1035B0004802309149022C3D53E0350779F583E00C
:1035C0008A838AE289834FB7F894DE01139620E05C
:1035D0003EE051E2E32FF0E050935700E49120FFEA
:1035E00003C0E295EF703F5FEF708E2F90E0EA30FE
:1035F00010F0C79601C0C0968D939D932F5F243124
:1036000049F74FBF8091E800877F8093E8006AE226
:1036100070E0CE0101960E94D21FB2C080914A0292
:1036200090914B02432F552743305105A9F068F480
:103630004130510509F403C14230510509F0F0C091
:103640008BE790E0E7E7F3E04BC04132510529F109
:103650004232510589F1E4C0C901992781309105B1
:10366000A1F058F0029709F0DBC0E4E0F4E0E49147
:103670008E2F90E0E4E0F4E030C0E6E3F4E0E49183
:103680008E2F90E0E6E3F4E028C0E0E2F4E0E4917D
:103690008E2F90E0E0E2F4E020C08430910508F045
:1036A000BFC0880F991FFC01E55AFE4F0190F081C1
:1036B000E02D89E090E014C08430910508F0B0C09E
:1036C000FC01EE0FFF1FED5AFE4F0190F081E02D3F
:1036D000DC01A15BBE4F8C9190E0009709F4A0C083
:1036E0002091E800277F2093E80020914C02309140
:1036F0004D028217930708F49C0140E02115310523
:1037000071F1809144028823D9F18530C9F180910B
:10371000E80083FD35C08091E80082FD2DC08091D6
:10372000E80080FFEBCF8091F2009091F30021152B
:10373000310559F08830910540F444914093F100EF
:103740003196215031090196F2CF41E0089709F0F6
:1037500040E08091E8008E778093E800CFCF411160
:10376000D0CF0AC080914402882351F0853041F0C7
:103770008091E80083FD04C08091E80082FFF2CFD1
:103780008091E8008B778093E8004AC0803809F088
:1037900047C08091E800877F8093E80080914502D0
:1037A0008093F1008091E8008E77D5CE811138C0EA
:1037B0008091480290914902992702978CF5809157
:1037C000E800877F8093E80010914802109345023B
:1037D0000E947E1F111106C08091E30087FD02C088
:1037E00081E001C084E08093440242E061EC81E02A
:1037F0000E949D1F42E261EC84E00E949D1F42E214
:1038000061EC82E00E949D1F42E260EC83E00E9436
:103810009D1F42E261EC85E00E949D1F8091440261
:103820008091E80083FF10C08091E800877F80933B
:10383000E8008091EB0080628093EB0005C082E19C
:1038400090E0E2EFF3E04CCFAA960FB6F894DEBF1B
:103850000FBECDBFDF91CF911F9108951F920F92A0
:103860000FB60F9211240BB60F922F933F934F93E5
:103870005F936F937F938F939F93AF93BF93CF93F8
:10388000DF93EF93FF93C091E900CF708091EC003C
:10389000D82FD17080FDD0E81092E9008091F0001F
:1038A000877F8093F00078940E9458191092E90065
:1038B0008091F00088608093F000CD2BCF70C09392
:1038C000E900FF91EF91DF91CF91BF91AF919F916F
:1038D0008F917F916F915F914F913F912F910F90B9
:1038E0000BBE0F900FBE0F901F901895E8EDF0E003
:1038F00080818C7F80831092E2001092DA00109217
:10390000E100A0EEB0E08C9181608C9380818F7794
:10391000808319BCA7EDB0E08C918E7F8C93808161
:103920008F7E808310921F020895CF92DF92EF92D4
:10393000FF920F931F93CF93DF93C8EDD0E0888160
:103940008F7E8883E7EDF0E080818160808381E075
:1039500080931F0288818C7F888302EE10E0D8015B
:103960001C921092DA0081EEC82ED12CD6011C9246
:1039700088818F77888388818068888388818F7D1C
:10398000888380818068808319BC109244021092E1
:103990004502109243021092420290EEE92EF12C61
:1039A000F70180818B7F808388818160888342E0FA
:1039B00060E080E00E949D1FD6018C918E7F8C93E9
:1039C000F801808181608083808188608083D70155
:1039D0008C918E7F8C93888180618883DF91CF91D9
:1039E0001F910F91FF90EF90DF90CF9008951F925D
:1039F0000F920FB60F9211240BB60F922F933F9395
:103A00004F935F936F937F938F939F93AF93BF93E6
:103A1000EF93FF938091E10082FF49C08091E20023
:103A200082FF45C08091E1008B7F8093E10020916F
:103A30001E022F5F822F62E30E94A924992319F0AE
:103A400020931E0234C010921E0280911D02882312
:103A500071F180914402843041F58091E9008F70CA
:103A60002091EC00922F917020FD90E8892B95E039
:103A70009093E9009091EB0090FF14C09091EE00BC
:103A800097FF10C09091E80095FF03C01092F100DD
:103A9000F9CF9091E80090FF05C09091E8009E77E3
:103AA0009093E8008F708093E90010921D0280913E
:103AB000DA0080FF32C08091D80080FF2EC0809154
:103AC000DA008E7F8093DA008091D90080FF1CC0DD
:103AD00084E189BD86E189BD09B400FEFDCF81E0A6
:103AE0008093440283E693E00E94180580911F02B0
:103AF000811113C00E94761C0E94951C8091E200E7
:103B000084608093E20009C019BC1092440287E6E9
:103B100093E00E94180510921F028091E10080FF3F
:103B20001BC08091E20080FF17C08091E2008E7F71
:103B30008093E2008091E20080618093E2008091B6
:103B4000D80080628093D80019BC85E0809344023D
:103B50008BE693E00E9418058091E10084FF34C059
:103B60008091E20084FF30C084E189BD86E189BD97
:103B700009B400FEFDCF8091D8008F7D8093D800DE
:103B80008091E1008F7E8093E1008091E2008F7E42
:103B90008093E2008091E20081608093E200809156
:103BA0004502882311F084E007C08091E30087FD7F
:103BB00002C081E001C083E0809344028FE693E07D
:103BC0000E941805809144028091E10083FF2BC080
:103BD0008091E20083FF27C08091E100877F80937E
:103BE000E10082E080934402109245028091E1005E
:103BF0008E7F8093E1008091E2008E7F8093E200CF
:103C00008091E20080618093E20042E060E080E029
:103C10000E949D1F8091F00088608093F00083E7F0
:103C200093E00E941805FF91EF91BF91AF919F9192
:103C30008F917F916F915F914F913F912F910F9055
:103C40000BBE0F900FBE0F901F9018952091E400AF
:103C50003091E50095E64091EC00842F817040FFA3
:103C600023C08091E80080FD1DC08091440288231C
:103C700099F0853099F08091EB0085FD11C040915D
:103C8000E4005091E5002417350729F3915011F015
:103C90009A01E1CF84E0089582E0089583E00895D9
:103CA00081E0089580E008954091E80042FFDDCF73
:103CB0000895EF92FF920F931F93CF93DF937C01B0
:103CC0008B010E94261E811119C0E7010115110503
:103CD000A1F08091E80085FD0AC08091E8008E7710
:103CE0008093E8000E94261E882381F307C08991F3
:103CF0008093F10001501109E9CF80E0DF91CF916D
:103D00001F910F91FF90EF900895089580912102E7
:103D100008959FB7F89410921D029FBF909144029E
:103D2000943009F057C09091E9009F703091EC00F9
:103D3000232F217030FD20E8922B25E02093E9000D
:103D40002091EB0020FF43C02091EE0027FF3FC0F1
:103D500020917102222321F02091E80025FF37C035
:103D60001092710226E03091E80035FD15C03091C7
:103D70004402343061F53091EB0035FD28C021500C
:103D800021F481E08093710222C0EFE9FFE03197D6
:103D9000F1F700C00000E7CF8093F1008091E800C8
:103DA00085FD0AC08091E80080FFFCCF8091E8008B
:103DB0008E778093E80006C08FB7F89421E02093B7
:103DC0001D028FBF9F709093E90080E008959F705F
:103DD0009093E9008FEF089580936E0270937002C4
:103DE00060936F02809144028430F9F48093E9007B
:103DF0008FEF9091E800815095FD06C095ED9A9562
:103E0000F1F700008111F5CF8091E80085FF0DC02A
:103E100040E050E063E070E08EE692E00E94591EC0
:103E20008091E8008E778093E8000895BC0184E0DB
:103E30000C94EC1EBC0183E00C94EC1E24E0209357
:103E4000E9002FEF3091E800215035FD06C035ED37
:103E50003A95F1F700002111F5CF2091E80025FFF8
:103E60000BC040E050E066E070E00E94591E809177
:103E7000E8008E778093E8000895CF93DF93209138
:103E80000C01222339F020916C0227FF03C060E26D
:103E900024E002C068E021E02093E9002FEF309198
:103EA000E800215035FD06C035ED3A95F1F70000E8
:103EB0002111F5CF2091E80025FF1DC0EC01809174
:103EC0000C01811105C040E050E068E070E003C0E3
:103ED00070E040E050E0CE010E94591E8091E80061
:103EE0008E778093E80080E2FE01A2E2B2E00190CA
:103EF0000D928A95E1F7DF91CF9108958091460266
:103F000087FF11C08091E80082FD05C080914402C6
:103F10008111F8CF11C08091E8008B770BC08091A0
:103F20004402882349F08091E80080FFF8CF809117
:103F3000E8008E778093E8000895982F973068F511
:103F40009093E900981739F07091EC002091ED0002
:103F50005091F00003C0242F762F50E021FD02C0C5
:103F60009F5FECCF3091EB003E7F3093EB003091C0
:103F7000ED003D7F3093ED003091EB0031603093E8
:103F8000EB007093EC002093ED005093F000209133
:103F9000EE0027FDE5CF80E008958F708093E90063
:103FA00081E0089520914C0230914D022617370789
:103FB00048F06115710539F42091E8002E772093BF
:103FC000E80001C0B901FC0120E06115710569F14B
:103FD000809144028823E1F18530E1F18091E8008D
:103FE00083FD3AC08091E80082FD2CC08091E800FA
:103FF00080FFEBCF8091F2009091F3006115710585
:1040000051F08830910538F421912093F1006150EE
:1040100071090196F3CF21E0089709F020E0809123
:10402000E8008E778093E800D0CF2111D1CF0AC06D
:1040300080914402882361F0853061F08091E8002E
:1040400083FD0AC08091E80082FFF2CF80E00895EE
:1040500082E0089583E0089581E0089581E08093EF
:10406000E00080E28093D8001092C9008FE19EE4C6
:104070000197F1F700C0000087E090EBDC0180932E
:10408000720290937302A0937402B09375029CE045
:1040900088E10FB6F894A895809360000FBE9093C6
:1040A0006000FFCF78941F920F920FB60F921124E9
:1040B0008F939F93AF93BF93809168029091690211
:1040C000A0916A02B0916B020196A11DB11D80936F
:1040D000680290936902A0936A02B0936B02BF9149
:1040E000AF919F918F910F900FBE0F901F901895D9
:1040F0009C014FB7F8948091680290916902A09159
:104100006A02B0916B024FBF821B930B08952FB7C9
:10411000F8948091680290916902A0916A02B0912E
:104120006B022FBF08951F920F920FB60F921124AA
:104130008F939F93AF93BF9380916702811113C0B8
:104140008091680290916902A0916A02B0916B021D
:104150004196A11DB11D8093680290936902A093BE
:104160006A02B0936B02BF91AF919F918F910F90B4
:104170000FBE0F901F90189520910C01222351F132
:1041800020916C0227FF26C0262F2695269526957E
:104190002E3178F4FC01E20FF11D677081E090E0B0
:1041A00001C0880F6A95EAF78095928189238283FE
:1041B00008958091660280FF17C01F926F9382E876
:1041C00099E09F938F930E94B1050F900F900F90ED
:1041D0000F900895FC0106962281621301C012829D
:1041E0003196E817F907C1F7089520910C012223B1
:1041F00049F120916C0227FF25C0262F2695269590
:1042000026952E3170F4FC01E20FF11D677081E0FC
:1042100090E001C0880F6A95EAF79281892B82832A
:1042200008958091660280FF25C01F926F9384E6F7
:1042300099E09F938F930E94B1050F900F900F907C
:104240000F900895FC0132962FEF30E041916417F2
:1042500089F02F3F19F4411101C0232F3F5F363001
:10426000A9F72F3F39F0FC01E20FF11D27FDFA9568
:1042700062830895089520916402309165022817A1
:10428000390771F09093650280936402E0916202B5
:10429000F0916302309721F00084F185E02D0994BC
:1042A000089520916002309161022817390771F05A
:1042B0009093610280936002E0916202F091630248
:1042C000309721F00680F781E02D09940895E09160
:1042D0006202F0916302309721F00190F081E02DAD
:1042E000099480E008950F931F93CF93DF93C42F19
:1042F000D22FFC0182818823C9F040935F020E9483
:10430000872090935E0280935D0280E28C0F88305C
:1043100008F057C0C77081E001C0880FCA95EAF75E
:10432000DF91CF911F910F910C947A0780915F02DA
:10433000481330C080915D0290915E020E94782007
:10434000883C910538F510E21D0FCD17B9F080E2D9
:104350008C0F883040F4C77081E001C0880FCA9587
:10436000EAF70E947307183028F581E09D2F9770B7
:1043700001C0880F9A95EAF70E947A07802F0E9461
:1043800084071830F0F4D77081E001C0880FDA9507
:10439000EAF70AC080E28C0F883098F4C77081E099
:1043A00001C0880FCA95EAF7DF91CF911F910F9155
:1043B0000C947307802FDF91CF911F910F910C9474
:1043C0008407DF91CF911F910F910895CF93DF93D1
:1043D000C7E0D5E060E0CE010E9475242196C115AA
:1043E00080E1D807B9F7DF91CF910895CF92DF929E
:1043F000EF92FF920F931F93CF93DF93C0E0D0E033
:104400008E0108591F4F6E018AE1C80ED11CFE01B2
:10441000EC57FB4FE590F4906F2DCE0187960E94EC
:1044200075246E2DCE0188960E9475242296CC1597
:10443000DD0569F70C171D0731F7E801003E144050
:10444000F9F6DF91CF911F910F91FF90EF90DF90E0
:10445000CF9008950F931F93CF93DF93C42FD0E095
:10446000CC0FDD1F2AE1629FC00DD11D112438E65B
:10447000839FC00DD11D1124CE0187960E94672411
:10448000082F10E0102F0027CE0188960E94672485
:104490009801282BC901DF91CF911F910F910895A9
:1044A000462F8C3038F4743028F46D3018F4672FB0
:1044B0000C942A2280E090E0089586E290E00C942B
:1044C0007524CF93C82F811102C06FEF01C062E243
:1044D00083E290E00E947524C11102C06FEF01C019
:1044E00064E084E290E00E947524C11102C06FEF85
:1044F00001C061E085E290E0CF910C94752480E0EA
:104500000E94612260E070E0CB010E945D220E9467
:10451000F6210E94E62181E00C94612283E290E082
:104520000E946724823281F484E290E00E94672432
:10453000843051F485E290E00E94672491E081305C
:1045400009F090E0892F01C080E08170089580918A
:10455000660283FF7EC081E694E00E941805809188
:1045600058021F928F938CE594E09F938F930E9443
:10457000B1058AE594E00E94180580915902282F20
:10458000082E000C330B3F938F9387E594E09F93A5
:104590008F930E94B10585E594E00E9418058091F3
:1045A0005A02282F082E000C330B3F938F9382E57D
:1045B00094E09F938F930E94B10580E594E00E9460
:1045C000180580915B02282F082E000C330B3F93B7
:1045D0008F938DE494E09F938F930E94B1058BE4B9
:1045E00094E00E94180580915C02282F082E000C90
:1045F000330B3F938F9388E494E09F938F930E94B3
:10460000B10585E494E00E941805809152021F9242
:104610008F9382E494E09F938F930E94B10580E48E
:1046200094E00E941805809151021F928F938DE3B0
:1046300094E09F938F930E94B1058AE394E00E94D7
:1046400018058DB79EB74C960FB6F8949EBF0FBE57
:104650008DBF0E94872020915902211104C0209112
:104660005A02222321F09093560280935502209102
:104670005B02211104C020915C02222321F090935F
:10468000540280935302E0916202F09163023097EA
:1046900049F082E0809357020480F581E02D87E5A0
:1046A00092E009940895803F39F490915A0297FF5F
:1046B00035C010925A0259C0813F29F490915A0294
:1046C0001916BCF32BC090915902823F29F497FF31
:1046D00025C01092590249C0833F19F41916CCF332
:1046E0001DC090915B02893F29F41916BCF4109209
:1046F0005B023BC08A3F19F497FF10C0F8CF8B3F95
:1047000039F490915C0297FF09C010925C022DC0B1
:104710008C3F21F490915C021916BCF39CE0980F39
:10472000953080F421E030E0A90102C0440F551F0C
:104730009A95E2F7CA018095909158028923809357
:10474000580213C08D3F21F4809151028E7F0BC01F
:104750008E3F21F4809151028D7F05C08F3F29F457
:10476000809151028B7F8093510280915902811177
:1047700006C080915A02811102C0109252028091AB
:104780005B02811106C080915C02811102C010920F
:10479000500208958091510280FD16C081FD16C01F
:1047A00082FD18C080915002882391F0883290F4E5
:1047B00028E0829FC001112468E270E00E94B524C5
:1047C000862F672B29F007C082E0089584E00895C2
:1047D00081E0089588E008958091510280FD14C021
:1047E00081FD14C082FD16C080915202882381F0A1
:1047F0008E3180F420E5829FC00111246EE170E0CB
:104800000E94B524862F089584E1089588E20895D2
:1048100088E0089580E50895803F21F40E94EC230C
:10482000819504C0813F29F40E94EC2380935A02B1
:104830000895823F21F40E94EC23819504C0833FB8
:1048400029F40E94EC23809359020895893F19F4BA
:104850000E94CA2305C08A3F31F40E94CA23819571
:1048600080935B0208958B3F21F40E94CA238195B7
:1048700004C08C3F29F40E94CA2380935C020895EF
:104880009CE0980F953078F421E030E0A90102C057
:10489000440F551F9A95E2F7CA0190915802892B4F
:1048A0008093580208958D3F21F4809151028160D8
:1048B0000BC08E3F21F480915102826005C08F3F72
:1048C00029F4809151028460809351020895F999EE
:1048D000FECF92BD81BDF89A992780B50895A8E1D1
:1048E000B0E042E050E00C949B24262FF999FECFD3
:1048F00092BD81BDF89A019700B4021639F01FBA33
:1049000020BD0FB6F894FA9AF99A0FBE089503964F
:10491000272F0E9476240E947524252F0E9476243A
:10492000242F0C9476240196272F0E9476240C9431
:104930007524DC01CB01FC01F999FECF06C0F2BD64
:10494000E1BDF89A319600B40D9241505040B8F74D
:104950000895991B79E004C0991F961708F0961BDB
:10496000881F7A95C9F78095089597FB072E16F44E
:10497000009407D077FD09D00E94D92407FC05D008
:104980003EF4909581959F4F0895709561957F4F66
:104990000895EE0FFF1F0024001C0BBE0790F69138
:1049A000E02D099469279627692778278727782794
:1049B0000895AA1BBB1B51E107C0AA1FBB1FA61766
:1049C000B70710F0A61BB70B881F991F5A95A9F7B8
:1049D00080959095BC01CD010895FB01DC0104C0D8
:1049E0008D910190801921F441505040C8F7881BE7
:0849F000990B0895F894FFCF24
:1049F800861E3D1F1E1F1A1F161F851E016061623D
:104A0800636564929394956697303132333481822A
:104A180083E200E900EA00B500B600B700CD0083E4
:104A280001CC008A0192019401210223022402256B
:104A380002260227022A02B300B4006F0070004069
:104A480022B622230301034B0229028903A203C2CF
:044A580003DB030079
:00000001FF
