:100000000C9496030C94CE030C94CE030C94CE0364
:100010000C94CE030C94CE030C94CE030C94CE031C
:100020000C94CE030C94CE030C9488240C945A2583
:100030000C94D21E0C94CE030C94CE030C94CE03DD
:100040000C94CE030C94CE030C94CE030C94CE03EC
:100050000C94CE030C945A1F0C94CE030C94CE0334
:100060000C94CE030C94CE030C94CE030C94CE03CC
:100070000C94CE030C94CE030C94CE030C94CE03BC
:100080000C94CE030C94CE030C94CE030C94CE03AC
:100090000C94CE030C94CE030C94CE030C94CE039C
:1000A0000C94CE030C94CE030C94CE03EE03F60313
:1000B000FF0307040F0417041F0425042D04EA0797
:1000C000EA07160816087E087809780978099C0856
:1000D00004091509150917191A193A194B19531951
:1000E0005E19611964196719AD19AD196A196D198D
:1000F00072197F198C198F199319A019C725EE252C
:10010000E626EE25E6263A265D26E626B426C32612
:1001100029003A003B003C003D003E003F0040000B
:1001200041004200430044004500460049004C00A5
:1001300035001E001F0020002100220023002400A3
:100140002500260027002D002E0000002A004A006E
:100150002B00000014001A000800150017001C00F6
:1001600018000C00120013002F00300031004B006B
:100170003900000004001600070009000A000B0007
:100180000D000E000F0033003400280000004E0068
:100190000000E1001D001B00060019000500110011
:1001A00010003600370038000000E50052004D0016
:1001B000E000E3000000E200000000002C0000006E
:1001C00000000000E6000151E400500051004F0023
:1001D000000000000000000000000000000000001F
:1001E00000000000000000000000A800AA00A90014
:1001F00000000000000000000000000000000000FF
:100200000000000000000000000000000000BD0031
:1002100000000000A65DA75DA85D000000000000D2
:100220000000000000000000000000000000BE0010
:1002300000000000A95DAA5DAB5D000000000000A9
:100240000000000000000000000000000000C95C89
:1002500000000000AC5DAD5DAE5D00000000000080
:100260000000000000000000000000000000CA5C68
:10027000000000000000000000000000000000007E
:100280000000000000000151C25C000000000000FE
:10029000000000000000000000000000000000005E
:1002A000000000000000000000000000000000004E
:1002B000000000000000000000000000000000003E
:1002C000000000000000000000000000000000002E
:1002D000000000000000000000000000000000001E
:1002E000000000000000000000000000000000000E
:1002F00000000000000000000000000000000000FE
:1003000000000000000000000000000000000000ED
:1003100000000000000000000000000000000000DD
:1003200000000000000000000000000000000000CD
:1003300000000000000000000000000000000000BD
:1003400000000000000000000000000000000000AD
:10035000000000000000000000000000000000009D
:10036000000000000000000000000000000000008D
:10037000000000000000000000000000000000007D
:10038000000000000000000000000000000000006D
:10039000000000000000000000000000000000005D
:1003A000000000000000000000000000000000004D
:1003B000000000000000000000000000000000003D
:1003C000000000000000000000000000000000002D
:1003D000000000000000000000000000000000001D
:1003E000000000000000000000000000000000000D
:1003F00000000000000000000000000000000000FD
:1004000000000000000000000000000000000000EC
:1004100000000000000000002A2B2800000000005F
:1004200000000000000000000000002900000000A3
:100430002C1E3420212224342627252E362D373811
:10044000271E1F202122232425263333362E37381A
:100450001F0405060708090A0B0C0D0E0F101112D8
:10046000131415161718191A1B1C1D2F3130232DA4
:10047000350405060708090A0B0C0D0E0F101112A2
:10048000131415161718191A1B1C1D2F3130354C53
:10049000000000000000000000000000000000005C
:1004A000000000000000000000000000000000004C
:1004B000000000007E0F00D4FFFFFFC7000000789F
:1004C0000001010101010101010102020202020217
:1004D00002020203030303030303030404040404EA
:1004E00004040505050505060606060607070707B1
:1004F0000708080808090909090A0A0A0B0B0B0C66
:100500000C0C0D0D0D0E0E0E0F0F0F101011111102
:100510001212131314141515161617171818191983
:100520001A1A1B1B1C1D1D1E1E1F202021222223E8
:100530002424252626272829292A2B2C2D2D2E2F29
:1005400030313232333435363738393A3B3C3D3E40
:100550003F404142434445464748494A4C4D4E4F2F
:1005600050515354555658595A5B5D5E5F616264F1
:10057000656668696B6C6D6F7072737577787A7B7E
:100580007D7E8082838587888A8C8E8F91939596D5
:10059000989A9C9EA0A2A3A5A7A9ABADAFB1B3B5F5
:1005A000B7BABCBEC0C2C4C6C9CBCDCFD1D4D6D8D1
:1005B000DBDDDFE2E4E7E9EBEEF0F3F5F8FAFDFF6F
:1005C0001203640065006E00690061006C00370072
:1005D0003500000016036A0073006F0072002D00E2
:1005E000680070006F006C006900000004030904DB
:1005F00009025B00030100A0FA09040000010301E5
:1006000001000921110100012240000705810308B2
:10061000000109040100020300000009211101008A
:1006200001222200070582032000010705030320A1
:10063000000109040200010300000009211101006A
:1006400001226D0007058403200001120100020051
:10065000000008484A01000100010200010660FF95
:100660000961A1010962150026FF00952075088126
:10067000020963150026FF00952075089102C00548
:10068000010980A101850319012AB700150126B7C8
:1006900000950175108100C0050C0901A1018504B8
:1006A00019012AA002150126A002950175108100EA
:1006B000C005010906A1018506050719E029E7150E
:1006C0000025019508750181020507190029EF151C
:1006D00000250195F075018102050819012905958C
:1006E0000575019102950175039101C00501090687
:1006F000A101050719E029E71500250195087501F5
:1007000081029501750881010507190029FF15006F
:1007100026FF009506750881000508190129059531
:100720000575019102950175039101C011241FBE49
:10073000CFEFDAE0DEBFCDBF04B603FE18C0809174
:10074000BE039091BF03A091C003B091C103873055
:10075000904BA740B04B59F41092BE031092BF03C8
:100760001092C0031092C103E0E0F8E3099511E094
:10077000A0E0B1E0E4E2FFE402C005900D92A03AEF
:10078000B107D9F723E0A0EAB1E001C01D92AE3B6A
:10079000B207E1F70E948B140C9490270C94000090
:1007A000CF93DF930E94D515D82F0E94D215C82F62
:1007B0000E94CF154D2F6C2FDF91CF910C94DA163C
:1007C000FC01E65AFD45E930F10508F052C0DB01B5
:1007D000EA5AFF4F12969C910C942E27992309F404
:1007E00048C00E9414174FEF6FEF3DC0992309F4E2
:1007F00040C00E9414174FEF6FEF8AEA35C099236B
:10080000C1F10E9414174FEF6FEF8BE22DC09923B7
:1008100081F10E9414174FEF6FEF85E125C09923F6
:1008200041F10E9414174FEF6FEF85E51DC099232A
:1008300001F10E9414174FEF6FEF8FEB15C0992352
:10084000C1F00E9414174FEF0DC0992391F00E9440
:1008500014174FEF60E88AEE07C0992351F00E9409
:10086000141740E060E080E00E94DA1681E00E9408
:10087000111781E0089581E008950C94E003089534
:100880000C943F041F93CF93DF9300D000D01F92AE
:10089000CDB7DEB749835A836B833091A301898139
:1008A0009A81311114C0662359F0222349F00E9425
:1008B000030B182F682F89819A810E94AC0A03C00C
:1008C0000E94D70A182F69817A81812F04C00E9463
:1008D000030B69817A810F900F900F900F900F900A
:1008E000DF91CF911F910C94C71BFC01262F4081F3
:1008F00051816281738184810C94420481E0089566
:10090000CF93DF93EC0160E00E947504BE01DF919C
:10091000CF910C944004E1E0F0E0DF0102C0AA0FA7
:10092000BB1F6A95E2F7BD01DF0102C0AA0FBB1F22
:100930004A95E2F7AD01462B01C0EE0F2A95EAF782
:10094000942F9823491302C08E2B0895E0958E238F
:100950000895242F462F682F8091C8010E948B0490
:100960000C94690A0C943C130C94381308950E945B
:10097000040A0E94B6042FEF84E39CE021508040DB
:100980009040E1F700C000000C94801F0F931F936C
:10099000CF93DF938C0161E00E947504EC01B801F4
:1009A0000E946F18882309F44BC0B801CE010E9441
:1009B0003D04882309F444C0B801CE010E942B1DD8
:1009C0008823F1F1B801CE010E94B9198823C1F141
:1009D000B801CE010E94871C882391F1B801CE0195
:1009E0000E946517882361F1F8018281882309F14B
:1009F000CA358DE5D807C1F050F4C115FCE5DF0715
:100A000081F0CE3DDC45A9F40E94241019C0CB35FD
:100A1000EDE5DE0761F0CC35DD4559F40E94680F45
:100A200008C00E94B7040CC00E94710F02C00E944F
:100A3000740FC801DF91CF911F910F910C943B046B
:100A400080E0DF91CF911F910F9108950E94B41E15
:100A50000C941E060E9421060C94BA1EDF92EF929F
:100A6000FF920F931F93CF93DF93E82FF0E0E05FA7
:100A7000FB4FD490282F26952695269530E0F90136
:100A8000E055FB4F0491877010E0082E02C01595C9
:100A900007950A94E2F701701127F901E056FB4F20
:100AA000E490F12C082E02C0F594E7940A94E2F742
:100AB00091E0E922FF24F901E057FB4FC491D0E017
:100AC00002C0D595C7958A95E2F7C170DD2701155B
:100AD000110519F081EE0E948006E114F10419F06D
:100AE00086EE0E9480068D2D0E949807EF2819F04F
:100AF00086EE0E942207012B19F081EE0E94220748
:100B0000CD2B51F08CE2DF91CF911F910F91FF908F
:100B1000EF90DF900C949807DF91CF911F910F9188
:100B2000FF90EF90DF900895EF92FF920F931F9345
:100B3000CF93DF93EC01162F0AE08881882309F414
:100B400055C0813009F043C08981813041F47E0174
:100B500082E0E80EF11C8A810E94980709C0823069
:100B600049F47E01E2E0EE0EF11C8A810E948006CB
:100B7000E7012FC0833041F47E01F2E0EF0EF11C5B
:100B80008A810E942207F4CF843011F0219621C07F
:100B90002A81229680E090E030E0205331092A300B
:100BA000310558F4089FA001099F500D1124C90177
:100BB000840F951F21962881EFCF009751F0EFE920
:100BC000FFE03197F1F700C000000197F6CF0E94D7
:100BD0002E052196812F882309F4AFCFEFE9FFE09E
:100BE0003197F1F700C000008150F5CFDF91CF9130
:100BF0001F910F91FF90EF90089560E00C94940581
:100C000008950C94000681E00895CF93C82F0E94A8
:100C10000306882329F0C1FD02C02E9A01C02E9838
:100C2000CF910895269A2E9A0895CF93C82F0E94A7
:100C300001068C2F0E940506CF91089580E00C9448
:100C400015060E94871D0C9415060E94871D909121
:100C5000A201891721F08093A2010C941506089532
:100C6000CF93DF93CDB7DEB72B970FB6F894DEBFE7
:100C70000FBECDBF4F83588769877A878B876111F5
:100C80000E94B40E9E012F5F3F4F86E0F901119242
:100C90008A95E9F785E0FE013796D90101900D921A
:100CA0008A95E1F789819A814C815D81452B31F0EC
:100CB0009F3F31F491E08F3F19F403C091E001C0F0
:100CC00090E090FF09C049815A816B817C818D81C0
:100CD0009E810E94D50D05C0C9010E947E0481112C
:100CE000F2CF2B960FB6F894DEBF0FBECDBFDF91CB
:100CF000CF910895FC01808191810E94300B08956D
:100D0000CF93882309F49CC0C82F8238C1F40E9475
:100D1000871D81FD95C069E38091020190910301D7
:100D20000E946F1E0E94D60E2FEF81EE94E021509C
:100D300080409040E1F700C0000069E319C08338AB
:100D400001F50E94871D80FD7BC063E58091020153
:100D5000909103010E946F1E0E94D60E2FEF81EE2C
:100D600094E0215080409040E1F700C0000063E52E
:100D700080910201909103010E947A1ECF910C9400
:100D8000D60E8438C1F40E94871D82FD59C067E4E5
:100D900080910201909103010E946F1E0E94D60E65
:100DA0002FEF81EE94E0215080409040E1F700C0A9
:100DB000000067E4DDCF8CEF8C0F813AD0F46C2F0C
:100DC00080910201909103010E94EF1D882349F058
:100DD0006C2F80910201909103010E947A1E0E9463
:100DE000D60E6C2F80910201909103010E946F1E1C
:100DF000C5CF80E28C0F883048F4C77081E001C015
:100E0000880FCA95EAF70E94970EB8CFEBE5EC0F72
:100E1000E33040F4F0E0EC5BFE4F808190E0CF9156
:100E20000C94AD1DC85AC73158F4EC2FF0E0EE0F0A
:100E3000FF1FEA5EFE4F80819181CF910C94C31D0C
:100E4000CF910895882309F45BC0682F823879F424
:100E50000E94871D81FF54C069E380910201909137
:100E600003010E946F1E0E94D60E69E310C08338F2
:100E7000B1F40E94871D80FF43C063E580910201A9
:100E8000909103010E946F1E0E94D60E63E580912F
:100E90000201909103010E947A1E0C94D60E8438B0
:100EA00079F40E94871D82FF2BC067E480910201C4
:100EB000909103010E946F1E0E94D60E67E4E7CF57
:100EC0008CEF860F813A18F380E2860F883048F461
:100ED000677081E001C0880F6A95EAF70E949D0E55
:100EE000DCCF8BE5860F833020F480E090E00C941B
:100EF000AD1D685A673120F480E090E00C94C31D6A
:100F000008951F93CF93DF93182FEB010E94800663
:100F1000209741F08FE99FE00197F1F700C00000B2
:100F20002197F6CF812FDF91CF911F910C9422074B
:100F3000893319F060E070E002C060E570E00C9465
:100F40008107882321F00E94970E0C94D60E0895F5
:100F5000882321F00E949D0E0C94D60E0895CF9206
:100F6000DF92EF92FF920F931F93CF93DF937C0159
:100F7000162FC72FFC01D281058102950F700E94A8
:100F80008D0E8823B9F0DD23A9F08C2F807F80346B
:100F900021F080E2810F883068F08091930282FD19
:100FA00009C082E00E94360F0E948D0E91E0D82E7B
:100FB000D92601C0D12CCC2EC2948FE0C8228C2D12
:100FC00090E08C30910508F093C1FC01E15AFF4F8D
:100FD0000C942E278C2F807FCF70882311F0C29520
:100FE000C07FDD2399F0CC2309F46EC180E2810F2C
:100FF000883010F0111104C08C2F0E94970E03C08E
:101000008C2F0E94A70E0E94D60E5EC1812F0E94D7
:101010002207CC2309F46CC180E2810F883038F1BB
:10102000112329F18C2F0E94AD0E24C08C2F807FBC
:10103000CF70803211F0C295C07F112319F01130AA
:10104000A1F13DC08091930282FF17C0DD2349F0DA
:10105000CC2329F08C2F0E94970E0E94D60E80E0A0
:1010600034C180E00E942207CC2309F441C18C2FB7
:101070000E949D0E0E94D60E3BC1DD2371F000231D
:1010800041F0013031F40E94B70E8C2B0E94BF0E4C
:101090002FC10E94B70E8C2B1DC0002319F0013008
:1010A00009F426C10E94CC0E25C0DD2321F00630B4
:1010B00008F01EC10EC0053008F01AC11BC0DD23A8
:1010C00061F0002331F0F701858180FFFDC08F7052
:1010D00085838C2F0E94A1070BC1002359F019337F
:1010E00009F003C1FFEF27EE83E0F150204080407C
:1010F000E1F7F9C08C2F0E94A807FAC08C2F8695C3
:101100008695837019F0813061F0F2C0DD2321F003
:10111000812F9C2F937002C080E090E00E94AD1D53
:10112000EFC0DD2321F0812F9C2F937002C080E05F
:1011300090E00E94C31DE4C08C2F837079F5D1111B
:10114000DBC0412F429546954770440F440F212F35
:101150002F70042E01C0220F0A94EAF714FF08C072
:101160008FE090E001C0880F4A95EAF7809501C0B2
:1011700080E0C695C695C370822BC23049F058F402
:10118000C13019F00E945D0AB7C00E94580AB4C06D
:101190000E94620AB1C00E94560AAEC0DD2319F057
:1011A0008C2F817001C08695882309F4A5C0412F3A
:1011B000429546954770440F440F212F2F70042EFF
:1011C00001C0220F0A94EAF714FF08C08FE090E0F4
:1011D00001C0880F4A95EAF7809501C080E0C69566
:1011E000C695C370822BC23049F058F4C13019F053
:1011F0000E94A10A81C00E949C0A7EC00E94A60A89
:101200007BC00E94690A78C0CF70DD2339F08C2F33
:101210000E947A0A812F0E94A1076EC0812F0E942E
:10122000A8078C2F0E94850A67C0123F21F128F47D
:10123000103F41F0113FC1F043C0133F19F1143F7B
:1012400079F03EC0DD2341F0053008F051C08C2F0D
:101250008F710E94910A4CC0063008F049C0F7CF48
:101260008091930282FF18C0DD2339F08C2F8F719B
:101270000E947A0A3DC0DD23C9F38C2F8F710E9432
:10128000850A36C0DD2329F08C2F8F710E94720AE7
:101290002FC00E946F0A2CC0DD2349F0CF718C2F24
:1012A0000E947A0A63E08C2F0E941B0F21C081E00C
:1012B0000E94360F0230E0F082E00E94360F18C024
:1012C000DD2331F0002391F2812F0E94800610C0AF
:1012D000002399F2193349F49FEFE7EEF3E09150C0
:1012E000E040F040E1F700C00000812F0E9422079B
:1012F00088EF8C0D843020F40E94871D0E94150613
:10130000DD20C9F00E94890E80FD15C0F701128210
:101310000E94830E0E947A0AC7010E94BC090E94A3
:10132000830EDF91CF911F910F91FF90EF90DF908F
:10133000CF900C94850ADF91CF911F910F91FF9070
:10134000EF90DF90CF9008950F931F93CF93DF938B
:10135000EC01688179818A810E943B0B8C010E949B
:10136000AB0A0E944A0AB801CE010E94AF07DF9182
:10137000CF911F910F910895CF93DF93EC01988146
:1013800089812B813C81232B31F08F3F31F481E027
:101390009F3F19F403C081E001C080E080FD1DC0C3
:1013A000CE010E94C604811110C00E948D0E8823B8
:1013B000A1F08A81882389F08091930282FD0DC07B
:1013C00082E0DF91CF910C94360FCE010E94A409E8
:1013D000CE01DF91CF910C948004DF91CF910895DD
:1013E00080E090E00E94AD1D80E090E00E94C31D6F
:1013F0000E94B40E0C94D60E8091020190910301CC
:101400000E94851E0C94F0090E94A40E0C94FC0905
:1014100092959F70963079F010F4925001C09A50D6
:10142000923068F4803F69F018F4883E40F409C0B7
:10143000843F29F406C0883E20F0813F11F080E00F
:10144000089581E00895FC01808191810E94300B14
:101450000E94080A0895CF93DF9300D000D01F9216
:10146000CDB7DEB70F900F900F900F900F90DF91D8
:10147000CF910895CF93DF9300D000D000D0CDB7A7
:10148000DEB726960FB6F894DEBF0FBECDBFDF9154
:10149000CF910895089508950C944B0A0C944C0A2A
:1014A0000E944E0A8093C9010C94F0090C94500AD2
:1014B0009091C901892B0C94500A9091C9018923FC
:1014C0000C94500A9091C90189270C94500A0C94ED
:1014D0004B0A0E94670A8093C8010C94F00980E0CF
:1014E0000C94690A91E001C0990F8A95EAF7892F57
:1014F0000C94690A21E030E001C0220F8A95EAF7D6
:101500008091C801822B0C94690A21E030E001C06F
:10151000220F8A95EAF720958091C80182230C94C6
:10152000690A21E030E001C0220F8A95EAF7809134
:10153000C80182270C94690A9091C801892B0C94E8
:10154000690A9091C80189230C94690A9091C80195
:1015500089270C94690A089520E1929F800D112437
:10156000E82FE695E695E695877051E001C0550FA6
:101570008A95EAF783E0E89FF0011124EC55FE4FCD
:1015800020E030E070E04081CB01022E02C0969551
:1015900087950A94E2F781708195842785238427B3
:1015A00081932F5F3F4F2330310569F7089520E184
:1015B000929F800D1124682F669566956695982FE9
:1015C000977083E0689FB001112440E050E080E014
:1015D000FB01E40FF51FEC55FE4F208130E0092E92
:1015E00002C0369527950A94E2F721703327042E1E
:1015F00001C0220F0A94EAF7822B4F5F5F4F4330FE
:10160000510531F70895CF92DF92FF920F931F9308
:10161000CF93DF936C010091C8018091C901082B21
:10162000C7E0D0E010E0C8010C2E02C09595879568
:101630000A94E2F780FD04C02197A8F7F12C07C0B7
:10164000FC2EB6018C2F0E9413120197A9F38F2D47
:10165000DF91CF911F910F91FF90DF90CF90089570
:10166000CF93DF93EC010E94030BBE010E94131283
:10167000DF91CF9108951F93CF93DF93EB0190916A
:10168000A301992321F0CB010E94300B13C08823C2
:1016900049F0CB010E94030B182F682FCE010E9446
:1016A000AC0A04C0CB010E94D70A182FBE01812FBB
:1016B0000E941312DF91CF911F9108951F93CF9332
:1016C000DF93C091CA0116E08091CB01C81799F051
:1016D000D0E01C9FF0011D9FF00D1124E453FE4F3C
:1016E0004081518162817381848195810E943A0A8F
:1016F0002196C770E9CFDF91CF911F910895409156
:10170000FC015091FD016091FE017091FF018091FB
:101710000002909101020C943A0AEF92FF920F930B
:101720001F93CF93DF938091010282958F7009F010
:1017300065C08091FE01882309F460C08091CA01D0
:10174000F090CB011091FC010091FD016091FF012F
:101750007091000291E01F3F09F090E0C0910001FC
:10176000D0910101292F96E0E92E8F1509F446C08A
:101770006115710521F00F3F21F030E003C031E029
:1017800001C0322F90E030FD36C0E89EF001E99EA6
:10179000F00D1124DF01A453BE4F11963C91119717
:1017A000301329C03C91311326C012963C911297F8
:1017B000311121C013964D915C911497461B570B24
:1017C0004C175D07C0F4809101028F708061809397
:1017D0000102EF52FE4F80818F70806180838CEF19
:1017E00091E00E94BC09DF91CF911F910F91FF9072
:1017F000EF900C945E0B01968770B7CFDF91CF917D
:101800001F910F91FF90EF9008959F92AF92BF921A
:10181000CF92DF92EF92FF920F931F93CF93DF93BC
:10182000CDB7DEB761970FB6F894DEBF0FBECDBF60
:101830008C0185E0F801DE011D9601900D928A95DC
:10184000E1F7D8011296EC909091FC01E091FD0136
:101850002091FF01309100022115310531F0EF3F59
:1018600031F481E09F3F19F403C081E001C080E0C2
:10187000B82FB1709B2E80FD47C1D8014C911196B5
:101880005C9111971396AD90BC9014978CEFC82E75
:1018900081E0D82EF090FE01B501621B730B209100
:1018A000000130910101FF2009F4D9C080910102AB
:1018B0006217730708F095C0282F207F09F052C0E7
:1018C0005E1313C0491311C0FE2CE1100EC08F70BF
:1018D0008061809301020E947F0BC6010E94BC09B7
:1018E00080910102F80185834DC1AB2831F05F3F43
:1018F00031F481E04F3F19F403C081E001C080E082
:1019000080FD03C081E08E2502C080E090E0F82FCA
:10191000F170FF2E80FF1CC08091CA012091CB0185
:1019200036E0821709F40BC190E0389FF001399F2F
:10193000F00D1124E453FE4F6181561306C06081FF
:10194000461303C06281E61203C001968770E9CF97
:10195000FE2CEE2009F416C1809101028160809373
:10196000010254C05E1306C0491304C0E11002C056
:10197000F80199C0C8010E94230A882361F1EE2072
:1019800051F120910102822F82958F7090E0029791
:1019900074F08091FC019091FD0198878F831986E6
:1019A000BB86AA862C87CE0107960E94BC0986E0DA
:1019B000F801ACEFB1E001900D928A95E1F70E9439
:1019C0008D0B0E947F0B0AC05E1711F1C8010E94A7
:1019D000230A81112CC0C8010E94BC09FF24F39482
:1019E000D1C0282F207F81F77A2DB98AA88A6E2D41
:1019F00089890E942B0A8CEF91E00E94BC0986E045
:101A0000D6011D928A95E9F70E947F0BF12CBAC08E
:101A10004913DCCFE110DACFF8018583C8010E94B9
:101A2000BC0986E0D6011D928A95E9F7ABC0EE208D
:101A300091F220910102822F82958F7090E002979F
:101A40000CF4B5CF8091FC019091FD019A838983BC
:101A50001B82BD82AC822E83CE010196A6CF621777
:101A6000730708F044C0FE2CEE2009F4B4CF5E13D7
:101A700030C049132EC02091010220FD21C0822FC9
:101A800082958F70482F50E041155105C9F0F8013B
:101A900025834F30510541F08F5F982F9295907FAD
:101AA000822F8F70892B8583C8010E94BC0986E034
:101AB000F801ACEFB1E001900D928A95E1F73CC0DE
:101AC00086E0F801ACEFB1E001900D928A95E1F764
:101AD00059C0C8010E94230A811169CF8091010277
:101AE000816080930102C8010E94BC094BC07A2D1D
:101AF000B98AA88A6E2D89890E942B0A86E0D601B0
:101B00001D928A95E9F718C0EE2009F464CFC80148
:101B10000E94230AF82E882309F45DCF86E0F8019D
:101B2000ACEFB1E001900D928A95E1F78CEF91E076
:101B30000E947A060E948D0B0E947F0B23C04D8766
:101B40005E878D859E850E94300B292F22952F70F0
:101B5000223028F49F7039F0811105C00BC0243069
:101B600028F49F7049F4805E883020F0C8010E94FC
:101B7000BC099F2CF92C06C0D80115969C91907F2A
:101B800091F7F8CF8F2D61960FB6F894DEBF0FBE98
:101B9000CDBFDF91CF911F910F91FF90EF90DF901C
:101BA000CF90BF90AF909F9008951F93CF93DF93F6
:101BB000CDB7DEB72C970FB6F894DEBF0FBECDBF02
:101BC0004F83588769877A878B879C87CE010796D2
:101BD0000E94050C8823D1F09F8188852A853B854A
:101BE000232B31F08F3F31F481E09F3F19F403C084
:101BF00081E001C080E080FD47C04F815885698544
:101C00007A858B859C850E943A0A3EC086E0FE015B
:101C10003796DE01119601900D928A95E1F7FF81CA
:101C2000E8856A857B856115710531F0EF3F31F4F8
:101C300081E0FF3F19F403C081E001C080E080FD36
:101C400023C02091CB0130E0C9010196877099270C
:101C50004091CA0150E084179507F1F1F983EA83B6
:101C60007D836C8396E0929FD001939FB00D1124E9
:101C7000A453BE4FFE01319601900D929A95E1F763
:101C80008093CB010E945E0B16E08091CA01909177
:101C9000CB01891771F1189FC001112484539E4F05
:101CA0000E94050C882329F1E091CA011E9FF001D2
:101CB0001124E453FE4F40815181628173818481FC
:101CC00095810E943A0A8091CA0190E0019687703E
:101CD00099278093CA01D9CF0E94040A1092CB01A0
:101CE0001092CA01ECEFF1E086E0DF011D928A95C7
:101CF000E9F72C960FB6F894DEBF0FBECDBFDF918B
:101D0000CF911F91089580912202859585958595A3
:101D10000895809122028770089590912202977011
:101D200081E009F480E00895809145020895909142
:101D30004502892B80934502089580959091450234
:101D40008923809345020895109245020895909149
:101D50004402892B80934402089580959091440217
:101D6000892380934402089510924402089580913B
:101D70002302089508950C94BA0E0C94BB0E909112
:101D8000930292FD08C090912302981721F080934E
:101D900023020C94BD0E089580912302882329F01C
:101DA0001092230280E00C94BD0E0895CF93DF9330
:101DB000E0910201F0910301809145028083E0915E
:101DC0000201F0910301908180914402892B80836C
:101DD00080912302882381F0E0910201F0910301B8
:101DE0009081892B808380910201909103010E9450
:101DF000D91D81110E94CC0EC0910201D091030126
:101E000040E250E062E072E0CE010E943B27892B65
:101E100069F080E2FE01A2E0B2E001900D928A95A5
:101E2000E1F7CE01DF91CF910C94931DDF91CF911B
:101E300008950C94BA0E9091930292FD10C098E010
:101E4000899F90011124262B209322020E947A0A56
:101E5000809122028595859585950C94190F0C9497
:101E60007A0A1092220280E00C94190F209122022B
:101E70008095822380932202982F977099F430E006
:101E8000482F082E000C550B2417350759F0909158
:101E9000930292FD07C08595859585950E94850AD8
:101EA0000C94310F08959091930292FB222720F910
:101EB000281769F080FB92F9909393028091920227
:101EC000909193020E94A10F82E00C94360F089526
:101ED0008091930282FB882780F991E089270C94F6
:101EE000530F81E00C94530F80E00C94530F6FEF6D
:101EF0007FEF80E090E00C947A2780E090E00E94F1
:101F00005627893E9E4F11F40C94071880E00895DF
:101F100082E090E00C94482783E090E00C944827FE
:101F2000CF9384E090E00E944827C82F82E290E09F
:101F30000E9448272C2F30E0A901582BCA01CF91CD
:101F40000895CF93C92F682F84E090E00E945C270A
:101F50006C2F82E290E0CF910C945C27AB01BC0126
:101F60008FE090E00C946E27AB01BC0183E190E020
:101F70000C946E2760E070E0CB010C94B40F60E02D
:101F800070E0CB010E94AE0F0C94BA0F69EE7EEFA9
:101F900080E090E00E947A2760E082E090E00E947A
:101FA0005C2760E083E090E00E945C271092C9010A
:101FB00060E084E090E00E945C2760E082E290E0D4
:101FC0000E945C2760E085E090E00E945C2760E072
:101FD00086E090E00E945C276FEF87E090E00E942F
:101FE0005C2740E050E0BA0188E090E00E946E2754
:101FF00060E08DE090E00E945C2740E050E0BA0194
:1020000088E190E00E946E2760E087E190E00E9406
:102010005C2740E050E0BA018CE190E00E946E271E
:1020200060E070E080E290E00E947A2740E050E0BB
:10203000BA0188E190E00E946E2780E00E9420189B
:102040000E9453180C94BF0F0C94C60F682F8EE09B
:1020500090E00C945C270E943F1F6093560270939F
:1020600057028093580290935902609352027093E2
:1020700053028093540290935502089585B7806867
:1020800085BF85B7806885BF089581E008950C9469
:10209000451008950C9449100C94D0030C944910E9
:1020A0000C944E100C9449100E943E108FEE92E159
:1020B0000E947D1D0E9452100C9450100E944A10E4
:1020C0000C9449100E9409130C9412060E942A1FB6
:1020D0000E9462180E94E4130E9462100E94261758
:1020E0000C944C105F926F927F928F929F92AF925E
:1020F000BF92CF92DF92EF92FF920F931F93CF93F5
:10210000DF93CDB7DEB72A970FB6F894DEBF0FBEC8
:10211000CDBF0E94F913C82E81110E942B1036E406
:10212000832E32E0932E00E010E0502E802F0E948C
:1021300023135C01F401619071904F0168267926A8
:1021400061147104B1F40F5F1F4F0630110569F778
:102150008FEF89838A831B820E94331F8160782FCF
:102160009D838C8349815A816B818D810E943006C9
:102170003AC080915A0281FD0E942C13D12CEE248A
:10218000E394F12CC3018E219F21892B29F10E9418
:1021900047108823A9F0DE825F82AE20BF2081E055
:1021A000AB2809F480E088870E94331F8160782F74
:1021B0009A8789874E815F8168858A850E9430066B
:1021C000000F111FF801EA5BFD4F80819181E82625
:1021D000F926F182E08207C0D394EE0CFF1CF0E1F7
:1021E000DF12D0CFB0CF81E0C11001C080E02A96CD
:1021F0000FB6F894DEBF0FBECDBFDF91CF911F9118
:102200000F91FF90EF90DF90CF90BF90AF909F9095
:102210008F907F906F905F9008950E9472100C9441
:102220002506CF93DF930E941812EC01811522E559
:102230009207E8F5811531E5930708F0B6C0883EAE
:10224000910528F5803E910508F0E9C0883A91058E
:1022500070F4853A910508F07AC08130910509F44F
:1022600073C008F4D9C0049708F0D9C0D5C08F3B1B
:10227000910508F0D1C0C85AD0E0CC0FDD1FC95B72
:10228000DE4F0990D881C02DCE019464C9C081155C
:1022900040E5940708F069C0811550E4950708F0FF
:1022A00060C09A9581159F4108F4B9C0B5C08115E9
:1022B00036E5930728F5811545E5940708F092C0A7
:1022C000811554E5950708F087C0AC014370552788
:1022D000282F26952695C115D34508F06CC081E0BE
:1022E00090E002C0880F991F4A95E2F740E2249FD0
:1022F00090011124EC01C22BD32BCE019C6890C01D
:1023000081152AE5920780F4811539E5930708F0D5
:1023100072C0811548E5940708F47EC0D82FCC27F9
:10232000CE01806F906A7CC090568115904208F073
:1023300073C08D2F8F710E94AC12DD27D0628F7118
:10234000AE01582BCA016CC081E090E069C0C55A4B
:10235000D0E0CB58DE4F8881C82FD0E0CE0190640A
:102360005FC0DF70CE01906A5BC074E09695879580
:102370007A95E1F7282F23703C2F337081E090E0AD
:1023800002C0880F991F3A95E2F79C68AC01522B66
:102390009A019C2F9F709695969550E2959FE0012B
:1023A0001124C9018C2B9D2B3BC0D82FCC27CE01EB
:1023B000816F906A35C081E090E002C0880F991F5C
:1023C0004A95E2F750E2259F90011124EC01C22BBF
:1023D000D32BCE019A6824C0D82FCC27CE01846F8E
:1023E000906A1EC00E94AC128F7190E0D82FCC274B
:1023F000CE01906215C08F700E94AC1294E0D69509
:10240000C7959A95E1F7CF70D0E0DC2FCC27D06943
:102410009E01282BC90104C080E090E001C0CE01DC
:10242000DF91CF9108950E94C71B0E94111108955A
:102430008238910569F1B0F48133910509F46DC0DA
:1024400048F48932910509F463C08A32910509F490
:1024500069C008958533910509F455C08933910504
:10246000B9F00895833E910569F138F4803E9105F5
:10247000B1F0823E910509F10895863E9105A9F1DA
:10248000873E9105B9F1843E910509F064C023C0EF
:102490002091920220FD4FC021FD4DC008958091F2
:1024A000920280FD44C08091930280FF44C08091DD
:1024B000920284FD42C083EE4DC08091920282FF61
:1024C00038C0F5CF8091920282FD33C08091930293
:1024D00080FD31C0ECCF8091930281FF32C08091AA
:1024E000920284FD2AC087EE35C08091920283FF5C
:1024F00026C0F5CF8091920283FD21C08091930286
:1025000081FD1FC0ECCF8091920285FD1CC01DC0D3
:102510008091920285FD19C016C08091920286FDBD
:1025200016C017C08091920286FD13C010C089E3C7
:1025300011C082EE0FC080EE0DC080E00BC086EEB1
:1025400009C084EE07C089E205C085E303C08AE2C2
:1025500001C081E390E008959091920292FF0DC036
:10256000282F2871283019F4877F846006C0282F0F
:102570002471243011F48B7F886093FF0DC0282FC5
:102580002871283119F4877E846106C0282F2471B0
:10259000243111F48B7E88612091930220FF0DC0BD
:1025A000382F3871383019F4877F816006C0382F92
:1025B0003171313011F48E7F886021FF0DC0282FDA
:1025C0002871283119F4877E816106C0282F217176
:1025D000213111F48E7E886194FD877E089580E01C
:1025E00008950C94770F0E94F9138FE39CE90197EB
:1025F000F1F700C000000E94F91380E00E9423134D
:1026000080FF04C00E94F1120C94801F08950C9466
:10261000F3120E947D0F811102C00E9424100E94BB
:10262000880F80935A020E94900F90939302809398
:1026300092020E9407130E948C0F0E94560A8091FA
:10264000C8010C94670AE82FF0E0EE0FFF1FE05678
:10265000FD4F808191810895089580EA8A95F1F770
:10266000089500C008950C942D1308950C9435130B
:102670000C9436130C9435130C943A13F894E82FF9
:10268000E295EF70F0E031A1282F2F7081E090E00B
:1026900001C0880F2A95EAF7982F9095932391A36C
:1026A00092A1892B82A3789408950F931F93CF93BF
:1026B000DF93C8E8D1E089918F3F11F00E943E136B
:1026C00081E0CE38D807B9F7C8E7D1E008E811E0D3
:1026D00089918F3F11F00E943E130C171D07C1F71F
:1026E000DF91CF911F910F910895BF92CF92DF920A
:1026F000EF92FF920F931F93CF93DF938C01C62F1E
:10270000D0E0CE0188579E4F6C01FC0190819F3F25
:1027100009F450C0B62EF894E92FE295EF70F0E07E
:1027200081A19F7021E030E001C0220F9A95EAF765
:10273000822B81A382A12095282322A378940E9432
:102740003113E8E7F1E048E851E021E030E0E12C26
:10275000F12C61916F3F89F0A62FA295AF70B0E088
:1027600090968C9190E06F7002C0959587956A95D0
:10277000E2F780FD02C0C90102C080E090E0E82AD3
:10278000F92A220F331F4E175F0719F7F6018081D0
:102790008F3F11F00E943E1361E0E114F10409F44F
:1027A00060E08B2D0E943313CC0FDD1FC00FD11FB3
:1027B000F982E882DF91CF911F910F91FF90EF9006
:1027C000DF90CF90BF9008950E9455138CE0E0EA0F
:1027D000F2E0DF01982F1D929A95E9F7E4E9F2E023
:1027E000DF011D928A95E9F786E00E9444140C945B
:1027F000B204FF920F931F93CF93DF93CDB7DEB751
:102800002C970FB6F894DEBF0FBECDBF8E010F5FC1
:102810001F4F8CE0F80111928A95E9F7F12C6F2D8A
:10282000C8010E947513F394F6E0FF12F8CF4CE054
:1028300050E0B80184E992E00E943B27FF24F39422
:10284000009709F4F12C892B41F08CE0F801A4E900
:10285000B2E001900D928A95E1F72F2D46E060EAF3
:1028600072E084E992E00E9445140E94B4048F2D26
:102870002C960FB6F894DEBF0FBECDBFDF91CF917F
:102880001F910F91FF9008950895FF920F931F934A
:10289000CF93DF93F82E092F162FD72FC42F222383
:1028A00049F081E080935D020E94331F90935C02A7
:1028B00080935B0280915D028823D9F080915B0256
:1028C00090915C020E944B1F059798F0EF2DF02F1E
:1028D000A12FBD2F80E090E04C2F50E0841795078A
:1028E00034F4219131912D933D930196F7CF1092BD
:1028F0005D02DF91CF911F910F91FF9008950E948B
:1029000060210E9466100C946C210E9470210E942C
:102910000D110C948A210E94D11E0E9447210E9411
:1029200054100E947F140E9485140E945E10FBCFF9
:10293000EF92FF920F931F93CF93DF938B01682F3A
:1029400011110AC0442329F0E82FF0E0E054FB4FB6
:102950006491762F862F75C0212F30E0E82FF0E0AC
:10296000442321F0E054FB4FE491F0E046E0049F63
:10297000C0011124CFEFD0E0BE010E941A274BEA1C
:102980004603C001479F900D1124800F911D800FB9
:10299000911D982F990F890FAE01421B530B4E9F2B
:1029A000D0014F9FB00D5E9FB00D11249B2F189F3B
:1029B000A0011124452F55278E01041B150B0E9FD6
:1029C000A0010F9F500D1E9F500D11247E01E81A8B
:1029D000F108E29E8001E39E100DF29E100D11247D
:1029E000212F3327C21BD30BCE9F9001CF9F300DD9
:1029F000DE9F300D112462307105A9F048F4611595
:102A0000710569F061307105C9F48B2F752F0DC008
:102A10006430710581F058F06630710579F47E2FCD
:102A20008B2F932F0DC0832F7B2F9E2F09C08E2FAE
:102A30007B2F952F05C08E2F732F02C07E2F852FE1
:102A4000692FDF91CF911F910F91FF90EF90089523
:102A500041E00E94981408950E9428150895CF938C
:102A6000DF93762FE901682F842F0E942C1579833C
:102A700068838A83DF91CF910895493C08F048EC40
:102A80000C942F158091AC02982F9695913021F0DF
:102A9000817082608093AC028091AF02893C18F013
:102AA00088EC8093AF02089588E090E00C94502762
:102AB000CF92DF92EF92FF926B017C010E94421550
:102AC000B701A60188E090E0FF90EF90DF90CF90F3
:102AD0000C946E276091AC027091AD028091AE02B1
:102AE0009091AF020C945815ECEAF2E083E08083F9
:102AF00011828FEF828388EC8383148260817181DD
:102B0000828193810C9458158091AC0280FF02C0A1
:102B10008695089580E008959091B002933018F45E
:102B20009F5F9093B002882351F06091AC02709146
:102B3000AD028091AE029091AF020C9458150895A9
:102B400081E00C948C159091B002992319F091506A
:102B50009093B002882351F06091AC027091AD0265
:102B60008091AE029091AF020C945815089581E0C7
:102B70000C94A3158091B00208958093B00266234F
:102B800051F06091AC027091AD028091AE029091D3
:102B9000AF020C945815089560E00C94BD15809117
:102BA000AD0208958091AE0208958091AF0208951C
:102BB00070E00C94DC17609105018091AC0280FFFD
:102BC0000AC08091040123E0829FC00111248F5428
:102BD0009D4F0C94D815809106019091070189179B
:102BE00080F7E82FF0E09F01220F331FE20FF31F61
:102BF000EF54FD4F1182108212828F5FF0CFECEA0A
:102C0000F2E080818E7F80836081718182819381F7
:102C10000E9458152FEF80E792E0215080409040AD
:102C2000E1F700C000000C94DB15ECEAF2E08081D3
:102C30008E7F80832FEF80E792E02150804090408C
:102C4000E1F700C000000C94DB159091AC0290FFFE
:102C500016C09091060120910701921770F4E92F98
:102C6000F0E0DF01AA0FBB1FEA0FFB1FEF54FD4F7F
:102C70008183608342839F5FF0CF0C94DB150895BE
:102C8000EF92FF920F931F93CF93DF9300D01F9289
:102C9000CDB7DEB79091AC0290FF2CC0E22E142F7E
:102CA000062FF82EE92FE695F0E0E257FE4F8081DF
:102CB00080935F029E7F923059F49E012F5F3F4FB9
:102CC0008F2D0E943D154B8169818A810E942516B6
:102CD000F092AD020093AE021093AF02EE2051F0DD
:102CE0006091AC027091AD028091AE029091AF0202
:102CF0000E9458150F900F900F90DF91CF911F9168
:102D00000F91FF90EF900895ECEAF2E09181282F67
:102D1000438162818AE0890F0C94401681E00C9413
:102D20008416ECEAF2E09181282F4381628186EFDC
:102D3000890F0C94401681E00C949116ECEAF2E0B5
:102D4000628121E1620F08F46FEF282F43818181B6
:102D50000C94401681E00C949E16ECEAF2E062813D
:102D600021E1621B08F460E0282F438181810C94EB
:102D7000401681E00C94AD16ECEAF2E0438121E1CB
:102D8000420F08F44FEF282F628181810C94401686
:102D900081E00C94BC16ECEAF2E0438121E1421B95
:102DA00008F440E0282F628181810C94401681E074
:102DB0000C94CB1621E00C94401620E00C944016A5
:102DC0008091AC0280FF18C0817082608093AC0259
:102DD000662351F06091AC027091AD028091AE0219
:102DE0009091AF020E9458154091AF026091AE02DF
:102DF0008091AD020C94DD160895682F81E00C944B
:102E0000E01681E00C94FD16682F9091AC02969527
:102E10008FEF890F09F481E00C94E01681E00C94A7
:102E2000041761E00C94E016ECEAF2E08081816026
:102E3000808386950C9411178091AC0280FD0C94D0
:102E4000FF150C94141760E00C94E01680915E025C
:102E500081112CC00E947D0F811104C00E9424109A
:102E60000E9474150E9454156093AC027093AD02D9
:102E70008093AE029093AF026E7F61F40E9474154E
:102E80000E9454156093AC027093AD028093AE0221
:102E90009093AF020E9442158091AC0280FF03C064
:102EA00086950E94231781E080935E020895ECEAE4
:102EB000F2E080818160808386950C9423178823BB
:102EC00011F0FA0101C0FB0109941F93CF93DF9326
:102ED000FB01128111116BC0EC010E94940E8272F1
:102EE000C93CFCE5DF0709F450C0C0F4C53CECE583
:102EF000DE07E1F148F4C33C9CE5D90759F178F5C8
:102F0000C23CDC4521F121C0C73C9CE5D90799F1C1
:102F1000B8F54EE856E16BE976E125C0CD3CFCE51D
:102F2000DF0709F441C050F4CB3CECE5DE0791F13A
:102F3000B0F548EC56E167ED76E115C0C63D8CE58D
:102F4000D807A8F1CD35DD4591F111E030C00E94E0
:102F50001C172DC04EE057E161E077E104C041E06D
:102F600057E16EE077E10E945F1721C04BE956E11F
:102F70006EE876E1F8CF49EB56E16AEA76E1F3CF05
:102F80004AEA56E169EB76E1EECF47ED56E168ECAF
:102F900076E1E9CF47EB55E160EA75E1E4CF40EA3D
:102FA00055E167EB75E1DFCF81E00E941117812FBA
:102FB000DF91CF911F910895529A2BB12B7F3BB196
:102FC00034604FB7F894FC01CB01880F991F680F4C
:102FD000791F6E0F7F1FE617F70789F0819198E040
:102FE0003BB9000000C087FF2BB9880F000000C06C
:102FF00000C000C02BB900C09A9591F7ECCF4FBF2D
:103000008FE594E00197F1F700C00000089583E296
:1030100090E00E944827823281F484E290E00E948E
:103020004827843051F485E290E00E94482791E0DF
:10303000813009F090E0892F01C080E0817008950F
:10304000CF93C82F811102C06FEF01C062E283E20B
:1030500090E00E945C27C11102C06FEF01C064E0E4
:1030600084E290E00E945C27C11102C06FEF01C0B2
:1030700061E085E290E0CF910C945C27089586E2B0
:1030800090E00E944827682F70E080E090E008956B
:103090000895CF93C62F0E9448186C2F86E290E0C7
:1030A000CF910C945C2780E00E94201860E070E0D3
:1030B000CB010E9449180E94421B0E941F1C81E004
:1030C0000C9420180E943E180E943F180E94481835
:1030D0000E940718811102C00C9453180895CF93D1
:1030E000FB01C281CC23E9F09C0122513F452031F4
:1030F000310520F482510E942F1C0CC08031FFE565
:103100009F0751F481E00E947A0A43E062E081E087
:103110000E94A904C0E018C081319F45A9F482E053
:10312000F2CF8031EFE59E0711F481E004C08131D8
:103130009F4549F482E00E94850A43E062E081E015
:103140000E94A90401C0C1E08C2FCF9108952FEFF8
:10315000FC0120830895CF93DF93EC0188818138AF
:1031600089F028F48038A1F40E94D51510C0823867
:1031700061F0833869F40E94CF1589830E94D215CB
:103180008A8306C00E94841502C00E94BA158983F2
:10319000DF91CF910895CF93DF93EC01888181383F
:1031A000B1F058F4803851F5D9810E94D215C82F5A
:1031B0000E94CF154D2F6C2F1DC08238B1F083387F
:1031C000E9F40E94D515482F6A81898113C089814D
:1031D0000E9423178981811104C0DF91CF910C9443
:1031E0001516DF91CF910C9457178981DF91CF91FC
:1031F0000C94CC15DF91CF910C94DD16DF91CF911B
:103200000895EF92FF920F931F93CF93DF93EC01FA
:10321000062F0196E8814E2F50E0FA013197E331F5
:10322000F10508F09AC0E559FF4F0C942E2719823A
:1032300089E056C08981823039F0833061F0813075
:1032400029F50E943F1F02C00E943F189A838B837A
:103250007C836D8384C07E0110E0812F0E94231344
:10326000F701928383831F5FF2E0EF0EF11C1630AB
:10327000A1F775C08981823049F46A817B818C8194
:103280009D810E9434270E94491869C0602FCE0199
:103290000E94A71864C04B816A8189810E94141B17
:1032A0009C838D835CC02C813D813227232732276C
:1032B0004B816A8189810E942D1B51C00E94421B53
:1032C0004EC00E94CB184BC00E94AB1848C00E9451
:1032D0006A1545C00E94D41B24C00E94D61B998346
:1032E0008A833DC06B8170E089819A81AE014C5F19
:1032F0005F4F9827892798270E94D91B30C06B8180
:1033000070E089819A81AE014C5F5F4F98278927D1
:1033100098270E94FD1B23C00E941F1C20C00E94F2
:10332000011B89831CC06B8170E089819A81AE0189
:103330004C5F5F4F9827892798270E94811B0FC0F9
:103340006B8170E089819A81AE014C5F5F4F982755
:10335000892798270E94A51B02C08FEF8883602FC2
:10336000CE01DF91CF911F910F91FF90EF900C94C0
:103370001C20CF93DF93EC01FB018281882309F4A9
:103380003CC1C330FDE5DF0760F4CA3F9CE5D907C7
:1033900088F49E0122503C452431310508F02EC1AD
:1033A00009C0C136EDE5DE0729F0C53AFDE5DF07C6
:1033B00009F024C10E94900F90939302809392028F
:1033C000C1318CE5D80709F4C6C008F042C0C93045
:1033D000ECE5DE0709F49BC000F5C5308CE5D807A5
:1033E00009F485C078F4C330ECE5DE0709F478C051
:1033F00008F07AC0C230DC4509F0F5C08091920235
:103400008160EFC0C7309CE5D90709F478C008F0A7
:103410007AC0809192028061E4C0CD30FCE5DF0784
:1034200009F487C058F4CB309CE5D90709F479C07A
:1034300008F07BC08091920288606FC0CF30FCE5BD
:10344000DF0709F480C008F082C080919202877F74
:10345000C8C0CD3F9CE5D90709F471C000F5C5315E
:10346000FCE5DF0709F485C068F4C3319CE5D907A2
:1034700009F475C008F095C00E94040A8091920278
:103480008F77AFC0CB3FFCE5DF07A9F108F054C050
:10349000CA3FDC4509F0A7C08091930240C0C1300B
:1034A000EDE5DE0709F489C058F4CF3F8CE5D80775
:1034B00009F45AC008F069C08091930282602FC05D
:1034C000C136EDE5DE0709F47CC0C53AFDE5DF074E
:1034D00009F481C0C230DD4509F085C080E06EC0CE
:1034E0008091920282607DC08091920216C080918C
:1034F0009202886076C08091930282604FC0809172
:10350000920280626EC08091920280646AC00E94C2
:10351000040A80919202806864C0846062C0816005
:103520003DC0809192028E7F5CC0809192028D7F1F
:1035300058C08091920216C08091930218C0809169
:1035400093028D7F2BC0809192028F7E4AC0809122
:1035500092028F7D46C0809192028F7B42C0809103
:103560009202877F8B7F3DC0809193028D7F8E7FFB
:1035700015C08091920282FB222720F991E09227C8
:1035800090FB82F990FB83F92CC080919302982FD5
:10359000909591708E7F892B90FB81F98093930297
:1035A00022C00E94040A8091920287FB222720F900
:1035B00091E0922790FB87F914C081E00E942610C9
:1035C00012C08091920284FB222720F991E0922779
:1035D00090FB84F906C080919202982F909590FB01
:1035E00080F98093920280919202909193020E94BE
:1035F000A10F0E94040A80E001C081E0DF91CF9119
:10360000089584E0089550E0440F551F20E2629F22
:10361000400D511D11249A0160EC869F200D311D33
:103620001124C901879608950F931F93CF93DF93B9
:103630000E94031B8C010E944827C82FD0E0DC2F7A
:10364000CC27C80101960E9448279E01282BC9015A
:10365000DF91CF911F910F9108950F931F93CF93F7
:10366000DF93122F032F0E94031BEC01602F0E9497
:103670005C27612FCE010196DF91CF911F910F91B1
:103680000C945C27AF92BF92CF92DF92EF92FF92A1
:103690000F931F93CF93DF93A12CE12CF12CB12C2E
:1036A00000E010E0C0E0D0E06701C00ED11EF601DE
:1036B000EC0FFD1FEE0FFF1FE05FFE4F25913491D1
:1036C0004C2F6B2D8A2D0E942D1B2196C031D105C8
:1036D00071F7005F1F4FB39486E0B812E3CF80E626
:1036E000E80EF11CA39484E0A812D9CFDF91CF910A
:1036F0001F910F91FF90EF90DF90CF90BF90AF9010
:103700000895EF92FF920F931F93CF93DF93EA01F7
:103710007A01E60EF71E8C01C8018796CE15DF05EB
:1037200069F0011523E0120720F40E9448278883DE
:1037300001C0188221960F5F1F4FEECFDF91CF910E
:103740001F910F91FF90EF900895EF92FF920F93CA
:103750001F93CF93DF93EA017A01E60EF71E8C01E7
:10376000C8018796CE15DF0559F0011523E0120731
:1037700018F468810E945C2721960F5F1F4FF0CFDD
:10378000DF91CF911F910F91FF90EF900895462FF9
:10379000843038F4763028F4603118F4672F0C94B4
:1037A000141B80E090E0089580E1089589ED90E099
:1037B0000895EF92FF920F931F93CF93DF93EA0147
:1037C0007A01E60EF71E8C01C801895D9C4FCE156B
:1037D000DF0561F0093D110520F40E944827888328
:1037E00001C0188221960F5F1F4FEECFDF91CF915E
:1037F0001F910F91FF90EF900895EF92FF920F931A
:103800001F93CF93DF93EA017A01E60EF71E8C0136
:10381000C801895D9C4FCE15DF0551F0093D1105AA
:1038200018F468810E945C2721960F5F1F4FF0CF2C
:10383000DF91CF911F910F91FF90EF900895CF935B
:10384000DF93C7E2D3E060E0CE010E945C272196BF
:10385000C11584E0D807B9F7DF91CF910895DF92C1
:10386000EF92FF920F931F93CF93DF9300D000D07E
:10387000CDB7DEB7F82E8FE08F15E8F18FEF93E02C
:103880000E944827811137C007E213E0FF2069F04A
:10389000011584E0180779F1C8010E9448278111B9
:1038A00001C0FA940F5F1F4FF1CF19821A821B8259
:1038B0001C82DD24D39478018FEFE81AF80AC8013E
:1038C0000E94482789831A828823A9F09FEF980FC6
:1038D000933058F48A83D9820E5F1F4FC7010E942C
:1038E00048278B83882339F07801CE0101960E9406
:1038F000FD058701E0CF0F900F900F900F90DF91A3
:10390000CF911F910F91FF90EF90DF900895CF938B
:10391000DF9386319C4541F5EB010E94940E982F70
:103920008A812091020130910301882379F09A7AEB
:1039300081E009F480E080936102911102C069E2A4
:1039400001C065E3C9010E946F1E0AC08091610237
:10395000811102C069E201C065E3C9010E947A1EBB
:103960000E94D60E80E001C081E0DF91CF910895E2
:103970000F931F93CF93DF93C42FD22FFC0182812B
:103980008823C9F0409364020E94331F909363021E
:103990008093620280E28C0F883008F057C0C770B5
:1039A00081E001C0880FCA95EAF7DF91CF911F919E
:1039B0000F910C94A10780916402481330C080914C
:1039C0006202909163020E944B1F883C910538F57A
:1039D00010E21D0FCD17B9F080E28C0F883040F453
:1039E000C77081E001C0880FCA95EAF70E94A80756
:1039F000183028F581E09D2F977001C0880F9A95A7
:103A0000EAF70E94A107802F0E9498071830F0F46F
:103A1000D77081E001C0880FDA95EAF70AC080E22A
:103A20008C0F883098F4C77081E001C0880FCA9568
:103A3000EAF7DF91CF911F910F910C94A807802F87
:103A4000DF91CF911F910F910C949807DF91CF9147
:103A50001F910F9108950F939C01CB01233F4CE5DB
:103A6000340731F188F4283DFCE53F07D9F0293DC2
:103A70004CE5340779F1273D3C45A9F506E221EEF6
:103A800041EE67ED7CE52BC0253FFCE53F07E1F00B
:103A9000A8F0263F3C4539F507E225EE46EE66EFF5
:103AA0007CE51DC007E225EE45EE68ED7CE517C01C
:103AB00006E221EE40EE63EF7CE511C007E225EE61
:103AC00044EE64EF7CE50BC006E221EE42EE65EFCA
:103AD0007CE505C008E221E045EE69ED7CE50E9449
:103AE000B81C80E008C0FC018281882319F0109284
:103AF000640201C081E00F9108959093A101809329
:103B0000A001089590936A02809369020895E0915C
:103B10006902F0916A02309721F00190F081E02D66
:103B2000099480E00895E0916902F0916A0230976B
:103B300099F020911501222359F02091920227FF3C
:103B400007C0DC012C9111962C93119726E02C9341
:103B50000280F381E02D099408952091670230914D
:103B600068022817390771F0909368028093670202
:103B7000E0916902F0916A02309721F00680F781A6
:103B8000E02D09940895209165023091660228176E
:103B9000390771F09093660280936502E0916902A3
:103BA000F0916A02309721F00084F185E02D0994AC
:103BB0000895FC01329680911501882331F080919F
:103BC000920287FF02C09EE101C096E080E0915022
:103BD00028F021912223D9F38F5FF9CF089566232E
:103BE00051F1209115012223E9F02091920227FF43
:103BF00019C0462F4695469546954E31E0F46770BC
:103C000021E030E002C0220F331F6A95E2F7FC0189
:103C1000E40FF11D828190E02823392381E0232BDA
:103C200069F409C0FC01329608962191621729F0C7
:103C3000E817F907D1F780E0089581E008959C0125
:103C4000FC0132969FEF80E04191461789F09F3F3B
:103C500019F4411101C0982F8F5F8630A9F79F3F5B
:103C600039F0F901E90FF11D97FDFA956283089586
:103C700008959C012A5F3F4FFC014281461301C019
:103C80001282019682179307B9F70895262F269579
:103C9000269526952E3168F4FC01E20FF11D677020
:103CA00021E030E001C0220F6A95EAF78281282BDB
:103CB00022830895262F2695269526952E3170F479
:103CC000FC01E20FF11D677021E030E001C0220F1E
:103CD0006A95EAF72095828128232283089520910E
:103CE0001501222329F02091920227FD0C94461EF3
:103CF0000C941F1E20911501222329F0209192027D
:103D000027FD0C945A1E0C94391E20911501FC01BC
:103D10003296222331F08091920287FF02C08EE119
:103D200001C086E0DF011D928A95E9F708950895A4
:103D30000C94971E83E080936B020C94981E811163
:103D400002C081E001C082E080936B020C94981E57
:103D50000C949F1E81E080936B020C94981E0C942F
:103D6000AA1E08950C94B11E0C94B21E0C94B11EA0
:103D70000C94B11E0C94B11ECF930E94B81E0E94E9
:103D8000F9130E94B61EC0E08C2F0E942313892BCA
:103D900029F4CF5FC630C1F780E001C081E0CF9148
:103DA000089508951F920F920FB60F9211248F93CA
:103DB0009F93AF93BF9380916C02811113C0809148
:103DC000AD039091AE03A091AF03B091B0034196C3
:103DD000A11DB11D8093AD039093AE03A093AF03DB
:103DE000B093B003BF91AF919F918F910F900FBE91
:103DF0000F901F9018958091B503843031F10E9487
:103E0000260510926C0220E488E190E00FB6F89449
:103E1000A895809360000FBE2093600083B7817FD8
:103E2000846083BF83B7816083BF7894889583B7AC
:103E30008E7F83BF0FB6F894A8958091600088614B
:103E400080936000109260000FBE08950E94040AE3
:103E50000C942A0582E084BD93E095BD9AEF97BD4E
:103E600080936E0008952FB7F8948091AD039091E0
:103E7000AE03A091AF03B091B0032FBF08952FB749
:103E8000F8946091AD037091AE038091AF0390916F
:103E9000B0032FBF08959C014FB7F8948091AD03F4
:103EA0009091AE03A091AF03B091B0034FBF821BBE
:103EB000930B089578941F920F920FB60F921124CE
:103EC0008F939F93AF93BF938091AD039091AE0377
:103ED000A091AF03B091B0030196A11DB11D8093D5
:103EE000AD039093AE03A093AF03B093B003BF9123
:103EF000AF919F918F910F900FBE0F901F901895CB
:103F000081E08093E00080E28093D8001092C900A5
:103F10008FE19EE40197F1F700C0000087E090EB8D
:103F2000DC018093BE039093BF03A093C003B093C2
:103F3000C1039CE088E10FB6F894A89580936000D7
:103F40000FBE90936000FFCF809190020895089576
:103F5000CF93DF9320911501222339F02091920213
:103F600027FF03C060E224E002C068E021E0209364
:103F7000E9002FEF3091E800215035FD06C035ED06
:103F80003A95F1F700002111F5CF2091E80025FFC7
:103F90001DC0EC0180911501811105C040E050E089
:103FA00068E070E003C070E040E050E0CE010E94A5
:103FB00031228091E8008E778093E80080E2FE0154
:103FC000A0E7B2E001900D928A95E1F7DF91CF91E1
:103FD000089580936D0270936F0260936E028091DA
:103FE000B5038430F9F48093E9008FEF9091E800F5
:103FF000815095FD06C095ED9A95F1F7000081116D
:10400000F5CF8091E80085FF0DC040E050E063E00F
:1040100070E08DE692E00E9431228091E8008E7778
:104020008093E8000895BC0184E00C94E91FBC0172
:1040300083E00C94E91F0895CF93603219F5209125
:10404000B5032430F9F4C091E900CF703091EC0051
:10405000232F217030FD20E8C22B22E02093E900BD
:104060002091E80020FF0BC040E050E060E270E0EB
:104070000E9431228091E8008E778093E800CF7013
:10408000C093E900CF9108958091B403811109C0D4
:104090000E940D240E946A248091E2008460809333
:1040A000E20008951092B40308950C94AF1E60913D
:1040B000B10381E0611101C080E00C949A1E9091DF
:1040C000B50381E0943009F080E06091B1030C9475
:1040D0009F1E42E061EC81E00E94862342E261EC97
:1040E00084E00E94862342E261EC82E00E94862303
:1040F00042E260EC83E00E9486239091B50381E068
:10410000943009F080E06091B1030C94A81E809176
:10411000B703833009F463C030F4813071F082302A
:1041200009F49CC008958A3009F488C08B3009F4E2
:104130006EC0893009F0AAC020C08091B603813AD0
:1041400009F0A4C08091E800877F8093E800809107
:10415000BA039091BB03892B21F460E280E792E0DF
:1041600003C060E080E090E070E00E94C722809190
:10417000E8008B778093E80008958091B603813240
:1041800009F084C08091BA039091BB03009719F0A5
:10419000029709F07BC08091E800877F8093E80058
:1041A0008091E80082FD05C08091B5038111F8CFB0
:1041B0006DC02091F3008091F20090E0922B029765
:1041C00031F48091F100813011F0863021F480913A
:1041D000F100809390028091E8008B7753C080912A
:1041E000B603813A09F052C08091BA039091BB03A3
:1041F000892B09F04BC08091E800877F8093E8000D
:104200008091E80080FFFCCF8091150136C080913D
:10421000B6038132D9F58091BA039091BB03892B03
:10422000A9F58091E800877F8093E8000E94BB2376
:104230008091B803809315010C94040A8091B60311
:10424000813221F58091E800877F8093E8000E9409
:10425000BB238091B9038093910208958091B603A6
:10426000813AA1F48091E800877F8093E8008091F3
:10427000E80080FFFCCF809191028093F100809153
:10428000E8008E778093E8000C94BB23089584B7F0
:10429000877F84BF0FB6F894A895809160008861ED
:1042A00080936000109260000FBE90E080E80FB62F
:1042B000F89480936100909361000FBE0C94AA1E45
:1042C0000E940D240E946A24E2EEF0E08081846066
:1042D000808378940C94FF2689E091E00C94821DF1
:1042E0008091B5038530A9F48091B503853079F4C8
:1042F0000E94FB1E8091B3038823B1F30E94BC1E71
:10430000882391F30E941B220E94040AEDCF0C9493
:10431000261F0895CF93DF93CDB7DEB7A0970FB6D2
:10432000F894DEBF0FBECDBF8091B503843011F588
:1043300083E08093E9008091E80082FF1BC08091B8
:10434000E80085FF0AC040E050E060E270E0CE0186
:1043500001960E947C2291E001C090E08091E800EB
:104360008B778093E800992329F060E2CE010196D3
:104370000E940119A0960FB6F894DEBF0FBECDBF04
:10438000DF91CF9108950C94C521292F3327233035
:104390003105C9F060F42130310581F0223031055A
:1043A00009F041C08BE590E020EF35E040C02132BC
:1043B0003105E1F02232310531F135C082E190E082
:1043C0002BE436E034C099278130910549F028F07C
:1043D000029749F5E0ECF5E005C0ECEEF5E002C02F
:1043E000E4EDF5E0849190E09F0121C06330710518
:1043F000D0F4660F771FFB01E756FE4F2081318115
:1044000089E090E014C06330710568F4FB01EE0FA1
:10441000FF1FED56FE4F20813181FB01E057FE4F1B
:10442000808190E004C080E090E020E030E0FA017C
:1044300031832083089580E189BD82E189BD09B47B
:1044400000FEFDCF8091D8008F7D8093D8008091B1
:10445000E00082608093E0008091E00081FDFCCF6D
:104460000895CF92DF92EF92FF920F931F93CF9315
:10447000DF93EC018B017A010E94DA23811133C0B2
:10448000E114F10439F0F70180819181081B190BC7
:10449000C80FD91FC12CD12C0115110519F180911C
:1044A000E80085FD16C08091E8008E778093E800D3
:1044B000E114F10449F0F70180819181C80ED91E01
:1044C000D182C08285E00FC00E94DA23882321F3C5
:1044D0000AC089918093F10001501109FFEFCF1AB2
:1044E000DF0ADACF80E0DF91CF911F910F91FF902B
:1044F000EF90DF90CF900895CF92DF92EF92FF92EE
:104500000F931F93CF93DF93EC018B017A010E94ED
:10451000DA23811133C0E114F10439F0F70180810D
:104520009181081B190BC80FD91FC12CD12C011563
:10453000110519F18091E80085FD16C08091E80011
:104540008B778093E800E114F10449F0F701808152
:104550009181C80ED91ED182C08285E00FC00E9411
:10456000DA23882321F30AC08091F1008993015056
:104570001109FFEFCF1ADF0ADACF80E0DF91CF9188
:104580001F910F91FF90EF90DF90CF9008952091B1
:10459000BC033091BD032617370748F0611571053C
:1045A00039F42091E8002E772093E80001C0B9018A
:1045B000FC0120E06115710579F18091B503882334
:1045C000F1F18530F1F18091E80083FD3CC08091EC
:1045D000E80082FD2EC08091E80080FFEBCF2091A3
:1045E000F3008091F20090E0922B6115710551F07B
:1045F0008830910538F421912093F10061507109C0
:104600000196F3CF21E0089709F020E08091E800BF
:104610008E778093E800CECF2111CFCF0AC0809152
:10462000B503882361F0853061F08091E80083FD57
:104630000AC08091E80082FFF2CF80E0089582E016
:10464000089583E0089581E008952091BC0330919E
:10465000BD032617370748F06115710539F420911D
:10466000E8002E772093E80001C0B901FC0120E0AA
:104670006115710591F18091B503882309F440C05B
:10468000853009F43FC08091E80083FD3DC08091F2
:10469000E80082FD2FC08091E80080FFE9CF2091E3
:1046A000F3008091F20090E0922B6115710559F0B2
:1046B0008830910540F424912093F10031966150A7
:1046C00071090196F2CF21E0089709F020E080916E
:1046D000E8008E778093E800CBCF2111CCCF0AC0C1
:1046E0008091B503882361F0853061F08091E80006
:1046F00083FD0AC08091E80082FFF2CF80E0089538
:1047000082E0089583E0089581E00895982F97301E
:1047100068F59093E900981739F07091EC002091BA
:10472000ED005091F00003C0242F762F50E021FDC2
:1047300002C09F5FECCF3091EB003E7F3093EB00E7
:104740003091ED003D7F3093ED003091EB00316012
:104750003093EB007093EC002093ED005093F00049
:104760002091EE0027FDE5CF80E008958F708093C3
:10477000E90081E008958091B60387FF11C0809120
:10478000E80082FD05C08091B5038111F8CF11C00A
:104790008091E8008B770BC08091B503882349F0A6
:1047A0008091E80080FFF8CF8091E8008E778093B9
:1047B000E80008952091E4003091E50095E64091ED
:1047C000EC00842F817040FF23C08091E80080FDC1
:1047D0001DC08091B503882399F0853099F08091B0
:1047E000EB0085FD11C04091E4005091E5002417D5
:1047F000350729F3915011F09A01E1CF84E0089533
:1048000082E0089583E0089581E0089580E00895AE
:104810004091E80042FFDDCF08950E947B240E9472
:104820008324E0EEF0E0808181608083E8EDF0E0B9
:1048300080818F77808319BCA7EDB0E08C918E7F4B
:104840008C9380818F7E80831092B40308950F93A0
:104850001F93CF93DF930E947B240E948324C8ED93
:10486000D0E088818F778883888180688883888179
:104870008F7D888319BC1092B5031092B1031092FA
:10488000B3031092B20300EE10E0F80180818B7F39
:10489000808388818160888342E060E080E00E94BC
:1048A0008623E1EEF0E080818E7F8083E2EEF0E00F
:1048B000808181608083808188608083F80180812D
:1048C0008E7F8083888180618883DF91CF911F9163
:1048D0000F910895E8EDF0E080818F7E8083E7ED11
:1048E000F0E080818160808384E082BF81E08093FA
:1048F000B4030C942724E8EDF0E080818E7F808360
:104900001092E20008951092DA001092E1000895EA
:104910001F920F920FB60F9211242F933F934F9334
:104920005F936F937F938F939F93AF93BF93EF9317
:10493000FF938091E10082FF0BC08091E20082FF33
:1049400007C08091E1008B7F8093E1000E94FE26EA
:104950008091DA0080FF1FC08091D80080FF1BC0CB
:104960008091DA008E7F8093DA008091D90080FFF9
:104970000DC080E189BD82E189BD09B400FEFDCF93
:1049800081E08093B5030E94442005C019BC1092B9
:10499000B5030E9452208091E10080FF19C08091F0
:1049A000E20080FF15C08091E2008E7F8093E200DC
:1049B0008091E20080618093E2008091D800806263
:1049C0008093D80019BC85E08093B5030E945720DE
:1049D0008091E10084FF30C08091E20084FF2CC010
:1049E00080E189BD82E189BD09B400FEFDCF8091DF
:1049F000D8008F7D8093D8008091E1008F7E8093D6
:104A0000E1008091E2008F7E8093E2008091E200DD
:104A100081608093E2008091B103882311F084E0EB
:104A200007C08091E30087FD02C081E001C083E000
:104A30008093B5030E945F208091E10083FF29C02D
:104A40008091E20083FF25C08091E100877F809301
:104A5000E10082E08093B5031092B1038091E10000
:104A60008E7F8093E1008091E2008E7F8093E20050
:104A70008091E20080618093E20042E060E080E0AB
:104A80000E9486238091F00088608093F0000E944D
:104A90005520FF91EF91BF91AF919F918F917F91A1
:104AA0006F915F914F913F912F910F900FBE0F909B
:104AB0001F9018951F920F920FB60F9211242F93EB
:104AC0003F934F935F936F937F938F939F93AF9396
:104AD000BF93CF93DF93EF93FF93C091E900CF7023
:104AE0008091EC00D82FD17080FDD0E81092E900C1
:104AF0008091F000877F8093F00078940E949E253B
:104B00001092E9008091F00088608093F000CD2B36
:104B1000CF70C093E900FF91EF91DF91CF91BF91EA
:104B2000AF919F918F917F916F915F914F913F9145
:104B30002F910F900FBE0F901F9018951F93CF933A
:104B4000DF93CDB7DEB7AA970FB6F894DEBF0FBEDE
:104B5000CDBFE6EBF3E08091F100819323E0EE3BE3
:104B6000F207C9F70E9487208091E80083FF2EC1D9
:104B70008091B6039091B703492F50E04A30510518
:104B800008F024C1FA01E258FF4F0C942E27803818
:104B900021F0823809F01AC108C08091B2039091C7
:104BA000B303992389F082600FC08091BA038F709C
:104BB000873008F00BC18093E9008091EB0085FB02
:104BC000882780F91092E9009091E800977F9093F0
:104BD000E8008093F1001092F100D1C0282F2D7FC2
:104BE00009F0F4C0882319F0823061F0EFC08091A1
:104BF000B803813009F0EAC0933009F080E0809377
:104C0000B3032EC08091B80381112AC08091BA03EA
:104C10008F702FEF280F263008F0D8C08093E9005E
:104C20002091EB0020FF1CC0933021F48091EB0019
:104C3000806214C09091EB0090619093EB0021E0B2
:104C400030E0A90102C0440F551F8A95E2F7409356
:104C5000EA001092EA008091EB0088608093EB00FC
:104C60001092E9008091E800877F8093E8000E941D
:104C7000BB23ACC08111AAC01091B8031F778091EB
:104C8000E3008078812B8093E3008091E800877FA8
:104C90008093E8000E94BB238091E80080FFFCCF56
:104CA0008091E30080688093E300111102C082E0EC
:104CB00001C083E08093B50389C08058823008F03A
:104CC00085C08091B8039091B9038C3D53E095075E
:104CD00079F583E08A838AE289834FB7F894DE010D
:104CE000139620E03EE051E2E32FF0E050935700AE
:104CF000E49120FF03C0E295EF703F5FEF708E2FCD
:104D000090E0EA3010F0C79601C0C0968D939D9355
:104D10002F5F243149F74FBF8091E800877F809350
:104D2000E8006AE270E0CE0101960E94C72216C038
:104D30006091BA037091BB03AE014F5F5F4F0E9459
:104D4000C321BC01892B09F441C09091E800977FF1
:104D50009093E80089819A810E9425238091E80040
:104D60008B778093E80032C0803881F58091E8002D
:104D7000877F8093E8008091B1038093F100809158
:104D8000E8008E7772CF811121C08091B803909195
:104D9000B90399270297D4F48091E800877F809324
:104DA000E8008091B8038093B1030E94BB238091F7
:104DB000B103811106C08091E30087FD02C081E04C
:104DC00001C084E08093B5030E9469208091E800CF
:104DD00083FF0AC08091E800877F8093E80080917C
:104DE000EB0080628093EB00AA960FB6F894DEBFCA
:104DF0000FBECDBFDF91CF911F9108950895CF933E
:104E00008091B5038823A1F0C091E900CF70909103
:104E1000EC00892F817090FD80E8C82B1092E9008A
:104E20008091E80083FD0E949E25CF70C093E90029
:104E3000CF910895AA1BBB1B51E107C0AA1FBB1F3E
:104E4000A617B70710F0A61BB70B881F991F5A9516
:104E5000A9F780959095BC01CD010895EE0FFF1F35
:104E60000590F491E02D0994692796276927782702
:104E7000872778270895FB01DC0104C08D910190FC
:104E8000801921F441505040C8F7881B990B0895B0
:104E9000F999FECF92BD81BDF89A992780B5089502
:104EA000A6E1B0E044E050E00C948227A8E1B0E035
:104EB00042E050E00C948227262FF999FECF92BD54
:104EC00081BDF89A019700B4021639F01FBA20BDCF
:104ED0000FB6F894FA9AF99A0FBE08950396272F01
:104EE0000E945D270E945C27252F0E945D27242FAA
:104EF0000C945D270196272F0E945D270C945C2758
:104F0000DC01CB01FC01F999FECF06C0F2BDE1BD89
:104F1000F89A319600B40D9241505040B8F7089578
:044F2000F894FFCF33
:104F2400C80024020054005454A41FA81F1B2017B7
:104F3400201320A71F01E200E900EA00B500B60033
:104F4400B700CD008301CC008A01920194012102B3
:104F5400230224022502260227022A02B300B400F7
:104F64006F007000818283E200E900EA00B500B6B8
:104F740000B700CD008301CC008A01920194012185
:104F840002230224022502260227022A02B300B4C5
:104F9400006F007000818283F767663534979694BA
:104FA400C63132333790919330F6F5F4F1F00001C5
:104FB40040226DEC065D067F0602061B063B0600DA
:00000001FF
