:100000000C9475050C94AD050C94AD050C94AD05E0
:100010000C94AD050C94AD050C94AD050C94AD0598
:100020000C94AD050C94AD050C94EC160C942816AC
:100030000C94C01D0C94AD050C94AD050C94AD054D
:100040000C94AD050C94AD050C94AD050C94AD0568
:100050000C94AD050C94821D0C94AD050C94AD056B
:100060000C94AD050C94AD050C94AD050C94AD0548
:100070000C94AD050C94AD050C94AD050C94AD0538
:100080000C94AD050C94AD050C94AD050C94AD0528
:100090000C94AD050C94AD050C94AD050C94AD0518
:1000A0000C94AD050C94AD050C94AD05DB0ADB0A90
:1000B0000E0B0E0B810BA00CA00CA00C9F0B130CB5
:1000C000240C240C34145B140A165B140A16A714AF
:1000D000CA140A16C015D015951A981AB41AC11A5E
:1000E000C81AE81A891B891B891B891B891BEB1AF3
:1000F000ED1AF21A191B3D1B401B431B681B5422AF
:1001000042226622C921132313233F2213231323E0
:1001100093221323A722F122132313231323132340
:10012000C52213231323C22213237F221323132355
:100130000D230D230D230D230D230D230D230D233F
:100140000D230F23132354223722132313231323A6
:1001500013231323132313231323132313230F23F3
:10016000132313233F2213230B230B230B230B23D4
:100170000B230B230B230B230B230F230000000067
:10018000000000000000000000000000000000006F
:10019000000000000000000000000000000000005F
:1001A0007E0F00D4FFFFFFC70000007800000000B2
:1001B000000000002A2B28000000000000000000C2
:1001C0000000000000000029000000002C1E342068
:1001D000212224342627252E362D3738271E1F208E
:1001E0002122232425263333362E37381F040506D3
:1001F0000708090A0B0C0D0E0F1011121314151617
:100200001718191A1B1C1D2F3130232D3504050614
:100210000708090A0B0C0D0E0F10111213141516F6
:100220001718191A1B1C1D2F3130354C44454255E7
:10023000473A2064697361626C65642E0A00444524
:100240004255473A20656E61626C65642E0A004F24
:100250006E6573686F743A206163746976653A20DD
:1002600025640A000A002530325820006B65796247
:100270006F6172645F7265706F72743A200006314C
:10028000FF0974A1010975150026FF009520750866
:1002900081020976150026FF00952075089102C09D
:1002A00005010980A101850319012AB7001501265E
:1002B000B700950175108100C0050C0901A10185E9
:1002C0000419012AA002150126A0029501751081CA
:1002D00000C005010906A1018506050719E029E707
:1002E000150025019508750181020507190029EF00
:1002F0001500250195F075018102050819012905F0
:10030000950575019102950175039101C00660FF85
:100310000961A1010962150026FF00952075088179
:10032000020963150026FF00952075089102C0059B
:10033000010906A101050719E029E7150025019526
:1003400008750181029501750881010507190029C9
:10035000FF150026FF0095067508810005081901A4
:100360002905950575019102950175039101C05B01
:10037000435D005B445D005B535D005B575D005B6C
:10038000525D0009027B00040100A0FA090400008C
:1003900001030101000921110100012240000705AC
:1003A0008103080001090401000203000000092183
:1003B0001101000122220007058203200001070528
:1003C00003032000010904020001030000000921C9
:1003D00011010001226D00070584032000010904BA
:1003E0000300020300000009211101000122220084
:1003F0000705850320000107050503200001120100
:100400000002000000084B427AD8010001020001FE
:100410000E034B0042004900430036003500000047
:100420001A034D0041004E005500460041004300B4
:100430005400550052004500520000000403090416
:100440005B735D000A0025303862003A20002530D9
:100450003258000A722F6320303132333435363748
:100460000A000A0025303258006C65645F746173BD
:100470006B3A20004C25640A001E00200022002454
:100480000026002D002A004A0029001F0021002319
:1004900000250027002E0001001400080017001896
:1004A0000012002F00310000002B001A0015001C64
:1004B000000C00130030004B00040007000A000D80
:1004C000000F00340000004E003900160009000B38
:1004D000000E00330028004D0001001B0019001120
:1004E000003600380052004F00E1001D00060005F4
:1004F0000010003700E5005100E000E300E2002CAE
:1005000000E6000151E40050003A003C003E00408B
:1005100000420044004C00490035003B003D003FD4
:1005200000410043004500010001000100010001FD
:1005300000470052000100000001005200010001CC
:1005400000460048000100010050004F000100017A
:10055000004B004F000000010001005100010001AC
:10056000004A0050000100010001000100010001EB
:10057000004D0051004B004D000100010001000042
:100580005C01004E0001004E00010001000100016D
:10059000000100010001004A006164645F6B65793D
:1005A0005F6269743A2063616E2774206164643A03
:1005B00020253032580A0064656C5F6B65795F6294
:1005C00069743A2063616E27742064656C3A202553
:1005D0003032580A003F00433E20006B65796D6160
:1005E000705F636F6E6669672E7261773A2025309F
:1005F00032580A2E737761705F636F6E74726F6C1E
:100600005F636170736C6F636B3A2025750A2E63AC
:100610006170736C6F636B5F746F5F636F6E747226
:100620006F6C3A2025750A2E737761705F6C637466
:100630006C5F6C6775693A2025750A2E7377617057
:100640005F7263746C5F726775693A2025750A2E54
:10065000737761705F6C616C745F6C6775693A2069
:1006600025750A2E737761705F72616C745F7267B3
:1006700075693A2025750A2E6E6F5F6775693A2095
:1006800025750A2E737761705F67726176655F65A5
:1006900073633A2025750A2E737761705F62616318
:1006A0006B736C6173685F6261636B7370616365C8
:1006B0003A2025750A2E6E6B726F3A2025750A0056
:1006C00064656275675F636F6E6669672E726177D6
:1006D0003A20253032580A2E656E61626C653A20E8
:1006E00025750A2E6D61747269783A2025750A2E77
:1006F0006B6579626F6172643A2025750A2E6D6FA1
:100700007573653A2025750A006565636F6E6669C5
:10071000673A0A64656661756C745F6C61796572CD
:100720003A2025750A000A092D204D61676963206A
:100730002D0A443A094465627567204D65737361FB
:10074000676520546F67676C650A583A094D617494
:10075000726978204465627567204D6F6465205426
:100760006F67676C65202D2053686F77206B657904
:100770007072657373657320696E206D6174726940
:100780007820677269640A4B3A094B6579626F6138
:10079000726420446562756720546F67676C6520DA
:1007A0002D2053686F77206B6579707265737320A5
:1007B0007265706F72740A4D3A09446562756720FC
:1007C0004D6F75736520546F67676C650A563A09FB
:1007D00056657273696F6E0A533A09537461747582
:1007E000730A433A09416374697661746520436F03
:1007F0006E736F6C65204D6F64650A46312D46310E
:10080000303A0953776974636820746F204C6179BA
:10081000657220302D392028463130203D204C3063
:10082000290A302D393A0953776974636820746F47
:10083000204C6179657220302D390A475241564566
:100840003A0953776974636820746F204C61796545
:100850007220302028616C7465726E617465290A9B
:10086000423A094A756D7020746F20426F6F746C44
:100870006F616465720A4553433A094A756D702089
:10088000746F20426F6F746C6F61646572202861B1
:100890006C7465726E617465290A453A0950726913
:1008A0006E7420454550524F4D2053657474696EE7
:1008B00067730A4253504143453A09436C6561727C
:1008C00020454550524F4D0A4E3A094E4B524F204B
:1008D000546F67676C650A000A092D20436F6E73B9
:1008E0006F6C65202D0A4553432F713A0971756964
:1008F000740A000A092D2056657273696F6E202DE7
:100900000A5649443A20307834323442284D414E18
:1009100055464143545552455229205049443A20A6
:10092000307844383741284B4249433635292056E0
:1009300045523A203078303030310A4255494C44E3
:100940003A20202841707220203120323032322962
:100950000A4F5054494F4E533A204C55464120457A
:10096000585452414B455920434F4E534F4C45200C
:10097000434F4D4D414E44204E4B524F204C544F0F
:1009800020343039360A4743433A20352E342E304E
:10099000204156522D4C4942433A20322E302E30BF
:1009A000204156525F415243483A20617672350ADF
:1009B000000A092D20537461747573202D0A686F25
:1009C00073745F6B6579626F6172645F6C65647389
:1009D00028293A20253032580A6B6579626F617296
:1009E000645F70726F746F636F6C3A202530325899
:1009F0000A6B6579626F6172645F69646C653A2045
:100A0000253032580A6B65796D61705F636F6E6671
:100A100069672E6E6B726F3A20253032580A7469FE
:100A20006D65725F72656164333228293A20253022
:100A3000386C580A003F004E4B524F3A206F6666A2
:100A40000A004E4B524F3A206F6E0A000A6D6F75C6
:100A500073653A206F66660A000A6D6F7573653AB2
:100A6000206F6E0A000A6B6579626F6172643A20CA
:100A70006F66660A000A6B6579626F6172643A207C
:100A80006F6E0A000A6D61747269783A206F66664B
:100A90000A000A6D61747269783A206F6E0A000A62
:100AA00064656275673A206F66660A000A6465626B
:100AB00075673A206F6E0A000A0A4A756D70696E92
:100AC0006720746F20626F6F746C6F616465722E43
:100AD0002E2E2000433E2000436C656172696E67D4
:100AE00020454550524F4D0A000011241FBECFEF44
:100AF000DAE0DEBFCDBF04B603FE18C08091660207
:100B000090916702A0916802B09169028730904B82
:100B1000A740B04B59F410926602109267021092EF
:100B2000680210926902E0E0F8E3099511E0A0E0A4
:100B3000B1E0EAEAF7E402C005900D92A436B107ED
:100B4000D9F722E0A4E6B1E001C01D92A636B207B3
:100B5000E1F70E9476180C94D3230C940000FF93C5
:100B6000EF93E0916401F0916501309709F00995E8
:100B7000EF91FF910895FC018591803011F0EFDF36
:100B8000FBCF0895FF27E0E230E247FF0CC041951C
:100B900097FF09C0EDE26095709580959095611D75
:100BA000711D811D911D27FF02C0219530E350E288
:100BB000AA27660F771F881F991FAA1FA41710F076
:100BC000A41B63955A95A9F7AA3008F0A95FA05D08
:100BD000AF93F395611571058105910541F7ED32EC
:100BE00011F4EF93F395F21718F43F93F395FBCFBD
:100BF0008F91B5DFFA95E1F70895E991F991859123
:100C0000803021F0853219F0AADFF9CF089520E075
:100C1000E89455915532C1F3503311F468945591CD
:100C20005A3348F4505390F3220F022E220F220F12
:100C3000200D250FF4CF0EF421958991999153360B
:100C400019F3533729F1533559F1BC0188279927F6
:100C5000E8945C3621F489919991689455915436C1
:100C600039F446EF7EF077FF0DC08FEF9FEF0AC09B
:100C700055374AE039F0583540E121F0523642E02C
:100C800009F00895FF93EF937DDFEF91FF91B7CFC8
:100C9000FF93EF93FC0181918030B9F360DFFBCFCC
:100CA000FF93EF9368DFF1CFDF93CF93CDB7DEB73C
:100CB0002596A3DFCF91DF9108951F93CF93DF9304
:100CC000CDB7DEB767970FB6F894DEBF0FBECDBFC6
:100CD0004B8B5C8B6D8B7E8B8F8B61111092E00147
:100CE00086E09E01235F3F4FD901E82F1D92EA95D0
:100CF000E9F795E0FE017396D90101900D929A955E
:100D0000E1F79C894E895F897B897D879E876F8704
:100D1000598B488BF901DE01179601900D928A9547
:100D2000E1F7CE0107960E94A11181113EC086E035
:100D3000FE013796DE01119601900D928A95E1F73A
:100D4000FF81E8856A857B856115710531F0EF3F8C
:100D500031F481E0FF3F19F403C081E001C080E07D
:100D600080FD23C020918D0130E0C901019687707C
:100D700099274091BE0150E08417950779F1F983D6
:100D8000EA837D836C8396E0929FD001939FB00DA0
:100D90001124A257BE4FFE01319601900D929A95F3
:100DA000E1F780938D010E941E1116E08091BE0133
:100DB00090918D018917F9F0189FC0011124825775
:100DC0009E4F0E94A1118823B1F08091BE0190E056
:100DD0000196877099278093BE01E8CF0E949D20DD
:100DE00010928D011092BE01E7E8F1E086E0DF018C
:100DF0001D928A95E9F767960FB6F894DEBF0FBE8D
:100E0000CDBFDF91CF911F9108953F924F925F9296
:100E10006F927F928F929F92AF92BF92CF92DF920A
:100E2000EF92FF920F931F93CF93DF93CDB7DEB76F
:100E300029970FB6F894DEBF0FBECDBFFC018081AD
:100E4000918123813481232B31F09F3F31F491E054
:100E50008F3F19F403C091E001C090E090FDADC553
:100E60007F0185E0DE01119601900D928A95E1F7F0
:100E7000F701228189819A81222349F00E94D81F9B
:100E8000182F682F89819A810E94332003C00E9405
:100E90000720182F69817A81812F0E94A71F8C015A
:100EA000F7018281882309F4F2C0980122513F455D
:100EB0002031310508F01DC18FEF93E00E946B23B4
:100EC0008111EFC0025137E6832E32E0932E0023CA
:100ED00079F08114F4E09F0609F4E3C0C4010E9494
:100EE0006B23811101C001502FEF821A920AEFCFBC
:100EF0001E821F8218861986442443942AE0322ECB
:100F000084010F5F1F4FC4010E946B238E831F82D9
:100F1000882309F4C6C09FEF980F933060F48F8345
:100F20004E8232E0830E911CC8010E946B23888799
:100F3000811102C0B6C048018E010A5F1F4FF8013F
:100F400020812223E9F2213009F04CC081818130D7
:100F500049F46801F2E0CF0ED11CF80182810E94B1
:100F600098210AC0823051F46801F2E0CF0ED11C02
:100F7000F80182810E94ED20860186C0833049F409
:100F80006801F2E0CF0ED11CF80182810E94C320DB
:100F9000F3CF843019F00F5F1F4F76C0F801228124
:100FA0000E5F1F4F80E090E030E0205331092A307F
:100FB000310568F4389EA001399E500D1124C901F5
:100FC000840F951F0F5F1F4FF8012081EDCF009711
:100FD00009F45AC0EFE9FFE03197F1F700C00000D3
:100FE0000197F5CFE22FF0E0E455FE4F5490822FA9
:100FF00086958695869590E0FC01E456FE4F6490B8
:101000002770712C022E02C0759467940A94E2F73F
:10101000F1E06F227724FC01E457FE4FA490B12C3D
:10102000022E02C0B594A7940A94E2F731E0A322FD
:10103000BB24FC01E458FE4FC490D12C02C0D594CF
:10104000C7942A95E2F781E0C822DD246114710477
:1010500019F081EE0E94ED20A114B10419F086EE82
:101060000E94ED20852D0E949821AB2819F086EE74
:101070000E94C320672819F081EE0E94C320CD286A
:1010800019F08CE20E9498210F5F1F4F58CF00315A
:101090003FE5130709F088C481E00E9462200E94A6
:1010A00042138091BF01877009F487C4F7018281E0
:1010B000882309F482C48091450282FD7EC482E0C7
:1010C00029960FB6F894DEBF0FBECDBFDF91CF914A
:1010D0001F910F91FF90EF90DF90CF90BF90AF9056
:1010E0009F908F907F906F905F904F903F900C9467
:1010F000D2100031FFE51F0711F481E005C0013176
:101100002FE5120721F482E00E946E20C8CF033F32
:10111000FCE51F0799F406E221EE40EE63EF7CE563
:1011200009C0073DECE51E0711F506E221EE41EE90
:1011300067ED7CE5C7010E94A01EB3CF043F2CE5FC
:10114000120708F05CC1083D3CE5130731F407E2E3
:1011500025EE45EE68ED7CE5EDCF093D9CE51907F0
:1011600001F708E221E045EE69ED7CE5E3CF882355
:1011700009F47AC11092370203309DE5190758F43B
:101180000A3FECE51E0780F4C80182509C45449755
:1011900008F054C109C00136FDE51F0729F0053AE2
:1011A0002DE5120709F04AC10E94B60F909345023F
:1011B0008093440201313CE5130709F4C6C008F0EE
:1011C00042C009309CE5190709F49BC000F50530C1
:1011D000FCE51F0709F485C078F403303CE51307EC
:1011E00009F478C008F07AC002301C4509F0F7C055
:1011F000809144028160F1C00730ECE51E0709F4DC
:1012000078C008F07AC0809144028061E6C00D3059
:101210002CE5120709F487C058F40B308CE5180749
:1012200009F479C008F07BC08091440288606FC0E7
:101230000F30ECE51E0709F480C008F082C08091F1
:101240004402877FCAC00D3F2CE5120709F471C024
:1012500000F505318CE5180709F485C068F4033101
:10126000ECE51E0709F475C008F095C00E949D20AA
:10127000809144028F77B1C00B3F2CE51207A9F192
:1012800008F054C00A3F1C4509F0A9C080914502EE
:1012900040C001309DE5190709F489C058F40F3F9B
:1012A000FCE51F0709F45AC008F069C080914502A7
:1012B00082602FC001363DE5130709F47EC0053A70
:1012C0008DE5180709F483C002301D4509F087C079
:1012D00060E06EC08091440282607FC080914402D1
:1012E00016C080914402886078C080914502826077
:1012F0004FC080914402806270C08091440280643B
:101300006CC00E949D2080914402806866C0846009
:1013100064C081603DC0809144028E7F5EC0809138
:1013200044028D7F5AC08091440216C080914502CC
:1013300018C0809145028D7F2BC0809144028F7E22
:101340004CC0809144028F7D48C0809144028F7BC5
:1013500044C080914402877F8B7F3FC080914502CB
:101360008D7F8E7F15C08091440282FB222720F959
:1013700091E0922790FB82F990FB83F92EC0809137
:101380004502982F909591708E7F892B90FB81F963
:101390008093450224C00E949D208091440287FBD7
:1013A000222720F991E0922790FB87F916C061E08F
:1013B0008EE090E00E94792312C08091440284FB69
:1013C000222720F991E0922790FB84F906C08091B2
:1013D0004402982F909590FB80F98093440260918D
:1013E00044021091450284E090E00E947923612F2D
:1013F00082E290E00E9479230E949D2052CE053F18
:10140000FCE51F0731F406E221EE42EE65EF7CE5D4
:1014100091CE053F2CE5120730F407E225EE44EEAD
:1014200064EF7CE587CE063F3CE5130709F09FCECD
:1014300007E225EE46EE66EF7CE57CCE06318CE5D4
:10144000180719F58091E1018A7A91E009F490E09A
:1014500090936601882311F065E301C069E287E695
:1014600091E00E94221E0EC006311C4509F056C0B4
:1014700080916601882309F49EC265E387E691E0C6
:101480000E94E91D0E943E100CCE0E3DECE51E07A9
:10149000B9F140F401152CE5120789F001301C4523
:1014A000E1F03CC00B358DE51807A9F10C359DE541
:1014B000190749F10A351D4589F581E02DC00E94C3
:1014C0009D20FFEF24E33CE0F15020403040E1F765
:1014D00000C000000E945E1DE4CD80913E02982F66
:1014E0009095917090FB80F980933E02992319F0BA
:1014F0008EE392E002C08CE292E00E94BB05D1CD67
:101500000E94C70FCECD8091450282FB882780F9CB
:1015100091E0892701C080E00E94EF10F7018281ED
:1015200000811181882349F0C8010E94D81FD82E5C
:10153000682FC8010E94332004C0C8010E94072000
:10154000D82EB8018D2D0E94A71F0E942D0EB82EF7
:10155000192F982EF7010281A580A2949FE0A9225D
:101560008091BF018770B9F00023A9F0812F807F9F
:10157000803421F080E28B0D883068F08091450244
:1015800082FD09C082E00E94D2108091BF01877065
:10159000DD24D3948111D12CC12EC2948FE0C822B6
:1015A0008C2D90E08C30910508F0CAC1FC01EA5AFC
:1015B000FF4F0C94B923812F807F1F70882311F077
:1015C0001295107F0023B9F0112309F4A7C180E21E
:1015D0008B0D883010F0911006C08091E101182B1E
:1015E0001093E10105C08091E001182B1093E001F8
:1015F0000E943E1093C18B2D0E94C320112309F439
:101600009FC180E28B0D883080F1992071F1109597
:101610008091E00118231093E0012AC0812F807F80
:101620001F70803211F01295107F8B2D992021F0C0
:10163000F1E09F16D9F149C08091450282FF1BC09D
:10164000002369F0112339F08091E101182B1093E8
:10165000E1010E943E1080E00E94ED2071C180E017
:101660000E94C320112309F46BC1812F0E943710FF
:101670000E943E1065C1002381F08091E201AA2002
:1016800051F021E0A21207C0182B181709F458C115
:101690001093E20155C1812B10C0AA2021F031E046
:1016A000A31609F44DC10E94311027C0002341F058
:1016B00085E08A1508F444C1812F0E94B92040C1F9
:1016C00094E09A1508F43CC118C0002349F0AA2000
:1016D00099F3F701858180FF21C18F708583ECCF5D
:1016E000AA2059F0893309F028C1FFEF27EE33E033
:1016F000F15020403040E1F71EC1812F0E94B220FE
:101700001FC1812F86958695837019F0813061F015
:1017100017C1002321F08B2D912F937002C080E020
:1017200090E00E947E1E12C1002321F08B2D912F8C
:10173000937002C080E090E00E94681E07C1812F74
:101740008370A9F5011100C14B2D42954695477054
:10175000440F440F8B2D8F7090E09C01042E01C02C
:10176000220F0A94EAF7B4FE08C08FE090E001C0AF
:10177000880F4A95EAF7809501C080E01695169586
:101780001370123069F088F49091E301113019F070
:10179000822B892302C0922B892B0E947920D4C0EE
:1017A000822B9091E3018927F8CF822BF6CF00237B
:1017B00019F0812F817001C08695882309F4C4C077
:1017C0004B2D429546954770440F440F8B2D8F70DB
:1017D00090E09C01042E01C0220F0A94EAF7B4FEA7
:1017E00008C08FE090E001C0880F4A95EAF7809525
:1017F00001C080E0169516951370123059F078F4F8
:1018000090911802113019F0822B892309C0922B74
:10181000892B06C0822B90911802892701C0822B48
:101820000E945E2091C01F70002339F0812F0E941A
:101830006E208B2D0E94B92087C08B2D0E94B22074
:10184000812F0E94622080C08B2D92EF991679F132
:10185000991538F0E0EF9E1659F0F1EF9F1611F14F
:1018600059C023EF921651F134EF9316B9F052C0DC
:10187000002379F084E08A1508F462C01F7181E0CA
:1018800090E001C0880F1A95EAF790911802892715
:101890001FC095E09A1508F453C0F0CF809145021F
:1018A00082FF19C0002329F0812F8F7126C00023E9
:1018B000D9F3812F8F710E94622042C0002339F03A
:1018C0001F7181E001C0880F1A95EAF701C080E01E
:1018D0000E945E2035C0002399F01F71812F0E9465
:1018E0006E208091450282FD07C0E8E01E9FC00186
:1018F000112483608093BF01812F0E946E2020C03D
:1019000081E00E94D210F1E0FA15D0F482E00E944A
:10191000D21016C0002321F0AA2031F28B2D9CCECC
:10192000AA2039F2893349F42FEF37EE83E02150B2
:1019300030408040E1F700C000008B2D0E94C320A2
:1019400088EF8C0D843010F40E94941EDD20A9F1E4
:101950008091BF0180FD31C0F70112828595859588
:1019600085950E946E20C7010E9405078091BF01E6
:1019700085958595859529960FB6F894DEBF0FBE9F
:10198000CDBFDF91CF911F910F91FF90EF90DF902E
:10199000CF90BF90AF909F908F907F906F905F900F
:1019A0004F903F900C94622001319FE5190709F098
:1019B000AECB82E072CB69E261CD29960FB6F89486
:1019C000DEBF0FBECDBFDF91CF911F910F91FF9072
:1019D000EF90DF90CF90BF90AF909F908F907F90CF
:1019E0006F905F904F903F9008958295982F9373DA
:1019F00044E0949F900111248C7C86958695282B39
:101A0000822F8575880F2A7A2695822B08959091CA
:101A1000440292FF0DC0282F2871283019F4877FC7
:101A2000846006C0282F2471243011F48B7F8860D5
:101A300093FF0DC0282F2871283119F4877E846107
:101A400006C0282F2471243111F48B7E88612091E7
:101A5000450220FF0DC0382F3871383019F4877FC8
:101A6000816006C0382F3171313011F48E7F88606B
:101A700021FF0DC0282F2871283119F4877E81613C
:101A800006C0282F2171213111F48E7E886194FDCA
:101A9000877E0895F894E82FE295EF70F0E031A189
:101AA000282F2F7081E090E001C0880F2A95EAF777
:101AB000982F9095932391A392A1892B82A3789438
:101AC00008959F92AF92BF92CF92DF92EF92FF92D2
:101AD0000F931F93CF93DF93CDB7DEB729970FB640
:101AE000F894DEBF0FBECDBFAE014F5F5F4F7A01EE
:101AF00089E0DA011D928A95E9F702E511E099245F
:101B00009394CC24C394D12C5E01BAE0AB0EB11CEB
:101B1000F80180818F3F09F444C0F894E82FE295E2
:101B2000EF70F0E021A18F70A60102C0440F551F95
:101B30008A95E2F7CA01922F982B91A392A18095E2
:101B4000892382A3789400C04AE551E0F701392D3A
:101B50003095DA012D91AD012F3F99F0822F8295BA
:101B60008F7090E0DC0190968C9190E02F7002C015
:101B7000959587952A95E2F780FD03C08081892994
:101B800002C08081832380833196EA15FB0509F723
:101B9000F80180818F3F11F00E944A0DF0EAFA951A
:101BA000F1F7990C0F5F1F4F41E00A35140709F058
:101BB000AFCF49E050E0B70189E192E00E94C6232F
:101BC00011E0009709F410E0892B89F089E0F70112
:101BD000A9E1B2E001900D928A95E1F781E080934E
:101BE000E6010E94B41D9093E5018093E401809189
:101BF000E6018823F9F02091E4013091E5014FB727
:101C0000F8948091400290914102A0914202B091DB
:101C100043024FBF821B930B059760F0E9E1F2E0AE
:101C2000ACE2B2E081918D9352E0E232F507D1F758
:101C30001092E601812F29960FB6F894DEBF0FBEF1
:101C4000CDBFDF91CF911F910F91FF90EF90DF906B
:101C5000CF90BF90AF909F900895CF93DF9382383D
:101C6000910569F1B0F48133910509F46FC048F42E
:101C70008932910509F465C08A32910509F46BC077
:101C80008AC08533910509F457C089339105B9F0AD
:101C900082C0833E910571F138F4803E9105B1F028
:101CA000823E910511F177C0863E9105B9F1873EDC
:101CB0009105C9F1843E910509F06DC024C02091C1
:101CC000440220FD53C021FD51C065C080914402F3
:101CD00080FD46C08091450280FF48C0809144024B
:101CE00084FD3FC183EE90E03EC18091440282FFBB
:101CF0003AC0F4CF8091440282FD35C08091450204
:101D000080FD34C0EBCF8091450281FF35C08091CA
:101D1000440284FD26C187EE90E025C180914402F3
:101D200083FF27C0F4CF8091440283FD22C08091BD
:101D3000450281FD21C0EBCF8091440285FD1FC08B
:101D400021C08091440285FD1DC019C080914402CC
:101D500086FD1BC01DC08091440286FD19C015C0C0
:101D600089E390E000C182EE90E0FDC080EE90E05B
:101D7000FAC086EE90E0F7C084EE90E0F4C089E20D
:101D800090E0F1C085E390E0EEC08AE290E0EBC025
:101D900081E390E0E8C0811532E5930708F069C05F
:101DA000811541E5940728F0982F8827816F906A64
:101DB000DAC0883E910568F5803E910508F0D3C0F1
:101DC000883A9105B8F4853A910548F0855AE82F8C
:101DD000F0E0E35FFE4F808190E09064C4C081300A
:101DE000910509F4BBC008F4BCC08430910508F427
:101DF000B8C0B9C08F3B910508F0B3C0885AE82F2E
:101E0000F0E0EE0FFF1FE05FFE4F80819181946450
:101E1000AAC0811520E59207F0F09C0174E0369588
:101E200027957A95E1F7922F9370482F437021E020
:101E300030E002C0220F331F4A95E2F73C68392B8D
:101E40008F70982F9695969540E2949FC00111242B
:101E5000822B932B88C0811530E4930718F09F7074
:101E6000906A81C09C013A9521153F4108F47BC0DE
:101E700078C0EC01C11586E5D807E8F5C11525E560
:101E8000D20748F08C2F0E94070D8F7190E0982F99
:101E90008827906268C0C11534E5D30728F09C2FCD
:101EA0008827846F906A5FC0AE01437055272C2F3E
:101EB00026952695C115D34578F481E090E002C0BF
:101EC000880F991F4A95E2F740E2249F9001112460
:101ED000822B932B9C6847C081E090E002C0880F62
:101EE000991F4A95E2F740E2249F90011124822B2A
:101EF000932B9A6838C0C1152AE5D207F8F4C115AA
:101F000039E5D30790F08C2F8F700E94070D94E075
:101F1000D695C7959A95E1F7CF70D0E0DC2FCC2706
:101F2000D0699E01282BC9011EC0C11548E5D40700
:101F3000C0F09C2F8827806F906A15C0CE01905604
:101F40008115904270F48D2F8F710E94070D282FFC
:101F50002F71CE0199279062922B05C081E090E00D
:101F600002C080E090E0DF91CF910895CF9384E0AC
:101F700090E00E946B23C82F82E290E00E946B23C6
:101F80002C2F30E0A901582BCA01CF91089569EE9A
:101F90007EEF80E090E00E94972360E082E090E096
:101FA0000E94792360E083E090E00E947923109200
:101FB000E30160E084E090E00E94792360E082E247
:101FC00090E00E94792360E085E090E00E94792310
:101FD00060E086E090E00E9479236FEF87E090E078
:101FE0000E94792340E050E0BA0188E090E00E942E
:101FF0008B2360E08DE090E00E94792340E050E088
:10200000BA0188E190E00E948B2360E087E190E0D4
:102010000E94792340E050E0BA018CE190E00E94F8
:102020008B2360E070E080E290E00E94972340E024
:1020300050E0BA0188E190E00E948B2380E00E948A
:1020400025230E94432340E050E0BA018FE090E056
:102050000E948B2340E050E0BA0183E190E00C94B1
:102060008B238091E20181111092E2010895809505
:102070009091E10189238093E1010895EF92FF920D
:102080000F931F93CF939091E1018091E001982BE2
:10209000909367018091E2018823D9F0892B809386
:1020A000670180910001882331F08091440287FF0D
:1020B00002C08EE101C086E0E9E6F1E090E08150E7
:1020C00028F021912223D9F39F5FF9CF91110E942B
:1020D000311040E250E060EC71E087E691E00E9450
:1020E000C623892B09F458C080E2E7E6F1E0A0ECB2
:1020F000B1E001900D928A95E1F7E0913A02F091FA
:102100003B02309709F448C080910001882359F0C0
:102110008091440287FF07C0809167018093680126
:1021200086E0809367010280F381E02D87E691E0ED
:10213000099580913E0282FF2FC080FF04C08CE68B
:1021400092E00E94BB0507E611E0C8E086E6E82EB3
:1021500082E0F82E80913E0280FF0CC0F801808161
:102160001F928F93FF92EF920E9454060F900F9050
:102170000F900F90C1500F5F1F4FC111EBCF809197
:102180003E0280FF09C084E692E0CF911F910F913B
:10219000FF90EF900C94BB05CF911F910F91FF9092
:1021A000EF9008952091BF01809582238093BF0115
:1021B000982F977099F430E0482F082E000C550B9B
:1021C0002417350759F09091450292FD07C0859577
:1021D000859585950E9462201092BF010895CF9346
:1021E000DF93C0914502C2FB992790F9981719F126
:1021F000D82F80FBC2F9C09345026091440284E06D
:1022000090E00E9479236C2F82E290E00E94792373
:1022100082E00E94D21080913E0280FF0CC01F928B
:10222000DF938FE492E09F938F930E9454060F9068
:102230000F900F900F90DF91CF9108958091BE0184
:1022400090918D01891719F08F5F8770FBCF0895EA
:102250000F931F93CF93DF9380918C0182958F70A2
:1022600009F05DC080918901882309F458C08091EC
:10227000BE0110918D016091870170918801C0911C
:102280008A01D0918B0191E06F3F09F090E0292FF6
:1022900006E0811709F443C0209721F07F3F21F029
:1022A00030E003C031E001C0322F90E030FD34C097
:1022B000089FF001099FF00D1124DF01A257BE4FC6
:1022C00011963C911197371327C03C91361324C0C7
:1022D00012963C91129731111FC013964D915C914B
:1022E00014974C1B5D0B483C5105B0F480918C0158
:1022F0008F70806180938C01ED56FE4F80818F70CE
:102300008061808387E891E00E940507DF91CF918B
:102310001F910F910C941E1101968770BACFDF9117
:10232000CF911F910F910895CF93DF93EC010E94FD
:10233000D81FBE010E94A71F0E942D0EDF91CF91D2
:1023400008959F92AF92BF92CF92DF92EF92FF9249
:102350000F931F93CF93DF93CDB7DEB761970FB67F
:10236000F894DEBF0FBECDBF8C0185E0F801DE0121
:102370001D9601900D928A95E1F7F801E280909107
:1023800087016091880140918A0150918B0141152C
:10239000510531F06F3F31F481E09F3F19F403C0E4
:1023A00081E001C080E0F82FF1709F2E80FD1AC1FE
:1023B000F80130812181C380D48087E8A82E81E094
:1023C000B82EF0908901F601E41BF50BFF2009F40B
:1023D000C6C080918C01E83CF10508F091C0482FFF
:1023E000407F09F050C0621311C093130FC0FE2C40
:1023F000E1100CC08F70806180938C01C5010E9438
:10240000050780918C01F801858329C1CD2831F021
:102410002F3F31F481E03F3F19F403C081E001C058
:1024200080E080FD03C081E08E2502C080E090E066
:10243000F82FF170FF2E80FF1CC08091BE014091EB
:102440008D0156E0841709F4E8C090E0589FF00130
:10245000599FF00D1124E257FE4F6181261306C0EB
:102460006081631303C06281E61203C00196877026
:10247000E9CFFE2CEE2009F4F2C080918C0181603E
:1024800080938C0149C0621306C0931304C0E1100D
:1024900002C0F80186C0C8010E947D20882351F146
:1024A000EE2041F120918C01822F82958F7090E077
:1024B000029774F0809187019091880198878F83AB
:1024C0001986DB86CA862C87CE0107960E940507EF
:1024D00086E0F801A7E8B1E001900D928A95E1F756
:1024E0000E9428110AC06217C9F0C8010E947D200D
:1024F00081111EC0C8010E940507FF24F394AFC0DC
:10250000482F407F81F787E891E00E94050786E029
:10251000F50111928A95E9F7F12CA1C09313E5CF4B
:10252000E110E3CFF8018583C8010E94050754C07C
:10253000EE2001F320918C01822F82958F7090E024
:10254000029734F280918701909188019A83898360
:102550001B82DD82CC822E83CE010196B7CFE83C70
:10256000F105D0F5FE2CEE2029F2621327C093135B
:1025700025C020918C0120FD18C0822F82958F707C
:10258000482F50E04115510581F0F80125834F3067
:10259000510541F08F5F982F9295907F822F8F7019
:1025A000892B8583C8010E94050786E0F801A7E80A
:1025B000B1E001900D928A95E1F751C0C8010E94E7
:1025C0007D20811185CF80918C01816080938C0169
:1025D000C8010E94050743C086E0F50111928A9563
:1025E000E9F73DC0EE2009F485CFC8010E947D20A7
:1025F000F82E882309F47ECF86E0F801A7E8B1E041
:1026000001900D928A95E1F7809187019091880160
:102610000E9494110E94281122C03D872E878D852B
:102620009E850E949411292F22952F70223028F424
:102630009F7039F0811105C00BC0243028F49F70C1
:1026400049F4805E883020F0C8010E9405079F2C65
:10265000F92C05C0F8019581907F99F7F9CF8F2D5E
:1026600061960FB6F894DEBF0FBECDBFDF91CF915C
:102670001F910F91FF90EF90DF90CF90BF90AF90A0
:102680009F90089580911802982F9670963011F4BB
:10269000886001C0877F0C945E201F93CF93DF93E7
:1026A000CDB7DEB7AA970FB6F894DEBF0FBECDBF89
:1026B000E0E1F2E08091F100819342E0E831F4073B
:1026C000C9F780911102833009F463C030F481307E
:1026D00071F0823009F49DC0B4C08A3009F489C019
:1026E0008B3009F46EC0893009F0ABC020C08091F6
:1026F0001002813A09F0A5C08091E800877F80939D
:10270000E8008091140290911502892B21F460E277
:102710008CEE91E003C060E080E090E070E00E9409
:10272000001D8091E8008B778093E8008AC080913B
:102730001002813209F085C0809114029091150237
:10274000009719F0029709F07CC08091E800877F1C
:102750008093E8008091E80082FD05C080910E0220
:102760008111F8CF6EC02091F3008091F20090E0CB
:10277000922B029731F48091F100813011F0863074
:1027800021F48091F1008093EB018091E8008B7738
:1027900054C080911002813A09F053C08091140214
:1027A00090911502892B09F04CC08091E800877F39
:1027B0008093E8008091E80080FFFCCF80910001C9
:1027C00037C0809110028132E1F58091140290911E
:1027D0001502892BB1F58091E800877F8093E8008E
:1027E0000E94AC1C80911202809300010E949D20E7
:1027F00028C080911002813221F58091E800877F06
:102800008093E8000E94AC1C809113028093EA013F
:1028100018C080911002813AA1F48091E800877F6E
:102820008093E8008091E80080FFFCCF8091EA016E
:102830008093F1008091E8008E778093E8000E94F9
:10284000AC1C8091E80083FFE5C18091100290915B
:102850001102492F50E04A30510508F0DBC1FA015E
:10286000EE59FF4F0C94B923803821F0823809F0DB
:10287000D1C108C080910C0290910D02992389F07A
:1028800082600FC0809114028F70873008F0C2C13F
:102890008093E9008091EB0085FB882780F91092F6
:1028A000E9009091E800977F9093E8008093F10011
:1028B0001092F10071C1282F2D7F09F0ABC1882340
:1028C00019F0823061F0A6C180911202813009F0C6
:1028D000A1C1933009F080E080930D022EC0809159
:1028E000120281112AC0809114028F702FEF280FDD
:1028F000263008F08FC18093E9002091EB0020FF83
:102900001CC0933021F48091EB00806214C0909140
:10291000EB0090619093EB0021E030E0A90102C050
:10292000440F551F8A95E2F74093EA001092EA009F
:102930008091EB0088608093EB001092E900809119
:10294000E800877F8093E8000E94AC1C63C181117E
:1029500061C1109112021F778091E3008078812B72
:102960008093E3008091E800877F8093E8000E94D5
:10297000AC1C8091E80080FFFCCF8091E300806870
:102980008093E300111102C082E001C083E08093D4
:102990000E0240C18058823008F03CC120911202E2
:1029A000309113022C3D53E0350779F583E08A839B
:1029B0008AE289834FB7F894DE01139620E03EE067
:1029C00051E2E32FF0E050935700E49120FF03C061
:1029D000E295EF703F5FEF708E2F90E0EA3010F0DD
:1029E000C79601C0C0968D939D932F5F243149F700
:1029F0004FBF8091E800877F8093E8006AE270E033
:102A0000CE0101960E94001DB5C0809114029091E4
:102A10001502432F552743305105A9F068F4413082
:102A2000510509F406C14230510509F0F3C08BE7A6
:102A300090E0E3E8F3E04BC04132510529F1423226
:102A4000510589F1E7C0C901992781309105A1F0AD
:102A500058F0029709F0DEC0E0E1F4E0E4918E2F37
:102A600090E0E0E1F4E030C0ECE3F4E0E4918E2F9C
:102A700090E0ECE3F4E028C0E0E2F4E0E4918E2F93
:102A800090E0E0E2F4E020C08430910508F0C2C09C
:102A9000880F991FFC01E65BFE4F0190F081E02D4D
:102AA00089E090E014C08430910508F0B3C0FC01C7
:102AB000EE0FFF1FEE5BFE4F0190F081E02DDC0179
:102AC000A25CBE4F8C9190E0009709F4A3C02091C6
:102AD000E800277F2093E80020911602309117022A
:102AE0008217930708F49C0140E02115310589F114
:102AF00080910E02882309F43DC08530D9F1809180
:102B0000E80083FD37C08091E80082FD2FC08091EE
:102B1000E80080FFEACF4091F3008091F20090E05E
:102B2000942B2115310559F08830910540F44491DA
:102B30004093F1003196215031090196F2CF41E0E6
:102B4000089709F040E08091E8008E778093E800D4
:102B5000CCCF4111CDCF0AC080910E02882351F015
:102B6000853041F08091E80083FD04C08091E80049
:102B700082FFF2CF8091E8008B778093E8004AC013
:102B8000803809F047C08091E800877F8093E80093
:102B900080910F028093F1008091E8008E77D2CE71
:102BA000811138C0809112029091130299270297E7
:102BB0008CF58091E800877F8093E80010911202E5
:102BC00010930F020E94AC1C111106C08091E3000B
:102BD00087FD02C081E001C084E080930E0242E0E4
:102BE00061EC81E00E94CB1C42E261EC84E00E9437
:102BF000CB1C42E261EC82E00E94CB1C42E260EC22
:102C000083E00E94CB1C42E261EC85E00E94CB1C79
:102C100080910E028091E80083FF10C08091E8004F
:102C2000877F8093E8008091EB0080628093EB00C7
:102C300005C082E190E0EEEFF3E049CFAA960FB62F
:102C4000F894DEBF0FBECDBFDF91CF911F910895E5
:102C50001F920F920FB60F9211242F933F934F9311
:102C60005F936F937F938F939F93AF93BF93CF9314
:102C7000DF93EF93FF93C091E900CF708091EC0058
:102C8000D82FD17080FDD0E81092E9008091F0003B
:102C9000877F8093F00078940E944D131092E90092
:102CA0008091F00088608093F000CD2BCF70C093AE
:102CB000E900FF91EF91DF91CF91BF91AF919F918B
:102CC0008F917F916F915F914F913F912F910F90D5
:102CD0000FBE0F901F901895E8EDF0E080818E7F79
:102CE00080831092E2001092DA001092E100A0EED0
:102CF000B0E08C9181608C9380818F77808319BC48
:102D0000A7EDB0E08C918E7F8C9380818F7E808345
:102D10001092E9010895CF92DF92EF92FF920F9304
:102D20001F93CF93DF93C8EDD0E088818F7E888397
:102D3000E7EDF0E080818160808384E082BF81E004
:102D40008093E90188818E7F888302EE10E0F8018C
:102D500010821092DA0081EEC82ED12CF60110827A
:102D600088818F77888388818068888388818F7D38
:102D7000888319BC10920E0210920F0210920D025D
:102D800010920C0290EEE92EF12CF70180818B7FDE
:102D9000808388818160888342E060E080E00E94D7
:102DA000CB1CF60180818E7F8083F8018081816059
:102DB0008083808188608083F70180818E7F80831B
:102DC000888180618883DF91CF911F910F91FF905F
:102DD000EF90DF90CF9008951F920F920FB60F9251
:102DE00011242F933F934F935F936F937F938F9310
:102DF0009F93AF93BF93EF93FF938091E10082FF86
:102E000049C08091E20082FF45C08091E1008B7F44
:102E10008093E1002091E8012F5F822F62E30E94FE
:102E2000AD23992319F02093E80134C01092E801F2
:102E30008091E701882371F180910E02843041F581
:102E40008091E9008F702091EC00922F917020FD0D
:102E500090E8892B95E09093E9009091EB0090FF2A
:102E600014C09091EE0097FF10C09091E80095FF7C
:102E700003C01092F100F9CF9091E80090FF05C0D7
:102E80009091E8009E779093E8008F708093E9001E
:102E90001092E7018091DA0080FF32C08091D80063
:102EA00080FF2EC08091DA008E7F8093DA008091BF
:102EB000D90080FF1CC080E189BD82E189BD09B4D1
:102EC00000FEFDCF81E080930E028FE693E00E942A
:102ED000BB058091E901811113C00E946C160E940C
:102EE0008B168091E20084608093E20009C019BCD7
:102EF00010920E0283E793E00E94BB051092E90155
:102F00008091E10080FF1BC08091E20080FF17C02C
:102F10008091E2008E7F8093E2008091E2008061E8
:102F20008093E2008091D80080628093D80019BC21
:102F300085E080930E0287E793E00E94BB058091B5
:102F4000E10084FF34C08091E20084FF30C080E162
:102F500089BD82E189BD09B400FEFDCF8091D80012
:102F60008F7D8093D8008091E1008F7E8093E10077
:102F70008091E2008F7E8093E2008091E200816088
:102F80008093E20080910F02882311F084E007C053
:102F90008091E30087FD02C081E001C083E080935F
:102FA0000E028BE793E00E94BB0580910E02809198
:102FB000E10083FF2BC08091E20083FF27C0809156
:102FC000E100877F8093E10082E080930E021092FF
:102FD0000F028091E1008E7F8093E1008091E200FA
:102FE0008E7F8093E2008091E20080618093E20016
:102FF00042E060E080E00E94CB1C8091F00088609D
:103000008093F0008FE793E00E94BB05FF91EF9162
:10301000BF91AF919F918F917F916F915F914F91F0
:103020003F912F910F900FBE0F901F9018952091F8
:10303000E4003091E50095E64091EC00842F81702A
:1030400040FF23C08091E80080FD1DC080910E02EA
:10305000882399F0853099F08091EB0085FD11C0AF
:103060004091E4005091E5002417350729F3915071
:1030700011F09A01E1CF84E0089582E0089583E0A1
:10308000089581E0089580E008954091E80042FFAE
:10309000DDCF0895EF92FF920F931F93CF93DF93AD
:1030A0007C018B010E941718811119C0E7010115DD
:1030B0001105A1F08091E80085FD0AC08091E8002B
:1030C0008E778093E8000E941718882381F307C049
:1030D00089918093F10001501109E9CF80E0DF91DF
:1030E000CF911F910F91FF90EF900895CF93DF93B1
:1030F000CDB7DEB7AD970FB6F894DEBF0FBECDBF2C
:1031000084B7877F84BF0FB6F894A895809160003C
:10311000886180936000109260000FBE90E080E8AC
:103120000FB6F89480936100909361000FBE85B74D
:10313000806885BF85B7806885BF86ED9BE19093E9
:103140006501809364010E946C160E948B16809129
:10315000E20084608093E200789480910E028823DC
:10316000A1F01091E9001F709091EC00892F8170FF
:1031700090FD80E8182B1092E9008091E80083FD13
:103180000E944D131F701093E90082E084BD93E00C
:1031900095BD9AEF97BD80936E000E9452238111D6
:1031A00002C00E94432302E511E07AE5E72E71E0B8
:1031B000F72ED8018D918D018F3F11F00E944A0D9D
:1031C000E016F106B1F70AE511E063E6E62E61E0EC
:1031D000F62EF80181918F018F3F11F00E944A0D68
:1031E000E016F106B1F789E0ECE2F2E0DF01282F0A
:1031F0001D922A95E9F7E9E1F2E0DF011D928A9537
:10320000E9F780E090E00E947323893E9E4F21F40D
:103210000E945223811102C00E94C70F82E090E0F9
:103220000E946B2380933E020E94B60F909345024A
:10323000809344020E94610DEFEFF6E721E0E15038
:10324000F0402040E1F700C000000E94610D809135
:103250002C0280FF08C06FEF7FEF80E090E00E94BB
:1032600097230E945E1D83E090E00E946B230E94E2
:10327000792081E091E090933B0280933A024EE402
:10328000242E44E0342E56E4452E54E0552E8091F1
:103290000E02853009F04AC080E494E00E94BB052C
:1032A00030E4F32E00E112E180910E02853009F046
:1032B00039C080910E02843019F110923F0288E1EA
:1032C00090E00FB6F894A895809360000FBEF0923E
:1032D000600083B7817F846083BF83B7816083BFD1
:1032E0007894889583B78E7F83BF0FB6F894A8959E
:1032F00080916000886180936000109260000FBE32
:1033000080910D02882309F4CFCF0E94610DECE279
:10331000F2E08191811126C2A5E3B2E0AE17BF07AA
:10332000C1F7C2CF0E949D200E94941E0E94610D91
:1033300081110E94A81D9CE2692E92E0792E22E262
:10334000A22E22E0B22E630100E010E00DA7F601EC
:1033500021916F012CA7D5018D915D0128272BA705
:10336000211116C00F5F1F4F0930110579F78FEF3C
:103370008EA38FA318A60E94B41D8160782F9AA7F0
:1033800089A74EA15FA168A58AA50E945D065BC0C2
:1033900080913E0281FD04C080E0FF24F39435C09B
:1033A00083E594E00E94BB058CE2882E82E0982E93
:1033B000E12CF12CFF92EF923F922F920E94540643
:1033C0008BE494E00E94BB05F40181914F010E94BF
:1033D000F50C1F928F935F924F920E94540684E4E3
:1033E00094E00E94BB05FFEFEF1AFF0A0FB6F894B6
:1033F000DEBF0FBECDBF99E0E916F104D9F6CCCF00
:103400008F5FFF0C883009F4ADCF9BA59F21C1F3DE
:1034100089A3ADA5AAA39CA59F2181E009F480E022
:103420008BA30E94B41D8160782F9DA38CA349A11A
:103430005AA16BA18DA10E945D06F801EE5DFD4FC2
:103440008081F826F0820E94941E182F80912B0212
:10345000181721F110932B0280913E0282FF1EC0AB
:1034600080FF04C089E694E00E94BB0580913E0283
:1034700080FF0CC01F921F9384E694E09F938F936C
:103480000E9454060F900F900F900F9080913E0273
:1034900080FF04C082E694E00E94BB0580910E028A
:1034A000843009F0F4CE83E08093E9008091E80055
:1034B00082FFEDCE8091E80085FF21C00E941718A1
:1034C00081111BC000E210E0FE0131967F0108C0AF
:1034D0008091F100D7018D937D010150110969F0B0
:1034E0008091E80085FDF4CF8091E8008B77809390
:1034F000E8000E941718882399F391E001C090E03A
:103500008091E8008B778093E800992309F4BFCE7F
:10351000E9818E2F90E0FC013197E331F10508F04D
:10352000F8C0E459FF4F0C94B9231A8289E058C0BF
:103530008A81823009F42CC1833051F0813009F046
:10354000E8C00E94A81D9B838C837D836E83E3C0AB
:10355000FE013396CE010C96D3012D913D012193AE
:103560008E179F07C9F7D7C08A81823009F0D1C072
:103570006B817C818D819E810E94BF230E942123CB
:10358000CAC04C816B818A810E94811F9D8307C1C3
:10359000ED80FE80FE24EF24FE248C810B819A8135
:1035A000B0E10B9F80011124E0E99E9F000D111DE9
:1035B0001124080F111D080F111D6F2DC8018796CA
:1035C0000E9479236E2DC80188960E947923A3C09A
:1035D0000E942F1FA0C080E154C081E08A8389E946
:1035E0008B8399C00A811B81102701271027CC806B
:1035F000D12CCE0101965C017C01C80189599D4FF7
:1036000097012A193B092C153D0508F084C009399A
:10361000A1E01A0728F40E946B23F701848303C0FA
:10362000D70114961C920F5F1F4FBFEFEB1AFB0AD6
:10363000E4CF0A811B81102701271027CC80D12CD1
:10364000FE0131965F017F01C80189599D4F9701A5
:103650002A193B092C153D0508F05DC00939F1E038
:103660001F0728F4D70114966C910E9479230F5FED
:103670001F4FBFEFEB1AFB0AE7CF0E941F1F4BC083
:1036800084E08A8348C00A811B8110270127102704
:10369000CC80D12CFE0131965F017F01C801879655
:1036A00097012A193B092C153D05A8F50034F2E0D5
:1036B0001F0730F40E946B23D70114968C9302C02D
:1036C000F70114820F5F1F4FFFEFEF1AFF0AE6CFDB
:1036D0000A811B81102701271027CC80D12CCE0115
:1036E00001965C017C01C801879697012A193B0964
:1036F0002C153D0580F40034A2E01A0720F4F701F0
:1037000064810E9479230F5F1F4FFFEFEF1AFF0ABA
:10371000EACF8FEF898380910E02843009F0B7CD14
:103720001091E9001F709091EC00892F817090FD3D
:1037300080E8182B82E08093E9008091E80080FF08
:103740000DC040E050E060E270E0CE0101960E94C2
:103750004A188091E8008E778093E8001F701093DC
:10376000E90095CD09BD19BD09B400FEFDCF8091DA
:10377000D8008F7D8093D8008091E0008260809394
:10378000E0008091E00081FDFCCF0E949D208CCD67
:1037900086E290E00E946B231B821C821D828E8336
:1037A000BACF089508958091EB0108959FB7F894DA
:1037B0001092E7019FBF90910E02943009F057C01C
:1037C0009091E9009F703091EC00232F217030FD23
:1037D00020E8922B25E02093E9002091EB0020FFC8
:1037E00043C02091EE0027FF3FC0209149022223D1
:1037F00021F02091E80025FF37C01092490226E011
:103800003091E80035FD15C030910E02343061F57D
:103810003091EB0035FD28C0215021F481E08093E8
:10382000490222C0EFE9FFE03197F1F700C0000044
:10383000E7CF8093F1008091E80085FD0AC0809178
:10384000E80080FFFCCF8091E8008E778093E8004D
:1038500006C08FB7F89421E02093E7018FBF9F70D7
:103860009093E90080E008959F709093E9008FEFB6
:1038700008958093460270934802609347028091B6
:103880000E028430F9F48093E9008FEF9091E80004
:10389000815095FD06C095ED9A95F1F700008111D4
:1038A000F5CF8091E80085FF0DC040E050E063E077
:1038B00070E086E492E00E944A188091E8008E77DA
:1038C0008093E8000895BC0184E00C94391CBC018D
:1038D00083E00C94391CCF93DF93209100012223C5
:1038E00039F02091440227FF03C060E224E002C0C7
:1038F00068E021E02093E9002FEF3091E8002150AB
:1039000035FD06C035ED3A95F1F700002111F5CFF0
:103910002091E80025FF1DC0EC018091000181117C
:1039200005C040E050E068E070E003C070E040E0B7
:1039300050E0CE010E944A188091E8008E77809373
:10394000E80080E2FE01ACEEB1E001900D928A95B4
:10395000E1F7DF91CF9108958091100287FF11C0A8
:103960008091E80082FD05C080910E028111F8CFA0
:1039700011C08091E8008B770BC080910E028823E4
:1039800049F08091E80080FFF8CF8091E8008E77C1
:103990008093E8000895982F973068F59093E90098
:1039A000981739F07091EC002091ED005091F000E3
:1039B00003C0242F762F50E021FD02C09F5FECCF83
:1039C0003091EB003E7F3093EB003091ED003D7F76
:1039D0003093ED003091EB0031603093EB00709349
:1039E000EC002093ED005093F0002091EE0027FDB5
:1039F000E5CF80E008958F708093E90081E008951D
:103A000020911602309117022617370748F06115EA
:103A1000710539F42091E8002E772093E80001C069
:103A2000B901FC0120E06115710579F180910E0268
:103A30008823F1F18530F1F18091E80083FD3CC0ED
:103A40008091E80082FD2EC08091E80080FFEBCFDE
:103A50002091F3008091F20090E0922B61157105A6
:103A600051F08830910538F421912093F100615094
:103A700071090196F3CF21E0089709F020E08091C9
:103A8000E8008E778093E800CECF2111CFCF0AC017
:103A900080910E02882361F0853061F08091E8000A
:103AA00083FD0AC08091E80082FFF2CF80E0089594
:103AB00082E0089583E0089581E0089581E0809395
:103AC000E00080E28093D8001092C9008FE19EE46C
:103AD0000197F1F700C0000087E090EBDC018093D4
:103AE000660290936702A0936802B09369029CE01B
:103AF00088E10FB6F894A895809360000FBE90936C
:103B00006000FFCF78941F920F920FB60F9211248E
:103B10008F939F93AF93BF93809140029091410206
:103B2000A0914202B09143020196A11DB11D809364
:103B3000400290934102A0934202B0934302BF918E
:103B4000AF919F918F910F900FBE0F901F9018957E
:103B50002FB7F89460914002709141028091420227
:103B6000909143022FBF08952FB7F894809140029F
:103B700090914102A0914202B09143022FBF08955B
:103B80001F920F920FB60F9211248F939F93AF93B2
:103B9000BF9380913F02811113C0809140029091A8
:103BA0004102A0914202B09143024196A11DB11D74
:103BB0008093400290934102A0934202B09343024B
:103BC000BF91AF919F918F910F900FBE0F901F905B
:103BD000189520910001222351F12091440227FFE2
:103BE00026C0262F2695269526952E3178F4FC01A1
:103BF000E20FF11D677081E090E001C0880F6A95C7
:103C0000EAF78095928189238283089580913E020C
:103C100080FF17C01F926F9387EB95E09F938F9360
:103C20000E9454060F900F900F900F900895FC0182
:103C300006962281621301C012823196E817F907B5
:103C4000C1F7089520910001222349F120914402F7
:103C500027FF25C0262F2695269526952E3170F410
:103C6000FC01E20FF11D677081E090E001C0880F58
:103C70006A95EAF79281892B8283089580913E02AA
:103C800080FF25C01F926F9389E995E09F938F93E2
:103C90000E9454060F900F900F900F900895FC0112
:103CA00032962FEF30E04191641789F02F3F19F4DD
:103CB000411101C0232F3F5F3630A9F72F3F39F064
:103CC000FC01E20FF11D27FDFA9562830895089526
:103CD00020913C0230913D022817390771F09093F2
:103CE0003D0280933C02E0913A02F0913B02309712
:103CF00021F00084F185E02D099408952091380287
:103D0000309139022817390771F090933902809366
:103D10003802E0913A02F0913B02309721F00680A0
:103D2000F781E02D09940895E0913A02F0913B0269
:103D3000309721F00190F081E02D099480E0089502
:103D40000F931F93CF93DF93C42F122FFC01828117
:103D50008823C9F0409337020E94B41D9093360225
:103D60008093350280E28C0F883008F063C0C77002
:103D700081E001C0880FCA95EAF7DF91CF911F91CA
:103D80000F910C94B9208091370248133CC02091C8
:103D90003502309136024FB7F894809140029091ED
:103DA0004102A0914202B09143024FBF821B930B8C
:103DB000883C910540F5D0E2D10FC117B9F080E2FF
:103DC0008C0F883040F4C77081E001C0880FCA951D
:103DD000EAF70E94B220D83030F581E0912F977039
:103DE00001C0880F9A95EAF70E94B920802F0E949F
:103DF0009821D830F8F4212F277081E001C0880F76
:103E00002A95EAF70AC080E28C0F883098F4C770D0
:103E100081E001C0880FCA95EAF7DF91CF911F9129
:103E20000F910C94B220802FDF91CF911F910F91B1
:103E30000C949821DF91CF911F910F910895CF930A
:103E4000DF93C7E6D2E060E0CE010E94792321969D
:103E5000C11584E0D807B9F7DF91CF9108956F922B
:103E60007F928F929F92AF92BF92CF92DF92EF920A
:103E7000FF920F931F93CF93DF93C0E0D0E000E059
:103E800010E03E0187E2680E711C6301C00ED11E76
:103E9000E12CF12C4E01800E911EF401EE0DFF1D60
:103EA000E758FB4FA590B4906B2DC6010E94792373
:103EB0006A2DC60101960E94792382E0E80EF11C6A
:103EC00082E0C80ED11C80E1E816F10431F7005FF2
:103ED0001F4F00391105C9F6C057DF4FC03482E0CB
:103EE000D80769F6DF91CF911F910F91FF90EF9066
:103EF000DF90CF90BF90AF909F908F907F906F900A
:103F000008950F931F93CF93DF93C42FD0E0CC0F6E
:103F1000DD1F20E1629FC00DD11D112430E9839F78
:103F2000C00DD11D1124CE0187960E946B23082F4E
:103F300010E0102F0027CE0188960E946B23980175
:103F4000282BC901DF91CF911F910F910895462F22
:103F5000843038F4793028F4683018F4672F0C94E2
:103F6000811F80E090E00895CF93C82F1F928F9318
:103F700084E794E09F938F930E94540681E001C0F0
:103F8000880FCA95EAF70E9479200F900F900F9042
:103F90000F90CF910C949D2080E090E00E947E1EB7
:103FA00080E090E00E94681E1092E0010C943E10A8
:103FB000CF92DF92FF920F931F93CF93DF936C0109
:103FC000009118028091E301082BC7E0D0E010E0D7
:103FD000C8010C2E02C0959587950A94E2F780FDE2
:103FE00004C02197A8F7F12C09C0FC2EB6018C2F34
:103FF0000E94A71F0E942D0E019799F38F2DDF912C
:10400000CF911F910F91FF90DF90CF90089528E0FE
:10401000929F800D1124682F669566956695982F5E
:10402000977083E0689FB001112440E050E080E089
:10403000FB01E40FF51FE65BFD4F208130E0092E08
:1040400002C0369527950A94E2F721703327042E93
:1040500001C0220F0A94EAF7822B4F5F5F4F433073
:10406000510531F7089528E0929F800D1124E82F23
:10407000E695E695E695877051E001C0550F8A9563
:10408000EAF783E0E89FF0011124E65BFD4F20E0B2
:1040900030E070E04081CB01022E02C096958795FA
:1040A0000A94E2F781708195842785238427819380
:1040B0002F5F3F4F2330310569F708958093180231
:1040C0000C94CC1F21E030E001C0220F8A95EAF762
:1040D00020958091180282230C945E2021E030E02C
:1040E00001C0220F8A95EAF780911802822B0C9466
:1040F0005E208093E3010C94CC1FFC0180819181B0
:104100000E94941192959F70963079F010F492501D
:1041100001C09A50923068F4803F69F018F4883EEC
:1041200040F409C0843F29F406C0883E20F0813F56
:1041300011F080E0089581E008951092E1018091EE
:104140000001882331F08091440287FF02C08EE194
:1041500001C086E0E9E6F1E0DF011D928A95E9F70A
:104160000C94CC1F882321F00E9437100C943E1031
:104170000895882339F09091E101892B8093E10122
:104180000C943E100895882339F1682F8CEF860F28
:10419000813A28F487E691E00E94E91D0CC080E294
:1041A000860F883050F4677081E001C0880F6A95EF
:1041B000EAF70E9437100C943E108BE5860F83308F
:1041C00020F480E090E00C947E1E685A673120F461
:1041D00080E090E00C94681E0895CF93882309F442
:1041E000A5C09CEF980F913AB0F5C82F8091650259
:1041F000882319F0813051F02BC08091E101823287
:1042000009F05CC08C2F0E94B62156C08091E1015C
:104210008232C1F3C43191F018F4CB3029F011C0CF
:10422000C93261F0C83369F488ED98E00E94BB059B
:1042300087ED95E00E94BB0581E008C01092650201
:1042400004C085ED95E00E94BB0580E0817034C01C
:104250001092650233C090E2980F983090F4877006
:1042600021E030E0A90102C0440F551F8A95E2F712
:10427000CA019091E101892B8093E101CF910C94C7
:104280003E10EBE5E80FE33040F4F0E0E35FFE4F73
:10429000808190E0CF910C947E1E885A873108F07F
:1042A00045C0E82FF0E0EE0FFF1FE05FFE4F80817A
:1042B0009181CF910C94681E811138C080910001CA
:1042C0008823E1F08091440287FF18C0EC2FE69527
:1042D000E695E695F0E0E959FE4F8281282F30E01F
:1042E0004C2F477081E090E002C0880F991F4A95DB
:1042F000E2F782239323892B61F412C0E9E6F1E00F
:104300008FE691E02191C21721F08E179F07D1F718
:1043100007C06C2F87E691E00E94E91D0E943E10C5
:104320006C2F87E691E00E94221EA8CFCF910895BE
:104330001F93CF93DF93182F893319F0C0E0D0E09B
:1043400002C0C0E5D0E0812F0E94ED20209741F00F
:104350008FE99FE00197F1F700C000002197F6CFA9
:10436000812FDF91CF911F910C94C320DF92EF92A8
:10437000FF920F931F93CF93DF93482F50E0FA01E2
:104380003597EF33F10508F04EC1E158FF4F0C941B
:10439000B92383E090E00E946B231F928F9389E002
:1043A00097E09F938F930E94540682E090E00E94D2
:1043B0006B2383FB992790F91F929F9382FB992788
:1043C00090F91F929F9381FB992790F91F929F93D9
:1043D000982F91701F929F931F928F9380EC96E07D
:1043E0009F938F930E9454060E94B60F87FB22274B
:1043F00020F91F922F9386FB222720F91F922F93DB
:1044000085FB222720F91F922F9384FB222720F976
:104410001F922F9383FB222720F91F922F9382FB59
:10442000222720F91F922F9391FB222720F91F9218
:104430002F93292F21701F922F9381FB222720F980
:104440001F922F93282F21701F922F939F938F934A
:104450008BED95E09F938F930E9454068DB79EB786
:1044600088960FB6F8949EBF0FBE8DBF06C088ED2C
:104470009AE00E94BB050E94C70FC1E0D9C086E246
:1044800097E0C6C080913E02817F8E7F80933E027E
:1044900088ED98E00E94BB0584ED9AE00E94BB0580
:1044A00081E080936502E9CF88EB9AE00E94BB052A
:1044B0000E949D209FEF24E38CE09150204080409B
:1044C000E1F700C000000E945E1DD7CF80913E0240
:1044D000C82FC095C170C0FB80F980933E02CC23E9
:1044E00019F08CEA9AE08FC08FE99AE00E94BB0530
:1044F00080913E02897F877F80933E02BECF90915C
:104500003E0291FBCC27C0F981E0C827892FC0FB70
:1045100081F980933E02CC2319F082E99AE027C00A
:1045200084E89AE075C090913E0292FBCC27C0F9D6
:1045300081E0C827892FC0FB82F980933E02CC23FB
:1045400019F085E79AE013C085E69AE061C0909182
:104550003E0293FBCC27C0F981E0C827892FC0FB1E
:1045600083F980933E02CC2351F089E59AE00E94C2
:10457000BB0580913E02816080933E0259C08CE46D
:104580009AE046C083EF98E043C00E94A81D062F22
:10459000F72EE82ED92EC0914402C7FBCC27C0F9D4
:1045A0001091EA01D09100010E94941EDF92EF92D7
:1045B000FF920F931F92CF931F921F931F92DF932F
:1045C0001F928F9381EB99E09F938F930E945406E3
:1045D0008DB79EB70E960FB6F8949EBF0FBE8DBFD7
:1045E0004CCF0E949D209091440297FBCC27C0F9AC
:1045F00081E0C827892FC0FB87F980934402CC2330
:1046000029F082E49AE00E94BB0512C087E39AE099
:104610000E94BB0532CF895303C08D5101C080E099
:104620000E94B41F2ACF85E39AE00E94BB05C0E038
:104630008C2FDF91CF911F910F91FF90EF90DF9022
:10464000089586E290E00C947923CF93C82F8111CE
:1046500002C06FEF01C062E283E290E00E94792322
:10466000C11102C06FEF01C064E084E290E00E94DB
:104670007923C11102C06FEF01C061E085E290E0D3
:10468000CF910C94792380E00E94252360E070E0B4
:10469000CB010E9421230E942F1F0E941F1F81E037
:1046A0000C94252383E290E00E946B23823281F4F4
:1046B00084E290E00E946B23843051F485E290E024
:1046C0000E946B2391E0813009F090E0892F01C0B6
:1046D00080E081700895F999FECF92BD81BDF89A6E
:1046E000992780B50895A8E1B0E042E050E00C942D
:1046F0009F23262FF999FECF92BD81BDF89A01978D
:1047000000B4021639F01FBA20BD0FB6F894FA9A19
:10471000F99A0FBE08950396272F0E947A230E94CC
:104720007923252F0E947A23242F0C947A23019633
:10473000272F0E947A230C947923DC01CB01FC0102
:10474000F999FECF06C0F2BDE1BDF89A319600B4EA
:104750000D9241505040B8F70895991B79E004C07C
:10476000991F961708F0961B881F7A95C9F78095B0
:104770000895EE0FFF1F0590F491E02D099469272D
:10478000962769277827872778270895FB01DC017A
:1047900004C08D910190801921F441505040C8F718
:0A47A000881B990B0895F894FFCFD1
:1047AA0001D31B6B1CD21B671C631CD11B81828328
:1047BA00E200E900EA00B500B600B700CD008301C7
:1047CA00CC008A01920194012102230224022502CB
:1047DA00260227022A02B300B4006F0070004022AA
:1047EA006D222F030D03A0027E029503AE03CE03B2
:1047FA00E70332363331F7F6F5F435913490C6943F
:04480A00976692001B
:00000001FF
