:100000000C94C4030C94C82C0C94FC030C94FC03B7
:100010000C94FC030C94FC030C94FC030C94FC0364
:100020000C94FC030C94FC030C944B1B0C94871A4B
:100030000C94D91F0C94FC030C94FC030C94FC034B
:100040000C94FC030C94FC030C94FC030C94FC0334
:100050000C94FC030C948C1F0C94FC030C94FC0378
:100060000C94FC030C94FC030C94FC030C94FC0314
:100070000C94FC030C94FC030C94FC030C94FC0304
:100080000C94FC030C94FC030C94FC030C94FC03F4
:100090000C94FC030C94FC030C94FC030C94FC03E4
:1000A0000C94FC030C94FC030C94FC03FB08FB086D
:1000B0002E092E09A109C00AC00AC00ABF09330AC5
:1000C000440A440A6B0F6E0F880F950F9C0FBC0FEC
:1000D000BF0F02103910DB10DB1048104B104F100F
:1000E0007310941097109A10BC109918C018691AC0
:1000F000C018691A0C192F19691A241A341A000029
:1001000000000000000000000000000000000000EF
:1001100000000000000000000000000000000000DF
:1001200000007E0F00D4FFFFFFC700000078000032
:100130000000000000002A2B280000000000000042
:1001400000000000000000000029000000002C1E3C
:100150003420212224342627252E362D3738271EF9
:100160001F202122232425263333362E37381F041F
:1001700005060708090A0B0C0D0E0F1011121314B7
:1001800015161718191A1B1C1D2F3130232D350475
:1001900005060708090A0B0C0D0E0F101112131497
:1001A00015161718191A1B1C1D2F3130354C000459
:1001B0007F3F1F643214643214783C1E1E140A05FB
:1001C00005010980A101850319012AB7001501263F
:1001D000B700950175108100C0050C0901A10185CA
:1001E0000419012AA002150126A0029501751081AB
:1001F00000C00660FF0961A1010962150026FF0029
:100200009520750881020963150026FF0095207569
:10021000089102C005010906A101050719E029E7B7
:100220001500250195087501810295017508810168
:100230000507190029FF150026FF0095067508819E
:1002400000050819012905950575019102950175AB
:10025000039101C009025B00030100A0FA09040038
:1002600000010301010009211101000122400007E2
:1002700005810308000109040100020300000009D0
:10028000211101000122220007058203200001073D
:100290000503032000010904020001030000000916
:1002A0002111010001223200070584032000011200
:1002B0000100020000000810CB58120001010200EA
:1002C000011C0346006F006C0064004B00420020DC
:1002D000005200650076002E002000310000000E64
:1002E000034B0065006500620069006F00000004B8
:1002F0000309042223252628292A2C2D2F303233C6
:100300003536383A3B3D3E4042434547494A4C4EDC
:100310005051535557595A5C5E6062646668696B08
:100320006D6F71737577797B7D7F81838587898A0E
:100330008C8E90929496989A9C9E9FA1A3A5A7A814
:10034000AAACAEAFB1B3B4B6B8B9BBBCBEBFC1C244
:10035000C3C5C6C7C9CACBCCCDCED0D1D2D2D3D4D7
:10036000D5D6D7D7D8D9D9DADADBDBDBDCDCDCDCF5
:10037000DCDDDDDDDDDCDCDCDCDCDBDBDBDADAD9C3
:10038000D9D8D7D7D6D5D4D3D2D2D1D0CECDCCCB45
:10039000CAC9C7C6C5C3C2C1BFBEBCBBB9B8B6B463
:1003A000B3B1AFAEACAAA8A7A5A3A19F9E9C9A98F3
:1003B000969492908E8C8A89878583817F7D7B79C4
:1003C000777573716F6D6B6968666462605E5C5AA5
:1003D0005957555351504E4C4A4947454342403E68
:1003E0003D3B3A3836353332302F2D2C2A292826FA
:1003F000252322A800290035001E001F002000210F
:100400000022004A0000002B0014001A000800150A
:100410000017004D00000039000400160007000915
:10042000000A004B000000E1001D001B000600193F
:100430000005004E000000E000E300E20001512C46
:10044000002C00230024002500260027002D002E6C
:10045000002A001C0018000C00120013002F0030AE
:100460000031000B000D000E000F003300340000BF
:1004700000280011001000360037003800E50000A9
:100480000001512C002C000000E600E7007600007F
:1004900000E400A800005C0100C65CC55C0100012E
:1004A000000100C05C00000100C85CC75C010001E5
:1004B000000100C35C00000100CA5CC95C010001CE
:1004C000000100A90000000100010001000100017D
:1004D000000100AA0000000100010001000100016C
:1004E0000001000100010001000100010001000104
:1004F000004C00010024002500260001000100013D
:100500000001000100210022002300010001000081
:1005100000010001001E001F00200001000100007A
:10052000000100010027000000010001000100009F
:1005300000010001000100010001000100010001B3
:1005400000010001000000010001000100010001A4
:100550000001000100000001000100010001000194
:100560000001000100000001000100010001000184
:100570000001000100000001000100010001000174
:100580000001000100010001000100010001000163
:100590000001000100010001000100010001000153
:1005A0000001000100010001000100010001000044
:1005B0000001000100010001000100010001000034
:1005C0000001000100010000000100010001000025
:1005D0000001000100010001000100010001000113
:1005E0000001000100000001000100010001000104
:1005F00000010001000000010001000100010001F4
:1006000000010001000000010001000100010001E3
:1006100000010001000000010001000100010001D3
:1006200000010001000100010001000100010001C2
:1006300000010001000100010001000100010001B2
:1006400000010001000100010001000100010000A3
:100650000001000100010001000100010001000093
:100660000001000100010000000100010001000084
:10067000000100000101010101010101010202026A
:10068000020202020202030303030303030304043E
:100690000404040404050505050506060606060708
:1006A0000707070708080808090909090A0A0A0BC1
:1006B0000B0B0C0C0C0D0D0D0E0E0E0F0F0F101062
:1006C00011111112121313141415151616171718E9
:1006D0001819191A1A1B1B1C1D1D1E1E1F20202154
:1006E0002222232424252626272829292A2B2C2D9B
:1006F0002D2E2F30313232333435363738393A3BBC
:100700003C3D3E3F404142434445464748494A4CB0
:100710004D4E4F50515354555658595A5B5D5E5F7C
:10072000616264656668696B6C6D6F707273757712
:10073000787A7B7D7E8082838587888A8C8E8F9174
:10074000939596989A9C9EA0A2A3A5A7A9ABADAF9E
:10075000B1B3B5B7BABCBEC0C2C4C6C9CBCDCFD188
:10076000D4D6D8DBDDDFE2E4E7E9EBEEF0F3F5F831
:10077000FAFDFFFFAA7F5540000102030C0D0E0F8A
:100780000405060708090A0B11241FBECFEFDAE0A3
:10079000DEBFCDBF04B603FE18C080912303909145
:1007A0002403A0912503B09126038730904BA740E6
:1007B000B04B59F410922303109224031092250396
:1007C00010922603E0E0F8E3099511E0A0E0B1E023
:1007D000ECEDFDE502C005900D92AE3DB107D9F7F5
:1007E00023E0AEEDB1E001C01D92A332B207E1F704
:1007F0000E94030C0C94EC2E0C9400001F93CF93DA
:10080000DF93CDB7DEB767970FB6F894DEBF0FBEA4
:10081000CDBF4B8B5C8B6D8B7E8B8F8B6111109260
:100820007A0286E09E01235F3F4FD901E82F1D9297
:10083000EA95E9F795E0FE017396D90101900D92D2
:100840009A95E1F79C894E895F897B897D879E8790
:100850006F87598B488BF901DE01179601900D9235
:100860008A95E1F7CE0107960E94601481113EC07F
:1008700086E0FE013796DE01119601900D928A9571
:10088000E1F7FF81E8856A857B856115710531F0A7
:10089000EF3F31F481E0FF3F19F403C081E001C074
:1008A00080E080FD23C020913F0230E0C901019625
:1008B000877099274091700250E08417950779F16D
:1008C000F983EA837D836C8396E0929FD001939FA6
:1008D000B00D1124A05CBD4FFE01319601900D9228
:1008E0009A95E1F780933F020E948E1316E0809163
:1008F000700290913F028917F9F0189FC0011124EE
:10090000805C9D4F0E9460148823B1F0809170023A
:1009100090E001968770992780937002E8CF0E943B
:10092000B11610923F0210927002E9E3F2E086E005
:10093000DF011D928A95E9F767960FB6F894DEBF3E
:100940000FBECDBFDF91CF911F910895811106C0D9
:10095000662311F089EA09C08AEA07C0813039F4B8
:10096000662311F08EE401C08BE40E94CD1680E076
:1009700008953F924F925F926F927F928F929F92D3
:10098000AF92BF92CF92DF92EF92FF920F931F939D
:10099000CF93DF93CDB7DEB729970FB6F894DEBFBC
:1009A0000FBECDBFFC018081918123813481232B37
:1009B00031F09F3F31F491E08F3F19F403C091E093
:1009C00001C090E090FD07C77F0185E0DE01119630
:1009D00001900D928A95E1F7F701228189819A8130
:1009E000222349F00E940414182F682F89819A81CC
:1009F0000E942D1603C00E940116182F69817A816A
:100A0000812F0E9442218C01F7018281882309F401
:100A1000F2C0980122513F452031310508F01DC137
:100A20008FEF93E00E94E92D8111EFC0025137EA68
:100A3000832E32E0932E002379F08114F4E09F0698
:100A400009F4E3C0C4010E94E92D811101C00150E5
:100A50002FEF821A920AEFCF1E821F821886198604
:100A6000442443942AE0322E84010F5F1F4FC401B7
:100A70000E94E92D8E831F82882309F4C6C09FEF50
:100A8000980F933060F48F834E8232E0830E911C76
:100A9000C8010E94E92D8887811102C0B6C04801B3
:100AA0008E010A5F1F4FF80120812223E9F22130D5
:100AB00009F04CC08181813049F46801F2E0CF0E29
:100AC000D11CF80182810E94CD160AC0823051F4F7
:100AD0006801F2E0CF0ED11CF80182810E948B2BBD
:100AE000860186C0833049F46801F2E0CF0ED11C44
:100AF000F80182810E94342BF3CF843019F00F5F0C
:100B00001F4F76C0F80122810E5F1F4F80E090E0FA
:100B100030E0205331092A30310568F4389EA001B5
:100B2000399E500D1124C901840F951F0F5F1F4F6F
:100B3000F8012081EDCF009709F45AC0EFE9FFE0FA
:100B40003197F1F700C000000197F5CFE22FF0E0F8
:100B5000E25DFE4F5490822F86958695869590E0B3
:100B6000FC01E25EFE4F64902770712C022E02C0E1
:100B7000759467940A94E2F7F1E06F227724FC0100
:100B8000E25FFE4FA490B12C022E02C0B594A79450
:100B90000A94E2F731E0A322BB24FC01E250FF4FAC
:100BA000C490D12C02C0D594C7942A95E2F781E075
:100BB000C822DD246114710419F081EE0E948B2B90
:100BC000A114B10419F086EE0E948B2B852D0E9492
:100BD000CD16AB2819F086EE0E94342B672819F049
:100BE00081EE0E94342BCD2819F08CE20E94CD16A4
:100BF0000F5F1F4F58CF0031EFE51E0709F015C5F5
:100C000081E00E945C160E94A61780917102877095
:100C100009F4E1C5F7018281882309F4DCC58091DC
:100C2000F20182FDD8C582E029960FB6F894DEBFA6
:100C30000FBECDBFDF91CF911F910F91FF90EF902D
:100C4000DF90CF90BF90AF909F908F907F906F90EC
:100C50005F904F903F900C94681600313FE513076A
:100C600011F481E005C001319FE5190721F482E00C
:100C70000E94A216C8CF0D3BFCE51F0781F48091AE
:100C8000D702982F969596959695C9F1915E990FF2
:100C9000990F990F8770892B8093D70224C00E3B40
:100CA0002CE5120708F43EC00F3BECE51E0769F186
:100CB00008F49EC4003C2CE5120709F041C0909155
:100CC000D702892F8695869586958F5F8F718430A0
:100CD00008F0A7C4880F880F880F9770892B80931E
:100CE000D7028091D702887F91E009F490E080914B
:100CF000D70290FB80F98093D7020E9463228091F3
:100D0000D7028695869586950AC08091D70280FF86
:100D10006CC48E7F8093D7020E94632280E00E9481
:100D2000B02173CF0B3B3CE5130711F483E005C002
:100D30000C3B9CE5190721F480E00E94812265CFDD
:100D4000033FFCE51F0799F406E221EE40EE63EF56
:100D50007CE509C0073DECE51E0711F506E221EE32
:100D600041EE67ED7CE5C7010E9465204ECF043F50
:100D70002CE5120708F05CC1083D3CE5130731F48F
:100D800007E225EE45EE68ED7CE5EDCF093D9CE5FB
:100D9000190701F708E221E045EE69ED7CE5E3CFB4
:100DA000882309F47AC11092DA0203309DE519070D
:100DB00058F40A3FECE51E0780F4C80182509C45B8
:100DC000449708F054C109C00136FDE51F0729F01A
:100DD000053A2DE5120709F04AC10E94AE12909320
:100DE000F2018093F10101313CE5130709F4C6C01B
:100DF00008F042C009309CE5190709F49BC000F5D2
:100E00000530FCE51F0709F485C078F403303CE5A4
:100E1000130709F478C008F07AC002301C4509F0C5
:100E2000F7C08091F1018160F1C00730ECE51E0749
:100E300009F478C008F07AC08091F1018061E6C0C1
:100E40000D302CE5120709F487C058F40B308CE5FF
:100E5000180709F479C008F07BC08091F10188601F
:100E60006FC00F30ECE51E0709F480C008F082C0A7
:100E70008091F101877FCAC00D3F2CE5120709F46C
:100E800071C000F505318CE5180709F485C068F4D8
:100E90000331ECE51E0709F475C008F095C00E9407
:100EA000B1168091F1018F77B1C00B3F2CE512078D
:100EB000A9F108F054C00A3F1C4509F0A9C080916F
:100EC000F20140C001309DE5190709F489C058F4CA
:100ED0000F3FFCE51F0709F45AC008F069C0809174
:100EE000F20182602FC001363DE5130709F47EC090
:100EF000053A8DE5180709F483C002301D4509F055
:100F000087C060E06EC08091F10182607FC08091F7
:100F1000F10116C08091F101886078C08091F201E2
:100F200082604FC08091F101806270C08091F101B8
:100F300080646CC00E94B1168091F101806866C027
:100F4000846064C081603DC08091F1018E7F5EC08D
:100F50008091F1018D7F5AC08091F10116C080917E
:100F6000F20118C08091F2018D7F2BC08091F101B8
:100F70008F7E4CC08091F1018F7D48C08091F1013E
:100F80008F7B44C08091F101877F8B7F3FC0809130
:100F9000F2018D7F8E7F15C08091F10182FB2227A7
:100FA00020F991E0922790FB82F990FB83F92EC003
:100FB0008091F201982F909591708E7F892B90FBF4
:100FC00081F98093F20124C00E94B1168091F10151
:100FD00087FB222720F991E0922790FB87F916C022
:100FE00061E08EE090E00E94FD2D12C08091F10141
:100FF00084FB222720F991E0922790FB84F906C018
:101000008091F101982F909590FB80F98093F101E8
:101010006091F1011091F20184E090E00E94FD2DB9
:10102000612F82E290E00E94FD2D0E94B116EDCD6D
:10103000053FFCE51F0731F406E221EE42EE65EFC5
:101040007CE591CE053F2CE5120730F407E225EE52
:1010500044EE64EF7CE587CE063F3CE5130709F0DC
:101060009FCE07E225EE46EE66EF7CE57CCE0631AC
:101070008CE5180721F580917B028A7A91E009F4CA
:1010800090E09093E001882311F065E301C069E2EC
:1010900083E192E00E940F200FC006312CE5120779
:1010A00009F040C08091E001882309F4C5C265E3DE
:1010B00083E192E00E9402200E944613A6CD0A35E9
:1010C0003DE5130749F158F401159CE51907B1F006
:1010D0000E3D1C4509F042C00E94CA1296CD0B3548
:1010E000FDE51F07D9F00C351D45C1F58091F201D2
:1010F00082FB882780F991E0892711C00E94B116F0
:101100003FEF84E39CE0315080409040E1F700C025
:1011100000000E94681F79CD81E001C080E00E943C
:1011200085161CC080917B0282720C3CECE51E0788
:1011300009F431C308F0B2C2063C2CE5120709F4E9
:1011400016C308F089C2033C9CE5190709F405C3DE
:1011500008F074C2023C1C4509F4D5C2F701828133
:1011600000811181882349F0C8010E940414D82EFF
:10117000682FC8010E942D1604C0C8010E940116E4
:10118000D82EB8018D2D0E9442210E942311B82E25
:10119000192F982EF7010281A580A2949FE0A92221
:1011A000809171028770B9F00023A9F0812F807FB0
:1011B000803421F080E28B0D883068F08091F2015C
:1011C00082FD09C082E00E946816809171028770DA
:1011D000DD24D3948111D12CC12EC2948FE0C8227A
:1011E0008C2D90E08C30910508F0CAC1FC01EA5AC0
:1011F000FF4F0C948B2E812F807F1F70882311F05E
:101200001295107F0023B9F0112309F4A7C180E2E1
:101210008B0D883010F0911006C080917B02182B46
:1012200010937B0205C080917A02182B10937A02EA
:101230000E94461393C18B2D0E94342B112309F475
:101240009FC180E28B0D883080F1992071F110955B
:1012500080917A02182310937A022AC0812F807F0E
:101260001F70803211F01295107F8B2D992021F084
:10127000F1E09F16D9F149C08091F20182FF1BC0B5
:10128000002369F0112339F080917B02182B109311
:101290007B020E94461380E00E948B2B71C180E08C
:1012A0000E94342B112309F46BC1812F0E943F133C
:1012B0000E94461365C1002381F080917C02AA2020
:1012C00051F021E0A21207C0182B181709F458C1D9
:1012D00010937C0255C1812B10C0AA2021F031E06F
:1012E000A31609F44DC10E94391327C0002341F011
:1012F00085E08A1508F444C1812F0E94C31640C1BD
:1013000094E09A1508F43CC118C0002349F0AA20C3
:1013100099F3F701858180FF21C18F708583ECCF20
:10132000AA2059F0893309F028C1FFEF27EE33E0F6
:10133000F15020403040E1F71EC1812F0E94BC16C1
:101340001FC1812F86958695837019F0813061F0D9
:1013500017C1002321F08B2D912F937002C080E0E4
:1013600090E00E943F2012C1002321F08B2D912F8D
:10137000937002C080E090E00E94292007C1812F75
:101380008370A9F5011100C14B2D42954695477018
:10139000440F440F8B2D8F7090E09C01042E01C0F0
:1013A000220F0A94EAF7B4FE08C08FE090E001C073
:1013B000880F4A95EAF7809501C080E0169516954A
:1013C0001370123069F088F490917D02113019F099
:1013D000822B892302C0922B892B0E94AD16D4C088
:1013E000822B90917D028927F8CF822BF6CF0023A4
:1013F00019F0812F817001C08695882309F4C4C03B
:101400004B2D429546954770440F440F8B2D8F709E
:1014100090E09C01042E01C0220F0A94EAF7B4FE6A
:1014200008C08FE090E001C0880F4A95EAF78095E8
:1014300001C080E0169516951370123059F078F4BB
:1014400090919502113019F0822B892309C0922BBB
:10145000892B06C0822B90919502892701C0822B8F
:101460000E94581691C01F70002339F0812F0E94EE
:10147000A2168B2D0E94C31687C08B2D0E94BC160E
:10148000812F0E945C1680C08B2D92EF991679F106
:10149000991538F0E0EF9E1659F0F1EF9F1611F113
:1014A00059C023EF921651F134EF9316B9F052C0A0
:1014B000002379F084E08A1508F462C01F7181E08E
:1014C00090E001C0880F1A95EAF79091950289275C
:1014D0001FC095E09A1508F453C0F0CF8091F20137
:1014E00082FF19C0002329F0812F8F7126C00023AD
:1014F000D9F3812F8F710E945C1642C0002339F00E
:101500001F7181E001C0880F1A95EAF701C080E0E1
:101510000E94581635C0002399F01F71812F0E9438
:10152000A2168091F20182FD07C0E8E01E9FC00173
:101530001124836080937102812F0E94A21620C023
:1015400081E00E946816F1E0FA15D0F482E00E9472
:10155000681616C0002321F0AA2031F28B2D9CCEF4
:10156000AA2039F2893349F42FEF37EE83E0215076
:1015700030408040E1F700C000008B2D0E94342BEA
:1015800088EF8C0D843010F40E945520DD2009F482
:1015900022C18091710280FD1EC1F70112828595E2
:1015A000859585950E94A216C7010E94B904809175
:1015B000710285958595859529960FB6F894DEBFBD
:1015C0000FBECDBFDF91CF911F910F91FF90EF9094
:1015D000DF90CF90BF90AF909F908F907F906F9053
:1015E0005F904F903F900C945C160E9487220DCB29
:1015F0002091D702822F869586958695482F50E0B8
:101600004330510554F48F5F982F990F990F990F1C
:10161000822F8770892B8093D7028091D7028160B7
:101620006ACB97709093D7025CCB0131FFE51F071F
:1016300009F086CB82E0E5CA69E23ACD043C2CE5AC
:10164000120709F48FC0053C1C4509F087CD48EB13
:101650005AE261EC7AE2A3C0093C9CE5190709F45F
:1016600090C070F4073CFCE51F0709F485C0083CF6
:101670001C4509F073CD4CEA5AE260EA7AE28FC069
:101680000A3C3CE5130709F481C00B3C1C4509F0FA
:1016900065CD4DEF58E26EE079E281C0013DECE5A9
:1016A0001E0709F488C098F40E3C2CE5120709F4D3
:1016B0007CC008F477C00F3C8CE5180709F478C0AB
:1016C000003D1C4509F04ACD6EE089E07CC0043D38
:1016D000ECE51E0709F475C060F4023D2CE5120725
:1016E00009F46CC0033D1C4509F038CD61E088E188
:1016F0006FC0053D8CE5180709F468C00D351D4520
:1017000009F483CA2BCD8091D20280FF20C08E7F46
:101710008093D2026091D2027091D3028091D40260
:101720009091D5020E94EB280E94E22280919E02B5
:10173000816080939E02EFEFF0E722E0E150F040FD
:101740002040E1F700C000000E9436285ECA816098
:101750008093D20261E086953BC041E25BE26AE29F
:101760007BE21DC04AE25BE261E27BE218C041EC31
:101770005AE268EB7AE213C040EA5AE26CEA7AE293
:101780000EC048E85AE264E97AE209C044E95AE244
:1017900068E87AE204C04EE059E26DEF78E20E9418
:1017A000DC2233CA61E081E013C065E082E00BC057
:1017B00068E086E008C064E18FE005C067E185E18C
:1017C00002C062E289E10E94CA221FCA61E083E28C
:1017D0000E94E12A1ACA29960FB6F894DEBF0FBEFE
:1017E000CDBFDF91CF911F910F91FF90EF90DF90D0
:1017F000CF90BF90AF909F908F907F906F905F90B1
:101800004F903F900895CF93DF93CDB7DEB7AA975F
:101810000FB6F894DEBF0FBECDBF84B7877F84BFFD
:101820000FB6F894A895809160008861809360005D
:10183000109260000FBE90E080E80FB6F89480939D
:101840006100909361000FBE85B7806885BF85B742
:10185000806885BF84E093E29093DF018093DE018E
:101860000E94CB1A0E94EA1A8091E2008460809361
:10187000E200789480918B028823A1F01091E90016
:101880001F709091EC00892F817090FD80E8182BDB
:101890001092E9008091E80083FD0E94B1171F704B
:1018A0001093E90082E084BD93E095BD9AEF97BD67
:1018B00080936E001092E1011092E2011092E30118
:1018C0001092E4010E949721811102C00E94882198
:1018D00087988F988FB1881F8827881F8093000171
:1018E00080910001882321F010921C0188E003C040
:1018F00088E080931C0180931D010E944425811182
:101900000E94822C8091000180910001882311F0B7
:1019100090E001C095E09093F00185E0891B8093F1
:10192000EF0109E511E0D8018D918D018F3F11F094
:101930000E94DA25B1E00E351B07A9F70EE511E08C
:10194000F80181918F018F3F11F00E94DA25F1E0BB
:1019500006361F07A9F78AE0E9E0F2E0DF01282F49
:101960001D922A95E9F7E5EEF1E0DF011D928A95D7
:10197000E9F70E94BF12811102C00E94CA1282E0E0
:1019800090E00E94E92D8093F5010E94AE129093A1
:10199000F2018093F1010E943D26EFE3FCE93197CB
:1019A000F1F700C000000E943D268091090280FFEF
:1019B00008C06FEF7FEF80E090E00E941B2E0E9436
:1019C000681F83E090E00E94E92D0E94AD16259AE1
:1019D0002D9882E88093800089E1809381008FEFC9
:1019E0009FEF90938700809386000E949F220E9421
:1019F0009F228091F301811138C00E94BF12811192
:101A000004C00E94CA120E941F2988E090E00E9430
:101A1000F12D6093D2027093D3028093D4029093FD
:101A2000D50280919E02836080939E026E7F71F446
:101A30000E941F2988E090E00E94F12D6093D2025D
:101A40007093D3028093D4029093D5020E94D82839
:101A50000E94E2228091D20280FF04C060E086955D
:101A60000E94E12A81E08093F30185988D9A8698FF
:101A70008E9A8FE891E00197F1F700C000008FB1D6
:101A800085FB882780F97E9B02C092E001C090E030
:101A9000892B809307029091000181E09827909311
:101AA0000602891B8093F4010E944425811102C023
:101AB0000E94852C81E091E09093DE028093DD020C
:101AC000A8E14A2E512CDE0111967D013E01BDE0B8
:101AD0006B0E711C80918B02853009F046C012E1BB
:101AE00080918B02853009F03AC080918B0284305E
:101AF00029F180E00E94B0211092E102E0E40FB6EB
:101B0000F894A895409260000FBEE093600083B700
:101B1000817F846083BF83B7816083BF7894889519
:101B200083B78E7F83BF0FB6F894A895809160002D
:101B3000886180936000109260000FBE80918A02DD
:101B4000882309F4CDCF0E943D26E9E0F2E081919F
:101B5000811159C322E0E331F207C9F7C1CF0E94D6
:101B6000B1160E949F220E9455200E943D2681119D
:101B70000E94C11FF9E0AF2EF2E0BF2EA6EFB1E048
:101B8000F50100E010E0802E91908D91892549F1BA
:101B9000C12CDD24D394982F9D21F1F00E9444257F
:101BA000882399F0C9A28AA29D2081E009F480E0EF
:101BB0008BA30E94CD1F8160782F9DA38CA349A188
:101BC0005AA16BA18DA10E94FE03F801EA50FE4FBD
:101BD0008081D826D0821AC0C394DD0C48E0C4129C
:101BE000DACF0F5F1F4F0A30110569F68FEF8EA312
:101BF0008FA318A60E94CD1F8160782F9AA789A76E
:101C00004EA15FA168A58AA50E94FE030E944425FB
:101C100080919D02882309F4BDC080919C02E091CF
:101C2000D202E695E81BE0939802823059F4F0E086
:101C3000E454FE4FE4910E2F10E0EAE2CE2EEFE1E5
:101C4000DE2E59C0863059F4F0E0E754FE4FE4919F
:101C50000E2F10E07AE1C72E7FE1D72E4CC08930DD
:101C600061F4E695F0E0EA54FE4FE4910E2F10E0A7
:101C70006FE9C62E6EE1D62E3EC08F3061F4E69538
:101C8000F0E0ED54FE4FE4910E2F10E05AE0C52E27
:101C90005EE1D52E30C0853159F4F0E0E055FE4FBD
:101CA000E4910E2F10E044E8C42E4DE1D42E23C061
:101CB0008831A1F0833249F4EEEAF1E00591149104
:101CC0003AEDC32E3EE1D32E16C0843271F000ED02
:101CD00017E021E8C22E2CE1D22E0DC008E210E060
:101CE00091EFC92E9CE1D92E06C004EF11E082EBE2
:101CF000C82E8CE1D82E80919902882361F0109231
:101D000099020E94F1259093970280939602109277
:101D10009B0210929A020E94F125E0919602F091A6
:101D200097029C012E1B3F0B2F3F3F4798F52091B8
:101D300002022223B1F0109202022091000230919F
:101D40000102821B930B8F3F9F4758F4205D3A4856
:101D5000309301022093000280919E02886080935C
:101D60009E0280909A0290909B020E0F1F1F10936C
:101D700097020093960286E992E0F6010995809118
:101D80009A0290919B02892B29F4892819F081E00D
:101D90008093020280910702E82FEE0FEE0FE0938E
:101DA00007028FB185FB222420F8312C7E9B03C0D3
:101DB00082E090E002C080E090E0822993298E2B9F
:101DC00080930702109106028F70E82FF0E0EA5925
:101DD000FE4F908180910502890F80930502843027
:101DE0006CF0E12FF0E0ED5FFD4F80818F5F80832D
:101DF00060E0812F0E94A60421E001C020E08091D4
:101E000005028D3F64F4E12FF0E0ED5FFD4F80812E
:101E10008150808361E0812F0E94A60421E080919F
:101E20000502082E000C990B64E070E00E94552E0C
:101E30008093050221110E94AC120E9455209091BE
:101E4000080289138093080280918B02843009F084
:101E500041CE83E08093E9008091E80082FF3ACE92
:101E60008091E80085FF21C00E94221C81111BC0C7
:101E700000E210E0CE0101966C0108C08091F100F3
:101E8000D6018D936D010150110969F08091E80030
:101E900085FDF4CF8091E8008B778093E8000E9465
:101EA000221C882399F391E001C090E08091E80022
:101EB0008B778093E800992309F40CCEE9818E2F6B
:101EC00090E0FC013197E331F10508F074C1EE595F
:101ED000FF4F0C948B2E1A8289E0C9C08A81823010
:101EE00009F4A8C1833051F0813009F064C10E9427
:101EF000C11F9B838C837D836E835FC1FE013396FC
:101F0000D5018D915D0181936E167F06C9F755C18C
:101F10008A81823009F04FC16B817C818D819E81E5
:101F20000E94912E0E94662148C14C816B818A815A
:101F30000E941C219D8385C1CD80DE80DC24CD24C0
:101F4000DC248C810B819A81B0E10B9F80011124EC
:101F5000E0EA9E9F000D111D1124080F111D080FAE
:101F6000111D6D2DC80187960E94FD2D6C2DC80195
:101F700088960E94FD2D21C10E94E8201EC18A8101
:101F8000893061F48B81F3E08F9FC00111246FEFE2
:101F900070E00E94412E862F0E9468228A8181383B
:101FA000B1F050F4803809F008C120E04B81609115
:101FB000D4028091D30223C08238E9F0833809F03B
:101FC000FCC020E04091D5026C818B8118C060E09C
:101FD0008B810E94E12A8B81811103C00E94CA2A51
:101FE000ECC08091D20281608093D20260E086953D
:101FF0000E94E12AE2C08B818093D602DEC00E945B
:10200000E629DBC08A81893021F08A3089F41B827D
:10201000D4C08091D7028695869586952FEF829FB2
:10202000C001112463E070E00E94412E6B83C5C0A3
:10203000813899F030F4803809F0BFC08091D50222
:1020400016C0823891F0833809F0B7C08091D3026E
:102050008B838091D4028C83B0C08091D20280FFA8
:1020600002C0869504C080E002C08091D6028B83B6
:10207000A4C08091D7020E9463226091D202709125
:10208000D3028091D4029091D5020E94EB2895C092
:1020900040E14A8392C081E08A8389E5E8CF0A81E2
:1020A0001B81102701271027AC80B12C6701C801C4
:1020B00089559D4F96012E193F092A153B0508F0B9
:1020C0007CC00935A1E01A0728F40E94E92DF60129
:1020D000848303C0D60114961C920F5F1F4FBFEF7D
:1020E000CB1ADB0AE4CF0A811B81102701271027B6
:1020F000AC80B12C6701C80189559D4F96012E19FE
:102100003F092A153B0508F058C00935E1E01E07D4
:1021100028F4D60114966C910E94FD2D0F5F1F4F7D
:10212000BFEFCB1ADB0AE7CF0E94D82046C084E07D
:102130008A8343C00A811B81102701271027AC80A6
:10214000B12C6701C801879696012E193F092A15FF
:102150003B0598F50038E2E01E0730F40E94E92DB7
:10216000D60114968C9302C0F60114820F5F1F4FA4
:10217000FFEFCF1ADF0AE6CF0A811B811027012764
:102180001027AC80B12C6701C801879696012E19E3
:102190003F092A153B0588F4003822E0120728F48D
:1021A000D60114966C910E94FD2D0F5F1F4FBFEF5B
:1021B000CB1ADB0AE9CF8FEF898380918B028430C1
:1021C00009F088CC1091E9001F709091EC00892FE4
:1021D000817090FD80E8182B82E08093E900809167
:1021E000E80080FF0CC040E050E060E270E0C70112
:1021F0000E94551C8091E8008E778093E8001F7044
:102200001093E90067CCE0E1E9BD19BD09B400FE17
:10221000FDCF8091D8008F7D8093D8008091E00021
:1022200082608093E0008091E00081FDFCCF0E94FD
:10223000B11656CC86E290E00E94E92D1B821C82EA
:102240001D828E83BACFCF93DF938238910569F1D7
:10225000B0F48133910509F46FC048F489329105D7
:1022600009F465C08A32910509F46BC08AC08533D0
:10227000910509F457C089339105B9F082C0833EB6
:10228000910571F138F4803E9105B1F0823E9105DF
:1022900011F177C0863E9105B9F1873E9105C9F1EC
:1022A000843E910509F06DC024C02091F10120FD0C
:1022B00053C021FD51C065C08091F10180FD46C031
:1022C0008091F20180FF48C08091F10184FD3FC1FF
:1022D00083EE90E03EC18091F10182FF3AC0F4CFDD
:1022E0008091F10182FD35C08091F20180FD34C002
:1022F000EBCF8091F20181FF35C08091F10184FD27
:1023000026C187EE90E025C18091F10183FF27C0AF
:10231000F4CF8091F10183FD22C08091F20181FD13
:1023200021C0EBCF8091F10185FD1FC021C08091BC
:10233000F10185FD1DC019C08091F10186FD1BC012
:102340001DC08091F10186FD19C015C089E390E0A0
:1023500000C182EE90E0FDC080EE90E0FAC086EE13
:1023600090E0F7C084EE90E0F4C089E290E0F1C024
:1023700085E390E0EEC08AE290E0EBC081E390E07C
:10238000E8C0811532E5930708F069C0811541E581
:10239000940728F0982F8827816F906ADAC0883ECA
:1023A000910568F5803E910508F0D3C0883A910503
:1023B000B8F4853A910548F0855AE82FF0E0EA58DC
:1023C000FE4F808190E09064C4C08130910509F493
:1023D000BBC008F4BCC08430910508F4B8C0B9C0D3
:1023E0008F3B910508F0B3C0885AE82FF0E0EE0F5C
:1023F000FF1FE758FE4F808191819464AAC0811528
:1024000020E59207F0F09C0174E0369527957A95C7
:10241000E1F7922F9370482F437021E030E002C023
:10242000220F331F4A95E2F73C68392B8F70982FA3
:102430009695969540E2949FC0011124822B932B90
:1024400088C0811530E4930718F09F70906A81C0AE
:102450009C013A9521153F4108F47BC078C0EC01FE
:10246000C11586E5D807E8F5C11525E5D20748F07E
:102470008C2F0E94FA258F7190E0982F8827906208
:1024800068C0C11534E5D30728F09C2F8827846FD6
:10249000906A5FC0AE01437055272C2F2695269574
:1024A000C115D34578F481E090E002C0880F991FF0
:1024B0004A95E2F740E2249F90011124822B932B4E
:1024C0009C6847C081E090E002C0880F991F4A9540
:1024D000E2F740E2249F90011124822B932B9A680B
:1024E00038C0C1152AE5D207F8F4C11539E5D3077C
:1024F00090F08C2F8F700E94FA2594E0D695C795A6
:102500009A95E1F7CF70D0E0DC2FCC27D0699E01FF
:10251000282BC9011EC0C11548E5D407C0F09C2F67
:102520008827806F906A15C0CE0190568115904221
:1025300070F48D2F8F710E94FA25282F2F71CE01F4
:1025400099279062922B05C081E090E002C080E064
:1025500090E0DF91CF9108950C94C11FCF9384E058
:1025600090E00E94E92DC82F82E290E00E94E92DC0
:102570002C2F30E0A901582BCA01CF91089580E09B
:1025800090E00E94F72D893E9E4F11F40C94972104
:1025900080E0089569EE7EEF80E090E00E941B2EBF
:1025A00060E082E090E00E94FD2D60E083E090E03A
:1025B0000E94FD2D10927D0260E084E090E00E9478
:1025C000FD2D60E082E290E00E94FD2D60E085E05C
:1025D00090E00E94FD2D60E086E090E00E94FD2DDD
:1025E0006FEF87E090E00E94FD2D40E050E0BA01DF
:1025F00088E090E00E940F2E60E08DE090E00E9465
:10260000FD2D40E050E0BA0188E190E00E940F2EDD
:1026100060E087E190E00E94FD2D40E050E0BA01CB
:102620008CE190E00E940F2E60E070E080E290E08C
:102630000E941B2E40E050E0BA0188E190E00E9429
:102640000F2E80E00E946A210E9488210E9487222A
:1026500083E00E94812240E050E0BA018FE090E0E8
:102660000E940F2E40E050E0BA0183E190E00C940C
:102670000F2E80917C02811110927C02089580952A
:1026800090917B02892380937B02089590917B0235
:1026900080917A02982B9093130280917C02882378
:1026A00089F0892B80931302E5E1F2E097E080E066
:1026B000915029F021912223D9F38F5FF9CF811115
:1026C0000E94391348E050E062E772E083E192E053
:1026D0000E94D62E892BA9F088E0E3E1F2E0A2E780
:1026E000B2E001900D928A95E1F7E091DD02F09160
:1026F000DE02309731F00280F381E02D83E192E039
:102700000994089580E090E00E943F2080E090E0EE
:102710000E94292010927A020C9446138091700234
:1027200090913F02891719F08F5F8770FBCF089552
:102730000F931F93CF93DF9380913E0282958F700A
:1027400009F05DC080913B02882309F458C0809154
:10275000700210913F026091390270913A02C0916B
:102760003C02D0913D0291E06F3F09F090E0292FAB
:1027700006E0811709F443C0209721F07F3F21F044
:1027800030E003C031E001C0322F90E030FD34C0B2
:10279000089FF001099FF00D1124DF01A05CBD4FDF
:1027A00011963C911197371327C03C91361324C0E2
:1027B00012963C91129731111FC013964D915C9166
:1027C00014974C1B5D0B483C5105B0F480913E02C0
:1027D0008F70806180933E02EB5BFD4F80818F7034
:1027E0008061808389E392E00E94B904DF91CF91F8
:1027F0001F910F910C948E1301968770BACFDF91C1
:10280000CF911F910F910895CF92DF92FF920F9376
:102810001F93CF93DF936C010091950280917D020D
:10282000082BC7E0D0E010E0C8010C2E02C095953F
:1028300087950A94E2F780FD04C02197A8F7F12C50
:1028400009C0FC2EB6018C2F0E9442210E94231148
:10285000019799F38F2DDF91CF911F910F91FF90E9
:10286000DF90CF900895CF93DF93EC010E94041482
:10287000BE010E9442210E942311DF91CF91089551
:10288000FC01808191810E94331492959F70963053
:1028900079F010F4925001C09A50923068F4803F61
:1028A00069F018F4883E40F409C0843F29F406C05A
:1028B000883E20F0813F11F080E0089581E0089586
:1028C0009F92AF92BF92CF92DF92EF92FF920F93BF
:1028D0001F93CF93DF93CDB7DEB761970FB6F89410
:1028E000DEBF0FBECDBF8C0185E0F801DE011D9675
:1028F00001900D928A95E1F7F801E28090913902FA
:1029000060913A0240913C0250913D0241155105BF
:1029100031F06F3F31F481E09F3F19F403C081E053
:1029200001C080E0F82FF1709F2E80FD1AC1F801E0
:1029300030812181C380D48089E3A82E82E0B82E23
:10294000F0903B02F601E41BF50BFF2009F4C6C032
:1029500080913E02E83CF10508F091C0482F407F8D
:1029600009F050C0621311C093130FC0FE2CE11088
:102970000CC08F70806180933E02C5010E94B90433
:1029800080913E02F801858329C1CD2831F02F3F87
:1029900031F481E03F3F19F403C081E001C080E0E1
:1029A00080FD03C081E08E2502C080E090E0F82F1A
:1029B000F170FF2E80FF1CC08091700240913F0299
:1029C00056E0841709F4E8C090E0589FF001599F41
:1029D000F00D1124E05CFD4F6181261306C060817B
:1029E000631303C06281E61203C001968770E9CFCA
:1029F000FE2CEE2009F4F2C080913E0281608093AB
:102A00003E0249C0621306C0931304C0E11002C025
:102A1000F80186C0C8010E944014882351F1EE20BD
:102A200041F120913E02822F82958F7090E00297B3
:102A300074F08091390290913A0298878F831986B9
:102A4000DB86CA862C87CE0107960E94B90486E0F1
:102A5000F801A9E3B2E001900D928A95E1F70E9496
:102A600098130AC06217C9F0C8010E94401481116E
:102A70001EC0C8010E94B904FF24F394AFC0482FC0
:102A8000407F81F789E392E00E94B90486E0F50176
:102A900011928A95E9F7F12CA1C09313E5CFE110CB
:102AA000E3CFF8018583C8010E94B90454C0EE2029
:102AB00001F320913E02822F82958F7090E0029761
:102AC00034F28091390290913A029A8389831B8271
:102AD000DD82CC822E83CE010196B7CFE83CF10592
:102AE000D0F5FE2CEE2029F2621327C0931325C0E7
:102AF00020913E0220FD18C0822F82958F70482FB2
:102B000050E04115510581F0F80125834F30510502
:102B100041F08F5F982F9295907F822F8F70892B35
:102B20008583C8010E94B90486E0F801A9E3B2E0F8
:102B300001900D928A95E1F751C0C8010E9440149E
:102B4000811185CF80913E02816080933E02C80151
:102B50000E94B90443C086E0F50111928A95E9F715
:102B60003DC0EE2009F485CFC8010E944014F82E24
:102B7000882309F47ECF86E0F801A9E3B2E0019052
:102B80000D928A95E1F78091390290913A020E9464
:102B900033140E94981322C03D872E878D859E8511
:102BA0000E943314292F22952F70223028F49F7011
:102BB00039F0811105C00BC0243028F49F7049F40E
:102BC000805E883020F0C8010E94B9049F2CF92C47
:102BD00005C0F8019581907F99F7F9CF8F2D619607
:102BE0000FB6F894DEBF0FBECDBFDF91CF911F911E
:102BF0000F91FF90EF90DF90CF90BF90AF909F909C
:102C0000089528E0929F800D1124682F669566959F
:102C10006695982F977083E0689FB001112440E07B
:102C200050E080E0FB01E40FF51FE55EFD4F2081E1
:102C300030E0092E02C0369527950A94E2F72170FC
:102C40003327042E01C0220F0A94EAF7822B4F5F2C
:102C50005F4F4330510531F7089528E0929F800D72
:102C60001124E82FE695E695E695877051E001C0BE
:102C7000550F8A95EAF783E0E89FF0011124E55E9D
:102C8000FD4F20E030E070E04081CB01022E02C019
:102C9000969587950A94E2F781708195842785231C
:102CA000842781932F5F3F4F2330310569F70895C3
:102CB000809395020C94821321E030E001C0220F32
:102CC0008A95EAF720958091950282230C945816F4
:102CD000209171028095822380937102982F9770C2
:102CE00099F430E0482F082E000C550B24173507B7
:102CF00059F09091F20192FD07C0859585958595D3
:102D00000E945C16109271020895CF93C091F20157
:102D1000C2FB992790F9981799F080FBC2F9C093EC
:102D2000F2016091F10184E090E00E94FD2D6C2F92
:102D300082E290E00E94FD2D82E0CF910C94681613
:102D4000CF91089521E030E001C0220F8A95EAF783
:102D500080919502822B0C94581680937D020C94DE
:102D6000821310927B0286E0E5E1F2E0DF011D9222
:102D70008A95E9F70C948213882321F00E943F136F
:102D80000C9446130895882339F090917B02892B87
:102D900080937B020C94461308951F93CF93DF9387
:102DA000182F893319F0C0E0D0E002C0C0E5D0E0B0
:102DB000812F0E948B2B209741F08FE99FE0019794
:102DC000F1F700C000002197F6CF812FDF91CF915E
:102DD0001F910C94342B80918D0287FF11C080913C
:102DE000E80082FD05C080918B028111F8CF11C0EF
:102DF0008091E8008B770BC080918B02882349F08B
:102E00008091E80080FFF8CF8091E8008E77809372
:102E1000E8000895982F973068F59093E900981787
:102E200039F07091EC002091ED005091F00003C05A
:102E3000242F762F50E021FD02C09F5FECCF309110
:102E4000EB003E7F3093EB003091ED003D7F3093FF
:102E5000ED003091EB0031603093EB007093EC00AB
:102E60002093ED005093F0002091EE0027FDE5CF78
:102E700080E008958F708093E90081E008952091AB
:102E80009302309194022617370748F061157105B7
:102E900039F42091E8002E772093E80001C0B901B1
:102EA000FC0120E06115710579F180918B02882386
:102EB000F1F18530F1F18091E80083FD3CC0809113
:102EC000E80082FD2EC08091E80080FFEBCF2091CA
:102ED000F3008091F20090E0922B6115710551F0A2
:102EE0008830910538F421912093F10061507109E7
:102EF0000196F3CF21E0089709F020E08091E800E7
:102F00008E778093E800CECF2111CFCF0AC0809179
:102F10008B02882361F0853061F08091E80083FDA9
:102F20000AC08091E80082FFF2CF80E0089582E03D
:102F3000089583E0089581E008950895BC0184E038
:102F40000C943E1FBC0183E00C943E1F80919502BF
:102F5000982F9670963011F4886001C0877F0C948A
:102F600058161F93CF93DF93CDB7DEB7AA970FB64E
:102F7000F894DEBF0FBECDBFEDE8F2E085E992E048
:102F80002091F10021938E179F07D1F780918E0237
:102F9000833009F463C030F4813071F0823009F479
:102FA0009DC0B4C08A3009F489C08B3009F46EC06A
:102FB000893009F0ABC020C080918D02813A09F0C0
:102FC000A5C08091E800877F8093E80080919102FE
:102FD00090919202892B21F468E081E892E003C08D
:102FE00060E080E090E070E00E943F178091E80090
:102FF0008B778093E8008AC080918D02813209F03E
:1030000085C08091910290919202009719F00297E9
:1030100009F07CC08091E800877F8093E800809170
:10302000E80082FD05C080918B028111F8CF6EC04F
:103030002091F3008091F20090E0922B029731F4FE
:103040008091F100813011F0863021F48091F100FF
:10305000809380028091E8008B7754C080918D022C
:10306000813A09F053C08091910290919202892B8C
:1030700009F04CC08091E800877F8093E800809140
:10308000E80080FFFCCF80910D0137C080918D0258
:103090008132E1F58091910290919202892BB1F5F4
:1030A0008091E800877F8093E8000E94EB16809172
:1030B0008F0280930D010E94B11628C080918D026D
:1030C000813221F58091E800877F8093E8000E949B
:1030D000EB168091900280937F0218C080918D0240
:1030E000813AA1F48091E800877F8093E800809185
:1030F000E80080FFFCCF80917F028093F1008091F7
:10310000E8008E778093E8000E94EB168091E8003B
:1031100083FFDFC180918D0290918E02492F50E094
:103120004A30510508F0D5C1FA01EB58FF4F0C9415
:103130008B2E803821F0823809F0CBC108C08091F5
:10314000890290918A02992389F082600FC0809150
:1031500091028F70873008F0BCC18093E9008091A4
:10316000EB0085FB882780F91092E9009091E80038
:10317000977F9093E8008093F1001092F10070C166
:10318000282F2D7F09F0A5C1882319F0823061F026
:10319000A0C180918F02813009F09BC1933009F06A
:1031A00080E080938A022EC080918F0281112AC014
:1031B000809191028F702FEF280F263008F089C17F
:1031C0008093E9002091EB0020FF1CC0933021F494
:1031D0008091EB00806214C09091EB00906190931D
:1031E000EB0021E030E0A90102C0440F551F8A9591
:1031F000E2F74093EA001092EA008091EB008860C9
:103200008093EB001092E9008091E800877F809323
:10321000E8000E94EB165DC181115BC110918F0225
:103220001F778091E3008078812B8093E300809169
:10323000E800877F8093E8000E94EB168091E80009
:1032400080FFFCCF8091E30080688093E300111140
:1032500002C082E001C083E080938B023AC18058B3
:10326000823008F036C120918F02309190022C3DBF
:1032700053E0350779F583E08A838AE289834FB783
:10328000F894DE01139620E03EE051E2E32FF0E0F7
:1032900050935700E49120FF03C0E295EF703F5F29
:1032A000EF708E2F90E0EA3010F0C79601C0C09604
:1032B0008D939D932F5F243149F74FBF8091E80094
:1032C000877F8093E8006AE270E0CE0101960E9459
:1032D0003F17B4C08091910290919202432F5527DD
:1032E00043305105A9F068F44130510509F400C19B
:1032F0004230510509F0EDC08BE590E0E4E5F2E0E5
:103300004BC04132510529F14232510589F1E1C0EA
:10331000C901992781309105A1F058F0029709F071
:10332000D8C0E1ECF2E0E4918E2F90E0E1ECF2E025
:1033300030C0EFEEF2E0E4918E2F90E0EFEEF2E09D
:1033400028C0EFEDF2E0E4918E2F90E0EFEDF2E097
:1033500020C08330910508F0BCC0880F991FFC0184
:10336000E055FE4F0190F081E02D89E090E014C01F
:103370008330910508F0ADC0FC01EE0FFF1FE6554C
:10338000FE4F0190F081E02DDC01A955BE4F8C91DC
:1033900090E0009709F49DC02091E800277F2093DA
:1033A000E80020919302309194022817390708F41D
:1033B000C90140E0009789F120918B02222309F492
:1033C0003DC02530D9F12091E80023FD37C0209180
:1033D000E80022FD2FC02091E80020FFEBCF4091B4
:1033E000F3002091F20030E0342B009759F02830A0
:1033F000310540F444914093F100319601972F5FDD
:103400003F4FF3CF41E02830310509F040E02091F3
:10341000E8002E772093E800CDCF4111CDCF0AC030
:1034200080918B02882351F0853041F08091E80033
:1034300083FD04C08091E80082FFF2CF8091E80014
:103440008B778093E80045C0803809F042C08091B6
:10345000E800877F8093E80080918C028093F100E0
:103460008091E8008E77D3CE811133C080918F0296
:10347000909190029927029764F58091E800877FE8
:103480008093E80010918F0210938C020E94EB163B
:10349000111106C08091E30087FD02C081E001C0E8
:1034A00084E080938B0242E061EC81E00E940A1785
:1034B00042E261EC84E00E940A1742E261EC82E0A1
:1034C0000E940A1742E260EC83E00E940A17809192
:1034D0008B028091E80083FF10C08091E800877F15
:1034E0008093E8008091EB0080628093EB0005C040
:1034F00082E190E0EFEAF2E04FCFAA960FB6F8949F
:10350000DEBF0FBECDBFDF91CF911F9108951F92F7
:103510000F920FB60F9211242F933F934F935F9307
:103520006F937F938F939F93AF93BF93CF93DF93CB
:10353000EF93FF93C091E900CF708091EC00D82FFA
:10354000D17080FDD0E81092E9008091F000877F73
:103550008093F00078940E94B1171092E900809156
:10356000F00088608093F000CD2BCF70C093E9000D
:10357000FF91EF91DF91CF91BF91AF919F918F918B
:103580007F916F915F914F913F912F910F900FBE5F
:103590000F901F901895E8EDF0E080818E7F80837A
:1035A0001092E2001092DA001092E100A0EEB0E07A
:1035B0008C9181608C9380818F77808319BCA7ED7B
:1035C000B0E08C918E7F8C9380818F7E808310926F
:1035D0007E020895CF92DF92EF92FF920F931F9396
:1035E000CF93DF93C8EDD0E088818F7E8883E7EDAD
:1035F000F0E080818160808384E082BF81E08093FD
:103600007E0288818E7F888302EE10E0F8011082AE
:103610001092DA0081EEC82ED12CF601108288813A
:103620008F77888388818068888388818F7D88836D
:1036300019BC10928B0210928C0210928A02109286
:10364000890290EEE92EF12CF70180818B7F808337
:1036500088818160888342E060E080E00E940A17F0
:10366000F60180818E7F8083F80180818160808374
:10367000808188608083F70180818E7F808388814C
:1036800080618883DF91CF911F910F91FF90EF9020
:10369000DF90CF9008951F920F920FB60F921124D2
:1036A0002F933F934F935F936F937F938F939F934A
:1036B000AF93BF93EF93FF938091E10082FF09C026
:1036C0008091E20082FF05C08091E1008B7F8093B2
:1036D000E1008091DA0080FF2AC08091D80080FF4D
:1036E00026C08091DA008E7F8093DA008091D90025
:1036F00080FF18C080E189BD82E189BD09B400FE68
:10370000FDCF81E080938B0280917E0281110FC0FA
:103710000E94CB1A0E94EA1A8091E2008460809392
:10372000E20005C019BC10928B0210927E028091BB
:10373000E10080FF17C08091E20080FF13C08091FC
:10374000E2008E7F8093E2008091E20080618093AE
:10375000E2008091D80080628093D80019BC85E097
:1037600080938B028091E10084FF30C08091E20061
:1037700084FF2CC080E189BD82E189BD09B400FECF
:10378000FDCF8091D8008F7D8093D8008091E1009B
:103790008F7E8093E1008091E2008F7E8093E20033
:1037A0008091E20081608093E20080918C02882306
:1037B00011F084E007C08091E30087FD02C081E042
:1037C00001C083E080938B0280918B028091E100A5
:1037D00083FF27C08091E20083FF23C08091E10036
:1037E000877F8093E10082E080938B0210928C02AD
:1037F0008091E1008E7F8093E1008091E2008E7FD6
:103800008093E2008091E20080618093E20042E0D8
:1038100060E080E00E940A178091F0008860809349
:10382000F000FF91EF91BF91AF919F918F917F91A8
:103830006F915F914F913F912F910F900FBE0F901D
:103840001F9018952091E4003091E50095E6409195
:10385000EC00842F817040FF23C08091E80080FD40
:103860001DC080918B02882399F0853099F080915A
:10387000EB0085FD11C04091E4005091E500241754
:10388000350729F3915011F09A01E1CF84E00895B2
:1038900082E0089583E0089581E0089580E008952E
:1038A0004091E80042FFDDCF0895EF92FF920F9321
:1038B0001F93CF93DF937C018B010E94221C811107
:1038C00019C0E70101151105A1F08091E80085FDFF
:1038D0000AC08091E8008E778093E8000E94221C45
:1038E000882381F307C089918093F1000150110969
:1038F000E9CF80E0DF91CF911F910F91FF90EF9082
:10390000089508950895809180020895CF93DF93DC
:1039100021E02093E9002FEF3091E800215035FDA0
:1039200006C035ED3A95F1F700002111F5CF209151
:10393000E80025FF14C0EC0140E050E068E070E0D2
:103940000E94551C8091E8008E778093E80088E003
:10395000FE01A1E8B2E001900D928A95E1F7DF91B6
:10396000CF9108950F931F93CF93DF93EC0100E065
:1039700010E080912001282F30E00217130724F572
:1039800090911E019801290F311DA901440F551F67
:10399000240F351F2E553D4F869590E04C8108171A
:1039A00019071CF4442331F002C0411103C04091B7
:1039B000D50201C040E06091D4028091D3020E9400
:1039C00036290F5F1F4FD5CF0E9436288C8190E09B
:1039D0000196817099278C83DF91CF911F910F9170
:1039E00008958F929F92AF92BF92CF92DF92EF9203
:1039F000FF920F931F93CF93DF938C01FC014481BF
:103A0000C42FD0E09E01DE010E94A02E9B01AC01DC
:103A10000E94B62E6B017C01E0E2F0E0EC1BFD0B96
:103A2000A5E5B0E09B01AC010E94B62E4B015C0104
:103A30009F01DF010E94982E9B01AC010E94C12EC4
:103A40009B01AC012C0D3D1D4E1D5F1DC501B40138
:103A50000E94692EC22FD22F2A3228F4F3E02F9F22
:103A6000900111240DC025E530E02C1B3109C9015E
:103A7000880F991F280F391F37FF02C02F5F3F4F54
:103A800035952795C22FC095F12C85E5E82EED1AC6
:103A900080912001F816C8F4F1FC02C08E2D01C0FF
:103AA0008D2F90911E012F2D30E0290F311DA9017E
:103AB000440F551F240F351F2E553D4F4C2F60913D
:103AC000D4020E943629F394E3CF0E943628F801ED
:103AD0008481811102C091E003C0803219F49FEF0C
:103AE00090931B0190911B01890FF8018483DF9152
:103AF000CF911F910F91FF90EF90DF90CF90BF90EB
:103B0000AF909F908F9008951F93CF93DF93EC0118
:103B10008C81811109C081E08C831092A00292E017
:103B200090931A018093190180911E0190911F01B9
:103B3000891770F4E82FF0E09F01220F331FE20F86
:103B4000F31FEE55FD4F1182108212828F5FF0CF6E
:103B500010E0609120011617C0F5E12FF0E070E051
:103B6000CF010E94552E20911E01820F2091A002AC
:103B7000022E000C330B90E0E217F307CCF02091FB
:103B80001A01022E000C330B2E173F078CF09C01FC
:103B9000220F331F820F931F9C012E553D4F4091E2
:103BA000D5026091D4028091D3020E9436290BC0C5
:103BB000FC01EE0FFF1F8E0F9F1FFC01EE55FD4F06
:103BC0001182108212821F5FC4CF0E94362880911A
:103BD00019012091A002280F2093A00290911A01B0
:103BE000980F90931A0119165CF4022E000C330BF7
:103BF0004091200150E0415051092417350734F01D
:103C0000819580931901813009F41C82DF91CF9155
:103C10001F9108958F929F92AF92BF92CF92DF92A1
:103C2000EF92FF920F931F93CF93DF93EC018A8162
:103C300080FF03C0BB24BA9402C0BB24B3948C8120
:103C400081110DC081E0B81206C080912001815021
:103C500080939F0202C010929F0281E08C83A12C6E
:103C600090902001A91408F03EC080911E01CA2C3A
:103C7000D12C8601080F111DC801880F991F080F4C
:103C8000191F0E551D4FF80111821082128234E067
:103C9000E32EF12C812C80919F02880D813114F04C
:103CA0008F7002C087FD890D082E000C990BC81675
:103CB000D90691F48091D5028E9DA0018F9D500D63
:103CC0001124559547955595479598016091D402D3
:103CD0008091D3020E9436298B0CF1E0EF1AF10893
:103CE000D1F6A394BDCF0E94362880919F0291E027
:103CF000B9120EC0811107C08091200181508093BC
:103D00009F021C820FC0815080939F02BC820AC018
:103D100090E001966091200170E00E94552E809302
:103D20009F028C83DF91CF911F910F91FF90EF90B5
:103D3000DF90CF90BF90AF909F908F900895FF92AB
:103D40000F931F93CF93DF93EC01F12C0FEF10E053
:103D500060912001F616F0F480911E012F2D30E0C5
:103D6000280F311DC901880F991F280F391F2E55A3
:103D70003D4F70E0C8010E94552E962F8C814091D6
:103D8000D5026091D402F99E800D11240E9436293B
:103D9000F394DECF0E9436289A818C8190FF02C076
:103DA0008F5F01C081508C83DF91CF911F910F9164
:103DB000FF9008950F931F93CF93DF9300D01F922E
:103DC000CDB7DEB78C018091A10281110AC09E019E
:103DD0002F5F3F4F4FEF6FEF0E9436298A8180930C
:103DE000A102F8018481813051F028F0823061F421
:103DF0004091A1020AC08091A10240E007C06091F9
:103E0000A10240E080E003C040E080E060E00E946A
:103E1000BD28F801848190E0019663E070E00E9483
:103E2000552E84830F900F900F90DF91CF911F91AB
:103E30000F910895CF93DF93EC01E2EDF2E043811F
:103E400062818C810E94CC298C818F5F8C83DF9171
:103E5000CF910895CF93DF93EC01EC81F0E0ED502A
:103E6000FD4F4491E2EDF2E0628181810E94CC2914
:103E70008C818F5F8C83DF91CF9108958093E602D0
:103E80007093E8026093E70280918B028430F9F42A
:103E90008093E9008FEF9091E800815095FD06C076
:103EA00095ED9A95F1F700008111F5CF8091E8002A
:103EB00085FF0DC040E050E063E070E086EE92E0E8
:103EC0000E94551C8091E8008E778093E800089549
:103ED00081E08093E00080E28093D8001092C900D6
:103EE0008FE19EE40197F1F700C0000087E090EBBE
:103EF000DC018093230390932403A0932503B093C4
:103F000026039CE088E10FB6F894A89580936000A2
:103F10000FBE90936000FFCF78941F920F920FB660
:103F20000F9211248F939F93AF93BF938091E202DE
:103F30009091E302A091E402B091E5020196A11DE7
:103F4000B11D8093E2029093E302A093E402B09348
:103F5000E502BF91AF919F918F910F900FBE0F908F
:103F60001F9018959C014FB7F8948091E2029091B0
:103F7000E302A091E402B091E5024FBF821B930BD4
:103F800008952FB7F8946091E2027091E302809156
:103F9000E4029091E5022FBF08952FB7F894809125
:103FA000E2029091E302A091E402B091E5022FBFFA
:103FB00008951F920F920FB60F9211248F939F9323
:103FC000AF93BF938091E102811113C08091E2020F
:103FD0009091E302A091E402B091E5024196A11D07
:103FE000B11D8093E2029093E302A093E402B093A8
:103FF000E502BF91AF919F918F910F900FBE0F90EF
:104000001F9018959C012A5F3F4FFC014281461387
:1040100001C01282019682179307B9F708959C0197
:10402000FC0132969FEF80E04191461789F09F3F57
:1040300019F4411101C0982F8F5F8630A9F79F3F77
:1040400039F0F901E90FF11D97FDFA9562830895A2
:1040500008952091DF023091E0022817390771F0AE
:104060009093E0028093DF02E091DD02F091DE02A6
:10407000309721F00084F185E02D09940895209176
:10408000DB023091DC022817390771F09093DC02D3
:104090008093DB02E091DD02F091DE02309721F0A7
:1040A0000680F781E02D099408950E944425882315
:1040B00051F0E091DD02F091DE02309721F00190A5
:1040C000F081E02D099480E008950F931F93CF9322
:1040D000DF93C42FD22FFC0182818823C9F0409343
:1040E000DA020E94CD1F9093D9028093D80280E219
:1040F0008C0F883008F057C0C77081E001C0880F6E
:10410000CA95EAF7DF91CF911F910F910C94C316D6
:104110008091DA02481330C08091D8029091D90280
:104120000E94B21F883C910538F510E21D0FCD1793
:10413000B9F080E28C0F883040F4C77081E001C094
:10414000880FCA95EAF70E94BC16183028F581E05E
:104150009D2F977001C0880F9A95EAF70E94C316A9
:10416000802F0E94CD161830F0F4D77081E001C086
:10417000880FDA95EAF70AC080E28C0F883098F44D
:10418000C77081E001C0880FCA95EAF7DF91CF912F
:104190001F910F910C94BC16802FDF91CF911F912E
:1041A0000F910C94CD16DF91CF911F910F9108952F
:1041B000CF93DF93C7EAD2E060E0CE010E94FD2DED
:1041C0002196C11584E0D807B9F7DF91CF91089502
:1041D000CF92DF92EF92FF920F931F93CF93DF93D3
:1041E000C0E0D0E08E0100561F4F6E0180E1C80E86
:1041F000D11CFE01ED50FC4FE590F4906F2DCE01E7
:1042000087960E94FD2D6E2DCE0188960E94FD2D71
:104210002296CC15DD0569F70C171D0731F7E8016B
:1042200000381240F9F6DF91CF911F910F91FF9066
:10423000EF90DF90CF9008950F931F93CF93DF936C
:10424000C42FD0E0CC0FDD1F20E1629FC00DD11D37
:10425000112430EA839FC00DD11D1124CE01879611
:104260000E94E92D082F10E0102F0027CE0188961C
:104270000E94E92D9801282BC901DF91CF911F9150
:104280000F910895462F843038F47A3028F468303E
:1042900018F4672F0C941C2180E090E00895FC0135
:1042A000680F791F8FEF91E3E617F70771F02191FF
:1042B000822728E030E087FF03C0880F892701C0EC
:1042C000880F21503109B9F7EFCF089586E290E0C9
:1042D0000C94FD2DCF93C82F811102C06FEF01C048
:1042E00062E283E290E00E94FD2DC11102C06FEFF7
:1042F00001C064E084E290E00E94FD2DC11102C083
:104300006FEF01C061E085E290E0CF910C94FD2D4C
:1043100080E00E946A2160E070E0CB010E9466218B
:104320000E94E8200E94D82081E00C946A2183E258
:1043300090E00E94E92D823281F484E290E00E94B4
:10434000E92D843051F485E290E00E94E92D91E05E
:10435000813009F090E0892F01C080E081700895DC
:104360008F929F92AF92BF92CF92DF92EF92FF9285
:104370000F931F93CF93DF93843048F4811108C0CB
:10438000909180009F77909380002D9806C083E0E5
:1043900090918000906890938000A0918600B091E9
:1043A0008700282F30E00E94A02E23E030E040E07C
:1043B00050E00E94692E0027122F232F342F012F47
:1043C000122F232F332780918600909187006CE075
:1043D00070E00E94412E6017710730F0C80169E05B
:1043E00070E00E94412E5EC080918600909187000F
:1043F000E0908600F0908700E0918600F0918700C1
:10440000C6E0D0E0BE010E94412E060F171F211DFD
:10441000311D4801590185E0880C991CAA1CBB1C60
:104420008A95D1F7C701BE010E94412E6F01E12C90
:10443000F12CA7019601260F371F411D511DC50103
:10444000B4010E94692E69017A01E0918600F09121
:104450008700CA01B9010E94312E9B01AC01DF0126
:104460000E94B62E9B01AC01C701B6010E94312EFD
:10447000DC01CB012FE0B695A795979587952A95F6
:10448000D1F7009186001091870020E030E00817F6
:1044900019072A073B0728F460918600709187006E
:1044A000CB01BC017093890060938800DF91CF91AC
:1044B0001F910F91FF90EF90DF90CF90BF90AF9042
:1044C0009F908F900895682F86E090E00C94FD2DCA
:1044D000843008F083E09091D7029770282F220F44
:1044E000220F220F922B9093D702987F21E009F49C
:1044F00020E09091D70220FB90F99093D7020C9482
:10450000B0210E9468228091D7020C94632280918E
:10451000D70280FD13C081608093D702813019F4E7
:1045200089E08093D7028091D7020E946322809114
:10453000D7028695869586950C94B02108950E94A1
:10454000BF1281110AC00E94CA128091D7028470E2
:1045500089618093D7020E94632286E090E00E94E6
:10456000E92D8093D702282F26952695269530E0B1
:104570002430310524F0877088618093D7028091C0
:10458000D70280FF04C086958695869501C080E09D
:104590000C94B0219091D20290FF04C09695981788
:1045A00040F003C0811105C090E0961710F40C9400
:1045B0002A2B61E00C94E12A882311F0FA0101C052
:1045C000FB010994ECE9F2E011828281846082832C
:1045D00008956091D202669570E04BE050E08EE065
:1045E00091E00E94C92E892B19F481E080939D02ED
:1045F0000E94F125909397028093960280919E02EB
:10460000846080939E02089580E00895AF92BF92E7
:10461000CF92DF92EF92FF920F931F93CF93DF938E
:104620007C015B016A01809122038A3018F001E06D
:1046300010E002C00AE010E0C1E0D0E0F894B5015B
:10464000C701F60109957894811115C021960C17C0
:104650001D0794F0CC9F9001CD9F300D300D11249B
:1046600080E090E045E34A95F1F70000019682175B
:104670009307C1F7E3CF81E0DF91CF911F910F91B5
:10468000FF90EF90DF90CF90BF90AF9008958F9202
:104690009F92AF92BF92CF92DF92EF92FF920F93D1
:1046A0001F93CF93DF93FB0180809180A280B38022
:1046B0009FB7F894C090E202D090E302E090E40249
:1046C000F090E5029FBFC818D908EA08FB08F4E695
:1046D000CF16D104E104F10410F4442341F17B012D
:1046E000C82F880FDD0B01151105A9F0FE0183E02D
:1046F000EE0FFF1F8A95E1F7EF5DFE4F81819281FA
:104700008F5F9C4F408150E00417150708F4A80103
:10471000B9010E94E32ECE010E946E2D882341F044
:104720000E94C11FF701608371838283938381E0BC
:10473000DF91CF911F910F91FF90EF90DF90CF907D
:10474000BF90AF909F908F9008950F931F93CF933A
:10475000DF93CDB7DEB728970FB6F894DEBF0FBE54
:10476000CDBF85E0E2EDF2E0DE01119601900D9201
:104770008A95E1F780919C0290919D02A0919E0202
:104780008E839F83A88741E08885811101C040E026
:1047900008E010E09E012F5F3F4F6EE173E086E07E
:1047A0000E944723811110929E0228960FB6F8941A
:1047B000DEBF0FBECDBFDF91CF911F910F91089546
:1047C0000F931F93CF93DF931F92CDB7DEB78091E6
:1047D000D70280FF04C086958695869501C080E04B
:1047E000898341E090910D03981301C040E001E0FE
:1047F00010E09E012F5F3F4F6AE173E085E00E9469
:1048000047230F90DF91CF911F910F9108956F92E1
:104810007F928F929F92AF92BF92CF92DF92EF9250
:10482000FF920F931F93CF93DF931F92CDB7DEB705
:10483000C62E4A015901682E880F7708C3010E94CD
:104840006E2D882309F473C0C30123E0880F991FDC
:104850002A95E1F7FC01EF5DFE4F438150E04115E1
:10486000510511F041E050E0FC01EF5DFE4F648125
:1048700075816F5F7C4FCE0101960E94E32EF4019B
:1048800040815181628173812FB7F8948091E20257
:104890009091E302A091E402B091E5022FBF841B46
:1048A000950BA60BB70B84369105A105B10538F41D
:1048B000B701C8010E944F2199818917D1F10C2CB1
:1048C000000CDD08C6010E946E2D782E8823E1F0D1
:1048D000E114F104C9F0960183E0220F331F8A9599
:1048E000E1F7F901EF5DFE4F438150E0E416F50674
:1048F00008F4A701F901EF5DFE4F648175816F5FD8
:104900007C4FC5010E94E32EB701C8010E944F21D0
:1049100091E02981281390E0D92ED72089F00E94B8
:10492000C11FF401608371838283938309C0D12CFA
:1049300002C0DD24D394A701B801C5010E94E32E73
:104940008D2D0F90DF91CF911F910F91FF90EF90E0
:10495000DF90CF90BF90AF909F908F907F906F909F
:104960000895CF92DF92EF92FF920F931F93CF9310
:10497000DF931F92CDB7DEB7EE24E394F12C08E06D
:1049800013E09E012F5F3F4F4DEF52E063E082E066
:104990000E940724C82E882379F1D090F4018D2D30
:1049A00090E09C012D5F3D4F79011981F9018081D3
:1049B000181B012F80E010165CF40150F701808174
:1049C0008F5F808360E08D2D0E94A60481E0F3CF8D
:1049D000912F17FD90E0191B112359F01F5FF7016C
:1049E00080818150808361E08D2D0E94A60481E04A
:1049F000F3CF81110E94AC128C2D0F90DF91CF91DB
:104A00001F910F91FF90EF90DF90CF900895CF927C
:104A1000DF92EF92FF920F931F93CF93DF9300D01B
:104A200000D01F92CDB7DEB76B0185E0E82EF12CE8
:104A300002E013E09E012F5F3F4F49EF52E061E03B
:104A400080E00E940724882349F095E0FE0131961A
:104A5000A4EFB2E001900D929A95E1F795E0E4EFB2
:104A6000F2E0D60101900D929A95E1F70F900F9028
:104A70000F900F900F90DF91CF911F910F91FF90AA
:104A8000EF90DF90CF9008958091F302811118C0CC
:104A90008091D80080618093D8008AE18A95F1F7EF
:104AA00000C08091D90080FD02C082E001C081E099
:104AB0008093F302823021F40E94CB1A10928B0271
:104AC00081E09091F302913009F080E008950F9316
:104AD0001F930E944425882321F01F910F910C946D
:104AE000C11F0E94C11F0091E1011091E2012091BC
:104AF000E3013091E401600F711F821F931F1F912A
:104B00000F910895CF93DF9300D000D0CDB7DEB7DB
:104B10004091160350911703609118037091190387
:104B20002FB7F8948091E2029091E302A091E40201
:104B3000B091E5022FBF841B950BA60BB70B8436F3
:104B40009105A105B10570F10E946725DC01CB013B
:104B50000296A11DB11D89839A83AB83BC8380918A
:104B60004201909143018F5F9C4F4091410150E081
:104B70004530510510F044E050E0BE016F5F7F4FBB
:104B80000E94E32E84E090E00E946E2D882359F06D
:104B90000E94C11F6093160370931703809318033C
:104BA0009093190381E00F900F900F900F90DF9179
:104BB000CF910895F894E82FE295EF70F0E031A1DD
:104BC000282F2F7081E090E001C0880F2A95EAF726
:104BD000982F9095932391A392A1892B82A37894E7
:104BE00008950E94442581110C94CD1F0E946725D1
:104BF000CB0108959091F10192FF0DC0282F2871EB
:104C0000283019F4877F846006C0282F247124304F
:104C100011F48B7F886093FF0DC0282F28712831F5
:104C200019F4877E846106C0282F2471243111F481
:104C30008B7E88612091F20120FF0DC0382F3871E2
:104C4000383019F4877F816006C0382F31713130D8
:104C500011F48E7F886021FF0DC0282F2871283124
:104C600019F4877E816106C0282F2171213111F44A
:104C70008E7E886194FD877E08955F926F927F9209
:104C80008F929F92AF92BF92CF92DF92EF92FF925C
:104C90000F931F93CF93DF93CDB7DEB72F970FB648
:104CA000F894DEBF0FBECDBF9E012F5F3F4F79014D
:104CB0008AE0D9011D928A95E9F709E511E06901B9
:104CC0008EE5682E81E0782EAA24A394B12C26E6E6
:104CD000822E21E0922EF80180818F3F09F440C09E
:104CE000F894E82FE295EF70F0E021A18F70A50114
:104CF00002C0440F551F8A95E2F7CA01922F982BE4
:104D000091A392A18095892382A3789400C0EEE5B7
:104D1000F1E0512C31E021912F3F89F0A22FA29593
:104D2000AF70B0E090968C9190E02F7002C0959596
:104D300087952A95E2F780FD02C0832F01C080E0AD
:104D4000582A330F8E169F0631F7D8018C918F3F6A
:104D500011F00E94DA25B0EABA95F1F7F601508217
:104D60000F5F1F4FFFEFCF1ADF0A6016710609F0C1
:104D7000B2CF4AE050E0B70185EE91E00E94D62E16
:104D80008C01892B41F08AE0F701A5EEB1E001909A
:104D90000D928A95E1F7F090F0010115110549F0A7
:104DA00081E08093EB020E94CD1F9093EA028093F2
:104DB000E9028091EB028823B9F08091E902909199
:104DC000EA020E94B21F059778F0A5EEB1E0EF2D40
:104DD000F0E0E75FFD4F8AEE91E02D9121938A1775
:104DE0009B07D9F71092EB020115110509F011C1CB
:104DF0000E944425E091F0019E01255F3F4F79011B
:104E0000882309F46DC085E0D9011D928A95E9F7E0
:104E10000E2F10E0075F1D4F809122038A3048F467
:104E200047E055E2B701C8010E940623882359F1E3
:104E30000AC08091EC029091ED020E94B21F843F63
:104E4000914070F732C041EB54E2B701C8010E94B3
:104E500006238823C1F042E855E2B701C8010E9449
:104E60000623882381F040EE53E2B701C8010E9477
:104E70000623882341F045EA53E2B701C8010E94A6
:104E800006238111C9C0809122038F3F19F08F5FE3
:104E900080932203809122038A3008F4BFC00E94CD
:104EA000CD1F9093ED028093EC028091F20281116C
:104EB00002C000E0C4C085E0F70111928A95E9F7CD
:104EC0001092F202A091EF01B0E0A75FBD4F85E024
:104ED000FE013B9601900D928A95E1F701E0AFC08B
:104EE000F0E0E75FFD4FF89485E0A2E0B3E00190C9
:104EF0000D928A95E1F765E070E082E093E00E9410
:104F00004F21809301037894F894E0910602F0E039
:104F1000ED5FFD4F80818B878093080361E070E037
:104F2000C7010E944F21809307037894F894C090A2
:104F30000903D0900A03E0900B03F0900C038091DA
:104F4000EE029091EF02A091F002B091F102C8162A
:104F5000D906EA06FB06D1F0C092EE02D092EF022B
:104F6000E092F002F092F1020E94442581110EC0FD
:104F70000E94C11FC61AD70AE80AF90AC092E101C5
:104F8000D092E201E092E301F092E4017894F89487
:104F900080910D030E94B0217894F89480911503BC
:104FA0008823A9F180FF10C080910E0380FF0AC002
:104FB0009091D20291609093D20260E086950E9417
:104FC000E12A02C00E94CA2A8091150381FF09C00C
:104FD00020E0409111036091100380910F030E9423
:104FE000E6298091150382FF09C08091140388236C
:104FF00019F00E94E92202C00E94E222809115036A
:1050000083FF03C081E08093990210921503789486
:1050100016C001E010E013C0109222038091EF014E
:1050200090E045E050E0B701875F9D4F0E94D62E8B
:1050300021E02093F202892B09F044CF3ACF802F50
:105040002F960FB6F894DEBF0FBECDBFDF91CF9184
:105050001F910F91FF90EF90DF90CF90BF90AF9096
:105060009F908F907F906F905F900895CF92DF9286
:10507000EF920F931F93CF93DF93CDB7DEB7E097F7
:105080000FB6F894DEBF0FBECDBF60911D018091B9
:10509000D20280FF0AC0E8E7F7E0AE014F5F5F4F42
:1050A0008E010F5C1F4FCA0114C080911E019091A8
:1050B0001F01891780F7E82FF0E09F01220F331FAF
:1050C000E20FF31FEE55FD4F1182108212828F5FA7
:1050D000F0CF249130E0D901AA0FBB1F2A0F3B1F4C
:1050E000D901AE55BD4FCD90DD90EC90DA01CD9257
:1050F000DD92ED92AD013196A017B10751F72091E5
:105100001C01FC01B3E02B9FE00DF11D11246E9AF0
:105110008EB18F7B9EB190642FB7F894AF0133E0CE
:10512000639F400D511D1124E417F50789F031915B
:1051300068E09EB9000000C037FF8EB9330F000051
:1051400000C000C000C08EB900C06A9591F7ECCFD6
:105150002FBF8FE594E00197F1F700C00000E096C3
:105160000FB6F894DEBF0FBECDBFDF91CF911F9178
:105170000F91EF90DF90CF9008959091D20290FF21
:1051800016C090911E0120911F01921770F4E92F13
:10519000F0E0DF01AA0FBB1FEA0FFB1FEE55FD4F2A
:1051A0008183608342839F5FF0CF0C9436280895FB
:1051B0008091D202282F269530E02115310519F46F
:1051C0008170826005C02532310524F081708864C9
:1051D0008093D2020895CF92DF92EF92FF926B01FB
:1051E0007C010E94D828B701A60188E090E0FF90DA
:1051F000EF90DF90CF900C940F2E8091D6028823F1
:1052000019F081508093D6026091D2027091D3023E
:105210008091D4029091D5020C94EB288091D60213
:10522000833018F48F5F8093D6026091D202709120
:10523000D3028091D4029091D5020C94EB28E2ED38
:10524000F2E087E1808311828FEF8283838314826F
:10525000ACE9B2E012968C911297836012968C930F
:1052600060817181828193810C94EB28AF92BF920F
:10527000CF92DF92EF92FF920F931F93CF93DF9322
:10528000E82EF62EE901E42FF0E0611106C0ED589A
:10529000F94FE4914E2F2E2F71C0062F10E0ED58DC
:1052A000F94F4491F42FC42ED12C26E0829FC001E7
:1052B00011242FEF30E0B9010E94412E5BEA560322
:1052C000C001579F900D11248E0D911D8E0D911DC3
:1052D000582F550F580FD901A01BB10BAC9DC00121
:1052E000AD9D900DBC9D900D1124E92FF59ED00130
:1052F0001124AB2FBB277901EA1AFB0AEC9CD001E1
:10530000ED9CB00DFC9CB00D11245901A51AB108FB
:10531000A09E7001A19EF00CB09EF00C1124EF2C09
:10532000FF242E193F092C9D80012D9D100D3C9DC1
:10533000100D1124212F6230710591F048F4611590
:105340007105E1F061307105B9F4242F4B2F16C0BF
:105350006430710569F040F06630710579F00CC079
:10536000242F492FE12F0AC0492FEF2F2B2F06C0E2
:10537000292FE42F412F02C0292FEB2F49832883A7
:10538000EA83DF91CF911F910F91FF90EF90DF9013
:10539000CF90BF90AF900895CF93DF9300D01F922E
:1053A000CDB7DEB79091D20290FF0AC09E012F5F69
:1053B0003F4F0E9436294B8169818A810E94BD2816
:1053C0000F900F900F90DF91CF910895AF92BF9201
:1053D000CF92DF92EF92FF920F931F93CF93DF93C1
:1053E00000D01F92CDB7DEB7182FF62E042FE22E75
:1053F0009091D20290FF7EC0E92FE695AE2FB0E0EB
:10540000A854BE4F8C9180939C029E7F923061F491
:105410009E012F5F3F4F812F0E9436294B8169816A
:105420008A810E94BD2843C0823019F40091D502C0
:105430003EC0863019F41091D30239C08930D9F3B7
:105440008931A9F5E9518E2F8170D82EE695F0E0CB
:10545000ED58F84FA590B490C12CBB246091200169
:10546000C61618F52C2D30E0A29EC001A39E900D0B
:10547000B29E900D112470E00E94412E812FD11018
:1054800002C0860F01C0861B90911E01290F311D9D
:10549000A901440F551F240F351F2E553D4F402F96
:1054A0006F2D0E943629C394D9CF0E94362880914F
:1054B000D302181308C08091D402F81204C080915E
:1054C000D502081729F080919E02826080939E0287
:1054D0001093D302F092D4020093D502EE2051F043
:1054E0006091D2027091D3028091D4029091D50242
:1054F0000E94EB280F900F900F90DF91CF911F919A
:105500000F91FF90EF90DF90CF90BF90AF900895F4
:10551000E2EDF2E0438121E1421B08F440E021E0AA
:10552000628181810C94E629E2EDF2E0438121E180
:10553000420F08F44FEF21E0628181810C94E6294B
:10554000E2EDF2E0628121E1621B08F460E021E01B
:10555000438181810C94E629E2EDF2E0628121E150
:10556000620F08F46FEF21E0438181810C94E629FA
:10557000E2EDF2E0818121E04381628188500C9468
:10558000E629E2EDF2E0818121E043816281885FDA
:105590000C94E629E2EDF2E080818E7F80830E9408
:1055A000E222ECE9F2E08281816082832FEF80E7E2
:1055B00092E0215080409040E1F700C000000C9440
:1055C00036289091D20290FF3BC09170811102C0A9
:1055D000926006C0853210F0986402C0880F982B44
:1055E0009093D20280919E02816080939E026623F6
:1055F00051F06091D2027091D3028091D4029091C7
:10560000D5020E94EB286091D202669570E04BE0D3
:1056100050E08EE091E00E94C92E892B19F00E9483
:10562000E22202C00E94E92281E08093990220E0F8
:105630004091D5026091D4028091D3020C94E62966
:1056400008958091D2028695815009F484E261E048
:105650000C94E12A8091D20286958F5F853208F002
:1056600081E061E00C94E12A882309F453C0682F9B
:10567000823869F40E94552081FF4CC069E383E1C0
:1056800092E00E940F200E94461369E30EC0833807
:1056900091F40E94552080FF3DC063E583E192E0D4
:1056A0000E940F200E94461363E583E192E00E946E
:1056B00002200C944613843869F40E94552082FF1E
:1056C00029C067E483E192E00E940F200E94461304
:1056D00067E4EBCF8CEF860F813A38F380E2860FD8
:1056E000883048F4677081E001C0880F6A95EAF756
:1056F0000E943F13DECF8BE5860F833020F480E0DD
:1057000090E00C943F20685A673120F480E090E0EC
:105710000C9429200895CF93882309F496C0C82FAC
:105720008238B1F40E94552081FD8FC069E383E186
:1057300092E00E940F200E9446132FEF81EE94E02A
:10574000215080409040E1F700C0000069E317C09D
:105750008338E1F40E94552080FD77C063E583E142
:1057600092E00E940F200E9446132FEF81EE94E0FA
:10577000215080409040E1F700C0000063E583E1E4
:1057800092E00E940220CF910C9446138438B1F429
:105790000E94552082FD59C067E483E192E00E9497
:1057A0000F200E9446132FEF81EE94E0215080409D
:1057B0009040E1F700C0000067E4E1CF8CEF8C0F70
:1057C000813A80F4E5E1F2E08BE192E02191C217A9
:1057D000A1F18E179F07D1F76C2F83E192E00E9411
:1057E0000F20D1CF80E28C0F883068F4C77081E041
:1057F00090E001C0880FCA95EAF790917B02892B4F
:1058000080937B02C0CFEBE5EC0FE33040F4F0E097
:10581000EA58FE4F808190E0CF910C943F20C85A07
:10582000C73198F4EC2FF0E0EE0FFF1FE758FE4F62
:1058300080819181CF910C9429206C2F83E192E09B
:105840000E9402200E944613C7CFCF9108958EE197
:10585000489B02C08150E1F7489BFECF08955898BD
:1058600080E28A95F1F7589A0895FC012AE02A957A
:10587000F1F728E090E080E031E040E14A95F1F76F
:10588000880F489B02C08160932700C0000040E160
:105890004A95F1F7215089F720E12A95F1F729B1CE
:1058A00000C0000030E13A95F1F721709227208185
:1058B000920F90830895EF92FF920F931F93CF93CF
:1058C000DF931F92CDB7DEB719828C017C01E60E03
:1058D000F11C0E151F0551F00E94272CCE010196D8
:1058E0000E94352CF80181938F01F3CF81E09981DB
:1058F000911180E00F90DF91CF911F910F91FF9058
:10590000EF900895509A589A08955098589AE89AA6
:10591000E9E6F0E080818C7F80830895615091E01A
:1059200001C0990F6A95EAF720E031E0992361F010
:10593000492F482319F0589A232701C0589840E26C
:105940004A95F1F79695F2CF222311F0589A01C0AB
:10595000589880E28A95F1F758980895FF920F932E
:105960001F93CF93DF93EC018C01060F111DC0171D
:10597000D10741F0F9900E942F2C68E08F2D0E94F2
:105980008E2CF5CFDF91CF911F910F91FF9008954D
:105990001F920F920FB60F9211240F931F932F9304
:1059A0003F934F935F936F937F938F939F93AF93A7
:1059B000BF93EF93FF93CF93DF931F92CDB7DEB7E3
:1059C00019820E94272CCE0101960E94352C082FA7
:1059D000069506950695902F96959570202F257023
:1059E000920F292F237096959695920F87708913A1
:1059F0005FC0898181115CC0083008F059C080E126
:105A00008A95F1F7589A509A82E08A95F1F700C08A
:105A1000589888E0089F80011124D801AF5DBE4FDF
:105A20001696ED91FC9117973097A9F06091B60109
:105A30007091B70114962D913C911597260F371F41
:105A400011968D919C911297680F791F13964C9126
:105A500013978C910995F801EF5DFE4F63816623E2
:105A600051F08091B6019091B70124813581820F68
:105A7000931F0E94AE2C0E942F2C80E18A95F1F793
:105A800058985098589A80E18A95F1F7F801EF5D9F
:105A9000FE4F6081662351F08091B6019091B7016D
:105AA00021813281820F931F0E945B2C0E94272C40
:105AB0000F90DF91CF91FF91EF91BF91AF919F91A7
:105AC0008F917F916F915F914F913F912F911F9196
:105AD0000F910F900FBE0F901F9018950F931F936B
