:100000000C9480030C94B8030C94B8030C94B803BC
:100010000C94B8030C94B8030C94B8030C94B80374
:100020000C94B8030C94B8030C94B4270C94692670
:100030000C945A290C94B8030C94B8030C94B8038C
:100040000C94B8030C94B8030C94B8030C94B80344
:100050000C94B8030C940D290C94B8030C94B803B9
:100060000C94B8030C94B8030C94B8030C94B80324
:100070000C94B8030C94B8030C94B8030C94B80314
:100080000C94B8030C94B8030C94B8030C94B80304
:100090000C94B8030C94B8030C94B8030C94B803F4
:1000A0000C94B8030C94B8030C94B8033D083D08B5
:1000B00070087008E30801090D0A0D0A0C0980098F
:1000C00091099109F70EFA0E190F260F2D0F4D0FFA
:1000D000EA0FEA0FEA0FEA0FEA0F500F520F560F1E
:1000E0007C0F9F0FA20FA50FC90F681F8F1F38210C
:1000F0008F1F3821DB1FFE1F3821F3200321000052
:1001000000000000000000000000000000000000EF
:1001100000000000000000000000000000000000DF
:1001200000007E0F00D4FFFFFFC700000078000032
:100130000000000000002A2B280000000000000042
:1001400000000000000000000029000000002C1E3C
:100150003420212224342627252E362D3738271EF9
:100160001F202122232425263333362E37381F041F
:1001700005060708090A0B0C0D0E0F1011121314B7
:1001800015161718191A1B1C1D2F3130232D350475
:1001900005060708090A0B0C0D0E0F101112131497
:1001A00015161718191A1B1C1D2F3130354C050157
:1001B0000902A10185020901A10005091901290807
:1001C00015002501950875018102050109300931E5
:1001D0001581257F95027508810609381581257FCF
:1001E000950175088106050C0A38021581257F9551
:1001F0000175088106C0C005010980A101850319A8
:10020000012AB700150126B700950175108100C0BD
:10021000050C0901A101850419012AA00215012676
:10022000A002950175108100C005010906A1018594
:1002300006050719E029E7150025019508750181D4
:10024000020507190029EF1500250195F0750181B8
:100250000205081901290595057501910295017599
:10026000039101C00660FF0961A101096215002622
:10027000FF009520750881020963150026FF00958F
:100280002075089102C005010906A101050719E0C2
:1002900029E715002501950875018102950175086A
:1002A00081010507190029FF150026FF0095067535
:1002B0000881000508190129059505750191029528
:1002C0000175039101C009025B00030100A0FA0956
:1002D0000400000103010100092111010001224075
:1002E0000007058103080001090401000203000062
:1002F00000092111010001222200070582032000CC
:1003000001070503032000010904020001030000A6
:100310000009211101000122B60007058403200015
:10032000011201000200000008636C696C01000109
:1003300002000116034C006100740069006E003673
:1003400000300052004700420000001A036C0061B8
:1003500000740069006E0063006F006D0070006142
:10036000007300730000000403090400AC9CBC008F
:10037000AB9BBB00AA9ABA00A999B900A898B8008B
:10038000A797B700A696B600A595B500A494B400AB
:10039000A393B300A292B200A191B100A090B000CB
:1003A0007F6F8F007E6E8E007D6D8D007C6C8C006B
:1003B0007B6B8B007A6A8A0079698900786888008B
:1003C00077678700766686007565850074648400AB
:1003D00073638300726282007161810070608000CB
:1003E0004F3F5F004E3E5E004D3D5D004C3C5C006B
:1003F0004B3B5B004A3A5A0049395900483858008B
:1004000047375700463656004535550044345400AA
:1004100043335300423252004131510040305000CA
:100420001F0F2F001D0D2D001C0C2C001B0B2B0073
:100430001A0A2A0019092900180828001707270096
:1004400016062600150525001404240013032300B6
:10045000120222001101210010002029001E001F9D
:100460000020002100220023002400250026002770
:10047000002D002E002A002B0014001A0008001581
:100480000017001C0018000C00120013002F003091
:10049000004C00390004001600070009000A000B98
:1004A000000D000E000F003300340028000000E1B2
:1004B000001D001B00060019000500110010003689
:1004C0000037003800E50001510251E000E3002C44
:1004D000004B004E00000000000000000000000083
:1004E00000000000000000C25C3A003B003C003D00
:1004F000003E003F004000410042004300440045F0
:10050000000100010001005200010001000100B2E1
:1005100000010049000100460047004800005C015E
:1005200000500051004F00010001000100010001D6
:100530000001004A00520001000000AC00AA00A91E
:1005400000A80001000100145C01000100500051EE
:10055000004F0001000100E2000100010001000164
:10056000000000000000000000000000000000008B
:10057000000000C25CC35CC55CC65CC75CC85CC9EB
:100580005CCA5CC35CCB5CCC5C440045004C0001A5
:1005900000C25C0100C55CC65CC75CC85CC95CCAC3
:1005A0005CC35C010001000100005C01000100016E
:1005B0000001000100010001000100CB5CCC5C01E6
:1005C0000001000100000001000100010001000124
:1005D0000001000100010001000100010001000113
:1005E0000001000100010001000100010000000005
:1005F00000000000000000000000000000000000FB
:1006000001010101010101010102020202020202D3
:1006100002020303030303030303040404040404A6
:10062000040505050505060606060607070707076C
:1006300008080808090909090A0A0A0B0B0B0C0C1F
:100640000C0D0D0D0E0E0E0F0F0F101011111112BB
:100650001213131414151516161717181819191A3A
:100660001A1B1B1C1D1D1E1E1F202021222223249D
:1006700024252626272829292A2B2C2D2D2E2F30DC
:10068000313232333435363738393A3B3C3D3E3FF0
:10069000404142434445464748494A4C4D4E4F50DD
:1006A000515354555658595A5B5D5E5F616264659B
:1006B0006668696B6C6D6F7072737577787A7B7D25
:1006C0007E8082838587888A8C8E8F919395969879
:1006D0009A9C9EA0A2A3A5A7A9ABADAFB1B3B5B795
:1006E000BABCBEC0C2C4C6C9CBCDCFD1D4D6D8DB6C
:1006F000DDDFE2E4E7E9EBEEF0F3F5F8FAFDFF0009
:1007000011241FBECFEFDAE0DEBFCDBF04B603FE7B
:1007100018C080911F0690912006A0912106B091EB
:1007200022068730904BA740B04B59F410921F0619
:10073000109220061092210610922206E0E0F8E3C3
:10074000099512E0A0E0B1E0E6E0F5E602C0059010
:100750000D92A237B107D9F726E0A2E7B2E001C0B7
:100760001D92AF31B207E1F70E94DC0A0C9481328E
:100770000C9400001F93CF93DF93CDB7DEB767973C
:100780000FB6F894DEBF0FBECDBF4B8B5C8B6D8B6D
:100790007E8B8F8B611110920E0386E09E01235F8A
:1007A0003F4FD901E82F1D92EA95E9F795E0FE0148
:1007B0007396D90101900D929A95E1F79C894E8923
:1007C0005F897B897D879E876F87598B488BF9016D
:1007D000DE01179601900D928A95E1F7CE010796FA
:1007E0000E94D81381113EC086E0FE013796DE01DB
:1007F000119601900D928A95E1F7FF81E8856A854F
:100800007B856115710531F0EF3F31F481E0FF3FE9
:1008100019F403C081E001C080E080FD23C0209175
:10082000BB0230E0C9010196877099274091EC0224
:1008300050E08417950779F1F983EA837D836C830F
:1008400096E0929FD001939FB00D1124A454BD4F08
:10085000FE01319601900D929A95E1F78093BB02CB
:100860000E94551316E08091EC029091BB0289170B
:10087000F9F0189FC001112484549D4F0E94D81391
:100880008823B1F08091EC0290E00196877099275F
:100890008093EC02E8CF0E94502F1092BB0210927E
:1008A000EC02E5EBF2E086E0DF011D928A95E9F7C4
:1008B00067960FB6F894DEBF0FBECDBFDF91CF9124
:1008C0001F9108953F924F925F926F927F928F9205
:1008D0009F92AF92BF92CF92DF92EF92FF920F93CF
:1008E0001F93CF93DF93CDB7DEB729970FB6F89458
:1008F000DEBF0FBECDBFFC01808191812381348199
:10090000232B31F09F3F31F491E08F3F19F403C066
:1009100091E001C090E090FD37C67F0185E0DE01E7
:10092000119601900D928A95E1F7F7012281898154
:100930009A81222349F00E948B2E182F682F8981DB
:100940009A810E94E62E03C00E94BA2E182F698158
:100950007A81812F0E949E238C01F7018281882356
:1009600009F4F2C0980122513F452031310508F0C9
:100970001DC18FEF93E00E94A5318111EFC002519C
:1009800037E5832E32E0932E002379F08114F4E0D2
:100990009F0609F4E3C0C4010E94A531811101C082
:1009A00001502FEF821A920AEFCF1E821F82188603
:1009B0001986442443942AE0322E84010F5F1F4F8E
:1009C000C4010E94A5318E831F82882309F4C6C00A
:1009D0009FEF980F933060F48F834E8232E0830E46
:1009E000911CC8010E94A5318887811102C0B6C040
:1009F00048018E010A5F1F4FF80120812223E9F28E
:100A0000213009F04CC08181813049F46801F2E065
:100A1000CF0ED11CF80182810E9420300AC08230A2
:100A200051F46801F2E0CF0ED11CF80182810E94DE
:100A3000A82F860186C0833049F46801F2E0CF0E0A
:100A4000D11CF80182810E94762FF3CF843019F0F7
:100A50000F5F1F4F76C0F80122810E5F1F4F80E0AD
:100A600090E030E0205331092A30310568F4389E97
:100A7000A001399E500D1124C901840F951F0F5FED
:100A80001F4FF8012081EDCF009709F45AC0EFE91C
:100A9000FFE03197F1F700C000000197F5CFE22F9A
:100AA000F0E0E25DFE4F5490822F86958695869504
:100AB00090E0FC01E25EFE4F64902770712C022EE4
:100AC00002C0759467940A94E2F7F1E06F227724EC
:100AD000FC01E25FFE4FA490B12C022E02C0B5943F
:100AE000A7940A94E2F731E0A322BB24FC01E25070
:100AF000FF4FC490D12C02C0D594C7942A95E2F739
:100B000081E0C822DD246114710419F081EE0E9495
:100B1000A82FA114B10419F086EE0E94A82F852DEC
:100B20000E942030AB2819F086EE0E94762F6728AD
:100B300019F081EE0E94762FCD2819F08CE20E94E8
:100B400020300F5F1F4F58CF00313FE5130709F0EA
:100B500099C481E00E94152F0E940D1E8091ED0224
:100B6000877009F411C5F7018281882309F40CC547
:100B70008091F20582FD08C582E029960FB6F894AF
:100B8000DEBF0FBECDBFDF91CF911F910F91FF90C0
:100B9000EF90DF90CF90BF90AF909F908F907F901D
:100BA0006F905F904F903F900C941B130031FFE5C6
:100BB0001F0711F481E005C001312FE5120721F470
:100BC00082E00E94212FC8CF033FFCE51F0749F4B4
:100BD00006E221EE40EE63EF7CE5C7010E9460254E
:100BE000BDCF043F2CE5120708F066C1083D3CE587
:100BF000130731F407E225EE45EE68ED7CE5EDCF15
:100C0000093D9CE5190731F408E221E045EE69ED64
:100C10007CE5E3CF073DECE51E0731F406E221EE6B
:100C200041EE67ED7CE5D9CF882309F47AC11092B3
:100C3000E50503309DE5190758F40A3FECE51E076A
:100C400080F4C80182509C45449708F054C109C003
:100C50000136FDE51F0729F0053A2DE5120709F0D9
:100C60004AC10E9433129093F2058093F10501313D
:100C70003CE5130709F4C6C008F042C009309CE502
:100C8000190709F49BC000F50530FCE51F0709F4BE
:100C900085C078F403303CE5130709F478C008F008
:100CA0007AC002301C4509F0F7C08091F1058160DF
:100CB000F1C00730ECE51E0709F478C008F07AC0EF
:100CC0008091F1058061E6C00D302CE5120709F432
:100CD00087C058F40B308CE5180709F479C008F088
:100CE0007BC08091F10588606FC00F30ECE51E0776
:100CF00009F480C008F082C08091F105877FCAC0E6
:100D00000D3F2CE5120709F471C000F505318CE5A3
:100D1000180709F485C068F40331ECE51E0709F4EF
:100D200075C008F095C00E94502F8091F1058F7713
:100D3000B1C00B3F2CE51207A9F108F054C00A3FDF
:100D40001C4509F0A9C08091F20540C001309DE525
:100D5000190709F489C058F40F3FFCE51F0709F48F
:100D60005AC008F069C08091F20582602FC0013638
:100D70003DE5130709F47EC0053A8DE5180709F42F
:100D800083C002301D4509F087C060E06EC08091CD
:100D9000F10582607FC08091F10516C08091F10558
:100DA000886078C08091F20582604FC08091F10523
:100DB000806270C08091F10580646CC00E94502FE9
:100DC0008091F105806866C0846064C081603DC028
:100DD0008091F1058E7F5EC08091F1058D7F5AC0B4
:100DE0008091F10516C08091F20518C08091F2053E
:100DF0008D7F2BC08091F1058F7E4CC08091F105D5
:100E00008F7D48C08091F1058F7B44C08091F105B2
:100E1000877F8B7F3FC08091F2058D7F8E7F15C0CD
:100E20008091F10582FB222720F991E0922790FB27
:100E300082F990FB83F92EC08091F205982F90954E
:100E400091708E7F892B90FB81F98093F20524C0ED
:100E50000E94502F8091F10587FB222720F991E015
:100E6000922790FB87F916C061E08EE090E00E9427
:100E7000C33112C08091F10584FB222720F991E053
:100E8000922790FB84F906C08091F105982F9095E8
:100E900090FB80F98093F1056091F1051091F205C6
:100EA00084E090E00E94C331612F82E290E00E94D2
:100EB000C3310E94502F52CE053FFCE51F0731F48D
:100EC00006E221EE42EE65EF7CE587CE053F2CE59C
:100ED000120730F407E225EE44EE64EF7CE57DCEA8
:100EE000063F3CE5130709F09FCE07E225EE46EEEC
:100EF00066EF7CE572CE06318CE5180721F580910E
:100F00000F038A7A91E009F490E0909374028823A9
:100F100011F065E301C069E285E992E00E94AB2926
:100F20000FC00631ECE51E0709F040C08091740245
:100F3000882309F4AEC265E385E992E00E94832923
:100F40000E94C6120BCE0A359DE5190749F158F4E7
:100F50000115FCE51F07B1F00E3D1C4509F040C02E
:100F60000E944F12FBCD0B353DE51307D9F00C3530
:100F70001D45B1F58091F20582FB882780F991E04B
:100F8000892711C00E94502F9FEFE4E3FCE09150AD
:100F9000E040F040E1F700C000000E94E928DECD0B
:100FA00081E001C080E00E9438131AC080910F03D5
:100FB00082720A3CECE51E0709F4CFC208F46BC24A
:100FC0000F3CFCE51F0709F4DBC208F493C2063DA1
:100FD0002CE5120708F49DC20D351D4509F4BECD60
:100FE000F701828100811181882349F0C8010E94A4
:100FF0008B2ED82E682FC8010E94E62E04C0C8018F
:101000000E94BA2ED82EB8018D2D0E949E230E94D8
:101010009910B82E192F982EF7010281A580A2945D
:101020009FE0A9228091ED028770B9F00023A9F01A
:10103000812F807F803421F080E28B0D883068F032
:101040008091F20582FD09C082E00E941B1380910D
:10105000ED028770DD24D3948111D12CC12EC2946E
:101060008FE0C8228C2D90E08C30910508F0D5C11E
:10107000FC01EA5AFF4F0C945E32812F807F1F7073
:10108000882311F01295107F0023B9F0112309F481
:10109000B2C180E28B0D883010F0911006C08091B3
:1010A0000F03182B10930F0305C080910E03182B0C
:1010B00010930E030E94C6129EC18B2D0E94762FA4
:1010C000112309F4AAC180E28B0D883080F19920A8
:1010D00071F1109580910E03182310930E032AC00E
:1010E000812F807F1F70803211F01295107F8B2D21
:1010F000992021F0F1E09F16D9F149C08091F205C5
:1011000082FF1BC0002369F0112339F080910F0387
:10111000182B10930F030E94C61280E00E94A82F84
:101120007CC180E00E94762F112309F476C1812FC3
:101130000E94BF120E94C61270C1002381F08091EC
:101140001003AA2051F021E0A21207C0182B181793
:1011500009F463C11093100360C1812B10C0AA2051
:1011600021F031E0A31609F458C10E94B91227C03A
:10117000002341F085E08A1508F44FC1812F0E94B9
:101180006C2F4BC194E09A1508F447C118C0002396
:1011900049F0AA2099F3F701858180FF2CC18F7057
:1011A0008583ECCFAA2059F0893309F033C1FFEFD2
:1011B00027EE33E0F15020403040E1F729C1812F84
:1011C0000E94652F2AC1812F86958695837019F01C
:1011D000813061F022C1002321F08B2D912F93707B
:1011E00002C080E090E00E94F6291DC1002321F09A
:1011F0008B2D912F937002C080E090E00E94E02937
:1012000012C18B2D002319F00E94EB2D02C00E9409
:10121000322D0E94462E07C1812F8370A9F501113E
:1012200000C14B2D429546954770440F440F8B2DBE
:101230008F7090E09C01042E01C0220F0A94EAF7FF
:10124000B4FE08C08FE090E001C0880F4A95EAF72D
:10125000809501C080E0169516951370123069F0E4
:1012600088F490911103113019F0822B892302C068
:10127000922B892B0E942C2FD4C0822B909111038A
:101280008927F8CF822BF6CF002319F0812F8170A8
:1012900001C08695882309F4C4C04B2D429546951C
:1012A0004770440F440F8B2D8F7090E09C01042EEB
:1012B00001C0220F0A94EAF7B4FE08C08FE090E064
:1012C00001C0880F4A95EAF7809501C080E0169525
:1012D00016951370123059F078F49091A7041130DC
:1012E00019F0822B892309C0922B892B06C0822BEF
:1012F0009091A704892701C0822B0E94112F91C0D1
:101300001F70002339F0812F0E94212F8B2D0E9406
:101310006C2F87C08B2D0E94652F812F0E94152F67
:1013200080C08B2D92EF991679F1991538F0E0EF86
:101330009E1659F0F1EF9F1611F159C023EF921646
:1013400051F134EF9316B9F052C0002379F084E0E4
:101350008A1508F462C01F7181E090E001C0880F17
:101360001A95EAF79091A70489271FC095E09A156E
:1013700008F453C0F0CF8091F20582FF19C000231A
:1013800029F0812F8F7126C00023D9F3812F8F710F
:101390000E94152F42C0002339F01F7181E001C067
:1013A000880F1A95EAF701C080E00E94112F35C01E
:1013B000002399F01F71812F0E94212F8091F20547
:1013C00082FD07C0E8E01E9FC00111248360809366
:1013D000ED02812F0E94212F20C081E00E941B136B
:1013E000F1E0FA15D0F482E00E941B1316C000232E
:1013F00021F0AA2031F28B2D91CEAA2039F2893327
:1014000049F42FEF37EE83E0215030408040E1F780
:1014100000C000008B2D0E94762F88EF8C0D843049
:1014200010F40E940C2ADD2009F4AEC08091ED0278
:1014300080FDAAC0F70112828595859585950E9449
:10144000212FC7010E9462048091ED028595859548
:10145000859529960FB6F894DEBF0FBECDBFDF91FC
:10146000CF911F910F91FF90EF90DF90CF90BF90A1
:10147000AF909F908F907F906F905F904F903F9034
:101480000C94152F01319FE5190709F09DCB82E0DF
:1014900061CB69E251CD053C2CE5120709F449C046
:1014A000B8F4033C9CE51907D1F1F0F5023C1C456A
:1014B00009F096CD9091D50481E089278093D504D9
:1014C000109211018091A60481608093A60446CBFE
:1014D000073C2CE51207B9F188F1083C9CE5190797
:1014E000B9F1093C1C4509F07BCD4FED52E26BEEA2
:1014F00072E241C00C3C3CE51307C9F198F10D3C88
:10150000ECE51E07D9F10E3C1C4509F069CD84E0DD
:1015100038C0013D1C4508F021CB8EE032C041E2CD
:1015200053E26AE273E227C04AE253E261E273E205
:1015300022C04FE053E268E173E21DC048E153E28C
:101540006FE073E218C047EF52E263E073E213C04A
:1015500043E053E267EF72E20EC04BEE52E26FEDF2
:1015600072E209C046E551E264E671E204C044E675
:1015700051E266E571E20E94F523F0CA81E001C004
:1015800089E00E94181EEACA29960FB6F894DEBFB9
:101590000FBECDBFDF91CF911F910F91FF90EF90C4
:1015A000DF90CF90BF90AF909F908F907F906F9083
:1015B0005F904F903F900895CF93DF93CDB7DEB704
:1015C000AB970FB6F894DEBF0FBECDBF84B7877F51
:1015D00084BF0FB6F894A8958091600088618093CD
:1015E0006000109260000FBE90E080E80FB6F894A3
:1015F00080936100909361000FBE85B7806885BFBE
:1016000085B7806885BF8DE390E1909373028093E6
:1016100072020E94AD260E9453278091E2008460EE
:101620008093E2007894809188048823A1F010913F
:10163000E9001F709091EC00892F817090FD80E887
:10164000182B1092E9008091E80083FD0E94801E13
:101650001F701093E90082E084BD93E095BD9AEF7E
:1016600097BD80936E000E94DC23811102C00E940E
:10167000CD230CE111E0EAE2EE2EE1E0FE2ED801EE
:101680008D918D018F3F11F00E948210E016F106BE
:10169000B1F70AE211E07FE2E72E71E0F72EF801E0
:1016A00081918F018F3F11F00E948210E016F106A8
:1016B000B1F78AE0EBE8F2E0DF01282F1D922A95CE
:1016C000E9F7E5E7F2E0DF011D928A95E9F70E946C
:1016D0004412811102C00E944F1282E090E00E94E9
:1016E000A53180937F020E9433129093F20580937C
:1016F000F1050E947915EFEBFDE53197F1F700C098
:1017000000000E94791580918B0280FF08C06FEF66
:101710007FEF80E090E00E94E1310E94E92883E0C1
:1017200090E00E94A5310E942C2F0E940622109268
:10173000AC04E5ECF4E08FEF9FEF8193919324E00C
:10174000E53DF207D1F71092DB04E4EFF4E084E02A
:1017500095E02FEF3FEF219331938E179F07D9F735
:101760000E944412811104C00E944F120E9466160A
:1017700046E050E06CE170E085ED94E00E94953128
:101780001092A6048091D5048C7F11F40E946616F5
:1017900084E091E09093E9058093E805EE24E394DA
:1017A0008E010F5F1F4F1E013BE0230E311C809105
:1017B0008804853009F067C040E4C42E50E1D52E7E
:1017C00062E1F62E80918804853009F056C0809140
:1017D0008804843009F43DC080910805811105C05A
:1017E0000E94811680E00E94682441E04093080531
:1017F0000E94752480910805811105C00E94811600
:1018000080E00E94682451E0509308051092EC0596
:1018100068E170E00FB6F894A895609360000FBE81
:10182000C092600083B7817F846083BF83B781608B
:1018300083BF7894889583B78E7F83BF0FB6F89463
:10184000A89580916000886180936000109260008C
:101850000FBE80918704882309F4B4CF0E947915C4
:10186000EBE8F2E081919191892B09F0DDC385E9E4
:1018700092E08E179F07B1F7A5CF0E94502F0E94CC
:101880000C2A109208050E94791581110E944229A4
:101890003BE8832E32E0932EA0E8B2E0F401612C05
:1018A000712C562CA190B1908D919D918A259B25EC
:1018B000009709F457C1F12CCC24C394D12C960184
:1018C00028233923232B09F447C1F9A25AA2AC20BB
:1018D000BD2081E0A114B10409F480E08BA30E9433
:1018E0004E298160782F9DA38CA349A15AA16BA199
:1018F0008DA10E94BA03F301EE0FFF1FE058FD4FC8
:1019000080819181C826D926D182C082AB2889F0F6
:101910008EE0869DF001879DF00D1124E159FE4F68
:10192000EF0DF11D80818F3F21F08BA7442443945C
:1019300001C0412CC42CD12C8091DB04D601A80F0E
:10194000B11D1997ACF188E090E05C01AC18BD08BE
:10195000B6016F5F7F4F65527B4FA5018CED94E020
:101960000E947832B601675F7F4F65527B4FA501B9
:1019700084EE94E00E947832A501440F551FB60111
:10198000660F771F675E7F4F65527B4F84EF94E051
:101990000E947832B6016F5E7F4F65527B4FA50182
:1019A0008CEE94E00E94783288E084198093DB0406
:1019B0008091DB0490E0EBA5AE2FB0E09D01220FFB
:1019C000331F2B543E4FAA0FBB1FBD016A547E4FDD
:1019D00041E0480F9415B0F490E0FC01E552FB4F54
:1019E000D9015C915183DB015C915187BBA5B18B1F
:1019F000880F991FFC01E552FB4F128E118E91E06A
:101A0000842FE6CF8093DB048091D5048C7F8C36C5
:101A100009F0C0C0DD24DA94D50C91E0950D3FEFBC
:101A20003F0D21E02F0D3F1580F48EE0869DF001E3
:101A3000879DF00D1124E25EFB4FE30FF11D408105
:101A400050E1450F08F44FEF40834F2D50E08EE0FA
:101A5000869DF001879DF00D1124E25EFB4FDF01B2
:101A6000A40FB51F7C9180E2682F760F08F47FEFFA
:101A70007C932E3049F0E20FF11D708180E1682FD8
:101A8000760F08F47FEF7083953009F432C0A92FE8
:101A9000B0E03F1590F48EE08A9FF0018B9FF00D2F
:101AA0001124E25EFB4FE30FF11D80819DE0782F52
:101AB000692F760F08F47FEF7083EEE0EA9FC00194
:101AC000EB9F900D1124825E9B4FFC01E40FF51FEC
:101AD000608170E1670F08F46FEF60832E3049F08A
:101AE000FC01E20FF11D60817DE0670F08F46FEFEC
:101AF0006083D51408F04EC08D2D90E03F1580F422
:101B00006EE0689FF001699FF00D1124E25EFB4FCB
:101B1000E30FF11D30816DE0360F08F43FEF3083A5
:101B20003EE0389FF001399FF00D1124E25EFB4F3B
:101B3000DF01A40FB51F3C9140E1340F08F43FEFE3
:101B40003C932E3039F1E20FF11D20813DE0230F4F
:101B500008F42FEF20831EC0F394CC0CDD1C7EE034
:101B6000F712ADCE8FEF681A780A95E06916710406
:101B700009F097CE8FEF8EA38FA318A60E944E294F
:101B80008160782F9AA789A74EA15FA168A58AA531
:101B90000E94BA030E94752486E0EEEFF5E0D801BA
:101BA00001900D928A95E1F7C0900006D090010651
:101BB000F0900206B0900306109200061092010603
:101BC0001092020610920306C11003C0DD2009F432
:101BD0004FC08091FC059091FD050E9433299C0126
:101BE0009091F805992309F43EC22531310508F496
:101BF0003FC09F3F19F09F5F9093F805CC2061F0A4
:101C00000E94CB2D1C1414F491E001C09FEF899F1A
:101C1000802D112480930006DD2061F00E94CB2DE1
:101C20001D1414F491E001C09FEF899F802D1124B1
:101C300080930106309100063323D1F020910106F4
:101C40002223B1F045EB3403C0011124992319F08C
:101C50009093000602C0E092000655EB2503C001F8
:101C60001124992319F09093010602C0E092010615
:101C7000F11003C0BB2009F44FC08091FA05909188
:101C8000FB050E9433299C019091F705992309F4E3
:101C9000EFC12135310508F43FC09F3F19F09F5F28
:101CA0009093F705FF2061F00E94A92D1F1414F4F2
:101CB00091E001C09FEF899F802D1124809302063F
:101CC000BB2061F00E94A92D1B1414F491E001C007
:101CD0009FEF899F802D1124809303063091020687
:101CE0003323D1F0209103062223B1F065EB3603B4
:101CF000C0011124992319F09093020602C0E092CA
:101D0000020675EB2703C0011124992319F0909363
:101D1000030602C0E09203068091000681110BC009
:101D200080910106811107C080910206811103C0D4
:101D30008091030681110E94462ECB82DC82FD82B7
:101D4000BE8286E0F801AEEFB5E001900D928A9573
:101D5000E1F70E940C2A90918A02891380938A02EB
:101D600080918804843009F022CD83E08093E900DB
:101D70008091E80082FF1BCD8091E80085FF21C0A3
:101D80000E94CC2681111BC080E2A82EB12C6801D4
:101D900009C08091F100D6018D936D01B1E0AB1ABD
:101DA000B10869F08091E80085FDF3CF8091E800EB
:101DB0008B778093E8000E94CC26882399F391E0EA
:101DC00001C090E08091E8008B778093E800992330
:101DD00009F4EDCCE9818E2F90E0FC013197E331DD
:101DE000F10508F0F7C0EE59FF4F0C945E321A82ED
:101DF00089E05AC08A81823009F42CC1833051F0C5
:101E0000813009F0E7C00E9442299B838C837D8347
:101E10006E83E2C0F801D4018C9111969C91B2E0DE
:101E20008B0E911C9283838332962E163F0699F770
:101E3000D3C08A81823009F0CDC06B817C818D81D5
:101E40009E810E9464320E94AB23C6C04C816B818C
:101E50008A810E9478239D8304C1CD80DE80DC24AA
:101E6000CD24DC248C81AB809A81ECE1AE9E5001C4
:101E70001124FCE89F9FA00CB11C1124A80EB11CDA
:101E8000A80EB11C6D2DC50187960E94C3316C2D23
:101E9000C50188960E94C3319FC00E9444239CC004
:101EA00080E151C0EA8289EA8B8396C0CA80DB80D8
:101EB000DC24CD24DC24AC80B12C4801C601895A35
:101EC0009D4F9401201B310B2A153B0508F084C05F
:101ED00029EAC21621E0D20630F40E94A531D401CD
:101EE00014968C9302C0F4011482FFEFCF1ADF0A1C
:101EF0002FEF821A920AE2CFCA80DB80DC24CD2445
:101F0000DC24AC80B12C4801C601895A9D4F940154
:101F1000201B310B2A153B0508F05EC039EAC316B9
:101F200031E0D30628F4D40114966C910E94C33199
:101F3000BFEFCB1ADB0AEFEF8E1A9E0AE5CF0E94A5
:101F400034234AC084E08A8347C0CA80DB80DC2413
:101F5000CD24DC24AC80B12C4801C60187969401C5
:101F6000201B310B2A153B05B8F5F0E3CF16F2E044
:101F7000DF0630F40E94A531D40114968C9302C080
:101F8000F4011482FFEFCF1ADF0A2FEF821A920AB0
:101F9000E4CFCA80DB80DC24CD24DC24AC80B12CEF
:101FA0004801C60187969401201B310B2A153B0579
:101FB00098F430E3C31632E0D30628F4D401149623
:101FC0006C910E94C331BFEFCB1ADB0AEFEF8E1A80
:101FD0009E0AE7CF8FEF898380918804843009F0CF
:101FE000E6CB8091E9008F702091EC00922F9170E8
:101FF00020FD90E8F92EF82A82E08093E900809194
:10200000E80080FF0CC040E050E060E270E0C801F2
:102010000E94311E8091E8008E778093E8008F2D1A
:102020008F708093E900C3CBD9BCF9BC09B400FE22
:10203000FDCF8091D8008F7D8093D8008091E00003
:1020400082608093E0008091E00081FDFCCF0E94DF
:10205000502FB8CB86E290E00E94A5311B821C82F3
:102060001D828E83B9CF2B30310508F0C4CD00CE50
:102070002B30310508F013CE4FCE80E008959091BB
:10208000F10592FF0DC0282F2871283019F4877FA1
:10209000846006C0282F2471243011F48B7F88605F
:1020A00093FF0DC0282F2871283119F4877E846191
:1020B00006C0282F2471243111F48B7E8861209171
:1020C000F20520FF0DC0382F3871383019F4877FA2
:1020D000816006C0382F3171313011F48E7F8860F5
:1020E00021FF0DC0282F2871283119F4877E8161C6
:1020F00006C0282F2171213111F48E7E886194FD54
:10210000877E0895F894E82FE295EF70F0E031A112
:10211000282F2F7081E090E001C0880F2A95EAF700
:10212000982F9095932391A392A1892B82A37894C1
:102130000895CF93DF938238910569F1B0F481332C
:10214000910509F46FC048F48932910509F465C01E
:102150008A32910509F46BC08AC08533910509F470
:1021600057C089339105B9F082C0833E910571F162
:1021700038F4803E9105B1F0823E910511F177C0AF
:10218000863E9105B9F1873E9105C9F1843E9105DE
:1021900009F06DC024C02091F10520FD53C021FD40
:1021A00051C065C08091F10580FD46C08091F20567
:1021B00080FF48C08091F10584FD50C183EE90E01E
:1021C0004FC18091F10582FF3AC0F4CF8091F105B3
:1021D00082FD35C08091F20580FD34C0EBCF809147
:1021E000F20581FF35C08091F10584FD37C187EE8E
:1021F00090E036C18091F10583FF27C0F4CF809134
:10220000F10583FD22C08091F20581FD21C0EBCF55
:102210008091F10585FD1FC021C08091F10585FDEC
:102220001DC019C08091F10586FD1BC01DC08091A5
:10223000F10586FD19C015C089E390E011C182EE59
:1022400090E00EC180EE90E00BC186EE90E008C1F8
:1022500084EE90E005C189E290E002C185E390E060
:10226000FFC08AE290E0FCC081E390E0F9C08115F4
:1022700031E5930708F069C0811540E59407F0F057
:102280009C0174E0369527957A95E1F7922F93702B
:10229000482F437021E030E002C0220F331F4A95DF
:1022A000E2F73C68392B982F9F709695969540E2FF
:1022B000949FC0011124822B932BD2C0883E91059C
:1022C00068F5803E910508F0CBC0883A9105B8F4D6
:1022D000853A910548F0855AE82FF0E0E15DFE4F20
:1022E000808190E09064BCC08130910509F4B3C056
:1022F00008F4B4C08430910508F4B0C0B1C08F3B7D
:10230000910508F0ABC0885AE82FF0E0EE0FFF1FF0
:10231000EE5CFE4F808191819464A2C0811520E221
:10232000920758F4811531E0930708F099C0803F77
:10233000910508F493C0906593C0811540E494071B
:1023400008F48CC09F70906A8BC0811525E59207B8
:1023500008F042C0811534E5930728F0982F8827AC
:10236000846F906A7DC0811543E59407B0F09C01AD
:102370002370332741E050E002C0440F551F2A95D7
:10238000E2F7282F2695269580E2289F90011124B8
:10239000CA01822B932B9A6863C0811522E59207AC
:1023A00028F4982F8827816F906A5AC09C01237067
:1023B000332741E050E002C0440F551F2A95E2F751
:1023C000282F2695269580E2289F90011124CA0186
:1023D000822B932B9C6844C0EC01811539E593074F
:1023E000A8F48115984528F09C2F8827806F906A63
:1023F00037C0C11586E5D80788F58C2F0E943F109D
:102400008F7190E0982F882790622AC081152AE565
:10241000920790F48C2F8F700E943F1094E0D69515
:10242000C7959A95E1F7CF70D0E0DC2FCC27D06923
:102430009E01282BC90114C090568115904270F45A
:102440008D2F8F710E943F10282F2F71CE01992759
:102450009062922B05C081E090E002C080E090E0A5
:10246000DF91CF910895CF9384E090E00E94A53151
:10247000C82F82E290E00E94A5312C2F30E0A90104
:10248000582BCA01CF91089580E090E00E94AD31B1
:10249000893E9E4F11F40C94DC2380E0089569EE90
:1024A0007EEF80E090E00E94E13160E082E090E029
:1024B0000E94C33160E083E090E00E94C33110923B
:1024C000110360E084E090E00E94C33160E082E2AA
:1024D00090E00E94C33160E085E090E00E94C3314B
:1024E00060E086E090E00E94C3316FEF87E090E00B
:1024F0000E94C33140E050E0BA0188E090E00E94C1
:10250000D53160E08DE090E00E94C33140E050E0C2
:10251000BA0188E190E00E94D53160E087E190E067
:102520000E94C33140E050E0BA018CE190E00E948B
:10253000D53160E070E080E290E00E94E13140E05F
:1025400050E0BA0188E190E00E94D53180E00E941D
:10255000AF230E94CD2340E050E0BA018FE090E02D
:102560000E94D53140E050E0BA0183E190E00C9444
:10257000D531809110038111109210030895809538
:1025800090910F03892380930F03089590910F0377
:1025900080910E03982B90939502809110038823CD
:1025A000D9F0892B8093950280911001882331F016
:1025B0008091F10587FF02C08EE101C086E0E7E966
:1025C000F2E090E0815028F021912223D9F39F5F1F
:1025D000F9CF91110E94B91240E250E06EEE72E024
:1025E00085E992E00E946B32892B21F180E2E5E9D6
:1025F000F2E0AEEEB2E001900D928A95E1F7E09143
:10260000E805F091E9053097A9F080911001882341
:1026100059F08091F10587FF07C080919502809362
:10262000960286E0809395020280F381E02D85E991
:1026300092E0099408952091ED0280958223809381
:10264000ED02982F977099F430E0482F082E000C77
:10265000550B2417350759F09091F20592FD07C0EC
:102660008595859585950E94152F1092ED02089508
:10267000CF93C091F205C2FB992790F9981799F072
:1026800080FBC2F9C093F2056091F10584E090E00F
:102690000E94C3316C2F82E290E00E94C33182E03D
:1026A000CF910C941B13CF9108958091EC029091DF
:1026B000BB02891719F08F5F8770FBCF08950F93C6
:1026C0001F93CF93DF938091BA0282958F7009F0A8
:1026D0005DC08091B702882309F458C08091EC0254
:1026E0001091BB026091B5027091B602C091B80220
:1026F000D091B90291E06F3F09F090E0292F06E0F8
:10270000811709F443C0209721F07F3F21F030E08A
:1027100003C031E001C0322F90E030FD34C0089F8B
:10272000F001099FF00D1124DF01A454BD4F119653
:102730003C911197371327C03C91361324C0129651
:102740003C91129731111FC013964D915C911497D3
:102750004C1B5D0B483C5105B0F48091BA028F7060
:1027600080618093BA02EF53FD4F80818F7080614A
:10277000808385EB92E00E946204DF91CF911F91EC
:102780000F910C94551301968770BACFDF91CF91BA
:102790001F910F910895CF93DF93EC010E948B2E30
:1027A000BE010E949E230E949910DF91CF9108954F
:1027B0009F92AF92BF92CF92DF92EF92FF920F93D0
:1027C0001F93CF93DF93CDB7DEB761970FB6F89421
:1027D000DEBF0FBECDBF8C0185E0F801DE011D9686
:1027E00001900D928A95E1F7F801E2809091B5028F
:1027F0006091B6024091B8025091B902411551055D
:1028000031F06F3F31F481E09F3F19F403C081E064
:1028100001C080E0F82FF1709F2E80FD1AC1F801F1
:1028200030812181C380D48085EBA82E82E0B82E30
:10283000F090B702F601E41BF50BFF2009F4C6C0C7
:102840008091BA02E83CF10508F091C0482F407F22
:1028500009F050C0621311C093130FC0FE2CE11099
:102860000CC08F7080618093BA02C5010E9462041F
:102870008091BA02F801858329C1CD2831F02F3F1C
:1028800031F481E03F3F19F403C081E001C080E0F2
:1028900080FD03C081E08E2502C080E090E0F82F2B
:1028A000F170FF2E80FF1CC08091EC024091BB02B2
:1028B00056E0841709F4E8C090E0589FF001599F52
:1028C000F00D1124E454FD4F6181261306C0608190
:1028D000631303C06281E61203C001968770E9CFDB
:1028E000FE2CEE2009F4F2C08091BA028160809340
:1028F000BA0249C0621306C0931304C0E11002C0BB
:10290000F80186C0C8010E94302F882351F1EE20C3
:1029100041F12091BA02822F82958F7090E0029748
:1029200074F08091B5029091B60298878F831986D2
:10293000DB86CA862C87CE0107960E94620486E059
:10294000F801A5EBB2E001900D928A95E1F70E94A3
:102950005F130AC06217C9F0C8010E94302F8111AD
:102960001EC0C8010E946204FF24F394AFC0482F28
:10297000407F81F785EB92E00E94620486E0F501DA
:1029800011928A95E9F7F12CA1C09313E5CFE110DC
:10299000E3CFF8018583C8010E94620454C0EE2091
:1029A00001F32091BA02822F82958F7090E00297F6
:1029B00034F28091B5029091B6029A8389831B828A
:1029C000DD82CC822E83CE010196B7CFE83CF105A3
:1029D000D0F5FE2CEE2029F2621327C0931325C0F8
:1029E0002091BA0220FD18C0822F82958F70482F47
:1029F00050E04115510581F0F80125834F30510514
:102A000041F08F5F982F9295907F822F8F70892B46
:102A10008583C8010E94620486E0F801A5EBB2E05C
:102A200001900D928A95E1F751C0C8010E94302FA4
:102A3000811185CF8091BA0281608093BA02C8016A
:102A40000E94620443C086E0F50111928A95E9F77D
:102A50003DC0EE2009F485CFC8010E94302FF82E2A
:102A6000882309F47ECF86E0F801A5EBB2E001905F
:102A70000D928A95E1F78091B5029091B6020E947D
:102A8000CB130E945F1322C03D872E878D859E85C4
:102A90000E94CB13292F22952F70223028F49F708B
:102AA00039F0811105C00BC0243028F49F7049F41F
:102AB000805E883020F0C8010E9462049F2CF92CAF
:102AC00005C0F8019581907F99F7F9CF8F2D619618
:102AD0000FB6F894DEBF0FBECDBFDF91CF911F912F
:102AE0000F91FF90EF90DF90CF90BF90AF909F90AD
:102AF00008958F929F92AF92BF92CF92DF92EF9202
:102B0000FF920F931F93CF93DF93CDB7DEB72A9732
:102B10000FB6F894DEBF0FBECDBFAE014F5F5F4F63
:102B20007A018AE0DA011D928A95E9F70CE111E059
:102B3000CC24C394D12CAA24A394B12C4E01BBE085
:102B40008B0E911CF80180818F3F09F44AC0F894E4
:102B5000E82FE295EF70F0E021A18F70A50102C08F
:102B6000440F551F8A95E2F7CA01922F982B91A323
:102B700092A18095892382A3789400C06AE271E0D3
:102B8000F701A60140955095DB012D91BD012F3F26
:102B9000A9F0822F82958F7090E0DC0190968C9145
:102BA00090E02F7002C0959587952A95E2F780FDF9
:102BB00005C0808191818C299D2904C080819181EB
:102BC000842395239183808332968E169F06E1F6A7
:102BD000F80180818F3F11F00E948210F0EAFA958F
:102BE000F1F7CC0CDD1C0F5F1F4F41E00A321407D8
:102BF00009F0A8CF4AE050E0B70185E792E00E94D3
:102C00006B3211E0009709F410E0892B89F08AE01B
:102C1000F701A5E7B2E001900D928A95E1F781E016
:102C2000809314030E944E29909313038093120300
:102C300080911403882391F18091120390911303E2
:102C40000E943329039750F180917502909176028A
:102C500090938C0280938B028091770290917802FE
:102C600090938E0280938D028091790290917A02E6
:102C70009093900280938F0280917B0290917C02CE
:102C8000909392028093910280917D0290917E02B6
:102C9000909394028093930210921403812F2A96AA
:102CA0000FB6F894DEBF0FBECDBFDF91CF911F915D
:102CB0000F91FF90EF90DF90CF90BF90AF909F90DB
:102CC0008F9008950C94B5210C947221E5EDF4E0F9
:102CD00085E280838091190190911A01A0911B01D6
:102CE00081839283A3838FE784838FEF858346E07C
:102CF00050E06CE170E0CF010E94B3311092A60465
:102D000008953F924F925F926F927F928F929F921F
:102D1000AF92BF92CF92DF92EF92FF920F931F93E9
:102D2000CF93DF93782E8091160187110DC02091EB
:102D3000D504237030E04091150150E081E0241764
:102D4000350719F480E001C081E08170809314019F
:102D50008091DA0490911301981739F08093130150
:102D600040E060E080E00E9462168FE078122FC0A1
:102D700081E79BE20E94351D10C0A71508F441C1F0
:102D8000B3E07B1669F1B71508F06CC0F5E07F126F
:102D9000E5C082E19BE20E94861CC82F04C0C1E00E
:102DA0001C3308F08AC0809112018F5F809312015A
:102DB000C11125C582E08093110180911401811118
:102DC0001EC571101CC583E08093110118C58715BD
:102DD00008F433C1A7E07A12D0CF86E99BE2CACFCC
:102DE000C09112018CE0C89FC02D1124DCE0DC0FE3
:102DF000DD3308F0DCE3E090D704D090D8042091D4
:102E0000D90460E4F62E3F2D329F312D1124F32E8C
:102E1000CD1708F042C00C2F10E0F801E35DFD4F24
:102E20009081809113018923D9F0F801EE0FFF1FE3
:102E3000EB54FE4F6081F69EB001112455E075956C
:102E400067955A95E1F78091D604680F7E2D8D2DF8
:102E50000E94A22C462F282F672FC8010E946416BB
:102E6000CF5FD6CFE1E07E121DC080911201CCE091
:102E70008C9FC02D1124DCE0DC0FDD3308F0DCE397
:102E80006091D6047091D7048091D8040E94A22C3E
:102E9000162F072FF82ECD1790F0C1E0DC3308F481
:102EA00082CF0BC0E715E8F080911401882329F048
:102EB00040E060E080E00E946216C0E074CFEC2F3A
:102EC000F0E0DF01A35DBD4F8C9190911301982339
:102ED00031F02F2D412F602FCF010E946416CF5F5C
:102EE000DACFC09112018CE0C89FC02D1124DCE024
:102EF000DC0FDD3308F0DCE30091D7041091D80437
:102F0000F090D6046F2D702F812F0E94A22CE62EF8
:102F1000D72EC82E6091D9046F0D702F812F0E947B
:102F2000A22C162F072FF82ECD1708F0B6CF8C2F16
:102F300090E0FC01E35DFD4F3081209113012323DC
:102F400059F030FF04C02F2D412F602F03C02C2DCE
:102F50004E2D6D2D0E946416CF5FE6CFF71508F455
:102F600043C0C09112018CE0C89FC02D1124DCE049
:102F7000DC0FDD3308F0DCE30091D6041091D704B8
:102F8000F090D8046091D904669566956695809115
:102F9000A8049091A9040E94852C0E94D12B8058EE
:102FA00087FD8195880F482F2F2D429F412D112499
:102FB000842FB8010E94A22C162F072FF82ECD17B0
:102FC00008F06BCFEC2FF0E0DF01A35DBD4F8C91DB
:102FD00090911301982331F02F2D412F602FCF01B5
:102FE0000E946416CF5FEBCF82EB9BE207C02715F0
:102FF00070F44DE0741219C08CE59CE20E94B11D82
:10300000CCCE2BE07212F3CF83EE9AE2C4CE39E03D
:10301000731203C087E09BE2BECE371518F080E143
:103020009BE2B9CE8EEF9AE2B6CE471518F084ED4A
:103030009AE2A0CE85E89BE2E1CF87E1781203C057
:1030400085E29AE2A8CE871508F4D8C0A3E17A12E7
:103050003BC08091140181111EC06091D90420E110
:10306000620F08F46FEF8091A8049091A9040E9468
:10307000852C6AE070E00E941C31892B09F01DCF7D
:103080000E947C316CE370E00E944A32609113012F
:103090000E94222412CF80911201CCE08C9FC02D7F
:1030A00011241CE01C0F1D3308F01CE3D0E0E12EBE
:1030B000F12CCE15DF050CF072CE60911301CE011C
:1030C0000E9422242196F5CFA71580F0B1E17B1252
:1030D00003C084E79AE204C0B71528F086EA9AE2B2
:1030E0000E94D41C5ACE86E39AE2FACFE5E17E1222
:1030F00044C0C09112018CE0C89FC02D1124DCE0B7
:10310000DC0FDD3308F0DCE30091D7041091D80424
:10311000F090D6046091D904669566956695809185
:10312000A8049091A9040E94852C0E94D12B80585C
:1031300087FD8195880F682F2CE0629F612D1124F7
:103140006F0D702F812F0E94A22C162F072FF82EA3
:10315000CD1708F0A2CEEC2FF0E0DF01A35DBD4F4C
:103160008C9190911301982331F02F2D412F602FD6
:10317000CF010E946416CF5FEBCFE71508F43BC088
:103180008091140181111EC06091D90420E1620F69
:1031900008F46FEF8091A8049091A9040E94852CF7
:1031A00065E070E00E941C31892B09F086CE0E94F8
:1031B0007C316CE370E00E944A32609113010E94FE
:1031C000FB237BCE80911201CCE08C9FC02D11247B
:1031D0001CE01C0F1D3308F01CE3D0E0E12EF12CA5
:1031E000CE15DF050CF0DBCD60911301CE010E94FE
:1031F000FB232196F5CF82EF9BE2CDCDFBE17F1241
:10320000A5C080911201CCE08C9FC02D11247CE0E0
:10321000572E5C0EB6E4B51510F466E4562E809178
:103220001401882361F040E060E080E00E946216B3
:1032300086E4EEE1F4E0DF011D928A95E9F78091E2
:103240001201811115C080911C0490911D040E94EF
:10325000332921E08931910508F420E020931B04F3
:10326000499730F00E944E2990931D0480931C04CE
:10327000D0E0A52CB12C35E0832E912C4EE0442ECD
:103280005AEA352ECA15DB050CF05AC0CE01B4013E
:103290000E944A328B016C014C9CC0014D9C900DE8
:1032A0001124FC01E25EFB4FE60FF71F608081599D
:1032B0009E4FFC01E60FF71F80818F3F59F1E82EEA
:1032C000F12CF701E35DFD4F90818091130189237B
:1032D00009F1362D25E5321B08F430E07091D70452
:1032E000232D462D240F08F42FEF4091D80482E0BF
:1032F000289F200D11242E5F249F212D1124632D42
:10330000631B822F0E94A22C462F282F672FC701F4
:103310000E94641680911B04882381F0262D31E0E1
:10332000231B08F420E04C9CC0014D9C900D1124FF
:10333000825E9B4FFC01E00FF11F20832196A2CFFC
:10334000C1E045E4451508F02ECDB7CDF71508F4DA
:103350000FC28091A8049091A904A091AA04B091F1
:10336000AB0429E17212DDC04091CD035091CE0330
:103370006091CF037091D00384179507A607B70714
:1033800008F49BCD8091140181110DC08091120130
:10339000CCE08C9FC02D11240CE00C0F0D3308F4F1
:1033A00054C00CE352C040E060E080E00E9462162E
:1033B00009E113E0C0E0D0E03FE7D32E0E94162CD5
:1033C00081FF08C0D8011C9211961C921197129689
:1033D0001C921DC00E94162CC82E0E94162C869589
:1033E000782F2D2D720F08F47FEFCE01880F991FD3
:1033F0008C0F9D1FDC01A75EBC4F7D016C2D809161
:10340000D8040E94A22CF7016083718382832196E5
:103410000D5F1F4FCC33D10589F6B8CF8C2F90E0CC
:10342000FC01E35DFD4F308120911301232361F006
:10343000FC01EE0FFF1FE80FF91FE75EFC4F228132
:10344000408161810E946416CF5FC01738F3C1E0EC
:103450000C3308F0C0E00C3308F4A5CC20E010E0F9
:1034600001501109822F90E080179107CCF4AC0134
:10347000440F551F480F591F475E5C4F0196FC01D2
:10348000EE0FFF1F8E0F9F1FFC01E75EFC4F808138
:103490009181A281FA0180839183A2832F5FE2CF81
:1034A0000E94162C7801EE0CFF1C81FF09C00E0D46
:1034B0001F1DF801E75EFC4F10821182128218C0B6
:1034C0000E94162CD82F0E94162C8695782F2FE755
:1034D000720F08F47FEF0E0D1F1D075E1C4F6D2F3E
:1034E0008091D8040E94A22CD8016D937D938C9377
:1034F0000E948F2C0091A8041091A9042091AA0485
:103500003091AB04DC01CB01800F911FA21FB31FD0
:103510008093CD039093CE03A093CF03B093D003B9
:1035200042CC271508F463C040911503509116034F
:10353000609117037091180384179507A607B707C2
:1035400008F4BBCC0E94162C182F0E94162C9CE36A
:10355000891BF0F7890FC82FD0E0FE01E35DFD4F16
:10356000909113018081892309F400C111FF04C0E7
:1035700020E040E060E013C00E94162C182F0E944B
:10358000162C8695782F2FE7720F08F47FEF612FA6
:103590008091D8040E94A22C462F282F672FCE019D
:1035A0000E9464162091D90430E1230F08F42FEF14
:1035B00060E1822F90E00E94852CBC0184EF91E0B5
:1035C0000E941C318091A8049091A904A091AA04A2
:1035D000B091AB04860F971FA11DB11D80931503F9
:1035E00090931603A0931703B093180366CC4091F1
:1035F0001704509118046091190470911A048417EB
:103600009507A607B70708F458CC809114018823C2
:1036100029F040E060E080E00E9462166091D604EC
:103620007091D7048091D8040E94A22C962E872EE8
:10363000682E01ED13E0CFE6D1E0F5EBCF2EF1E0FF
:10364000DF2E5801E12CF12CF5018081FE01EE0DF9
:10365000FF1D882329F08081262D492D682D04C067
:10366000808120E040E060E090E00E946416D50197
:1036700011968C91F50181935F01FFEFEF1AFF0A1C
:1036800026E0E216F10401F75E017801EDE05E2E1E
:10369000D7011D968C91882331F0F5018585262D63
:1036A000492D682D06C0D5011D968C9120E040E083
:1036B00060E090E00E946416F701848585875A9443
:1036C000F1E0EF1AF10821E0A21AB10837E0531235
:1036D000DFCFD80117968C91882329F08F81262D72
:1036E000492D682D04C08F8120E040E060E090E02B
:1036F0000E946416F8018681882329F08E81262D88
:10370000492D682D04C08E8120E040E060E090E00B
:103710000E9464160E94162C837091E009F090E0DC
:10372000D80116969C93169717969C93025F1F4F8D
:103730002E96CC16DD0609F084CF0E948F2C0091C6
:10374000A8041091A9042091AA043091AB04DC01D3
:10375000CB01800F911FA21FB31F8093170490937A
:103760001804A0931904B0931A04A7CBC1E01BCB93
:103770003DE1731205C088E19AE20E94111C0DCB55
:10378000731618F48EE19AE2F8CF4FEF741231C03D
:103790008091A8049091A904A091AA04B091AB04CF
:1037A00088279C70AA27BB272AE0B695A7959795EE
:1037B00087952A95D1F782309105A105B10571F061
:1037C00083309105A105B10569F040E00197A1059D
:1037D000B10511F060E008C064E102C044E160E0BE
:1037E00080E003C044E164E184E10E94621682E06B
:1037F000EBCA809112018F5F80931201DBCADF91C7
:10380000CF911F910F91FF90EF90DF90CF90BF90DD
:10381000AF909F908F907F906F905F904F903F9070
:103820000895CF92DF92EF92FF920F931F93CF9361
:10383000DF938C01C09112018CE0C89FC02D112430
:10384000DCE0DC0FDD3308F0DCE32091D90431E06B
:10385000230F08F42FEF30E040E050E06FEF7FEFF0
:1038600080E090E00E94E7317901CD1708F041C077
:10387000CC2ED12CF601E35DFD4F90818091130198
:103880008923A9F19091AC04915097FD15C0492F5F
:10389000092E000C550BFA01E455FB4F8189C81322
:1038A000F3CF440F551FFA01E455FB4F218D328DA4
:1038B0002E153F0548F701C097016091D90441E0FA
:1038C000640F08F46FEFC9010E94852CAC01609170
:1038D000D6047091D7048091D804F80109950E940C
:1038E000A22C462F282F672FC6010E946416CF5F97
:1038F000BCCF81E0DC3308F080E0DF91CF911F91F5
:103900000F91FF90EF90DF90CF900895DF92EF92AC
:10391000FF920F931F93CF93DF938C01C0911201FD
:103920008CE0C89FC02D1124DCE0DC0FDD3308F0F3
:10393000DCE36091D9046695669521E0620F08F496
:103940006FEF8091A8049091A9040E94852CD82E35
:10395000CD17F0F4EC2EF12CF701E35DFD4F9081D3
:1039600080911301892391F06091D6047091D7045E
:103970008091D8042D2D4C2FF80109950E94A22C7E
:10398000462F282F672FC7010E946416CF5FE0CF14
:1039900081E0DC3308F080E0DF91CF911F910F913F
:1039A000FF90EF90DF9008959F92AF92BF92CF92D9
:1039B000DF92EF92FF920F931F93CF93DF936C01EF
:1039C000C09112018CE0C89FC02D1124DCE0DC0FF7
:1039D000DD3308F0DCE36091D9046695669580914B
:1039E000A8049091A9040E94852C182F80E4810FCF
:1039F0000E94D12B90E8F92EF80E812F0E94D12B36
:103A000020E8922E980ECD1700F5AC2EB12CF501C2
:103A1000E35DFD4F9081809113018923A1F06091B6
:103A2000D6047091D7048091D804E12E0C2F292D53
:103A30004F2DF60109950E94A22C462F282F672FA3
:103A4000C5010E946416CF5FDECF81E0DC3308F051
:103A500080E0DF91CF911F910F91FF90EF90DF9069
:103A6000CF90BF90AF909F9008956F927F928F926A
:103A70009F92AF92BF92CF92DF92EF920F931F93DC
:103A8000CF93DF933C01C09112018CE0C89FC02D01
:103A90001124DCE0DC0FDD3308F0DCE36091D904B5
:103AA00066958091A8049091A9040E94852C182FF6
:103AB000CD1708F044C08C2E912CF401E35DFD4F2E
:103AC0009081809113018923C1F1F401EE0FFF1F52
:103AD000EB54FE4FC080D12C80E7C81AD108F40106
:103AE000EE0FFF1FEA54FE4FA080B12CE0E2AE1AA9
:103AF000B108CC9C9001CD9C300D300D1124AA9CB6
:103B0000C001AB9C900D900D1124820F931F0E9459
:103B10002B2C082F6091D6047091D7048091D80483
:103B2000E12E9501A601F30109950E94A22C462FD2
:103B3000282F672FC4010E946416CF5FB9CF81E0A0
:103B4000DC3308F080E0DF91CF911F910F91EF906F
:103B5000DF90CF90BF90AF909F908F907F906F90AD
:103B60000895CF92DF92EF92FF920F931F93CF931E
:103B7000DF936C01C09112018CE0C89FC02D11240D
:103B8000DCE0DC0FDD3308F0DCE36091D9046695FE
:103B90008091A8049091A9040E94852C182FCD171C
:103BA00078F5EC2EF12CF701E35DFD4F90818091CB
:103BB0001301892319F1F701EE0FFF1FEA54FE4F9D
:103BC000208130E020523109F701EE0FFF1FEB5446
:103BD000FE4F408150E0405751096091D6047091EA
:103BE000D7048091D804012FF60109950E94A22CD8
:103BF000462F282F672FC7010E946416CF5FCFCFB3
:103C000081E0DC3308F080E0DF91CF911F910F91CC
:103C1000FF90EF90DF90CF9008958091A704982FA8
:103C20009670963011F4886001C0877F0C94112F34
:103C30009091D5049370A1F0811102C0946007C0E7
:103C40008E3110F0946703C0880F880F982B9093E3
:103C5000D504109211018091A60481608093A6047E
:103C60000895EF92FF920F931F93CF93DF937C0100
:103C70008B010E94CC26811119C0E70101151105A5
:103C8000A1F08091E80085FD0AC08091E8008E7760
:103C90008093E8000E94CC26882381F307C0899195
:103CA0008093F10001501109E9CF80E0DF91CF91BD
:103CB0001F910F91FF90EF9008959091D50493700C
:103CC00059F08093D6046093D7044093D804809130
:103CD000A60481608093A604089580939204609363
:103CE000930424E630E042E050E062E974E080EAC8
:103CF0000E94F53021E0892B09F020E0822F089501
:103D00001F93CF93DF93CDB7DEB7AA970FB6F89482
:103D1000DEBF0FBECDBFEAE8F4E082E994E0209177
:103D2000F10021938E179F07D1F780918B04833088
:103D300009F463C030F4813071F0823009F49DC021
:103D4000B4C08A3009F489C08B3009F46EC0893060
:103D500009F0ABC020C080918A04813A09F0A5C067
:103D60008091E800877F8093E80080918E04909195
:103D70008F04892B21F460E286E694E003C060E0C2
:103D800080E090E070E00E948B288091E8008B77C3
:103D90008093E8008AC080918A04813209F085C04E
:103DA00080918E0490918F04009719F0029709F08A
:103DB0007CC08091E800877F8093E8008091E800D4
:103DC00082FD05C0809188048111F8CF6EC02091DA
:103DD000F3008091F20090E0922B029731F48091F1
:103DE000F100813011F0863021F48091F100809350
:103DF00065048091E8008B7754C080918A04813AF1
:103E000009F053C080918E0490918F04892B09F0A2
:103E10004CC08091E800877F8093E8008091E800A3
:103E200080FFFCCF8091100137C080918A048132DD
:103E3000E1F580918E0490918F04892BB1F58091EA
:103E4000E800877F8093E8000E94FF2680918C0421
:103E5000809310010E94502F28C080918A048132E3
:103E600021F58091E800877F8093E8000E94FF267B
:103E700080918D048093640418C080918A04813AF3
:103E8000A1F48091E800877F8093E8008091E800AA
:103E900080FFFCCF809164048093F1008091E80062
:103EA0008E778093E8000E94FF268091E80083FFD0
:103EB000DFC180918A0490918B04492F50E04A30F1
:103EC000510508F0D5C1FA01EB58FF4F0C945E3252
:103ED000803821F0823809F0CBC108C08091860477
:103EE00090918704992389F082600FC080918E049D
:103EF0008F70873008F0BCC18093E9008091EB009F
:103F000085FB882780F91092E9009091E800977F5F
:103F10009093E8008093F1001092F10070C1282F77
:103F20002D7F09F0A5C1882319F0823061F0A0C16E
:103F300080918C04813009F09BC1933009F080E0BE
:103F4000809387042EC080918C0481112AC08091B7
:103F50008E048F702FEF280F263008F089C18093D0
:103F6000E9002091EB0020FF1CC0933021F48091E8
:103F7000EB00806214C09091EB0090619093EB0095
:103F800021E030E0A90102C0440F551F8A95E2F7F5
:103F90004093EA001092EA008091EB0088608093E1
:103FA000EB001092E9008091E800877F8093E800A1
:103FB0000E94FF265DC181115BC110918C041F77A7
:103FC0008091E3008078812B8093E3008091E8006A
:103FD000877F8093E8000E94FF268091E80080FFA1
:103FE000FCCF8091E30080688093E300111102C050
:103FF00082E001C083E0809388043AC18058823017
:1040000008F036C120918C0430918D042C3D53E092
:10401000350779F583E08A838AE289834FB7F8947C
:10402000DE01139620E03EE051E2E32FF0E05093F2
:104030005700E49120FF03C0E295EF703F5FEF70FF
:104040008E2F90E0EA3010F0C79601C0C0968D9395
:104050009D932F5F243149F74FBF8091E800877F00
:104060008093E8006AE270E0CE0101960E948B28FE
:10407000B4C080918E0490918F04432F5527433014
:104080005105A9F068F44130510509F400C14230EE
:10409000510509F0EDC08BE590E0E6ECF2E04BC095
:1040A0004132510529F14232510589F1E1C0C9017E
:1040B000992781309105A1F058F0029709F0D8C0F6
:1040C000E3E3F3E0E4918E2F90E0E3E3F3E030C02C
:1040D000E7E6F3E0E4918E2F90E0E7E6F3E028C016
:1040E000EBE4F3E0E4918E2F90E0EBE4F3E020C00A
:1040F0008330910508F0BCC0880F991FFC01E75977
:10410000FE4F0190F081E02D89E090E014C08330F3
:10411000910508F0ADC0FC01EE0FFF1FED59FE4FF9
:104120000190F081E02DDC01A05ABE4F8C9190E00F
:10413000009709F49DC02091E800277F2093E800B4
:1041400020919004309191042817390708F4C9018F
:1041500040E0009789F120918804222309F43DC0B2
:104160002530D9F12091E80023FD37C02091E800E7
:1041700022FD2FC02091E80020FFEBCF4091F300FB
:104180002091F20030E0342B009759F028303105AF
:1041900040F444914093F100319601972F5F3F4FD7
:1041A000F3CF41E02830310509F040E02091E800EC
:1041B0002E772093E800CDCF4111CDCF0AC080915A
:1041C0008804882351F0853041F08091E80083FD18
:1041D00004C08091E80082FFF2CF8091E8008B77E5
:1041E0008093E80045C0803809F042C08091E80023
:1041F000877F8093E800809189048093F10080910B
:10420000E8008E77D3CE811133C080918C049091D9
:104210008D049927029764F58091E800877F809349
:10422000E80010918C04109389040E94FF2611115C
:1042300006C08091E30087FD02C081E001C084E0F8
:104240008093880442E061EC81E00E941E2742E2F4
:1042500061EC84E00E941E2742E261EC82E00E9451
:104260001E2742E260EC83E00E941E2780918804B2
:104270008091E80083FF10C08091E800877F8093E1
:10428000E8008091EB0080628093EB0005C082E142
:1042900090E0E1E2F3E04FCFAA960FB6F894DEBFCC
:1042A0000FBECDBFDF91CF911F910895E5EDF4E0F2
:1042B000248130E1231B08F420E024838091A604AC
:1042C00081608093A6040895E5EDF4E0248130E157
:1042D000230F08F42FEF24838091A604816080933C
:1042E000A6040895FF920F931F93CF93DF9300D0FE
:1042F00000D0CDB7DEB78C33910568F5122F042FAF
:10430000F62EBC01660F771F660F771F65597C4F2D
:1043100044E050E0CE0101960E948C318981837087
:104320002A81E82FF0E030EC839FC00111248D5DDD
:104330009A4FDC01A20FB11DFC922B81DC01A20F70
:10434000B11D0C932C81DC01A20FB11D1C93EE5DFD
:10435000FA4F81E080830F900F900F900F90DF91C4
:10436000CF911F910F91FF900895FF920F931F938C
:10437000CF93DF93182F062FF42EC0E0D0E02F2D1F
:10438000402F612FCE010E9472212196CC33D1059E
:10439000B1F7DF91CF911F910F91FF9008950F9387
:1043A0001F93CF9380912205882331F165EC8EEF26
:1043B0000E946D1E61E08DEF0E946D1E03E215E00C
:1043C000C0E0C0939204E3E9F4E0D8018D918193B9
:1043D00084E0E33AF807D1F724E630E041E150E029
:1043E00062E974E080EA0E94F530892B59F4C05FDD
:1043F000005F1F4FC03C29F710922205CF911F91FB
:104400000F91089581E080932105F6CFAF92BF927E
:10441000CF92DF92EF92FF920F931F93CF93DF9390
:1044200000D000D0CDB7DEB70E943E3065EC8EEFF5
:104430000E946D1E60E08DEF0E946D1E10E060E036
:10444000812F0E946D1E1F5F1831C9F765EC8EEF3A
:104450000E946D1E61E08DEF0E946D1E10E060E015
:10446000812F0E946D1E1F5F103CC9F765EC8EEF17
:104470000E946D1E63E08DEF0E946D1E60E08FE074
:104480000E946D1E60E080E10E946D1E6FEF81E072
:104490000E946D1E61E080E00E946D1E8FE39CE92A
:1044A0000197F1F700C000000BE613E09BE5C92E71
:1044B00094E0D92E28E1A22EEE24E394F12CBB2423
:1044C000B39444E050E0B801CE0101960E948C31D3
:1044D0006A815B814C818981837090E0762F76952B
:1044E00076957695A89E9001A99E300D1124275FA0
:1044F0003A4FF901E70FF11D6770D70102C0AA0F0B
:10450000BB1F6A95E2F7BD017081672B6083652F41
:10451000669566956695F901E60FF11D5770B7012E
:1045200001C0660F5A95EAF75081652B6083542FBE
:10453000569556955695F901E50FF11D477097016F
:1045400002C0220F331F4A95E2F7A9012081422BB6
:104550004083FC01EF5DFA4FB0820C5F1F4FC01625
:10456000D10609F0AECF80912105811111C01092C2
:1045700021050F900F900F900F90DF91CF911F9119
:104580000F91FF90EF90DF90CF90BF90AF90089584
:1045900065EC8EEF0E946D1E60E08DEF0E946D1E37
:1045A00089E0E82E85E0F82E10E0D7016D917D01BD
:1045B000812F0E946D1E1F5F1831B9F7D8CFE5ED2E
:1045C000F4E0438120E1421B08F440E081816281F4
:1045D00090E00C945D1EE5EDF4E0438120E1420F94
:1045E00008F44FEF8181628190E00C945D1EE5ED4F
:1045F000F4E0628120E1621B08F460E08181438184
:1046000090E00C945D1EE5EDF4E0628120E1620F24
:1046100008F46FEF8181438190E00C945D1EE5ED1D
:10462000F4E0818190E04381628108970C945D1EE3
:10463000E5EDF4E0818190E04381628108960C947D
:104640005D1E8091D50486958695815009F48DE193
:104650000C94181E8091D504869586958F5F8E31B7
:1046600008F081E00C94181ECF93DF93C7E5D2E0E9
:1046700060E0CE010E94C3312196C11584E0D807C5
:10468000B9F7DF91CF910895CF92DF92EF92FF9229
:104690000F931F93CF93DF93C0E0D0E08E010457B8
:1046A0001F4F6E018CE1C80ED11CFE01E55AFB4F75
:1046B000E590F4906F2DCE0187960E94C3316E2D48
:1046C000CE0188960E94C3312296CC15DD0569F78C
:1046D0000C171D0731F7E80100331240F9F6DF919E
:1046E000CF911F910F91FF90EF90DF90CF900895A1
:1046F0000F931F93CF93DF93C42FD0E0CC0FDD1F18
:104700002CE1629FC00DD11D11243CE8839FC00D98
:10471000D11D1124CE0187960E94A531082F10E0EB
:10472000102F0027CE0188960E94A5319801282BD2
:10473000C901DF91CF911F910F910895462F8430C9
:1047400038F4753028F46E3018F4672F0C94782301
:1047500080E090E0089586E290E00C94C331CF931E
:10476000C82F811102C06FEF01C062E283E290E0C6
:104770000E94C331C11102C06FEF01C064E084E246
:1047800090E00E94C331C11102C06FEF01C061E02F
:1047900085E290E0CF910C94C33180E00E94AF237A
:1047A00060E070E0CB010E94AB230E9444230E9492
:1047B000342381E00C94AF2383E290E00E94A53182
:1047C000823281F484E290E00E94A531843051F479
:1047D00085E290E00E94A53191E0813009F090E0FF
:1047E000892F01C080E081700895882311F0FA01BB
:1047F00001C0FB0109941F93CF93DF93FC01E35D9C
:10480000FD4F20816223D1F0EC010E947C31182FF2
:104810000E947C318F77782F20E8720F08F47FEFA9
:10482000612F8091D8040E94A22C462F282F672F39
:10483000CE01DF91CF911F910C946416DF91CF913F
:104840001F910895DF92EF92FF920F931F93CF93E2
:10485000DF93EC01FC01E35DFD4F9081692381F161
:10486000D090D7040091D8041091D604E12EF12CF9
:104870000E947C31282FC7018C549F4F68E671E05D
:104880000E944A328E199F0997FD03969595879548
:10489000959587952370612F289F600D11247D2D9C
:1048A000802F0E94A22C462F282F672FCE01DF9148
:1048B000CF911F910F91FF90EF90DF900C946416B1
:1048C000DF91CF911F910F91FF90EF90DF900895AE
:1048D000809316018091D5048370809315010E9406
:1048E000CF2183E08093110108954F925F926F92E0
:1048F0007F928F929F92AF92BF92CF92DF92EF9270
:10490000FF92CF938091040590910505A091060533
:10491000B09107052FB7F894C090ED05D090EE0543
:10492000E090EF05F090F0052FBFC81AD90AEA0A07
:10493000FB0A0E9442294B015C01609304057093BD
:1049400005058093060590930705A091DB04EBED28
:10495000F4E08A2F90E04FEF5FEF60E070E04C19D9
:104960005D096E097F09A91799F0218D328D290102
:10497000612C712C441555056605770510F481509E
:1049800004C02C0D3D1D328F218F9F5F3296EBCFDF
:104990008093DB0480910805811108C0C091D50483
:1049A0008C2F837019F0C695C69501C0C0E0809128
:1049B00011018130F1F030F08230C9F1833009F417
:1049C00046C070C0109212018092A8049092A9046F
:1049D000A092AA04B092AB0489E2EBEDF4E0ACEA59
:1049E000B4E001900D928A95E1F781E08093110186
:1049F00059C08C2F0E948116CC2309F453C00E9409
:104A00000C2A81FF4FC02FEF4FEF6FEF89E290E04C
:104A1000CF91FF90EF90DF90CF90BF90AF909F909D
:104A20008F907F906F905F904F900C9464168C2FB6
:104A3000CF91FF90EF90DF90CF90BF90AF909F907D
:104A40008F907F906F905F904F900C94682480912E
:104A5000A604882351F046E050E06CE170E085ED5B
:104A600094E00E94B3311092A6044091A8045091A2
:104A7000A9046091AA047091AB042FB7F8948091B7
:104A8000ED059091EE05A091EF05B091F0052FBFD7
:104A9000841B950BA60BB70B4097A105B10510F031
:104AA00010921101CF91FF90EF90DF90CF90BF90C7
:104AB000AF909F908F907F906F905F904F900895F0
:104AC0000F931F93CF93DF93C42FD22FFC018281CA
:104AD0008823C9F04093E5050E944E299093E40590
:104AE0008093E30580E28C0F883008F057C0C770D0
:104AF00081E001C0880FCA95EAF7DF91CF911F913D
:104B00000F910C946C2F8091E505481330C0809173
:104B1000E3059091E4050E943329883C910538F51E
:104B200010E21D0FCD17B9F080E28C0F883040F4F1
:104B3000C77081E001C0880FCA95EAF70E94652F0F
:104B4000183028F581E09D2F977001C0880F9A9545
:104B5000EAF70E946C2F802F0E9420301830F0F46A
:104B6000D77081E001C0880FDA95EAF70AC080E2C9
:104B70008C0F883098F4C77081E001C0880FCA9507
:104B8000EAF7DF91CF911F910F910C94652F802F41
:104B9000DF91CF911F910F910C942030DF91CF9135
:104BA0001F910F9108950895809165040895809351
:104BB000F3057093F5056093F405809188048430C3
:104BC000F9F48093E9008FEF9091E800815095FD12
:104BD00006C095ED9A95F1F700008111F5CF80910F
:104BE000E80085FF0DC040E050E063E070E083EF37
:104BF00095E00E94311E8091E8008E778093E80056
:104C00000895BC0184E00C94D725BC0183E00C948A
:104C1000D72524E02093E9002FEF3091E8002150C0
:104C200035FD06C035ED3A95F1F700002111F5CFBD
:104C30002091E80025FF0BC040E050E066E070E006
:104C40000E94311E8091E8008E778093E8000895DD
:104C5000CF93DF9320911001222339F02091F105A9
:104C600027FF03C060E224E002C068E021E0209357
:104C7000E9002FEF3091E800215035FD06C035EDF9
:104C80003A95F1F700002111F5CF2091E80025FFBA
:104C90001DC0EC0180911001811105C040E050E081
:104CA00068E070E003C070E040E050E0CE010E9498
:104CB000311E8091E8008E778093E80080E2FE014B
:104CC000A6E6B4E001900D928A95E1F7DF91CF91CD
:104CD00008951F920F920FB60F9211242F933F93B6
:104CE0004F935F936F937F938F939F93AF93BF93F4
:104CF000CF93DF93EF93FF93C091E900CF70809142
:104D0000EC00D82FD17080FDD0E81092E90080919E
:104D1000F000877F8093F00078940E94801E1092AC
:104D2000E9008091F00088608093F000CD2BCF7077
:104D3000C093E900FF91EF91DF91CF91BF91AF91C7
:104D40009F918F917F916F915F914F913F912F91A3
:104D50000F900FBE0F901F901895E8EDF0E0808146
:104D60008E7F80831092E2001092DA001092E100B0
:104D7000A0EEB0E08C9181608C9380818F778083EE
:104D800019BCA7EDB0E08C918E7F8C9380818F7ED3
:104D900080831092F60508952091E4003091E5009B
:104DA00095E64091EC00842F817040FF23C08091F4
:104DB000E80080FD1DC080918804882399F085302B
:104DC00099F08091EB0085FD11C04091E400509175
:104DD000E5002417350729F3915011F09A01E1CF2E
:104DE00084E0089582E0089583E0089581E00895C5
:104DF00080E008954091E80042FFDDCF0895809162
:104E00008A0487FF11C08091E80082FD05C080916F
:104E100088048111F8CF11C08091E8008B770BC016
:104E200080918804882349F08091E80080FFF8CFC2
:104E30008091E8008E778093E8000895982F97304E
:104E400068F59093E900981739F07091EC00209183
:104E5000ED005091F00003C0242F762F50E021FD8B
:104E600002C09F5FECCF3091EB003E7F3093EB00B0
:104E70003091ED003D7F3093ED003091EB003160DB
:104E80003093EB007093EC002093ED005093F00012
:104E90002091EE0027FDE5CF80E008958F7080938C
:104EA000E90081E00895CF92DF92EF92FF920F9395
:104EB0001F93CF93DF93C8EDD0E088818F7E8883E6
:104EC000E7EDF0E080818160808384E082BF81E053
:104ED0008093F60588818E7F888302EE10E0F801CA
:104EE00010821092DA0081EEC82ED12CF6011082C9
:104EF00088818F77888388818068888388818F7D87
:104F0000888319BC10928804109289041092870437
:104F10001092860490EEE92EF12CF70180818B7FB0
:104F2000808388818160888342E060E080E00E9425
:104F30001E27F60180818E7F8083F8018081816049
:104F40008083808188608083F70180818E7F808369
:104F5000888180618883DF91CF911F910F91FF90AD
:104F6000EF90DF90CF9008951F920F920FB60F929F
:104F700011242F933F934F935F936F937F938F935E
:104F80009F93AF93BF93EF93FF938091E10082FFD4
:104F900009C08091E20082FF05C08091E1008B7F13
:104FA0008093E1008091DA0080FF2AC08091D800D0
:104FB00080FF26C08091DA008E7F8093DA00809196
:104FC000D90080FF18C080E189BD82E189BD09B4A4
:104FD00000FEFDCF81E0809388048091F605811169
:104FE0000FC00E94AD260E9453278091E20084608A
:104FF0008093E20005C019BC109288041092F60557
:105000008091E10080FF17C08091E20080FF13C013
:105010008091E2008E7F8093E2008091E2008061C7
:105020008093E2008091D80080628093D80019BC00
:1050300085E0809388048091E10084FF30C08091F6
:10504000E20084FF2CC080E189BD82E189BD09B402
:1050500000FEFDCF8091D8008F7D8093D800809195
:10506000E1008F7E8093E1008091E2008F7E80934B
:10507000E2008091E20081608093E20080918904E7
:10508000882311F084E007C08091E30087FD02C00F
:1050900081E001C083E0809388048091880480913E
:1050A000E10083FF27C08091E20083FF23C080914D
:1050B000E100877F8093E10082E080938804109272
:1050C00089048091E1008E7F8093E1008091E2006D
:1050D0008E7F8093E2008091E20080618093E20005
:1050E00042E060E080E00E941E278091F00088602E
:1050F0008093F000FF91EF91BF91AF919F918F91BD
:105100007F916F915F914F913F912F910F900FBEC3
:105110000F901F90189520919004309191042617BC
:10512000370748F06115710539F42091E8002E77B2
:105130002093E80001C0B901FC0120E06115710570
:1051400079F1809188048823F1F18530F1F1809123
:10515000E80083FD3CC08091E80082FD2EC0809174
:10516000E80080FFEBCF2091F3008091F20090E007
:10517000922B6115710551F08830910538F4219119
:105180002093F100615071090196F3CF21E0089757
:1051900009F020E08091E8008E778093E800CECF80
:1051A0002111CFCF0AC080918804882361F0853017
:1051B00061F08091E80083FD0AC08091E80082FFE1
:1051C000F2CF80E0089582E0089583E0089581E0C1
:1051D000089581E08093E00080E28093D8001092EF
:1051E000C9008FE19EE40197F1F700C0000087E05D
:1051F00090EBDC0180931F0690932006A09321067C
:10520000B09322069CE088E10FB6F894A8958093AD
:1052100060000FBE90936000FFCF78941F920F92B2
:105220000FB60F9211248F939F93AF93BF938091EA
:10523000ED059091EE05A091EF05B091F005019676
:10524000A11DB11D8093ED059093EE05A093EF0590
:10525000B093F005BF91AF919F918F910F900FBECA
:105260000F901F9018959C014FB7F8948091ED0511
:105270009091EE05A091EF05B091F0054FBF821B14
:10528000930B08952FB7F8946091ED057091EE059A
:105290008091EF059091F0052FBF08952FB7F894F6
:1052A0008091ED059091EE05A091EF05B091F0058C
:1052B0002FBF08951F920F920FB60F9211248F9354
:1052C0009F93AF93BF938091EC05811113C08091A0
:1052D000ED059091EE05A091EF05B091F005419696
:1052E000A11DB11D8093ED059093EE05A093EF05F0
:1052F000B093F005BF91AF919F918F910F900FBE2A
:105300000F901F901895209110012223C9F0209131
:10531000F10527FF15C0262F2695269526952E31B7
:10532000C8F4FC01E20FF11D677081E090E001C05C
:10533000880F6A95EAF78095928189238283089580
:10534000FC0106962281621301C012823196E81791
:10535000F907C1F70895209110012223C1F020918F
:10536000F10527FF14C0262F2695269526952E3168
:1053700030F5FC01E20FF11D677081E090E001C0A3
:10538000880F6A95EAF79281892B82830895FC0140
:1053900032962FEF30E04191641789F02F3F19F4D6
:1053A000411101C0232F3F5F3630A9F72F3F39F05D
:1053B000FC01E20FF11D27FDFA956283089508951F
:1053C0002091EA053091EB052817390771F0909389
:1053D000EB058093EA05E091E805F091E905309747
:1053E00021F00084F185E02D099408952091E605CF
:1053F0003091E7052817390771F09093E7058093FE
:10540000E605E091E805F091E905309721F0068086
:10541000F781E02D09940895E091E805F091E90500
:10542000309721F00190F081E02D099480E00895FB
:1054300022E8241B08F420E0620F08954095282FED
:10544000429F412D1124842F0895E42FF0E0EE0FA8
:10545000FF1FEB54FE4F9081921B97FD9195292FD2
:1054600038E1239F212D1124620F08950F931F937C
:1054700010E0F801EE0FFF1FEB54FE4F90819057A4
:1054800097FD9195000F111FF801EA54FE4FE0813E
:10549000F0E0B097DF01AA0FBB1F8D010E0F1F1F99
:1054A0002003D001219FB00D1124E8E3F0E0E91BB7
:1054B000F10997FDF3959F01220F331F89010E0F0C
:1054C0001F1F40039001419F300D11242A0F3B1FE5
:1054D00037FF02C021583F4F220F232F221F330BCB
:1054E000620F1F910F9108950F931F93522F10E099
:1054F000F801EE0FFF1FEA54FE4FE081F0E0B09795
:10550000EE0FFF1F9F015203D001539FB00D1124D6
:10551000000F111FF801EB54FE4F008110E00057FF
:105520001109000F111F40039001419F300D1124FC
:105530002A0F3B1F37FF02C021583F4F220F232F56
:10554000221F330B620F1F910F9108950F931F932A
:10555000522F10E0F801EE0FFF1FEA54FE4FE081DA
:10556000F0E0B0979F015203D001539FB00D11247A
:10557000000F111FF801EB54FE4F008110E000579F
:10558000110940039001419F300D11242A0F3B1F48
:1055900037FF02C021583F4F220F232F221F330B0A
:1055A000620F1F910F910895EF920F931F9393E055
:1055B000099F80011124159507956E2D600F1F918D
:1055C0000F91EF900895A22F50E0FA01EE0FFF1F08
:1055D000EA54FE4F9081905297FD9195440F551FCC
:1055E000FA01EB54FE4F3081232F30E02A1B3109A2
:1055F000290F311D97FD3A95620F0895E42FF0E0D1
:10560000EE0FFF1FEA54FE4F6081621B0895E42FE6
:10561000F0E0EE0FFF1FEB54FE4F6081621B089518
:10562000622F0895E42FF0E0EE0FFF1FEB54FE4FC2
:10563000408134EE439F412D1124E82FF0E050E0EB
:10564000445E5F4FDA01A21BB1099D01B7FF03C0A1
:1056500031952195310993E0220F331F9A95E1F797
:10566000AF01421B530B9A0157FF02C020E030E00C
:10567000582F259F212D1124822F0895FC019B0175
:10568000009721F477FF2BC080E80895AC0197FFC5
:1056900004C044275527481B590BB901640F751FD7
:1056A00037FD0CC0241B350BC901A5E0880F991FDD
:1056B000AA95E1F70E944A3280E20CC0CB0165E076
:1056C000880F991F6A95E1F7BA01621B730B0E945C
:1056D0004A3280E6861BF7FF03C08195089580E07B
:1056E0000895EF920F93CF93DF93D72FC82FC9015F
:1056F0000E19BA010E943E2B602F681B7D2F8C2F44
:10570000DF91CF910F91EF9008950F93CF93DF9397
:10571000D72FC82FC901BA010E943E2B682F600FF6
:105720007D2F8C2FDF91CF910F910895EF920F93E2
:105730001F93CF93DF93D62FC72F182FC9010E19B0
:10574000010FBA010E943E2B081B202F219F212D03
:105750001124822F6D2F7C2FDF91CF911F910F91FC
:10576000EF900895FF920F931F93CF93DF93F62E40
:10577000D72F182FC901C12FC01BBA010E943E2B81
:10578000982F990F890FC81B2C2F219F212D112491
:10579000822F6F2D7D2FDF91CF911F910F91FF9061
:1057A0000895482F982F46FD9095E92FEF739F702D
:1057B00046FD9F5FE295EF70EE0FF0E0E759FD4F79
:1057C0002181299F802D212D112482958F70229572
:1057D000207F822B3081982F930F892F47FD819551
:1057E000805808950F931F93CF93DF93D62F072FE1
:1057F000182FC42F822F0E94D12BEC2FF0E0EE0F38
:10580000FF1FEB54FE4F90819058890F87FD8195C3
:10581000880F682F2CE0629F612D11246D0F702F6F
:10582000812FDF91CF911F910F9108954091170122
:105830005091180125E038E0429FC001439F900D30
:10584000529F900D1124875E994C9093180180937C
:105850001701890F0895BC018230910508F408955D
:10586000613E8EE1780748F49B0195E036952795D7
:105870009A95E1F748E0420F01C04FEF91E0242FE5
:1058800030E0290F311D35952795229FF001239F88
:10589000F00DF00D11246E177F0718F44FEF420F33
:1058A00004C02F3F39F091E0920F491740F78FEF76
:1058B000890F08958FEF08950F93CF93DF93D72F1C
:1058C000C82F47FD4195E8E3F0E0CF01841B910923
:1058D00047FD9395889FB001899F700D700D11242D
:1058E000229FC001239F900D900D1124860F971FBA
:1058F0000E942B2C682F660F860F682F600F7D2F5C
:105900008C2FDF91CF910F91089520E030E0869F9A
:10591000212D969F200D311D1124C901089520913C
:10592000D90430E1230F08F42FEF60E1822F90E0DB
:105930000E94852CBC0188EB9BE00E941C3180E01A
:1059400090E00895CF92DF92EF92FF920F931F9312
:10595000CF93DF93F62E472FE82FF0E0711106C0AA
:10596000E150FA4F8491782F682F73C0272F30E0D1
:10597000E150FA4FE491FE2F0E2F10E056E0659FA4
:10598000C0011124CFEFD0E0BE010E941C315BEAC0
:105990005603C001579F900D11248F0D911D8F0D3F
:1059A000911D982F990F980F7E01E21AF30AE09E3D
:1059B000D001E19EB00DF09EB00D11248B2F499FB8
:1059C000A0011124452F55277E01E41AF50AE09E17
:1059D000A001E19E500DF09E500D11246E01C91AD8
:1059E000D108C29E7001C39EF00CD29EF00C11240F
:1059F0002F2D3327C21BD30BC09F9001C19F300DA9
:105A0000D09F300D1124932F6230710591F048F42E
:105A100061157105E1F061307105B9F49E2FE52F34
:105A200016C06430710569F040F06630710579F098
:105A30000CC09E2FEB2F832F0AC0EB2F8F2F952F9B
:105A400006C09B2F8E2FE32F02C09B2F852F7E2F0A
:105A5000692FDF91CF911F910F91FF90EF90DF9011
:105A6000CF900895803F39F49091010697FF35C09B
:105A70001092010659C0813F29F490910106191630
:105A8000BCF32BC090910006823F29F497FF25C0FC
:105A90001092000649C0833F19F41916CCF31DC0BB
:105AA00090910206893F29F41916BCF4109202065F
:105AB0003BC08A3F19F497FF10C0F8CF8B3F39F4F1
:105AC0009091030697FF09C0109203062DC08C3FEA
:105AD00021F4909103061916BCF39CE0980F9530C1
