:100000000C94F7030C942F040C942F040C942F04DD
:100010000C942F040C942F040C942F040C942F0494
:100020000C942F040C942F040C94CA140C940614F2
:100030000C942F040C942F040C942F040C942F0474
:100040000C942F040C94C21A0C942F040C942F04BB
:100050000C942F040C9472180C942F040C942F04FD
:100060000C942F040C942F040C942F040C942F0444
:100070000C942F040C942F040C942F040C942F0434
:100080000C942F040C942F040C942F040C942F0424
:100090000C94A1260C942F040C942F040C942F0480
:1000A0000C942F040C942F040C942F04BF08BF0849
:1000B000F208F2086509840A840A840A8309F709A8
:1000C000080A080A4A0E4D0E6E0E7B0E820EA20E14
:1000D000A50EF60E2D0FCE0FCE0F3C0F3E0F420F8A
:1000E000660F870F8A0F8D0FAF0F18123F12E8139C
:1000F0003F12E8138B12AE12E813A313B3130000E0
:1001000000000000000000000000000000000000EF
:1001100000000000000000000000000000000000DF
:1001200000007E0F00D4FFFFFFC700000078000032
:100130000000000000002A2B280000000000000042
:1001400000000000000000000029000000002C1E3C
:100150003420212224342627252E362D3738271EF9
:100160001F202122232425263333362E37381F041F
:1001700005060708090A0B0C0D0E0F1011121314B7
:1001800015161718191A1B1C1D2F3130232D350475
:1001900005060708090A0B0C0D0E0F101112131497
:1001A00015161718191A1B1C1D2F3130354C000459
:1001B0007F3F1F643214643214783C1E1E140A05FB
:1001C00005010980A101850319012AB7001501263F
:1001D000B700950175108100C0050C0901A10185CA
:1001E0000419012AA002150126A0029501751081AB
:1001F00000C005010906A1018506050719E029E7E8
:10020000150025019508750181020507190029EFE0
:100210001500250195F075018102050819012905D0
:10022000950575019102950175039101C00660FF66
:100230000961A1010962150026FF0095207508815A
:10024000020963150026FF00952075089102C0057C
:10025000010906A101050719E029E7150025019507
:1002600008750181029501750881010507190029AA
:10027000FF150026FF009506750881000508190185
:100280002905950575019102950175039101C00934
:10029000025B00030100A0FA090400000103010150
:1002A0000009211101000122400007058103080017
:1002B00001090401000203000000092111010001ED
:1002C0002222000705820320000107050303200006
:1002D00001090402000103000000092111010001CD
:1002E000226D0007058403200001120100020000B6
:1002F0000008464C38370100010200010C034C0095
:1003000046004B0037003800000018034C00460040
:100310004B006500790062006F00610072006400AC
:100320007300000004030904FFAA7F55402223251F
:100330002628292A2C2D2F3032333536383A3B3DAA
:100340003E4042434547494A4C4E505153555759F8
:100350005A5C5E6062646668696B6D6F7173757715
:10036000797B7D7F81838587898A8C8E9092949614
:10037000989A9C9E9FA1A3A5A7A8AAACAEAFB1B323
:10038000B4B6B8B9BBBCBEBFC1C2C3C5C6C7C9CA73
:10039000CBCCCDCED0D1D2D2D3D4D5D6D7D7D8D935
:1003A000D9DADADBDBDBDCDCDCDCDCDDDDDDDDDC93
:1003B000DCDCDCDCDBDBDBDADAD9D9D8D7D7D6D5A5
:1003C000D4D3D2D2D1D0CECDCCCBCAC9C7C6C5C367
:1003D000C2C1BFBEBCBBB9B8B6B4B3B1AFAEACAAB4
:1003E000A8A7A5A3A19F9E9C9A98969492908E8C64
:1003F0008A89878583817F7D7B79777573716F6D3E
:100400006B6968666462605E5C5A59575553515017
:100410004E4C4A4947454342403E3D3B3A383635CB
:100420003332302F2D2C2A292826252322000000A4
:100430000000000000000000010204060A0F17205F
:100440002C3A4A5D71879DB3C7DAE9F5FCFFFCF5EC
:10045000E9DAC7B39D87715D4A3A2C20170F0A0667
:10046000040201000000000000000000003A003B10
:1004700000165C1E001F002000210022003C003DF1
:10048000002B0014001A000800150017003E003F62
:1004900000390004001600070009000A004000416E
:1004A00000E1001D001B000600190005004200438A
:1004B00000E000E300E2002C00E600E4002300245A
:1004C000002500260027002D002E002A001C001801
:1004D000000C00120013002F00300031000B000D43
:1004E000000E000F0033003400280000001100103F
:1004F00000360037003800E500520000000151507E
:100500000051004F0049004B004C004E000100011B
:100510000035003A003B003C003D003E0001000178
:100520000001004A0052004D004B00010001000193
:10053000000100500051004F004E00010001000179
:1005400000010001000100010001000100010001A3
:10055000000100010001002800010001003F0040EF
:1005600000410042004300440045004C00010001EE
:1005700000010001000100010001000100500051D4
:100580000052004F0001000100010000000100A81E
:1005900000AA00A9000100025301000000010001AF
:1005A000000100010001004A0001004D00010001AE
:1005B0000001000100010001000100010001000133
:1005C00000295C010001000100010001000100019F
:1005D000001F5C0100010001000100010001000199
:1005E0000001000100010001000100010001000103
:1005F00000010001000100010001000100010001F3
:1006000000010001000100BD5CBE5CBF5C01000197
:1006100000010001000100010001000100010001D2
:10062000000100010001000100005C000001002841
:100630005C0100010001000100C55C00000100C870
:100640005CC65CC75CC25CC95CC35CCA5C0100017F
:100650000001000100010001000100010001000192
:1006600000295C01000100010001000100010001FE
:10067000001F5C01000100010001000100010001F8
:100680000001000100010001000100010001000162
:100690000001000100010001000100010001000152
:1006A00000010001000100BD5CBE5CBF5C010001F7
:1006B0000001000100010001000100010001000132
:1006C000000100010001000100005C0000010028A1
:1006D0005C0100010001000100C55C00000100C8D0
:1006E0005CC65CC75CC25CC95CC35CCA5C000101DF
:1006F00001010101010101020202020202020202E1
:1007000003030303030303030404040404040405B0
:100710000505050506060606060707070707080874
:100720000808090909090A0A0A0B0B0B0C0C0C0D25
:100730000D0D0E0E0E0F0F0F1010111111121213BE
:10074000131414151516161717181819191A1A1B39
:100750001B1C1D1D1E1E1F20202122222324242598
:100760002626272829292A2B2C2D2D2E2F303132D1
:1007700032333435363738393A3B3C3D3E3F4041E1
:1007800042434445464748494A4C4D4E4F505153C9
:1007900054555658595A5B5D5E5F61626465666880
:1007A000696B6C6D6F7072737577787A7B7D7E8004
:1007B00082838587888A8C8E8F91939596989A9C50
:1007C0009EA0A2A3A5A7A9ABADAFB1B3B5B7BABC64
:1007D000BEC0C2C4C6C9CBCDCFD1D4D6D8DBDDDF35
:1007E000E2E4E7E9EBEEF0F3F5F8FAFDFF0011249F
:1007F0001FBECFEFDAE0DEBFCDBF04B603FE18C0E8
:100800008091090490910A04A0910B04B0910C040A
:100810008730904BA740B04B59F4109209041092C6
:100820000A0410920B0410920C04E0E0F8E309951E
:1008300012E0A0E0B1E0ECEEF7E502C005900D9209
:10084000A236B107D9F724E0A2E6B2E001C01D92BA
:10085000A930B207E1F70E94A20B0C94F42B0C9480
:1008600000003F924F925F926F927F928F929F9281
:10087000AF92BF92CF92DF92EF92FF920F931F93AE
:10088000CF93DF93CDB7DEB729970FB6F894DEBFCD
:100890000FBECDBFFC018081918123813481232B48
:1008A00031F09F3F31F491E08F3F19F403C091E0A4
:1008B00001C090E090FD2EC77F0185E0DE0111961A
:1008C00001900D928A95E1F7F701228189819A8141
:1008D000222349F00E940B21182F682F89819A81C9
:1008E0000E94342303C00E940823182F69817A8153
:1008F000812F0E94221A8C01F7018281882309F43A
:10090000F1C0C80182519F45409708F01DC18FEF8B
:1009100093E00E94AC298111EFC0025137EA832E87
:1009200032E0932E002379F08114F4E09F0609F45D
:10093000E3C0C4010E94AC29811101C001502FEF16
:10094000821A920AEFCF1E821F82188619864424CB
:1009500043942AE0322E84010F5F1F4FC4010E948E
:10096000AC298E831F82882309F4C6C09FEF980F9D
:10097000933060F48F834E8232E0830E911CC80165
:100980000E94AC298887811102C0B6C048018E013F
:100990000A5F1F4FF80120812223E9F2213009F07C
:1009A0004CC08181813049F46801F2E0CF0ED11C46
:1009B000F80182810E94B6240AC0823051F4680195
:1009C000F2E0CF0ED11CF80182810E94FB23860148
:1009D00086C0833049F46801F2E0CF0ED11CF801E3
:1009E00082810E94A423F3CF843019F00F5F1F4F40
:1009F00076C0F80122810E5F1F4F80E090E030E06A
:100A0000205331092A30310568F4389EA001399EFF
:100A1000500D1124C901840F951F0F5F1F4FF8015E
:100A20002081EDCF009709F45AC0EFE9FFE031973C
:100A3000F1F700C000000197F5CFE22FF0E0E25D92
:100A4000FE4F5490822F86958695869590E0FC0106
:100A5000E25EFE4F64902770712C022E02C07594E6
:100A600067940A94E2F7F1E06F227724FC01E25FD9
:100A7000FE4FA490B12C022E02C0B594A7940A9404
:100A8000E2F731E0A322BB24FC01E250FF4FC49007
:100A9000D12C02C0D594C7942A95E2F781E0C822F0
:100AA000DD246114710419F081EE0E94FB23A1146E
:100AB000B10419F086EE0E94FB23852D0E94B62416
:100AC000AB2819F086EE0E94A423672819F081EE66
:100AD0000E94A423CD2819F08CE20E94B6240F5F57
:100AE0001F4F58CF00313FE5130709F042C581E0A1
:100AF0000E9463230E94251180919303877009F45B
:100B000009C6F7018281882309F404C6809137035E
:100B100082FD00C682E029960FB6F894DEBF0FBEB4
:100B2000CDBFDF91CF911F910F91FF90EF90DF909C
:100B3000CF90BF90AF909F908F907F906F905F907D
:100B40004F903F900C944F200031FFE51F0711F4A8
:100B500081E005C001312FE5120721F482E00E94F7
:100B60006F23C8CF0115FCE51F07D9F41092890047
:100B7000109288008FEF9FE090938B0080938A0003
:100B800090938D0080938C000E947E239FEFE4E37E
:100B9000FCE09150E040F040E1F700C000000E940E
:100BA0004E18F7018281882309F48EC00D3BFCE5C5
:100BB0001F0701F158F40B3B3CE5130799F00C3B80
:100BC0009CE5190709F080C080E00DC00F3BECE503
:100BD0001E0709F45EC008F443C0003C2CE5120770
:100BE000C9F072C088E00E947E1A809128030E949A
:100BF000791A82CF80912803982F9695969596958D
:100C000049F1915E990F990F990F8770892B809305
:100C1000280314C090912803892F86958695869580
:100C20008F5F8F719770893008F04BC0880F880FE5
:100C3000880F892B8093280380912803887F91E077
:100C400009F490E08091280390FB80F980932803B9
:100C50000E94791A8091280386958695869523C0EF
:100C600020912803822F869586958695482F50E0FF
:100C70004830510554F48F5F982F990F990F990FB1
:100C8000822F8770892B80932803809128038160AD
:100C9000DDCF8091280380FF09C08E7F80932803D9
:100CA0000E94791A80E00E943D2626CF81608093C1
:100CB0002803813019F489E0809328038091280368
:100CC000C7CF90932803B8CF033F2CE5120799F4C0
:100CD00006E221EE40EE63EF7CE509C0073DFCE54E
:100CE0001F0711F506E221EE41EE67ED7CE5C70135
:100CF0000E94391901CF043F3CE5130708F05CC19D
:100D0000083D9CE5190731F407E225EE45EE68ED54
:100D10007CE5EDCF093DECE51E0701F708E221E097
:100D200045EE69ED7CE5E3CF882309F47AC11092A2
:100D30002B0303303DE5130758F40A3F8CE51807F1
:100D400080F4C80182509C45449708F054C109C002
:100D500001369DE5190729F0053AEDE51E0709F072
:100D60004AC10E94671F9093370380933603013175
:100D7000FCE51F0709F4C6C008F042C009303CE595
:100D8000130709F49BC000F505309CE5190709F429
:100D900085C078F40330FCE51F0709F478C008F03B
:100DA0007AC002301C4509F0F7C08091360381609B
:100DB000F1C007308CE5180709F478C008F07AC054
:100DC000809136038061E6C00D30ECE51E0709F422
:100DD00087C058F40B302CE5120709F479C008F0ED
:100DE0007BC08091360388606FC00F308CE5180798
:100DF00009F480C008F082C080913603877FCAC0A2
:100E00000D3FECE51E0709F471C000F505312CE536
:100E1000120709F485C068F403318CE5180709F45A
:100E200075C008F095C00E947E23809136038F77AD
:100E3000B1C00B3FECE51E07A9F108F054C00A3F12
:100E40001C4509F0A9C08091370340C001303DE541
:100E5000130709F489C058F40F3F9CE5190709F4FA
:100E60005AC008F069C08091370382602FC00136F4
:100E7000FDE51F0709F47EC0053A2DE5120709F4C8
:100E800083C002301D4509F087C060E06EC08091CC
:100E9000360382607FC08091360316C0809136038E
:100EA000886078C08091370382604FC0809136039C
:100EB000806270C08091360380646CC00E947E2383
:100EC00080913603806866C0846064C081603DC0E4
:100ED000809136038E7F5EC0809136038D7F5AC02D
:100EE0008091360316C08091370318C08091370374
:100EF0008D7F2BC0809136038F7E4CC0809136034E
:100F00008F7D48C0809136038F7B44C0809136032B
:100F1000877F8B7F3FC0809137038D7F8E7F15C089
:100F20008091360382FB222720F991E0922790FBE3
:100F300082F990FB83F92EC080913703982F90950A
:100F400091708E7F892B90FB81F98093370324C0A9
:100F50000E947E238091360387FB222720F991E0AF
:100F6000922790FB87F916C061E08EE090E00E9426
:100F7000C02912C08091360384FB222720F991E01A
:100F8000922790FB84F906C080913603982F9095A4
:100F900090FB80F9809336036091360310913703FC
:100FA00084E090E00E94C029612F82E290E00E94DC
:100FB000C0290E947E23A0CD053F2CE5120731F405
:100FC00006E221EE42EE65EF7CE591CE053F3CE581
:100FD000130730F407E225EE44EE64EF7CE587CE9C
:100FE000063F9CE5190709F09FCE07E225EE46EE85
:100FF00066EF7CE57CCE0631ECE51E0721F580919D
:10100000B5038A7A91E009F490E090936402882312
:1010100011F065E301C069E28BE393E00E94CC1814
:101020000FC006319CE5190709F040C080916402A9
:10103000882309F4A5C265E38BE393E00E94A4181A
:101040000E94FA1F59CD0A35FDE51F0749F158F4F2
:1010500001153CE51307B1F00E3D1C4509F042C0F7
:101060000E94831F49CD0B359DE51907D9F00C353A
:101070001D45C1F58091370382FB882780F991E0F7
:10108000892711C00E947E23FFEF24E33CE0F1504A
:1010900020403040E1F700C000000E944E182CCDE7
:1010A00081E001C080E00E946C201CC08091B503EB
:1010B00082720C3C9CE5190709F40CC308F092C23B
:1010C000063CFCE51F0709F4F1C208F069C2033CC5
:1010D0003CE5130709F4E0C208F054C2023C1C4589
:1010E00009F4B5C2F701828100811181882349F09A
:1010F000C8010E940B21D82E682FC8010E943423FA
:1011000004C0C8010E940823D82EB8018D2D0E946A
:10111000221A0E94DE1DB82E192F982EF701028187
:10112000A580A2949FE0A922809193038770B9F0D3
:101130000023A9F0812F807F803421F080E28B0D85
:10114000883068F08091370382FD09C082E00E94F8
:101150004F20809193038770DD24D3948111D12C8B
:10116000C12EC2948FE0C8228C2D90E08C30910566
:1011700008F0CAC1FC01EA5AFF4F0C944C2A812F97
:10118000807F1F70882311F01295107F0023B9F023
:10119000112309F4A7C180E28B0D883010F0911063
:1011A00006C08091B503182B1093B50305C080913C
:1011B000B403182B1093B4030E94FA1F93C18B2D14
:1011C0000E94A423112309F49FC180E28B0D883073
:1011D00080F1992071F110958091B4031823109338
:1011E000B4032AC0812F807F1F70803211F01295C6
:1011F000107F8B2D992021F0F1E09F16D9F149C085
:101200008091370382FF1BC0002369F0112339F05E
:101210008091B503182B1093B5030E94FA1F80E04C
:101220000E94FB2371C180E00E94A423112309F4D2
:101230006BC1812F0E94F31F0E94FA1F65C100231A
:1012400081F08091B603AA2051F021E0A21207C0DC
:10125000182B181709F458C11093B60355C1812BE8
:1012600010C0AA2021F031E0A31609F44DC10E945C
:10127000ED1F27C0002341F085E08A1508F444C122
:10128000812F0E949A2340C194E09A1508F43CC132
:1012900018C0002349F0AA2099F3F701858180FF47
:1012A00021C18F708583ECCFAA2059F0893309F0D2
:1012B00028C1FFEF27EE33E0F15020403040E1F746
:1012C0001EC1812F0E9493231FC1812F8695869571
:1012D000837019F0813061F017C1002321F08B2D4C
:1012E000912F937002C080E090E00E94171912C104
:1012F000002321F08B2D912F937002C080E090E0AD
:101300000E94011907C1812F8370A9F5011100C145
:101310004B2D429546954770440F440F8B2D8F708F
:1013200090E09C01042E01C0220F0A94EAF7B4FE5B
:1013300008C08FE090E001C0880F4A95EAF78095D9
:1013400001C080E0169516951370123069F088F48C
:101350009091B703113019F0822B892302C0922B90
:10136000892B0E947A23D4C0822B9091B7038927BE
:10137000F8CF822BF6CF002319F0812F817001C0A6
:101380008695882309F4C4C04B2D42954695477035
:10139000440F440F8B2D8F7090E09C01042E01C0F0
:1013A000220F0A94EAF7B4FE08C08FE090E001C073
:1013B000880F4A95EAF7809501C080E0169516954A
:1013C0001370123059F078F49091B502113019F081
:1013D000822B892309C0922B892B06C0822B9091E6
:1013E000B502892701C0822B0E945F2391C01F7024
:1013F000002339F0812F0E946F238B2D0E949A23A6
:1014000087C08B2D0E949323812F0E94632380C06D
:101410008B2D92EF991679F1991538F0E0EF9E1621
:1014200059F0F1EF9F1611F159C023EF921651F1C7
:1014300034EF9316B9F052C0002379F084E08A1596
:1014400008F462C01F7181E090E001C0880F1A9516
:10145000EAF79091B50289271FC095E09A1508F424
:1014600053C0F0CF8091370382FF19C0002329F0C9
:10147000812F8F7126C00023D9F3812F8F710E9495
:10148000632342C0002339F01F7181E001C0880F3F
:101490001A95EAF701C080E00E945F2335C000235F
:1014A00099F01F71812F0E946F238091370382FD75
:1014B00007C0E8E01E9FC00111248360809393035E
:1014C000812F0E946F2320C081E00E944F20F1E015
:1014D000FA15D0F482E00E944F2016C0002321F0BC
:1014E000AA2031F28B2D9CCEAA2039F2893349F4FF
:1014F0002FEF37EE83E0215030408040E1F700C00D
:1015000000008B2D0E94A42388EF8C0D843010F4F2
:101510000E942D19DD2009F4FDC08091930380FD08
:10152000F9C0F70112828595859585950E946F23F4
:10153000C7010E9431048091930385958595859517
:1015400029960FB6F894DEBF0FBECDBFDF91CF91C5
:101550001F910F91FF90EF90DF90CF90BF90AF90D1
:101560009F908F907F906F905F904F903F900C94E2
:10157000632301318FE5180709F0F4CA82E0B8CA85
:1015800069E25ACD043CFCE51F0709F48AC0053C1A
:101590001C4509F0A7CD4FE358E268E478E29EC00D
:1015A000093C3CE5130709F48BC070F4073CECE5FB
:1015B0001E0709F480C0083C1C4509F093CD43E3A5
:1015C00058E267E278E28AC00A3C2CE5120709F487
:1015D0007CC00B3C1C4509F085CD46E758E267E826
:1015E00078E27CC0013D8CE5180709F483C098F4CB
:1015F0000E3CECE51E0709F477C008F472C00F3CFE
:101600002CE5120709F473C0003D1C4509F06ACDB2
:101610006EE089E077C0043D8CE5180709F470C0DE
:1016200060F4023DECE51E0709F467C0033D1C456C
:1016300009F058CD61E088E16AC0053D2CE512074C
:1016400009F463C00D351D4509F456CA4BCD809190
:10165000210380FF1BC08E7F8093210360912103B3
:101660007091220380912303909124030E946428A7
:101670001092C0028FEF90E7E2E081509040E0408E
:10168000E1F700C000000E941A2636CA81608093EC
:10169000210361E086953BC04AED58E263EE78E2B3
:1016A0001DC043EE58E26AED78E218C048E458E203
:1016B0006FE378E213C047E258E263E378E20EC0DA
:1016C0004FE058E26BE178E209C04BE158E26FE08D
:1016D00078E204C047E858E266E778E20E94F71A29
:1016E0000BCA61E081E013C065E082E00BC068E0F6
:1016F00086E008C064E18FE005C067E185E102C0D3
:1017000062E289E10E94E51AF7C961E083E20E9482
:101710009828F2C929960FB6F894DEBF0FBECDBF48
:10172000DF91CF911F910F91FF90EF90DF90CF90BD
:10173000BF90AF909F908F907F906F905F904F90F1
:101740003F900895CF93DF93CDB7DEB7AA970FB63A
:10175000F894DEBF0FBECDBF84B7877F84BF0FB6BE
:10176000F894A89580916000886180936000109241
:1017700060000FBE90E080E80FB6F894809361009F
:10178000909361000FBE85B7806885BF85B780687C
:1017900085BF89EE9BE190936302809362020E9471
:1017A0004A140E9469148091E20084608093E200F0
:1017B00078948091AB028823A1F01091E9001F700A
:1017C0009091EC00892F817090FD80E8182B109289
:1017D000E9008091E80083FD0E9430111F70109392
:1017E000E90082E084BD93E095BD9AEF97BD8093B8
:1017F0006E000E94601A811102C00E94511A05E217
:1018000011E04FE2E42E41E0F42ED8018D918D01DC
:101810008F3F11F00E942E1CE016F106B1F70FE287
:1018200011E037E3E32E31E0F32EF80181918F01CF
:101830008F3F11F00E942E1CE016F106B1F78AE0EE
:10184000ECE7F2E0DF01282F1D922A95E9F7E5E6A3
:10185000F2E0DF011D928A95E9F783E090E00E94B3
:10186000AC29823040F061E083E090E00E94C02922
:1018700081E00E947A238EEF8093800089E180933B
:1018800081008FEF9FEF90938700809386008FEF0A
:101890009FE0909389008093880010928B001092B3
:1018A0008A0010928D0010928C00259A269A279A11
:1018B0003E9A46980E9495270E94781F811102C087
:1018C0000E94831F82E090E00E94AC298093700206
:1018D0000E94671F90933703809336030E94451C34
:1018E000EFE3FCE93197F1F700C000000E94451CCE
:1018F00080917C0280FF08C06FEF7FEF80E090E076
:101900000E94DE290E944E1883E090E00E94AC29DC
:101910000E947A230E9495270E94971A80916F0255
:10192000811133C00E94781F811104C00E94831F5F
:101930000E94ED2888E090E00E94B4296093210382
:101940007093220380932303909324036E7F71F49A
:101950000E94ED2888E090E00E94B4296093210362
:101960007093220380932303909324030E945128B1
:101970001092C0028091210380FF04C060E0869530
:101980000E94982881E080936F0280918100886096
:1019900080938100809181008160809381008FB766
:1019A000F89420ED33E030938900209388008FBFB6
:1019B00086E091E090932F0380932E0300E1302E78
:1019C00082E1482E90E1592E2EEA622E21E0722EFD
:1019D000CE0101967C015E019DE0A90EB11C8091B3
:1019E000AB028530E1F49091AA028091AB02853080
:1019F00081F48091AB029923C1F30E94451CECE76E
:101A0000F2E081918111F2C2A2E0E638FA07C9F74B
:101A1000EACF0E947E230E94971A0E942D190E94ED
:101A2000451C882359F08FB7F894409132035091A8
:101A3000330360913403709135038FBF1CE7812E0F
:101A400012E0912EA1E7B2E0F40100E010E0302FA7
:101A500021919D91922721F180E0DD24D394492F9B
:101A60004D21D1F089A33AA32D2181E009F480E032
:101A70008BA30E9498188160782F9DA38CA349A105
:101A80005AA16BA18DA10E947225F801EF58FD4F5C
:101A90008081D826D08219C08F5FDD0C8830F9F69E
:101AA0000F5F1F4F0A30110591F68FEF8EA38FA3A2
:101AB00018A60E9498188160782F9AA789A74EA12E
:101AC0005FA168A58AA50E9472258091C002882323
:101AD00009F492C08091BF02E0912103E695E81BD2
:101AE000E0930104823059F4F0E0E454FE4FE491B5
:101AF0000E2F10E0B0E1CB2EB8E1DB2E58C08630BF
:101B000059F4F0E0E754FE4FE4910E2F10E0A0E00E
:101B1000CA2EA8E1DA2E4BC0893061F4E695F0E0D8
:101B2000EA54FE4FE4910E2F10E0F2E5CF2EF6E1DD
:101B3000DF2E3DC08F3061F4E695F0E0ED54FE4FAE
:101B4000E4910E2F10E0E0E9CE2EE7E1DE2E2FC06B
:101B5000853159F4F0E0E055FE4FE4910E2F10E08E
:101B60007FE3C72E77E1D72E22C0883199F08332E8
:101B700041F4F301059114916EE0C62E6BE1D62E6F
:101B800016C0843271F000ED17E05CE0C52E56E11E
:101B9000D52E0DC008E210E046EBC42E46E1D42E4F
:101BA00006C004EF11E03CE7C32E36E1D32E80914E
:101BB0000204882361F0109202040E949818909306
:101BC00000048093FF0310920404109203040E9407
:101BD0009818E091FF03F09100048E1B9F0B8F3F3C
:101BE0009F4750F40E0F1F1F109300040093FF0334
:101BF0008FEF93E0F60109950E942D1990917B02D9
:101C0000891380937B028091AB02843009F0E7CE88
:101C100083E08093E9008091E80082FFE0CE80912C
:101C2000E80085FF21C00E94AD1581111BC000E2B4
:101C300010E0CE0101966C0108C08091F100D60140
:101C40008D936D010150110969F08091E80085FDC7
:101C5000F4CF8091E8008B778093E8000E94AD1567
:101C6000882399F391E001C090E08091E8008B77A0
:101C70008093E800992309F4B2CEE9818E2F90E099
:101C8000FC013197E331F10508F088C1EE59FF4FAF
:101C90000C944C2A1A8289E0DEC08A81823009F4D1
:101CA000BBC1833089F0813009F078C12FB7F89437
:101CB0008091320390913303A0913403B0913503A6
:101CC0002FBFBB83AC831CC0FE013396D4018D9122
:101CD0004D018193AE16BF06C9F762C18A81823079
:101CE00009F05CC16B817C818D819E810E94522AAA
:101CF0000E942F1A55C14C816B818A810E94FC1968
:101D00009D8391C10D811E811027012710278C8191
:101D1000CB809A81B0E1CB9E60011124E0EA9E9FC6
:101D2000C00CD11C1124C80ED11CC80ED11C612FAF
:101D3000C60187960E94C029602FC60188960E941E
:101D4000C0292EC10E94C8192BC18A81893061F433
:101D50008B81F8E08F9FC00111246FEF70E00E942B
:101D6000022A862F0E947E1A8A818138B1F050F4AF
:101D7000803809F015C120E04B81609123038091E8
:101D8000220331C0823859F1833809F009C120E0BB
:101D9000409124036C818B8126C060E08B810E947E
:101DA00098289B8180912103911111C08E7F80938F
:101DB00021031092C0022FEF80E792E02150804073
:101DC0009040E1F700C000000E941A26E9C081603F
:101DD0008093210360E086950E949828E1C08B8162
:101DE00080932503DDC00E944E1BDAC08A818930B2
:101DF00021F08A3089F41B82D3C080912803869514
:101E000086958695AFEF8A9FC001112423E09695B1
:101E100087952A95E1F71FC0813899F030F4803812
:101E200009F0BEC08091240316C0823891F0833837
:101E300009F0B6C0809122038B83809123038C83A9
:101E4000AFC08091210380FF02C0869504C080E06E
:101E500002C0809125038B83A3C0809128030E9438
:101E6000791A60912103709122038091230390914C
:101E700024030E94642894C05A8292C081E08A831D
:101E800089E5E9CF0A811B811027012710278C8063
:101E9000912C6701C80189559D4F96012E193F0964
:101EA0002815390508F07CC00935B1E01B0728F476
:101EB0000E94AC29F601848303C0D60114961C92BB
:101EC0000F5F1F4FBFEFCB1ADB0AE4CF0A811B81E4
:101ED0001027012710278C80912C6701C801895594
:101EE0009D4F96012E193F092815390508F058C055
:101EF0000935E1E01E0728F4D60114966C910E9482
:101F0000C0290F5F1F4FBFEFCB1ADB0AE7CF0E943C
:101F1000B81946C084E08A8343C00A811B81102718
:101F2000012710278C80912C6701C80187969601A4
:101F30002E193F092815390598F50038E2E01E07EB
:101F400030F40E94AC29D60114968C9302C0F6019D
:101F500014820F5F1F4FFFEFCF1ADF0AE6CF0A810F
:101F60001B811027012710278C80912C6701C80145
:101F7000879696012E193F092815390588F40038EF
:101F800022E0120728F4D60114966C910E94C02911
:101F90000F5F1F4FBFEFCB1ADB0AE9CF8FEF8983AB
:101FA0008091AB02843009F01ACD1091E9001F70C6
:101FB0009091EC00892F817090FD80E8182B82E0D1
:101FC0008093E9008091E80080FF0CC040E050E081
:101FD00060E270E0C7010E94E0158091E8008E7712
:101FE0008093E8001F701093E900F9CC39BC49BC1C
:101FF00009B400FEFDCF8091D8008F7D8093D8007A
:102000008091E00082608093E0008091E00081FD9B
:10201000FCCF0E947E23E7CC86E290E00E94AC29B0
:102020001B821C821D828E83BBCF8091AD0287FFF5
:1020300011C08091E80082FD05C08091AB02811142
:10204000F8CF11C08091E8008B770BC08091AB0274
:10205000882349F08091E80080FFF8CF8091E80064
:102060008E778093E8000895982F973068F59093C5
:10207000E900981739F07091EC002091ED00509133
:10208000F00003C0242F762F50E021FD02C09F5F97
:10209000ECCF3091EB003E7F3093EB003091ED00C0
:1020A0003D7F3093ED003091EB0031603093EB00D9
:1020B0007093EC002093ED005093F0002091EE001F
:1020C00027FDE5CF80E008958F708093E90081E0DF
:1020D00008952091B3023091B4022617370748F0D3
:1020E0006115710539F42091E8002E772093E800FE
:1020F00001C0B901FC0120E06115710579F1809101
:10210000AB028823F1F18530F1F18091E80083FD85
:102110003CC08091E80082FD2EC08091E80080FFE5
:10212000EBCF2091F3008091F20090E0922B6115AB
:10213000710551F08830910538F421912093F10018
:10214000615071090196F3CF21E0089709F020E072
:102150008091E8008E778093E800CECF2111CFCF19
:102160000AC08091AB02882361F0853061F08091D4
:10217000E80083FD0AC08091E80082FFF2CF80E092
:10218000089582E0089583E0089581E00895089518
:10219000BC0184E00C942418BC0183E00C94241846
:1021A0000F931F93CF93DF938C01C62FD42F0E94E0
:1021B0007E27811105C085E08A95F1F70000F7CFF1
:1021C00080E98093BC000E946F271092BE0210939A
:1021D000BB020093BA026C2F70E07093B902609357
:1021E000B8021092B7021092B6028091BC028230FF
:1021F000B1F481E08093BC028091B6029091B70265
:102200009C012F5F3F4F3093B7022093B602F80135
:10221000E80FF91F80818093BB0085E804C081E04E
:102220008093BC0285EA8093BC00DD2349F00E94C4
:102230007E27811105C085E08A95F1F70000F7CF70
:10224000DF91CF911F910F9108958091B502982F42
:102250009670963011F4886001C0877F0C945F23DC
:102260001F93CF93DF93CDB7DEB7AA970FB6F8943D
:10227000DEBF0FBECDBFEDEAF2E085EB92E020912C
:10228000F10021938E179F07D1F78091AE02833022
:1022900009F463C030F4813071F0823009F49DC0DC
:1022A000B4C08A3009F489C08B3009F46EC089301B
:1022B00009F0ABC020C08091AD02813A09F0A5C001
:1022C0008091E800877F8093E8008091B10290912F
:1022D000B202892B21F460E289E892E003C060E059
:1022E00080E090E070E00E9469108091E8008B77B8
:1022F0008093E8008AC08091AD02813209F085C0E8
:102300008091B1029091B202009719F0029709F002
:102310007CC08091E800877F8093E8008091E8008E
:1023200082FD05C08091AB028111F8CF6EC0209173
:10233000F3008091F20090E0922B029731F48091AB
:10234000F100813011F0863021F48091F10080930A
:1023500088028091E8008B7754C08091AD02813A69
:1023600009F053C08091B1029091B202892B09F01B
:102370004CC08091E800877F8093E8008091E8005E
:1023800080FFFCCF8091120137C08091AD02813275
:10239000E1F58091B1029091B202892BB1F5809163
:1023A000E800877F8093E8000E9415108091AF02BB
:1023B000809312010E947E2328C08091AD02813259
:1023C00021F58091E800877F8093E8000E94151036
:1023D0008091B0028093870218C08091AD02813A4B
:1023E000A1F48091E800877F8093E8008091E80065
:1023F00080FFFCCF809187028093F1008091E800FC
:102400008E778093E8000E9415108091E80083FF8A
:10241000DFC18091AD029091AE02492F50E04A3069
:10242000510508F0D5C1FA01EB58FF4F0C944C2A26
:10243000803821F0823809F0CBC108C08091A90210
:102440009091AA02992389F082600FC08091B10215
:102450008F70873008F0BCC18093E9008091EB0059
:1024600085FB882780F91092E9009091E800977F1A
:102470009093E8008093F1001092F10070C1282F32
:102480002D7F09F0A5C1882319F0823061F0A0C129
:102490008091AF02813009F09BC1933009F080E058
:1024A0008093AA022EC08091AF0281112AC0809130
:1024B000B1028F702FEF280F263008F089C180936A
:1024C000E9002091EB0020FF1CC0933021F48091A3
:1024D000EB00806214C09091EB0090619093EB0050
:1024E00021E030E0A90102C0440F551F8A95E2F7B0
:1024F0004093EA001092EA008091EB00886080939C
:10250000EB001092E9008091E800877F8093E8005B
:102510000E9415105DC181115BC11091AF021F7740
:102520008091E3008078812B8093E3008091E80024
:10253000877F8093E8000E9415108091E80080FF5B
:10254000FCCF8091E30080688093E300111102C00A
:1025500082E001C083E08093AB023AC180588230B0
:1025600008F036C12091AF023091B0022C3D53E00B
:10257000350779F583E08A838AE289834FB7F89437
:10258000DE01139620E03EE051E2E32FF0E05093AD
:102590005700E49120FF03C0E295EF703F5FEF70BA
:1025A0008E2F90E0EA3010F0C79601C0C0968D9350
:1025B0009D932F5F243149F74FBF8091E800877FBB
:1025C0008093E8006AE270E0CE0101960E946910F3
:1025D000B4C08091B1029091B202432F552743308D
:1025E0005105A9F068F44130510509F400C14230A9
:1025F000510509F0EDC08BE590E0EFE8F2E04BC04B
:102600004132510529F14232510589F1E1C0C90138
:10261000992781309105A1F058F0029709F0D8C0B0
:10262000ECEFF2E0E4918E2F90E0ECEFF2E030C0BE
:10263000E4E2F3E0E4918E2F90E0E4E2F3E028C0DE
:10264000EAE0F3E0E4918E2F90E0EAE0F3E020C0CE
:102650008330910508F0BCC0880F991FFC01E05C35
:10266000FE4F0190F081E02D89E090E014C08330AE
:10267000910508F0ADC0FC01EE0FFF1FE65CFE4FB8
:102680000190F081E02DDC01A95CBE4F8C9190E0BF
:10269000009709F49DC02091E800277F2093E8006F
:1026A0002091B3023091B4022817390708F4C90108
:1026B00040E0009789F12091AB02222309F43DC04C
:1026C0002530D9F12091E80023FD37C02091E800A2
:1026D00022FD2FC02091E80020FFEBCF4091F300B6
:1026E0002091F20030E0342B009759F0283031056A
:1026F00040F444914093F100319601972F5F3F4F92
:10270000F3CF41E02830310509F040E02091E800A6
:102710002E772093E800CDCF4111CDCF0AC0809114
:10272000AB02882351F0853041F08091E80083FDB1
:1027300004C08091E80082FFF2CF8091E8008B779F
:102740008093E80045C0803809F042C08091E800DD
:10275000877F8093E8008091AC028093F1008091A4
:10276000E8008E77D3CE811133C08091AF02909173
:10277000B0029927029764F58091E800877F8093E3
:10278000E8001091AF021093AC020E9415101111D5
:1027900006C08091E30087FD02C081E001C084E0B3
:1027A0008093AB0242E061EC81E00E94341042E28F
:1027B00061EC84E00E94341042E261EC82E00E940D
:1027C000341042E260EC83E00E9434108091AB024E
:1027D0008091E80083FF10C08091E800877F80939C
:1027E000E8008091EB0080628093EB0005C082E1FD
:1027F00090E0EAEEF2E04FCFAA960FB6F894DEBF73
:102800000FBECDBFDF91CF911F9108951F920F9200
:102810000FB60F9211242F933F934F935F936F93B3
:102820007F938F939F93AF93BF93CF93DF93EF9358
:10283000FF93C091E900CF708091EC00D82FD17048
:1028400080FDD0E81092E9008091F000877F8093AE
:10285000F00078940E9430111092E9008091F0000D
:1028600088608093F000CD2BCF70C093E900FF917A
:10287000EF91DF91CF91BF91AF919F918F917F9118
:102880006F915F914F913F912F910F900FBE0F90DD
:102890001F901895E8EDF0E080818E7F8083109284
:1028A000E2001092DA001092E100A0EEB0E08C910C
:1028B00081608C9380818F77808319BCA7EDB0E015
:1028C0008C918E7F8C9380818F7E80831092860284
:1028D0000895CF92DF92EF92FF920F931F93CF93C1
:1028E000DF93C8EDD0E088818F7E8883E7EDF0E04C
:1028F00080818160808384E082BF81E08093860252
:1029000088818E7F888302EE10E0F8011082109299
:10291000DA0081EEC82ED12CF601108288818F77E3
:10292000888388818068888388818F7D888319BCAB
:102930001092AB021092AC021092AA021092A9025D
:1029400090EEE92EF12CF70180818B7F80838881C6
:102950008160888342E060E080E00E943410F601EC
:1029600080818E7F8083F801808181608083808177
:1029700088608083F70180818E7F80838881806179
:102980008883DF91CF911F910F91FF90EF90DF909F
:10299000CF9008951F920F920FB60F9211242F938C
:1029A0003F934F935F936F937F938F939F93AF93D7
:1029B000BF93EF93FF938091E10082FF09C0809164
:1029C000E20082FF05C08091E1008B7F8093E100EF
:1029D0008091DA0080FF2AC08091D80080FF26C055
:1029E0008091DA008E7F8093DA008091D90080FF99
:1029F00018C080E189BD82E189BD09B400FEFDCF28
:102A000081E08093AB028091860281110FC00E9409
:102A10004A140E9469148091E20084608093E2006D
:102A200005C019BC1092AB02109286028091E100A1
:102A300080FF1CC08091E20080FF18C08091E200FE
:102A40008E7F8093E2008091E20080618093E200BB
:102A50008091D80080628093D80019BC85E0809373
:102A6000AB0280916F00826080936F008091E100E3
:102A700084FF37C08091E20084FF33C080E189BDCC
:102A800082E189BD09B400FEFDCF8091D8008F7D21
:102A90008093D8008091E1008F7E8093E100809147
:102AA000E2008F7E8093E2008091E200816080935B
:102AB000E2008091AC02882311F084E007C080918D
:102AC000E30087FD02C081E001C083E08093AB0298
:102AD0008091AB0280916F008D7F80936F000E9488
:102AE0002D198091E10083FF27C08091E20083FFD0
:102AF00023C08091E100877F8093E10082E0809392
:102B0000AB021092AC028091E1008E7F8093E100D5
:102B10008091E2008E7F8093E2008091E2008061EC
:102B20008093E20042E060E080E00E9434108091F7
:102B3000F00088608093F000FF91EF91BF91AF911A
:102B40009F918F917F916F915F914F913F912F91C5
:102B50000F900FBE0F901F9018952091E4003091B8
:102B6000E50095E64091EC00842F817040FF23C082
:102B70008091E80080FD1DC08091AB02882399F010
:102B8000853099F08091EB0085FD11C04091E40003
:102B90005091E5002417350729F3915011F09A015F
:102BA000E1CF84E0089582E0089583E0089581E014
:102BB000089580E008954091E80042FFDDCF089538
:102BC000EF92FF920F931F93CF93DF937C018B01C2
:102BD0000E94AD15811119C0E70101151105A1F081
:102BE0008091E80085FD0AC08091E8008E7780938F
:102BF000E8000E94AD15882381F307C08991809376
:102C0000F10001501109E9CF80E0DF91CF911F91D0
:102C10000F91FF90EF900895089508958091880294
:102C20000895CF93DF9320911201222339F0209150
:102C3000360327FF03C060E224E002C068E021E021
:102C40002093E9002FEF3091E800215035FD06C0B8
:102C500035ED3A95F1F700002111F5CF2091E8000C
:102C600025FF1DC0EC0180911201811105C040E0DB
:102C700050E068E070E003C070E040E050E0CE015A
:102C80000E94E0158091E8008E778093E80080E252
:102C9000FE01A9E8B2E001900D928A95E1F7DF917B
:102CA000CF910895EF92FF921F93CF93DF93EC01A2
:102CB00084ECE82E82E0F82E10E08C8197014091A0
:102CC000240360912303810F0E94FC28185F83E096
:102CD000E80EF11C183F89F70E941A269A818C8110
:102CE00090FF02C08F5F01C081508C83DF91CF9134
:102CF0001F91FF90EF900895EF92FF920F931F9313
:102D0000CF93DF938C01C4ECD2E0E12CF12CF801DD
:102D10008481FFE0EF16F1041CF4882339F002C02F
:102D2000811104C09E014091240302C09E0140E035
:102D300060912303809122030E94FC288FEFE81A00
:102D4000F80A23969FE1E916F10409F70E941A2672
:102D5000F801848190E00196817099278483DF9146
:102D6000CF911F910F91FF90EF9008958F929F92B6
:102D7000AF92BF92CF92DF92EF92FF920F931F9389
:102D8000CF93DF93EC014C81042F10E09801D80120
:102D90000E94612A9B01AC010E94772A6B017C0191
:102DA000E0E2F0E0E01BF10BA5E5B0E09B01AC0137
:102DB0000E94772A4B015C019F01DF010E94592A82
:102DC0009B01AC010E94822A9B01AC012C0D3D1D90
:102DD0004E1D5F1DC501B4010E942A2A822FF22ECA
:102DE00099E2921728F093E0299F900111240DC0D9
:102DF00025E530E0281B3109C901880F991F280FEC
:102E0000391F37FF02C02F5F3F4F35952795122F8F
:102E1000109594ECC92E92E0D92E00E085E5E82EBD
:102E2000EF1801FD02C08E2D01C08F2D9601412F9C
:102E3000609123030E94FC280F5F83E0C80ED11C21
:102E40000F3179F70E941A268C81811102C091E01E
:102E500003C0803219F49FEF9093150190911501F2
:102E6000890F8C83DF91CF911F910F91FF90EF908D
:102E7000DF90CF90BF90AF909F908F900895EF928A
:102E8000FF921F93CF93DF93C4ECD2E0FE01118237
:102E900010821282339683E0E132F807C1F7E12C09
:102EA000F12C1091C202812F012E000C990BE81613
:102EB000F90694F080911401082E000C990B8E15E0
:102EC0009F0554F09E01409124036091230380915B
:102ED00022030E94FC2803C0198218821A828FEFF5
:102EE000E81AF80A23968FE1E816F104D1F60E9459
:102EF0001A2680911301180F1093C20290911401A9
:102F0000980F90931401191614F41E311CF081953A
:102F100080931301DF91CF911F91FF90EF9008955F
:102F2000AF92BF92CF92DF92EF92FF920F931F93D7
:102F3000CF93DF93FC01828180FF02C0DFEF01C0ED
:102F4000D1E004EC12E0E12CF12C2FE1A22EF801EB
:102F500011821082128294E0C92ED12CB12CC09122
:102F6000C1028B2D8C0F80322CF06A2D0E94F42927
:102F7000892F02C087FD815E082E000C990BE81690
:102F8000F90691F4809124038C9DA0018D9D500D34
:102F900011245595479555954795980160912303C0
:102FA000809122030E94FC28BD0EF1E0CF1AD108C7
:102FB000B1F68FEFE81AF80A0D5F1F4FEFE1EE163A
:102FC000F10429F60E941A26D13039F4C11102C049
:102FD0008EE109C08FEF8C0F06C08C2F90E0019618
:102FE000B7010E94162A8093C102DF91CF911F91F1
:102FF0000F91FF90EF90DF90CF90BF90AF9008952A
:10300000CF93DF93EC01E1E2F3E0438162818C81B5
:103010000E9492298C818F5F8C83DF91CF910895DC
:10302000CF93DF93EC01EC81F0E0E35DFC4F449142
:10303000E1E2F3E0628181810E9492298C818F5FBD
:103040008C83DF91CF9108958093380370933A0376
:10305000609339038091AB028430F9F48093E900E6
:103060008FEF9091E800815095FD06C095ED9A95FF
:10307000F1F700008111F5CF8091E80085FF0DC0C8
:1030800040E050E063E070E088E393E00E94E015E8
:103090008091E8008E778093E800089581E0809326
:1030A000E00080E28093D8001092C9008FE19EE496
:1030B0000197F1F700C0000087E090EBDC018093FE
:1030C000090490930A04A0930B04B0930C049CE0B1
:1030D00088E10FB6F894A895809360000FBE909396
:1030E0006000FFCF78941F920F920FB60F921124B9
:1030F0008F939F93AF93BF9380913203909133034B
:10310000A0913403B09135030196A11DB11D8093A8
:10311000320390933303A0933403B0933503BF91EC
:10312000AF919F918F910F900FBE0F901F901895A8
:103130002FB7F8948091320390913303A091340318
:10314000B09135032FBF0895209112012223C9F0B9
:103150002091360327FF15C0262F26952695269504
:103160002E31C8F4FC01E20FF11D677081E090E0A0
:1031700001C0880F6A95EAF780959281892382833E
:103180000895FC0106962281621301C012823196D5
:10319000E817F907C1F70895209112012223C1F021
:1031A0002091360327FF14C0262F269526952695B5
:1031B0002E3130F5FC01E20FF11D677081E090E0E7
:1031C00001C0880F6A95EAF79281892B828308955E
:1031D000FC0132962FEF30E04191641789F02F3FC8
:1031E00019F4411101C0232F3F5F3630A9F72F3F5B
:1031F00039F0FC01E20FF11D27FDFA956283089575
:10320000089520913003309131032817390771F068
:103210009093310380933003E0912E03F0912F03BC
:10322000309721F00084F185E02D099408952091D4
:103230002C0330912D032817390771F090932D033B
:1032400080932C03E0912E03F0912F03309721F00F
:103250000680F781E02D09940895E0912E03F09106
:103260002F03309721F00190F081E02D099480E048
:1032700008950F931F93CF93DF93C42F122FFC0158
:1032800082818823C9F040932B030E949818909361
:103290002A038093290380E28C0F883008F063C0F2
:1032A000C77081E001C0880FCA95EAF7DF91CF911E
:1032B0001F910F910C949A2380912B0348133CC0CB
:1032C0002091290330912A034FB7F894809132035B
:1032D00090913303A0913403B09135034FBF821B0B
:1032E000930B883C910540F5D0E2D10FC117B9F09E
:1032F00080E28C0F883040F4C77081E001C0880FF5
:10330000CA95EAF70E949323D83030F581E0912FD7
:10331000977001C0880F9A95EAF70E949A23802F30
:103320000E94B624D830F8F4212F277081E001C024
:10333000880F2A95EAF70AC080E28C0F883098F44B
:10334000C77081E001C0880FCA95EAF7DF91CF917D
:103350001F910F910C949323802FDF91CF911F9198
:103360000F910C94B624DF91CF911F910F91089586
:10337000CF93DF93C7EAD2E060E0CE010E94C0297C
:103380002196C11584E0D807B9F7DF91CF91089550
:10339000CF92DF92EF92FF920F931F93CF93DF9321
:1033A000C0E0D0E08E0100561F4F6E0180E1C80ED4
:1033B000D11CFE01E359FB4FE590F4906F2DCE0137
:1033C00087960E94C0296E2DCE0188960E94C02942
:1033D0002296CC15DD0569F70C171D0731F7E801BA
:1033E00000381240F9F6DF91CF911F910F91FF90B5
:1033F000EF90DF90CF9008950F931F93CF93DF93BB
:10340000C42FD0E0CC0FDD1F20E1629FC00DD11D85
:10341000112430EA839FC00DD11D1124CE0187965F
:103420000E94AC29082F10E0102F0027CE018896AB
:103430000E94AC299801282BC901DF91CF911F91DF
:103440000F910895462F843038F47A3028F468308C
:1034500018F4672F0C94FC1980E090E0089586E240
:1034600090E00C94C029CF93C82F811102C06FEF58
:1034700001C062E283E290E00E94C029C11102C053
:103480006FEF01C064E084E290E00E94C029C111A6
:1034900002C06FEF01C061E085E290E0CF910C9433
:1034A000C02980E00E94331A60E070E0CB010E94E6
:1034B0002F1A0E94C8190E94B81981E00C94331A7F
:1034C00083E290E00E94AC29823281F484E290E0B1
:1034D0000E94AC29843051F485E290E00E94AC292E
:1034E00091E0813009F090E0892F01C080E0817087
:1034F0000895682F86E090E00C94C029893008F088
:1035000088E0909128039770282F220F220F220F16
:10351000922B90932803987F21E009F420E090916A
:10352000280320FB90F9909328030C943D260E94D9
:10353000781F81110AC00E94831F80912803847024
:103540008164809328030E94791A86E090E00E94AB
:10355000AC2980932803282F26952695269530E0C0
:103560002930310524F0877080648093280380918E
:10357000280380FF04C086958695869501C080E06B
:103580000C943D261F920F920FB60F9211248F9329
:103590009F93EF93FF9380912603909127030196C9
:1035A0009093270380932603E0912703E695E69501
:1035B000F0E0E35DFB4FE491FF91EF919F918F91DC
:1035C0000F900FBE0F901F9018959091210390FFC0
:1035D00004C09695981740F003C0811105C090E093
:1035E000961710F40C94E32861E00C949828882333
:1035F00011F0FA0101C0FB0109949091210390FFA1
:103600000CC0E4ECF2E0818360834283339693E064
:10361000E132F907C1F70C941A2608950F931F930E
:10362000CF93DF9300D01F92CDB7DEB78C0180918E
:10363000C30281110AC09E012F5F3F4F4FEF6FEF12
:103640000E94FC288A818093C302F8018481813022
:1036500051F028F0823061F44091C3020AC0809199
:10366000C30240E007C06091C30240E080E003C0B5
:1036700040E080E060E00E94FD1AF801848190E063
:10368000019663E070E00E94162A84830F900F90E9
:103690000F90DF91CF911F910F9108955F926F92DC
:1036A0007F928F929F92AF92BF92CF92DF92EF92D2
:1036B000FF920F931F93CF93DF9300D01F92CDB74C
:1036C000DEB7182F762E042F622E9091210390FFE3
:1036D0006DC0E92FE695AE2FB0E0AA5BBE4F8C918E
:1036E0008093BF029E7F923061F49E012F5F3F4F17
:1036F000812F0E94FC284B8169818A810E94FD1ADA
:1037000043C0823019F4009124033EC0863019F47E
:103710001091220339C08930D9F38931A9F5E951D3
:103720008E2F8170582EE695F0E0E85DFC4FA59055
:10373000B49084ECC82E82E0D82EE12CF12CBB246E
:103740009FE1892E912CAE9CC001AF9C900DBE9C38
:10375000900D1124B4010E94022A812F511002C041
:10376000860F01C0861B9601402F672D0E94FC2802
:103770008FEFE81AF80A83E0C80ED11C8FE1E81633
:10378000F10409F70E941A26109322037092230372
:1037900000932403662051F060912103709122036D
:1037A00080912303909124030E9464280F900F902E
:1037B0000F90DF91CF911F910F91FF90EF90DF90CD
:1037C000CF90BF90AF909F908F907F906F905F90C1
:1037D000089580E008959091360392FF0DC0282F40
:1037E0002871283019F4877F846006C0282F24713F
:1037F000243011F48B7F886093FF0DC0282F28712F
:10380000283119F4877E846106C0282F2471243161
:1038100011F48B7E88612091370320FF0DC0382F73
:103820003871383019F4877F816006C0382F3171C4
:10383000313011F48E7F886021FF0DC0282F287150
:10384000283119F4877E816106C0282F217121312A
:1038500011F48E7E886194FD877E0895F894E82F98
:10386000E295EF70F0E031A1282F2F7081E090E019
:1038700001C0880F2A95EAF7982F9095932391A37A
:1038800092A1892B82A3789408957F928F929F9220
:10389000AF92BF92CF92DF92EF92FF920F931F935E
:1038A000CF93DF93CDB7DEB72A970FB6F894DEBF7C
:1038B0000FBECDBFAE014F5F5F4F7A018AE0FA01C4
:1038C00011928A95E9F705E211E06A018FE2A82ECC
:1038D00081E0B82E88248394912CF80180818F3F59
:1038E00009F441C0F894E82FE295EF70F0E021A1CF
:1038F0008F70A40102C0440F551F8A95E2F7CA01D8
:10390000922F982B91A392A18095892382A37894DA
:1039100000C0EFE2F1E0712C31E021912F3F89F0FE
:10392000A22FA295AF70B0E090968C9190E02F708E
:1039300002C0959587952A95E2F780FD02C0832FF6
:1039400001C080E0782A330F51E0E733F50729F70B
:10395000F80180818F3F11F00E942E1CF0EAFA9549
:10396000F1F7F60170820F5F1F4FFFEFCF1ADF0AEA
:10397000A016B10609F0B1CF4AE050E0B70185E6E4
:1039800092E00E94E02B11E0009709F410E0892BEF
:1039900089F08AE0F701A5E6B2E001900D928A95E0
:1039A000E1F781E08093BA030E9498189093B903DD
:1039B0008093B8038091BA038823F9F02091B8036B
:1039C0003091B9034FB7F89480913203909133034B
:1039D000A0913403B09135034FBF821B930B059721
:1039E00060F0E5E6F2E0ACE7B2E081918D9322E091
:1039F000EF36F207D1F71092BA038091C703909186
:103A0000C803A091C903B091CA03893E9340A105A0
:103A1000B105E8F01092C7031092C8031092C903D1
:103A20001092CA030E946F27E091BB03F091BC0380
:103A300001E0008B61E080E00E946526E091C10317
:103A4000F091C203008B61E083E00E9465260E9432
:103A50007E27882379F11092C7031092C803109231
:103A6000C9031092CA038091C303682F0E94652680
:103A70008091C3039091C403A091C503B091C60384
:103A8000892B8A2B8B2B49F01092C3031092C4030D
:103A90001092C5031092C60320C083E090E0A0E01E
:103AA000B0E08093C3039093C403A093C503B09385
:103AB000C60313C08091C7039091C803A091C903A6
:103AC000B091CA030196A11DB11D8093C7039093C5
:103AD000C803A093C903B093CA038091B50290E0D4
:103AE000A0E0B0E0409116015091170160911801DB
:103AF0007091190184179507A607B70709F449C003
:103B0000ECE9F1E040E050E0BA0180809180A280D1
:103B1000B380C480D580E680F780C822D922EA220B
:103B2000FB228C149D04AE04BF0441F58EE0849FFB
:103B3000F001859FF00D1124E456FE4F808591859C
:103B400090938900809388008285938590938B0061
:103B500080938A008485958590938D0080938C0056
:103B60008091B50290E0A0E0B0E0809316019093C0
:103B70001701A0931801B09319010BC03E968B203A
:103B80008A208920809491F24F5F5F4F6F4F7F4F63
:103B9000BCCF812F2A960FB6F894DEBF0FBECDBFE3
:103BA000DF91CF911F910F91FF90EF90DF90CF9019
:103BB000BF90AF909F908F907F900895CF93DF93A9
:103BC0008238910569F1B0F48133910509F46FC031
:103BD00048F48932910509F465C08A32910509F4E7
:103BE0006BC08AC08533910509F457C089339105AC
:103BF000B9F082C0833E910571F138F4803E9105A1
:103C0000B1F0823E910511F177C0863E9105B9F180
:103C1000873E9105C9F1843E910509F06DC024C02D
:103C20002091360320FD53C021FD51C065C0809115
:103C3000360380FD46C08091370380FF48C08091E5
:103C4000360384FD3FC183EE90E03EC18091360390
:103C500082FF3AC0F4CF8091360382FD35C0809157
:103C6000370380FD34C0EBCF8091370381FF35C02F
:103C70008091360384FD26C187EE90E025C18091B6
:103C8000360383FF27C0F4CF8091360383FD22C023
:103C90008091370381FD21C0EBCF8091360385FDF4
:103CA0001FC021C08091360385FD1DC019C08091C1
:103CB000360386FD1BC01DC08091360386FD19C0EA
:103CC00015C089E390E000C182EE90E0FDC080EE77
:103CD00090E0FAC086EE90E0F7C084EE90E0F4C089
:103CE00089E290E0F1C085E390E0EEC08AE290E0E6
:103CF000EBC081E390E0E8C0811532E5930708F05E
:103D000069C0811541E5940728F0982F8827816FB5
:103D1000906ADAC0883E910568F5803E910508F00A
:103D2000D3C0883A9105B8F4853A910548F0855A90
:103D3000E82FF0E0E559FE4F808190E09064C4C028
:103D40008130910509F4BBC008F4BCC084309105F2
:103D500008F4B8C0B9C08F3B910508F0B3C0885AC9
:103D6000E82FF0E0EE0FFF1FE259FE4F80819181B6
:103D70009464AAC0811520E59207F0F09C0174E0DC
:103D8000369527957A95E1F7922F9370482F4370D7
:103D900021E030E002C0220F331F4A95E2F73C6871
:103DA000392B8F70982F9695969540E2949FC0017D
:103DB0001124822B932B88C0811530E4930718F0CF
:103DC0009F70906A81C09C013A9521153F4108F48B
:103DD0007BC078C0EC01C11586E5D807E8F5C115B0
:103DE00025E5D20748F08C2F0E94EB1B8F7190E0E5
:103DF000982F8827906268C0C11534E5D30728F052
:103E00009C2F8827846F906A5FC0AE01437055274E
:103E10002C2F26952695C115D34578F481E090E0A6
:103E200002C0880F991F4A95E2F740E2249F900153
:103E30001124822B932B9C6847C081E090E002C044
:103E4000880F991F4A95E2F740E2249F90011124C0
:103E5000822B932B9A6838C0C1152AE5D207F8F453
:103E6000C11539E5D30790F08C2F8F700E94EB1BA2
:103E700094E0D695C7959A95E1F7CF70D0E0DC2F06
:103E8000CC27D0699E01282BC9011EC0C11548E569
:103E9000D407C0F09C2F8827806F906A15C0CE0190
:103EA00090568115904270F48D2F8F710E94EB1BFC
:103EB000282F2F71CE0199279062922B05C081E0A7
:103EC00090E002C080E090E0DF91CF910895CF9321
:103ED00084E090E00E94AC29C82F82E290E00E942A
:103EE000AC292C2F30E0A901582BCA01CF9108959D
:103EF00080E090E00E94BA29893E9E4F11F40C9414
:103F0000601A80E0089569EE7EEF80E090E00E9404
:103F1000DE2960E082E090E00E94C02960E083E05A
:103F200090E00E94C0291092B70360E084E090E026
:103F30000E94C02960E082E290E00E94C02960E017
:103F400085E090E00E94C02960E086E090E00E9459
:103F5000C0296FEF87E090E00E94C02940E050E068
:103F6000BA0188E090E00E94D22960E08DE090E004
:103F70000E94C02940E050E0BA0188E190E00E9430
:103F8000D22960E087E190E00E94C02940E050E043
:103F9000BA018CE190E00E94D22960E070E080E2FA
:103FA00090E00E94DE2940E050E0BA0188E190E014
:103FB0000E94D22980E00E94331A0E94511A40E0E8
:103FC00050E0BA018FE090E00E94D22940E050E03A
:103FD000BA0183E190E00C94D2298091B60381115B
:103FE0001092B603089580959091B503892380932C
:103FF000B50308959091B5038091B403982B9093E5
:104000003B038091B6038823D9F0892B80933B032F
:1040100080911201882331F08091360387FF02C01E
:104020008EE101C086E0EDE3F3E090E0815028F0FE
:1040300021912223D9F39F5FF9CF91110E94ED1FA7
:1040400040E250E064E973E08BE393E00E94E02BF0
:10405000892B21F180E2EBE3F3E0A4E9B3E00190E6
:104060000D928A95E1F7E0912E03F0912F0330979E
:10407000A9F080911201882359F08091360387FFBF
:1040800007C080913B0380933C0386E080933B0311
:104090000280F381E02D8BE393E009940895209151
:1040A00093038095822380939303982F977099F4BC
:1040B00030E0482F082E000C550B2417350759F017
:1040C0009091370392FD07C08595859585950E944F
:1040D0006323109293030895CF93C0913703C2FBDB
:1040E000992790F9981799F080FBC2F9C09337038C
:1040F0006091360384E090E00E94C0296C2F82E238
:1041000090E00E94C02982E0CF910C944F20CF9183
:1041100008958091920390916103891719F08F5F40
:104120008770FBCF08950F931F93CF93DF938091F8
:10413000600382958F7009F05DC080915D038823D4
:1041400009F458C0809192031091610360915B0360
:1041500070915C03C0915E03D0915F0391E06F3F6B
:1041600009F090E0292F06E0811709F443C0209759
:1041700021F07F3F21F030E003C031E001C0322F59
:1041800090E030FD34C0089FF001099FF00D11242C
:10419000DF01AE59BC4F11963C911197371327C0E0
:1041A0003C91361324C012963C91129731111FC0D6
:1041B00013964D915C9114974C1B5D0B483C510537
:1041C000B0F4809160038F70806180936003E9593F
:1041D000FC4F80818F70806180838BE593E00E942B
:1041E0003104DF91CF911F910F910C94892001969A
:1041F0008770BACFDF91CF911F910F91089580E022
:1042000090E00E94171980E090E00E94011910923E
:10421000B4030C94FA1FCF92DF92FF920F931F9377
:10422000CF93DF936C010091B5028091B703082B07
:10423000C7E0D0E010E0C8010C2E02C0959587952C
:104240000A94E2F780FD04C02197A8F7F12C09C079
:10425000FC2EB6018C2F0E94221A0E94DE1D0197AF
:1042600099F38F2DDF91CF911F910F91FF90DF90E8
:10427000CF900895CF93DF93EC010E940B21BE01F4
:104280000E94221A0E94DE1DDF91CF910895FC0149
:10429000808191810E943A2192959F70963079F0A9
:1042A00010F4925001C09A50923068F4803F69F047
:1042B00018F4883E40F409C0843F29F406C0883EC3
:1042C00020F0813F11F080E0089581E008959F92F1
:1042D000AF92BF92CF92DF92EF92FF920F931F9314
:1042E000CF93DF93CDB7DEB761970FB6F894DEBFFB
:1042F0000FBECDBF8C0185E0F801DE011D96019057
:104300000D928A95E1F7F801E28090915B0360914C
:104310005C0340915E0350915F034115510531F0FC
:104320006F3F31F481E09F3F19F403C081E001C089
:1043300080E0F82FF1709F2E80FD1AC1F8013081C6
:104340002181C380D4808BE5A82E83E0B82EF09025
:104350005D03F601E41BF50BFF2009F4C6C0809154
:104360006003E83CF10508F091C0482F407F09F058
:1043700050C0621311C093130FC0FE2CE1100CC08B
:104380008F70806180936003C5010E943104809129
:104390006003F801858329C1CD2831F02F3F31F426
:1043A00081E03F3F19F403C081E001C080E080FD5F
:1043B00003C081E08E2502C080E090E0F82FF1700C
:1043C000FF2E80FF1CC0809192034091610356E054
:1043D000841709F4E8C090E0589FF001599FF00D50
:1043E0001124EE59FC4F6181261306C060816313CE
:1043F00003C06281E61203C001968770E9CFFE2CEC
:10440000EE2009F4F2C08091600381608093600324
:1044100049C0621306C0931304C0E11002C0F80142
:1044200086C0C8010E944721882351F1EE2041F146
:1044300020916003822F82958F7090E0029774F034
:1044400080915B0390915C0398878F831986DB864C
:10445000CA862C87CE0107960E94310486E0F801B7
:10446000ABE5B3E001900D928A95E1F70E949320AD
:104470000AC06217C9F0C8010E94472181111EC0FD
:10448000C8010E943104FF24F394AFC0482F407F3D
:1044900081F78BE593E00E94310486E0F5011192EB
:1044A0008A95E9F7F12CA1C09313E5CFE110E3CF92
:1044B000F8018583C8010E94310454C0EE2001F345
:1044C00020916003822F82958F7090E0029734F2E2
:1044D00080915B0390915C039A8389831B82DD82C8
:1044E000CC822E83CE010196B7CFE83CF105D0F502
:1044F000FE2CEE2029F2621327C0931325C02091D1
:10450000600320FD18C0822F82958F70482F50E0E5
:104510004115510581F0F80125834F30510541F0D7
:104520008F5F982F9295907F822F8F70892B858334
:10453000C8010E94310486E0F801ABE5B3E00190C8
:104540000D928A95E1F751C0C8010E94472181115F
:1045500085CF80916003816080936003C8010E94D1
:10456000310443C086E0F50111928A95E9F73DC018
:10457000EE2009F485CFC8010E944721F82E882338
:1045800009F47ECF86E0F801ABE5B3E001900D922F
:104590008A95E1F780915B0390915C030E943A2138
:1045A0000E94932022C03D872E878D859E850E9484
:1045B0003A21292F22952F70223028F49F7039F04C
:1045C000811105C00BC0243028F49F7049F4805E2F
:1045D000883020F0C8010E9431049F2CF92C05C0BE
:1045E000F8019581907F99F7F9CF8F2D61960FB6DD
:1045F000F894DEBF0FBECDBFDF91CF911F910F9119
:10460000FF90EF90DF90CF90BF90AF909F90089574
:1046100028E0929F800D1124682F66956695669517
:10462000982F977083E0689FB001112440E050E01C
:1046300080E0FB01E40FF51FE553FC4F208130E0E3
:10464000092E02C0369527950A94E2F72170332788
:10465000042E01C0220F0A94EAF7822B4F5F5F4FAE
:104660004330510531F7089528E0929F800D1124C1
:10467000E82FE695E695E695877051E001C0550F65
:104680008A95EAF783E0E89FF0011124E553FC4F97
:1046900020E030E070E04081CB01022E02C0969510
:1046A00087950A94E2F78170819584278523842772
:1046B00081932F5F3F4F2330310569F70895809331
:1046C000B5020C94FF2021E030E001C0220F8A9552
:1046D000EAF720958091B50282230C945F2321E0B4
:1046E00030E001C0220F8A95EAF78091B502822B53
:1046F0000C945F238093B7030C94FF201092B503B2
:1047000080911201882331F08091360387FF02C027
:104710008EE101C086E0EDE3F3E0DF011D928A95B2
:10472000E9F70C94FF20882321F00E94F31F0C94DA
:10473000FA1F0895882339F09091B503892B80934F
:10474000B5030C94FA1F0895882309F453C0682F09
:10475000823869F40E942D1981FF4CC069E38BE314
:1047600093E00E94CC180E94FA1F69E30EC08338C0
:1047700091F40E942D1980FF3DC063E58BE393E027
:104780000E94CC180E94FA1F63E58BE393E00E941D
:10479000A4180C94FA1F843869F40E942D1982FF22
:1047A00029C067E48BE393E00E94CC180E94FA1FB3
:1047B00067E4EBCF8CEF860F813A38F380E2860F07
:1047C000883048F4677081E001C0880F6A95EAF785
:1047D0000E94F31FDECF8BE5860F833020F480E04C
:1047E00090E00C941719685A673120F480E090E04B
:1047F0000C9401190895CF93882309F4B5C0C82FEC
:104800008238B1F40E942D1981FDAEC069E38BE3BB
:1048100093E00E94CC180E94FA1F2FEF81EE94E0E3
:10482000215080409040E1F700C0000069E317C0CC
:104830008338E1F40E942D1980FD96C063E58BE377
:1048400093E00E94CC180E94FA1F2FEF81EE94E0B3
:10485000215080409040E1F700C0000063E58BE309
:1048600093E00E94A418CF910C94FA1F8438B1F4FD
:104870000E942D1982FD78C067E48BE393E00E94CB
:10488000CC180E94FA1F2FEF81EE94E02150804057
:104890009040E1F700C0000067E4E1CF8CEF8C0F9F
:1048A000813AB8F5809112018823E1F080913603B6
:1048B00087FF18C0EC2FE695E695E695F0E0E55CFD
:1048C000FC4F8281282F30E04C2F477081E090E030
:1048D00002C0880F991F4A95E2F782239323892B00
:1048E00059F411C0EDE3F3E08191C81729F023E0FA
:1048F000E334F207C9F707C06C2F8BE393E00E9403
:10490000A4180E94FA1F6C2F8BE393E00E94CC182E
:10491000AACF80E28C0F883068F4C77081E090E005
:1049200001C0880FCA95EAF79091B503892B80934F
:10493000B50399CFEBE5EC0FE33040F4F0E0E55937
:10494000FE4F808190E0CF910C941719C85AC7315F
:1049500058F4EC2FF0E0EE0FFF1FE259FE4F80817C
:104960009181CF910C940119CF9108951F93CF930A
:10497000DF93182F893319F0C0E0D0E002C0C0E502
:10498000D0E0812F0E94FB23209741F08FE99FE028
:104990000197F1F700C000002197F6CF812FDF913A
:1049A000CF911F910C94A423CF93DF93E82FE6704F
:1049B000F0E0E554FC4FC081D181209771F1615046
:1049C0004150E42FEE0F8170E82BF0E0EC0FFD1F5B
:1049D0009389A1E0B0E0062E01C0AA0F0A94EAF77D
:1049E000211106C0A0959A23938B95A1A92304C0F9
:1049F0009A2B938B95A1A92BA5A3813011F488E064
:104A000001C080E090E1499F600D1124680FFE0114
:104A1000E60FF11D27AB81E0888BDF91CF910895E0
:104A2000FF920F931F93CF93DF93F42ED22F8131F8
:104A300018F08051C7E001C0C6E0082F10E096E0F2
:104A4000899FF0011124EC52FE4F4181442329F04B
:104A5000262F60818C2F0E94D42486E0809FF00155
:104A6000819FF00D1124EC52FE4F4381442329F025
:104A70002F2D62818C2F0E94D42486E0809FF0012C
:104A8000819FF00D1124EC52FE4F4581442351F0DB
:104A90002D2F64818C2FDF91CF911F910F91FF906B
:104AA0000C94D424DF91CF911F910F91FF90089522
:104AB000CF93DF9300D01F92CDB7DEB76F3F61F089
:104AC000880F886E89838DEF8A836B8341E063E072
:104AD000CE0101960E94D0100F900F900F90DF91A1
:104AE000CF9108951F93CF93DF93CDB7DEB767972C
:104AF0000FB6F894DEBF0FBECDBF4B8B5C8B6D8BBA
:104B00007E8B8F8B61111092B40386E09E01235F30
:104B10003F4FD901E82F1D92EA95E9F795E0FE0194
:104B20007396D90101900D929A95E1F79C894E896F
:104B30005F897B897D879E876F87598B488BF901B9
:104B4000DE01179601900D928A95E1F7CE01079646
:104B50000E94672181113EC086E0FE013796DE018A
:104B6000119601900D928A95E1F7FF81E8856A859B
:104B70007B856115710531F0EF3F31F481E0FF3F36
:104B800019F403C081E001C080E080FD23C02091C2
:104B9000610330E0C9010196877099274091920323
:104BA00050E08417950779F1F983EA837D836C835C
:104BB00096E0929FD001939FB00D1124AE59BC4F47
:104BC000FE01319601900D929A95E1F78093610371
:104BD0000E94892016E080919203909161038917C9
:104BE000F9F0189FC00111248E599C4F0E94672133
:104BF0008823B1F08091920390E001968770992705
:104C000080939203E8CF0E947E231092610310925A
:104C10009203EBE5F3E086E0DF011D928A95E9F768
:104C200067960FB6F894DEBF0FBECDBFDF91CF9170
:104C30001F9108950F931F93CF93DF93C4ECD2E09D
:104C400002E412E08091210380FF04C02A814881A0
:104C5000698103C020E040E060E0F80180810E94AB
:104C6000102523960F5F1F4FF3E0C132DF0751F786
:104C7000DF91CF911F910F9108951F93CF93DF93F1
:104C8000883018F4882341F001C088E0E82FF0E074
:104C9000E75CFD4F108101C010E0D1E0C1E0212FA1
:104CA0004C2F6D2F80E00E94D424212F4C2F6D2F8C
:104CB00081E00E94D424CF5FCA3089F7DF5FDA3009
:104CC00069F7DF91CF911F910895EF92FF920F93B3
:104CD0001F93CF93DF93E82FF0E0EE0FFF1FE55413
:104CE000FC4FC081D181209729F1062F182F888190
:104CF000882361F0FE0111927F016BE0812F0E94F9
:104D0000582541E06FE0C7010E94D01088898823B0
:104D100089F0188A60E0812F0E945825402F66EBA9
:104D2000CE014196DF91CF911F910F91FF90EF90AF
:104D30000C94D010DF91CF911F910F91FF90EF90C5
:104D400008951F920F920FB60F9211242F933F9345
:104D50004F935F938F939F93EF93FF938091B9004D
:104D6000887F883239F180F4803109F4A0C030F4B2
:104D7000882309F4A0C08830E9F0A4C08831B9F0D4
:104D8000803209F481C09EC08034B1F138F48033A0
:104D900009F47AC0883309F477C094C08035F1F102
:104DA000883509F456C0883409F08CC06DC083E0A2
:104DB0008093BC022091B6023091B7028091B80274
:104DC0009091B902281739070CF054C02091BA020B
:104DD0003091BB028091B6029091B702AC014F5F57
:104DE0005F4F5093B7024093B602F901E80FF91FE5
:104DF00080818093BB000EC084E08093BC028091D0
:104E0000FD039091FE038F3F9F4F24F488EF809322
:104E1000BD021BC088EF8093BD0219C08091FD03C5
:104E20009091FE039C012F5F3F4F3093FE03209330
:104E3000FD034091BB00FC01E751FC4F408388EF2C
:104E40008093BD022F3F3F4F14F485EC39C085E8B5
:104E500037C08091FD039091FE039C012F5F3F4F6F
:104E60003093FE032093FD032091BB00FC01E7512A
:104E7000FC4F20838091BE02882311F08FEF0BC07E
:104E80001092BC028FEF10C08091BE02882339F0CF
:104E90008091B900887F8093BD0285EA11C010928D
:104EA000BC028091B900887F8093BD0208C082E077
:104EB0008093BC0207C01092BD021092BC0285E92B
:104EC0008093BC00FF91EF919F918F915F914F91E3
:104ED0003F912F910F900FBE0F901F901895ECEB04
:104EE000F2E010828FEF818312821092B9008CE081
:104EF0008093B80085E08093BC0008958091BC0247
:104F0000982F9D7F71F0813071F48091BD028033C4
:104F100011F0883341F480E98093BC000E946F2730
:104F200002C081E0089580E00895AF92BF92CF92D1
:104F3000DF92EF92FF920F931F93CF93DF9300D0F6
:104F40001F92CDB7DEB70E946F273BEBC32E33E035
:104F5000D32EE12CF12C4AE0A42EBE2CD6018D914B
:104F60009C91009711F00E944A2B6BE08B2D0E94C0
:104F70005825C701880F991F182F186E1983AA8208
:104F80001B8241E063E0CE0101960E94D0100E9496
:104F90007E27811105C0B5E0BA95F1F70000F7CF83
:104FA0008091BD028F3F11F561E070E08EE891E0E5
:104FB0000E94962AFC01D6018D939C931183128244
:104FC000118B128A01E00083008B61E08B2D0E941F
:104FD00065266BE08B2D0E9458251983AA820B83CE
:104FE00041E063E0CE0101960E94D010BFEFEB1AC2
:104FF000FB0AE2E0CE0ED11CF4E0EF16F10409F05A
:10500000ACCF0F900F900F90DF91CF911F910F9128
:10501000FF90EF90DF90CF90BF90AF900895E1E2C6
:10502000F3E0438121E1421B08F440E021E062818A
:1050300081810C944E1BE1E2F3E0438121E1420FB8
:1050400008F44FEF21E0628181810C944E1BE1E274
:10505000F3E0628121E1621B08F460E021E043811A
:1050600081810C944E1BE1E2F3E0628121E1620F49
:1050700008F46FEF21E0438181810C944E1BE1E243
:10508000F3E0818121E0438162818A500C944E1BC0
:10509000E1E2F3E0818121E043816281865F0C944B
:1050A0004E1B80912103282F269530E021153105D4
:1050B00019F48170826005C02532310524F08170B9
:1050C0008864809321030895CF92DF92EF92FF923C
:1050D0006B017C010E945128B701A60188E090E095
:1050E000FF90EF90DF90CF900C94D2298091250310
:1050F000882319F0815080932503609121037091DA
:10510000220380912303909124030C9464288091BE
:105110002503833018F48F5F80932503609121036A
:105120007091220380912303909124030C946428AE
:105130009091210390FF3DC09170811102C0926057
:1051400006C0853210F0986402C0880F982B9093A7
:105150002103662351F06091210370912203809115
:105160002303909124030E94642860912103669593
:1051700070E04BE050E08AE191E00E94D32B892B54
:1051800019F01092C00209C081E08093C0020E9411
:105190009818909300048093FF0381E080930204A9
:1051A00020E04091240360912303809122030C941A
:1051B0004E1B0895809121038695815009F484E265
:1051C00061E00C9498288091210386958F5F853249
:1051D00008F081E061E00C949828E1E2F3E083E0DC
:1051E000808311828FEF8283838314826081718137
:1051F000828193810C946428AF92BF92CF92DF9208
:10520000EF92FF920F931F93CF93DF93E82EF62E2A
:10521000E901E42FF0E0611106C0E351F94FE49198
:105220004E2F2E2F71C0062F10E0E351F94F4491FD
:10523000F42FC42ED12C26E0829FC00111242FEF21
:1052400030E0B9010E94022A5BEA5603C001579F71
:10525000900D11248E0D911D8E0D911D582F550FFF
:10526000580FD901A01BB10BAC9DC001AD9D900D95
:10527000BC9D900D1124E92FF59ED0011124AB2F78
:10528000BB277901EA1AFB0AEC9CD001ED9CB00D1A
:10529000FC9CB00D11245901A51AB108A09E700103
:1052A000A19EF00CB09EF00C1124EF2CFF242E19BF
:1052B0003F092C9D80012D9D100D3C9D100D11244A
:1052C000212F6230710591F048F461157105E1F00C
:1052D00061307105B9F4242F4B2F16C0643071056D
:1052E00069F040F06630710579F00CC0242F492F29
:1052F000E12F0AC0492FEF2F2B2F06C0292FE42FB3
:10530000412F02C0292FEB2F49832883EA83DF91A5
:10531000CF911F910F91FF90EF90DF90CF90BF90B2
:10532000AF900895CF93DF9300D01F92CDB7DEB733
:105330009091210390FF0AC09E012F5F3F4F0E9472
:10534000FC284B8169818A810E94FD1A0F900F9081
:105350000F90DF91CF910895F999FECF92BD81BD55
:10536000F89A992780B50895A6E1B0E044E050E0AE
:105370000C94E629A8E1B0E042E050E00C94E62964
:10538000262FF999FECF92BD81BDF89A019700B4FE
:10539000021639F01FBA20BD0FB6F894FA9AF99A9E
:1053A0000FBE08950396272F0E94C1290E94C0298D
:1053B000252F0E94C129242F0C94C1290196272F43
:1053C0000E94C1290C94C029DC01CB01FC01F99990
:1053D000FECF06C0F2BDE1BDF89A319600B40D9241
:1053E00041505040B8F7089587FB082E062687FDE8
:1053F000819567FD61950E948A2A0EF4919507FCBC
:1054000081950895AA1BBB1B51E107C0AA1FBB1FB2
:10541000A617B70710F0A61BB70B881F991F5A9540
:10542000A9F780959095BC01CD01089597FB072EB3
:1054300016F4009407D077FD09D00E94022A07FCD9
:1054400005D03EF4909581959F4F08957095619594
:105450007F4F0895A1E21A2EAA1BBB1BFD010DC0B0
:10546000AA1FBB1FEE1FFF1FA217B307E407F50714
:1054700020F0A21BB30BE40BF50B661F771F881FF0
:10548000991F1A9469F760957095809590959B0186
:10549000AC01BD01CF010895EE0FFF1F0590F491FF
:1054A000E02D099469279627692778278727782789
:1054B00008950E94612A332312F48A1B9B0B0C94DB
:1054C000722AA29FB001B39FC001A39F700D811DDE
:1054D0001124911DB29F700D811D1124911D0895FD
:1054E0000E94612AB7FF0895821B930B08950E94C2
:1054F000612AA59F900DB49F900DA49F800D911DD2
:1055000011240895B7FF0C94772A0E94772A821BF2
:10551000930B0895991B79E004C0991F961708F022
:10552000961B881F7A95C9F7809508950F931F934E
:10553000CF93DF93869F8001879F100D969F100D5C
:105540001124C8010E94B22AEC01009729F0A80199
:1055500060E070E00E94ED2BCE01DF91CF911F91B2
:105560000F9108950F931F93CF93DF93823091058E
:1055700010F482E090E0E0910704F091080420E04C
:1055800030E0A0E0B0E0309719F140815181028114
:10559000138148175907C8F08417950769F41097C5
:1055A00031F012960C93129713961C9327C0009318
:1055B00007041093080422C02115310519F0421781
:1055C000530718F49A01BD01EF01DF01F801DBCFA9
:1055D00021153105F9F0281B390B2430310580F4F1
:1055E0008A819B816115710521F0FB019383828380
:1055F00004C09093080480930704FE01329644C0CF
:10560000FE01E20FF31F81939193225031093983F8
:1056100028833AC02091050430910604232B41F4DD
:105620002091020130910301309306042093050478
:1056300020910001309101012115310541F42DB770
:105640003EB74091040150910501241B350BE091B8
:105650000504F0910604E217F307A0F42E1B3F0B9C
:105660002817390778F0AC014E5F5F4F24173507D4
:1056700048F04E0F5F1F509306044093050481933A
:10568000919302C0E0E0F0E0CF01DF91CF911F9154
:105690000F910895CF93DF93009709F481C0FC0127
:1056A000329713821282A0910704B09108041097D8
:1056B00081F420813181820F931F20910504309164
:1056C00006042817390751F5F0930604E093050402
:1056D00067C0ED0120E030E0CE17DF0740F44A81DB
:1056E0005B819E0141155105F1F0EA01F5CFD383AD
:1056F000C28340815181840F951FC817D90759F47F
:1057000088819981840F951F0296918380838A8175
:105710009B81938382832115310529F4F09308043A
:10572000E09307043DC0E901FB83EA834991599165
:10573000C40FD51FEC17FD0761F480819181840FA0
:10574000951F0296E90199838883828193819B83C7
:105750008A83E0E0F0E012968D919C911397009778
:1057600019F0FD01DC01F7CF8D919C9111979D01FE
:105770002E5F3F4F820F931F209105043091060446
:105780002817390769F4309729F410920804109209
:10579000070402C013821282B0930604A09305048A
:1057A000DF91CF910895FC014150504030F00190BD
:1057B0000616D1F73197CF010895882799270895C4
:1057C000FB01DC0104C08D910190801921F441504E
:1057D0005040C8F7881B990B0895DC0101C06D93F8
:0C57E00041505040E0F70895F894FFCFCE
:1057EC0000000D0420000E1611160D16CC10C8105A
:1057FC00C71001010201FFFFFFFF01191A1B1C1D3D
:10580C001E1F2021223031323334F0F1F4F5F6C66C
:10581C00F792939495969740226D4F022D02C001FA
:10582C00A102BA02DA02000102020202060606090D
:10583C0009090909090F0F0F0F0F0F151515181965
:10584C001919191919191919192324818283E200BC
:10585C00E900EA00B500B600B700CD008301CC002A
:10586C008A019201940121022302240225022602BC
:10587C0027022A02B300B4006F0070000000000081
:10588C00FFFFFFFF0000FF0F000002000000FEFF03
:10589C00FFFF00000000FF0F04000000FCFFFFFFF3
:1058AC00FF0F0000FF0FFFFFFFFFFFFFFFFFFF0FCA
:1058BC00FF0FFF0F000000000000010102030204B3
:1058CC0002010202030403010302030304010402A4
:1058DC000403050105020503060106020603070180
:1058EC000702070308010802080301090108010760
:1058FC000209020802070309030803070409040844
:10590C00040705090508050706090608060707091F
:10591C0007080606080907070706081028374680F7
:10592C00C8FF0C0B0A0910201F1E1C191816151481
:10593C0013121101020304050607080E0D000000E6
:02594C00000059
:00000001FF
