:100000000C94AA070C94E2070C94E2070C94E20704
:100010000C94E2070C94E2070C94E2070C94E207BC
:100020000C94E2070C94E2070C94ED2D0C94BF2E77
:100030000C9458270C94E2070C94E2070C94E20706
:100040000C94E2070C94E2070C94E2070C94E2078C
:100050000C94E2070C94E0270C94E2070C94E2075E
:100060000C94E2070C94E2070C94E2070C94E2076C
:100070000C94E2070C94E2070C94E2070C94E2075C
:100080000C94E2070C94E2070C94E2070C94E2074C
:100090000C94E2070C94E2070C94E2070C94E2073C
:1000A0000C94E2070C94E2070C94E207EF0CEF0CBF
:1000B0001B0D1B0D830DA10D880E880EAC0D140EAB
:1000C000250E250E251E281E491E5A1E621E6D1E57
:1000D000B31EB31EB31EB31EB31E701E731E781E56
:1000E000851E921E951E991EA61EFD21EB2104223F
:1000F0007621B122B122E821B122B1223122B122EE
:1001000045229122B122B122B122B1226522B1222F
:10011000B1226222B1221D22B122B122AB22AB2236
:10012000AB22AB22AB22AB22AB22AB22AB22AD2265
:10013000B122FD21E021B122B122B122B122B122AE
:10014000B122B122B122B122B122AD22B122B1221B
:10015000E821B122A922A922A922A922A922A92201
:10016000A922A922A922AD222C2F532F4B30532F85
:100170004B309F2FC22F4B30193028302900000000
:100180003A003B003C003D003E003F004000410083
:100190004200430044004500460047004800350047
:1001A0001E001F0020002100220023002400250043
:1001B000260027002D002E00000049004A004B00B9
:1001C0002B0014001A000800150017001C0018006E
:1001D0000C00120013002F00300031004C004D00C5
:1001E0004E00390004001600070009000A000B0049
:1001F0000D000E000F003300340028002A0000001C
:1002000000000000E10000001D001B0006001900B6
:10021000050011001000360037003800E50000002E
:10022000000052000000E00000000000E2000000BA
:10023000000000002C00000000000000E6000000AC
:10024000E400500051004F000100000001000100D7
:100250000100010001000100010001000100010096
:100260000100010001000100010001000100010086
:100270000100010001000100010001000100010076
:100280000100010001000100010001000100010066
:100290000100010001000100010001000100010056
:1002A0000100010001000100010001000100010046
:1002B0000100010001000100010001000100010036
:1002C0000100010001000100010000000000000029
:1002D0000100010001000100010001000100010016
:1002E0000100010001000100010001000000010007
:1002F00000000100000001000100000000000000FB
:1003000001000000000000000100010001000100E8
:1003100001000100010000000100010001000100D6
:1003200001000100010001000100010001000100C5
:1003300001000100010001000100010001000100B5
:1003400001000100010001000100010001000100A5
:100350000100010001000100010001000100010095
:100360000100010001000100010001000100010085
:100370000100010001000100010001000100010075
:100380000100010001000100010001000100010065
:100390000100010001000000000000000100010058
:1003A0000100010001000100010001000100010045
:1003B0000100010001000100000001000000010037
:1003C000000001000100000000000000010000002A
:1003D0000000000001000100010001000100010017
:1003E0000100000001000100010001000100010006
:1003F00001000100010001000100010001000100F5
:1004000001000100010001000100010001000100E4
:1004100001000100010001000100010001000100D4
:1004200001000100010001000100010001000100C4
:1004300001000100010001000100010001000100B4
:1004400001000100010001000100010001000100A4
:100450000100010001000100010001000100010094
:100460000100000000000000010001000100010087
:100470000100010001000100010001000100010074
:100480000100010000000100000001000000010067
:10049000010000000000000001000000000000005A
:1004A0000100010001000100010001004445425526
:1004B000473A2064697361626C65642E0A004445A2
:1004C0004255473A20656E61626C65642E0A0000F1
:1004D000000000000000002A2B280000000000009F
:1004E0000000000000000000000029000000002CB7
:1004F0001E3420212224342627252E362D37382756
:100500001E1F202122232425263333362E37381F61
:100510000405060708090A0B0C0D0E0F1011121323
:100520001415161718191A1B1C1D2F3130232D35C1
:100530000405060708090A0B0C0D0E0F1011121303
:100540001415161718191A1B1C1D2F3130354C00A5
:10055000000000000000000000000000000000009B
:10056000000000000000000000000000000000008B
:100570000000007E0F00D4FFFFFFC7000000780AD4
:100580000025303258006C65645F7461736B3A20EB
:10059000004F6E6573686F743A20616374697665A5
:1005A0003A2025640A000A00253033326C62003A92
:1005B000200025303258000A722F63203031323348
:1005C0003435363738394142434445463031323389
:1005D0003435363738394142434445460A00290A02
:1005E000002575002F002575005D2800256400207A
:1005F00000256400200025640020002564007C00A4
:1006000025303258006D6F7573656B6579205B62BC
:10061000746E7C782079207620685D287265702F52
:1006200061636C293A205B00313A0964656C617939
:10063000282A31306D73293A2025750A323A096922
:100640006E74657276616C286D73293A2025750A7F
:10065000333A096D61785F73706565643A2025757A
:100660000A343A0974696D655F746F5F6D61783A39
:100670002025750A353A09776865656C5F6D617884
:100680005F73706565643A2025750A363A097768A4
:1006900065656C5F74696D655F746F5F6D61783AF5
:1006A0002025750A00703A097072696E74207661AF
:1006B0006C7565730A643A097365742064656661D4
:1006C000756C74730A75703A092B310A646E3A09B5
:1006D0002D310A6C743A092B31300A72743A092DA3
:1006E00031300A4553432F713A09717569740A0A0A
:1006F0007370656564203D2064656C7461202A20F8
:100700006D61785F7370656564202A20287265705A
:10071000656174202F2074696D655F746F5F6D6112
:1007200078290A77686572652064656C74613A207F
:10073000637572736F723D25642C20776865656CF4
:100740003D25640A53656520687474703A2F2F65DF
:100750006E2E77696B6970656469612E6F72672FA1
:1007600077696B692F4D6F7573655F6B6579730A78
:10077000004D3E20004D25753A25733E20003F0A6E
:10078000003D2025750A003F0A0064656661756CAE
:1007900074730A0025750A003F0A000A092D2056C5
:1007A000616C756573202D0A00710A000A092D20FD
:1007B0004D6F7573656B6579202D0A003F00433ED0
:1007C00020004C25640A000A092D205374617475B9
:1007D00073202D0A686F73745F6B6579626F617245
:1007E000645F6C65647328293A20253032580A6B9F
:1007F0006579626F6172645F70726F746F636F6C42
:100800003A20253032580A6B6579626F6172645FF5
:1008100069646C653A20253032580A6B65796D61E0
:10082000705F636F6E6669672E6E6B726F3A20251C
:100830003032580A74696D65725F72656164333273
:1008400028293A202530386C580A000A092D2056EC
:10085000657273696F6E202D0A5649443A203078CC
:1008600034443537284D6173746572776F726B73DA
:1008700029205049443A2030783030303128436CB8
:100880006173737920544B4C29205645523A2030DD
:1008900078303030310A4255494C443A20202841C2
:1008A00070722020312032303232290A4F505449A0
:1008B0004F4E533A204C554641204D4F5553454BD2
:1008C00045592045585452414B455920434F4E53AA
:1008D0004F4C4520434F4D4D414E44204E4B524FBF
:1008E00020343039360A4743433A20352E342E30EF
:1008F000204156522D4C4942433A20322E302E3060
:10090000204156525F415243483A20617672350A7F
:10091000000A092D20436F6E736F6C65202D0A4508
:1009200053432F713A09717569740A6D3A096D6FF5
:100930007573656B65790A000A092D204D61676939
:1009400063202D0A443A094465627567204D65733A
:100950007361676520546F67676C650A583A094D83
:100960006174726978204465627567204D6F6465B3
:1009700020546F67676C65202D2053686F77206B5C
:1009800065797072657373657320696E206D61742B
:1009900072697820677269640A4B3A094B6579621B
:1009A0006F61726420446562756720546F67676C7D
:1009B00065202D2053686F77206B657970726573A1
:1009C00073207265706F72740A4D3A0944656275DE
:1009D00067204D6F75736520546F67676C650A56A5
:1009E0003A0956657273696F6E0A533A0953746116
:1009F0007475730A433A09416374697661746520BA
:100A0000436F6E736F6C65204D6F64650A46312DC0
:100A10004631303A0953776974636820746F204C0B
:100A20006179657220302D392028463130203D20F3
:100A30004C30290A302D393A09537769746368209C
:100A4000746F204C6179657220302D390A4752410C
:100A500056453A0953776974636820746F204C6176
:100A600079657220302028616C7465726E617465DE
:100A7000290A423A094A756D7020746F20426F6FDF
:100A8000746C6F616465720A4553433A094A756D27
:100A90007020746F20426F6F746C6F616465722098
:100AA00028616C7465726E617465290A453A095053
:100AB00072696E7420454550524F4D2053657474D1
:100AC000696E67730A4253504143453A09436C6566
:100AD000617220454550524F4D0A4E3A094E4B52D5
:100AE0004F20546F67676C650A006B65796D6170A4
:100AF0005F636F6E6669672E7261773A20253032C8
:100B0000580A2E737761705F636F6E74726F6C5FDB
:100B1000636170736C6F636B3A2025750A2E636195
:100B200070736C6F636B5F746F5F636F6E74726F03
:100B30006C3A2025750A2E737761705F6C63746C54
:100B40005F6C6775693A2025750A2E737761705F4F
:100B50007263746C5F726775693A2025750A2E732B
:100B60007761705F6C616C745F6C6775693A2025A2
:100B7000750A2E737761705F72616C745F7267754E
:100B8000693A2025750A2E6E6F5F6775693A2025D0
:100B9000750A2E737761705F67726176655F657342
:100BA000633A2025750A2E737761705F6261636B0B
:100BB000736C6173685F6261636B73706163653AE4
:100BC0002025750A2E6E6B726F3A2025750A006417
:100BD000656275675F636F6E6669672E7261773AEB
:100BE00020253032580A2E656E61626C653A2025E8
:100BF000750A2E6D61747269783A2025750A2E6B1C
:100C00006579626F6172643A2025750A2E6D6F7581
:100C100073653A2025750A006565636F6E666967BE
:100C20003A0A64656661756C745F6C617965723AE5
:100C30002025750A003F004E4B524F3A206F6666E2
:100C40000A004E4B524F3A206F6E0A000A6D6F75C4
:100C500073653A206F66660A000A6D6F7573653AB0
:100C6000206F6E0A000A6B6579626F6172643A20C8
:100C70006F66660A000A6B6579626F6172643A207A
:100C80006F6E0A000A6D61747269783A206F666649
:100C90000A000A6D61747269783A206F6E0A000A60
:100CA00064656275673A206F66660A000A64656269
:100CB00075673A206F6E0A000A0A4A756D70696E90
:100CC0006720746F20626F6F746C6F616465722E41
:100CD0002E2E2000433E2000436C656172696E67D2
:100CE00020454550524F4D0A000A00253032582009
:100CF000006B6579626F6172645F7265706F7274A8
:100D00003A200064656C5F6B65795F6269743A20B4
:100D100063616E27742064656C3A20253032580A6E
:100D2000006164645F6B65795F6269743A20636136
:100D30006E2774206164643A20253032580A005BC3
:100D4000735D005B575D005B535D005B525D005B54
:100D5000445D005B435D00160343006C006100735B
:100D60000073007900200054004B004C0000001874
:100D7000034D006100730074006500720077006F1E
:100D80000072006B00730000000403090409027B79
:100D900000040100A0FA0904000001030101000998
:100DA000211101000122400007058103080001090B
:100DB00004010002030000000921110100012222A8
:100DC0000007058203200001070503032000010935
:100DD000040200010300000009211101000122B6F4
:100DE000000705840320000109040300020300003A
:100DF00000092111010001222200070585032000BE
:100E0000010705050320000112010002000000088F
:100E1000574D01000100010200010631FF0974A1D4
:100E2000010975150026FF009520750881020976D5
:100E3000150026FF00952075089102C00660FF0985
:100E400061A1010962150026FF0095207508810245
:100E50000963150026FF00952075089102C0050161
:100E60000902A10185020901A1000509190129084A
:100E70001500250195087501810205010930093128
:100E80001581257F95027508810609381581257F12
:100E9000950175088106050C0A38021581257F9594
:100EA0000175088106C0C005010980A101850319EB
:100EB000012AB700150126B700950175108100C001
:100EC000050C0901A101850419012AA002150126BA
:100ED000A002950175108100C005010906A10185D8
:100EE00006050719E029E715002501950875018118
:100EF000020507190029EF1500250195F0750181FC
:100F000002050819012905950575019102950175DC
:100F1000039101C005010906A101050719E029E7B0
:100F2000150025019508750181029501750881015B
:100F30000507190029FF150026FF00950675088191
:100F4000000508190129059505750191029501759E
:100F5000039101C011241FBECFEFDAE0DEBFCDBF89
:100F600004B603FE18C080915B0390915C03A091CE
:100F70005D03B0915E038730904BA740B04B59F4AE
:100F800010925B0310925C0310925D0310925E035B
:100F9000E0E0F8E3099512E0A0E0B1E0E0E2F2E67B
:100FA00002C005900D92A430B107D9F723E0A4E068
:100FB000B2E001C01D92AB35B207E1F70E94541AAE
:100FC0000C940E310C940000FF93EF93E091040217
:100FD000F0910502309709F00995EF91FF9108957E
:100FE000FC018591803011F0EFDFFBCF0895FF27E2
:100FF000E0E230E247FF0CC0419597FF09C0EDE207
:101000006095709580959095611D711D811D911D54
:1010100027FF02C0219530E350E2AA27660F771F11
:10102000881F991FAA1FA41710F0A41B63955A9537
:10103000A9F7AA3008F0A95FA05DAF93F3956115F9
:1010400071058105910541F7ED3211F4EF93F395A8
:10105000F21718F43F93F395FBCF8F91B5DFFA9514
:10106000E1F70895E991F9918591803021F0853279
:1010700019F0AADFF9CF089520E0E8945591553290
:10108000C1F3503311F4689455915A3348F45053D6
:1010900090F3220F022E220F220F200D250FF4CFE6
:1010A0000EF4219589919991533619F3533729F10B
:1010B000533559F1BC0188279927E8945C3621F40F
:1010C0008991999168945591543639F446EF7EF0A0
:1010D00077FF0DC08FEF9FEF0AC055374AE039F018
:1010E000583540E121F0523642E009F00895FF936F
:1010F000EF937DDFEF91FF91B7CFFF93EF93FC016B
:1011000081918030B9F360DFFBCFFF93EF9368DF0D
:10111000F1CFDF93CF93CDB7DEB72596A3DFCF9185
:10112000DF910895259A269A0C94E718CF93C82F3B
:101130000E94DA0A882351F0C1FF02C02D9A01C033
:101140002D98C2FF02C02E9A01C02E98CF9108950B
:1011500081E0089581E008950C94AA0808950C9404
:10116000AE081F93CF93DF9300D000D01F92CDB76E
:10117000DEB749835A836B833091070289819A8154
:10118000311114C0662359F0222349F00E94171030
:10119000182F682F89819A810E94C00F03C00E9476
:1011A000EB0F182F69817A81812F04C00E941710DC
:1011B00069817A810F900F900F900F900F90DF91BF
:1011C000CF911F910C94E023FC01262F4081518187
:1011D0006281738184810C94B10881E00895CF937A
:1011E000DF93EC0160E00E94E408BE01DF91CF9143
:1011F0000C94AF08E1E0F0E0DF0102C0AA0FBB1FD2
:101200006A95E2F7BD01DF0102C0AA0FBB1F4A9534
:10121000E2F7AD01462B01C0EE0F2A95EAF7942FB5
:101220009823491302C08E2B0895E0958E230895CC
:10123000242F462F682F80912F020E94FA080C94C9
:101240007D0F0C9492080C94E51808950E94180FD5
:101250000E9425092FEF84E39CE0215080409040BC
:10126000E1F700C000000C9406280F931F93CF9362
:10127000DF938C0161E00E94E408EC01B8010E9458
:10128000D41D882309F462C0B801CE010E94AC08C5
:10129000882309F45BC0B801CE010E94442588234D
:1012A00009F454C0B801CE010E94BF1E882309F47E
:1012B0004DC0B801CE010E94A024882309F446C085
:1012C000F80182818823D9F1CE3D8CE5D80779F1E8
:1012D00040F4C115FCE5DF0791F0C130DC4591F029
:1012E0002EC0CB35EDE5DE0741F1CC35FDE5DF075E
:1012F00009F1CA35DD4519F50E94991420C00E94F4
:10130000260924C08091CD02C82FC095C170C0FBB2
:1013100080F98093CD02CC2329F08EEB94E00E94DB
:10132000F00714C08CEA94E00E94F00710C00E94FD
:101330004C150CC00E94901402C00E949C14C8015D
:10134000DF91CF911F910F910C94A808C0E08C2FD2
:10135000DF91CF911F910F9108950E9438270C942F
:10136000E60A0E94E90A0C943E27DF92EF92FF9270
:101370000F931F93CF93DF93E82FF0E0E153FB4FE0
:10138000D490282F26952695269530E0F901E1592D
:10139000FA4F0491877010E0082E02C0159507954A
:1013A0000A94E2F701701127F901E15AFA4FE4902B
:1013B000F12C082E02C0F594E7940A94E2F791E02C
:1013C000E922FF24F901E15BFA4FC491D0E002C0A9
:1013D000D595C7958A95E2F7C170DD2701151105EE
:1013E00019F081EE0E946F0BE114F10419F086EE02
:1013F0000E946F0B8D2D0E949D0CEF2819F086EE38
:101400000E941E0C012B19F081EE0E941E0CCD2BA8
:1014100051F08CE2DF91CF911F910F91FF90EF90EF
:10142000DF900C949D0CDF91CF911F910F91FF9055
:10143000EF90DF900895EF92FF920F931F93CF9359
:10144000DF93EC01162F0AE08881882309F455C048
:10145000813009F043C08981813041F47E0182E00E
:10146000E80EF11C8A810E949D0C09C0823049F46B
:101470007E01E2E0EE0EF11C8A810E946F0BE70113
:101480002FC0833041F47E01F2E0EF0EF11C8A811F
:101490000E941E0CF4CF843011F0219621C02A81C5
:1014A000229680E090E030E0205331092A30310567
:1014B00058F4089FA001099F500D1124C901840F01
:1014C000951F21962881EFCF009751F0EFE9FFE0BB
:1014D0003197F1F700C000000197F6CF0E94B509DF
:1014E0002196812F882309F4AFCFEFE9FFE03197F0
:1014F000F1F700C000008150F5CFDF91CF911F912F
:101500000F91FF90EF90089560E00C941B0A829574
:10151000982F937344E0949F900111248C7C8695BE
:101520008695282B822F8575880F2A7A2695822BFF
:101530000895CF93DF93D92F0E94870AC82F8D2F4C
:101540000E94870A2C2F30E0322F2227A901482B36
:10155000CA01DF91CF910895CF92DF92EF92FF926F
:101560000F931F93CF93DF936B017C01CB010E94FC
:10157000990AEC01C7010E94990AAC01CE01A0E0D2
:10158000B0E0DC019927882760E070E08C019D01C4
:10159000042B152B262B372BC901B801DF91CF91D6
:1015A0001F910F91FF90EF90DF90CF9008950895D5
:1015B0000C94D70A81E008950895CF93C82F0E9414
:1015C000D80A8C2F0E949608CF91089580E00C9441
:1015D000DD0A0E94A0250C94DD0ACF930E94A0256D
:1015E000C82F80910602C81741F1C093060280916E
:1015F000CD0282FF1EC080FF04C086E895E00E94F5
:10160000F0078091CD0280FF0CC01F92CF9381E83C
:1016100095E09F938F930E9489080F900F900F90F1
:101620000F908091CD0280FF04C08FE795E00E946B
:10163000F0078C2FCF910C94DD0ACF910895CF93B2
:10164000DF93CDB7DEB72B970FB6F894DEBF0FBE92
:10165000CDBF4F83588769877A878B8761110E9436
:10166000C8139E012F5F3F4F86E0F90111928A95C2
:10167000E9F785E0FE013796D90101900D928A9530
:10168000E1F789819A814C815D81452B31F09F3F43
:1016900031F491E08F3F19F403C091E001C090E074
:1016A00090FF09C049815A816B817C818D819E8127
:1016B0000E94E91205C0C9010E94ED088111F2CF14
:1016C0002B960FB6F894DEBF0FBECDBFDF91CF9142
:1016D0000895FC01808191810E9444100895CF9368
:1016E000882309F4A9C0C82F8238C1F40E94A0251C
:1016F00081FDA2C069E380910201909103010E94E3
:10170000F3260E94EA132FEF81EE94E021508040EF
:101710009040E1F700C0000069E319C0833801F58B
:101720000E94A02580FD88C063E580910201909110
:1017300003010E94F3260E94EA132FEF81EE94E04A
:10174000215080409040E1F700C0000063E58091A7
:101750000201909103010E94FE26CF910C94EA139E
:101760008438C1F40E94A02582FD66C067E48091A0
:101770000201909103010E94F3260E94EA132FEFC9
:1017800081EE94E0215080409040E1F700C00000DD
:1017900067E4DDCF8CEF8C0F813AF8F48C2F0E9438
:1017A000C322811149C06C2F8091020190910301E5
:1017B0000E945126882349F06C2F8091020190915C
:1017C00003010E94FE260E94EA136C2F8091020101
:1017D000909103010E94F326C0CF80E28C0F8830E5
:1017E00048F4C77081E001C0880FCA95EAF70E94EB
:1017F000AB13B3CFEBE5EC0FE33040F4F0E0E95B83
:10180000FE4F808190E0CF910C940F26E8E5EC0F1D
:10181000E73150F4F0E0EE0FFF1FE75EFE4F8081EE
:101820009181CF910C942526C03F30F08C2F0E94DF
:10183000D91ACF910C94AB1BCF910895882309F44A
:1018400064C0823879F40E94A02581FF5EC069E3FC
:1018500080910201909103010E94F3260E94EA13F5
:1018600069E310C08338B1F40E94A02580FF4DC009
:1018700063E580910201909103010E94F3260E948A
:10188000EA1363E580910201909103010E94FE2614
:101890000C94EA13843879F40E94A02582FF35C0A5
:1018A00067E480910201909103010E94F3260E9457
:1018B000EA1367E4E7CF9CEF980F913A10F4682F92
:1018C000E1CF90E2980F983050F4877091E001C01A
:1018D000990F8A95EAF7892F0E94B113D9CF9BE51A
:1018E000980F933020F480E090E00C940F2698E558
:1018F000980F973120F480E090E00C942526803FEB
:1019000020F00E94341B0C94AB1B08951F93CF93BF
:10191000DF93182FEB010E946F0B209741F08FE9A6
:101920009FE00197F1F700C000002197F6CF812FCB
:10193000DF91CF911F910C941E0C893319F060E058
:1019400070E002C060E570E00C94860C882321F002
:101950000E94AB130C94EA130895882321F00E948F
:10196000B1130C94EA130895CF92DF92EF92FF9295
:101970000F931F93CF93DF937C01162FC72FFC018A
:10198000D281058102950F700E94A1138823B9F0BE
:10199000DD23A9F08C2F807F803421F080E2810F3D
:1019A000883068F08091190382FD09C082E00E94AE
:1019B0004A140E94A11391E0D82ED92601C0D12C3F
:1019C000CC2EC2948FE0C8228C2D90E08C309105F3
:1019D00008F09EC1FC01EA5AFF4F0C949E308C2FF8
:1019E000807FCF70882311F0C295C07FDD2399F0EE
:1019F000CC2309F479C180E2810F883010F01111F5
:101A000004C08C2F0E94AB1303C08C2F0E94BB1309
:101A10000E94EA1369C1812F0E941E0CCC2309F495
:101A200077C180E2810F883038F1112329F18C2FA2
:101A30000E94C11324C08C2F807FCF70803211F0A0
:101A4000C295C07F112319F01130A1F13DC08091E2
:101A5000190382FF17C0DD2349F0CC2329F08C2F16
:101A60000E94AB130E94EA1380E03FC180E00E9415
:101A70001E0CCC2309F44CC18C2F0E94B1130E9480
:101A8000EA1346C1DD2371F0002341F0013031F447
:101A90000E94CB138C2B0E94D3133AC10E94CB130C
:101AA0008C2B1DC0002319F0013009F431C10E94B4
:101AB000E01325C0DD2321F0063008F029C10EC057
:101AC000053008F025C11BC0DD2361F0002331F093
:101AD000F701858180FF08C18F7085838C2F0E945C
:101AE000A60C16C1002359F0193309F00EC1FFEFFF
:101AF00027EE83E0F15020408040E1F704C18C2FB5
:101B00000E94AD0C05C18C2F86958695837019F0C7
:101B1000813061F0FDC0DD2321F0812F9C2F937077
:101B200002C080E090E00E940F26FAC0DD2321F081
:101B3000812F9C2F937002C080E090E00E942526A8
:101B4000EFC0812FDD2319F00E94D91A02C00E9434
:101B5000341B0E94AB1BE4C08C2F837079F5D1112C
:101B6000DBC0412F429546954770440F440F212F0B
:101B70002F70042E01C0220F0A94EAF714FF08C048
:101B80008FE090E001C0880F4A95EAF7809501C088
:101B900080E0C695C695C370822BC23049F058F4D8
:101BA000C13019F00E94710FB7C00E946C0FB4C011
:101BB0000E94760FB1C00E946A0FAEC0DD2319F0FB
:101BC0008C2F817001C08695882309F4A5C0412F10
:101BD000429546954770440F440F212F2F70042ED5
:101BE00001C0220F0A94EAF714FF08C08FE090E0CA
:101BF00001C0880F4A95EAF7809501C080E0C6953C
:101C0000C695C370822BC23049F058F4C13019F028
:101C10000E94B50F81C00E94B00F7EC00E94BA0F13
:101C20007BC00E947D0F78C0CF70DD2339F08C2FF0
:101C30000E948E0F812F0E94A60C6EC0812F0E94E1
:101C4000AD0C8C2F0E94990F67C0123F21F128F430
:101C5000103F41F0113FC1F043C0133F19F1143F51
:101C600079F03EC0DD2341F0053008F051C08C2FE3
:101C70008F710E94A50F4CC0063008F049C0F7CF05
:101C80008091190382FF18C0DD2339F08C2F8F71EA
:101C90000E948E0F3DC0DD23C9F38C2F8F710E94EF
:101CA000990F36C0DD2329F08C2F8F710E94860F8B
:101CB0002FC00E94830F2CC0DD2349F0CF718C2FE1
:101CC0000E948E0F63E08C2F0E942F1421C081E0B0
:101CD0000E944A140230E0F082E00E944A1418C0C8
:101CE000DD2331F0002391F2812F0E946F0B10C091
:101CF000002399F2193349F49FEFE7EEF3E0915096
:101D0000E040F040E1F700C00000812F0E941E0C6F
:101D100088EF8C0D843020F40E94A0250E94DD0AFB
:101D2000DD20C9F00E949D1380FD15C0F7011282CD
:101D30000E9497130E948E0FC7010E94CC0E0E9432
:101D40009713DF91CF911F910F91FF90EF90DF904C
:101D5000CF900C94990FDF91CF911F910F91FF902D
:101D6000EF90DF90CF9008950F931F93CF93DF9361
:101D7000EC01688179818A810E944F108C010E9458
:101D8000BF0F0E945E0FB801CE010E94B40CDF911C
:101D9000CF911F910F910895CF93DF93EC0198811C
:101DA00089812B813C81232B31F08F3F31F481E0FD
:101DB0009F3F19F403C081E001C080E080FD1DC099
:101DC000CE010E943509811110C00E94A113882301
:101DD000A1F08A81882389F08091190382FD0DC0CA
:101DE00082E0DF91CF910C944A14CE010E94B40E90
:101DF000CE01DF91CF910C94EF08DF91CF91089540
:101E000080E090E00E940F2680E090E00E9425266E
:101E10000E94C8130E94EA130E945E1D0C94AB1B23
:101E200080910201909103010E9409270C94000FF8
:101E30000E94B8130C94100F92959F70963079F011
:101E400010F4925001C09A50923068F4803F69F0CB
:101E500018F4883E40F409C0843F29F406C0883E47
:101E600020F0813F11F080E0089581E00895FC01A9
:101E7000808191810E9444100E941C0F0895CF938D
:101E8000DF9300D000D01F92CDB7DEB70F900F9038
:101E90000F900F900F90DF91CF910895CF93DF9324
:101EA00000D000D000D0CDB7DEB726960FB6F8949C
:101EB000DEBF0FBECDBFDF91CF9108950895089585
:101EC0000C945F0F0C94600F0E94620F809330029D
:101ED0000C94000F0C94640F90913002892B0C9499
:101EE000640F9091300289230C94640F909130021A
:101EF00089270C94640F0C945F0F0E947B0F8093D2
:101F00002F020C94000F80E00C947D0F91E001C033
:101F1000990F8A95EAF7892F0C947D0F21E030E024
:101F200001C0220F8A95EAF780912F02822B0C9430
:101F30007D0F21E030E001C0220F8A95EAF720955D
:101F400080912F0282230C947D0F21E030E001C0AC
:101F5000220F8A95EAF780912F0282270C947D0F39
:101F600090912F02892B0C947D0F90912F02892341
:101F70000C947D0F90912F0289270C947D0F08956A
:101F800021E1929F800D1124E82FE695E695E695D4
:101F9000877051E001C0550F8A95EAF783E0E89F0A
:101FA000F0011124E85FFD4F20E030E070E0408157
:101FB000CB01022E02C0969587950A94E2F78170B4
:101FC000819584278523842781932F5F3F4F23307A
:101FD000310569F7089521E1929F800D1124682F42
:101FE000669566956695982F977083E0689FB00117
:101FF000112440E050E080E0FB01E40FF51FE85FB2
:10200000FD4F208130E0092E02C0369527950A94B5
:10201000E2F721703327042E01C0220F0A94EAF759
:10202000822B4F5F5F4F4330510531F70895CF92B8
:10203000DF92FF920F931F93CF93DF936C01009178
:102040002F0280913002082BC7E0D0E010E0C801D9
:102050000C2E02C0959587950A94E2F780FD04C086
:102060002197A8F7F12C07C0FC2EB6018C2F0E94F7
:1020700075170197A9F38F2DDF91CF911F910F91C4
:10208000FF90DF90CF900895CF93DF93EC010E94F3
:102090001710BE010E947517DF91CF9108951F930D
:1020A000CF93DF93EB0190910702992321F0CB01AD
:1020B0000E94441013C0882349F0CB010E941710DE
:1020C000182F682FCE010E94C00F04C0CB010E94C0
:1020D000EB0F182FBE01812F0E947517DF91CF9152
:1020E0001F9108951F93CF93DF93C091310216E0A3
:1020F00080913202C81799F0D0E01C9FF0011D9F1B
:10210000F00D1124ED5CFD4F40815181628173819E
:10211000848195810E944E0F2196C770E9CFDF918F
:10212000CF911F9108954091630250916402609194
:1021300065027091660280916702909168020C942A
:102140004E0FEF92FF920F931F93CF93DF938091E7
:10215000680282958F7009F065C0809165028823BE
:1021600009F460C080913102F09032021091630254
:1021700000916402609166027091670291E01F3FD6
:1021800009F090E0C0910001D0910101292F96E063
:10219000E92E8F1509F446C06115710521F00F3F36
:1021A00021F030E003C031E001C0322F90E030FD7B
:1021B00036C0E89EF001E99EF00D1124DF01AD5C10
:1021C000BD4F11963C911197301329C03C913113AA
:1021D00026C012963C911297311121C013964D9151
:1021E0005C911497461B570B4C175D07C0F4809108
:1021F00068028F70806180936802E85CFD4F808187
:102200008F708061808383E692E00E94CC0EDF9124
:10221000CF911F910F91FF90EF900C947210019647
:102220008770B7CFDF91CF911F910F91FF90EF9003
:1022300008959F92AF92BF92CF92DF92EF92FF925A
:102240000F931F93CF93DF93CDB7DEB761970FB690
:10225000F894DEBF0FBECDBF8C0185E0F801DE0132
:102260001D9601900D928A95E1F7D8011296EC9097
:1022700090916302E09164022091660230916702BE
:102280002115310531F0EF3F31F481E09F3F19F422
:1022900003C081E001C080E0B82FB1709B2E80FDAB
:1022A00047C1D8014C9111965C9111971396AD904E
:1022B000BC90149783E6C82E82E0D82EF090650279
:1022C000B501621B730B2091000130910101FF20C9
:1022D00009F4D9C0809168026217730708F095C0AD
:1022E000282F207F09F052C05E1313C0491311C07C
:1022F000FE2CE1100EC08F708061809368020E94F6
:102300009310C6010E94CC0E80916802F80185836B
:102310004DC1AB2831F05F3F31F481E04F3F19F4FC
:1023200003C081E001C080E080FD03C081E08E2514
:1023300002C080E090E0F82FF170FF2E80FF1CC0FB
:10234000809131022091320236E0821709F40BC1EC
:1023500090E0389FF001399FF00D1124ED5CFD4FA6
:102360006181561306C06081461303C06281E61284
:1023700003C001968770E9CFFE2CEE2009F416C148
:102380008091680281608093680254C05E1306C029
:10239000491304C0E11002C0F80199C0C8010E94AD
:1023A000370F882361F1EE2051F120916802822FCE
:1023B00082958F7090E0029774F080916302909103
:1023C000640298878F831986BB86AA862C87CE01E4
:1023D00007960E94CC0E86E0F801A3E6B2E00190D9
:1023E0000D928A95E1F70E94A1100E9493100AC0F5
:1023F0005E1711F1C8010E94370F81112CC0C8016E
:102400000E94CC0EFF24F394D1C0282F207F81F7A7
:102410007A2DB98AA88A6E2D89890E943F0F83E69A
:1024200092E00E94CC0E86E0D6011D928A95E9F7D3
:102430000E949310F12CBAC04913DCCFE110DACF1F
:10244000F8018583C8010E94CC0E86E0D6011D925A
:102450008A95E9F7ABC0EE2091F220916802822FB5
:1024600082958F7090E002970CF4B5CF8091630253
:10247000909164029A8389831B82BD82AC822E83F1
:10248000CE010196A6CF6217730708F044C0FE2C58
:10249000EE2009F4B4CF5E1330C049132EC0209152
:1024A000680220FD21C0822F82958F70482F50E056
:1024B00041155105C9F0F80125834F30510541F010
:1024C0008F5F982F9295907F822F8F70892B8583B5
:1024D000C8010E94CC0E86E0F801A3E6B2E00190AC
:1024E0000D928A95E1F73CC086E0F801A3E6B2E0E0
:1024F00001900D928A95E1F759C0C8010E94370FEB
:10250000811169CF80916802816080936802C8015F
:102510000E94CC0E4BC07A2DB98AA88A6E2D89896B
:102520000E943F0F86E0D6011D928A95E9F718C0F8
:10253000EE2009F464CFC8010E94370FF82E8823DB
:1025400009F45DCF86E0F801A3E6B2E001900D92B8
:102550008A95E1F783E692E00E94690B0E94A11040
:102560000E94931023C04D875E878D859E850E94B3
:102570004410292F22952F70223028F49F7039F0B3
:10258000811105C00BC0243028F49F7049F4805E8F
:10259000883020F0C8010E94CC0E9F2CF92C06C078
:1025A000D80115969C91907F91F7F8CF8F2D619669
:1025B0000FB6F894DEBF0FBECDBFDF91CF911F9154
:1025C0000F91FF90EF90DF90CF90BF90AF909F90D2
:1025D00008951F93CF93DF93CDB7DEB72C970FB637
:1025E000F894DEBF0FBECDBF4F83588769877A87C7
:1025F0008B879C87CE0107960E9419118823D1F002
:102600009F8188852A853B85232B31F08F3F31F4CC
:1026100081E09F3F19F403C081E001C080E080FDAC
:1026200047C04F81588569857A858B859C850E9436
:102630004E0F3EC086E0FE013796DE0111960190F6
:102640000D928A95E1F7FF81E8856A857B856115A2
:10265000710531F0EF3F31F481E0FF3F19F403C021
:1026600081E001C080E080FD23C02091320230E093
:10267000C9010196877099274091310250E0841773
:102680009507F1F1F983EA837D836C8396E0929F4D
:10269000D001939FB00D1124AD5CBD4FFE0131966A
:1026A00001900D929A95E1F7809332020E94721088
:1026B00016E08091310290913202891771F1189FD2
:1026C000C00111248D5C9D4F0E941911882329F1AE
:1026D000E09131021E9FF0011124ED5CFD4F40811D
:1026E000518162817381848195810E944E0F809116
:1026F000310290E001968770992780933102D9CFFB
:102700000E94180F1092320210923102E3E6F2E0BA
:1027100086E0DF011D928A95E9F72C960FB6F894B2
:10272000DEBF0FBECDBFDF91CF911F910895809185
:102730008902859585958595089580918902877090
:10274000089590918902977081E009F480E00895DE
:102750008091AC0208959091AC02892B8093AC02D9
:10276000089580959091AC0289238093AC020895DE
:102770001092AC0208959091AB02892B8093AB022A
:10278000089580959091AB0289238093AB020895C0
:102790001092AB02089580918A02089508950C94D6
:1027A000CE130C94CF139091190392FD08C0909111
:1027B0008A02981721F080938A020C94D11308950D
:1027C00080918A02882329F010928A0280E00C947A
:1027D000D1130895CF93DF93E0910201F0910301AB
:1027E0008091AC028083E0910201F091030190811D
:1027F0008091AB02892B808380918A02882381F0AB
:10280000E0910201F09103019081892B80838091F6
:102810000201909103010E943B2681110E94E01366
:10282000C0910201D091030140E250E069E672E0FC
:10283000CE010E94BF30892B69F080E2FE01A9E63B
:10284000B2E001900D928A95E1F7CE01DF91CF9130
:102850000C94AC25DF91CF9108950C94CE139091F8
:10286000190392FD10C098E0899F90011124262B36
:10287000209389020E948E0F80918902859585950B
:1028800085950C942D140C948E0F1092890280E083
:102890000C942D14209189028095822380938902C3
:1028A000982F977099F430E0482F082E000C550BA4
:1028B0002417350759F09091190392FD07C08595AB
:1028C000859585950E94990F0C9445140895CF9392
:1028D0009091190392FB222720F92817F9F0C82FAD
:1028E000892FC0FB82F9809319038091180390917E
:1028F00019030E94C91482E00E944A148091CD02FB
:1029000080FF0CC01F92CF9381E995E09F938F9336
:102910000E9489080F900F900F900F90CF9108950B
:102920008091190382FB882780F991E089270C9414
:10293000671481E00C94671480E00C9467146FEFC7
:102940007FEF80E090E00C94F83080E090E00E940F
:10295000D430893E9E4F11F40C946C1D80E0089594
:1029600082E090E00C94CC3083E090E00C94CC308A
:10297000CF9384E090E00E94CC30C82F82E290E0B8
:102980000E94CC302C2F30E0A901582BCA01CF91E6
:102990000895CF93C92F682F84E090E00E94DA3029
:1029A0006C2F82E290E0CF910C94DA30AB01BC0145
:1029B0008FE090E00C94EC30AB01BC0183E190E03F
:1029C0000C94EC3060E070E0CB010C94DC1460E01F
:1029D00070E0CB010E94D6140C94E21469EE7EEFF5
:1029E00080E090E00E94F83060E082E090E00E9499
:1029F000DA3060E083E090E00E94DA30109230023A
:102A000060E084E090E00E94DA3060E082E290E0F2
:102A10000E94DA3060E085E090E00E94DA3060E009
:102A200086E090E00E94DA306FEF87E090E00E944D
:102A3000DA3040E050E0BA0188E090E00E94EC30EB
:102A400060E08DE090E00E94DA3040E050E0BA01B2
:102A500088E190E00E94EC3060E087E190E00E9425
:102A6000DA3040E050E0BA018CE190E00E94EC30B6
:102A700060E070E080E290E00E94F83040E050E0DA
:102A8000BA0188E190E00E94EC3080E00E94851D50
:102A90000E94B81D0C94E7140C94EE14682F8EE07D
:102AA00090E00C94DA300E94C5276093C9027093BD
:102AB000CA028093CB029093CC026093C5027093BC
:102AC000C6028093C7029093C802089585B78068B4
:102AD00085BF85B7806885BF089581E008950C940F
:102AE0006D1508950C9471150C9471150C94741552
:102AF0000C9471150C9478150C9471150E94661540
:102B000085E49AE20E9496250E947C150C947A1521
:102B10000E9472150C9471150E9469180C94DC0ABD
:102B20000E94B0270E94C71D0E94AB190E948C15FD
:102B30000C9476152F923F924F925F926F927F92F4
:102B40008F929F92AF92BF92CF92DF92EF92FF92BD
:102B50000F931F93CF93DF93CDB7DEB72D970FB6AB
:102B6000F894DEBF0FBECDBF0E94C019282E811180
:102B70000E9453158DEA92E09D878C8700E010E05B
:102B8000302E802F0E9483182B013C01EC85FD859F
:102B900081919191A191B191FD87EC8753014201FF
:102BA00088269926AA26BB2681149104A104B10483
:102BB000B1F40F5F1F4F0630110511F78FEF8983B6
:102BC0008A831B820E94B9278160782F9D838C8322
:102BD00049815A816B818D810E941F0B51C0809168
:102BE000CD0281FD0E948F181B86C12CD12C76014D
:102BF000C394D501C4018C219D21AE21BF21892B15
:102C00008A2B8B2B91F10E946F158823D1F0FB85C5
:102C1000FE833F824C205D206E207F2081E045288E
:102C20004628472809F480E088870E94B9278160F8
:102C3000782F9A8789874E815F8168858A850E946F
:102C40001F0B000F111F000F111FF801E355FD4F5F
:102C500080819181A281B381C826D926EA26FB26EC
:102C6000C082D182E282F3820BC08B858F5F8B871B
:102C7000CC0CDD1CEE1CFF1C813109F0BACF99CFC2
:102C800081E0211001C080E02D960FB6F894DEBFE0
:102C90000FBECDBFDF91CF911F910F91FF90EF90AD
:102CA000DF90CF90BF90AF909F908F907F906F906C
:102CB0005F904F903F902F9008950E949A150E9428
:102CC0004B1C0C94ED0ACF93DF930E947A17EC0112
:102CD000811521E5920708F045C0811530E593077D
:102CE00008F094C0883E910528F5803E910508F0D3
:102CF000F8C0883A910570F4853A910508F07CC0D7
:102D00008130910509F475C008F4E8C0049708F013
:102D1000E8C0E4C08F3B910508F0E0C0C85AD0E09D
:102D2000CC0FDD1FC65BDE4F0990D881C02DCE01D0
:102D30009464D8C0811540E2940758F4811551E09D
:102D4000950708F0CEC0803F910508F4C7C0906594
:102D5000C9C0C11580E4D80708F4C0C0DF70CE0137
:102D6000906AC0C0811525E59207A8F4811534E565
:102D7000930708F095C0811543E5940708F07BC0E0
:102D8000811552E5950708F061C0D82FCC27CE01F8
:102D9000816F906AA7C0C11589E5D807A0F4C11555
:102DA00028E5D20708F082C0C11536E5D30708F040
:102DB00095C08C2F0E940E188F7190E0D82FCC27D1
:102DC000CE0190628FC0C1154AE5D40708F474C0E3
:102DD000CE0190568115904208F080C08D2F8F71E2
:102DE0000E940E18DD27D0628F71AE01582BCA01E8
:102DF00079C081E090E076C0C55AD0E0C858DE4F77
:102E00008881C82FD0E0CE0190646CC074E09695A4
:102E100087957A95E1F7282F23703C2F337081E056
:102E200090E002C0880F991F3A95E2F79C68AC01C8
:102E3000522B9A019C2F9F709695969550E2959FE4
:102E4000E0011124C9018C2B9D2B4CC08370992764
:102E500021E030E002C0220F331F8A95E2F79C2F59
:102E60009695969580E2989FE0011124C22BD32B72
:102E7000CE019C6837C08370992721E030E002C002
:102E8000220F331F8A95E2F79C2F9695969540E284
:102E9000949FE0011124C22BD32BCE019A6822C04B
:102EA000D82FCC27CE01846F906A1CC0DC2FCC2792
:102EB000CE01806F906A16C08C2F8F700E940E1802
:102EC00094E0D695C7959A95E1F7CF70D0E0DC2FC6
:102ED000CC27D0699E01282BC90104C080E090E076
:102EE00001C0CE01DF91CF9108950E94E0230E949E
:102EF000631608958238910569F1B0F48133910524
:102F000009F46DC048F48932910509F463C08A322E
:102F1000910509F469C008958533910509F455C0F8
:102F200089339105B9F00895833E910569F138F42C
:102F3000803E9105B1F0823E910509F10895863EEB
:102F40009105A9F1873E9105B9F1843E910509F0FB
:102F500064C023C02091180320FD4FC021FD4DC047
:102F600008958091180380FD44C08091190380FF6B
:102F700044C08091180384FD42C083EE4DC080910F
:102F8000180382FF38C0F5CF8091180382FD33C04B
:102F90008091190380FD31C0ECCF8091190381FF2E
:102FA00032C08091180384FD2AC087EE35C080911D
:102FB000180383FF26C0F5CF8091180383FD21C03D
:102FC0008091190381FD1FC0ECCF8091180385FD0E
:102FD0001CC01DC08091180385FD19C016C08091CA
:102FE000180386FD16C017C08091180386FD13C014
:102FF00010C089E311C082EE0FC080EE0DC080E0EA
:103000000BC086EE09C084EE07C089E205C085E3E7
:1030100003C08AE201C081E390E008959091180313
:1030200092FF0DC0282F2871283019F4877F846003
:1030300006C0282F2471243011F48B7F886093FF01
:103040000DC0282F2871283119F4877E846106C0AD
:10305000282F2471243111F48B7E8861209119036B
:1030600020FF0DC0382F3871383019F4877F816008
:1030700006C0382F3171313011F48E7F886021FF06
:103080000DC0282F2871283119F4877E816106C070
:10309000282F2171213111F48E7E886194FD877E65
:1030A00008950C949F140E94C0198FE39CE9019726
:1030B000F1F700C000000E94C01980E00E94831850
:1030C00060FF04C00E9451180C94062808950C94C7
:1030D00053180E94A514811102C00E944C150E9431
:1030E000B0148093CD020E94B8149093190380937A
:1030F00018030E9467180E94B4140E946A0F8091FE
:103100002F020C947B0F24E0829FC0011124FC014C
:10311000EE5CFC4F60817181828193810895CF9232
:10312000DF92EF92FF920F931F93CF93DF9387EB82
:1031300095E00E94F00782E3E82E83E0F82EC0E0DD
:10314000D0E092EBC92E95E0D92E08EA15E0DF9386
:10315000CF93DF92CF920E9489088FEA95E00E9478
:10316000F007F70161917191819191917F010E9426
:10317000AC0A9F938F937F936F931F930F930E943B
:10318000890886EA95E00E94F00721968DB79EB7E0
:103190000A960FB6F8949EBF0FBE8DBFC630D105FC
:1031A000B1F6DF91CF911F910F91FF90EF90DF90DB
:1031B000CF90089580EA8A95F1F7089500C00895A8
:1031C0000C94DA1808950C94E2180C94E3180C94FB
:1031D000E218F894E82FE295EF70F0E031A1282F83
:1031E0002F7081E090E001C0880F2A95EAF7982FB0
:1031F0009095932391A392A1892B82A3789408950B
:103200000F931F93CF93DF93CCE8D1E089918F3F49
:1032100011F00E94E91881E0C239D807B9F7CBE76D
:10322000D1E00CE811E089918F3F11F00E94E9187C
:103230000C171D07C1F7DF91CF911F910F910895D2
:103240004F925F926F927F928F929F92AF92BF92B6
:10325000DF92EF92FF920F931F93CF93DF938C0136
:10326000C62FD0E0CE0184579E4F7C01FC01908197
:103270009F3F09F460C0D62EF894E92FE295EF70D5
:10328000F0E081A19F7021E030E001C0220F9A950B
:10329000EAF7822B81A382A12095282322A3789488
:1032A0000E94DE18EBE7F1E02CE831E0412C512CD4
:1032B00032014394812C912C540181918F3F99F0DC
:1032C000A82FA295AF70B0E090964C9150E08F700F
:1032D000BA0102C0759567958A95E2F760FD03C053
:1032E000D301C20103C080E090E0DC01882A992A62
:1032F000AA2ABB2A440C551C661C771C2E173F07B4
:10330000E1F6F70180818F3F11F00E94E91861E03A
:1033100081149104A104B10409F460E08D2D0E9490
:10332000E018CC0FDD1FCC0FDD1FC00FD11F88822E
:103330009982AA82BB82DF91CF911F910F91FF905A
:10334000EF90DF90BF90AF909F908F907F906F90A5
:103350005F904F9008950E94001988E1E2E3F3E046
:10336000DF01982F1D929A95E9F7EAE1F3E0DF017A
:103370001D928A95E9F786E00E940B1A0C942109A8
:10338000FF920F931F93CF93DF93CDB7DEB768976C
:103390000FB6F894DEBF0FBECDBF8E010F5F1F4F7B
:1033A00088E1F80111928A95E9F7F12C6F2DC80197
:1033B0000E942019F394F6E0FF12F8CF48E150E0A4
:1033C000B8018AE193E00E94BF30FF24F394009794
:1033D00009F4F12C892B41F088E1F801AAE1B3E06E
:1033E00001900D928A95E1F72F2D46E062E373E09C
:1033F0008AE193E00E940C1A0E9423098F2D68969F
:103400000FB6F894DEBF0FBECDBFDF91CF911F91F5
:103410000F91FF9008950895FF920F931F93CF93FC
:10342000DF93F82ED92F8B01C42F222349F081E09E
:103430008093D0020E94B9279093CF028093CE024E
:103440008091D0028823F1F08091CE029091CF023A
:103450000E94D1270597B0F0EF2DFD2FD80180E015
:1034600090E04C2F50E08417950754F4019111918E
:10347000219131910D931D932D933D930196F3CF9F
:103480001092D002DF91CF911F910F91FF9008957C
:103490000E94C12A0E9490150C94CD2A0E94D12A24
:1034A0000E945D160C94EF2A0E9457270E94A82ABA
:1034B0000E947E150E94481A0E944E1A0E9488158A
:1034C000FBCF8091D70280FF06C06091090170E0B8
:1034D000660F771F26C081FF04C06091090184E058
:1034E00005C082FF07C06091090188E0689FB001B4
:1034F000112417C09091D6029923D1F06091080150
:10350000961788F72091090188E0289F90011124DF
:10351000929FA001939F500D112470E0CA010E9458
:103520008A306038710540F46115710519F406C0E0
:1035300068E070E0862F08958FE7089581E0089590
:103540008091D70280FF08C06091050170E07595F9
:1035500067957595679521C081FF06C0609105014B
:1035600070E07595679519C082FF04C060910501F0
:1035700070E010C09091D502992399F060910401F8
:103580009617A0F780910501899FC001112470E072
:103590000E948A306038710540F46115710519F494
:1035A00006C061E070E0862F08958FE7089581E0FE
:1035B0000895803F21F40E94611A819504C0813FE3
:1035C00029F40E94611A8093DB020895823F21F45E
:1035D0000E94611A819504C0833F29F40E94611AF8
:1035E0008093DA020895893F19F40E94A01A05C059
:1035F0008A3F31F40E94A01A81958093DC020895DD
:103600008B3F21F40E94A01A819504C08C3F29F4BD
:103610000E94A01A8093DD0208959CE0980F9530D7
:1036200078F421E030E0A90102C0440F551F9A95BB
:10363000E2F7CA019091D902892B8093D9020895AB
:103640008D3F21F48091D70281600BC08E3F21F421
:103650008091D702826005C08F3F29F48091D70204
:1036600084608093D7020895803F39F49091DB0203
:1036700097FF35C01092DB0259C0813F29F4909129
:10368000DB021916BCF32BC09091DA02823F29F4B9
:1036900097FF25C01092DA0249C0833F19F419162A
:1036A000CCF31DC09091DC02893F29F41916BCF4BB
:1036B0001092DC023BC08A3F19F497FF10C0F8CF8C
:1036C0008B3F39F49091DD0297FF09C01092DD0223
:1036D0002DC08C3F21F49091DD021916BCF39CE0C3
:1036E000980F953080F421E030E0A90102C0440F2A
:1036F000551F9A95E2F7CA0180959091D9028923C6
:103700008093D90213C08D3F21F48091D7028E7F20
:103710000BC08E3F21F48091D7028D7F05C08F3F73
:1037200029F48091D7028B7F8093D7028091DA02AF
:10373000811106C08091DB02811102C01092D60275
:103740008091DC02811106C08091DD02811102C0EE
:103750001092D50208958091CD0283FF7EC085E04E
:1037600096E00E94F0078091D9021F928F9380E02B
:1037700096E09F938F930E9489088EEF95E00E94B8
:10378000F0078091DA02282F082E000C330B3F93AC
:103790008F938BEF95E09F938F930E94890889EF19
:1037A00095E00E94F0078091DB02282F082E000C84
:1037B000330B3F938F9386EF95E09F938F930E94F7
:1037C000890884EF95E00E94F0078091DC02282FA1
:1037D000082E000C330B3F938F9381EF95E09F935E
:1037E0008F930E9489088FEE95E00E94F0078091E8
:1037F000DD02282F082E000C330B3F938F938CEEA5
:1038000095E09F938F930E94890889EE95E00E942E
:10381000F0078091D6021F928F9386EE95E09F93DA
:103820008F930E94890884EE95E00E94F0078091B2
:10383000D7021F928F9381EE95E09F938F930E9402
:1038400089088EED95E00E94F0078DB79EB74C96E3
:103850000FB6F8949EBF0FBE8DBF0E94B92720916E
:10386000DA02211104C02091DB02222321F090937F
:10387000D4028093D3022091DC02211104C0209154
:10388000DD02222321F09093D2028093D10288EDB1
:1038900092E00C940126EF92FF920F931F93CF9327
:1038A000DF9300D000D000D0CDB7DEB786E0E8EDE2
:1038B000F2E0DE01119601900D928A95E1F7E09019
:1038C000DA02F090DB020091DC021091DD0210922E
:1038D000DA021092DB021092DC021092DD02E1109B
:1038E00003C0FF2009F45DC08091D3029091D402FF
:1038F0000E94D127AC019091D602992339F02091F2
:103900000A0130E02417350758F04BC020910B0115
:103910008AE0289F900111242417350718F041C030
:103920009F3F19F09F5F9093D602EE2061F00E94B6
:10393000611A1E1414F09FEF01C091E0989F902D22
:1039400011249093DA02FF2061F00E94611A1F1483
:1039500014F09FEF01C091E0989F902D1124909357
:10396000DB023091DA023323E1F02091DB022223E3
:10397000C1F045EB3403C0011124992319F0909351
:10398000DA0203C081E08093DA0235EB2303C00141
:103990001124992319F09093DB0203C081E08093F6
:1039A000DB02011103C0112309F45DC08091D10233
:1039B0009091D2020E94D127AC019091D502992317
:1039C00039F02091060130E02417350758F04BC03C
:1039D000209107018AE0289F9001112424173507C0
:1039E00018F041C09F3F19F09F5F9093D5020023CC
:1039F00061F00E94A01A101614F09FEF01C091E030
:103A0000989F902D11249093DC02112361F00E9465
:103A1000A01A111614F09FEF01C091E0989F902D0D
:103A200011249093DD023091DC023323E1F02091E8
:103A3000DD022223C1F045EB3403C0011124992398
:103A400019F09093DC0203C081E08093DC0235EB37
:103A50002303C0011124992319F09093DD0203C0C0
:103A600081E08093DD028091DA0281110BC08091A8
:103A7000DB02811107C08091DC02811103C08091BB
:103A8000DD0281110E94AB1BEB82FC820D831E8341
:103A900086E0FE013196A8EDB2E001900D928A9584
:103AA000E1F726960FB6F894DEBF0FBECDBFDF91CB
:103AB000CF911F910F91FF90EF900895E8EDF2E004
:103AC00086E0DF011D928A95E9F71092D6021092E6
:103AD000D5021092D702089583E290E00E94CC3084
:103AE000823281F484E290E00E94CC30843051F440
:103AF00085E290E00E94CC3091E0813009F090E0C6
:103B0000892F01C080E081700895CF93C82F811163
:103B100002C06FEF01C062E283E290E00E94DA30FF
:103B2000C11102C06FEF01C064E084E290E00E9426
:103B3000DA30C11102C06FEF01C061E085E290E0B0
:103B4000CF910C94DA30089586E290E00E94CC3058
:103B5000682F70E080E090E008950895CF93C62F1D
:103B60000E94AD1D6C2F86E290E0CF910C94DA306C
:103B700080E00E94851D60E070E0CB010E94AE1DD8
:103B80000E945B230E94382481E00C94851D0E94D2
:103B9000A31D0E94A41D0E94AD1D0E946C1D8111D9
:103BA00002C00C94B81D0895CF93FB01C281CC23B1
:103BB000E9F09C0122513F452031310520F482512A
:103BC0000E9448240CC08031FFE59F0751F481E03A
:103BD0000E948E0F43E062E081E00E941809C0E07D
:103BE00018C081319F45A9F482E0F2CF8031EFE522
:103BF0009E0711F481E004C081319F4549F482E0C1
:103C00000E94990F43E062E081E00E94180901C020
:103C1000C1E08C2FCF9108952FEFFC0120830895F0
:103C2000EF92FF920F931F93CF93DF93EC01E62E59
:103C3000E8818E2F90E0FC013197E331F10508F027
:103C400092C0EE59FF4F0C949E30198289E04EC00D
:103C50008981823039F0833061F0813031F50E9402
:103C6000C52702C00E94A41D9A838B837C836D8329
:103C70007CC08E01F12C8F2D0E948318F801828365
:103C800073836483F3940D5F1F4FF6E0FF12F3CF4D
:103C90006CC08981823049F46A817B818C819D81ED
:103CA0000E94A4300E94AE1D60C06E2DCE010E9405
:103CB0000C1E5BC04B816A8189810E942D239C83ED
:103CC0008D8353C02C813D813227232732274B819E
:103CD0006A8189810E94462348C00E945B2345C0B7
:103CE0000E94ED2324C00E94EF2399838A833DC064
:103CF0006B8170E089819A81AE014C5F5F4F98279C
:103D0000892798270E94F22330C06B8170E0898157
:103D10009A81AE014C5F5F4F9827892798270E94B0
:103D2000162423C00E94382420C00E941A238983AD
:103D30001CC06B8170E089819A81AE014C5F5F4F3E
:103D40009827892798270E949A230FC06B8170E0DB
:103D500089819A81AE014C5F5F4F98278927982708
:103D60000E94BE2302C08FEF88836E2DCE01DF91AB
:103D7000CF911F910F91FF90EF900C94C028CF939B
:103D8000DF93EC01FB018281882309F43CC1C3303D
:103D9000FDE5DF0760F4CA3F9CE5D90788F49E0182
:103DA00022503C452431310508F02EC109C0C136EE
:103DB000EDE5DE0729F0C53AFDE5DF0709F024C18E
:103DC0000E94B8149093190380931803C1318CE5B5
:103DD000D80709F4C6C008F042C0C930ECE5DE07D8
:103DE00009F49BC000F5C5308CE5D80709F485C0FF
:103DF00078F4C330ECE5DE0709F478C008F07AC047
:103E0000C230DC4509F0F5C0809118038160EFC035
:103E1000C7309CE5D90709F478C008F07AC08091D2
:103E200018038061E4C0CD30FCE5DF0709F487C0EA
:103E300058F4CB309CE5D90709F479C008F07BC071
:103E40008091180388606FC0CF30FCE5DF0709F46C
:103E500080C008F082C080911803877FC8C0CD3F22
:103E60009CE5D90709F471C000F5C531FCE5DF0711
:103E700009F485C068F4C3319CE5D90709F475C01D
:103E800008F095C00E94180F809118038F77AFC07B
:103E9000CB3FFCE5DF07A9F108F054C0CA3FDC4581
:103EA00009F0A7C08091190340C0C130EDE5DE07DD
:103EB00009F489C058F4CF3F8CE5D80709F45AC0FB
:103EC00008F069C08091190382602FC0C136EDE50A
:103ED000DE0709F47CC0C53AFDE5DF0709F481C0BF
:103EE000C230DD4509F085C080E06EC080911803C6
:103EF00082607DC08091180316C08091180388608D
:103F000076C08091190382604FC08091180380624F
:103F10006EC08091180380646AC00E94180F80915F
:103F20001803806864C0846062C081603DC0809175
:103F300018038E7F5CC0809118038D7F58C08091DC
:103F4000180316C08091190318C0809119038D7F42
:103F50002BC0809118038F7E4AC0809118038F7DFB
:103F600046C0809118038F7B42C080911803877FE1
:103F70008B7F3DC0809119038D7F8E7F15C080910E
:103F8000180382FB222720F991E0922790FB82F907
:103F900090FB83F92CC080911903982F9095917014
:103FA0008E7F892B90FB81F98093190322C00E9498
:103FB000180F8091180387FB222720F991E09227A0
:103FC00090FB87F914C081E00E944E1512C08091C9
:103FD000180384FB222720F991E0922790FB84F9B3
:103FE00006C080911803982F909590FB80F98093DC
:103FF000180380911803909119030E94C9140E941C
:10400000180F80E001C081E0DF91CF910895809189
:1040100004011F928F93809105011F928F938091CD
:1040200008011F928F93809109011F928F938091B5
:104030000A011F928F9380910B011F928F9388E248
:1040400096E09F938F930E9489088DB79EB70E9636
:104050000FB6F8949EBF0FBE8DBF0895883220F52D
:104060008E3108F068C08B3091F1C0F4873009F0D0
:10407000BEC081E080930B0184E180930A018AE055
:10408000809309018EE18093080188E08093050107
:1040900088E2809304018AE897E0C6C0833109F47E
:1040A00043C0843169F1A3C08F3409F49EC028F461
:1040B000893231F1883359F09AC0813531F008F4F2
:1040C000D4C0823509F4A7C092C08FEFA5C08CEA96
:1040D00097E00E94F0070E9407201F9281E08F93D3
:1040E0001F9288E08F9385EA96E09F938F930E94BA
:1040F00089080F900F900F900F900F900F9096C01F
:1041000089EA97E00E94F0078091E202882309F48F
:10411000AAC01092E2021092E1021092E002109204
:10412000DF021092DE02B1C08BE997E00E94F00737
:104130000E9407207BC08D518093E202833031F1D1
:1041400070F48130D1F0823009F03FC08AE091E014
:104150009093E1028093E0028FE991E01FC08530E7
:1041600059F108F1863089F584E091E09093E102FD
:104170008093E0028AED91E011C08BE091E0909392
:10418000E1028093E00286E991E008C089E091E0D5
:104190009093E1028093E0028BEA91E09093DF023A
:1041A0008093DE0218C088E091E09093E102809352
:1041B000E00288EB91E0F2CF85E091E09093E1029C
:1041C0008093E00287EC91E0E9CF1092E20288E967
:1041D00097E00E94F0078091E202882309F455C01D
:1041E0001F928F9384E997E00DC08AE015C087E89D
:1041F00097E01AC097FF47C0108280811F928F936B
:1042000081E897E09F938F930E9489080F900F9009
:104210000F900F900BC081E0E091E002F091E1027D
:10422000309729F58EE797E00E94F0072091E2028F
:10423000222359F18091DE029091DF02009711F460
:1042400082E991E09F938F931F922F9385E797E0E8
:104250009F938F930E9489080F900F900F900F905B
:104260000F900F9016C080E0089586EFD5CF208183
:10427000082E000C990B820F911D8F3F910509F0BC
:104280000CF4B8CF8FEF8083B8CF81E797E00E941E
:10429000F00781E00895CF93C82F1F928F9382EC8F
:1042A00097E09F938F930E94890881E001C0880F57
:1042B000CA95EAF70E946A0F0F900F900F900F9027
:1042C000CF910C94180FDF92EF92FF920F931F93F0
:1042D000CF93DF93482F50E0FA013597EF33F10584
:1042E00008F03FC1EB58FF4F0C949E300E94B4146D
:1042F0001F928F9388E19CE09F938F930E9489087F
:104300000E94B01483FB992790F91F929F9382FB20
:10431000992790F91F929F9381FB992790F91F92FB
:104320009F93982F91701F929F931F928F938FEC62
:104330009BE09F938F930E9489080E94B81487FB8B
:10434000222720F91F922F9386FB222720F91F9204
:104350002F9385FB222720F91F922F9384FB22277E
:1043600020F91F922F9383FB222720F91F922F936E
:1043700082FB222720F91F922F9391FB222720F9FD
:104380001F922F93292F21701F922F9381FB222799
:1043900020F91F922F93282F21701F922F939F9304
:1043A0008F938AEE9AE09F938F930E9489088DB72E
:1043B0009EB788960FB6F8949EBF0FBE8DBF06C0FD
:1043C00088ED9CE00E94F0070E944C15C1E0CEC031
:1043D00088E399E074C08091CD02817F8E7F8093C5
:1043E000CD0281E199E00E94F00784ED9CE00E94FB
:1043F000F00781E08093E302E9CF88EB9CE00E9424
:10440000F0070E942609E2CF8091CD02C82FC09507
:10441000C170C0FB80F98093CD02CC2319F08CEAE7
:104420009CE091C08FE99CE00E94F0078091CD0252
:10443000897F877F8093CD02C9CF9091CD0291FB78
:10444000CC27C0F981E0C827892FC0FB81F9809370
:10445000CD02CC2319F082E99CE027C084E89CE0DF
:104460002EC09091CD0292FBCC27C0F981E0C827E5
:10447000892FC0FB82F98093CD02CC2319F085E708
:104480009CE013C085E69CE01AC09091CD0293FB9E
:10449000CC27C0F981E0C827892FC0FB83F980931E
:1044A000CD02CC2351F089E59CE00E94F007809179
:1044B000CD0281608093CD0259C08CE49CE00E94C3
:1044C000F00784CF8BE498E0FACF0E94C527062F2F
:1044D000F72EE82ED92EC0911803C7FBCC27C0F9C0
:1044E00010911703D09118010E94A025DF92EF923E
:1044F000FF920F931F92CF931F921F931F92DF93F0
:104500001F928F9387EC97E09F938F930E94890867
:104510008DB79EB70E960FB6F8949EBF0FBE8DBF97
:1045200055CF0E94180F9091180397FBCC27C0F924
:1045300081E0C827892FC0FB87F980931803CC231B
:1045400029F082E49CE00E94F00710C087E39CE021
:10455000B6CF895303C08D5101C080E00E944B212A
:1045600035CF85E39CE00E94F007C0E08C2FDF91FF
:10457000CF911F910F91FF90EF90DF90089580E011
:1045800008950C94BF22CF93C82F8091E30281300D
:1045900071F040F0823009F045C08C2F0E942E202F
:1045A00081E046C00E94A8138232F1F504C00E9447
:1045B000A813823261F48C2F0E94C122811104C0A1
:1045C0008C2F0E9463212CC081E090E029C08C2FA9
:1045D0000E94BF22811123C0C431C9F058F4CB30EE
:1045E00069F0C031B9F482E08093E30288E30E946D
:1045F0002E2015C0C93259F0C83361F481E199E029
:104600000E94F0078EEB97E00E94F00708C010921E
:10461000E3020CC08CEB97E00E94F00707C081E03A
:10462000817006C01092E30280E002C080E0F8CF03
:10463000CF91089584E0089550E0440F551F22E281
:10464000629F400D511D11249A016CEC869F200D34
:10465000311D1124C901879608950F931F93CF939D
:10466000DF930E941C238C010E94CC30C82FD0E025
:10467000DC2FCC27C80101960E94CC309E01282B4C
:10468000C901DF91CF911F910F9108950F931F934F
:10469000CF93DF93122F032F0E941C23EC01602F76
:1046A0000E94DA30612FCE010196DF91CF911F91E8
:1046B0000F910C94DA30AF92BF92CF92DF92EF92CB
:1046C000FF920F931F93CF93DF93A12CE12CF12C3A
:1046D000B12C00E010E0C0E0D0E06701C00ED11EB8
:1046E000FE01EE0FFF1FEC0DFD1DE458FE4F25915E
:1046F00034914C2F6B2D8A2D0E9446232196C13177
:10470000D10571F70E5D1F4FB39486E0B812E3CF69
:104710008CECE80EF11CA39484E0A812D9CFDF91B1
:10472000CF911F910F91FF90EF90DF90CF90BF90AE
:10473000AF900895EF92FF920F931F93CF93DF9363
:10474000EA017A01E60EF71E8C01C8018796CE15A4
:10475000DF0569F0003323E0120720F40E94CC301B
:10476000888301C0188221960F5F1F4FEECFDF9123
:10477000CF911F910F91FF90EF900895EF92FF92CC
:104780000F931F93CF93DF93EA017A01E60EF71E92
:104790008C01C8018796CE15DF0559F0003323E060
:1047A000120718F468810E94DA3021960F5F1F4FBC
:1047B000F0CFDF91CF911F910F91FF90EF9008956F
:1047C000462F843038F4763028F4613118F4672F9E
:1047D0000C942D2380E090E0089580E1089589EA0B
:1047E00090E00895EF92FF920F931F93CF93DF9382
:1047F000EA017A01E60EF71E8C01C801895A9C4F26
:10480000CE15DF0561F0093A110520F40E94CC3085
:10481000888301C0188221960F5F1F4FEECFDF9172
:10482000CF911F910F91FF90EF900895EF92FF921B
:104830000F931F93CF93DF93EA017A01E60EF71EE1
:104840008C01C801895A9C4FCE15DF0551F0093AF9
:10485000110518F468810E94DA3021960F5F1F4F0E
:10486000F0CFDF91CF911F910F91FF90EF900895BE
:10487000CF93DF93C7E5D3E060E0CE010E94DA304A
:104880002196C11584E0D807B9F7DF91CF9108953B
:10489000DF92EF92FF920F931F93CF93DF9300D09D
:1048A00000D0CDB7DEB7F82E8FE08F15E8F18FEF8F
:1048B00093E00E94CC30811137C007E513E0FF2060
:1048C00069F0011584E0180779F1C8010E94CC3025
:1048D000811101C0FA940F5F1F4FF1CF19821A8224
:1048E0001B821C82DD24D39478018FEFE81AF80A2A
:1048F000C8010E94CC3089831A828823A9F09FEFD7
:10490000980F933058F48A83D9820E5F1F4FC701E6
:104910000E94CC308B83882339F07801CE01019638
:104920000E94840A8701E0CF0F900F900F900F90A4
:10493000DF91CF911F910F91FF90EF90DF9008953D
:10494000CF93DF9386319C4541F5EB010E94A8137C
:10495000982F8A812091020130910301882379F0F8
:104960009A7A81E009F480E08093E402911102C018
:1049700069E201C065E3C9010E94F3260AC0809183
:10498000E402811102C069E201C065E3C9010E942D
:10499000FE260E94EA1380E001C081E0DF91CF9102
:1049A00008950F931F93CF93DF93C42FD22FFC0151
:1049B00082818823C9F04093E7020E94B92790932F
:1049C000E6028093E50280E28C0F883008F057C041
:1049D000C77081E001C0880FCA95EAF7DF91CF91D7
:1049E0001F910F910C94A60C8091E702481330C0E0
:1049F0008091E5029091E6020E94D127883C9105C2
:104A000038F510E21D0FCD17B9F080E28C0F883019
:104A100040F4C77081E001C0880FCA95EAF70E9490
:104A2000AD0C183028F581E09D2F977001C0880FDC
:104A30009A95EAF70E94A60C802F0E949D0C1830D0
:104A4000F0F4D77081E001C0880FDA95EAF70AC068
:104A500080E28C0F883098F4C77081E001C0880F25
:104A6000CA95EAF7DF91CF911F910F910C94AD0C8D
:104A7000802FDF91CF911F910F910C949D0CDF91AE
:104A8000CF911F910F9108950F939C01CB01233F6C
:104A90004CE5340731F188F4283DFCE53F07D9F0B7
:104AA000293D4CE5340779F1273D3C45A9F506E25F
:104AB00021EE41EE67ED7CE52BC0253FFCE53F078D
:104AC000E1F0A8F0263F3C4539F507E225EE46EE39
:104AD00066EF7CE51DC007E225EE45EE68ED7CE55E
:104AE00017C006E221EE40EE63EF7CE511C007E25D
:104AF00025EE44EE64EF7CE50BC006E221EE42EECB
:104B000065EF7CE505C008E221E045EE69ED7CE556
:104B10000E94D12480E008C0FC018281882319F022
:104B20001092E70201C081E00F9108959093050271
:104B30008093040208959093ED028093EC0208950F
:104B4000E091EC02F091ED02309721F00190F081BC
:104B5000E02D099480E00895EF92FF921F93CF9388
:104B6000DF93FC01A091EC02B091ED02109709F4E3
:104B700042C080911801882341F08091180387FF7B
:104B800004C08081818386E08083EF011296ED91DD
:104B9000FC911397CE0109958091CD0282FF2BC025
:104BA00080FF04C081EF9CE00E94F00718E08BEECC
:104BB000E82E8CE0F82E8091CD0280FF0BC088811A
:104BC0001F928F93FF92EF920E9489080F900F908F
:104BD0000F900F90115021961111EDCF8091CD02C1
:104BE00080FF09C089EE9CE0DF91CF911F91FF907B
:104BF000EF900C94F007DF91CF911F91FF90EF9011
:104C00000895E091EC02F091ED02309739F022E046
:104C1000DC012C930480F581E02D09940895209106
:104C2000EA023091EB022817390771F09093EB02FA
:104C30008093EA02E091EC02F091ED02309721F0CE
:104C40000680F781E02D099408952091E8023091C3
:104C5000E9022817390771F09093E9028093E8027E
:104C6000E091EC02F091ED02309721F00084F185A3
:104C7000E02D09940895FC01329680911801882353
:104C800031F08091180387FF02C09EE101C096E0D9
:104C900080E0915028F021912223D9F38F5FF9CF42
:104CA0000895662351F1209118012223E9F0209103
:104CB000180327FF19C0462F4695469546954E3155
:104CC000E0F4677021E030E002C0220F331F6A95E4
:104CD000E2F7FC01E40FF11D828190E028233923E3
:104CE00081E0232B69F409C0FC01329608962191DA
:104CF000621729F0E817F907D1F780E0089581E0FD
:104D000008959C01FC0132969FEF80E04191461787
:104D100089F09F3F19F4411101C0982F8F5F8630B1
:104D2000A9F79F3F39F0F901E90FF11D97FDFA95B9
:104D30006283089508959C012A5F3F4FFC014281E0
:104D4000461301C01282019682179307B9F708959E
:104D5000262F2695269526952E3170F4FC01E20F1C
:104D6000F11D677021E030E001C0220F6A95EAF77B
:104D70008281282B228308958091CD0280FF0CC070
:104D80001F926F9381E29DE09F938F930E94890809
:104D90000F900F900F900F900895262F269526952F
:104DA00026952E3178F4FC01E20FF11D677021E0A9
:104DB00030E001C0220F6A95EAF72095828128230E
:104DC000228308958091CD0280FF0CC01F926F93C3
:104DD00083E09DE09F938F930E9489080F900F902E
:104DE0000F900F90089520911801222329F020910F
:104DF000180327FD0C94A8260C94812620911801F5
:104E0000222329F02091180327FD0C94CD260C9421
:104E10009B2620911801FC013296222331F08091CB
:104E2000180387FF02C08EE101C086E0DF011D92FA
:104E30008A95E9F7089508950C941B2783E08093E1
:104E4000EE020C941C27811102C081E001C082E0B7
:104E50008093EE020C941C270C94232781E080930E
:104E6000EE020C941C270C942E2708950C943527E1
:104E70000C9436270C9435270C9435270C94352741
:104E8000CF930E943C270E94C0190E943A27C0E09D
:104E90008C2F0E948318672B682B692B29F4CF5F16
:104EA000C630B1F780E001C081E0CF910895089548
:104EB0001F920F920FB60F9211248F939F93AF936F
:104EC000BF938091EF02811113C080914A039091AA
:104ED0004B03A0914C03B0914D034196A11DB11D10
:104EE00080934A0390934B03A0934C03B0934D03DC
:104EF000BF91AF919F918F910F900FBE0F901F9018
:104F0000189580915203843031F10E94AD091092BE
:104F1000EF0220E488E190E00FB6F894A895809322
:104F200060000FBE2093600083B7817F846083BFE1
:104F300083B7816083BF7894889583B78E7F83BF62
:104F40000FB6F894A8958091600088618093600006
:104F5000109260000FBE08950E94180F0C94B109C2
:104F600082E084BD93E095BD9AEF97BD80936E007B
:104F700008952FB7F89480914A0390914B03A09124
:104F80004C03B0914D032FBF08952FB7F894609153
:104F90004A0370914B0380914C0390914D032FBFB6
:104FA00008959C014FB7F89480914A0390914B0368
:104FB000A0914C03B0914D034FBF821B930B0895FA
:104FC00078941F920F920FB60F9211248F939F9394
:104FD000AF93BF9380914A0390914B03A0914C03F0
:104FE000B0914D030196A11DB11D80934A0390938A
:104FF0004B03A0934C03B0934D03BF91AF919F918E
:105000008F910F900FBE0F901F90189581E08093A5
:10501000E00080E28093D8001092C9008FE19EE406
:105020000197F1F700C0000087E090EBDC0180936E
:105030005B0390935C03A0935D03B0935E039CE0DD
:1050400088E10FB6F894A895809360000FBE909306
:105050006000FFCF809116030895089524E0209307
:10506000E9002FEF3091E800215035FD06C035ED05
:105070003A95F1F700002111F5CF2091E80025FFC6
:105080000BC040E050E066E070E00E94962B8091FB
:10509000E8008E778093E8000895CF93DF93209106
:1050A0001801222339F02091180327FF03C060E282
:1050B00024E002C068E021E02093E9002FEF309166
:1050C000E800215035FD06C035ED3A95F1F70000B6
:1050D0002111F5CF2091E80025FF1DC0EC01809142
:1050E0001801811105C040E050E068E070E003C0A5
:1050F00070E040E050E0CE010E94962B8091E800E5
:105100008E778093E80080E2FE01A6EFB2E0019086
:105110000D928A95E1F7DF91CF9108958093F20285
:105120007093F4026093F302809152038430F9F497
:105130008093E9008FEF9091E800815095FD06C0C3
:1051400095ED9A95F1F700008111F5CF8091E80077
:1051500085FF0DC040E050E063E070E082EF92E038
:105160000E94962B8091E8008E778093E800089546
:10517000BC0184E00C948E28BC0183E00C948E2842
:10518000CF93603219F5209152032430F9F4C09185
:10519000E900CF703091EC00232F217030FD20E822
:1051A000C22B22E02093E9002091E80020FF0BC0F1
:1051B00040E050E060E270E00E94962B8091E800B1
:1051C0008E778093E800CF70C093E900CF91089567
:1051D00083E59DE00E94F00780915103811109C091
:1051E0000E94722D0E94CF2D8091E20084608093F6
:1051F000E20008958FE49DE00E94F00710925103B1
:1052000008958BE49DE00E94F0070C94332787E417
:105210009DE00E94F00760914E0381E0611101C0A2
:1052200080E00C941E2783E49DE00E94F00790919B
:10523000520381E0943009F080E060914E030C94B9
:1052400023272091F1022F5F822F62E30E947E309C
:10525000992319F02093F10208951092F1028091A0
:10526000F502882371F180915203843041F58091D9
:10527000E9008F702091EC00922F917020FD90E852
:10528000892B95E09093E9009091EB0090FF14C07A
:105290009091EE0097FF10C09091E80095FF03C039
:1052A0001092F100F9CF9091E80090FF05C0909125
:1052B000E8009E779093E8008F708093E900109249
:1052C000F502089542E061EC81E00E94EB2C42E29D
:1052D00061EC84E00E94EB2C42E261EC82E00E94EF
:1052E000EB2C42E260EC83E00E94EB2C42E261ECAA
:1052F00085E00E94EB2C9091520381E0943009F0FC
:1053000080E060914E030C942C27809154038330ED
:1053100009F463C030F4813071F0823009F49CC02C
:1053200008958A3009F488C08B3009F46EC0893042
:1053300009F0AAC020C080915303813A09F0A4C0AB
:105340008091E800877F8093E800809157039091D7
:105350005803892B21F460E286EF92E003C060E0FD
:1053600080E090E070E00E942C2C8091E8008B7728
:105370008093E800089580915303813209F084C03E
:105380008091570390915803009719F0029709F004
:105390007BC08091E800877F8093E8008091E800DF
:1053A00082FD05C0809152038111F8CF6DC020911C
:1053B000F3008091F20090E0922B029731F48091FB
:1053C000F100813011F0863021F48091F10080935A
:1053D00016038091E8008B7753C080915303813A84
:1053E00009F052C08091570390915803892B09F01E
:1053F0004BC08091E800877F8093E8008091E800AF
:1054000080FFFCCF8091180136C080915303813218
:10541000D9F58091570390915803892BA9F5809174
:10542000E800877F8093E8000E94202D809155033B
:10543000809318010C94180F80915303813221F549
:105440008091E800877F8093E8000E94202D809162
:10545000560380931703089580915303813AA1F472
:105460008091E800877F8093E8008091E80080FFCA
:10547000FCCF809117038093F1008091E8008E7734
:105480008093E8000C94202D08959FB7F894109213
:10549000F5029FBF90915203943009F057C090914C
:1054A000E9009F703091EC00232F217030FD20E83F
:1054B000922B25E02093E9002091EB0020FF43C0D0
:1054C0002091EE0027FF3FC02091F002222321F01F
:1054D0002091E80025FF37C01092F00226E03091BD
:1054E000E80035FD15C030915203343061F530913C
:1054F000EB0035FD28C0215021F481E08093F002BB
:1055000022C0EFE9FFE03197F1F700C00000E7CFDC
:105510008093F1008091E80085FD0AC08091E80049
:1055200080FFFCCF8091E8008E778093E80006C072
:105530008FB7F89421E02093F5028FBF9F7090936E
:10554000E90080E008959F709093E9008FEF08953F
:1055500084B7877F84BF0FB6F894A89580916000C8
:10556000886180936000109260000FBE90E080E838
:105570000FB6F89480936100909361000FBE0C9475
:105580002E270E94722D0E94CF2DE2EEF0E0808146
:105590008460808378940C9463308CE091E00C9468
:1055A0009B25809152038530C9F48FE39DE00E94D2
:1055B000F00780915203853079F40E948127809111
:1055C00050038823B1F30E944027882391F30E945F
:1055D000802B0E94180FEDCF0C94AC270895CF9329
:1055E000DF93CDB7DEB7A0970FB6F894DEBF0FBE3E
:1055F000CDBF80915203843011F583E08093E900A0
:105600008091E80082FF1BC08091E80085FF0AC0FE
:1056100040E050E060E270E0CE0101960E94E12B94
:1056200091E001C090E08091E8008B778093E800E2
:10563000992329F060E2CE0101960E94101EA096E7
:105640000FB6F894DEBF0FBECDBFDF91CF910895A6
:105650000C942A2B292F332723303105C9F060F40D
:105660002130310581F02230310509F041C08BE74E
:1056700090E02DE83DE040C021323105E1F02232DA
:10568000310531F135C082E190E028E03EE034C0E0
:1056900099278130910549F028F0029749F5E7E50F
:1056A000FDE005C0E9E8FDE002C0EFE6FDE0849121
:1056B00090E09F0121C064307105D0F4660F771F20
:1056C000FB01E550FE4F2081318189E090E014C05C
:1056D0006430710568F4FB01EE0FFF1FED50FE4FC3
:1056E00020813181FB01E151FE4F808190E004C0B7
:1056F00080E090E020E030E0FA01318320830895DB
:1057000080E189BD82E189BD09B400FEFDCF8091B1
:10571000D8008F7D8093D8008091E00082608093D4
:10572000E0008091E00081FDFCCF0895CF92DF92F0
:10573000EF92FF920F931F93CF93DF93EC018B01B6
:105740007A010E943F2D811133C0E114F10439F038
:10575000F70180819181081B190BC80FD91FC12C3B
:10576000D12C0115110519F18091E80085FD16C0B5
:105770008091E8008E778093E800E114F10449F00D
:10578000F70180819181C80ED91ED182C08285E047
:105790000FC00E943F2D882321F30AC08991809376
:1057A000F10001501109FFEFCF1ADF0ADACF80E0D4
:1057B000DF91CF911F910F91FF90EF90DF90CF90ED
:1057C0000895CF92DF92EF92FF920F931F93CF93A2
:1057D000DF93EC018B017A010E943F2D811133C0D0
:1057E000E114F10439F0F70180819181081B190B54
:1057F000C80FD91FC12CD12C0115110519F18091A9
:10580000E80085FD16C08091E8008B778093E80062
:10581000E114F10449F0F70180819181C80ED91E8D
:10582000D182C08285E00FC00E943F2D882321F3E2
:105830000AC08091F100899301501109FFEFCF1A3E
:10584000DF0ADACF80E0DF91CF911F910F91FF90B7
:10585000EF90DF90CF9008952091590330915A0333
:105860002617370748F06115710539F42091E800D3
:105870002E772093E80001C0B901FC0120E06115FA
:10588000710579F1809152038823F1F18530F1F1AE
:105890008091E80083FD3CC08091E80082FD2EC02D
:1058A0008091E80080FFEBCF2091F3008091F2001F
:1058B00090E0922B6115710551F08830910538F414
:1058C00021912093F100615071090196F3CF21E0FD
:1058D000089709F020E08091E8008E778093E80037
:1058E000CECF2111CFCF0AC080915203882361F01F
:1058F000853061F08091E80083FD0AC08091E80066
:1059000082FFF2CF80E0089582E0089583E0089559
:1059100081E008952091590330915A0326173707E3
:1059200048F06115710539F42091E8002E77209335
:10593000E80001C0B901FC0120E06115710591F199
:1059400080915203882309F440C0853009F43FC098
:105950008091E80083FD3DC08091E80082FD2FC06A
:105960008091E80080FFE9CF2091F3008091F20060
:1059700090E0922B6115710559F08830910540F443
:1059800024912093F1003196615071090196F2CF74
:1059900021E0089709F020E08091E8008E7780935D
:1059A000E800CBCF2111CCCF0AC0809152038823CD
:1059B00061F0853061F08091E80083FD0AC080913C
:1059C000E80082FFF2CF80E0089582E0089583E04E
:1059D000089581E00895982F973068F59093E90035
:1059E000981739F07091EC002091ED005091F00083
:1059F00003C0242F762F50E021FD02C09F5FECCF23
:105A00003091EB003E7F3093EB003091ED003D7F15
:105A10003093ED003091EB0031603093EB007093E8
:105A2000EC002093ED005093F0002091EE0027FD54
:105A3000E5CF80E008958F708093E90081E00895BC
:105A40008091530387FF11C08091E80082FD05C05B
:105A5000809152038111F8CF11C08091E8008B77BB
:105A60000BC080915203882349F08091E80080FFA9
:105A7000F8CF8091E8008E778093E8000895209118
:105A8000E4003091E50095E64091EC00842F8170B0
:105A900040FF23C08091E80080FD1DC0809152032B
:105AA000882399F0853099F08091EB0085FD11C035
:105AB0004091E4005091E5002417350729F39150F7
:105AC00011F09A01E1CF84E0089582E0089583E027
:105AD000089581E0089580E008954091E80042FF34
