:100000000C9402030C943A030C943A030C943A03B4
:100010000C943A030C943A030C943A030C943A036C
:100020000C943A030C943A030C9497280C944C27A4
:100030000C943D2A0C943A030C943A030C943A0322
:100040000C943A030C943A030C943A030C943A033C
:100050000C943A030C94F0290C943A030C943A0350
:100060000C943A030C943A030C943A030C943A031C
:100070000C943A030C943A030C943A030C943A030C
:100080000C943A030C943A030C943A030C943A03FC
:100090000C943A030C943A030C943A030C943A03EC
:1000A0000C943A030C943A030C943A03E107E107E9
:1000B000140814088708A508B109B109B008240973
:1000C00035093509070AEC09EF09F209F509F809BC
:1000D000FB09FE09010A040AF00B0A0C350C790C25
:1000E000B70CF90C3C0D3F0D440D470D4A0D4D0D5D
:1000F000500D530D560D590D5C0D5F0D620D670DC2
:100100006C0D6F0D720D770DB20DF10D390E3C0EA9
:100110003F0EAA0E8C0F27102A102F103A103D10F8
:1001200048104B1056105910641067107210E013ED
:10013000E313061413141A143A14D614D614D6144E
:10014000D614D6143D143F1444146A148D1490141C
:100150009314B6143C1F631F0C21631F0C21AF1FA7
:10016000D21F0C21C720D720000000000000000093
:10017000000000000000000000000000000000007F
:100180000000000000000000000000007E0F00D40E
:10019000FFFFFFC700000078000000000000000023
:1001A0002A2B2800000000000000000000000000D2
:1001B00000000029000000002C1E342021222434DD
:1001C0002627252E362D3738271E1F2021222324AF
:1001D00025263333362E37381F0405060708090A4B
:1001E0000B0C0D0E0F101112131415161718191AE7
:1001F0001B1C1D2F3130232D350405060708090A65
:100200000B0C0D0E0F101112131415161718191AC6
:100210001B1C1D2F3130354C05010902A10185023F
:100220000901A100050919012908150025019508F2
:10023000750181020501093009311581257F95027B
:100240007508810609381581257F95017508810695
:10025000050C0A38021581257F950175088106C0B5
:10026000C005010980A101850319012AB700150104
:1002700026B700950175108100C0050C0901A10188
:10028000850419012AA002150126A0029501751006
:100290008100C005010906A1018506050719E029AD
:1002A000E715002501950875018102050719002948
:1002B000EF1500250195F075018102050819012946
:1002C00005950575019102950175039101C00660C0
:1002D000FF0961A1010962150026FF00952075083C
:1002E00081020963150026FF00952075089102C060
:1002F00005010906A101050719E029E715002501F7
:10030000950875018102950175088101050719009D
:1003100029FF150026FF00950675088100050819BC
:10032000012905950575019102950175039101C09B
:1003300009025B00030100A0FA09040000010301A7
:100340000100092111010001224000070581030875
:10035000000109040100020300000009211101004D
:100360000122220007058203200001070503032064
:10037000000109040200010300000009211101002D
:100380000122B600070584032000011201000200CB
:100390000000084C4DF2DE01000102000126034D71
:1003A000006500630068006C006F00760069006EF5
:1003B000002000440065006C007000680069006E59
:1003C000006500000014034D006500630068006CC8
:1003D000006F00760069006E00000004030904004D
:1003E00001010101010101010102020202020202F6
:1003F00002020303030303030303040404040404C9
:10040000040505050505060606060607070707078E
:1004100008080808090909090A0A0A0B0B0B0C0C41
:100420000C0D0D0D0E0E0E0F0F0F101011111112DD
:100430001213131414151516161717181819191A5C
:100440001A1B1B1C1D1D1E1E1F20202122222324BF
:1004500024252626272829292A2B2C2D2D2E2F30FE
:10046000313232333435363738393A3B3C3D3E3F12
:10047000404142434445464748494A4C4D4E4F50FF
:10048000515354555658595A5B5D5E5F61626465BD
:100490006668696B6C6D6F7072737577787A7B7D47
:1004A0007E8082838587888A8C8E8F91939596989B
:1004B0009A9C9EA0A2A3A5A7A9ABADAFB1B3B5B7B7
:1004C000BABCBEC0C2C4C6C9CBCDCFD1D4D6D8DB8E
:1004D000DDDFE2E4E7E9EBEEF0F3F5F8FAFDFF002B
:1004E00065758500244555006474840034445400C7
:1004F00067778700263646006676860025355600E3
:1005000058688900283848005778880027374700FE
:100510003C4C5C006C7C8C002C4D5D006D7D8D0036
:100520002D3D5E006E7E8E002E3E4E006F7F8F0052
:100530002F3F4F003040500060709100314151001A
:100540006171812900C05CC25CC35C5300540055DA
:100550000056005F006000610057005C005D005EB7
:1005600000670059005A005B005800620062006397
:10057000002A00010001000100010001000100014A
:100580000001000100010001000100010001000163
:100590000001000100010001000100010001000153
:1005A0000001000100010001000100010001000143
:1005B0000001000100010001000100010001000133
:1005C0000001000100010001000100010001000123
:1005D0000001000100010001000100010001000113
:1005E0000001000100010001000100010001000103
:1005F00000010001000100010001000100010001F3
:100600000001000011241FBECFEFDAE0DEBFCDBF36
:1006100004B603FE18C080914A0490914B04A09147
:100620004C04B0914D048730904BA740B04B59F427
:1006300010924A0410924B0410924C0410924D04F4
:10064000E0E0F8E3099511E0A0E0B1E0E8EAF5E6C2
:1006500002C005900D92A23DB107D9F724E0A2EDAA
:10066000B1E001C01D92AA34B207E1F70E948C10DC
:100670000C94D2320C940000982F92959F7019F030
:10068000892F24E001C020E0982F9695969511F0CF
:100690002E5F892F982F969509F02F5F822F08954E
:1006A0001F93CF93DF93CDB7DEB767970FB6F8945C
:1006B000DEBF0FBECDBF4B8B5C8B6D8B7E8B8F8B6C
:1006C00061111092FE0286E09E01235F3F4FD90127
:1006D000E82F1D92EA95E9F795E0FE017396D9019E
:1006E00001900D929A95E1F79C894E895F897B89EB
:1006F0007D879E876F87598B488BF901DE0117969E
:1007000001900D928A95E1F7CE0107960E94C418D8
:1007100081113EC086E0FE013796DE011196019000
:100720000D928A95E1F7FF81E8856A857B856115E1
:10073000710531F0EF3F31F481E0FF3F19F403C060
:1007400081E001C080E080FD23C02091AB0230E059
:10075000C9010196877099274091DC0250E0841707
:10076000950779F1F983EA837D836C8396E0929F04
:10077000D001939FB00D1124A455BD4FFE013196B9
:1007800001900D929A95E1F78093AB020E94411877
:1007900016E08091DC029091AB028917F9F0189F66
:1007A000C001112484559D4F0E94C4188823B1F0C4
:1007B0008091DC0290E00196877099278093DC029B
:1007C000E8CF0E94A12F1092AB021092DC02E5EA62
:1007D000F2E086E0DF011D928A95E9F767960FB691
:1007E000F894DEBF0FBECDBFDF91CF911F9108956A
:1007F00080FF02C02D9A08952D9808953F924F9240
:100800005F926F927F928F929F92AF92BF92CF92A0
:10081000DF92EF92FF920F931F93CF93DF93CDB7A9
:10082000DEB729970FB6F894DEBF0FBECDBFFC012F
:100830008081918123813481232B31F09F3F31F4DA
:1008400091E08F3F19F403C091E001C090E090FD6A
:100850005AC67F0185E0DE01119601900D928A95BE
:10086000E1F7F701228189819A81222349F00E94D0
:10087000DC2E182F682F89819A810E94362F03C0A1
:100880000E940B2F182F69817A81812F0E94762D6B
:100890008C01F7018281882309F4F1C0980122516B
:1008A0003F452031310508F01CC18FEF93E00E94D5
:1008B000F6318111EEC0025137EE832E912C0023C8
:1008C00079F08114F4E09F0609F4E3C0C4010E94AA
:1008D000F631811101C001502FEF821A920AEFCF39
:1008E0001E821F8218861986442443942AE0322EE1
:1008F00084010F5F1F4FC4010E94F6318E831F8257
:10090000882309F4C6C09FEF980F933060F48F835B
:100910004E8232E0830E911CC8010E94F631888716
:10092000811102C0B6C048018E010A5F1F4FF80155
:1009300020812223E9F2213009F04CC081818130ED
:1009400049F46801F2E0CF0ED11CF80182810E94C7
:1009500071300AC0823051F46801F2E0CF0ED11C30
:10096000F80182810E94F92F860186C0833049F404
:100970006801F2E0CF0ED11CF80182810E94C72FDE
:10098000F3CF843019F00F5F1F4F76C0F80122813A
:100990000E5F1F4F80E090E030E0205331092A3095
:1009A000310568F4389EA001399E500D1124C9010B
:1009B000840F951F0F5F1F4FF8012081EDCF009727
:1009C00009F45AC0EFE9FFE03197F1F700C00000E9
:1009D0000197F5CFE22FF0E0E856FE4F5490822FBA
:1009E00086958695869590E0FC01E857FE4F6490C9
:1009F0002770712C022E02C0759467940A94E2F756
:100A0000F1E06F227724FC01E858FE4FA490B12C4E
:100A1000022E02C0B594A7940A94E2F731E0A32213
:100A2000BB24FC01E859FE4FC490D12C02C0D594E0
:100A3000C7942A95E2F781E0C822DD24611471048D
:100A400019F081EE0E94F92FA114B10419F086EE7D
:100A50000E94F92F852D0E947130AB2819F086EE87
:100A60000E94C72F672819F081EE0E94C72FCD285A
:100A700019F08CE20E9471300F5F1F4F58CF003188
:100A80003FE5130709F0C6C481E00E94662F0E946B
:100A90004D1B8091DD02877009F435C5F701828115
:100AA000882309F430C58091950382FD2CC582E02E
:100AB00029960FB6F894DEBF0FBECDBFDF91CF9160
:100AC0001F910F91FF90EF90DF90CF90BF90AF906C
:100AD0009F908F907F906F905F904F903F900C947D
:100AE00007180031FFE51F0711F481E005C001314F
:100AF0002FE5120721F482E00E94722FC8CFF8017F
:100B0000E856F109EA30F10508F462C4033FFCE558
:100B10001F0749F406E221EE40EE63EF7CE5C701D2
:100B20000E944E2EB6CF043F2CE5120708F066C196
:100B3000083D3CE5130731F407E225EE45EE68ED8C
:100B40007CE5EDCF093D9CE5190731F408E221E091
:100B500045EE69ED7CE5E3CF073DECE51E0731F49A
:100B600006E221EE41EE67ED7CE5D9CF882309F45A
:100B70007AC11092400403309DE5190758F40A3FEA
:100B8000ECE51E0780F4C80182509C45449708F0AC
:100B900054C109C00136FDE51F0729F0053A2DE5CE
:100BA000120709F04AC10E941F1790939503809382
:100BB000940301313CE5130709F4C6C008F042C0B4
:100BC00009309CE5190709F49BC000F50530FCE5E8
:100BD0001F0709F485C078F403303CE5130709F4D6
:100BE00078C008F07AC002301C4509F0F7C0809147
:100BF00094038160F1C00730ECE51E0709F478C06A
:100C000008F07AC0809194038061E6C00D302CE535
:100C1000120709F487C058F40B308CE5180709F463
:100C200079C008F07BC08091940388606FC00F305A
:100C3000ECE51E0709F480C008F082C0809194039F
:100C4000877FCAC00D3F2CE5120709F471C000F57B
:100C500005318CE5180709F485C068F40331ECE52B
:100C60001E0709F475C008F095C00E94A12F80915D
:100C700094038F77B1C00B3F2CE51207A9F108F060
:100C800054C00A3F1C4509F0A9C08091950340C09B
:100C900001309DE5190709F489C058F40F3FFCE5C0
:100CA0001F0709F45AC008F069C08091950382605B
:100CB0002FC001363DE5130709F47EC0053A8DE5E6
:100CC000180709F483C002301D4509F087C060E0B1
:100CD0006EC08091940382607FC08091940316C09F
:100CE00080919403886078C08091950382604FC0A2
:100CF00080919403806270C08091940380646CC082
:100D00000E94A12F80919403806866C0846064C0B3
:100D100081603DC0809194038E7F5EC0809194037A
:100D20008D7F5AC08091940316C08091950318C09E
:100D3000809195038D7F2BC0809194038F7E4CC052
:100D4000809194038F7D48C0809194038F7B44C031
:100D500080919403877F8B7F3FC0809195038D7F27
:100D60008E7F15C08091940382FB222720F991E0A9
:100D7000922790FB82F990FB83F92EC08091950316
:100D8000982F909591708E7F892B90FB81F980939D
:100D9000950324C00E94A12F8091940387FB2227F2
:100DA00020F991E0922790FB87F916C061E08EE070
:100DB00090E00E94143212C08091940384FB222799
:100DC00020F991E0922790FB84F906C0809194036A
:100DD000982F909590FB80F98093940360919403F1
:100DE0001091950384E090E00E941432612F82E21A
:100DF00090E00E9414320E94A12F4BCE053FFCE5EB
:100E00001F0731F406E221EE42EE65EF7CE587CE66
:100E1000053F2CE5120730F407E225EE44EE64EFBF
:100E20007CE57DCE063F3CE5130709F09FCE07E247
:100E300025EE46EE66EF7CE572CE06318CE51807AE
:100E400021F58091FF028A7A91E009F490E0909375
:100E5000D401882311F065E301C069E285E892E0DE
:100E60000E948E2A0FC00631ECE51E0709F040C033
:100E70008091D401882309F4D4C265E385E892E027
:100E80000E94662A0E94B21704CE0A359DE5190712
:100E900049F158F40115FCE51F07B1F00E3D1C4562
:100EA00009F042C00E943B17F4CD0B353DE5130716
:100EB000D9F00C351D45C1F58091950382FB88273B
:100EC00080F991E0892711C00E94A12F9FEFE4E3F0
:100ED000FCE09150E040F040E1F700C000000E94CB
:100EE000CC29D7CD81E001C080E00E9424181CC02D
:100EF0008091FF0282720A3CECE51E0709F4ECC205
:100F000008F0A6C2053C2CE5120709F4D1C208F08E
:100F10008AC2033C9CE5190709F4C0C208F0C3C2A9
:100F2000023C1C4509F473C2F701828100811181E2
:100F3000882349F0C8010E94DC2ED82E682FC801F2
:100F40000E94362F04C0C8010E940B2FD82EB80172
:100F50008D2D0E94762D0E948515B82E192F982E62
:100F6000F7010281A580A2949FE0A9228091DD0271
:100F70008770B9F00023A9F0812F807F803421F0A1
:100F800080E28B0D883068F08091950382FD09C066
:100F900082E00E9407188091DD028770DD24D394DF
:100FA0008111D12CC12EC2948FE0C8228C2D90E0EB
:100FB0008C30910508F0D5C1FC01EA5AFF4F0C9422
:100FC000AF32812F807F1F70882311F01295107F20
:100FD0000023B9F0112309F4B2C180E28B0D8830EF
:100FE00010F0911006C08091FF02182B1093FF02A1
:100FF00005C08091FE02182B1093FE020E94B217CA
:101000009EC18B2D0E94C72F112309F4AAC180E233
:101010008B0D883080F1992071F110958091FE023E
:1010200018231093FE022AC0812F807F1F70803208
:1010300011F01295107F8B2D992021F0F1E09F1671
:10104000D9F149C08091950382FF1BC0002369F04C
:10105000112339F08091FF02182B1093FF020E9498
:10106000B21780E00E94F92F7CC180E00E94C72F58
:10107000112309F476C1812F0E94AB170E94B21789
:1010800070C1002381F080910003AA2051F021E07B
:10109000A21207C0182B181709F463C1109300039C
:1010A00060C1812B10C0AA2021F031E0A31609F401
:1010B00058C10E94A51727C0002341F085E08A157A
:1010C00008F44FC1812F0E94BD2F4BC194E09A15A7
:1010D00008F447C118C0002349F0AA2099F3F7018A
:1010E000858180FF2CC18F708583ECCFAA2059F0B9
:1010F000893309F033C1FFEF27EE33E0F150204090
:101100003040E1F729C1812F0E94B62F2AC1812FDB
:1011100086958695837019F0813061F022C1002395
:1011200021F08B2D912F937002C080E090E00E94FF
:10113000D92A1FC1002321F08B2D912F937002C05B
:1011400080E090E00E94C32A14C18B2D002319F087
:101150000E94312602C00E9478250E948C2609C177
:10116000812F8370A9F5011100C14B2D4295469541
:101170004770440F440F8B2D8F7090E09C01042E1C
:1011800001C0220F0A94EAF7B4FE08C08FE090E095
:1011900001C0880F4A95EAF7809501C080E0169556
:1011A00016951370123069F088F490910103113094
:1011B00019F0822B892302C0922B892B0E947D2F4C
:1011C000D4C0822B909101038927F8CF822BF6CFD0
:1011D000002319F0812F817001C08695882309F4BE
:1011E000C4C04B2D429546954770440F440F8B2D3C
:1011F0008F7090E09C01042E01C0220F0A94EAF740
:10120000B4FE08C08FE090E001C0880F4A95EAF76D
:10121000809501C080E0169516951370123059F034
:1012200078F490917403113019F0822B892309C04E
:10123000922B892B06C0822B90917403892701C0C1
:10124000822B0E94602F91C01F70002339F0812FE4
:101250000E94722F8B2D0E94BD2F87C08B2D0E9464
:10126000B62F812F0E94662F80C08B2D92EF99168A
:1012700079F1991538F0E0EF9E1659F0F1EF9F16CD
:1012800011F159C023EF921651F134EF9316B9F0D2
:1012900052C0002379F084E08A1508F462C01F71FF
:1012A00081E090E001C0880F1A95EAF790917403ED
:1012B00089271FC095E09A1508F453C0F0CF80919C
:1012C000950382FF19C0002329F0812F8F7126C05A
:1012D0000023D9F3812F8F710E94662F42C0002313
:1012E00039F01F7181E001C0880F1A95EAF701C03B
:1012F00080E00E94602F35C0002399F01F71812F7C
:101300000E94722F8091950382FD07C0E8E01E9F26
:10131000C001112483608093DD02812F0E94722F0F
:1013200020C081E00E940718F1E0FA15D0F482E0B5
:101330000E94071816C0002321F0AA2031F28B2D3D
:1013400091CEAA2039F2893349F42FEF37EE83E0AA
:10135000215030408040E1F700C000008B2D0E94FA
:10136000C72F88EF8C0D843020F40E94EF2A0E9452
:10137000F803DD2009F4C7C08091DD0280FDC3C001
:10138000F70112828595859585950E94722FC70178
:101390000E94FE038091DD028595859585952996AD
:1013A0000FB6F894DEBF0FBECDBFDF91CF911F9176
:1013B0000F91FF90EF90DF90CF90BF90AF909F90F4
:1013C0008F907F906F905F904F903F900C94662F1E
:1013D000EE59FF4F0C94AF320E94022D5ACB0E945F
:1013E000092B57CB0E94FB2A54CB0E94F02C51CBE7
:1013F0000E94E72C4ECB0E94DB2C4BCB0E94CF2CC3
:1014000048CB0E94C32C45CB0E94B72C42CB0E94F4
:10141000402E3FCB01319FE5190709F077CB82E0E1
:1014200034CB69E22BCD073C2CE5120709F44AC006
:1014300008F443C0083C9CE5190709F448C0093C7E
:101440001C4509F071CD47EB5CE263EC7CE252C0D5
:101450000F3CFCE51F0709F452C088F40C3C3CE546
:10146000130709F443C0E8F10D3CECE51E0709F44D
:1014700044C00E3C1C4509F057CD85E041C0063DF7
:101480002CE5120730F4013D1C4508F002CB82E147
:1014900037C00D351D4509F4FCCA46CD49EF5CE265
:1014A00062E07DE227C042E05DE269EF7CE222C0BB
:1014B00047EE5CE260EF7CE21DC040EF5CE267EE6D
:1014C0007CE218C04FEC5CE26BED7CE213C04BEDAC
:1014D0005CE26FEC7CE20EC043EC5CE267EB7CE22A
:1014E00009C04BEF5AE269E07BE204C049E05BE2ED
:1014F0006BEF7AE20E94CD2DCCCA81E001C08DE075
:101500000E94341BC6CA29960FB6F894DEBF0FBEE0
:10151000CDBFDF91CF911F910F91FF90EF90DF90A2
:10152000CF90BF90AF909F908F907F906F905F9083
:101530004F903F900895CF93DF93D82F0E943C03A4
:10154000C82F20E040E0811106C06FEF81E090E0FD
:101550000E94FA230FC060E081E090E00E94FA232D
:10156000C13041F420E040E06FEF80E090E00E9465
:10157000FA2311C020E040E060E080E090E00E94AB
:10158000FA23C23041F420E040E06FEF83E090E0C6
:101590000E94FA230DC020E040E060E083E090E08C
:1015A0000E94FA23C33021F420E040E06FEF03C033
:1015B00020E040E060E082E090E00E94FA238D2F7E
:1015C000DF91CF9108954F925F926F927F928F92A9
:1015D0009F92AF92BF92CF92DF92EF92FF920F93C2
:1015E0001F93CF93DF938091FE019091FF01A09113
:1015F0000002B09101022FB7F894C0909003D090F0
:101600009103E0909203F09093032FBFC81AD90A78
:10161000EA0AFB0A0E94252A4B015C016093FE0145
:101620007093FF018093000290930102A091D50175
:10163000E5EDF1E08A2F90E04FEF5FEF60E070E0C2
:101640004C195D096E097F09A91799F0218D328D1A
:101650002901612C712C441555056605770510F498
:10166000815004C02C0D3D1D328F218F9F5F32961B
:10167000EBCF8093D50180917603982F937021F062
:10168000F82EF694F69401C0F12C90911601913049
:10169000E1F030F09230E1F1933009F444C02BC511
:1016A000109213018092470390924803A09249033D
:1016B000B0924A0389E2E5EDF1E0ABE4B3E00190DA
:1016C0000D928A95E1F781E02BC090910501F91206
:1016D0000CC0837090E04091040150E021E0841739
:1016E000950709F420E0822F01C081E0817080938A
:1016F000150180917B0390911401981709F440C063
:101700008093140140E060E080E00E94F82338C03C
:10171000F09205018370809304010E94782B83E08E
:1017200080931601E8C480917503882351F046E048
:1017300050E06CE170E086E793E00E940432109282
:10174000750340914703509148036091490370919C
:101750004A032FB7F8948091900390919103A09140
:101760009203B09193032FBF841B950BA60BB70B6D
:101770004097A105B10508F4BEC410921601BBC480
:101780008F2D90E08B32910508F43FC080911301BA
:101790008F5F8093130182E0809316018091150181
:1017A00081112FC0FF2009F4BACF0E94EF2A80FFD9
:1017B000A2C42FEF4FEF6FEF84E090E0DF91CF9165
:1017C0001F910F91FF90EF90DF90CF90BF90AF905F
:1017D0009F908F907F906F905F904F900C94FA2322
:1017E00080911501882329F040E060E080E00E94AC
:1017F000F823C0E0809113018F5F80931301CC2305
:1018000051F2FF2009F477C4D0CFFC01E459FF4F17
:101810000C94AF3280911301C82FCC0FCC0FC80F9E
:10182000D5E0DC0FDA3108F0D9E1609177037091EF
:101830007803809179030E94E824162F072FE82E61
:10184000CD1708F011C2EC2FF0E0DF01A055BE4F1C
:101850008C9190911401982331F02E2D412F602FFF
:10186000CF010E94FA23CF5FEBCF80911301C82FE5
:10187000CC0FCC0FC80F35E0E32EEC0E29E12E156E
:1018800010F429E1E22E10917803D09179030091B0
:101890007703B8018D2F0E94E824D62EC72EB82ECC
:1018A00060917A03600F712F8D2F0E94E824D62F4C
:1018B000172F082FCE15B8F48C2F90E0FC01E055BF
:1018C000FE4F308120911401232359F030FF04C0D2
:1018D000202F4D2F612F03C02B2D4D2D6C2D0E94DD
:1018E000FA23CF5FE7CFC1E038E13E1508F082CFA1
:1018F00080CF80911301C82FCC0FCC0FC80FD5E03B
:10190000DC0FDA3108F0D9E1D0907803C090790388
:1019100020917A0390E4E92E3E2D329F312D11243F
:10192000E32ECD1708F0A0C10C2F10E0F801E05510
:10193000FE4F9081809114018923B9F0F801EE0FD8
:10194000FF1FEA59FE4F818D82958F70609177035A
:101950008E9D600D11247D2D8C2D0E94E824462F34
:10196000282F672FC8010E94FA23CF5FDACF80911A
:101970001301C82FCC0FCC0FC80FD5E0DC0FDA3124
:1019800008F0D9E1D0907803C090790320917A03D0
:1019900010E4E12E3E2D329F312D1124E32ECD1780
:1019A00008F062C10C2F10E0F801E055FE4F908165
:1019B000809114018923D9F0F801EE0FFF1FE2583E
:1019C000FE4F6081E69EB0011124B5E075956795E4
:1019D000BA95E1F780917703680F7D2D8C2D0E94D9
:1019E000E824462F282F672FC8010E94FA23CF5FD3
:1019F000D6CF80911301C82FCC0FCC0FC80FD5E0E4
:101A0000DC0FDA3108F0D9E1009177031091780307
:101A1000E090790360917A0366956695669580916A
:101A20004703909148030E94CB240E9417248058BA
:101A300087FD8195880F282F3E2D239F212D11246E
:101A4000822FB8010E94E824162F072FE82ECD1709
:101A500008F00AC1EC2FF0E0DF01A055BE4F8C91D9
:101A600090911401982331F02E2D412F602FCF013A
:101A70000E94FA23CF5FEBCF81E093E202C085EDB5
:101A800092E20E94951C33C38AED93E21DC08BEB5A
:101A900093E21AC080EA93E21CC084E893E219C082
:101AA00083ED92E2EECF8AEC92E2EBCF81EC92E210
:101AB000E8CF86EA92E2E5CF87E992E20AC082EABD
:101AC00094E202C083E793E20E94C01D10C38FE539
:101AD00093E20E94441D0BC389E692E205C087E3AE
:101AE00092E202C089EF91E20E94E31C00C3809160
:101AF000150181111EC060917A0320E1620F08F484
:101B00006FEF80914703909148030E94CB246AE0D5
:101B100070E00E946D31892B09F06BCE0E94CD31AF
:101B200069E170E00E949B32609114010E94FA2DDD
:101B300060CE80911301C82FCC0FCC0FC80F15E0D9
:101B40001C0F1A3108F019E1D0E0C12ED12CCC15B0
:101B5000DD050CF041C060911401CE010E94FA2D08
:101B60002196F5CF8091150181111EC060917A03F5
:101B700020E1620F08F46FEF8091470390914803D2
:101B80000E94CB2465E070E00E946D31892B09F042
:101B900030CE0E94CD3169E170E00E949B326091AD
:101BA00014010E94D32D25CE80911301C82FCC0F94
:101BB000CC0FC80F15E01C0F1A3108F019E1D0E066
:101BC000C12ED12CCC15DD053CF460911401CE0161
:101BD0000E94D32D2196F6CFC1E0193108F40ACE28
:101BE00008CE80911301C82FCC0FCC0FC80FD5E0C1
:101BF000DC0FDA3108F0D9E1009178031091790314
:101C0000E090770360917A0366956695669580917A
:101C10004703909148030E94CB240E9417248058C8
:101C200087FD8195880F682F2CE0629F612D11241C
:101C30006E0D702F812F0E94E824162F072FE82E9B
:101C4000CD1790F4EC2FF0E0DF01A055BE4F8C9142
:101C500090911401982331F02E2D412F602FCF0148
:101C60000E94FA23CF5FECCFC1E0D93108F4C2CD96
:101C7000C0CD88E394E205CF88EE91E202CF409197
:101C8000020250910302609104027091050280915A
:101C9000470390914803A0914903B0914A038417E8
:101CA0009507A607B70708F4A4CD0E945C24182F57
:101CB0000E945C2499E1891BF0F7890FC82FD0E0BE
:101CC000FE01E055FE4F809114019081982309F4A4
:101CD00010C211FF04C020E040E060E013C00E9489
:101CE0005C24182F0E945C248695782F2FE7720FB2
:101CF00008F47FEF612F809179030E94E824462F3A
:101D0000282F672FCE010E94FA2320917A0330E119
:101D1000230F08F42FEF60E1822F90E00E94CB2484
:101D2000BC0184EF91E00E946D3180914703909156
:101D30004803A0914903B0914A03860F971FA11D44
:101D4000B11D8093020290930302A0930402B0930A
:101D500005024FCD409151025091520260915302C1
:101D6000709154028091470390914803A0914903D8
:101D7000B0914A0384179507A607B70708F439CD31
:101D80008091150181110DC080911301C82FCC0FD6
:101D9000CC0FC80F05E00C0F0A3108F451C009E15F
:101DA0004FC040E060E080E00E94F82306E012E0CF
:101DB000C0E0D0E0FFE7EF2E0E945C2481FF05C069
:101DC000F8011082118212821DC00E945C24B82E7C
:101DD0000E945C248695782F2E2D720F08F47FEFD9
:101DE000CE01880F991F8C0F9D1FFC01EA5FFD4FEC
:101DF0006F016B2D809179030E94E824F6016083C6
:101E00007183828321960D5F1F4FC931D105A1F6E1
:101E1000BBCF8C2F90E0FC01E055FE4F308120912C
:101E20001401232361F0FC01EE0FFF1FE80FF91FDF
:101E3000EA5FFD4F2281408161810E94FA23CF5FDA
:101E4000C01738F3C1E0093108F0C0E0093108F4E7
:101E5000D1CC20E010E001501109822F90E08017D2
:101E60009107CCF4AC01440F551F480F591F4A5F2E
:101E70005D4F0196FC01EE0FFF1F8E0F9F1FFC01AF
:101E8000EA5FFD4F80819181A281FA018083918375
:101E9000A2832F5FE2CF0E945C246801CC0CDD1C82
:101EA00081FF09C00C0D1D1DF801EA5FFD4F108276
:101EB0001182128218C00E945C24D82F0E945C24D8
:101EC0008695782F2FE7720F08F47FEF0C0D1D1DFC
:101ED0000A5F1D4F6D2F809179030E94E824F8015D
:101EE0006083718382830E94D524009147031091FF
:101EF00048032091490330914A03DC01CB01800F54
:101F0000911FA21FB31F8093510290935202A0937E
:101F10005302B09354026ECC40916D0250916E0208
:101F200060916F0270917002809147039091480315
:101F3000A0914903B0914A0384179507A607B707F4
:101F400008F457CC80911501882329F040E060E027
:101F500080E00E94F823609177037091780380916C
:101F600079030E94E824E62ED72EC82EC5E5D2E0DC
:101F700006E611E08881882331F0F80180812C2D5C
:101F80004E2D6D2D05C0F801808120E040E060E01D
:101F900090E00E94FA23898188838B81F801811166
:101FA00005C0838120E040E060E004C083812C2DE7
:101FB0004E2D6D2D90E00E94FA238A818B83F801CB
:101FC000882329F082812C2D4E2D6D2D04C0828115
:101FD00020E040E060E090E00E94FA238981F8016F
:101FE000882329F081812C2D4E2D6D2D04C08181F7
:101FF00020E040E060E090E00E94FA230E945C2430
:10200000837091E009F090E099839A8324960C5FA5
:102010001F4FF2E0CD36DF0709F0ACCF0E94D52488
:1020200000914703109148032091490330914A03DE
:10203000DC01CB01800F911FA21FB31F80936D02A3
:1020400090936E02A0936F02B0937002D2CB81EE98
:1020500091E202C08BED91E20E94201C48C0809169
:102060004B0321E0382F321B08F430E0832F62EC61
:1020700071E23BC062EC71E237C080914B0321E01A
:10208000382F321B08F430E0832F6AE871E22DC04C
:102090006AE871E229C080914B0321E0382F321B9E
:1020A00008F430E0832F68E571E21FC068E571E253
:1020B0001BC080914B0321E0382F321B08F430E025
:1020C000832F60E471E211C060E471E20DC0809181
:1020D0004B0321E0382F321B08F430E0832F6AE2F3
:1020E00071E203C06AE271E280E00E94581BC82FCF
:1020F00081CBC1E07FCBDF91CF911F910F91FF90FA
:10210000EF90DF90CF90BF90AF909F908F907F9097
:102110006F905F904F900895CF93DF93CDB7DEB768
:10212000AA970FB6F894DEBF0FBECDBF84B7877FE6
:1021300084BF0FB6F894A895809160008861809361
:102140006000109260000FBE90E080E80FB6F89437
:1021500080936100909361000FBE85B7806885BF52
:1021600085B7806885BF89E295E19093D30180931C
:10217000D2010E9490270E9436288091E20084605C
:102180008093E2007894809129038823A1F0109134
:10219000E9001F709091EC00892F817090FD80E81C
:1021A000182B1092E9008091E80083FD0E94541ED4
:1021B0001F701093E90082E084BD93E095BD9AEF13
:1021C00097BD80936E000E94B42D811102C00E94C1
:1021D000A52D0CE111E062E2E62E61E0F62ED801B9
:1021E0008D918D018F3F11F00E946E15E016F10662
:1021F000B1F702E211E056E2E52E51E0F52EF801CA
:1022000081918F018F3F11F00E946E15E016F1064B
:10221000B1F786E0EFE7F2E0DF01282F1D922A9563
:10222000E9F7E1E7F2E0DF011D928A95E9F70E9404
:102230003017811102C00E943B1782E090E00E949B
:10224000F631809377020E941F1790939503809335
:1022500094030E94651ABFEFE6E7F1E0B150E04059
:10226000F040E1F700C000000E94651A80917F02F3
:1022700080FF08C06FEF7FEF80E090E00E94323275
:102280000E94CC2983E090E00E94F6310E947D2FCD
:10229000809174030E949B0A259A2D980E94A22B7C
:1022A00010924B03E4E6F3E084E793E02FEF3FEF77
:1022B000219331938E179F07D9F71092D501EEEE37
:1022C000F1E08FEF9FEF8193919321E0EE3FF207D2
:1022D000D1F70E943017811104C00E943B170E9461
:1022E000FC2346E050E06CE170E086E793E00E945A
:1022F000E63110927503809176038C7F11F40E9471
:10230000FC2386E091E090938C0380938B0398E10B
:10231000492E512C20E4222E35E8632E32E0732E14
:1023200048E0C42ED12C8E010F5F1F4F80912903EE
:10233000853009F049C0B0E1EB2E82E1F82E8091A2
:102340002903853009F03AC080912903843031F1A6
:102350000E94E30A80E00E94F80310928F030FB6F8
:10236000F894A895409260000FBE2092600083B759
:10237000817F846083BF83B7816083BF78948895B1
:1023800083B78E7F83BF0FB6F894A89580916000C5
:10239000886180936000109260000FBE80912803D6
:1023A000882309F4CCCF0E94651AEFE7F2E081910F
:1023B000811126C36E167F06D1F7C1CF0E94A12FCF
:1023C0000E94EF2A0E94F8030E94651A81110E9460
:1023D000252AEFE7F2E0A8E7B2E0E12CF12C9E2DF0
:1023E00091908D91892509F49FC0B12CAA24A394C2
:1023F000282F2A2109F493C0B9A29AA39A2081E038
:1024000009F480E08BA30E94312A8160782F9DA37C
:102410008CA349A15AA16BA18DA10E945003F70181
:10242000E858FD4F8081A826A082911010C0F701C6
:10243000EE0FFF1FEE0FFF1FEA59FE4FEB0DF11DD0
:1024400080818F3F21F0382E9924939401C0912CE4
:10245000E92CF12C8091D501D701A80FB11D199756
:102460009CF15601AE18BF08B7016F5F7F4F6B52EA
:102470007E4FA50186ED91E00E94C932B701675FEA
:102480007F4F6B527E4FA5018EED91E00E94C932C5
:10249000A501440F551FB701660F771F675E7F4F79
:1024A0006B527E4F8EEE91E00E94C932B7016F5E93
:1024B0007F4F6B527E4FA50186EE91E00E94C9329C
:1024C00088E089198093D5018091D50190E0A32DF2
:1024D000B0E09D01220F331F22583E4FAA0FBB1FB1
:1024E000BD0161587E4F41E0480F9915A8F490E076
:1024F000FC01EB52FE4FD9015C915183DB015C91F1
:102500005187318A880F991FFC01EB52FE4F128EC2
:10251000118E91E0842FE7CF8093D5011DC0B39435
:10252000AA0C24E0B21264CF3FEFE31AF30A46E0AC
:10253000E416F10409F053CF8FEF8EA38FA318A6F2
:102540000E94312A8160782F9AA789A74EA15FA1A6
:1025500068A58AA50E9450030E94E30A86E0E3E88A
:10256000F3E0D80101900D928A95E1F7E0908503A0
:10257000B0908603A0908703F090880310928503A3
:10258000109286031092870310928803E11003C013
:10259000BB2009F451C080918103909182030E9475
:1025A000162A9C0190917D03992309F448C2253194
:1025B000310508F441C09F3F19F09F5F90937D0360
:1025C000EE2061F00E9411261E1414F491E001C067
:1025D0009FEF899F802D112480938503BB2061F09C
:1025E0000E9411261B1414F491E001C09FEF899FF3
:1025F000802D112480938603309185033323E1F0ED
:10260000209186032223C1F045EB3403C00111243D
:10261000992319F09093850303C081E0809385038B
:1026200035EB2303C0011124992319F090938603FD
:1026300003C081E080938603A11003C0FF2009F44A
:1026400051C080917F03909180030E94162A9C01C3
:1026500090917C03992309F4F7C12135310508F4E1
:1026600041C09F3F19F09F5F90937C03AA2061F0C7
:102670000E94EF251A1414F491E001C09FEF899F86
:10268000802D112480938703FF2061F00E94EF25A5
:102690001F1414F491E001C09FEF899F802D112435
:1026A00080938803309187033323E1F020918803DE
:1026B0002223C1F045EB3403C0011124992319F002
:1026C0009093870303C081E08093870335EB230356
:1026D000C0011124992319F09093880303C081E06D
:1026E000809388038091850381110BC080918603BC
:1026F000811107C080918703811103C080918803F5
:1027000081110E948C26EB82BC82AD82FE8286E023
:10271000F801A3E8B3E001900D928A95E1F70E94D9
:10272000EF2A90917E02891721F080937E020E9409
:10273000F80380912903843009F0F8CD83E0809379
:10274000E9008091E80082FFF1CD8091E80085FFEB
:1027500021C00E94AF2781111BC080E2E82EF12C1E
:10276000580109C08091F100D5018D935D01B1E060
:10277000EB1AF10869F08091E80085FDF3CF8091B4
:10278000E8008B778093E8000E94AF27882399F3B5
:1027900091E001C090E08091E8008B778093E800A1
:1027A000992309F4C3CDE9818E2F90E0FC01319784
:1027B000E331F10508F0FAC0E956FF4F0C94AF324F
:1027C0001A8289E05FC08A81823009F42FC1833088
:1027D00051F0813009F0EAC00E94252A9B838C8346
:1027E0007D836E83E5C080917F028B838091800220
:1027F0008C83809181028D83809182028E8380916F
:1028000083028F83809184028887D2C08A8182303C
:1028100009F0CCC06B817C818D819E810E94B53294
:102820000E94832DC5C04C816B818A810E94502DEE
:102830009D8303C1AD80BE80BA24AB24BA248C81B1
:10284000EB809A81E8E0EE9E70011124F0E39F9FF7
:10285000E00CF11C1124E80EF11CE80EF11C6B2DAC
:10286000C70187960E9414326A2DC70188960E947C
:1028700014329EC00E941C2D9BC080E152C083E098
:102880008A8389E18B8394C0EA80FB80FE24EF2455
:10289000FE248C80912C5801C70189519F4F9501CE
:1028A000201B310B2815390508F082C029E1E216FA
:1028B00023E0F20630F40E94F631D50114968C9391
:1028C00002C0F5011482FFEFEF1AFF0A2FEFA21AE0
:1028D000B20AE2CFEA80FB80FE24EF24FE248C8043
:1028E000912C5801C70189519F4F9501201B310B35
:1028F0002815390508F05CC039E1E31633E0F3062A
:1029000028F4D50114966C910E941432BFEFEB1A93
:10291000FB0AEFEFAE1ABE0AE5CF0E940C2D48C0AD
:1029200084E08A8345C0EA80FB80FE24EF24FE24F5
:102930008C80912C5801C70187969501201B310B83
:1029400028153905A8F5F0ECEF16F10430F40E94D3
:10295000F631D50114968C9302C0F5011482FFEF75
:10296000EF1AFF0A2FEFA21AB20AE5CFEA80FB8026
:10297000FE24EF24FE248C80912C5801C7018796F9
:102980009501201B310B2815390590F430ECE31626
:10299000F10428F4D50114966C910E941432BFEF13
:1029A000EB1AFB0AEFEFAE1ABE0AE8CF8FEF89836E
:1029B00080912903843009F0B9CC8091E9008F70AF
:1029C0002091EC00922F917020FD90E8F92EF82ACA
:1029D00082E08093E9008091E80080FF0CC040E035
:1029E00050E060E270E0C8010E941C1E8091E80087
:1029F0008E778093E8008F2D8F708093E90096CCBE
:102A0000E9BCF9BC09B400FEFDCF8091D8008F7DF0
:102A10008093D8008091E00082608093E0008091F4
:102A2000E00081FDFCCF0E94A12F89CC86E290E0DE
:102A30000E94F6311B821C821D828E83B9CF2B30FF
:102A4000310508F0BACDF8CD2B30310508F00BCEAA
:102A500049CE80E008959091940392FF0DC0282FF5
:102A60002871283019F4877F846006C0282F2471CC
:102A7000243011F48B7F886093FF0DC0282F2871BC
:102A8000283119F4877E846106C0282F24712431EF
:102A900011F48B7E88612091950320FF0DC0382FA3
:102AA0003871383019F4877F816006C0382F317152
:102AB000313011F48E7F886021FF0DC0282F2871DE
:102AC000283119F4877E816106C0282F21712131B8
:102AD00011F48E7E886194FD877E0895F894E82F26
:102AE000E295EF70F0E031A1282F2F7081E090E0A7
:102AF00001C0880F2A95EAF7982F9095932391A308
:102B000092A1892B82A378940895CF93DF93823882
:102B1000910569F1B0F48133910509F46FC048F46F
:102B20008932910509F465C08A32910509F46BC0B8
:102B30008AC08533910509F457C089339105B9F0EE
:102B400082C0833E910571F138F4803E9105B1F069
:102B5000823E910511F177C0863E9105B9F1873E1D
:102B60009105C9F1843E910509F06DC024C0209102
:102B7000940320FD53C021FD51C065C08091940392
:102B800080FD46C08091950380FF48C080919403EA
:102B900084FD50C183EE90E04FC18091940382FF89
:102BA0003AC0F4CF8091940382FD35C080919503A3
:102BB00080FD34C0EBCF8091950381FF35C08091BB
:102BC000940384FD37C187EE90E036C18091940371
:102BD00083FF27C0F4CF8091940383FD22C08091AE
:102BE000950381FD21C0EBCF8091940385FD1FC02B
:102BF00021C08091940385FD1DC019C0809194036C
:102C000086FD1BC01DC08091940386FD19C015C0B0
:102C100089E390E011C182EE90E00EC180EE90E079
:102C20000BC186EE90E008C184EE90E005C189E218
:102C300090E002C185E390E0FFC08AE290E0FCC032
:102C400081E390E0F9C0811531E5930708F069C090
:102C5000811540E59407F0F09C0174E036952795C6
:102C60007A95E1F7922F9370482F437021E030E07E
:102C700002C0220F331F4A95E2F73C68392B982F88
:102C80009F709695969540E2949FC0011124822BE7
:102C9000932BD2C0883E910568F5803E910508F0DF
:102CA000CBC0883A9105B8F4853A910548F0855A29
:102CB000E82FF0E0EA5DFE4F808190E09064BCC0B8
:102CC0008130910509F4B3C008F4B4C08430910593
:102CD00008F4B0C0B1C08F3B910508F0ABC0885A72
:102CE000E82FF0E0EE0FFF1FE75DFE4F808191813E
:102CF0009464A2C0811520E2920758F4811531E056
:102D0000930708F099C0803F910508F493C090653F
:102D100093C0811540E4940708F48CC09F70906ABA
:102D20008BC0811525E5920708F042C0811534E576
:102D3000930728F0982F8827846F906A7DC08115AB
:102D400043E59407B0F09C012370332741E050E045
:102D500002C0440F551F2A95E2F7282F2695269585
:102D600080E2289F90011124CA01822B932B9A683C
:102D700063C0811522E5920728F4982F8827816F78
:102D8000906A5AC09C012370332741E050E002C092
:102D9000440F551F2A95E2F7282F2695269580E2A5
:102DA000289F90011124CA01822B932B9C6844C058
:102DB000EC01811539E59307A8F48115984528F0B1
:102DC0009C2F8827806F906A37C0C11586E5D80789
:102DD00088F58C2F0E942B158F7190E0982F8827F3
:102DE00090622AC081152AE5920790F48C2F8F708B
:102DF0000E942B1594E0D695C7959A95E1F7CF7070
:102E0000D0E0DC2FCC27D0699E01282BC90114C04B
:102E100090568115904270F48D2F8F710E942B1562
:102E2000282F2F71CE0199279062922B05C081E047
:102E300090E002C080E090E0DF91CF910895CF93C1
:102E400084E090E00E94F631C82F82E290E00E9478
:102E5000F6312C2F30E0A901582BCA01CF910895EB
:102E600080E090E00E94FE31893E9E4F11F40C9468
:102E7000B42D80E0089569EE7EEF80E090E00E943E
:102E8000323260E082E090E00E94143260E083E041
:102E900090E00E9414321092010360E084E090E020
:102EA0000E94143260E082E290E00E94143260E0FE
:102EB00085E090E00E94143260E086E090E00E949D
:102EC00014326FEF87E090E00E94143240E050E04F
:102ED000BA0188E090E00E94263260E08DE090E048
:102EE0000E94143240E050E0BA0188E190E00E9474
:102EF000263260E087E190E00E94143240E050E02A
:102F0000BA018CE190E00E94263260E070E080E23D
:102F100090E00E94323240E050E0BA0188E190E057
:102F20000E94263280E00E94872D0E94A52D40E05D
:102F300050E0BA018FE090E00E94263240E050E07D
:102F4000BA0183E190E00C94263280910003811154
:102F500010920003089580959091FF028923809339
:102F6000FF0208959091FF028091FE02982B9093AA
:102F70008502809100038823D9F0892B80938502F4
:102F800080911201882331F08091940387FF02C061
:102F90008EE101C086E0E7E8F2E090E0815028F0A1
:102FA00021912223D9F39F5FF9CF91110E94A51798
:102FB00040E250E06EED72E085E892E00E94BC32A3
:102FC000892B21F180E2E5E8F2E0AEEDB2E001907C
:102FD0000D928A95E1F7E0918B03F0918C03309785
:102FE000A9F080911201882359F08091940387FF02
:102FF00007C0809185028093860286E080938502D7
:103000000280F381E02D85E892E0099408952091F3
:10301000DD02809582238093DD02982F977099F4CA
:1030200030E0482F082E000C550B2417350759F0B7
:103030009091950392FD07C08595859585950E9491
:10304000662F1092DD020895CF93C0919503C2FBC5
:10305000992790F9981799F080FBC2F9C0939503CE
:103060006091940384E090E00E9414326C2F82E21D
:1030700090E00E94143282E0CF910C940718CF9117
:1030800008958091DC029091AB02891719F08F5F4F
:103090008770FBCF08950F931F93CF93DF93809199
:1030A000AA0282958F7009F05DC08091A7028823E3
:1030B00009F458C08091DC021091AB026091A50226
:1030C0007091A602C091A802D091A90291E06F3F31
:1030D00009F090E0292F06E0811709F443C02097FA
:1030E00021F07F3F21F030E003C031E001C0322FFA
:1030F00090E030FD34C0089FF001099FF00D1124CD
:10310000DF01A455BD4F11963C911197371327C08D
:103110003C91361324C012963C91129731111FC076
:1031200013964D915C9114974C1B5D0B483C5105D7
:10313000B0F48091AA028F7080618093AA02EF544C
:10314000FD4F80818F708061808385EA92E00E94CC
:10315000FE03DF91CF911F910F910C9441180196BE
:103160008770BACFDF91CF911F910F910895CF93C0
:10317000DF93EC010E94DC2EBE010E94762D0E949E
:103180008515DF91CF9108959F92AF92BF92CF9214
:10319000DF92EF92FF920F931F93CF93DF93CDB700
:1031A000DEB761970FB6F894DEBF0FBECDBF8C01BE
:1031B00085E0F801DE011D9601900D928A95E1F7F8
:1031C000F801E2809091A5026091A6024091A802C8
:1031D0005091A9024115510531F06F3F31F481E062
:1031E0009F3F19F403C081E001C080E0F82FF17027
:1031F0009F2E80FD1AC1F80130812181C380D480C7
:1032000085EAA82E82E0B82EF090A702F601E41B12
:10321000F50BFF2009F4C6C08091AA02E83CF10535
:1032200008F091C0482F407F09F050C0621311C0D0
:1032300093130FC0FE2CE1100CC08F70806180933F
:10324000AA02C5010E94FE038091AA02F8018583AB
:1032500029C1CD2831F02F3F31F481E03F3F19F4EF
:1032600003C081E001C080E080FD03C081E08E25C5
:1032700002C080E090E0F82FF170FF2E80FF1CC0AC
:103280008091DC024091AB0256E0841709F4E8C05B
:1032900090E0589FF001599FF00D1124E455FD4F27
:1032A0006181261306C06081631303C06281E61248
:1032B00003C001968770E9CFFE2CEE2009F4F2C01E
:1032C0008091AA0281608093AA0249C0621306C05D
:1032D000931304C0E11002C0F80186C0C8010E9427
:1032E000812F882351F1EE2041F12091AA02822FF3
:1032F00082958F7090E0029774F08091A502909172
:10330000A60298878F831986DB86CA862C87CE0112
:1033100007960E94FE0386E0F801A5EAB2E001905C
:103320000D928A95E1F70E944B180AC06217C9F006
:10333000C8010E94812F81111EC0C8010E94FE0396
:10334000FF24F394AFC0482F407F81F785EA92E0D5
:103350000E94FE0386E0F50111928A95E9F7F12CAF
:10336000A1C09313E5CFE110E3CFF8018583C80135
:103370000E94FE0354C0EE2001F32091AA02822F86
:1033800082958F7090E0029734F28091A50290911F
:10339000A6029A8389831B82DD82CC822E83CE0192
:1033A0000196B7CFE83CF105D0F5FE2CEE2029F2CE
:1033B000621327C0931325C02091AA0220FD18C0D4
:1033C000822F82958F70482F50E04115510581F072
:1033D000F80125834F30510541F08F5F982F92956A
:1033E000907F822F8F70892B8583C8010E94FE03F6
:1033F00086E0F801A5EAB2E001900D928A95E1F726
:1034000051C0C8010E94812F811185CF8091AA02ED
:1034100081608093AA02C8010E94FE0343C086E037
:10342000F50111928A95E9F73DC0EE2009F485CFA8
:10343000C8010E94812FF82E882309F47ECF86E0F0
:10344000F801A5EAB2E001900D928A95E1F780912A
:10345000A5029091A6020E94B7180E944B1822C0A4
:103460003D872E878D859E850E94B718292F22952E
:103470002F70223028F49F7039F0811105C00BC0E5
:10348000243028F49F7049F4805E883020F0C80111
:103490000E94FE039F2CF92C05C0F8019581907FB6
:1034A00099F7F9CF8F2D61960FB6F894DEBF0FBE56
:1034B000CDBFDF91CF911F910F91FF90EF90DF90E3
:1034C000CF90BF90AF909F9008957F928F929F92E0
:1034D000AF92BF92CF92DF92EF92FF920F931F9322
:1034E000CF93DF9300D000D000D0CDB7DEB7AE01D0
:1034F0004F5F5F4F7A0186E0FA0111928A95E9F7F2
:103500000CE111E06A0182E2A82E81E0B82E882445
:103510008394912CF80180818F3F09F441C0F89485
:10352000E82FE295EF70F0E021A18F70A40102C0B6
:10353000440F551F8A95E2F7CA01922F982B91A349
:1035400092A18095892382A3789400C0E2E2F1E001
:10355000712C31E021912F3F89F0A22FA295AF70FD
:10356000B0E090968C9190E02F7002C09595879571
:103570002A95E2F780FD02C0832F01C080E0782AFF
:10358000330F51E0E632F50729F7F80180818F3FCC
:1035900011F00E946E15F0EAFA95F1F7F6017082CB
:1035A0000F5F1F4FFFEFCF1ADF0AA016B10609F019
:1035B000B1CF46E050E0B70181E792E00E94BC3213
:1035C00011E0009709F410E0892B89F086E0F701FB
:1035D000A1E7B2E001900D928A95E1F781E0809336
:1035E00004030E94312A9093030380930203809185
:1035F00004038823A1F080910203909103030E94A9
:10360000162A059760F0E1E7F2E0AFE7B2E08191BA
:103610008D9342E0E737F407D1F710920403812F2E
:1036200026960FB6F894DEBF0FBECDBFDF91CF91C7
:103630001F910F91FF90EF90DF90CF90BF90AF90D0
:103640009F908F907F90089590917603937059F09A
:103650008093770360937803409379038091750397
:103660008160809375030895909176039370A1F023
:10367000811102C0946007C08B3210F0986A03C0B9
:10368000880F880F982B90937603109216018091E3
:103690007503816080937503089580917403982F5A
:1036A0009670963011F4886001C0877F0C94602F6B
:1036B0002F923F924F925F926F927F928F929F9242
:1036C000AF92BF92CF92DF92EF92FF920F931F9330
:1036D000CF93DF93CDB7DEB727970FB6F894DEBF51
:1036E0000FBECDBF282E4B0180911301282F220F32
:1036F000220F280F2E83122F1B5F1A3108F019E1B9
:1037000030914B0339839E81911708F07CC08E81E4
:10371000682E712CF301E055FE4F908180911401C9
:10372000892309F46CC03090770340907803522CC1
:103730001F82C301880F991FDC01A258BE4FBB83B3
:10374000AA83C301880F991FFC01E158FE4FFD8336
:10375000EC83F9815F1608F040C0E52CF12CAA81BA
:10376000BB81CC90D12CF701E55BFC4F8181C81A5D
:10377000D108AC81BD81AC90B12C8185A81AB1086B
:10378000CC9C9001CD9C300D300D1124AA9CC00121
:10379000AB9C900D900D1124820F931F0E947124F9
:1037A000082F60917A0321E0620F08F46FEFF701B0
:1037B000EE0FFF1FE55BFC4F818D928D0E94CB24A5
:1037C0007C019501A601632D742D8F81F40109956B
:1037D000362E472E8F835394BCCF209179038F814F
:1037E000382F329F312D1124832F632D742D0E9489
:1037F000E824462F282F672FC3010E94FA238E81C9
:103800008F5F8E8380CF81E0193108F080E02796AA
:103810000FB6F894DEBF0FBECDBFDF91CF911F91E1
:103820000F91FF90EF90DF90CF90BF90AF909F905F
:103830008F907F906F905F904F903F902F90089562
:10384000CF92DF92EF92FF920F931F93CF93DF936C
:103850008C0180911301C82FCC0FCC0FC80FD5E07D
:10386000DC0FDA3108F0D9E120917A0331E0230F3F
:1038700008F42FEF30E040E050E06FEF7FEF80E0A2
:1038800090E00E9438327901CD1708F041C0CC2E6B
:10389000D12CF601E055FE4F9081809114018923CF
:1038A000A9F190914B03915097FD15C0492F092E16
:1038B000000C550BFA01E55BFC4F8189C813F3CF6F
:1038C000440F551FFA01E55BFC4F218D328D2E15FB
:1038D0003F0548F701C0970160917A0341E0640F0A
:1038E00008F46FEFC9010E94CB24AC01609177030B
:1038F0007091780380917903F80109950E94E8247A
:10390000462F282F672FC6010E94FA23CF5FBCCF16
:1039100081E0D93108F080E0DF91CF911F910F91C4
:10392000FF90EF90DF90CF900895DF92EF92FF929B
:103930000F931F93CF93DF938C0180911301C82FB6
:10394000CC0FCC0FC80FD5E0DC0FDA3108F0D9E18D
:1039500060917A036695669521E0620F08F46FEF37
:1039600080914703909148030E94CB24D82ECD1715
:10397000F0F4EC2EF12CF701E055FE4F9081809190
:103980001401892391F060917703709178038091FD
:1039900079032D2D4C2FF80109950E94E824462F1C
:1039A000282F672FC7010E94FA23CF5FE0CF81E065
:1039B000D93108F080E0DF91CF911F910F91FF90F6
:1039C000EF90DF9008959F92AF92BF92CF92DF92D7
:1039D000EF92FF920F931F93CF93DF936C0180912F
:1039E0001301C82FCC0FCC0FC80F15E01C0F1A31D4
:1039F00008F019E160917A03669566958091470316
:103A0000909148030E94CB24D82F80E48D0F0E9410
:103A1000172490E8F92EF80E8D2F0E94172420E825
:103A2000922E980EC11700F5AC2EB12CF501E05581
:103A3000FE4F9081809114018923A1F0609177035A
:103A40007091780380917903ED2E0C2F292D4F2D45
:103A5000F60109950E94E824462F282F672FC501FB
:103A60000E94FA23CF5FDECF81E0193108F080E0B9
:103A7000DF91CF911F910F91FF90EF90DF90CF904A
:103A8000BF90AF909F9008956F927F928F929F9278
:103A9000AF92BF92CF92DF92EF920F931F93CF938B
:103AA000DF933C0180911301C82FCC0FCC0FC80FBE
:103AB000D5E0DC0FDA3108F0D9E160917A03669540
:103AC00080914703909148030E94CB24182FCD1773
:103AD00008F044C08C2E912CF401E055FE4F9081EB
:103AE000809114018923C1F1F401EE0FFF1FE25808
:103AF000FE4FC080D12C80E7C81AD108F401EE0F28
:103B0000FF1FEA59FE4FA18CB12CE0E2AE1AB108BA
:103B1000CC9C9001CD9C300D300D1124AA9CC0018D
:103B2000AB9C900D900D1124820F931F0E94712465
:103B3000082F609177037091780380917903E12ECB
:103B40009501A601F30109950E94E824462F282F2C
:103B5000672FC4010E94FA23CF5FB9CF81E0D9312A
:103B600008F080E0DF91CF911F910F91EF90DF90EF
:103B7000CF90BF90AF909F908F907F906F9008955F
:103B8000CF92DF92EF92FF920F931F93CF93DF9329
:103B90006C0180911301C82FCC0FCC0FC80FD5E05A
:103BA000DC0FDA3108F0D9E160917A0366958091F3
:103BB0004703909148030E94CB24182FCD1778F526
:103BC000EC2EF12CF701E055FE4F9081809114010D
:103BD000892319F1F701EE0FFF1FEA59FE4F218DDE
:103BE00030E020523109F701EE0FFF1FE258FE4F7F
:103BF000408150E0405751096091770370917803FC
:103C000080917903012FF60109950E94E824462F3F
:103C1000282F672FC7010E94FA23CF5FCFCF81E003
:103C2000D93108F080E0DF91CF911F910F91FF9083
:103C3000EF90DF90CF900895EF92FF920F931F9334
:103C4000CF93DF937C018B010E94AF27811119C0B4
:103C5000E70101151105A1F08091E80085FD0AC07A
:103C60008091E8008E778093E8000E94AF27882338
:103C700081F307C089918093F10001501109E9CFC8
:103C800080E0DF91CF911F910F91FF90EF90089509
:103C9000E3E3F3E08083618324E630E042E050E038
:103CA000BF018CEE0C9446311F93CF93DF93CDB7B9
:103CB000DEB7AA970FB6F894DEBF0FBECDBFEBE21A
:103CC000F3E083E393E02091F10021938E179F07A7
:103CD000D1F780912C03833009F463C030F4813034
:103CE00071F0823009F49DC0B4C08A3009F489C0F3
:103CF0008B3009F46EC0893009F0ABC020C08091D0
:103D00002B03813A09F0A5C08091E800877F80935A
:103D1000E80080912F0390913003892B21F460E219
:103D200087E093E003C060E080E090E070E00E94F4
:103D30006E298091E8008B778093E8008AC080919B
:103D40002B03813209F085C080912F0390913003BD
:103D5000009719F0029709F07CC08091E800877FF6
:103D60008093E8008091E80082FD05C080912903DE
:103D70008111F8CF6EC02091F3008091F20090E0A5
:103D8000922B029731F48091F100813011F086304E
:103D900021F48091F100809306038091E8008B77F5
:103DA00054C080912B03813A09F053C080912F03B6
:103DB00090913003892B09F04CC08091E800877FF7
:103DC0008093E8008091E80080FFFCCF8091120191
:103DD00037C080912B038132E1F580912F039091C0
:103DE0003003892BB1F58091E800877F8093E8004C
:103DF0000E94E22780912D03809312010E94A12F3F
:103E000028C080912B03813221F58091E800877FC3
:103E10008093E8000E94E22780912E03809305039F
:103E200018C080912B03813AA1F48091E800877F2C
:103E30008093E8008091E80080FFFCCF809105032B
:103E40008093F1008091E8008E778093E8000E94D3
:103E5000E2278091E80083FFDFC180912B039091DE
:103E60002C03492F50E04A30510508F0D5C1FA0122
:103E7000E655FF4F0C94AF32803821F0823809F0BC
:103E8000CBC108C08091270390912803992389F022
:103E900082600FC080912F038F70873008F0BCC103
:103EA0008093E9008091EB0085FB882780F91092D0
:103EB000E9009091E800977F9093E8008093F100EB
:103EC0001092F10070C1282F2D7F09F0A5C1882321
:103ED00019F0823061F0A0C180912D03813009F08A
:103EE0009BC1933009F080E0809328032EC080911D
:103EF0002D0381112AC080912F038F702FEF280F7F
:103F0000263008F089C18093E9002091EB0020FF62
:103F10001CC0933021F48091EB00806214C090911A
:103F2000EB0090619093EB0021E030E0A90102C02A
:103F3000440F551F8A95E2F74093EA001092EA0079
:103F40008091EB0088608093EB001092E9008091F3
:103F5000E800877F8093E8000E94E2275DC181111D
:103F60005BC110912D031F778091E3008078812B36
:103F70008093E3008091E800877F8093E8000E94AF
:103F8000E2278091E80080FFFCCF8091E300806809
:103F90008093E300111102C082E001C083E08093AE
:103FA00029033AC18058823008F036C120912D0390
:103FB00030912E032C3D53E0350779F583E08A8359
:103FC0008AE289834FB7F894DE01139620E03EE041
:103FD00051E2E32FF0E050935700E49120FF03C03B
:103FE000E295EF703F5FEF708E2F90E0EA3010F0B7
:103FF000C79601C0C0968D939D932F5F243149F7DA
:104000004FBF8091E800877F8093E8006AE270E00C
:10401000CE0101960E946E29B4C080912F03909129
:104020003003432F552743305105A9F068F4413040
:10403000510509F400C14230510509F0EDC08BE58E
:1040400090E0E0E3F3E04BC04132510529F1423208
:10405000510589F1E1C0C901992781309105A1F08D
:1040600058F0029709F0D8C0EDE9F3E0E4918E2F03
:1040700090E0EDE9F3E030C0EBEDF3E0E4918E2F5A
:1040800090E0EBEDF3E028C0E5ECF3E0E4918E2F57
:1040900090E0E5ECF3E020C08330910508F0BCC06F
:1040A000880F991FFC01E05AFE4F0190F081E02D2E
:1040B00089E090E014C08330910508F0ADC0FC01A8
:1040C000EE0FFF1FE65AFE4F0190F081E02DDC015C
:1040D000A95ABE4F8C9190E0009709F49DC02091A1
:1040E000E800277F2093E8002091310330913203CC
:1040F0002817390708F4C90140E0009789F1209199
:104100002903222309F43DC02530D9F12091E8008C
:1041100023FD37C02091E80022FD2FC02091E80048
:1041200020FFEBCF4091F3002091F20030E0342BE0
:10413000009759F02830310540F444914093F10044
:10414000319601972F5F3F4FF3CF41E02830310583
:1041500009F040E02091E8002E772093E800CDCFD1
:104160004111CDCF0AC080912903882351F08530B9
:1041700041F08091E80083FD04C08091E80082FF57
:10418000F2CF8091E8008B778093E80045C08038BB
:1041900009F042C08091E800877F8093E800809119
:1041A0002A038093F1008091E8008E77D3CE8111AD
:1041B00033C080912D0390912E039927029764F5C7
:1041C0008091E800877F8093E80010912D03109381
:1041D0002A030E94E227111106C08091E30087FDA7
:1041E00002C081E001C084E08093290342E061ECD9
:1041F00081E00E94012842E261EC84E00E940128F3
:1042000042E261EC82E00E94012842E260EC83E03D
:104210000E940128809129038091E80083FF10C04B
:104220008091E800877F8093E8008091EB008062B6
:104230008093EB0005C082E190E0EBE8F3E04FCF24
:10424000AA960FB6F894DEBF0FBECDBFDF91CF9117
:104250001F910895EF92FF920F939701201B310950
:104260002F3F310519F010F02FEF30E02095382F57
:10427000320F08F43FEF832F0F91FF90EF900895D6
:10428000EF92FF920F939701201B31092F3F3105C9
:1042900019F010F02FEF30E0322F3095482F430FF8
:1042A00008F44FEF842F620F0F91FF90EF90089565
:1042B000EF92FF920F93972F093438F4B701601BE8
:1042C00071096F3F710519F010F06FEF70E0485FF2
:1042D0005F4F4131510540F0A901485F5F4F4131C7
:1042E000510510F06FEF70E06095482F460F08F40D
:1042F0004FEF842F37FF02C02D5F3F4F3595279535
:104300003595279560917703620F792F0F91FF9074
:10431000EF900895EF92FF920F93E00EF11CF901D8
:1043200037FF03C0F195E195F10924E0EE0FFF1F7F
:104330002A95E1F7EF3FF10519F014F0EFEFF0E007
:104340009A0157FF03C031952195310994E0220F5E
:10435000331F9A95E1F72E173F070CF4F901EE0D84
:10436000FF1DEF3FF10519F010F0EFEFF0E02E2FF9
:104370002095382F320F08F43FEF832F0F91FF90D5
:10438000EF900895EF92FF920F93970195E0099FA8
:10439000200D311D11242F3F310519F010F02FEFA2
:1043A00030E02095382F320F08F43FEF832F0F9124
:1043B000FF90EF90089522E8241B08F420E0620F9C
:1043C00008954095282F429F412D1124842F089550
:1043D000E42FF0E0EE0FFF1FE258FE4F9081921B9A
:1043E00097FD9195292F38E1239F212D1124620FEC
:1043F00008950F931F9310E0F801EE0FFF1FE2588E
:10440000FE4F9081905797FD9195000F111FF80175
:10441000EA59FE4FE18DF0E0B097DF01AA0FBB1F14
:104420008D010E0F1F1F2003D001219FB00D1124FD
:10443000E8E3F0E0E91BF10997FDF3959F01220FF6
:10444000331F89010E0F1F1F40039001419F300D44
:1044500011242A0F3B1F37FF02C021583F4F220F64
:10446000232F221F330B620F1F910F9108950F937B
:104470001F93522F10E0F801EE0FFF1FEA59FE4F75
:10448000E18DF0E0B097EE0FFF1F9F015203D001C6
:10449000539FB00D1124000F111FF801E258FE4F79
:1044A000008110E000571109000F111F4003900117
:1044B000419F300D11242A0F3B1F37FF02C02158A6
:1044C0003F4F220F232F221F330B620F1F910F919B
:1044D00008950F931F93522F10E0F801EE0FFF1F66
:1044E000EA59FE4FE18DF0E0B0979F015203D001F1
:1044F000539FB00D1124000F111FF801E258FE4F19
:10450000008110E00057110940039001419F300DD8
:1045100011242A0F3B1F37FF02C021583F4F220FA3
:10452000232F221F330B620F1F910F910895EF92DB
:104530000F931F9393E0099F800111241595079510
:104540006E2D600F1F910F91EF900895A22F50E0F4
:10455000FA01EE0FFF1FEA59FE4F918D905297FD21
:104560009195440F551FFA01E258FE4F3081232FD9
:1045700030E02A1B3109290F311D97FD3A95620F52
:104580000895E42FF0E0EE0FFF1FEA59FE4F618D12
:10459000621B0895E42FF0E0EE0FFF1FE258FE4F7C
:1045A0006081621B0895622F0895E42FF0E0EE0F02
:1045B000FF1FE258FE4F408134EE439F412D1124EE
:1045C000E82FF0E050E0445E5F4FDA01A21BB10932
:1045D0009D01B7FF03C031952195310993E0220F6A
:1045E000331F9A95E1F7AF01421B530B9A0157FF16
:1045F00002C020E030E0582F259F212D1124822F6A
:104600000895E42FF0E0EE0FFF1FE258FE4F4081C7
:1046100034EE439F412D1124E72FF0E050E0445E3B
:104620005F4FDA01A21BB1099D01B7FF03C03195AD
:104630002195310993E0220F331F9A95E1F7AF01DD
:10464000421B530B9A0157FF02C020E030E0279F26
:10465000212D1124722F0895FC019B01009721F454
:1046600077FF2BC080E80895AC0197FF04C0442772
:104670005527481B590BB901640F751F37FD0CC036
:10468000241B350BC901A5E0880F991FAA95E1F7F6
:104690000E949B3280E20CC0CB0165E0880F991F1D
:1046A0006A95E1F7BA01621B730B0E949B3280E6A8
:1046B000861BF7FF03C08195089580E00895EF926F
:1046C0000F93CF93DF93D72FC82FC9010E19BA01CB
:1046D0000E942C23602F681B7D2F8C2FDF91CF91A0
:1046E0000F91EF9008950F93CF93DF93D72FC82F9B
:1046F000C901BA010E942C23682F600F7D2F8C2FD7
:10470000DF91CF910F910895EF920F931F93CF9365
:10471000DF93D62FC72F182FC9010E19010FBA0129
:104720000E942C23081B202F219F212D1124822F32
:104730006D2F7C2FDF91CF911F910F91EF900895F6
:10474000EF920F931F93CF93DF93D62F172FC82F7E
:10475000C9010E19070FBA010E942C23702F781B74
:10476000719F712D11246D2F8C2FDF91CF911F918F
:104770000F91EF900895FF920F931F93CF93DF93C4
:10478000F62ED72F182FC901C12FC01BBA010E94C6
:104790002C23982F990F890FC81B2C2F219F212D77
:1047A0001124822F6F2D7D2FDF91CF911F910F91BB
:1047B000FF900895FF920F931F93CF93DF93F62EF0
:1047C000172FD82FC901C72FC01BBA010E942C2355
:1047D000982F990F890F7C2F781B719F712D1124B1
:1047E0006F2D8D2FDF91CF911F910F91FF90089525
:1047F0000C945E2B0C94172BE6E7F3E089E480839E
:104800008091190190911A01A0911B0181839283DB
:10481000A3838FE784838FEF858346E050E06CE1CC
:1048200070E0CF010E940432109275030895482F62
:10483000982F46FD9095E92FEF739F7046FD9F5F7F
:10484000E295EF70EE0FF0E0E753FE4F2181299FD4
:10485000802D212D112482958F702295207F822B0F
:104860003081982F930F892F47FD819580580895A7
:104870000F931F93CF93DF93D62F072F182FC42F9B
:10488000822F0E941724EC2FF0E0EE0FFF1FE2585A
:10489000FE4F90819058890F87FD8195880F682F72
:1048A0002CE0629F612D11246D0F702F812FDF91FD
:1048B000CF911F910F9108954091170150911801C8
:1048C00025E038E0429FC001439F900D529F900D1C
:1048D0001124875E994C9093180180931701890FDA
:1048E0000895BC018230910508F40895613E8EE17F
:1048F000780748F49B0195E0369527959A95E1F75E
:1049000048E0420F01C04FEF91E0242F30E0290F23
:10491000311D35952795229FF001239FF00DF00D55
:1049200011246E177F0718F44FEF420F04C02F3F7A
:1049300039F091E0920F491740F78FEF890F0895F2
:104940008FEF08950F93CF93DF93D72FC82F47FD95
:104950004195E8E3F0E0CF01841B910947FD939571
:10496000889FB001899F700D700D1124229FC00196
:10497000239F900D900D1124860F971F0E94712484
:10498000682F660F860F682F600F7D2F8C2FDF91A9
:10499000CF910F91089520E030E0869F212D969FC2
:1049A000200D311D1124C901089520917A0330E1B1
:1049B000230F08F42FEF60E1822F90E00E94CB24B8
:1049C000BC0188EB9BE00E946D3180E090E008958F
:1049D000CF92DF92EF92FF920F931F93CF93DF93CB
:1049E000F62E472FE82FF0E0711106C0E152FC4F80
:1049F0008491782F682F73C0272F30E0E152FC4F4D
:104A0000E491FE2F0E2F10E056E0659FC0011124A7
:104A1000CFEFD0E0BE010E946D315BEA5603C001CA
:104A2000579F900D11248F0D911D8F0D911D982F63
:104A3000990F980F7E01E21AF30AE09ED001E19EE1
:104A4000B00DF09EB00D11248B2F499FA0011124B1
:104A5000452F55277E01E41AF50AE09EA001E19E4C
:104A6000500DF09E500D11246E01C91AD108C29E3E
:104A70007001C39EF00CD29EF00C11242F2D332711
:104A8000C21BD30BC09F9001C19F300DD09F300D32
:104A90001124932F6230710591F048F4611571056E
:104AA000E1F061307105B9F49E2FE52F16C0643036
:104AB000710569F040F06630710579F00CC09E2FE9
:104AC000EB2F832F0AC0EB2F8F2F952F06C09B2F24
:104AD0008E2FE32F02C09B2F852F7E2F692FDF9112
:104AE000CF911F910F91FF90EF90DF90CF9008959D
:104AF000803F39F49091860397FF35C0109286036A
:104B000059C0813F29F4909186031916BCF32BC03C
:104B100090918503823F29F497FF25C01092850369
:104B200049C0833F19F41916CCF31DC09091870337
:104B3000893F29F41916BCF4109287033BC08A3FC1
:104B400019F497FF10C0F8CF8B3F39F49091880388
:104B500097FF09C0109288032DC08C3F21F49091DB
:104B600088031916BCF39CE0980F953080F421E07F
:104B700030E0A90102C0440F551F9A95E2F7CA011F
:104B800080959091840389238093840313C08D3F83
:104B900021F480917E038E7F0BC08E3F21F48091A3
:104BA0007E038D7F05C08F3F29F480917E038B7F2C
:104BB00080937E0380918503811106C080918603D6
:104BC000811102C010927D0380918703811106C07C
:104BD00080918803811102C010927C030895809116
:104BE0007E0380FD16C081FD16C082FD18C0809135
:104BF0007C03882391F0883290F428E0829FC001E2
:104C0000112468E270E00E949B32862F672B29F006
:104C100007C082E0089584E0089581E0089588E067
:104C2000089580917E0380FD14C081FD14C082FD33
:104C300016C080917D03882381F08E3180F420E5B9
:104C4000829FC00111246EE170E00E949B32862F8A
:104C5000089584E1089588E2089588E0089580E544
:104C60000895803F21F40E941126819504C0813F60
:104C700029F40E941126809386030895823F21F42F
:104C80000E941126819504C0833F29F40E941126B9
:104C9000809385030895893F19F40E94EF2505C08C
:104CA0008A3F31F40E94EF25819580938703089510
:104CB0008B3F21F40E94EF25819504C08C3F29F49D
:104CC0000E94EF258093880308959CE0980F95300B
:104CD00078F421E030E0A90102C0440F551F9A95F5
:104CE000E2F7CA0190918403892B8093840308958D
:104CF0008D3F21F480917E0381600BC08E3F21F4B3
:104D000080917E03826005C08F3F29F480917E03ED
:104D1000846080937E0308950E94312A2091850348
:104D2000211104C020918603222321F09093820355
:104D30008093810320918703211104C0209188036F
:104D4000222321F09093800380937F03E0918B03D3
:104D5000F0918C03309749F082E0809383030480C4
:104D6000F581E02D83E893E00994089508958091FA
:104D700006030895809396037093980360939703B6
:104D8000809129038430F9F48093E9008FEF9091AA
:104D9000E800815095FD06C095ED9A95F1F7000069
:104DA0008111F5CF8091E80085FF0DC040E050E013
:104DB00063E070E086E993E00E941C1E8091E800A9
:104DC0008E778093E8000895BC0184E00C94BA26A5
:104DD000BC0183E00C94BA2624E02093E9002FEF75
:104DE0003091E800215035FD06C035ED3A95F1F7D8
:104DF00000002111F5CF2091E80025FF0BC040E015
:104E000050E066E070E00E941C1E8091E8008E7702
:104E10008093E8000895CF93DF932091120122231D
:104E200039F02091940327FF03C060E224E002C020
:104E300068E021E02093E9002FEF3091E800215055
:104E400035FD06C035ED3A95F1F700002111F5CF9B
:104E50002091E80025FF1DC0EC0180911201811115
:104E600005C040E050E068E070E003C070E040E062
:104E700050E0CE010E941C1E8091E8008E77809346
:104E8000E80080E2FE01A7E0B3E001900D928A9570
:104E9000E1F7DF91CF9108951F920F920FB60F9215
:104EA00011242F933F934F935F936F937F938F932F
:104EB0009F93AF93BF93CF93DF93EF93FF93C091F3
:104EC000E900CF708091EC00D82FD17080FDD0E840
:104ED0001092E9008091F000877F8093F000789431
:104EE0000E94541E1092E9008091F0008860809327
:104EF000F000CD2BCF70C093E900FF91EF91DF91CF
:104F0000CF91BF91AF919F918F917F916F915F9161
:104F10004F913F912F910F900FBE0F901F901895BA
:104F2000E8EDF0E080818E7F80831092E2001092A5
:104F3000DA001092E100A0EEB0E08C9181608C93D9
:104F400080818F77808319BCA7EDB0E08C918E7F34
:104F50008C9380818F7E8083109299030895209195
:104F6000E4003091E50095E64091EC00842F8170DB
:104F700040FF23C08091E80080FD1DC0809129037F
:104F8000882399F0853099F08091EB0085FD11C060
:104F90004091E4005091E5002417350729F3915022
:104FA00011F09A01E1CF84E0089582E0089583E052
:104FB000089581E0089580E008954091E80042FF5F
:104FC000DDCF089580912B0387FF11C08091E80009
:104FD00082FD05C0809129038111F8CF11C0809115
:104FE000E8008B770BC080912903882349F08091DA
:104FF000E80080FFF8CF8091E8008E778093E8008A
:105000000895982F973068F59093E900981739F034
:105010007091EC002091ED005091F00003C0242F1E
:10502000762F50E021FD02C09F5FECCF3091EB0066
:105030003E7F3093EB003091ED003D7F3093ED00EB
:105040003091EB0031603093EB007093EC002093D3
:10505000ED005093F0002091EE0027FDE5CF80E0B9
:1050600008958F708093E90081E00895CF92DF92D8
:10507000EF92FF920F931F93CF93DF93C8EDD0E091
:1050800088818F7E8883E7EDF0E080818160808376
:1050900084E082BF81E08093990388818E7F88833A
:1050A00002EE10E0F80110821092DA0081EEC82EB4
:1050B000D12CF601108288818F778883888180685F
:1050C000888388818F7D888319BC10922903109270
:1050D0002A03109228031092270390EEE92EF12C58
:1050E000F70180818B7F808388818160888342E0A3
:1050F00060E080E00E940128F60180818E7F80833D
:10510000F801808181608083808188608083F701DD
:1051100080818E7F8083888180618883DF91CF91B9
:105120001F910F91FF90EF90DF90CF9008951F9205
:105130000F920FB60F9211242F933F934F935F93CB
:105140006F937F938F939F93AF93BF93EF93FF934F
:105150008091E10082FF09C08091E20082FF05C0DA
:105160008091E1008B7F8093E1008091DA0080FFE5
:105170002AC08091D80080FF26C08091DA008E7FFF
:105180008093DA008091D90080FF18C080E189BD4A
:1051900082E189BD09B400FEFDCF81E0809329033F
:1051A0008091990381110FC00E9490270E94362898
:1051B0008091E20084608093E20005C019BC1092E7
:1051C0002903109299038091E10080FF17C080911C
:1051D000E20080FF13C08091E2008E7F8093E200A6
:1051E0008091E20080618093E2008091D80080622B
:1051F0008093D80019BC85E0809329038091E10059
:1052000084FF30C08091E20084FF2CC080E189BD22
:1052100082E189BD09B400FEFDCF8091D8008F7D69
:105220008093D8008091E1008F7E8093E10080918F
:10523000E2008F7E8093E2008091E20081608093A3
:10524000E20080912A03882311F084E007C0809156
:10525000E30087FD02C081E001C083E08093290361
:10526000809129038091E10083FF27C08091E200B3
:1052700083FF23C08091E100877F8093E10082E07B
:105280008093290310922A038091E1008E7F8093FE
:10529000E1008091E2008E7F8093E2008091E20045
:1052A00080618093E20042E060E080E00E9401289B
:1052B0008091F00088608093F000FF91EF91BF91A2
:1052C000AF919F918F917F916F915F914F913F919E
:1052D0002F910F900FBE0F901F90189520913103C2
:1052E000309132032617370748F06115710539F4FC
:1052F0002091E8002E772093E80001C0B901FC015D
:1053000020E06115710579F1809129038823F1F17D
:105310008530F1F18091E80083FD3CC08091E80088
:1053200082FD2EC08091E80080FFEBCF2091F3003A
:105330008091F20090E0922B6115710551F0883058
:10534000910538F421912093F10061507109019683
:10535000F3CF21E0089709F020E08091E8008E77F4
:105360008093E800CECF2111CFCF0AC080912903CE
:10537000882361F0853061F08091E80083FD0AC0E8
:105380008091E80082FFF2CF80E0089582E00895E6
:1053900083E0089581E0089581E08093E00080E259
:1053A0008093D8001092C9008FE19EE40197F1F735
:1053B00000C0000087E090EBDC0180934A049093EA
:1053C0004B04A0934C04B0934D049CE088E10FB6CD
:1053D000F894A895809360000FBE90936000FFCF73
:1053E00078941F920F920FB60F9211248F939F9370
:1053F000AF93BF938091900390919103A0919203FA
:10540000B09193030196A11DB11D809390039093D9
:105410009103A0939203B0939303BF91AF919F9197
:105420008F910F900FBE0F901F9018959C014FB752
:10543000F8948091900390919103A0919203B09180
:1054400093034FBF821B930B08952FB7F89460917D
:1054500090037091910380919203909193032FBFD9
:1054600008952FB7F8948091900390919103A091A3
:105470009203B09193032FBF08951F920F920FB61E
:105480000F9211248F939F93AF93BF9380918F03BB
:10549000811113C08091900390919103A091920388
:1054A000B09193034196A11DB11D809390039093F9
:1054B0009103A0939203B0939303BF91AF919F91F7
:1054C0008F910F900FBE0F901F9018952091120191
:1054D0002223C9F02091940327FF15C0262F26957B
:1054E000269526952E31C8F4FC01E20FF11D677058
:1054F00081E090E001C0880F6A95EAF7809592817B
:10550000892382830895FC0106962281621301C0DB
:1055100012823196E817F907C1F708952091120118
:105520002223C1F02091940327FF14C0262F269533
:10553000269526952E3130F5FC01E20FF11D67709E
:1055400081E090E001C0880F6A95EAF79281892B8B
:1055500082830895FC0132962FEF30E04191641769
:1055600089F02F3F19F4411101C0232F3F5F3630DE
:10557000A9F72F3F39F0FC01E20FF11D27FDFA9545
:1055800062830895089520918D0330918E0328172A
:10559000390771F090938E0380938D03E0918B0314
:1055A000F0918C03309721F00084F185E02D09946F
:1055B00008952091890330918A032817390771F0E3
:1055C00090938A0380938903E0918B03F0918C037D
:1055D000309721F00680F781E02D09940895E0913D
:1055E0008B03F0918C03309721F00190F081E02D36
:1055F000099480E00895E6E7F3E0248130E1231B7D
:1056000008F420E024838091750381608093750302
:105610000895E6E7F3E0248130E1230F08F42FEF4B
:105620002483809175038160809375030895FF92B0
:105630000F931F93CF93DF9300D000D0CDB7DEB789
:105640008931910588F5122F042FF62EBC01660FC3
:10565000771F660F771F61527B4F44E050E0CE0109
:1056600001960E94DD31898183704A81282F30E0C4
:1056700050E9859FC001112482559C4FFC01E40F25
:10568000F11DB497F0824B81FC01E40FF11DB4973A
:1056900000834C81840F911DFC01B4971083F901A4
:1056A000E355FC4F81E080830F900F900F900F9097
:1056B000DF91CF911F910F91FF900895FF920F936B
:1056C0001F93CF93DF93182F062FF42EC0E0D0E066
:1056D0002F2D402F612FCE010E94172B2196C9310B
:1056E000D105B1F7DF91CF911F910F91FF900895F0
:1056F0000F931F93CF938091AD03811106C0109239
:10570000AD03CF911F910F9108950EEA13E0C4E20B
:10571000C0933303E4E3F3E0D8018D91819383E0F8
:10572000E434F807D1F724E630E041E150E063E3E8
:1057300073E08CEE0E944631C05F005F1F4FC43B98
:1057400039F7DDCF4F925F926F927F928F929F9247
:10575000AF92BF92CF92DF92EF92FF920F931F937F
:10576000CF93DF9300D000D0CDB7DEB70E948F304B
:105770006BE08DEF0E94481E60E08AE00E94481EA8
:105780008FE39CE90197F1F700C0000060E080E042
:105790000E94481E60E081E00E94481E60E086E0B2
:1057A0000E94481E60E08DEF0E94481E10E060E0FD
:1057B000812F0E94481E1F5F1231C9F760E0812FC0
:1057C0000E94481E1F5F1432C9F760E0812F0E94BB
:1057D000481E1F5F143BC9F76BE08DEF0E94481E07
:1057E00061E08AE00E94481E60E08DEF0E94481E42
:1057F0000FED14E073E4472E75E0572EE2E17E2EA4
:10580000F8E0CF2ED12CEE24E394F12C662463949F
:1058100044E050E0B801CE0101960E94DD314A819A
:1058200050E0CA018497AB80B12CA4E2AA1AB10857
:10583000EC81F0E0B4979C0197FF02C0295F3F4FD5
:10584000A90163E0559547956A95E1F72981237091
:1058500030E0729EB001739E700D112466567C4F2D
:105860004B01840E911CB6010E949B32A70102C01D
:10587000440F551F8A95E2F7CA01D4019C91892BE8
:105880008C93C501B7FC079653E0959587955A957B
:10589000E1F7729EA001739E500D112446565C4F95
:1058A0004A01880E911CC501B6010E949B32A701D6
:1058B00002C0440F551F8A95E2F7CA01D4019C919A
:1058C000892B8C93CF01F7FD079643E0959587953B
:1058D0004A95E1F7729EA001739E500D1124465621
:1058E0005C4F5A01A80EB11CCF01B6010E949B3239
:1058F000F70102C0EE0FFF1F8A95E2F7CF01D50135
:105900009C91892B8C93F901E455FC4F60820C5FCC
:105910001F4F4016510609F07BCF8091AC038111D7
:1059200017C01092AC030F900F900F900F90DF9163
:10593000CF911F910F91FF90EF90DF90CF90BF908C
:10594000AF909F908F907F906F905F904F90089551
:105950008AE9E82E83E0F82E10E0F70161917F01DB
:10596000812F0E94481E1F5F1231B9F7DACFE6E798
:10597000F3E0438120E1421B08F440E08181628131
:1059800090E00C94241BE6E7F3E0438120E1420F12
:1059900008F44FEF8181628190E00C94241BE6E7CC
:1059A000F3E0628120E1621B08F460E081814381C1
:1059B00090E00C94241BE6E7F3E0628120E1620FA3
:1059C00008F46FEF8181438190E00C94241BE6E79B
:1059D000F3E0818190E04381628108970C94241B5D
:1059E000E6E7F3E0818190E04381628108960C94C0
:1059F000241B8091760386958695815009F48AE26E
:105A00000C94341B80917603869586958F5F8B323C
:105A100008F081E00C94341BCF93DF93C7EED0E005
:105A200060E0CE010E9414322196C11584E0D807AF
:105A3000B9F7DF91CF910895CF92DF92EF92FF9265
:105A40000F931F93CF93DF93C0E0D0E08E01005DF2
:105A50001F4F6E0188E0C80ED11CFE01ED5BFA4FAE
:105A6000E590F4906F2DCE0187960E9414326E2D32
:105A7000CE0188960E9414322296CC15DD0569F776
:105A80000C171D0731F7E801003C1105F9F6DF910D
:105A9000CF911F910F91FF90EF90DF90CF900895DD
:105AA0000F931F93CF93DF93C42FD0E0CC0FDD1F54
:105AB00028E0629FC00DD11D112430E3839FC00DEB
:105AC000D11D1124CE0187960E94F631082F10E0D7
:105AD000102F0027CE0188960E94F6319801282BBE
