:100000000C94C4020C94FC020C94FC020C94FC02B0
:100010000C94FC020C94FC020C94FC020C94FC0268
:100020000C94FC020C94FC020C94BE210C949022C3
:100030000C94FF1B0C94FC020C94FC020C94FC022C
:100040000C94FC020C94FC020C94FC020C94FC0238
:100050000C94FC020C94871C0C94FC020C94FC0283
:100060000C94FC020C94FC020C94FC020C94FC0218
:100070000C94FC020C94FC020C94FC020C94FC0208
:100080000C94FC020C94FC020C94FC020C94FC02F8
:100090000C94FC020C94FC020C94FC020C94FC02E8
:1000A0000C94FC020C94FC020C94FC02AC06AC0612
:1000B000D806D80640075E07450845086907D107F6
:1000C000E207E207BD16C016E016F116F91604178E
:1000D0004A174A174A174A174A1707170A170F17D6
:1000E0001C1729172C1730173D17FD2224231C2419
:1000F00024231C24702393231C24EA23F92329009E
:100100001E001F00200021002200230024002500E3
:10011000260027002D002E002A004A002B00140084
:100120001A000800150017001C0018000C0012002F
:1001300013002F00300031004B003900040016007E
:10014000070009000A000B000D000E000F0033002D
:100150003400000028004E00E10000001D001B00DC
:1001600006001900050011001000360037003800A5
:10017000E50052004D00E000E300E2000000000056
:1001800000002C0000000000E600000001515000BB
:1001900051004F0035023A003B003C003D003E005C
:1001A0003F004000410042004300440045004C0035
:1001B0000100010001000100010001000100010037
:1001C0000100010001000100010001000100010027
:1001D0000100010001000100010001000100010017
:1001E0000100010001000100000001000100010008
:1001F00000000100010001000100010001000100F8
:1002000001000100010001000100010001000100E6
:1002100001000000000000000100000000000100DB
:1002200000000100010001000100010001000100C7
:1002300001000100010001000100010001000100B6
:1002400001000100010001000100010001000100A6
:100250000100010001000100010001000100010096
:100260000100010001000100010001000100010086
:100270000100010001000100010001000100000077
:100280000100010001000000010001000100010067
:100290000100010001000100010001000100010056
:1002A0000100010001000100000000000000010049
:1002B0000000000001000000010001000100010039
:1002C0000100010001000100010001000100010026
:1002D0000100010001000100010001000100010016
:1002E0000100010001000100010001000100010006
:1002F00001000100010001000100010001000100F6
:1003000001000100010001000100010001000100E5
:1003100001000100000001000100010000000100D7
:1003200001000100010001000100010001000100C5
:1003300001000100010001000100010001000000B6
:1003400000000000010000000000010000000100AA
:1003500001000100010000000000000000002A2B45
:100360002800000000000000000000000000000065
:100370000029000000002C1E3420212224342627CE
:10038000252E362D3738271E1F20212223242526EF
:100390003333362E37381F0405060708090A0B0CBD
:1003A0000D0E0F101112131415161718191A1B1C05
:1003B0001D2F3130232D350405060708090A0B0CC3
:1003C0000D0E0F101112131415161718191A1B1CE5
:1003D0001D2F3130354C00000000000000000000EF
:1003E000000000000000000000000000000000000D
:1003F000000000000000000000007E0F00D4FFFF9E
:10040000FFC7000000781E034D0069006B00650007
:100410006E0065006B006F00200036003500200084
:100420005600340000001203740061006B00690084
:100430007300680069006D000000040309040902EC
:100440005B00030100A0FA090400000103010100A0
:100450000921110100012240000705810308000164
:10046000090401000203000000092111010001221A
:100470002200070582032000010705030320000175
:1004800009040200010300000009211101000122FA
:100490007B00070584032000011201000200000018
:1004A000083479546D0100010200010660FF096102
:1004B000A1010962150026FF009520750881020937
:1004C00063150026FF00952075089102C0050109FB
:1004D00002A10185020901A10005091901290815D8
:1004E00000250195087501810205010930093115C2
:1004F00081257F95027508810609381581257F952C
:100500000175088106050C0A38021581257F9501C1
:1005100075088106C0C005010980A1018503190184
:100520002AB700150126B700950175108100C00596
:100530000C0901A101850419012AA002150126A0B8
:1005400002950175108100C005010906A10105078A
:1005500019E029E71500250195087501810295012B
:10056000750881010507190029FF150026FF009570
:100570000675088100050819012905950575019181
:1005800002950175039101C011241FBECFEFDAE07F
:10059000DEBFCDBF04B603FE18C0809171029091FA
:1005A0007202A0917302B09174028730904BA74001
:1005B000B04B59F4109271021092720210927302B1
:1005C00010927402E0E0F8E3099511E0A0E0B1E0D8
:1005D000ECEAF9E402C005900D92AE39B107D9F703
:1005E00022E0AEE9B1E001C01D92A137B207E1F708
:1005F0000E946E130C94D4240C94000081E00895A2
:1006000081E008950C94000308950C9404031F9353
:10061000CF93DF9300D000D01F92CDB7DEB74983D0
:100620005A836B833091A10189819A81311114C061
:10063000662359F0222349F00E94D409182F682F0D
:1006400089819A810E947D0903C00E94A809182F00
:1006500069817A81812F04C00E94D40969817A81DD
:100660000F900F900F900F900F90DF91CF911F91EF
:100670000C946419FC01262F4081518162817381A1
:1006800084810C94070381E00895CF93DF93EC01FC
:1006900060E00E943A03BE01DF91CF910C94050304
:1006A000E1E0F0E0DF0102C0AA0FBB1F6A95E2F7AC
:1006B000BD01DF0102C0AA0FBB1F4A95E2F7AD01E1
:1006C000462B01C0EE0F2A95EAF7942F9823491381
:1006D00002C08E2B0895E0958E230895242F462F77
:1006E000682F8091C0010E9450030C943A090C9429
:1006F0001F120C941B1208950E94D5080E947B03C0
:100700002FEF84E39CE0215080409040E1F700C04F
:1007100000000C94AD1C0F931F93CF93DF938C01BB
:1007200061E00E943A03EC01B8010E946C16882334
:1007300009F444C0B801CE010E9402038823F1F1FC
:10074000B801CE010E94CA1A8823C1F1B801CE01B6
:100750000E945617882391F1B801CE010E94261AF3
:10076000882361F1F8018281882309F1CA358DE57A
:10077000D807C1F050F4C115FCE5DF0781F0CE3D8C
:10078000DC45A9F40E94F50E19C0CB35EDE5DE0776
:1007900061F0CC35DD4559F40E94390E08C00E9445
:1007A0007C030CC00E94420E02C00E94450EC8018C
:1007B000DF91CF911F910F910C94FE0280E0DF91A9
:1007C000CF911F910F9108950E94E11B0C94CF04CB
:1007D0000E94D2040C94E71BDF92EF92FF920F93DA
:1007E0001F93CF93DF93E82FF0E0EA5AFC4FD490A9
:1007F000282F26952695269530E0F901EA50FC4FE2
:100800000491877010E0082E02C0159507950A9490
:10081000E2F701701127F901EA51FC4FE490F12C45
:10082000082E02C0F594E7940A94E2F791E0E922D9
:10083000FF24F901EA52FC4FC491D0E002C0D595E3
:10084000C7958A95E2F7C170DD270115110519F0EA
:1008500081EE0E943105E114F10419F086EE0E9448
:1008600031058D2D0E945A06EF2819F086EE0E9460
:10087000DB05012B19F081EE0E94DB05CD2B51F039
:100880008CE2DF91CF911F910F91FF90EF90DF905D
:100890000C945A06DF91CF911F910F91FF90EF902A
:1008A000DF900895EF92FF920F931F93CF93DF9302
:1008B000EC01162F0AE08881882309F455C08130A5
:1008C00009F043C08981813041F47E0182E0E80E65
:1008D000F11C8A810E945A0609C0823049F47E01C7
:1008E000E2E0EE0EF11C8A810E943105E7012FC083
:1008F000833041F47E01F2E0EF0EF11C8A810E9408
:10090000DB05F4CF843011F0219621C02A81229694
:1009100080E090E030E0205331092A30310558F46E
:10092000089FA001099F500D1124C901840F951F34
:1009300021962881EFCF009751F0EFE9FFE0319742
:10094000F1F700C000000197F6CF0E94EC0321965A
:10095000812F882309F4AFCFEFE9FFE03197F1F75A
:1009600000C000008150F5CFDF91CF911F910F9112
:10097000FF90EF90089560E00C94520408950C9459
:10098000BE0481E008950C94C1040895CF93C82F4C
:100990000E94BF048C2F0E94C304CF91089580E071
:1009A0000C94C6040E94261B0C94C6040E94261BAD
:1009B0009091A001891721F08093A0010C94C604A6
:1009C0000895CF93DF93CDB7DEB72B970FB6F8948A
:1009D000DEBF0FBECDBF4F83588769877A878B876D
:1009E00061110E94850D9E012F5F3F4F86E0F90146
:1009F00011928A95E9F785E0FE013796D9010190B9
:100A00000D928A95E1F789819A814C815D81452B10
:100A100031F09F3F31F491E08F3F19F403C091E032
:100A200001C090E090FF09C049815A816B817C81AF
:100A30008D819E810E94A60C05C0C9010E944303BE
:100A40008111F2CF2B960FB6F894DEBF0FBECDBF4B
:100A5000DF91CF910895FC01808191810E94010A6C
:100A60000895CF93882309F4A4C0C82F8238C1F415
:100A70000E94261B81FD9DC069E380910201909137
:100A800003010E94B91B0E94A70D2FEF81EE94E095
:100A9000215080409040E1F700C0000069E319C098
:100AA000833801F50E94261B80FD83C063E5809199
:100AB0000201909103010E94B91B0E94A70D2FEF24
:100AC00081EE94E0215080409040E1F700C00000AA
:100AD00063E580910201909103010E94BB1BCF91BD
:100AE0000C94A70D8438C1F40E94261B82FD61C0BE
:100AF00067E480910201909103010E94B91B0E945A
:100B0000A70D2FEF81EE94E0215080409040E1F757
:100B100000C0000067E4DDCF8CEF8C0F813AD0F489
:100B20006C2F80910201909103010E94831B882306
:100B300049F06C2F80910201909103010E94BB1B30
:100B40000E94A70D6C2F80910201909103010E94D9
:100B5000B91BC5CF80E28C0F883048F4C77081E0A4
:100B600001C0880FCA95EAF70E94680DB8CFEBE57F
:100B7000EC0FE33040F4F0E0E95BFE4F808190E061
:100B8000CF910C944B1BE8E5EC0FE73150F4F0E00B
:100B9000EE0FFF1FE75EFE4F80819181CF910C9495
:100BA000611BC03F30F08C2F0E94F313CF910C9447
:100BB000C514CF910895882309F464C0823879F46C
:100BC0000E94261B81FF5EC069E380910201909123
:100BD00003010E94B91B0E94A70D69E310C083386E
:100BE000B1F40E94261B80FF4DC063E58091020195
:100BF000909103010E94B91B0E94A70D63E58091AB
:100C00000201909103010E94BB1B0C94A70D843834
:100C100079F40E94261B82FF35C067E480910201AF
:100C2000909103010E94B91B0E94A70D67E4E7CFD2
:100C30009CEF980F913A10F4682FE1CF90E2980F53
:100C4000983050F4877091E001C0990F8A95EAF7C7
:100C5000892F0E946E0DD9CF9BE5980F933020F419
:100C600080E090E00C944B1B98E5980F973120F4AE
:100C700080E090E00C94611B803F20F00E944E14B5
:100C80000C94C51408951F93CF93DF93182FEB0195
:100C90000E943105209741F08FE99FE00197F1F71D
:100CA00000C000002197F6CF812FDF91CF911F91D7
:100CB0000C94DB05893319F060E070E002C060E558
:100CC00070E00C944306882321F00E94680D0C9478
:100CD000A70D0895882321F00E946E0D0C94A70D96
:100CE0000895CF92DF92EF92FF920F931F93CF93CD
:100CF000DF937C01162FC72FFC01D281058102955D
:100D00000F700E945E0D8823B9F0DD23A9F08C2FAF
:100D1000807F803421F080E2810F883068F08091FC
:100D20004B0282FD09C082E00E94070E0E945E0D08
:100D300091E0D82ED92601C0D12CCC2EC2948FE0C0
:100D4000C8228C2D90E08C30910508F09EC1FC01EA
:100D5000EA5AFF4F0C9464248C2F807FCF70882335
:100D600011F0C295C07FDD2399F0CC2309F479C13D
:100D700080E2810F883010F0111104C08C2F0E9486
:100D8000680D03C08C2F0E94780D0E94A70D69C1C9
:100D9000812F0E94DB05CC2309F477C180E2810F0B
:100DA000883038F1112329F18C2F0E947E0D24C048
:100DB0008C2F807FCF70803211F0C295C07F1123BD
:100DC00019F01130A1F13DC080914B0282FF17C094
:100DD000DD2349F0CC2329F08C2F0E94680D0E945E
:100DE000A70D80E03FC180E00E94DB05CC2309F421
:100DF0004CC18C2F0E946E0D0E94A70D46C1DD23B1
:100E000071F0002341F0013031F40E94880D8C2BE9
:100E10000E94900D3AC10E94880D8C2B1DC00023AA
:100E200019F0013009F431C10E949D0D25C0DD2368
:100E300021F0063008F029C10EC0053008F025C1A8
:100E40001BC0DD2361F0002331F0F701858180FFB5
:100E500008C18F7085838C2F0E94630616C1002302
:100E600059F0193309F00EC1FFEF27EE83E0F1507E
:100E700020408040E1F704C18C2F0E946A0605C122
:100E80008C2F86958695837019F0813061F0FDC0B6
:100E9000DD2321F0812F9C2F937002C080E090E031
:100EA0000E944B1BFAC0DD2321F0812F9C2F9370F1
:100EB00002C080E090E00E94611BEFC0812FDD2323
:100EC00019F00E94F31302C00E944E140E94C51430
:100ED000E4C08C2F837079F5D111DBC0412F42958E
:100EE00046954770440F440F212F2F70042E01C0E8
:100EF000220F0A94EAF714FF08C08FE090E001C0C7
:100F0000880F4A95EAF7809501C080E0C695C6959E
:100F1000C370822BC23049F058F4C13019F00E94DE
:100F20002E09B7C00E942909B4C00E943309B1C07C
:100F30000E942709AEC0DD2319F08C2F817001C0FB
:100F40008695882309F4A5C0412F429546954770A0
:100F5000440F440F212F2F70042E01C0220F0A943A
:100F6000EAF714FF08C08FE090E001C0880F4A95AF
:100F7000EAF7809501C080E0C695C695C370822BC4
:100F8000C23049F058F4C13019F00E94720981C092
:100F90000E946D097EC00E9477097BC00E943A09B9
:100FA00078C0CF70DD2339F08C2F0E944B09812F40
:100FB0000E9463066EC0812F0E946A068C2F0E94D9
:100FC000560967C0123F21F128F4103F41F0113F4C
:100FD000C1F043C0133F19F1143F79F03EC0DD2347
:100FE00041F0053008F051C08C2F8F710E946209CA
:100FF0004CC0063008F049C0F7CF80914B0282FF09
:1010000018C0DD2339F08C2F8F710E944B093DC031
:10101000DD23C9F38C2F8F710E94560936C0DD2362
:1010200029F08C2F8F710E9443092FC00E94400924
:101030002CC0DD2349F0CF718C2F0E944B0963E057
:101040008C2F0E94EC0D21C081E00E94070E02301F
:10105000E0F082E00E94070E18C0DD2331F000238B
:1010600091F2812F0E94310510C0002399F21933AB
:1010700049F49FEFE7EEF3E09150E040F040E1F7F4
:1010800000C00000812F0E94DB0588EF8C0D8430AA
:1010900020F40E94261B0E94C604DD20C9F00E9495
:1010A0005A0D80FD15C0F70112820E94540D0E9456
:1010B0004B09C7010E9489080E94540DDF91CF910E
:1010C0001F910F91FF90EF90DF90CF900C945609F5
:1010D000DF91CF911F910F91FF90EF90DF90CF9014
:1010E00008950F931F93CF93DF93EC01688179816B
:1010F0008A810E940C0A8C010E947C090E941B09B3
:10110000B801CE010E947106DF91CF911F910F911E
:101110000895CF93DF93EC01988189812B813C81E5
:10112000232B31F08F3F31F481E09F3F19F403C04E
:1011300081E001C080E080FD1DC0CE010E948B03D4
:10114000811110C00E945E0D8823A1F08A8188233E
:1011500089F080914B0282FD0DC082E0DF91CF913A
:101160000C94070ECE010E947108CE01DF91CF9141
:101170000C944503DF91CF91089580E090E00E94A8
:101180004B1B80E090E00E94611B0E94850D0E9435
:10119000A70D0E94F6150C94C51480910201909140
:1011A00003010E94BD1B0C94BD080E94750D0C9498
:1011B000CD0892959F70963079F010F4925001C04E
:1011C0009A50923068F4803F69F018F4883E40F4F9
:1011D00009C0843F29F406C0883E20F0813F11F009
:1011E00080E0089581E00895FC01808191810E9452
:1011F000010A0E94D9080895CF93DF9300D000D050
:101200001F92CDB7DEB70F900F900F900F900F90F9
:10121000DF91CF910895CF93DF9300D000D000D01D
:10122000CDB7DEB726960FB6F894DEBF0FBECDBFA2
:10123000DF91CF910895089508950C941C090C94A2
:101240001D090E941F098093C1010C94BD080C94D4
:1012500021099091C101892B0C9421099091C10120
:1012600089230C9421099091C10189270C942109AB
:101270000C941C090E9438098093C0010C94BD088D
:1012800080E00C943A0991E001C0990F8A95EAF741
:10129000892F0C943A0921E030E001C0220F8A9591
:1012A000EAF78091C001822B0C943A0921E030E0EA
:1012B00001C0220F8A95EAF720958091C001822310
:1012C0000C943A0921E030E001C0220F8A95EAF738
:1012D0008091C00182270C943A099091C001892B1A
:1012E0000C943A099091C00189230C943A09909189
:1012F000C00189270C943A0908952FE0929F800D30
:101300001124E82FE695E695E695877051E001C037
:10131000550F8A95EAF783E0E89FF0011124EE5516
:10132000FE4F20E030E070E04081CB01022E02C091
:10133000969587950A94E2F7817081958427852395
:10134000842781932F5F3F4F2330310569F708953C
:101350002FE0929F800D1124682F66956695669503
:10136000982F977083E0689FB001112440E050E00F
:1013700080E0FB01E40FF51FEE55FE4F208130E0C9
:10138000092E02C0369527950A94E2F7217033277B
:10139000042E01C0220F0A94EAF7822B4F5F5F4FA1
:1013A0004330510531F70895CF92DF92FF920F93AA
:1013B0001F93CF93DF936C010091C0018091C10115
:1013C000082BC7E0D0E010E0C8010C2E02C09595B4
:1013D00087950A94E2F780FD04C02197A8F7F12CC5
:1013E00007C0FC2EB6018C2F0E94F6100197A9F3BE
:1013F0008F2DDF91CF911F910F91FF90DF90CF90B4
:101400000895CF93DF93EC010E94D409BE010E949E
:10141000F610DF91CF9108951F93CF93DF93EB01E7
:101420009091A101992321F0CB010E94010A13C0E0
:10143000882349F0CB010E94D409182F682FCE01D0
:101440000E947D0904C0CB010E94A809182FBE018B
:10145000812F0E94F610DF91CF911F9108951F9365
:10146000CF93DF93C091C20116E08091C301C817EA
:1014700099F0D0E01C9FF0011D9FF00D1124EC535A
:10148000FE4F4081518162817381848195810E94E8
:101490000B092196C770E9CFDF91CF911F91089575
:1014A0004091F4015091F5016091F6017091F701BE
:1014B0008091F8019091F9010C940B09EF92FF9241
:1014C0000F931F93CF93DF938091F90182958F70D3
:1014D00009F065C08091F601882309F460C080910D
:1014E000C201F090C3011091F4010091F5016091E7
:1014F000F7017091F80191E01F3F09F090E0C09171
:101500000001D0910101292F96E0E92E8F1509F4F1
:1015100046C06115710521F00F3F21F030E003C096
:1015200031E001C0322F90E030FD36C0E89EF0017E
:10153000E99EF00D1124DF01AC53BE4F11963C9192
:101540001197301329C03C91311326C012963C915B
:101550001297311121C013964D915C911497461B3F
:10156000570B4C175D07C0F48091F9018F708061B3
:101570008093F901E753FE4F80818F7080618083F3
:1015800084EF91E00E948908DF91CF911F910F9124
:10159000FF90EF900C942F0A01968770B7CFDF91E0
:1015A000CF911F910F91FF90EF9008959F92AF926E
:1015B000BF92CF92DF92EF92FF920F931F93CF9340
:1015C000DF93CDB7DEB761970FB6F894DEBF0FBEDD
:1015D000CDBF8C0185E0F801DE011D9601900D92D2
:1015E0008A95E1F7D8011296EC909091F401E09180
:1015F000F5012091F7013091F8012115310531F005
:10160000EF3F31F481E09F3F19F403C081E001C056
:1016100080E0B82FB1709B2E80FD47C1D8014C915E
:1016200011965C9111971396AD90BC90149784EF2E
:10163000C82E81E0D82EF090F601B501621B730B25
:101640002091000130910101FF2009F4D9C080915F
:10165000F9016217730708F095C0282F207F09F061
:1016600052C05E1313C0491311C0FE2CE1100EC00E
:101670008F7080618093F9010E94500AC6010E9418
:1016800089088091F901F80185834DC1AB2831F0BB
:101690005F3F31F481E04F3F19F403C081E001C0A6
:1016A00080E080FD03C081E08E2502C080E090E0F4
:1016B000F82FF170FF2E80FF1CC08091C201209195
:1016C000C30136E0821709F40BC190E0389FF001A6
:1016D000399FF00D1124EC53FE4F6181561306C063
:1016E0006081461303C06281E61203C001968770D1
:1016F000E9CFFE2CEE2009F416C18091F90181603A
:101700008093F90154C05E1306C0491304C0E11070
:1017100002C0F80199C0C8010E94F408882361F151
:10172000EE2051F12091F901822F82958F7090E087
:10173000029774F08091F4019091F50198878F835E
:101740001986BB86AA862C87CE0107960E94890837
:1017500086E0F801A4EFB1E001900D928A95E1F7DF
:101760000E945E0A0E94500A0AC05E1711F1C80169
:101770000E94F40881112CC0C8010E948908FF242E
:10178000F394D1C0282F207F81F77A2DB98AA88AB7
:101790006E2D89890E94FC0884EF91E00E948908DF
:1017A00086E0D6011D928A95E9F70E94500AF12C35
:1017B000BAC04913DCCFE110DACFF8018583C80144
:1017C0000E94890886E0D6011D928A95E9F7ABC090
:1017D000EE2091F22091F901822F82958F7090E096
:1017E00002970CF4B5CF8091F4019091F5019A83A2
:1017F00089831B82BD82AC822E83CE010196A6CF47
:101800006217730708F044C0FE2CEE2009F4B4CF31
:101810005E1330C049132EC02091F90120FD21C074
:10182000822F82958F70482F50E041155105C9F0E5
:10183000F80125834F30510541F08F5F982F929525
:10184000907F822F8F70892B8583C8010E94890821
:1018500086E0F801A4EFB1E001900D928A95E1F7DE
:101860003CC086E0F801A4EFB1E001900D928A95AA
:10187000E1F759C0C8010E94F408811169CF809135
:10188000F90181608093F901C8010E9489084BC069
:101890007A2DB98AA88A6E2D89890E94FC0886E073
:1018A000D6011D928A95E9F718C0EE2009F464CF9D
:1018B000C8010E94F408F82E882309F45DCF86E061
:1018C000F801A4EFB1E001900D928A95E1F784EF61
:1018D00091E00E942B050E945E0A0E94500A23C0DC
:1018E0004D875E878D859E850E94010A292F22954E
:1018F0002F70223028F49F7039F0811105C00BC081
:10190000243028F49F7049F4805E883020F0C801AC
:101910000E9489089F2CF92C06C0D80115969C912D
:10192000907F91F7F8CF8F2D61960FB6F894DEBFB8
:101930000FBECDBFDF91CF911F910F91FF90EF9020
:10194000DF90CF90BF90AF909F9008951F93CF935B
:10195000DF93CDB7DEB72C970FB6F894DEBF0FBE7E
:10196000CDBF4F83588769877A878B879C87CE0145
:1019700007960E94D60A8823D1F09F8188852A8500
:101980003B85232B31F08F3F31F481E09F3F19F4E9
:1019900003C081E001C080E080FD47C04F815885D1
:1019A00069857A858B859C850E940B093EC086E0FF
:1019B000FE013796DE01119601900D928A95E1F7AE
:1019C000FF81E8856A857B856115710531F0EF3F00
:1019D00031F481E0FF3F19F403C081E001C080E0F1
:1019E00080FD23C02091C30130E0C90101968770BA
:1019F00099274091C20150E084179507F1F1F983CE
:101A0000EA837D836C8396E0929FD001939FB00D13
:101A10001124AC53BE4FFE01319601900D929A9560
:101A2000E1F78093C3010E942F0A16E08091C20162
:101A30009091C301891771F1189FC00111248C5333
:101A40009E4F0E94D60A882329F1E091C2011E9F71
:101A5000F0011124EC53FE4F40815181628173816A
:101A6000848195810E940B098091C20190E00196CA
:101A7000877099278093C201D9CF0E94D508109210
:101A8000C3011092C201E4EFF1E086E0DF011D9294
:101A90008A95E9F72C960FB6F894DEBF0FBECDBF3E
:101AA000DF91CF911F9108958091020285958595D0
:101AB00085950895809102028770089590910202A1
:101AC000977081E009F480E0089580910D020895F7
:101AD00090910D02892B80930D020895809590912D
:101AE0000D02892380930D02089510920D0208952E
:101AF00090910C02892B80930C020895809590910F
:101B00000C02892380930C02089510920C02089510
:101B100080910302089508950C948B0D0C948C0D04
:101B200090914B0292FD08C090910302981721F00A
:101B3000809303020C948E0D0895809103028823F4
:101B400029F01092030280E00C948E0D0895CF933B
:101B5000DF93E0910201F091030180910D028083F7
:101B6000E0910201F0910301908180910C02892B98
:101B7000808380910302882381F0E0910201F0913B
:101B800003019081892B8083809102019091030150
:101B90000E94771B81110E949D0DC0910201D0917E
:101BA000030148E050E06AEF71E0CE010E94852415
:101BB000892B69F088E0FE01AAEFB1E001900D9257
:101BC0008A95E1F7CE01DF91CF910C94321BDF9122
:101BD000CF9108950C948B0D90914B0292FD10C003
:101BE00098E0899F90011124262B209302020E94E5
:101BF0004B09809102028595859585950C94EA0D97
:101C00000C944B091092020280E00C94EA0D209192
:101C100002028095822380930202982F977099F494
:101C200030E0482F082E000C550B2417350759F0CB
:101C300090914B0292FD07C08595859585950E94F0
:101C400056090C94020E089590914B0292FB2227A4
:101C500020F9281769F080FB92F990934B0280914C
:101C60004A0290914B020E94720E82E00C94070E81
:101C7000089580914B0282FB882780F991E08927A3
:101C80000C94240E81E00C94240E80E00C94240E1D
:101C90006FEF7FEF80E090E00C94BE2480E090E056
:101CA0000E949A24893E9E4F11F40C94041680E001
:101CB000089582E090E00C94922483E090E00C94EC
:101CC0009224CF9384E090E00E949224C82F82E275
:101CD00090E00E9492242C2F30E0A901582BCA01D9
:101CE000CF910895CF93C92F682F84E090E00E9490
:101CF000A0246C2F82E290E0CF910C94A024AB0141
:101D0000BC018FE090E00C94B224AB01BC0183E1F4
:101D100090E00C94B22460E070E0CB010C94850E4E
:101D200060E070E0CB010E947F0E0C948B0E69EE98
:101D30007EEF80E090E00E94BE2460E082E090E0D0
:101D40000E94A02460E083E090E00E94A024109212
:101D5000C10160E084E090E00E94A02460E082E2A3
:101D600090E00E94A02460E085E090E00E94A02422
:101D700060E086E090E00E94A0246FEF87E090E0B2
:101D80000E94A02440E050E0BA0188E090E00E9468
:101D9000B22460E08DE090E00E94A02440E050E09A
:101DA000BA0188E190E00E94B22460E087E190E00F
:101DB0000E94A02440E050E0BA018CE190E00E9433
:101DC000B22460E070E080E290E00E94BE2440E037
:101DD00050E0BA0188E190E00E94B22480E00E94C5
:101DE0001D160E9450160C94900E0C94970E682F9E
:101DF0008EE090E00C94A0240E946C1C60931C0266
:101E000070931D0280931E0290931F02609318022C
:101E10007093190280931A0290931B02089585B75C
:101E2000806885BF85B7806885BF089581E0089583
:101E30000C94160F08950C941A0F0C941A0F0C940E
:101E40001D0F0C941A0F0C94210F0C941A0F0E9462
:101E50000F0F82ED91E10E941C1B0E94250F0C9434
:101E6000230F0E941B0F0C941A0F0E94EC110C946C
:101E7000C5040E94571C0E945F160E94C7120E9450
:101E8000350F0C941F0F5F926F927F928F929F92EB
:101E9000AF92BF92CF92DF92EF92FF920F931F9378
:101EA000CF93DF93CDB7DEB72A970FB6F894DEBF96
:101EB0000FBECDBF0E94DC12C82E81110E94FC0E05
:101EC0003EE0832E32E0932E00E010E0502E802F73
:101ED0000E9406125C01F401619071904F01682626
:101EE000792661147104B1F40F5F1F4F053011059D
:101EF00069F78FEF89838A831B820E94601C81604F
:101F0000782F9D838C8349815A816B818D810E94BA
:101F1000E1043AC08091200281FD0E940F12D12C71
:101F2000EE24E394F12CC3018E219F21892B29F10A
:101F30000E94180F8823A9F0DE825F82AE20BF20A6
:101F400081E0AB2809F480E088870E94601C8160F2
:101F5000782F9A8789874E815F8168858A850E945C
:101F6000E104000F111FF801E25FFD4F80819181B4
:101F7000E826F926F182E08207C0D394EE0CFF1C1C
:101F8000FFE0DF12D0CFB0CF81E0C11001C080E010
:101F90002A960FB6F894DEBF0FBECDBFDF91CF916A
:101FA0001F910F91FF90EF90DF90CF90BF90AF9077
:101FB0009F908F907F906F905F9008950E94430F45
:101FC0000E94E3140C94D604CF93DF930E94FB107D
:101FD000EC01811521E5920708F045C0811530E537
:101FE000930708F094C0883E910528F5803E91053E
:101FF00008F0F8C0883A910570F4853A910508F028
:102000007CC08130910509F475C008F4E8C00497DC
:1020100008F0E8C0E4C08F3B910508F0E0C0C85A62
:10202000D0E0CC0FDD1FC65BDE4F0990D881C02DFC
:10203000CE019464D8C0811540E2940758F481150C
:1020400051E0950708F0CEC0803F910508F4C7C065
:102050009065C9C0C11580E4D80708F4C0C0DF701E
:10206000CE01906AC0C0811525E59207A8F48115BC
:1020700034E5930708F095C0811543E5940708F00F
:102080007BC0811552E5950708F061C0D82FCC2799
:10209000CE01816F906AA7C0C11589E5D807A0F469
:1020A000C11528E5D20708F082C0C11536E5D3076F
:1020B00008F095C08C2F0E948F118F7190E0D82F5F
:1020C000CC27CE0190628FC0C1154AE5D40708F431
:1020D00074C0CE0190568115904208F080C08D2FBB
:1020E0008F710E948F11DD27D0628F71AE01582B46
:1020F000CA0179C081E090E076C0C55AD0E0C858E6
:10210000DE4F8881C82FD0E0CE0190646CC074E0AF
:10211000969587957A95E1F7282F23703C2F337099
:1021200081E090E002C0880F991F3A95E2F79C6821
:10213000AC01522B9A019C2F9F709695969550E278
:10214000959FE0011124C9018C2B9D2B4CC08370FD
:10215000992721E030E002C0220F331F8A95E2F771
:102160009C2F9695969580E2989FE0011124C22BB2
:10217000D32BCE019C6837C08370992721E030E0D3
:1021800002C0220F331F8A95E2F79C2F96959695F1
:1021900040E2949FE0011124C22BD32BCE019A6818
:1021A00022C0D82FCC27CE01846F906A1CC0DC2FB0
:1021B000CC27CE01806F906A16C08C2F8F700E9442
:1021C0008F1194E0D695C7959A95E1F7CF70D0E03E
:1021D000DC2FCC27D0699E01282BC90104C080E0E8
:1021E00090E001C0CE01DF91CF9108950E94641963
:1021F0000E94E40F08958238910569F1B0F48133AB
:10220000910509F46DC048F48932910509F463C061
:102210008A32910509F469C008958533910509F45E
:1022200055C089339105B9F00895833E910569F150
:1022300038F4803E9105B1F0823E910509F1089590
:10224000863E9105A9F1873E9105B9F1843E91053D
:1022500009F064C023C020914A0220FD4FC021FD37
:102260004DC0089580914A0280FD44C080914B0288
:1022700080FF44C080914A0284FD42C083EE4DC07D
:1022800080914A0282FF38C0F5CF80914A0282FDD8
:1022900033C080914B0280FD31C0ECCF80914B0266
:1022A00081FF32C080914A0284FD2AC087EE35C08A
:1022B00080914A0283FF26C0F5CF80914A0283FDB8
:1022C00021C080914B0281FD1FC0ECCF80914A025A
:1022D00085FD1CC01DC080914A0285FD19C016C035
:1022E00080914A0286FD16C017C080914A0286FD81
:1022F00013C010C089E311C082EE0FC080EE0DC084
:1023000080E00BC086EE09C084EE07C089E205C0FC
:1023100085E303C08AE201C081E390E008959091D3
:102320004A0292FF0DC0282F2871283019F4877FA8
:10233000846006C0282F2471243011F48B7F8860BC
:1023400093FF0DC0282F2871283119F4877E8461EE
:1023500006C0282F2471243111F48B7E88612091CE
:102360004B0220FF0DC0382F3871383019F4877FA9
:10237000816006C0382F3171313011F48E7F886052
:1023800021FF0DC0282F2871283119F4877E816123
:1023900006C0282F2171213111F48E7E886194FDB1
:1023A000877E089580E008950C94480E0E94DC1208
:1023B0008FE39CE90197F1F700C000000E94DC1256
:1023C00080E00E94061280FF04C00E94D4110C9489
:1023D000AD1C08950C94D6110E944E0E811102C0BE
:1023E0000E94F50E0E94590E809320020E94610EF9
:1023F00090934B0280934A020E94EA110E945D0E64
:102400000E9427098091C0010C943809E82FF0E060
:10241000EE0FFF1FEA5AFD4F8081918108950895C4
:1024200080EA8A95F1F7089500C008950C9410127F
:1024300008950C9418120C9419120C9418120C9400
:102440001D12F894E82FE295EF70F0E031A1282FEB
:102450002F7081E090E001C0880F2A95EAF7982F4D
:102460009095932391A392A1892B82A378940895A8
:102470000F931F93CF93DF93CAE8D1E089918F3FE9
:1024800011F00E94211281E0CF38D807B9F7CBE7CD
:10249000D1E00AE811E089918F3F11F00E942112EA
:1024A0000C171D07C1F7DF91CF911F910F91089570
:1024B000BF92CF92DF92EF92FF920F931F93CF9331
:1024C000DF938C01C62FD0E0CE0186579E4F6C0162
:1024D000FC0190819F3F09F450C0B62EF894E92F7B
:1024E000E295EF70F0E081A19F7021E030E001C043
:1024F000220F9A95EAF7822B81A382A120952823A7
:1025000022A378940E941412EBE7F1E04AE851E02C
:1025100021E030E0E12CF12C61916F3F89F0A62F92
:10252000A295AF70B0E090968C9190E06F7002C071
:10253000959587956A95E2F780FD02C0C90102C0B2
:1025400080E090E0E82AF92A220F331F4E175F0738
:1025500019F7F60180818F3F11F00E94211261E08E
:10256000E114F10409F460E08B2D0E941612CC0FE7
:10257000DD1FC00FD11FF982E882DF91CF911F913B
:102580000F91FF90EF90DF90CF90BF9008950E9441
:1025900038128AE0E6E5F2E0DF01982F1D929A9565
:1025A000E9F7ECE4F2E0DF011D928A95E9F785E0B6
:1025B0000E9427130C947703FF920F931F93CF93DE
:1025C000DF93CDB7DEB72A970FB6F894DEBF0FBE04
:1025D000CDBF8E010F5F1F4F8AE0F80111928A95DF
:1025E000E9F7F12C6F2DC8010E945812F394F5E021
:1025F000FF12F8CF4AE050E0B8018CE492E00E946C
:102600008524FF24F394009709F4F12C892B41F0E1
:102610008AE0F801ACE4B2E001900D928A95E1F70E
:102620002F2D45E066E572E08CE492E00E942813CD
:102630000E9479038F2D2A960FB6F894DEBF0FBE45
:10264000CDBFDF91CF911F910F91FF900895089515
:10265000FF920F931F93CF93DF93F82E092F162F1E
:10266000D72FC42F222349F081E0809323020E94B8
:10267000601C909322028093210280912302882380
:10268000D9F080912102909122020E94781C059736
:1026900098F0EF2DF02FA12FBD2F80E090E04C2F70
:1026A00050E08417950734F4219131912D933D9397
:1026B0000196F7CF10922302DF91CF911F910F91D6
:1026C000FF9008950E94961E0E94390F0C94A21E3E
:1026D0000E94A61E0E94DE0F0C94C01E0E94FE1BCC
:1026E0000E947D1E0E94270F0E9462130E946813A1
:1026F0000E94310FFBCF80912A0280FF06C06091BB
:10270000090170E0660F771F26C081FF04C0609149
:10271000090184E005C082FF07C06091090188E0DB
:10272000689FB001112417C0909129029923D1F01C
:1027300060910801961788F72091090188E0289F89
:1027400090011124929FA001939F500D112470E0DD
:10275000CA010E9450246038710540F4611571056A
:1027600019F406C068E070E0862F08958FE7089599
:1027700081E0089580912A0280FF08C060910501E0
:1027800070E0759567957595679521C081FF06C0C6
:102790006091050170E07595679519C082FF04C0CE
:1027A0006091050170E010C090912802992399F082
:1027B000609104019617A0F780910501899FC001DF
:1027C000112470E00E9450246038710540F46115B6
:1027D000710519F406C061E070E0862F08958FE757
:1027E000089581E00895803F21F40E947B13819534
:1027F00004C0813F29F40E947B1380932E02089528
:10280000823F21F40E947B13819504C0833F29F409
:102810000E947B1380932D020895893F19F40E9432
:10282000BA1305C08A3F31F40E94BA138195809390
:102830002F0208958B3F21F40E94BA13819504C0A2
:102840008C3F29F40E94BA138093300208959CE0D3
:10285000980F953078F421E030E0A90102C0440FD0
:10286000551F9A95E2F7CA0190912C02892B80930B
:102870002C0208958D3F21F480912A0281600BC0C3
:102880008E3F21F480912A02826005C08F3F29F497
:1028900080912A02846080932A020895803F39F44F
:1028A00090912E0297FF35C010922E0259C0813FA1
:1028B00029F490912E021916BCF32BC090912D0291
:1028C000823F29F497FF25C010922D0249C0833F13
:1028D00019F41916CCF31DC090912F02893F29F4E9
:1028E0001916BCF410922F023BC08A3F19F497FFCF
:1028F00010C0F8CF8B3F39F49091300297FF09C098
:10290000109230022DC08C3F21F4909130021916A4
:10291000BCF39CE0980F953080F421E030E0A901F1
:1029200002C0440F551F9A95E2F7CA018095909115
:102930002C02892380932C0213C08D3F21F48091B7
:102940002A028E7F0BC08E3F21F480912A028D7F58
:1029500005C08F3F29F480912A028B7F80932A0241
:1029600080912D02811106C080912E02811102C03A
:102970001092290280912F02811106C080913002AD
:10298000811102C01092280208950E94601C2091BB
:102990002D02211104C020912E02222321F09093B8
:1029A00027028093260220912F02211104C020913A
:1029B0003002222321F090932502809324028BE29F
:1029C00092E00C943D1BEF92FF920F931F93CF93D5
:1029D000DF9300D000D000D0CDB7DEB786E0EBE2C9
:1029E000F2E0DE01119601900D928A95E1F7E090F8
:1029F0002D02F0902E0200912F02109130021092C1
:102A00002D0210922E0210922F0210923002E1102D
:102A100003C0FF2009F45DC0809126029091270237
:102A20000E94781CAC0190912902992339F02091E1
:102A30000A0130E02417350758F04BC020910B01F4
:102A40008AE0289F900111242417350718F041C00F
:102A50009F3F19F09F5F90932902EE2061F00E9442
:102A60007B131E1414F09FEF01C091E0989F902DEE
:102A7000112490932D02FF2061F00E947B131F14FC
:102A800014F09FEF01C091E0989F902D1124909336
:102A90002E0230912D023323E1F020912E022223C9
:102AA000C1F045EB3403C0011124992319F0909330
:102AB0002D0203C081E080932D0235EB2303C0017A
:102AC0001124992319F090932E0203C081E0809382
:102AD0002E02011103C0112309F45DC0809124026C
:102AE000909125020E94781CAC01909128029923B4
:102AF00039F02091060130E02417350758F04BC01B
:102B0000209107018AE0289F90011124241735079E
:102B100018F041C09F3F19F09F5F90932802002357
:102B200061F00E94BA13101614F09FEF01C091E0FB
:102B3000989F902D112490932F02112361F00E94F1
:102B4000BA13111614F09FEF01C091E0989F902DD9
:102B500011249093300230912F023323E1F0209121
:102B600030022223C1F045EB3403C0011124992324
:102B700019F090932F0203C081E080932F0235EB70
:102B80002303C0011124992319F09093300203C04C
:102B900081E08093300280912D0281110BC08091E1
:102BA0002E02811107C080912F02811103C08091F4
:102BB000300281110E94C514EB82FC820D831E83BA
:102BC00086E0FE013196ABE2B2E001900D928A956B
:102BD000E1F726960FB6F894DEBF0FBECDBFDF91AA
:102BE000CF911F910F91FF90EF900895EBE2F2E0EB
:102BF00086E0DF011D928A95E9F710922902109272
:102C0000280210922A02089583E290E00E94922402
:102C1000823281F484E290E00E949224843051F464
:102C200085E290E00E94922491E0813009F090E0EA
:102C3000892F01C080E081700895CF93C82F811142
:102C400002C06FEF01C062E283E290E00E94A02424
:102C5000C11102C06FEF01C064E084E290E00E9405
:102C6000A024C11102C06FEF01C061E085E290E0D5
:102C7000CF910C94A024089586E290E00E949224C3
:102C8000682F70E080E090E008950895CF93C62FFC
:102C90000E9445166C2F86E290E0CF910C94A02400
:102CA00080E00E941D1660E070E0CB010E94461695
:102CB0000E94DF180E94BE1981E00C941D160E942C
:102CC0003B160E943C160E9445160E940416811174
:102CD00002C00C9450160895CF93FB01C281CC23FF
:102CE000E9F09C0122513F452031310520F4825109
:102CF0000E94CE190CC08031FFE59F0751F481E09E
:102D00000E944B0943E062E081E00E946E03C0E054
:102D100018C081319F45A9F482E0F2CF8031EFE500
:102D20009E0711F481E004C081319F4549F482E09F
:102D30000E94560943E062E081E00E946E0301C0F8
:102D4000C1E08C2FCF9108952FEFFC0120830895CF
:102D5000EF92FF920F931F93CF93DF93EC01062F17
:102D6000E8818E2F90E0FC013197E331F10508F006
:102D700091C0EE59FF4F0C946424198289E04DC034
:102D80008981823039F0833061F0813029F50E94E9
:102D90006C1C02C00E943C169A838B837C836D83DB
:102DA0007BC07E0110E0812F0E940612F701928302
:102DB00083831F5FF2E0EF0EF11C1530A1F76CC0AA
:102DC0008981823049F46A817B818C819D810E9456
:102DD0006A240E94461660C0602FCE010E94A4168D
:102DE0005BC04B816A8189810E94B1189C838D836D
:102DF00053C02C813D813227232732274B816A81A2
:102E000089810E94CA1848C00E94DF1845C00E94EC
:102E1000711924C00E94731999838A833DC06B8104
:102E200070E089819A81AE014C5F5F4F98278927B6
:102E300098270E94761930C06B8170E089819A8151
:102E4000AE014C5F5F4F9827892798270E949B19F6
:102E500023C00E94BE1920C00E949E1889831CC0F6
:102E60006B8170E089819A81AE014C5F5F4F98273A
:102E7000892798270E941E190FC06B8170E08981F5
:102E80009A81AE014C5F5F4F9827892798270E944F
:102E9000421902C08FEF8883602FCE01DF91CF915E
:102EA0001F910F91FF90EF900C94521DCF93DF93E1
:102EB000EC01FB018281882309F43CC1C330FDE5AC
:102EC000DF0760F4CA3F9CE5D90788F49E012250D1
:102ED0003C452431310508F02EC109C0C136EDE56D
:102EE000DE0729F0C53AFDE5DF0709F024C10E949D
:102EF000610E90934B0280934A02C1318CE5D80752
:102F000009F4C6C008F042C0C930ECE5DE0709F498
:102F10009BC000F5C5308CE5D80709F485C078F46E
:102F2000C330ECE5DE0709F478C008F07AC0C2309F
:102F3000DC4509F0F5C080914A028160EFC0C730DE
:102F40009CE5D90709F478C008F07AC080914A025C
:102F50008061E4C0CD30FCE5DF0709F487C058F498
:102F6000CB309CE5D90709F479C008F07BC080918B
:102F70004A0288606FC0CF30FCE5DF0709F480C0EB
:102F800008F082C080914A02877FC8C0CD3F9CE58F
:102F9000D90709F471C000F5C531FCE5DF0709F474
:102FA00085C068F4C3319CE5D90709F475C008F001
:102FB00095C00E94D50880914A028F77AFC0CB3F61
:102FC000FCE5DF07A9F108F054C0CA3FDC4509F071
:102FD000A7C080914B0240C0C130EDE5DE0709F487
:102FE00089C058F4CF3F8CE5D80709F45AC008F0DF
:102FF00069C080914B0282602FC0C136EDE5DE07CB
:1030000009F47CC0C53AFDE5DF0709F481C0C23090
:10301000DD4509F085C080E06EC080914A02826083
:103020007DC080914A0216C080914A02886076C0B5
:1030300080914B0282604FC080914A0280626EC0D4
:1030400080914A0280646AC00E94D50880914A0239
:10305000806864C0846062C081603DC080914A0223
:103060008E7F5CC080914A028D7F58C080914A0259
:1030700016C080914B0218C080914B028D7F2BC0EF
:1030800080914A028F7E4AC080914A028F7D46C05D
:1030900080914A028F7B42C080914A02877F8B7F5A
:1030A0003DC080914B028D7F8E7F15C080914A027A
:1030B00082FB222720F991E0922790FB82F990FB76
:1030C00083F92CC080914B02982F909591708E7F40
:1030D000892B90FB81F980934B0222C00E94D50876
:1030E00080914A0287FB222720F991E0922790FBEA
:1030F00087F914C081E00E94F70E12C080914A0245
:1031000084FB222720F991E0922790FB84F906C0E6
:1031100080914A02982F909590FB80F980934A0203
:1031200080914A0290914B020E94720E0E94D50833
:1031300080E001C081E0DF91CF91089584E008959F
:1031400050E0440F551F2EE1629F400D511D112488
:103150009A0166E9869F200D311D1124C9018796C9
:1031600008950F931F93CF93DF930E94A0188C01B3
:103170000E949224C82FD0E0DC2FCC27C8010196F2
:103180000E9492249E01282BC901DF91CF911F91AB
:103190000F9108950F931F93CF93DF93122F032F57
:1031A0000E94A018EC01602F0E94A024612FCE0184
:1031B0000196DF91CF911F910F910C94A024AF92B3
:1031C000BF92CF92DF92EF92FF920F931F93CF9314
:1031D000DF93A12CE12CF12CB12C00E010E0C0E039
:1031E000D0E06701C00ED11EFE01EE0FFF1FEC0DF7
:1031F000FD1DE250FF4F259134914C2F6B2D8A2DF0
:103200000E94CA182196CF30D10571F7025E1F4F78
:10321000B39485E0B812E3CF86E9E80EF11CA394DD
:1032200084E0A812D9CFDF91CF911F910F91FF9029
:10323000EF90DF90CF90BF90AF900895EF92FF9204
:103240000F931F93CF93DF93EA017A01E60EF71EE7
:103250008C01C8018796CE15DF0569F0083522E09C
:10326000120720F40E949224888301C018822196BC
:103270000F5F1F4FEECFDF91CF911F910F91FF9006
:10328000EF900895EF92FF920F931F93CF93DF93E8
:10329000EA017A01E60EF71E8C01C8018796CE1569
:1032A000DF0559F0083522E0120718F468810E9402
:1032B000A02421960F5F1F4FF0CFDF91CF911F9178
:1032C0000F91FF90EF900895462F843038F47530B9
:1032D00028F46F3018F4672F0C94B11880E090E058
:1032E000089580E1089581E891E00895EF92FF92BA
:1032F0000F931F93CF93DF93EA017A01E60EF71E37
:103300008C01C80181589D4FCE15DF0569F0013849
:1033100021E0120720F40E949224888301C01882C1
:1033200021960F5F1F4FEDCFDF91CF911F910F912E
:10333000FF90EF900895EF92FF920F931F93CF931A
:10334000DF93EA017A01E60EF71E8C01C80181586D
:103350009D4FCE15DF0559F0013821E0120718F412
:1033600068810E94A02421960F5F1F4FEFCFDF914D
:10337000CF911F910F91FF90EF900895CF93DF931E
:10338000CFE7D2E060E0CE010E94A0242196C115D3
:1033900084E0D807B9F7DF91CF910895DF92EF92DB
:1033A000FF920F931F93CF93DF9300D000D0CDB740
:1033B000DEB7F82E8FE08F15E8F18FEF93E00E94D3
:1033C0009224811137C00FE712E0FF2069F0011548
:1033D00084E0180779F1C8010E949224811101C08C
:1033E000FA940F5F1F4FF1CF19821A821B821C8241
:1033F000DD24D39478018FEFE81AF80AC8010E94FF
:10340000922489831A828823A9F09FEF980F933022
:1034100058F48A83D9820E5F1F4FC7010E949224FD
:103420008B83882339F07801CE0101960E94BB047A
:103430008701E0CF0F900F900F900F90DF91CF9109
:103440001F910F91FF90EF90DF900895CF93DF933E
:1034500086319C4541F5EB010E94650D982F8A81CC
:103460002091020130910301882379F09A7A81E05A
:1034700009F480E080933102911102C069E201C039
:1034800065E3C9010E94B91B0AC080913102811114
:1034900002C069E201C065E3C9010E94BB1B0E9432
:1034A000A70D80E001C081E0DF91CF9108950F93D7
:1034B0001F93CF93DF93C42FD22FFC0182818823E7
:1034C000C9F0409334020E94601C909333028093B1
:1034D000320280E28C0F883008F057C0C77081E05C
:1034E00001C0880FCA95EAF7DF91CF911F910F9124
:1034F0000C94630680913402481330C080913202EC
:10350000909133020E94781C883C910538F510E2B6
:103510001D0FCD17B9F080E28C0F883040F4C770D2
:1035200081E001C0880FCA95EAF70E946A06183048
:1035300028F581E09D2F977001C0880F9A95EAF7D2
:103540000E946306802F0E945A061830F0F4D7704C
:1035500081E001C0880FDA95EAF70AC080E28C0F9B
:10356000883098F4C77081E001C0880FCA95EAF7E7
:10357000DF91CF911F910F910C946A06802FDF91FC
:10358000CF911F910F910C945A06DF91CF911F910B
:103590000F9108950F939C01CB01233F4CE5340715
:1035A00031F188F4283DFCE53F07D9F0293D4CE591
:1035B000340779F1273D3C45A9F506E221EE41EEBD
:1035C00067ED7CE52BC0253FFCE53F07E1F0A8F067
:1035D000263F3C4539F507E225EE46EE66EF7CE5F1
:1035E0001DC007E225EE45EE68ED7CE517C006E25A
:1035F00021EE40EE63EF7CE511C007E225EE44EEDC
:1036000064EF7CE50BC006E221EE42EE65EF7CE55F
:1036100005C008E221E045EE69ED7CE50E94571AFD
:1036200080E008C0FC018281882319F010923402E6
:1036300001C081E00F91089590939F0180939E01B6
:10364000089590933A02809339020895E0913902E7
:10365000F0913A02309721F00190F081E02D099429
:1036600080E00895E0913902F0913A02309721F01C
:103670000280F381E02D09940895E0913902F091E0
:103680003A02309739F022E0DC012C930480F58176
:10369000E02D0994089520913702309138022817BF
:1036A000390771F09093380280933702E091390224
:1036B000F0913A02309721F00680F781E02D0994CD
:1036C000089520913502309136022817390771F09C
:1036D0009093360280933502E0913902F0913A02DC
:1036E000309721F00084F185E02D09940895FC01C4
:1036F000329697E080E0915029F021912223D9F36E
:103700008F5FF9CF0895662349F0FC013296089641
:103710002191621729F0E817F907D1F780E00895A1
:1037200081E008959C01FC0132969FEF80E0419179
:10373000461789F09F3F19F4411101C0982F8F5F00
:103740008630A9F79F3F39F0F901E90FF11D97FD88
:10375000FA956283089508959C012A5F3F4FFC010A
:103760004281461301C01282019682179307B9F76E
:1037700008950C94921B0C94AC1B029626E0FC015D
:1037800011922A95E9F7089508950C94C41B83E0DB
:1037900080933B020C94C51B811102C081E001C0E3
:1037A00082E080933B020C94C51B0C94CC1B81E0FF
:1037B00080933B020C94C51B0C94D71B08950C946A
:1037C000DE1B0C94DF1B0C94DE1B0C94DE1B0C9494
:1037D000DE1BCF930E94E51B0E94DC120E94E31BBC
:1037E000C0E08C2F0E940612892B29F4CF5FC530D0
:1037F000C1F780E001C081E0CF91089508951F9244
:103800000F920FB60F9211248F939F93AF93BF9394
:1038100080913C02811113C08091600290916102FD
:10382000A0916202B09163024196A11DB11D8093E7
:10383000600290936102A0936202B0936302BF9111
:10384000AF919F918F910F900FBE0F901F90189581
:1038500080916802843031F10E94E40310923C02AE
:1038600020E488E190E00FB6F894A895809360007A
:103870000FBE2093600083B7817F846083BF83B7CE
:10388000816083BF7894889583B78E7F83BF0FB69E
:10389000F894A895809160008861809360001092F0
:1038A00060000FBE08950E94D5080C94E80382E0E2
:1038B00084BD93E095BD9AEF97BD80936E00089507
:1038C0002FB7F8948091600290916102A0916202FA
:1038D000B09163022FBF08952FB7F89460916002F2
:1038E0007091610280916202909163022FBF0895EE
:1038F0009C014FB7F8948091600290916102A09171
:103900006202B09163024FBF821B930B08957894BB
:103910001F920F920FB60F9211248F939F93AF9324
:10392000BF938091600290916102A0916202B09178
:1039300063020196A11DB11D809360029093610204
:10394000A0936202B0936302BF91AF919F918F9158
:103950000F900FBE0F901F90189581E08093E000AC
:1039600080E28093D8001092C9008FE19EE4019715
:10397000F1F700C0000087E090EBDC01809371025A
:1039800090937202A0937302B09374029CE088E15A
:103990000FB6F894A895809360000FBE90936000D6
:1039A000FFCF809148020895089524E02093E90014
:1039B0002FEF3091E800215035FD06C035ED3A95E6
:1039C000F1F700002111F5CF2091E80025FF0BC091
:1039D00040E050E066E070E00E94671F8091E800E0
:1039E0008E778093E8000895CF93DF9321E02093B2
:1039F000E9002FEF3091E800215035FD06C035ED8C
:103A00003A95F1F700002111F5CF2091E80025FF4C
:103A100014C0EC0140E050E068E070E00E94671FD5
:103A20008091E8008E778093E80088E0FE01A0E4B2
:103A3000B2E001900D928A95E1F7DF91CF91089560
:103A400080933D0270933F0260933E028091680232
:103A50008430F9F48093E9008FEF9091E800815071
:103A600095FD06C095ED9A95F1F700008111F5CF0F
:103A70008091E80085FF0DC040E050E063E070E019
:103A80008DE392E00E94671F8091E8008E7780931B
:103A9000E8000895BC0184E00C94201DBC0183E083
:103AA0000C94201DCF93603219F5209168022430C8
:103AB000F9F4C091E900CF703091EC00232F217010
:103AC00030FD20E8C22B22E02093E9002091E8009D
:103AD00020FF0BC040E050E060E270E00E94671FF2
:103AE0008091E8008E778093E800CF70C093E90062
:103AF000CF91089580916702811109C00E944321EE
:103B00000E94A0218091E20084608093E2000895E9
:103B10001092670208950C94DC1B6091640281E0AE
:103B2000611101C080E00C94C71B9091680281E094
:103B3000943009F080E0609164020C94CC1B42E068
:103B400061EC81E00E94BC2042E261EC84E00E94D2
:103B5000BC2042E261EC82E00E94BC2042E260ECC8
:103B600083E00E94BC209091680281E0943009F0CB
:103B700080E0609164020C94D51B80916A028330CE
:103B800009F463C030F4813071F0823009F49CC0D4
:103B900008958A3009F488C08B3009F46EC08930EA
:103BA00009F0AAC020C080916902813A09F0A4C03E
:103BB0008091E800877F8093E80080916D0290916A
:103BC0006E02892B21F468E080E492E003C060E09B
:103BD00080E090E070E00E94FD1F8091E8008B770C
:103BE0008093E800089580916902813209F084C0D1
:103BF00080916D0290916E02009719F0029709F082
:103C00007BC08091E800877F8093E8008091E80086
:103C100082FD05C0809168028111F8CF6DC02091AE
:103C2000F3008091F20090E0922B029731F48091A2
:103C3000F100813011F0863021F48091F100809301
:103C400048028091E8008B7753C080916902813AE5
:103C500009F052C080916D0290916E02892B09F09B
:103C60004BC08091E800877F8093E8008091E80056
:103C700080FFFCCF8091180136C0809169028132AB
:103C8000D9F580916D0290916E02892BA9F58091F2
:103C9000E800877F8093E8000E94F12080916B020A
:103CA000809318010C94D50880916902813221F526
:103CB0008091E800877F8093E8000E94F120809146
:103CC0006C0280934902089580916902813AA1F4BF
:103CD0008091E800877F8093E8008091E80080FF72
:103CE000FCCF809149028093F1008091E8008E77AB
:103CF0008093E8000C94F120089584B7877F84BFF7
:103D00000FB6F894A8958091600088618093600058
:103D1000109260000FBE90E080E80FB6F894809398
:103D20006100909361000FBE0C94D71B0E94432149
:103D30000E94A021E2EEF0E080818460808378948C
:103D40000C9435248CE091E00C94211B8091680246
:103D50008530A9F480916802853079F40E94281C8E
:103D6000809166028823B1F30E94E91B882391F3B6
:103D70000E94511F0E94D508EDCF0C94531C08954A
:103D8000CF93DF93CDB7DEB7A0970FB6F894DEBF21
:103D90000FBECDBF80916802843011F583E080931F
:103DA000E9008091E80082FF1BC08091E80085FF58
:103DB0000AC040E050E060E270E0CE0101960E944F
:103DC000B21F91E001C090E08091E8008B77809372
:103DD000E800992329F060E2CE0101960E94A8161E
:103DE000A0960FB6F894DEBF0FBECDBFDF91CF9186
:103DF00008950C94FB1E292F332723303105C9F079
:103E000060F42130310581F02230310509F041C0E4
:103E10008BE590E02EE334E040C021323105E1F043
:103E20002232310531F135C082E190E029E934E0F8
:103E300034C099278130910549F028F0029749F55F
:103E4000E6E0F4E005C0EAE3F4E002C0E6E2F4E014
:103E5000849190E09F0121C063307105D0F4660F1A
:103E6000771FFB01E856FE4F2081318189E090E009
:103E700014C06330710568F4FB01EE0FFF1FEE56AE
:103E8000FE4F20813181FB01E157FE4F808190E0A0
:103E900004C080E090E020E030E0FA01318320832C
:103EA000089580E189BD82E189BD09B400FEFDCF9E
:103EB0008091D8008F7D8093D8008091E00082604F
:103EC0008093E0008091E00081FDFCCF0895CF92C7
:103ED000DF92EF92FF920F931F93CF93DF93EC014A
:103EE0008B017A010E941021811133C0E114F10489
:103EF00039F0F70180819181081B190BC80FD91F78
:103F0000C12CD12C0115110519F18091E80085FD16
:103F100016C08091E8008E778093E800E114F104E8
:103F200049F0F70180819181C80ED91ED182C082EB
:103F300085E00FC00E941021882321F30AC08991D7
:103F40008093F10001501109FFEFCF1ADF0ADACF99
:103F500080E0DF91CF911F910F91FF90EF90DF9064
:103F6000CF900895CF92DF92EF92FF920F931F931D
:103F7000CF93DF93EC018B017A010E941021811114
:103F800033C0E114F10439F0F70180819181081BFD
:103F9000190BC80FD91FC12CD12C0115110519F10E
:103FA0008091E80085FD16C08091E8008B778093B2
:103FB000E800E114F10449F0F70180819181C80E15
:103FC000D91ED182C08285E00FC00E9410218823B3
:103FD00021F30AC08091F100899301501109FFEF8C
:103FE000CF1ADF0ADACF80E0DF91CF911F910F91D6
:103FF000FF90EF90DF90CF90089520916F02309165
:1040000070022617370748F06115710539F42091C1
:10401000E8002E772093E80001C0B901FC0120E000
:104020006115710579F1809168028823F1F185307D
:10403000F1F18091E80083FD3CC08091E80082FDB1
:104040002EC08091E80080FFEBCF2091F30080919B
:10405000F20090E0922B6115710551F088309105C6
:1040600038F421912093F100615071090196F3CF4A
:1040700021E0089709F020E08091E8008E77809396
:10408000E800CECF2111CFCF0AC0809168028823EB
:1040900061F0853061F08091E80083FD0AC0809175
:1040A000E80082FFF2CF80E0089582E0089583E087
:1040B000089581E0089520916F02309170022617D3
:1040C000370748F06115710539F42091E8002E7723
:1040D0002093E80001C0B901FC0120E061157105E1
:1040E00091F180916802882309F440C0853009F479
:1040F0003FC08091E80083FD3DC08091E80082FDD3
:104100002FC08091E80080FFE9CF2091F3008091DB
:10411000F20090E0922B6115710559F088309105FD
:1041200040F424912093F100319661507109019679
:10413000F2CF21E0089709F020E08091E8008E7727
:104140008093E800CBCF2111CCCF0AC080916802C8
:10415000882361F0853061F08091E80083FD0AC01A
:104160008091E80082FFF2CF80E0089582E0089518
:1041700083E0089581E00895982F973068F5909333
:10418000E900981739F07091EC002091ED00509102
:10419000F00003C0242F762F50E021FD02C09F5F66
:1041A000ECCF3091EB003E7F3093EB003091ED008F
:1041B0003D7F3093ED003091EB0031603093EB00A8
:1041C0007093EC002093ED005093F0002091EE00EE
:1041D00027FDE5CF80E008958F708093E90081E0AE
:1041E00008958091690287FF11C08091E80082FDE7
:1041F00005C0809168028111F8CF11C08091E8005C
:104200008B770BC080916802882349F08091E80089
:1042100080FFF8CF8091E8008E778093E8000895C2
:104220002091E4003091E50095E64091EC00842F68
:10423000817040FF23C08091E80080FD1DC0809107
:104240006802882399F0853099F08091EB0085FD14
:1042500011C04091E4005091E5002417350729F37F
:10426000915011F09A01E1CF84E0089582E0089521
:1042700083E0089581E0089580E008954091E8008A
:1042800042FFDDCF08950E94B1210E94B921E0EEE6
:10429000F0E0808181608083E8EDF0E080818F77BD
:1042A000808319BCA7EDB0E08C918E7F8C938081C8
:1042B0008F7E80831092670208950F931F93CF9390
:1042C000DF930E94B1210E94B921C8EDD0E088811E
:1042D0008F77888388818068888388818F7D8883B1
:1042E00019BC109268021092640210926602109239
:1042F000650200EE10E0F80180818B7F8083888169
:104300008160888342E060E080E00E94BC20E1EEB2
:10431000F0E080818E7F8083E2EEF0E0808181603A
:104320008083808188608083F80180818E7F808394
:10433000888180618883DF91CF911F910F910895CB
:10434000E8EDF0E080818F7E8083E7EDF0E0808112
:104350008160808384E082BF81E0809367020C9457
:104360005D21E8EDF0E080818E7F80831092E20095
:1043700008951092DA001092E10008951F920F92B2
:104380000FB60F9211242F933F934F935F936F9328
:104390007F938F939F93AF93BF93EF93FF938091FE
:1043A000E10082FF0BC08091E20082FF07C0809194
:1043B000E1008B7F8093E1000E9434248091DA0039
:1043C00080FF1FC08091D80080FF1BC08091DA0061
:1043D0008E7F8093DA008091D90080FF0DC080E14C
:1043E00089BD82E189BD09B400FEFDCF81E08093E3
:1043F00068020E947A1D05C019BC109268020E94D2
:10440000881D8091E10080FF19C08091E20080FF4B
:1044100015C08091E2008E7F8093E2008091E200DF
:1044200080618093E2008091D80080628093D80000
:1044300019BC85E0809368020E948D1D8091E10087
:1044400084FF30C08091E20084FF2CC080E189BDF0
:1044500082E189BD09B400FEFDCF8091D8008F7D37
:104460008093D8008091E1008F7E8093E10080915D
:10447000E2008F7E8093E2008091E2008160809371
:10448000E20080916402882311F084E007C08091EB
:10449000E30087FD02C081E001C083E080936802F1
:1044A0000E94951D8091E10083FF29C08091E20068
:1044B00083FF25C08091E100877F8093E10082E047
:1044C00080936802109264028091E1008E7F809355
:1044D000E1008091E2008E7F8093E2008091E20013
:1044E00080618093E20042E060E080E00E94BC20B6
:1044F0008091F00088608093F0000E948B1DFF91F6
:10450000EF91BF91AF919F918F917F916F915F914B
:104510004F913F912F910F900FBE0F901F901895C4
:104520001F920F920FB60F9211242F933F934F9328
:104530005F936F937F938F939F93AF93BF93CF932B
:10454000DF93EF93FF93C091E900CF708091EC006F
:10455000D82FD17080FDD0E81092E9008091F00052
:10456000877F8093F00078940E94D4221092E90013
:104570008091F00088608093F000CD2BCF70C093C5
:10458000E900FF91EF91DF91CF91BF91AF919F91A2
:104590008F917F916F915F914F913F912F910F90EC
:1045A0000FBE0F901F9018951F93CF93DF93CDB739
:1045B000DEB7AA970FB6F894DEBF0FBECDBFE9E60F
:1045C000F2E08091F100819322E0E137F207C9F730
:1045D0000E94BD1D8091E80083FF2EC18091690279
:1045E00090916A02492F50E04A30510508F024C1E9
:1045F000FA01EB58FF4F0C946424803821F0823884
:1046000009F01AC108C08091650290916602992351
:1046100089F082600FC080916D028F70873008F042
:104620000BC18093E9008091EB0085FB882780F91E
:104630001092E9009091E800977F9093E8008093B2
:10464000F1001092F100D1C0282F2D7F09F0F4C0A5
:10465000882319F0823061F0EFC080916B028130C5
:1046600009F0EAC0933009F080E0809366022EC022
:1046700080916B0281112AC080916D028F702FEFA3
:10468000280F263008F0D8C08093E9002091EB0075
:1046900020FF1CC0933021F48091EB00806214C095
:1046A0009091EB0090619093EB0021E030E0A90144
:1046B00002C0440F551F8A95E2F74093EA0010921A
:1046C000EA008091EB0088608093EB001092E90093
:1046D0008091E800877F8093E8000E94F120ACC0C1
:1046E0008111AAC010916B021F778091E30080783E
:1046F000812B8093E3008091E800877F8093E8001E
:104700000E94F1208091E80080FFFCCF8091E300BF
:1047100080688093E300111102C082E001C083E051
:104720008093680289C08058823008F085C08091EB
:104730006B0290916C028C3D53E0950779F583E014
:104740008A838AE289834FB7F894DE01139620E0CA
:104750003EE051E2E32FF0E050935700E49120FF58
:1047600003C0E295EF703F5FEF708E2F90E0EA306C
:1047700010F0C79601C0C0968D939D932F5F243192
:1047800049F74FBF8091E800877F8093E8006AE295
:1047900070E0CE0101960E94FD1F16C060916D026F
:1047A00070916E02AE014F5F5F4F0E94F91EBC0117
:1047B000892B09F441C09091E800977F9093E8001D
:1047C00089819A810E945B208091E8008B77809399
:1047D000E80032C0803881F58091E800877F8093BF
:1047E000E800809164028093F1008091E8008E7768
:1047F00072CF811121C080916B0290916C02992738
:104800000297D4F48091E800877F8093E80080913C
:104810006B02809364020E94F120809164028111F6
:1048200006C08091E30087FD02C081E001C084E002
:10483000809368020E949F1D8091E80083FF0AC058
:104840008091E800877F8093E8008091EB00806290
:104850008093EB00AA960FB6F894DEBF0FBECDBFD3
:10486000DF91CF911F9108950895CF9380916802B1
:104870008823A1F0C091E900CF709091EC00892FBE
:10488000817090FD80E8C82B1092E9008091E800CB
:1048900083FD0E94D422CF70C093E900CF91089588
:1048A00097FB072E16F4009407D077FD09D00E94DD
:1048B000712407FC05D03EF4909581959F4F089593
:1048C000709561957F4F0895EE0FFF1F0590F4914D
:1048D000E02D099469279627692778278727782765
:1048E0000895AA1BBB1B51E107C0AA1FBB1FA61737
:1048F000B70710F0A61BB70B881F991F5A95A9F789
:1049000080959095BC01CD010895FB01DC0104C0A8
:104910008D910190801921F441505040C8F7881BB7
:10492000990B0895F999FECF92BD81BDF89A992708
:1049300080B50895A8E1B0E042E050E00C94C624B0
:10494000262FF999FECF92BD81BDF89A019700B448
:10495000021639F01FBA20BD0FB6F894FA9AF99AE8
:104960000FBE08950396272F0E94A1240E94A02421
:10497000252F0E94A124242F0C94A1240196272FD7
:104980000E94A1240C94A024DC01CB01FC01F99924
:10499000FECF06C0F2BDE1BDF89A319600B40D928B
:0C49A00041505040B8F70895F894FFCF44
:1049AC00C8000402280850011E0A1401D11CF41C72
:1049BC00D51C4E1D4A1DD41C01E200E900EA00B5CD
:1049CC0000B600B700CD008301CC008A019201949F
:1049DC00012102230224022502260227022A02B305
:1049EC0000B4006F007000818283E200E900EA00ED
:1049FC00B500B600B700CD008301CC008A0192014E
:104A0C0094012102230224022502260227022A02F3
:104A1C00B300B4006F007000818283F7F6F5F4F1F7
:104A2C00F0C6303794969736353490929566674039
:0E4A3C00227B4805AB04CD04500469048904B4
:00000001FF
