:100000000C94C8020C94E5020C94E5020C94E502F1
:100010000C94E5020C94E5020C94E5020C94E502C4
:100020000C94E5020C94E5020C94D1190C940D1972
:100030000C94361C0C94E5020C94E5020C94E50239
:100040000C94E5020C94E5020C94E5020C94E50294
:100050000C94E5020C94F51B0C94E5020C94E5025B
:100060000C94E5020C94E5020C94E5020C94E50274
:100070000C94E5020C94E5020C94E5020C94E50264
:100080000C94E5020C94E5020C94E5020C94E50254
:100090000C94E5020C94E5020C94E5020C94E50244
:1000A0000C94E5020C94E5020C94E5026B076B07D7
:1000B0009E079E0711082F083B093B093A08AE0826
:1000C000BF08BF08E40DE70D080E150E1C0E3C0E10
:1000D0003F0E810EA20E460F460FAD0EAF0EB40EB0
:1000E000DA0EFD0E000F030F260F1F174617EF182D
:1000F0004617EF189217B517EF18AA18BA1800008C
:1001000000000000000000000000000000000000EF
:1001100000000000000000000000000000000000DF
:1001200000007E0F00D4FFFFFFC700000078000032
:100130000000000000002A2B280000000000000042
:1001400000000000000000000029000000002C1E3C
:100150003420212224342627252E362D3738271EF9
:100160001F202122232425263333362E37381F041F
:1001700005060708090A0B0C0D0E0F1011121314B7
:1001800015161718191A1B1C1D2F3130232D350475
:1001900005060708090A0B0C0D0E0F101112131497
:1001A00015161718191A1B1C1D2F3130354C000459
:1001B0007F3F1F643214643214783C1E1E140A05FB
:1001C00005010902A10185020901A1000509190122
:1001D00029081500250195087501810205010930DE
:1001E00009311581257F9502750881060938158129
:1001F000257F950175088106050C0A3802158125B1
:100200007F950175088106C0C005010980A101859F
:100210000319012AB700150126B700950175108151
:1002200000C0050C0901A101850419012AA00215CD
:100230000126A002950175108100C00660FF0961CA
:10024000A1010962150026FF0095207508810209A9
:1002500063150026FF00952075089102C00501096D
:1002600006A101050719E029E71500250195087584
:100270000181029501750881010507190029FF1503
:100280000026FF009506750881000508190129055B
:10029000950575019102950175039101C009025BF5
:1002A00000030100A0FA0904000001030101000994
:1002B0002111010001224000070581030800010906
:1002C00004010002030000000921110100012222A3
:1002D0000007058203200001070503032000010930
:1002E0000402000103000000092111010001227B2A
:1002F000000705840320000112010002000000082D
:1003000012D812000100010200010A035B006E0016
:100310005D003900000026034E00650069006C0096
:10032000200042007200690061006E00200052004F
:1003300061006D006900720065007A00000004032E
:1003400009042223252628292A2C2D2F3032333543
:1003500036383A3B3D3E4042434547494A4C4E5071
:1003600051535557595A5C5E6062646668696B6D9B
:100370006F71737577797B7D7F81838587898A8C9F
:100380008E90929496989A9C9E9FA1A3A5A7A8AAA6
:10039000ACAEAFB1B3B4B6B8B9BBBCBEBFC1C2C3DB
:1003A000C5C6C7C9CACBCCCDCED0D1D2D2D3D4D575
:1003B000D6D7D7D8D9D9DADADBDBDBDCDCDCDCDC9E
:1003C000DDDDDDDDDCDCDCDCDCDBDBDBDADAD9D976
:1003D000D8D7D7D6D5D4D3D2D2D1D0CECDCCCBCA04
:1003E000C9C7C6C5C3C2C1BFBEBCBBB9B8B6B4B32A
:1003F000B1AFAEACAAA8A7A5A3A19F9E9C9A9896C0
:100400009492908E8C8A89878583817F7D7B797792
:100410007573716F6D6B6968666462605E5C5A5972
:1004200057555351504E4C4A4947454342403E3D33
:100430003B3A3836353332302F2D2C2A29282625C1
:1004400023221E001F002000210022002300240080
:10045000250026000100010001000100010001004B
:100460000100010001000100010001000100010084
:100470000100010001000100010001000100010074
:100480000100010001000100010000010101010162
:10049000010101010202020202020202020303033D
:1004A000030303030304040404040404050505050D
:1004B00005060606060607070707070808080809CD
:1004C0000909090A0A0A0B0B0B0C0C0C0D0D0D0E79
:1004D0000E0E0F0F0F10101111111212131314140E
:1004E000151516161717181819191A1A1B1B1C1D83
:1004F0001D1E1E1F202021222223242425262627DC
:100500002829292A2B2C2D2D2E2F3031323233340D
:1005100035363738393A3B3C3D3E3F404142434413
:1005200045464748494A4C4D4E4F505153545556F5
:1005300058595A5B5D5E5F616264656668696B6CA1
:100540006D6F7072737577787A7B7D7E808283851C
:1005500087888A8C8E8F91939596989A9C9EA0A25C
:10056000A3A5A7A9ABADAFB1B3B5B7BABCBEC0C266
:10057000C4C6C9CBCDCFD1D4D6D8DBDDDFE2E4E72A
:10058000E9EBEEF0F3F5F8FAFDFFFFAA7F55400026
:1005900011241FBECFEFDAE0DEBFCDBF11E0A0E037
:1005A000B1E0E6EFFCE402C005900D92A638B10779
:1005B000D9F722E0A6E8B1E001C01D92AD34B20740
:1005C000E1F70E94590A0C9479260C9400001F93BD
:1005D000CF93DF93CDB7DEB767970FB6F894DEBF42
:1005E0000FBECDBF4B8B5C8B6D8B7E8B8F8B611168
:1005F0001092E20186E09E01235F3F4FD901E82F70
:100600001D92EA95E9F795E0FE017396D9010190F4
:100610000D929A95E1F79C894E895F897B897D8748
:100620009E876F87598B488BF901DE0117960190E1
:100630000D928A95E1F7CE0107960E94D0138111A1
:100640003EC086E0FE013796DE01119601900D92C4
:100650008A95E1F7FF81E8856A857B8561157105DB
:1006600031F0EF3F31F481E0FF3F19F403C081E046
:1006700001C080E080FD23C02091A70130E0C901C6
:100680000196877099274091D80150E0841795070B
:1006900079F1F983EA837D836C8396E0929FD001A0
:1006A000939FB00D1124A855BE4FFE0131960190C5
:1006B0000D929A95E1F78093A7010E944D1316E0E1
:1006C0008091D8019091A7018917F9F0189FC00176
:1006D000112488559E4F0E94D0138823B1F0809139
:1006E000D80190E00196877099278093D801E8CFD0
:1006F0000E9451241092A7011092D801E1EAF1E082
:1007000086E0DF011D928A95E9F767960FB6F894A7
:10071000DEBF0FBECDBFDF91CF911F9108953F92F5
:100720004F925F926F927F928F929F92AF92BF9201
:10073000CF92DF92EF92FF920F931F93CF93DF93AD
:10074000CDB7DEB729970FB6F894DEBF0FBECDBF89
:10075000FC018081918123813481232B31F09F3FE3
:1007600031F491E08F3F19F403C091E001C090E0B3
:1007700090FD87C67F0185E0DE01119601900D9204
:100780008A95E1F7F701228189819A81222349F034
:100790000E948C23182F682F89819A810E94E72359
:1007A00003C00E94BB23182F69817A81812F0E9488
:1007B0009B1D8C01F7018281882309F4F1C0980107
:1007C00022513F452031310508F01CC18FEF93E0E5
:1007D0000E948F258111EEC002513FE6832E912C9D
:1007E000002379F08114F4E09F0609F4E3C0C4010A
:1007F0000E948F25811101C001502FEF821A920AA9
:10080000EFCF1E821F8218861986442443942AE063
:10081000322E84010F5F1F4FC4010E948F258E83EB
:100820001F82882309F4C6C09FEF980F933060F4AD
:100830008F834E8232E0830E911CC8010E948F2567
:100840008887811102C0B6C048018E010A5F1F4F20
:10085000F80120812223E9F2213009F04CC0818186
:10086000813049F46801F2E0CF0ED11CF801828199
:100870000E9471250AC0823051F46801F2E0CF0E67
:10088000D11CF80182810E94CD24860186C083306C
:1008900049F46801F2E0CF0ED11CF80182810E9478
:1008A0006D24F3CF843019F00F5F1F4F76C0F8012D
:1008B00022810E5F1F4F80E090E030E0205331092D
:1008C0002A30310568F4389EA001399E500D11245C
:1008D000C901840F951F0F5F1F4FF8012081EDCFD5
:1008E000009709F45AC0EFE9FFE03197F1F700C033
:1008F00000000197F5CFE22FF0E0E25DFE4F54904B
:10090000822F86958695869590E0FC01E25EFE4FEB
:1009100064902770712C022E02C0759467940A941B
:10092000E2F7F1E06F227724FC01E25FFE4FA49032
:10093000B12C022E02C0B594A7940A94E2F731E0DC
:10094000A322BB24FC01E250FF4FC490D12C02C073
:10095000D594C7942A95E2F781E0C822DD2461147A
:10096000710419F081EE0E94CD24A114B10419F094
:1009700086EE0E94CD24852D0E947125AB2819F0AA
:1009800086EE0E946D24672819F081EE0E946D2486
:10099000CD2819F08CE20E9471250F5F1F4F58CFB0
:1009A00000313FE5130709F09BC481E00E94162443
:1009B0000E942C168091D901877009F462C5F70155
:1009C0008281882309F45DC580918D0182FD59C51E
:1009D00082E029960FB6F894DEBF0FBECDBFDF913F
:1009E000CF911F910F91FF90EF90DF90CF90BF902C
:1009F000AF909F908F907F906F905F904F903F90BF
:100A00000C9413130031FFE51F0711F481E005C0BA
:100A100001312FE5120721F482E00E942224C8CF81
:100A2000033FFCE51F0749F406E221EE40EE63EFC9
:100A30007CE5C7010E94BE1CBDCF043F2CE5120718
:100A400008F066C1083D3CE5130731F407E225EEE6
:100A500045EE68ED7CE5EDCF093D9CE5190731F4E5
:100A600008E221E045EE69ED7CE5E3CF073DECE5EA
:100A70001E0731F406E221EE41EE67ED7CE5D9CFA9
:100A8000882309F47AC110922B0203309DE51907DF
:100A900058F40A3FECE51E0780F4C80182509C45DB
:100AA000449708F054C109C00136FDE51F0729F03D
:100AB000053A2DE5120709F04AC10E9444129093AD
:100AC0008D0180938C0101313CE5130709F4C6C008
:100AD00008F042C009309CE5190709F49BC000F5F5
:100AE0000530FCE51F0709F485C078F403303CE5C8
:100AF000130709F478C008F07AC002301C4509F0E9
:100B0000F7C080918C018160F1C00730ECE51E07D1
:100B100009F478C008F07AC080918C018061E6C049
:100B20000D302CE5120709F487C058F40B308CE522
:100B3000180709F479C008F07BC080918C018860A7
:100B40006FC00F30ECE51E0709F480C008F082C0CA
:100B500080918C01877FCAC00D3F2CE5120709F4F4
:100B600071C000F505318CE5180709F485C068F4FB
:100B70000331ECE51E0709F475C008F095C00E942A
:100B8000512480918C018F77B1C00B3F2CE5120767
:100B9000A9F108F054C00A3F1C4509F0A9C0809192
:100BA0008D0140C001309DE5190709F489C058F452
:100BB0000F3FFCE51F0709F45AC008F069C0809197
:100BC0008D0182602FC001363DE5130709F47EC018
:100BD000053A8DE5180709F483C002301D4509F078
:100BE00087C060E06EC080918C0182607FC0809180
:100BF0008C0116C080918C01886078C080918D0135
:100C000082604FC080918C01806270C080918C01A5
:100C100080646CC00E94512480918C01806866C001
:100C2000846064C081603DC080918C018E7F5EC015
:100C300080918C018D7F5AC080918C0116C080916B
:100C40008D0118C080918D018D7F2BC080918C010A
:100C50008F7E4CC080918C018F7D48C080918C012B
:100C60008F7B44C080918C01877F8B7F3FC08091B8
:100C70008D018D7F8E7F15C080918C0182FB222794
:100C800020F991E0922790FB82F990FB83F92EC026
:100C900080918D01982F909591708E7F892B90FB7C
:100CA00081F980938D0124C00E94512480918C0190
:100CB00087FB222720F991E0922790FB87F916C045
:100CC00061E08EE090E00E94A32512C080918C012B
:100CD00084FB222720F991E0922790FB84F906C03B
:100CE00080918C01982F909590FB80F980938C01D6
:100CF00060918C0110918D0184E090E00E94A32509
:100D0000612F82E290E00E94A3250E94512452CEDE
:100D1000053FFCE51F0731F406E221EE42EE65EFE8
:100D20007CE587CE053F2CE5120730F407E225EE7F
:100D300044EE64EF7CE57DCE063F3CE5130709F009
:100D40009FCE07E225EE46EE66EF7CE572CE0631D9
:100D50008CE5180721F58091E3018A7A91E009F486
:100D600090E090938801882311F065E301C069E267
:100D700089E991E00E946C1C0FC00631ECE51E076A
:100D800009F040C080918801882309F4B0C265E36E
:100D900089E991E00E945F1C0E94D7120BCE0A35B0
:100DA0003DE5130749F158F401159CE51907B1F029
:100DB0000E3D1C4509F042C00E946012FBCD0B3570
:100DC000FDE51F07D9F00C351D45C1F580918D015A
:100DD00082FB882780F991E0892711C00E94512465
:100DE0003FEF84E39CE0315080409040E1F700C049
:100DF00000000E94E41BDECD81E001C080E00E9483
:100E000030131CC08091E30182720C3CECE51E079C
:100E100009F417C308F09DC2063C2CE5120709F43B
:100E2000FCC208F074C2033C9CE5190709F4EBC24C
:100E300008F05FC2023C1C4509F4C0C2F701828180
:100E400000811181882349F0C8010E948C23D82E8B
:100E5000682FC8010E94E72304C0C8010E94BB2379
:100E6000D82EB8018D2D0E949B1D0E94AA10B82E6D
:100E7000192F982EF7010281A580A2949FE0A92244
:100E80008091D9018770B9F00023A9F0812F807F6C
:100E9000803421F080E28B0D883068F080918D01E4
:100EA00082FD09C082E00E9413138091D9018770EE
:100EB000DD24D3948111D12CC12EC2948FE0C8229D
:100EC0008C2D90E08C30910508F0D5C1FC01EA5AD8
:100ED000FF4F0C942126812F807F1F70882311F0F3
:100EE0001295107F0023B9F0112309F4B2C180E2FA
:100EF0008B0D883010F0911006C08091E301182B03
:100F00001093E30105C08091E201182B1093E201D8
:100F10000E94D7129EC18B2D0E946D24112309F4CB
:100F2000AAC180E28B0D883080F1992071F1109573
:100F30008091E20118231093E2012AC0812F807F63
:100F40001F70803211F01295107F8B2D992021F0A7
:100F5000F1E09F16D9F149C080918D0182FF1BC03D
:100F6000002369F0112339F08091E301182B1093CD
:100F7000E3010E94D71280E00E94CD247CC180E072
:100F80000E946D24112309F476C1812F0E94D01292
:100F90000E94D71270C1002381F08091E401AA2041
:100FA00051F021E0A21207C0182B181709F463C1F1
:100FB0001093E40160C1812B10C0AA2021F031E020
:100FC000A31609F458C10E94CA1227C0002341F099
:100FD00085E08A1508F44FC1812F0E9463244BC11C
:100FE00094E09A1508F447C118C0002349F0AA20DC
:100FF00099F3F701858180FF2CC18F708583ECCF39
:10100000AA2059F0893309F033C1FFEF27EE33E00E
:10101000F15020403040E1F729C1812F0E945C242B
:101020002AC1812F86958695837019F0813061F0F1
:1010300022C1002321F08B2D912F937002C080E0FC
:1010400090E00E949C1C1DC1002321F08B2D912F4C
:10105000937002C080E090E00E94861C12C18B2D2C
:10106000002319F00E94162302C00E945D220E94F4
:10107000332207C1812F8370A9F5011100C14B2DC7
:10108000429546954770440F440F8B2D8F7090E02A
:101090009C01042E01C0220F0A94EAF7B4FE08C096
:1010A0008FE090E001C0880F4A95EAF7809501C073
:1010B00080E0169516951370123069F088F49091BF
:1010C000E501113019F0822B892302C0922B892B64
:1010D0000E942D24D4C0822B9091E5018927F8CF5E
:1010E000822BF6CF002319F0812F817001C08695E5
:1010F000882309F4C4C04B2D429546954770440F90
:10110000440F8B2D8F7090E09C01042E01C0220FA4
:101110000A94EAF7B4FE08C08FE090E001C0880F9F
:101120004A95EAF7809501C080E0169516951370F0
:10113000123059F078F490910002113019F0822B9E
:10114000892309C0922B892B06C0822B9091000223
:10115000892701C0822B0E94122491C01F70002396
:1011600039F0812F0E9422248B2D0E94632487C096
:101170008B2D0E945C24812F0E94162480C08B2D11
:1011800092EF991679F1991538F0E0EF9E1659F023
:10119000F1EF9F1611F159C023EF921651F134EF80
:1011A0009316B9F052C0002379F084E08A1508F450
:1011B00062C01F7181E090E001C0880F1A95EAF7C4
:1011C0009091000289271FC095E09A1508F453C03A
:1011D000F0CF80918D0182FF19C0002329F0812F6B
:1011E0008F7126C00023D9F3812F8F710E9416249E
:1011F00042C0002339F01F7181E001C0880F1A95A9
:10120000EAF701C080E00E94122435C0002399F063
:101210001F71812F0E94222480918D0182FD07C0C1
:10122000E8E01E9FC001112483608093D901812FC3
:101230000E94222420C081E00E941313F1E0FA15DD
:10124000D0F482E00E94131316C0002321F0AA20DC
:1012500031F28B2D91CEAA2039F2893349F42FEF48
:1012600037EE83E0215030408040E1F700C00000BD
:101270008B2D0E946D2488EF8C0D843010F40E9419
:10128000B21CDD2009F4FDC08091D90180FDF9C0B8
:10129000F70112828595859585950E942224C701C4
:1012A0000E948F038091D901859585958595299612
:1012B0000FB6F894DEBF0FBECDBFDF91CF911F9167
:1012C0000F91FF90EF90DF90CF90BF90AF909F90E5
:1012D0008F907F906F905F904F903F900C9416246A
:1012E00001319FE5190709F09BCB82E05FCB69E2F2
:1012F0004FCD043C2CE5120709F48AC0053C1C457F
:1013000009F09CCD43ED51E26CED71E29EC0093CC9
:101310009CE5190709F48BC070F4073CFCE51F0736
:1013200009F480C0083C1C4509F088CD47EC51E227
:101330006BEB71E28AC00A3C3CE5130709F47CC000
:101340000B3C1C4509F07ACD4BE250E26CE370E2B5
:101350007CC0013DECE51E0709F483C098F40E3C07
:101360002CE5120709F477C008F472C00F3C8CE535
:10137000180709F473C0003D1C4509F05FCD6EE00D
:1013800089E077C0043DECE51E0709F470C060F405
:10139000023D2CE5120709F467C0033D1C4509F026
:1013A0004DCD61E088E16AC0053D8CE5180709F480
:1013B00063C00D351D4509F4FDCA40CD809124025E
:1013C00080FF1BC08E7F8093240260912402709165
:1013D000250280912602909127020E9419201092E6
:1013E0000802EFEFF0E722E0E150F0402040E1F7A3
:1013F00000C000000E94201EDDCA8160809324028C
:1014000061E086953BC040E252E269E272E21DC0B3
:1014100049E252E260E272E218C04CED51E263ED43
:1014200071E213C04BEB51E267EC71E20EC043EA8C
:1014300051E26FEA71E209C04FEA51E263EA71E2F8
:1014400004C04CE350E26BE270E20E94041EB2CA98
:1014500061E081E013C065E082E00BC068E086E0F7
:1014600008C064E18FE005C067E185E102C062E287
:1014700089E10E94F21D9ECA61E083E20E94E5219B
:1014800099CA29960FB6F894DEBF0FBECDBFDF9183
:10149000CF911F910F91FF90EF90DF90CF90BF9071
:1014A000AF909F908F907F906F905F904F903F9004
:1014B0000895CF93DF93CDB7DEB7AA970FB6F89410
:1014C000DEBF0FBECDBF84B7877F84BF0FB6F89451
:1014D000A895809160008861809360001092600000
:1014E0000FBE90E080E80FB6F8948093610090936F
:1014F00061000FBE85B7806885BF85B7806885BFEE
:1015000089E99FE090938701809386010E94511999
:101510000E9470198091E20084608093E2007894C8
:101520008091F6018823A1F01091E9001F7090913D
:10153000EC00892F817090FD80E8182B1092E90053
:101540008091E80083FD0E9437161F701093E90018
:1015500082E084BD93E095BD9AEF97BD80936E00C5
:101560000E94D91D811102C00E94CA1D84EF0E94F1
:10157000DE0F81E30E94DE0F83E30E94DE0F86EF21
:101580000E94DE0F87EF0E94DE0F84E90E94DE0FCB
:1015900083E0E6E9F1E0DF01282F1D922A95E9F7C3
:1015A000E9E8F1E0DF011D928A95E9F70E94551202
:1015B000811102C00E94601282E090E00E948F259B
:1015C000809391010E94441290938D0180938C012D
:1015D0000E94F50FEFE3FCE93197F1F700C000003E
:1015E0000E94F50F8091960180FF08C06FEF7FEF9A
:1015F00080E090E00E94C1250E94E41B83E090E01F
:101600000E948F250E942D2480918E01811133C06C
:101610000E945512811104C00E9460120E944D2048
:1016200088E090E00E949725609324027093250241
:1016300080932602909327026E7F71F40E944D20C2
:1016400088E090E00E949725609324027093250221
:1016500080932602909327020E940620109208028F
:101660008091240280FF04C060E086950E94E521FD
:1016700081E080938E0180E091E090932F0280932F
:101680002E0238E1C32ED12C40E4542EBB24B39457
:10169000AA24A3948E010F5F1F4F8091F60185301D
:1016A00009F075C090E1E92E22E1F22E8091F60159
:1016B000853009F057C08091F601843009F43DC0AF
:1016C0001092080280919001811116C0A0929001A1
:1016D00080912402982F917090938F018E7F809338
:1016E0002402FFEF20E732E0F15020403040E1F7E4
:1016F00000C000000E94201E109232020FB6F89423
:10170000A895C09260000FBE5092600083B7817FA1
:10171000846083BF83B7816083BF7894889583B7E3
:101720008E7F83BF0FB6F894A89580916000886182
:1017300080936000109260000FBE8091F5018823B5
:1017400009F4B4CF0E94F50F809196018111C8C3AE
:10175000809197018111C4C380919801882309F475
:10176000A5CFBEC30E9451240E94B21C10929001CA
:1017700080918F01882349F08091240281608093B9
:10178000240260E086950E94E5210E940A1E0E94C4
:10179000F50F882359F08FB7F89440913302509198
:1017A000340260913502709136028FBFE6E9F1E0B4
:1017B000A2E9B1E0E12CF12C3E2D21919D919227DF
:1017C00021F180E099249394492F4921D1F089A3F4
:1017D0003AA3292181E009F480E08BA30E942A1C0E
:1017E0008160782F9DA38CA349A15AA16BA18DA1E3
:1017F0000E94E702F701EE56FE4F80819826908204
:101800001BC08F5F990C8330F9F64FEFE41AF40A8E
:1018100083E0E816F10481F68FEF8EA38FA318A65C
:101820000E942A1C8160782F9AA789A74EA15FA1E8
:1018300068A58AA50E94E70280910802882309F41E
:1018400098C080910702E0912402E695E81BE0939E
:101850000302823059F4F0E0E454FE4FE491EE2E9E
:10186000F12C86EA882E8BE1982E5EC0863059F4E2
:10187000F0E0E754FE4FE491EE2EF12CB6E98B2E0A
:10188000BBE19B2E51C0893061F4E695F0E0EA544B
:10189000FE4FE491EE2EF12CABEC8A2EAFE19A2EA6
:1018A00043C08F3061F4E695F0E0ED54FE4FE491D3
:1018B000EE2EF12CF7E68F2EFFE19F2E35C08531FD
:1018C00059F4F0E0E055FE4FE491EE2EF12CE9E101
:1018D0008E2EEFE19E2E28C08831B1F0833249F47C
:1018E000EEEAF1E0E590F49076E5872E7BE1972E25
:1018F0001BC0843289F050EDE52E57E0F52E6AE0EA
:10190000862E6BE1962E10C038E2E32EF12C40E9D2
:10191000842E4EE1942E08C094EFE92EFF24F39418
:1019200026E5822E2EE1922E80910402882361F01A
:10193000109204020E942A1C9093020280930102DA
:1019400010920602109205020E942A1CE0910102E8
:10195000F09102028E1B9F0B8F3F9F4750F4EE0EBB
:10196000FF1EF0920202E092010281E092E0F40197
:10197000099586E0E1E4F2E0D80101900D928A95A4
:10198000E1F78090430290904402E0904502F0908D
:1019900046021092430210924402109245021092A5
:1019A0004602811003C0992009F44FC080913F0284
:1019B000909140020E941B1C9C0190913B02992334
:1019C00009F4ADC22531310508F43FC09F3F19F03D
:1019D0009F5F90933B02882061F00E94F6221814CA
:1019E00014F491E001C09FEF899F802D1124809312
:1019F0004302992061F00E94F622191414F491E038
:101A000001C09FEF899F802D112480934402309163
:101A100043023323D1F0209144022223B1F045EB5D
:101A20003403C0011124992319F09093430202C09A
:101A3000B092430235EB2303C0011124992319F01E
:101A40009093440202C0B0924402E11003C0FF2010
:101A500009F44FC080913D0290913E020E941B1CF0
:101A60009C0190913A02992309F45EC22135310517
:101A700008F43FC09F3F19F09F5F90933A02EE2019
:101A800061F00E94D4221E1414F491E001C09FEF73
:101A9000899F802D112480934502FF2061F00E94D0
:101AA000D4221F1414F491E001C09FEF899F802D70
:101AB000112480934602309145023323D1F02091C6
:101AC00046022223B1F045EB3403C00111249923CF
:101AD00019F09093450202C0B092450235EB230302
:101AE000C0011124992319F09093460202C0B092CC
:101AF00046028091430281110BC080914402811102
:101B000007C080914502811103C080914602811176
:101B10000E9433228B829C82ED82FE8286E0F80155
:101B2000A1E4B2E001900D928A95E1F70E94B21C07
:101B3000909195018913809395018091F6018430ED
:101B400009F0ABCD83E08093E9008091E80082FF4B
:101B5000A4CD8091E80085FF21C00E94A81A8111C0
:101B60001BC080E2E82EF12C480109C08091F100F1
:101B7000D4018D934D01B1E0EB1AF10869F0809129
:101B8000E80085FDF3CF8091E8008B778093E80033
:101B90000E94A81A882399F391E001C090E08091F7
:101BA000E8008B778093E800992309F476CDE981EA
:101BB0008E2F90E0FC013197E331F10508F066C10A
:101BC000EE59FF4F0C9421261A8289E0CBC08A81FE
:101BD000823009F49BC1833089F0813009F056C10D
:101BE0002FB7F8948091330290913402A09135027E
:101BF000B09136022FBFBB83AC831CC0809196018D
:101C00008B83809197018C83809198018D8340C153
:101C10008A81823009F03AC16B817C818D819E81FD
:101C20000E9427260E94A81D33C14C816B818A81A6
:101C30000E94751D9D8371C18D809E80982489248A
:101C400098248C81EB809A81E6E0EE9E700111244D
:101C5000F2E19F9FE00CF11C1124E80EF11CE80E4C
:101C6000F11C692DC70187960E94A325682DC70125
:101C700088960E94A3250CC10E94411D09C18A813A
:101C80008138B1F050F4803809F002C120E04B8176
:101C9000609126028091250231C0823859F1833843
:101CA00009F0F6C020E0409127026C818B8126C0AC
:101CB00060E08B810E94E5219B818091240291113B
:101CC00011C08E7F80932402109208022FEF30E71C
:101CD00042E0215030404040E1F700C000000E9447
:101CE000201ED6C081608093240260E086950E9409
:101CF000E521CEC08B8180932802CAC00E940C21AE
:101D0000C7C08A81813899F030F4803809F0C0C0AA
:101D10008091270227C0823891F0833809F0B8C03B
:101D2000809125028B83809126028C83B1C08091A3
:101D3000240280FF02C0869515C080E013C0809108
:101D4000280210C060912402709125028091260221
:101D5000909127020E9419209BC080E152C083E02D
:101D60008A8381E98B8394C0EA80FB80FE24EF2480
:101D7000FE248C80912C3801C70181599F4F93011B
:101D8000201B310B2815390508F082C0A1E9EA169D
:101D9000A3E0FA0628F40E948F25F301848303C090
:101DA000D30114961C92BFEFEB1AFB0AEFEF6E1AE9
:101DB0007E0AE2CFEA80FB80FE24EF24FE248C80A2
:101DC000912C3801C70181599F4F9301201B310B82
:101DD0002815390508F05CC0F1E9EF16F3E0FF06BD
:101DE00028F4D30114966C910E94A325BFEFEB1A3F
:101DF000FB0AEFEF6E1A7E0AE5CF0E94311D48C044
:101E000084E08A8345C0EA80FB80FE24EF24FE2420
:101E10008C80912C3801C70187969301201B310BD0
:101E200028153905A8F5F8E4EF16F10430F40E94FE
:101E30008F25D30114968C9302C0F3011482FFEF17
:101E4000EF1AFF0A2FEF621A720AE5CFEA80FB80D1
:101E5000FE24EF24FE248C80912C3801C701879644
:101E60009301201B310B2815390590F438E4E31653
:101E7000F10428F4D30114966C910E94A325BFEFBE
:101E8000EB1AFB0AEFEF6E1A7E0AE8CF8FEF898319
:101E90008091F601843009F000CC8091E9008F70C8
:101EA0002091EC00922F917020FD90E8F92EF82AF5
:101EB00082E08093E9008091E80080FF0CC040E060
:101EC00050E060E270E0C8010E94DB1A8091E800F7
:101ED0008E778093E8008F2D8F708093E900DDCBA3
:101EE000E9BCF9BC09B400FEFDCF8091D8008F7D1C
:101EF0008093D8008091E00082608093E000809120
:101F0000E00081FDFCCF0E945124D0CB86E290E01E
:101F10000E948F251B821C821D828E83B9CF2B309D
:101F2000310508F055CD91CD2B30310508F0A4CD09
:101F3000E0CD80E0089590918C0192FF0DC0282F94
:101F40002871283019F4877F846006C0282F2471F7
:101F5000243011F48B7F886093FF0DC0282F2871E7
:101F6000283119F4877E846106C0282F247124311A
:101F700011F48B7E886120918D0120FF0DC0382FD8
:101F80003871383019F4877F816006C0382F31717D
:101F9000313011F48E7F886021FF0DC0282F287109
:101FA000283119F4877E816106C0282F21712131E3
:101FB00011F48E7E886194FD877E0895F894E82F51
:101FC000E295EF70F0E031A1282F2F7081E090E0D2
:101FD00001C0880F2A95EAF7982F9095932391A333
:101FE00092A1892B82A3789408959F92AF92BF9279
:101FF000CF92DF92EF92FF920F931F93CF93DF93D5
:1020000000D01F92CDB7DEB719821A821B820BE176
:1020100011E0AE014F5F5F4F7A015A01CC24C394A7
:10202000D12CF80180818F3F09F441C0F894E82F4A
:10203000E295EF70F0E021A18F70A60102C0440F7D
:10204000551F8A95E2F7CA01922F982B91A392A16E
:102050008095892382A3789400C0EEE1F1E0912C71
:1020600031E021912F3F89F0A22FA295AF70B0E00F
:1020700090968C9190E02F7002C0959587952A9547
:10208000E2F780FD02C0832F01C080E0982A330F61
:1020900051E0E132F50729F7F80180818F3F11F017
:1020A0000E94DE0FF0EAFA95F1F7F70190820F5FD8
:1020B0001F4FFFEFEF1AFF0A41E00E31140709F03E
:1020C000B0CF43E050E0B50189E891E00E946C2672
:1020D00011E0009709F410E0892B91F089819A8131
:1020E000AB818093890190938A01A0938B0181E059
:1020F0008093E8010E942A1C9093E7018093E601F7
:102100008091E8018823B1F08091E6019091E70188
:102110000E941B1C059770F08091890180939601A5
:1021200080918A018093970180918B01809398011F
:102130001092E801812F0F900F900F90DF91CF91B7
:102140001F910F91FF90EF90DF90CF90BF90AF90D5
:102150009F900895CF93DF938238910569F1B0F491
:102160008133910509F46FC048F48932910509F46F
:1021700065C08A32910509F46BC08AC08533910528
:1021800009F457C089339105B9F082C0833E9105A7
:1021900071F138F4803E9105B1F0823E910511F164
:1021A00077C0863E9105B9F1873E9105C9F1843E1D
:1021B000910509F06DC024C020918C0120FD53C011
:1021C00021FD51C065C080918C0180FD46C0809189
:1021D0008D0180FF48C080918C0184FD50C183EE49
:1021E00090E04FC180918C0182FF3AC0F4CF809182
:1021F0008C0182FD35C080918D0180FD34C0EBCF14
:1022000080918D0181FF35C080918C0184FD37C1A3
:1022100087EE90E036C180918C0183FF27C0F4CF18
:1022200080918C0183FD22C080918D0181FD21C0B0
:10223000EBCF80918C0185FD1FC021C080918C0166
:1022400085FD1DC019C080918C0186FD1BC01DC07D
:1022500080918C0186FD19C015C089E390E011C101
:1022600082EE90E00EC180EE90E00BC186EE90E031
:1022700008C184EE90E005C189E290E002C185E3E7
:1022800090E0FFC08AE290E0FCC081E390E0F9C0FA
:10229000811531E5930708F069C0811540E5940781
:1022A000F0F09C0174E0369527957A95E1F7922F2E
:1022B0009370482F437021E030E002C0220F331F9B
:1022C0004A95E2F73C68392B982F9F709695969522
:1022D00040E2949FC0011124822B932BD2C0883EF0
:1022E000910568F5803E910508F0CBC0883A9105CC
:1022F000B8F4853A910548F0855AE82FF0E0EF5D93
:10230000FE4F808190E09064BCC08130910509F45B
:10231000B3C008F4B4C08430910508F4B0C0B1C0B3
:102320008F3B910508F0ABC0885AE82FF0E0EE0F24
:10233000FF1FEC5DFE4F808191819464A2C08115E6
:1023400020E2920758F4811531E0930708F099C014
:10235000803F910508F493C0906593C0811540E4D7
:10236000940708F48CC09F70906A8BC0811525E596
:10237000920708F042C0811534E5930728F0982FA2
:102380008827846F906A7DC0811543E59407B0F07B
:102390009C012370332741E050E002C0440F551FD9
:1023A0002A95E2F7282F2695269580E2289F90010E
:1023B0001124CA01822B932B9A6863C0811522E5F0
:1023C000920728F4982F8827816F906A5AC09C0141
:1023D0002370332741E050E002C0440F551F2A9577
:1023E000E2F7282F2695269580E2289F9001112458
:1023F000CA01822B932B9C6844C0EC01811539E5FE
:102400009307A8F48115984528F09C2F8827806FA2
:10241000906A37C0C11586E5D80788F58C2F0E94D1
:102420009B0F8F7190E0982F882790622AC08115AA
:102430002AE5920790F48C2F8F700E949B0F94E0F6
:10244000D695C7959A95E1F7CF70D0E0DC2FCC27D1
:10245000D0699E01282BC90114C090568115904265
:1024600070F48D2F8F710E949B0F282F2F71CE013A
:1024700099279062922B05C081E090E002C080E035
:1024800090E0DF91CF910895CF9384E090E00E9497
:102490008F25C82F82E290E00E948F252C2F30E0FC
:1024A000A901582BCA01CF91089580E090E00E94C5
:1024B0009D25893E9E4F11F40C94D91D80E008950E
:1024C00069EE7EEF80E090E00E94C12560E082E04E
:1024D00090E00E94A32560E083E090E00E94A325A5
:1024E0001092E50160E084E090E00E94A32560E0A6
:1024F00082E290E00E94A32560E085E090E00E94E7
:10250000A32560E086E090E00E94A3256FEF87E0BE
:1025100090E00E94A32540E050E0BA0188E090E0FE
:102520000E94B52560E08DE090E00E94A32540E088
:1025300050E0BA0188E190E00E94B52560E087E1B3
:1025400090E00E94A32540E050E0BA018CE190E0C9
:102550000E94B52560E070E080E290E00E94C12515
:1025600040E050E0BA0188E190E00E94B52580E0AB
:102570000E94AC1D0E94CA1D40E050E0BA018FE0ED
:1025800090E00E94B52540E050E0BA0183E190E080
:102590000C94B5258091E40181111092E401089515
:1025A00080959091E30189238093E30108959091B0
:1025B000E3018091E201982B909399018091E401CD
:1025C000882389F0892B80939901EBE9F1E097E06A
:1025D00080E0915029F021912223D9F38F5FF9CF28
:1025E00081110E94CA1248E050E06AED71E089E969
:1025F00091E00E946C26892BA9F088E0E9E9F1E0DE
:10260000AAEDB1E001900D928A95E1F7E0912E02DA
:10261000F0912F02309731F00280F381E02D89E9AB
:1026200091E0099408952091D901809582238093A7
:10263000D901982F977099F430E0482F082E000C9C
:10264000550B2417350759F090918D0192FD07C065
:102650008595859585950E9416241092D901089537
:10266000CF93C0918D01C2FB992790F9981799F0EB
:1026700080FBC2F9C0938D0160918C0184E090E0F1
:102680000E94A3256C2F82E290E00E94A32582E0A5
:10269000CF910C941313CF9108958091D80190910C
:1026A000A701891719F08F5F8770FBCF08950F93EB
:1026B0001F93CF93DF938091A60182958F7009F0CD
:1026C0005DC08091A301882309F458C08091D8018E
:1026D0001091A7016091A1017091A201C091A40184
:1026E000D091A50191E06F3F09F090E0292F06E01D
:1026F000811709F443C0209721F07F3F21F030E09B
:1027000003C031E001C0322F90E030FD34C0089F9B
:10271000F001099FF00D1124DF01A855BE4F11965D
:102720003C911197371327C03C91361324C0129661
:102730003C91129731111FC013964D915C911497E3
:102740004C1B5D0B483C5105B0F48091A6018F7085
:1027500080618093A601E355FE4F80818F70806178
:10276000808381EA91E00E948F03DF91CF911F91D6
:102770000F910C944D1301968770BACFDF91CF91D2
:102780001F910F910895CF93DF93EC010E948C234A
:10279000BE010E949B1D0E94AA10DF91CF91089557
:1027A0009F92AF92BF92CF92DF92EF92FF920F93E0
:1027B0001F93CF93DF93CDB7DEB761970FB6F89431
:1027C000DEBF0FBECDBF8C0185E0F801DE011D9696
:1027D00001900D928A95E1F7F801E2809091A101B4
:1027E0006091A2014091A4015091A50141155105AC
:1027F00031F06F3F31F481E09F3F19F403C081E075
:1028000001C080E0F82FF1709F2E80FD1AC1F80101
:1028100030812181C380D48081EAA82E81E0B82E46
:10282000F090A301F601E41BF50BFF2009F4C6C0EC
:102830008091A601E83CF10508F091C0482F407F47
:1028400009F050C0621311C093130FC0FE2CE110A9
:102850000CC08F7080618093A601C5010E948F0318
:102860008091A601F801858329C1CD2831F02F3F41
:1028700031F481E03F3F19F403C081E001C080E002
:1028800080FD03C081E08E2502C080E090E0F82F3B
:10289000F170FF2E80FF1CC08091D8014091A701EC
:1028A00056E0841709F4E8C090E0589FF001599F62
:1028B000F00D1124E855FE4F6181261306C060819A
:1028C000631303C06281E61203C001968770E9CFEB
:1028D000FE2CEE2009F4F2C08091A6018160809365
:1028E000A60149C0621306C0931304C0E11002C0E0
:1028F000F80186C0C8010E943124882351F1EE20DE
:1029000041F12091A601822F82958F7090E002976D
:1029100074F08091A1019091A20198878F8319860C
:10292000DB86CA862C87CE0107960E948F0386E03D
:10293000F801A1EAB1E001900D928A95E1F70E94B9
:1029400057130AC06217C9F0C8010E9431248111CF
:102950001EC0C8010E948F03FF24F394AFC0482F0C
:10296000407F81F781EA91E00E948F0386E0F501C4
:1029700011928A95E9F7F12CA1C09313E5CFE110EC
:10298000E3CFF8018583C8010E948F0354C0EE2075
:1029900001F32091A601822F82958F7090E002971B
:1029A00034F28091A1019091A2019A8389831B82C4
:1029B000DD82CC822E83CE010196B7CFE83CF105B3
:1029C000D0F5FE2CEE2029F2621327C0931325C008
:1029D0002091A60120FD18C0822F82958F70482F6C
:1029E00050E04115510581F0F80125834F30510524
:1029F00041F08F5F982F9295907F822F8F70892B57
:102A00008583C8010E948F0386E0F801A1EAB1E046
:102A100001900D928A95E1F751C0C8010E943124BE
:102A2000811185CF8091A60181608093A601C801A4
:102A30000E948F0343C086E0F50111928A95E9F761
:102A40003DC0EE2009F485CFC8010E943124F82E44
:102A5000882309F47ECF86E0F801A1EAB1E0019075
:102A60000D928A95E1F78091A1019091A2010E94B7
:102A7000C3130E94571322C03D872E878D859E85E4
:102A80000E94C313292F22952F70223028F49F70A3
:102A900039F0811105C00BC0243028F49F7049F42F
:102AA000805E883020F0C8010E948F039F2CF92C93
:102AB00005C0F8019581907F99F7F9CF8F2D619628
:102AC0000FB6F894DEBF0FBECDBFDF91CF911F913F
:102AD0000F91FF90EF90DF90CF90BF90AF909F90BD
:102AE00008958091F80187FF11C08091E80082FD70
:102AF00005C08091F6018111F8CF11C08091E800E6
:102B00008B770BC08091F601882349F08091E80013
:102B100080FFF8CF8091E8008E778093E8000895D9
:102B2000982F973068F59093E900981739F07091D5
:102B3000EC002091ED005091F00003C0242F762F7F
:102B400050E021FD02C09F5FECCF3091EB003E7F53
:102B50003093EB003091ED003D7F3093ED003091EC
:102B6000EB0031603093EB007093EC002093ED00AC
:102B70005093F0002091EE0027FDE5CF80E008950E
:102B80008F708093E90081E008952091FE013091DB
:102B9000FF012617370748F06115710539F42091B8
:102BA000E8002E772093E80001C0B901FC0120E085
:102BB0006115710579F18091F6018823F1F1853075
:102BC000F1F18091E80083FD3CC08091E80082FD36
:102BD0002EC08091E80080FFEBCF2091F300809120
:102BE000F20090E0922B6115710551F0883091054B
:102BF00038F421912093F100615071090196F3CFCF
:102C000021E0089709F020E08091E8008E7780931A
:102C1000E800CECF2111CFCF0AC08091F6018823E2
:102C200061F0853061F08091E80083FD0AC08091F9
:102C3000E80082FFF2CF80E0089582E0089583E00B
:102C4000089581E008950895BC0184E00C94BA1BB6
:102C5000BC0183E00C94BA1B80910002982F9670FF
:102C6000963011F4886001C0877F0C9412241F9362
:102C7000CF93DF93CDB7DEB7AA970FB6F894DEBF38
:102C80000FBECDBFE8EFF1E080E092E02091F100CF
:102C900021938E179F07D1F78091F901833009F4B2
:102CA00063C030F4813071F0823009F49DC0B4C04B
:102CB0008A3009F489C08B3009F46EC0893009F07C
:102CC000ABC020C08091F801813A09F0A5C0809185
:102CD000E800877F8093E8008091FC019091FD01DE
:102CE000892B21F468E08CEE91E003C060E080E085
:102CF00090E070E00E94C5158091E8008B7780938A
:102D0000E8008AC08091F801813209F085C0809185
:102D1000FC019091FD01009719F0029709F07CC029
:102D20008091E800877F8093E8008091E80082FD31
:102D300005C08091F6018111F8CF6EC02091F3009B
:102D40008091F20090E0922B029731F48091F10093
:102D5000813011F0863021F48091F1008093EB01F5
:102D60008091E8008B7754C08091F801813A09F096
:102D700053C08091FC019091FD01892B09F04CC05A
:102D80008091E800877F8093E8008091E80080FFD1
:102D9000FCCF80910C0137C08091F8018132E1F5C0
:102DA0008091FC019091FD01892BB1F58091E800A3
:102DB000877F8093E8000E9471158091FA018093CB
:102DC0000C010E94512428C08091F801813221F524
:102DD0008091E800877F8093E8000E9471158091C0
:102DE000FB018093EA0118C08091F801813AA1F4B7
:102DF0008091E800877F8093E8008091E80080FF61
:102E0000FCCF8091EA018093F1008091E8008E77F9
:102E10008093E8000E9471158091E80083FFDFC174
:102E20008091F8019091F901492F50E04A30510505
:102E300008F0D5C1FA01EB58FF4F0C9421268038D9
:102E400021F0823809F0CBC108C08091F401909143
:102E5000F501992389F082600FC08091FC018F7089
:102E6000873008F0BCC18093E9008091EB0085FBBE
:102E7000882780F91092E9009091E800977F90935D
:102E8000E8008093F1001092F10070C1282F2D7F8F
:102E900009F0A5C1882319F0823061F0A0C18091AA
:102EA000FA01813009F09BC1933009F080E08093F2
:102EB000F5012EC08091FA0181112AC08091FC0198
:102EC0008F702FEF280F263008F089C18093E9001A
:102ED0002091EB0020FF1CC0933021F48091EB0087
:102EE000806214C09091EB0090619093EB0021E020
:102EF00030E0A90102C0440F551F8A95E2F74093C4
:102F0000EA001092EA008091EB0088608093EB0069
:102F10001092E9008091E800877F8093E8000E948A
:102F200071155DC181115BC11091FA011F7780910C
:102F3000E3008078812B8093E3008091E800877F15
:102F40008093E8000E9471158091E80080FFFCCF1B
:102F50008091E30080688093E300111102C082E059
:102F600001C083E08093F6013AC18058823008F0B6
:102F700036C12091FA013091FB012C3D53E0350719
:102F800079F583E08A838AE289834FB7F894DE017A
:102F9000139620E03EE051E2E32FF0E0509357001B
:102FA000E49120FF03C0E295EF703F5FEF708E2F3A
:102FB00090E0EA3010F0C79601C0C0968D939D93C3
:102FC0002F5F243149F74FBF8091E800877F8093BE
:102FD000E8006AE270E0CE0101960E94C515B4C017
:102FE0008091FC019091FD01432F552743305105FD
:102FF000A9F068F44130510509F400C1423051058F
:1030000009F0EDC08BE590E0EDE9F2E04BC0413214
:10301000510529F14232510589F1E1C0C9019927D1
:1030200081309105A1F058F0029709F0D8C0EAE08C
:10303000F3E0E4918E2F90E0EAE0F3E030C0EEE3BD
:10304000F3E0E4918E2F90E0EEE3F3E028C0E6E1B8
:10305000F3E0E4918E2F90E0E6E1F3E020C08330CE
:10306000910508F0BCC0880F991FFC01E55AFE4F7E
:103070000190F081E02D89E090E014C0833091054B
:1030800008F0ADC0FC01EE0FFF1FEB5AFE4F0190A0
:10309000F081E02DDC01AE5ABE4F8C9190E000979C
:1030A00009F49DC02091E800277F2093E80020913B
:1030B000FE013091FF012817390708F4C90140E0EB
:1030C000009789F12091F601222309F43DC02530B3
:1030D000D9F12091E80023FD37C02091E80022FDBE
:1030E0002FC02091E80020FFEBCF4091F30020910A
:1030F000F20030E0342B009759F02830310540F4CD
:1031000044914093F100319601972F5F3F4FF3CFE9
:1031100041E02830310509F040E02091E8002E77A9
:103120002093E800CDCF4111CDCF0AC08091F601A8
:10313000882351F0853041F08091E80083FD04C080
:103140008091E80082FFF2CF8091E8008B77809336
:10315000E80045C0803809F042C08091E800877FD0
:103160008093E8008091F7018093F1008091E8005E
:103170008E77D3CE811133C08091FA019091FB01FB
:103180009927029764F58091E800877F8093E80093
:103190001091FA011093F7010E947115111106C0E8
:1031A0008091E30087FD02C081E001C084E080934C
:1031B000F60142E061EC81E00E94901542E261EC90
:1031C00084E00E94901542E261EC82E00E9490153A
:1031D00042E260EC83E00E9490158091F6018091BC
:1031E000E80083FF10C08091E800877F8093E800AB
:1031F0008091EB0080628093EB0005C082E190E05B
:10320000E8EFF2E04FCFAA960FB6F894DEBF0FBEFC
:10321000CDBFDF91CF911F9108951F920F920FB6EE
:103220000F9211242F933F934F935F936F937F934C
:103230008F939F93AF93BF93CF93DF93EF93FF93BE
:10324000C091E900CF708091EC00D82FD17080FD43
:10325000D0E81092E9008091F000877F8093F00021
:1032600078940E9437161092E9008091F0008860EF
:103270008093F000CD2BCF70C093E900FF91EF91C8
:10328000DF91CF91BF91AF919F918F917F916F917E
:103290005F914F913F912F910F900FBE0F901F9014
:1032A0001895E8EDF0E080818E7F80831092E20037
:1032B0001092DA001092E100A0EEB0E08C918160F3
:1032C0008C9380818F77808319BCA7EDB0E08C91BF
:1032D0008E7F8C9380818F7E80831092E901089588
:1032E000CF92DF92EF92FF920F931F93CF93DF93D2
:1032F000C8EDD0E088818F7E8883E7EDF0E08081A3
:103300008160808384E082BF81E08093E9018881CD
:103310008E7F888302EE10E0F80110821092DA00AE
:1033200081EEC82ED12CF601108288818F77888398
:1033300088818068888388818F7D888319BC1092FA
:10334000F6011092F7011092F5011092F40190EE3F
:10335000E92EF12CF70180818B7F80838881816049
:10336000888342E060E080E00E949015F601808151
:103370008E7F8083F8018081816080838081886076
:103380008083F70180818E7F80838881806188833C
:10339000DF91CF911F910F91FF90EF90DF90CF9031
:1033A00008951F920F920FB60F9211242F933F93FF
:1033B0004F935F936F937F938F939F93AF93BF933D
:1033C000EF93FF938091E10082FF09C08091E200BA
:1033D00082FF05C08091E1008B7F8093E1008091A6
:1033E000DA0080FF2AC08091D80080FF26C080913B
:1033F000DA008E7F8093DA008091D90080FF18C0B8
:1034000080E189BD82E189BD09B400FEFDCF81E084
:103410008093F6018091E90181110FC00E9451193A
:103420000E9470198091E20084608093E20005C0E0
:1034300019BC1092F6011092E9018091E10080FF21
:1034400017C08091E20080FF13C08091E2008E7F60
:103450008093E2008091E20080618093E20080919D
:10346000D80080628093D80019BC85E08093F60173
:103470008091E10084FF30C08091E20084FF2CC085
:1034800080E189BD82E189BD09B400FEFDCF809154
:10349000D8008F7D8093D8008091E1008F7E80934B
:1034A000E1008091E2008F7E8093E2008091E20053
:1034B00081608093E2008091F701882311F084E01D
:1034C00007C08091E30087FD02C081E001C083E076
:1034D0008093F6018091F6018091E10083FF27C07F
:1034E0008091E20083FF23C08091E100877F809379
:1034F000E10082E08093F6011092F7018091E100F3
:103500008E7F8093E1008091E2008E7F8093E200C5
:103510008091E20080618093E20042E060E080E020
:103520000E9490158091F00088608093F000FF91D8
:10353000EF91BF91AF919F918F917F916F915F912B
:103540004F913F912F910F900FBE0F901F901895A4
:103550002091E4003091E50095E64091EC00842F45
:10356000817040FF23C08091E80080FD1DC08091E4
:10357000F601882399F0853099F08091EB0085FD64
:1035800011C04091E4005091E5002417350729F35C
:10359000915011F09A01E1CF84E0089582E00895FE
:1035A00083E0089581E0089580E008954091E80067
:1035B00042FFDDCF0895EF92FF920F931F93CF93B9
:1035C000DF937C018B010E94A81A811119C0E701C9
:1035D00001151105A1F08091E80085FD0AC08091D8
:1035E000E8008E778093E8000E94A81A882381F370
:1035F00007C089918093F10001501109E9CF80E063
:10360000DF91CF911F910F91FF90EF9008958091DE
:10361000EB010895089524E02093E9002FEF309105
:10362000E800215035FD06C035ED3A95F1F7000070
:103630002111F5CF2091E80025FF0BC040E050E0BC
:1036400066E070E00E94DB1A8091E8008E7780933C
:10365000E8000895CF93DF9321E02093E9002FEF56
:103660003091E800215035FD06C035ED3A95F1F76F
:1036700000002111F5CF2091E80025FF14C0EC01D6
:1036800040E050E068E070E00E94DB1A8091E800C2
:103690008E778093E80088E0FE01ACEEB1E0019007
:1036A0000D928A95E1F7DF91CF9108950F931F93C3
:1036B000CF93DF9300D01F92CDB7DEB78C018091FE
:1036C0000B0281110AC09E012F5F3F4F4FEF6FEF3A
:1036D0000E945C208A8180930B02F80184818130F2
:1036E00051F028F0823061F440910B020AC08091C1
:1036F0000B0240E007C060910B0240E080E003C095
:1037000040E080E060E00E94F51FF801848190E0D5
:10371000019663E070E00E94EB2584830F900F9088
:103720000F90DF91CF911F910F910895CF93DF9369
:10373000EC01E4E2F2E0438162818C810E94F2209C
:103740008C818F5F8C83DF91CF910895CF93DF932E
:10375000EC01EC81F0E0EE5BFC4F4491E4E2F2E03E
:10376000628181810E94F2208C818F5F8C83DF9146
:10377000CF91089580933702709339026093380295
:103780008091F6018430F9F48093E9008FEF9091F5
:10379000E800815095FD06C095ED9A95F1F700007F
:1037A0008111F5CF8091E80085FF0DC040E050E029
:1037B00063E070E087E392E00E94DB1A8091E8000A
:1037C0008E778093E800089587E797E79093010844
:1037D000809300089AE088E10FB6F894A89580934A
:1037E00060000FBE90936000FFCF78941F920F92FD
:1037F0000FB60F9211248F939F93AF93BF93809135
:10380000330290913402A0913502B09136020196B4
:10381000A11DB11D8093330290933402A093350211
:10382000B0933602BF91AF919F918F910F900FBED1
:103830000F901F9018959C014FB7F8948091330218
:1038400090913402A0913502B09136024FBF821B95
:10385000930B08952FB7F89480913302909134021E
:10386000A0913502B09136022FBF08951F920F929A
:103870000FB60F9211248F939F93AF93BF938091B4
:103880003202811113C08091330290913402A091D1
:103890003502B09136024196A11DB11D80933302CD
:1038A00090933402A0933502B0933602BF91AF914A
:1038B0009F918F910F900FBE0F901F9018959C01B4
:1038C0002A5F3F4FFC014281461301C012820196DC
:1038D00082179307B9F708959C01FC0132969FEF78
:1038E00080E04191461789F09F3F19F4411101C0D2
:1038F000982F8F5F8630A9F79F3F39F0F901E90FC4
:10390000F11D97FDFA956283089508952091300284
:10391000309131022817390771F09093310280936A
:103920003002E0912E02F0912F02309721F00084B6
:10393000F185E02D0994089520912C0230912D02FB
:103940002817390771F090932D0280932C02E09193
:103950002E02F0912F02309721F00680F781E02DA2
:1039600009940895E0912E02F0912F02309721F0F2
:103970000190F081E02D099480E008950F931F934A
:10398000CF93DF93C42FD22FFC0182818823C9F00B
:1039900040932B020E942A1C90932A0280932902B2
:1039A00080E28C0F883008F057C0C77081E001C0FA
:1039B000880FCA95EAF7DF91CF911F910F910C9470
:1039C000632480912B02481330C08091290290918A
:1039D0002A020E941B1C883C910538F510E21D0F3D
:1039E000CD17B9F080E28C0F883040F4C77081E0C9
:1039F00001C0880FCA95EAF70E945C24183028F5A8
:103A000081E09D2F977001C0880F9A95EAF70E9478
:103A10006324802F0E9471251830F0F4D77081E064
:103A200001C0880FDA95EAF70AC080E28C0F88306F
:103A300098F4C77081E001C0880FCA95EAF7DF915A
:103A4000CF911F910F910C945C24802FDF91CF9127
:103A50001F910F910C947125DF91CF911F910F91C0
:103A60000895CF93DF93CFE6D0E060E0CE010E94CF
:103A7000A3252196C11584E0D807B9F7DF91CF912E
:103A80000895CF92DF92EF92FF920F931F93CF93FF
:103A9000DF93C0E0D0E08E010E5E1F4F6E0186E026
:103AA000C80ED11CFE01EE5BFB4FE590F4906F2D2C
:103AB000CE0187960E94A3256E2DCE0188960E9486
:103AC000A3252296CC15DD0569F70C171D0731F7E4
:103AD000E80108341105F9F6DF91CF911F910F919C
:103AE000FF90EF90DF90CF9008950F931F93CF93A7
:103AF000DF93C42FD0E0CC0FDD1F26E0629FC00D06
:103B0000D11D112432E1839FC00DD11D1124CE019E
:103B100087960E948F25082F10E0102F0027CE01D6
:103B200088960E948F259801282BC901DF91CF919B
:103B30001F910F910895462F843038F4733028F484
:103B4000633018F4672F0C94751D80E090E00895A1
:103B500086E290E00C94A325CF93C82F811102C078
:103B60006FEF01C062E283E290E00E94A325C111E1
:103B700002C06FEF01C064E084E290E00E94A325E0
:103B8000C11102C06FEF01C061E085E290E0CF910A
:103B90000C94A32580E00E94AC1D60E070E0CB0196
:103BA0000E94A81D0E94411D0E94311D81E00C94BD
:103BB000AC1D83E290E00E948F25823281F484E282
:103BC00090E00E948F25843051F485E290E00E94BD
:103BD0008F2591E0813009F090E0892F01C080E0CD
:103BE000817008959091240290FF04C096959817D3
:103BF00040F003C0811105C090E0961710F40C94BA
:103C0000292261E00C94E521882311F0FA0101C01A
:103C1000FB01099460912402669570E04BE050E04E
:103C20008DE091E00E945F26892B19F481E080935A
:103C300008020E942A1C90930202809301020895B8
:103C40008091240280FF0AC0859A81B38F7D91B351
:103C500090622FB7F894ECE0F2E00BC0ECE0F2E0F9
:103C6000118210821282339632E0E432F307C1F7F8
:103C7000EBCF32E0E432F30789F0319148E091BBB9
:103C8000000000C037FF81BB330F000000C000C040
:103C900000C081BB00C04A9591F7EBCF2FBF8FE5E5
:103CA00094E00197F1F700C000000895EF92FF92B1
:103CB0000F931F93CF93DF938C01CCE0D2E0E12CE4
:103CC000F12CF8018481F4E0EF16F1041CF4882350
:103CD00039F002C0811104C09E014091270202C048
:103CE0009E0140E060912602809125020E945C20A6
:103CF0008FEFE81AF80A239698E0E916F10409F71D
:103D00000E94201EF801848190E00196817099271D
:103D10008483DF91CF911F910F91FF90EF900895D1
:103D20008F929F92AF92BF92CF92DF92EF92FF92CB
:103D30000F931F93CF93DF93EC014C81042F10E07E
:103D40009801D8010E9436269B01AC010E944C26A6
:103D50006B017C01E0E2F0E0E01BF10BA5E5B0E0D7
:103D60009B01AC010E944C264B015C019F01DF01CD
:103D70000E942E269B01AC010E9457269B01AC019C
:103D80002C0D3D1D4E1D5F1DC501B4010E94FF2578
:103D9000822FF22E99E2921728F093E0299F90014A
:103DA00011240DC025E530E0281B3109C901880F19
:103DB000991F280F391F37FF02C02F5F3F4F3595DE
:103DC0002795122F10959CE0C92E92E0D92E00E085
:103DD00085E5E82EEF1801FD02C08E2D01C08F2D64
:103DE0009601412F609126020E945C200F5F83E0C4
:103DF000C80ED11C083079F70E94201E8C818111D9
:103E000002C091E003C0803219F49FEF90931A0131
:103E100090911A01890F8C83DF91CF911F910F919F
:103E2000FF90EF90DF90CF90BF90AF909F908F90DA
:103E300008950F931F93CF93DF93CCE0D2E0FE0160
:103E4000118210821282339682E0E432F807C1F7C1
:103E500000E010E080910A02082E000C990B081770
:103E6000190794F080911901082E000C990B801706
:103E7000910754F09E0140912702609126028091A3
:103E800025020E945C2003C0198218821A820F5FEB
:103E90001F4F239608301105E9F60E94201E8091DD
:103EA000180190910A02980F90930A02209119012B
:103EB000280F20931901121614F497301CF08195E5
:103EC00080931801DF91CF911F910F910895CF92A8
:103ED000DF92EF92FF920F931F93CF93DF93FC013A
:103EE000828180FF03C0DD24DA9402C0DD24D394F4
:103EF000CCE0D2E000E010E0198218821A8294E04F
:103F0000E92EF12CC12C809109028C0D893014F01E
:103F1000877002C087FD885F082E000C990B081778
:103F2000190791F4809127028E9DA0018F9D500D5D
:103F3000112455954795559547959E016091260208
:103F4000809125020E945C20CD0CF1E0EF1AF1086F
:103F5000D1F60F5F1F4F23960830110569F60E94B6
:103F6000201E8091090291E0D91206C0811102C081
:103F700087E006C0815004C090E0019687709927C1
:103F800080930902DF91CF911F910F91FF90EF90E5
:103F9000DF90CF900895EF92FF921F93CF93DF931E
:103FA000EC018CE0E82E82E0F82E10E08C81970185
:103FB0004091270260912602810F0E945C20115ED1
:103FC00083E0E80EF11C183F89F70E94201E9A81B9
:103FD0008C8190FF02C08F5F01C081508C83DF9184
:103FE000CF911F91FF90EF9008959091240290FF40
:103FF0000CC0ECE0F2E0818360834283339692E070
:10400000E432F907C1F70C94201E08958091240230
:10401000282F269530E02115310519F48170826032
:1040200005C02532310524F0817088648093240214
:104030000895CF92DF92EF92FF926B017C010E9474
:104040000620B701A60188E090E0FF90EF90DF9096
:10405000CF900C94B52580912802882319F08150C7
:10406000809328026091240270912502809126029B
:10407000909127020C94192080912802833018F423
:104080008F5F8093280260912402709125028091B5
:104090002602909127020C941920E4E2F2E083E0DA
:1040A000808311828FEF8283838314826081718188
:1040B000828193810C941920AF92BF92CF92DF92AC
:1040C000EF92FF920F931F93CF93DF93E82EF62E7C
:1040D000E901E42FF0E0611106C0E657FB4FE491DF
:1040E0004E2F2E2F71C0062F10E0E657FB4F449144
:1040F000F42FC42ED12C26E0829FC00111242FEF73
:1041000030E0B9010E94D7255BEA5603C001579FF2
:10411000900D11248E0D911D8E0D911D582F550F50
:10412000580FD901A01BB10BAC9DC001AD9D900DE6
:10413000BC9D900D1124E92FF59ED0011124AB2FC9
:10414000BB277901EA1AFB0AEC9CD001ED9CB00D6B
:10415000FC9CB00D11245901A51AB108A09E700154
:10416000A19EF00CB09EF00C1124EF2CFF242E1910
:104170003F092C9D80012D9D100D3C9D100D11249B
:10418000212F6230710591F048F461157105E1F05D
:1041900061307105B9F4242F4B2F16C064307105BE
:1041A00069F040F06630710579F00CC0242F492F7A
:1041B000E12F0AC0492FEF2F2B2F06C0292FE42F04
:1041C000412F02C0292FEB2F49832883EA83DF91F7
:1041D000CF911F910F91FF90EF90DF90CF90BF9004
:1041E000AF900895CF93DF9300D01F92CDB7DEB785
:1041F0009091240290FF0AC09E012F5F3F4F0E94C2
:104200005C204B8169818A810E94F51F0F900F907D
:104210000F90DF91CF9108957F928F929F92AF92EE
:10422000BF92CF92DF92EF92FF920F931F93CF93A3
:10423000DF9300D01F92CDB7DEB7182FD62E042FF4
:10424000C22E9091240290FF6DC0E92FE695AE2F0B
:10425000B0E0AF59BE4F8C91809307029E7F9230A1
:1042600061F49E012F5F3F4F812F0E945C204B81A4
:1042700069818A810E94F51F43C0823019F4009140
:1042800027023EC0863019F41091250239C08930CA
:10429000D9F38931A9F5E9512E2F2170722EE695B7
:1042A000F0E0E657FA4F859094903CE0A32E32E080
:1042B000B32EE12CF12C99248E9CC0018F9C900D83
:1042C0009E9C900D112423E0969587952A95E1F701
:1042D000711002C0810F03C0212F281B822F95016E
:1042E000402F6D2D0E945C208FEFE81AF80A23E022
:1042F000A20EB11C88E0E816F104F1F60E94201E1F
:1043000010932502D092260200932702CC2051F070
:1043100060912402709125028091260290912702DB
:104320000E9419200F900F900F90DF91CF911F9155
:104330000F91FF90EF90DF90CF90BF90AF909F9044
:104340008F907F900895E4E2F2E0438128E0421BE1
:1043500008F440E021E0628181810C940C21E4E2C8
:10436000F2E0438128E0420F08F44FEF21E0628140
:1043700081810C940C21E4E2F2E0628128E0621B6E
:1043800008F460E021E0438181810C940C21E4E297
:10439000F2E0628128E0620F08F46FEF21E04381D0
:1043A00081810C940C21E4E2F2E0818121E04381DF
:1043B000628188500C940C21E4E2F2E0818121E0DA
:1043C00043816281885F0C940C219091240290FFBC
:1043D00036C09170811102C0926006C0853210F023
:1043E000986402C0880F982B90932402662351F0A2
:1043F00060912402709125028091260290912702FB
:104400000E94192060912402669570E04BE050E014
:104410008DE091E00E945F26892B19F0109208022E
:1044200002C00E940A1E81E08093040220E04091B5
:10443000270260912602809125020C940C21089598
:10444000809124028695815009F484E261E00C9405
:10445000E5218091240286958F5F853208F081E006
:1044600061E00C94E5210E942A1C20914302211155
:1044700004C020914402222321F0909340028093B3
:104480003F0220914502211104C0209146022223BF
:1044900021F090933E0280933D02E0912E02F09134
:1044A0002F02309749F082E0809341020480F58129
:1044B000E02D81E492E009940895803F39F49091D1
:1044C000440297FF35C01092440259C0813F29F43D
:1044D000909144021916BCF32BC090914302823F85
:1044E00029F497FF25C01092430249C0833F19F475
:1044F0001916CCF31DC090914502893F29F4191675
:10450000BCF4109245023BC08A3F19F497FF10C0DB
:10451000F8CF8B3F39F49091460297FF09C0109273
:1045200046022DC08C3F21F4909146021916BCF32F
:104530009CE0980F953080F421E030E0A90102C0A2
:10454000440F551F9A95E2F7CA0180959091420257
:1045500089238093420213C08D3F21F480913C0255
:104560008E7F0BC08E3F21F480913C028D7F05C071
:104570008F3F29F480913C028B7F80933C02809195
:104580004302811106C080914402811102C0109241
:104590003B0280914502811106C080914602811143
:1045A00002C010923A02089580913C0280FD16C02C
:1045B00081FD16C082FD18C080913A02882391F0D7
:1045C000883290F428E0829FC001112468E270E0F4
:1045D0000E94EB25862F672B29F007C082E0089503
:1045E00084E0089581E0089588E0089580913C0278
:1045F00080FD14C081FD14C082FD16C080913B0275
:10460000882381F08E3180F420E5829FC00111243F
:104610006EE170E00E94EB25862F089584E10895F5
:1046200088E2089588E0089580E50895803F21F4A8
:104630000E94F622819504C0813F29F40E94F6224F
:10464000809344020895823F21F40E94F6228195CE
:1046500004C0833F29F40E94F62280934302089508
:10466000893F19F40E94D42205C08A3F31F40E9488
:10467000D42281958093450208958B3F21F40E94B6
:10468000D422819504C08C3F29F40E94D4228093C7
:10469000460208959CE0980F953078F421E030E0D0
:1046A000A90102C0440F551F9A95E2F7CA019091E3
:1046B0004202892B8093420208958D3F21F480911C
:1046C0003C0281600BC08E3F21F480913C028260ED
:1046D00005C08F3F29F480913C02846080933C02A6
:1046E000089580E090E00E949C1C80E090E00E9491
:1046F000861C1092E2010E94D712E1E4F2E086E00B
:10470000DF011D928A95E9F710923B0210923A025E
:1047100010923C020C943322CF92DF92FF920F93BF
:104720001F93CF93DF936C01009100028091E5010C
:10473000082BC7E0D0E010E0C8010C2E02C0959510
:1047400087950A94E2F780FD04C02197A8F7F12C21
:1047500009C0FC2EB6018C2F0E949B1D0E94AA103E
:10476000019799F38F2DDF91CF911F910F91FF90BA
:10477000DF90CF900895292F220F920F890F682F75
:10478000669566956695982F977083E0689FB0014F
:10479000112440E050E080E0FB01E40FF51FE95BED
:1047A000FD4F208130E0092E02C0369527950A94EE
:1047B000E2F721703327042E01C0220F0A94EAF792
:1047C000822B4F5F5F4F4330510531F70895292FFA
:1047D000220F920F890FE82FE695E695E6958770F0
:1047E00051E001C0550F8A95EAF783E0E89FF00198
:1047F0001124E95BFD4F20E030E070E04081CB0107
:10480000022E02C0969587950A94E2F781708195F1
:1048100084278523842781932F5F3F4F23303105E1
:1048200069F70895809300020C94712321E030E031
:1048300001C0220F8A95EAF7209580910002822319
:104840000C94122421E030E001C0220F8A95EAF78F
:1048500080910002822B0C9412248093E5010C9429
:104860007123FC01808191810E94C31392959F70F6
:10487000963079F010F4925001C09A50923068F45A
:10488000803F69F018F4883E40F409C0843F29F461
:1048900006C0883E20F0813F11F080E0089581E05D
:1048A00008951092E30186E0EBE9F1E0DF011D924B
:1048B0008A95E9F70C947123882321F00E94D01285
:1048C0000C94D7120895882339F09091E301892B35
:1048D0008093E3010C94D7120895882309F45CC0F7
:1048E000823869F40E94B21C81FF56C069E389E9ED
:1048F00091E00E946C1C0E94D71269E30EC08338BD
:1049000091F40E94B21C80FF47C063E589E991E001
:104910000E946C1C0E94D71263E589E991E00E9415
:104920005F1C0C94D712843869F40E94B21C82FF79
:1049300033C067E489E991E00E946C1C0E94D712A1
:1049400067E4EBCF9CEF980F913A10F4682FE5CF16
:1049500090E2980F983050F4877091E001C0990F61
:104960008A95EAF7892F0E94D012DBCF9BE5980F3A
:10497000933020F480E090E00C949C1C98E5980F14
:10498000973120F480E090E00C94861C803F20F06A
:104990000E945D220C9433220895CF93882309F45A
:1049A0009EC0C82F8238B1F40E94B21C81FD97C00E
:1049B00069E389E991E00E946C1C0E94D7122FEFF5
:1049C00081EE94E0215080409040E1F700C000006B
:1049D00069E317C08338E1F40E94B21C80FD7FC0F8
:1049E00063E589E991E00E946C1C0E94D7122FEFC9
:1049F00081EE94E0215080409040E1F700C000003B
:104A000063E589E991E00E945F1CCF910C94D71275
:104A10008438B1F40E94B21C82FD61C067E489E968
:104A200091E00E946C1C0E94D7122FEF81EE94E05F
:104A3000215080409040E1F700C0000067E4E1CFE2
:104A40008CEF8C0F813A80F4EBE9F1E081EA91E0A0
:104A50002191C217E1F18E179F07D1F76C2F89E9D9
:104A600091E00E946C1CD1CF80E28C0F883068F4FA
:104A7000C77081E090E001C0880FCA95EAF7909175
:104A8000E301892B8093E301C0CFEBE5EC0FE3302A
:104A900040F4F0E0EF5DFE4F808190E0CF910C9408
:104AA0009C1CE8E5EC0FE73150F4F0E0EE0FFF1F3F
:104AB000EC5DFE4F80819181CF910C94861CC03FAC
:104AC00070F08C2F0E941623CF910C9433226C2F00
:104AD00089E991E00E945F1C0E94D712BFCFCF915D
:104AE00008951F93CF93DF93182F893319F0C0E0F7
:104AF000D0E002C0C0E5D0E0812F0E94CD242097F5
:104B000041F08FE99FE00197F1F700C00000219785
:104B1000F6CF812FDF91CF911F910C946D24F999DD
:104B2000FECF92BD81BDF89A992780B50895A6E180
:104B3000B0E044E050E00C94C925A8E1B0E042E0C8
:104B400050E00C94C925262FF999FECF92BD81BD66
:104B5000F89A019700B4021639F01FBA20BD0FB6BB
:104B6000F894FA9AF99A0FBE08950396272F0E9497
:104B7000A4250E94A325252F0E94A425242F0C9450
:104B8000A4250196272F0E94A4250C94A325DC01BF
:104B9000CB01FC01F999FECF06C0F2BDE1BDF89A48
:104BA000319600B40D9241505040B8F70895AA1BB9
:104BB000BB1B51E107C0AA1FBB1FA617B70710F008
:104BC000A61BB70B881F991F5A95A9F7809590953A
:104BD000BC01CD01089597FB072E16F4009407D071
:104BE00077FD09D00E94D72507FC05D03EF49095AB
:104BF00081959F4F0895709561957F4F0895A1E22B
:104C00001A2EAA1BBB1BFD010DC0AA1FBB1FEE1F46
:104C1000FF1FA217B307E407F50720F0A21BB30B91
:104C2000E40BF50B661F771F881F991F1A9469F70D
:104C300060957095809590959B01AC01BD01CF0169
:104C40000895EE0FFF1F0590F491E02D0994692758
:104C50009627692778278727782708950E94362680
:104C6000332312F48A1B9B0B0C944726A29FB0019E
:104C7000B39FC001A39F700D811D1124911DB29F90
:104C8000700D811D1124911D08950E943626B7FFD5
:104C90000895821B930B08950E943626A59F900DC0
:104CA000B49F900DA49F800D911D11240895B7FF0E
:104CB0000C944C260E944C26821B930B0895FC01F9
:104CC0004150504030F001900616D1F73197CF0196
:104CD0000895882799270895FB01DC0104C08D9170
:104CE0000190801921F441505040C8F7881B990B5E
:064CF0000895F894FFCFC7
:104CF600071B2A1B0B1B2816241623160101191A3B
:104D06001B1C1D1E1F202122010201F43133F6F760
:104D160094818283E200E900EA00B500B600B7009C
:104D2600CD008301CC008A01920194012102230265
:104D360024022502260227022A02B300B4006F00CD
:104D4600700040227B5D023B02C001AF02C802E850
:104D560002000102020202060606090909090909FA
:104D66000F0F0F0F0F0F15151518191919191919F6
:064D76001919191923248C
:00000001FF
