:100000000C94DC030C94F9030C94F9030C94F9039D
:100010000C94F9030C94F9030C94F9030C94F90370
:100020000C94F9030C94F9030C941D1B0C94591AAD
:100030000C94CB1F0C94F9030C94F9030C94F90362
:100040000C94F9030C94F9030C94F9030C94F90340
:100050000C94F9030C948A1F0C94F9030C94F90383
:100060000C94F9030C94F9030C94F9030C94F90320
:100070000C94F9030C94F9030C94F9030C94F90310
:100080000C94F9030C94F9030C94F9030C94F90300
:100090000C94F9030C94F9030C94F9030C94F903F0
:1000A0000C94F9030C94F9030C94F903800880086C
:1000B000B308B30826094409500A500A4F09C30976
:1000C000D409D409FD0E000F260F330F3A0F5A0F33
:1000D0005D0F9F0FC10F66106610CC0FCE0FD20FB1
:1000E000F80F1B101E10211045106B1892183B1AA8
:1000F00092183B1ADE1801193B1AF619061A00006D
:1001000000000000000000000000000000000000EF
:1001100000000000000000000000000000000000DF
:1001200000007E0F00D4FFFFFFC700000078000032
:100130000000000000002A2B280000000000000042
:1001400000000000000000000029000000002C1E3C
:100150003420212224342627252E362D3738271EF9
:100160001F202122232425263333362E37381F041F
:1001700005060708090A0B0C0D0E0F1011121314B7
:1001800015161718191A1B1C1D2F3130232D350475
:1001900005060708090A0B0C0D0E0F101112131497
:1001A00015161718191A1B1C1D2F3130354C1E0F30
:1001B0000500047F3F1F643214643214783C1E1E15
:1001C000140A0505010902A10185020901A1000522
:1001D00009190129081500250195087501810205F5
:1001E00001093009311581257F95027508810609BD
:1001F000381581257F950175088106050C0A38029E
:100200001581257F950175088106C0C0050109800B
:10021000A101850319012AB700150126B700950130
:1002200075108100C0050C0901A101850419012A7E
:10023000A002150126A002950175108100C006607C
:10024000FF0961A1010962150026FF0095207508CC
:1002500081020963150026FF00952075089102C0F0
:1002600005010906A101050719E029E71500250187
:10027000950875018102950175088101050719002E
:1002800029FF150026FF009506750881000508194D
:10029000012905950575019102950175039101C02C
:1002A00009025B00030100A0FA0904000001030138
:1002B0000100092111010001224000070581030806
:1002C00000010904010002030000000921110100DE
:1002D00001222200070582032000010705030320F5
:1002E00000010904020001030000000921110100BE
:1002F00001227B0007058403200001120100020097
:10030000000008627269000300010200010A037222
:1003100000620036003900000014037200790061A9
:10032000006E006200610065006B00720000000456
:100330000309042223252628292A2C2D2F30323385
:100340003536383A3B3D3E4042434547494A4C4E9C
:100350005051535557595A5C5E6062646668696BC8
:100360006D6F71737577797B7D7F81838587898ACE
:100370008C8E90929496989A9C9E9FA1A3A5A7A8D4
:10038000AAACAEAFB1B3B4B6B8B9BBBCBEBFC1C204
:10039000C3C5C6C7C9CACBCCCDCED0D1D2D2D3D497
:1003A000D5D6D7D7D8D9D9DADADBDBDBDCDCDCDCB5
:1003B000DCDDDDDDDDDCDCDCDCDCDBDBDBDADAD983
:1003C000D9D8D7D7D6D5D4D3D2D2D1D0CECDCCCB05
:1003D000CAC9C7C6C5C3C2C1BFBEBCBBB9B8B6B423
:1003E000B3B1AFAEACAAA8A7A5A3A19F9E9C9A98B3
:1003F000969492908E8C8A89878583817F7D7B7984
:10040000777573716F6D6B6968666462605E5C5A64
:100410005957555351504E4C4A4947454342403E27
:100420003D3B3A3836353332302F2D2C2A292826B9
:1004300025232229001E001F002000210022002366
:100440000024002500260027002D002E0035003155
:10045000004A002B00000014001A000800150017C5
:10046000001C0018000C00120013002F0030004C7C
:10047000004D003900000004001600070009000AC2
:10048000000B000D000E000F0033003400280000A8
:10049000004B000000E1001D001B000600190005D4
:1004A00000110010003600370038000000E500524F
:1004B000004E00E0000000E300E200000000000049
:1004C000002C0000000000E6000000015350005125
:1004D000004F0001000100010001000100010001C6
:1004E0000001000100010001000100010001000104
:1004F00000010001000000010001000100010001F5
:1005000000010001000100010001000100010001E3
:1005100000010001000000010001000100010001D4
:10052000000100010001004700010001000100007E
:1005300000010000000100010001000100010001B4
:1005400000010001000100010001000000010001A4
:100550000001000100000001000100000000000097
:100560000001000000000001000000010001000186
:100570000001000100010001000100010001000173
:100580000001000100010001000100010001000163
:100590000001000100000001000100010001000154
:1005A0000001000100010001000100010001000143
:1005B0000001000100000001000100010001000134
:1005C0000001000100010001000100010001000024
:1005D0000001000000010001000100010001000114
:1005E0000001000100010001000100000001000104
:1005F00000010001000000010001000000000000F7
:1006000000010000000000010000000100010001E5
:1006100000010001000100010001000100010001D2
:1006200000010001000100010001000100010001C2
:1006300000010001000000010001000100010001B3
:1006400000010001000100010001000100010001A2
:100650000001000100000001000100010001000193
:100660000001000100010001000100010001000083
:100670000001000000010001000100010001000173
:100680000001000100010001000100000001000163
:100690000001000100000001000100000000000056
:1006A0000001000000000001000000010001000145
:1006B000000100000101010101010101010202022A
:1006C00002020202020203030303030303030404FE
:1006D00004040404040505050505060606060607C8
:1006E0000707070708080808090909090A0A0A0B81
:1006F0000B0B0C0C0C0D0D0D0E0E0E0F0F0F101022
:1007000011111112121313141415151616171718A8
:100710001819191A1A1B1B1C1D1D1E1E1F20202113
:100720002222232424252626272829292A2B2C2D5A
:100730002D2E2F30313232333435363738393A3B7B
:100740003C3D3E3F404142434445464748494A4C70
:100750004D4E4F50515354555658595A5B5D5E5F3C
:10076000616264656668696B6C6D6F7072737577D2
:10077000787A7B7D7E8082838587888A8C8E8F9134
:10078000939596989A9C9EA0A2A3A5A7A9ABADAF5E
:10079000B1B3B5B7BABCBEC0C2C4C6C9CBCDCFD148
:1007A000D4D6D8DBDDDFE2E4E7E9EBEEF0F3F5F8F1
:1007B000FAFDFFFFAA7F554011241FBECFEFDAE0FC
:1007C000DEBFCDBF11E0A0E0B1E0E2E3F2E502C0A0
:1007D00005900D92A03AB107D9F722E0A0EAB1E066
:1007E00001C01D92AA3EB207E1F70E94710B0C9462
:1007F00017290C9400001F93CF93DF93CDB7DEB77A
:1008000067970FB6F894DEBF0FBECDBF4B8B5C8BE6
:100810006D8B7E8B8F8B611110920F0286E09E0193
:10082000235F3F4FD901E82F1D92EA95E9F795E044
:10083000FE017396D90101900D929A95E1F79C897A
:100840004E895F897B897D879E876F87598B488B0F
:10085000F901DE01179601900D928A95E1F7CE011C
:1008600007960E941C1581113EC086E0FE01379656
:10087000DE01119601900D928A95E1F7FF81E885DE
:100880006A857B856115710531F0EF3F31F481E0B8
:10089000FF3F19F403C081E001C080E080FD23C068
:1008A0002091D40130E0C9010196877099274091C9
:1008B000050250E08417950779F1F983EA837D8377
:1008C0006C8396E0929FD001939FB00D1124AB52A0
:1008D000BE4FFE01319601900D929A95E1F78093FB
:1008E000D4010E94991416E0809105029091D401E0
:1008F0008917F9F0189FC00111248B529E4F0E9456
:100900001C158823B1F08091050290E00196877054
:10091000992780930502E8CF0E945A261092D401AD
:1009200010920502EEECF1E086E0DF011D928A955F
:10093000E9F767960FB6F894DEBF0FBECDBFDF9123
:10094000CF911F9108953F924F925F926F927F9245
:100950008F929F92AF92BF92CF92DF92EF92FF92CF
:100960000F931F93CF93DF93CDB7DEB729970FB6C1
:10097000F894DEBF0FBECDBFFC0180819181238141
:100980003481232B31F09F3F31F491E08F3F19F4F4
:1009900003C091E001C090E090FD8BC67F0185E02F
:1009A000DE01119601900D928A95E1F7F7012281FF
:1009B00089819A81222349F00E949525182F682F5A
:1009C00089819A810E94F02503C00E94C425182FB6
:1009D00069817A81812F0E944E218C01F7018281E9
:1009E000882309F4F2C0980122513F452031310596
:1009F00008F01DC18FEF93E00E94F4278111EFC032
:100A0000025137EA832E32E0932E002379F08114CD
:100A1000F4E09F0609F4E3C0C4010E94F4278111A9
:100A200001C001502FEF821A920AEFCF1E821F825F
:100A300018861986442443942AE0322E84010F5FDD
:100A40001F4FC4010E94F4278E831F82882309F45C
:100A5000C6C09FEF980F933060F48F834E8232E0D0
:100A6000830E911CC8010E94F4278887811102C05F
:100A7000B6C048018E010A5F1F4FF8012081222372
:100A8000E9F2213009F04CC08181813049F46801DC
:100A9000F2E0CF0ED11CF80182810E947A270AC0B1
:100AA000823051F46801F2E0CF0ED11CF80182814E
:100AB0000E94D626860186C0833049F46801F2E0A0
:100AC000CF0ED11CF80182810E947626F3CF8430AC
:100AD00019F00F5F1F4F76C0F80122810E5F1F4F84
:100AE00080E090E030E0205331092A30310568F48D
:100AF000389EA001399E500D1124C901840F951F05
:100B00000F5F1F4FF8012081EDCF009709F45AC005
:100B1000EFE9FFE03197F1F700C000000197F5CF52
:100B2000E22FF0E0E25DFE4F5490822F869586958D
:100B3000869590E0FC01E25EFE4F64902770712C78
:100B4000022E02C0759467940A94E2F7F1E06F22D6
:100B50007724FC01E25FFE4FA490B12C022E02C06C
:100B6000B594A7940A94E2F731E0A322BB24FC01D8
:100B7000E250FF4FC490D12C02C0D594C7942A955F
:100B8000E2F781E0C822DD246114710419F081EEDE
:100B90000E94D626A114B10419F086EE0E94D62632
:100BA000852D0E947A27AB2819F086EE0E947626C2
:100BB000672819F081EE0E947626CD2819F08CE284
:100BC0000E947A270F5F1F4F58CF00313FE5130770
:100BD00009F09BC481E00E941F260E947817809133
:100BE0000602877009F465C5F7018281882309F43C
:100BF00060C58091AE0182FD5CC582E029960FB68A
:100C0000F894DEBF0FBECDBFDF91CF911F910F9142
:100C1000FF90EF90DF90CF90BF90AF909F908F901C
:100C20007F906F905F904F903F900C945F140031D5
:100C3000FFE51F0711F481E005C001312FE5120720
:100C400021F482E00E942B26C8CF033FFCE51F075A
:100C500049F406E221EE40EE63EF7CE5C7010E9415
:100C60005320BDCF043F2CE5120708F066C1083DB4
:100C70003CE5130731F407E225EE45EE68ED7CE52F
:100C8000EDCF093D9CE5190731F408E221E045EE7E
:100C900069ED7CE5E3CF073DECE51E0731F406E2A4
:100CA00021EE41EE67ED7CE5D9CF882309F47AC1C6
:100CB0001092A80203309DE5190758F40A3FECE5AD
:100CC0001E0780F4C80182509C45449708F054C127
:100CD00009C00136FDE51F0729F0053A2DE5120789
:100CE00009F04AC10E9490139093AE018093AD0128
:100CF00001313CE5130709F4C6C008F042C00930D1
:100D00009CE5190709F49BC000F50530FCE51F07B9
:100D100009F485C078F403303CE5130709F478C082
:100D200008F07AC002301C4509F0F7C08091AD018F
:100D30008160F1C00730ECE51E0709F478C008F0C7
:100D40007AC08091AD018061E6C00D302CE51207BC
:100D500009F487C058F40B308CE5180709F479C002
:100D600008F07BC08091AD0188606FC00F30ECE56A
:100D70001E0709F480C008F082C08091AD01877F12
:100D8000CAC00D3F2CE5120709F471C000F505310A
:100D90008CE5180709F485C068F40331ECE51E07FB
:100DA00009F475C008F095C00E945A268091AD01E3
:100DB0008F77B1C00B3F2CE51207A9F108F054C0A2
:100DC0000A3F1C4509F0A9C08091AE0140C0013026
:100DD0009DE5190709F489C058F40F3FFCE51F078A
:100DE00009F45AC008F069C08091AE0182602FC03A
:100DF00001363DE5130709F47EC0053A8DE5180775
:100E000009F483C002301D4509F087C060E06EC060
:100E10008091AD0182607FC08091AD0116C080914C
:100E2000AD01886078C08091AE0182604FC0809132
:100E3000AD01806270C08091AD0180646CC00E9481
:100E40005A268091AD01806866C0846064C081606C
:100E50003DC08091AD018E7F5EC08091AD018D7FE0
:100E60005AC08091AD0116C08091AE0118C080912A
:100E7000AE018D7F2BC08091AD018F7E4CC08091E3
:100E8000AD018F7D48C08091AD018F7B44C08091C2
:100E9000AD01877F8B7F3FC08091AE018D7F8E7FBC
:100EA00015C08091AD0182FB222720F991E09227A5
:100EB00090FB82F990FB83F92EC08091AE01982FB0
:100EC000909591708E7F892B90FB81F98093AE0174
:100ED00024C00E945A268091AD0187FB222720F969
:100EE00091E0922790FB87F916C061E08EE090E0D8
:100EF0000E94082812C08091AD0184FB222720F9AE
:100F000091E0922790FB84F906C08091AD01982F63
:100F1000909590FB80F98093AD016091AD011091A7
:100F2000AE0184E090E00E940828612F82E290E008
:100F30000E9408280E945A2652CE053FFCE51F0752
:100F400031F406E221EE42EE65EF7CE587CE053F07
:100F50002CE5120730F407E225EE44EE64EF7CE561
:100F60007DCE063F3CE5130709F09FCE07E225EE54
:100F700046EE66EF7CE572CE06318CE5180721F56A
:100F8000809110028A7A91E009F490E09093A20196
:100F9000882311F065E301C069E286EC91E00E94CC
:100FA00001200FC00631ECE51E0709F040C080911A
:100FB000A201882309F4B0C265E386EC91E00E94A7
:100FC000F41F0E9423140BCE0A353DE5130749F1A7
:100FD00058F401159CE51907B1F00E3D1C4509F0C8
:100FE00042C00E94AC13FBCD0B35FDE51F07D9F0C5
:100FF0000C351D45C1F58091AE0182FB882780F933
:1010000091E0892711C00E945A263FEF84E39CE0BB
:10101000315080409040E1F700C000000E94791FED
:10102000DECD81E001C080E00E947C141CC0809174
:10103000100282720C3CECE51E0709F419C308F09B
:101040009DC2063C2CE5120709F4FEC208F074C2EA
:10105000033C9CE5190709F4EDC208F05FC2023CAD
:101060001C4509F4C2C2F7018281008111818823E5
:1010700049F0C8010E949525D82E682FC8010E940A
:10108000F02504C0C8010E94C425D82EB8018D2DBA
:101090000E944E210E94F611B82E192F982EF701AA
:1010A0000281A580A2949FE0A92280910602877008
:1010B000B9F00023A9F0812F807F803421F080E2F5
:1010C0008B0D883068F08091AE0182FD09C082E00E
:1010D0000E945F14809106028770DD24D3948111F1
:1010E000D12CC12EC2948FE0C8228C2D90E08C3080
:1010F000910508F0D5C1FC01EA5AFF4F0C94E12894
:10110000812F807F1F70882311F01295107F00239C
:10111000B9F0112309F4B2C180E28B0D883010F0D0
:10112000911006C080911002182B1093100205C078
:1011300080910F02182B10930F020E9423149EC15E
:101140008B2D0E947626112309F4AAC180E28B0D13
:10115000883080F1992071F1109580910F02182349
:1011600010930F022AC0812F807F1F70803211F0F0
:101170001295107F8B2D992021F0F1E09F16D9F167
:1011800049C08091AE0182FF1BC0002369F011238A
:1011900039F080911002182B109310020E94231432
:1011A00080E00E94D6267CC180E00E947626112332
:1011B00009F476C1812F0E941C140E94231470C16F
:1011C000002381F080911102AA2051F021E0A212A7
:1011D00007C0182B181709F463C11093110260C1DE
:1011E000812B10C0AA2021F031E0A31609F458C1C8
:1011F0000E94161427C0002341F085E08A1508F4E8
:101200004FC1812F0E946C264BC194E09A1508F4BF
:1012100047C118C0002349F0AA2099F3F70185813E
:1012200080FF2CC18F708583ECCFAA2059F08933C1
:1012300009F033C1FFEF27EE33E0F150204030409A
:10124000E1F729C1812F0E9465262AC1812F869549
:101250008695837019F0813061F022C1002321F05E
:101260008B2D912F937002C080E090E00E9431207E
:101270001DC1002321F08B2D912F937002C080E0BF
:1012800090E00E941B2012C18B2D002319F00E94B8
:101290001F2502C00E9466240E943C2407C1812FA2
:1012A0008370A9F5011100C14B2D429546954770F9
:1012B000440F440F8B2D8F7090E09C01042E01C0D1
:1012C000220F0A94EAF7B4FE08C08FE090E001C054
:1012D000880F4A95EAF7809501C080E0169516952B
:1012E0001370123069F088F490911202113019F0E5
:1012F000822B892302C0922B892B0E943626D4C0D0
:10130000822B909112028927F8CF822BF6CF0023EF
:1013100019F0812F817001C08695882309F4C4C01B
:101320004B2D429546954770440F440F8B2D8F707F
:1013300090E09C01042E01C0220F0A94EAF7B4FE4B
:1013400008C08FE090E001C0880F4A95EAF78095C9
:1013500001C080E0169516951370123059F078F49C
:1013600090912D02113019F0822B892309C0922B04
:10137000892B06C0822B90912D02892701C0822BD8
:101380000E941B2691C01F70002339F0812F0E94FC
:101390002B268B2D0E946C2687C08B2D0E946526E4
:1013A000812F0E941F2680C08B2D92EF991679F114
:1013B000991538F0E0EF9E1659F0F1EF9F1611F1F4
:1013C00059C023EF921651F134EF9316B9F052C081
:1013D000002379F084E08A1508F462C01F7181E06F
:1013E00090E001C0880F1A95EAF790912D028927A5
:1013F0001FC095E09A1508F453C0F0CF8091AE015C
:1014000082FF19C0002329F0812F8F7126C000238D
:10141000D9F3812F8F710E941F2642C0002339F01B
:101420001F7181E001C0880F1A95EAF701C080E0C2
:101430000E941B2635C0002399F01F71812F0E9446
:101440002B268091AE0182FD07C0E8E01E9FC001FF
:101450001124836080930602812F0E942B2620C0D6
:1014600081E00E945F14F1E0FA15D0F482E00E945E
:101470005F1416C0002321F0AA2031F28B2D91CEEB
:10148000AA2039F2893349F42FEF37EE83E0215057
:1014900030408040E1F700C000008B2D0E9476268E
:1014A00088EF8C0D843010F40E944720DD2009F471
:1014B00000C18091060280FDFCC0F7011282859573
:1014C000859585950E942B26C7010E94A3048091D3
:1014D000060285958595859529960FB6F894DEBF09
:1014E0000FBECDBFDF91CF911F910F91FF90EF9075
:1014F000DF90CF90BF90AF909F908F907F906F9034
:101500005F904F903F900C941F2601319FE5190783
:1015100009F09BCB82E05FCB69E24FCD043C2CE528
:10152000120709F48CC0053C1C4509F09CCD45ED23
:1015300053E26EED73E2A0C0093C9CE5190709F483
:101540008DC070F4073CFCE51F0709F482C0083C1D
:101550001C4509F088CD49EC53E26DEB73E28CC079
:101560000A3C3CE5130709F47EC00B3C1C4509F01E
:101570007ACD49E252E26AE372E27EC0013DECE5D7
:101580001E0709F485C098F40E3C2CE5120709F4F7
:1015900079C008F474C00F3C8CE5180709F475C0D5
:1015A000003D1C4509F05FCD6EE089E07FC0043D41
:1015B000ECE51E0709F472C060F4023D2CE5120749
:1015C00009F469C0033D1C4509F04DCD61E088E197
:1015D0006AC0053D8CE5180709F463C00D351D454B
:1015E00009F041CD6AE285E261C08091A10280FFED
:1015F0001BC08E7F8093A1026091A1027091A20214
:101600008091A3029091A4020E9417221092CB0213
:10161000EFEFF0E722E0E150F0402040E1F700C0BA
:1016200000000E94BD21DBCA81608093A10261E0BD
:10163000869539C049E254E262E374E21DC042E398
:1016400054E269E274E218C04EED53E265ED73E2D4
:1016500013C04DEB53E269EC73E20EC045EA53E26E
:1016600061EB73E209C041EB53E265EA73E204C047
:101670004AE352E269E272E20E94B721B0CA61E035
:1016800081E011C065E082E011C068E086E00EC034
:1016900064E18FE00BC067E185E108C062E289E1A7
:1016A00005C061E083E20E94E72399CA0E94A52158
:1016B00096CA29960FB6F894DEBF0FBECDBFDF9154
:1016C000CF911F910F91FF90EF90DF90CF90BF903F
:1016D000AF909F908F907F906F905F904F903F90D2
:1016E0000895CF93DF93CDB7DEB7AA970FB6F894DE
:1016F000DEBF0FBECDBF84B7877F84BF0FB6F8941F
:10170000A8958091600088618093600010926000CD
:101710000FBE90E080E80FB6F8948093610090933C
:1017200061000FBE85B7806885BF85B7806885BFBB
:1017300089EB90E19093A1018093A0010E949D1AF2
:101740000E94BC1A8091E20084608093E200789449
:10175000809123028823A1F01091E9001F709091DD
:10176000EC00892F817090FD80E8182B1092E90021
:101770008091E80083FD0E9483171F701093E90099
:1017800082E084BD93E095BD9AEF97BD80936E0093
:101790000E948C21811102C00E947D210FE111E085
:1017A000D8018D918D018F3F11F00E94FE10B1E0A4
:1017B00004321B07A9F704E211E0F80181918F01BF
:1017C0008F3F11F00E94FE10F1E004331F07A9F7CC
:1017D0008AE0ECEBF1E0DF01282F1D922A95E9F772
:1017E000E3EAF1E0DF011D928A95E9F70E94A11377
:1017F000811102C00E94AC1382E090E00E94F427A5
:101800008093B0010E9490139093AE018093AD013C
:101810000E941511EFE3FCE93197F1F700C00000D9
:101820000E9415118091BC0180FF08C06FEF7FEF0F
:1018300080E090E00E9426280E94791F83E090E0DB
:101840000E94F4270E9436268091AF01811133C097
:101850000E94A113811104C00E94AC130E944B226C
:1018600088E090E00E94FC276093A1027093A2029E
:101870008093A3029093A4026E7F71F40E944B2286
:1018800088E090E00E94FC276093A1027093A2027E
:101890008093A3029093A4020E9404221092CB0290
:1018A0008091A10280FF04C060E086950E94E7233A
:1018B00081E08093AF0184E091E09093AC0280934B
:1018C000AB0278E1672E712CE0E43E2EF0E14F2E62
:1018D000A0E15A2E8E010F5F1F4F4E01FBE08F0ECD
:1018E000911C80912302853009F042C062E1F62EFE
:1018F00080912302853009F037C080912302843023
:1019000009F11092AF020FB6F894A89560926000AA
:101910000FBE3092600083B7817F846083BF83B73E
:10192000816083BF7894889583B78E7F83BF0FB61D
:10193000F894A8958091600088618093600010926F
:1019400060000FBE80912202882391F20E9415113F
:10195000ECEBF1E081919191892B09F0E1C321E059
:10196000E63CF207B9F7C4CF0E945A260E944720EE
:101970000E941511882359F08FB7F8944091B00256
:101980005091B1026091B2027091B3028FBF5CEBD3
:10199000A52E51E0B52EA1EBB1E0F501E12CF12C23
:1019A0006E2D219131918D919D91822793270097E2
:1019B00079F170E0CC24C394D12CAC014C215D2191
:1019C000452B09F179A36AA32C213D2181E0232B2A
:1019D00009F480E08BA30E94BF1F8160782F9DA334
:1019E0008CA349A15AA16BA18DA10E94FB03F70111
:1019F000EE0FFF1FEF54FE4F80819181C826D9263C
:101A0000D182C0821CC07F5FCC0CDD1C7031A9F676
:101A10003FEFE31AF30A45E0E416F10409F68FEF0D
:101A20008EA38FA318A60E94BF1F8160782F9AA74C
:101A300089A74EA15FA168A58AA50E94FB0380919A
:101A4000CB02882309F4AAC08091CA02E091A102C6
:101A5000E695E81BE093C602823059F4F0E0E154C9
:101A6000FE4FE491EE2EF12C9BE3C92E9FE1D92E7F
:101A700070C0863059F4F0E0E454FE4FE491EE2E4D
:101A8000F12C8BE2C82E8FE1D82E63C0893061F42F
:101A9000E695F0E0E754FE4FE491EE2EF12CB1EC28
:101AA000CB2EBEE1DB2E55C08F3061F4E695F0E021
:101AB000EA54FE4FE491EE2EF12CA4E5CA2EAEE1DD
:101AC000DA2E47C0853159F4F0E0ED54FE4FE49131
:101AD000EE2EF12CF6E0CF2EFEE1DF2E3AC088315B
:101AE000F9F0833249F4E1EBF1E0E590F490EBEEAC
:101AF000CE2EEEE1DE2E2DC08432D1F0853209F5F6
:101B00008E2F63E00E949F28E92FF0E0E255FE4F00
:101B1000E491EE2EF12C72EAC72E7CE1D72E19C08B
:101B200058E2E52EF12C6DE7C62E6DE1D62E11C0E0
:101B300034EFE32EFF24F39443E4C42E4DE1D42E7E
:101B400008C090EDE92E97E0F92E26E5C22E2CE193
:101B5000D22E8091C702882361F01092C7020E94A2
:101B6000BF1F9093C5028093C4021092C9021092C5
:101B7000C8020E94BF1FE091C402F091C5028E1BF3
:101B80009F0B8F3F9F4750F4EE0EFF1EF092C50251
:101B9000E092C40284EC92E0F601099586E0EEEB57
:101BA000F2E0D80101900D928A95E1F7C090C00251
:101BB000D090C102E090C202F090C3021092C00225
:101BC0001092C1021092C2021092C302C11003C04F
:101BD000DD2009F451C08091BC029091BD020E94A9
:101BE000B01F9C019091B802992309F4B8C2253125
:101BF000310508F441C09F3F19F09F5F9093B802F0
:101C0000CC2061F00E94FF241C1414F491E001C068
:101C10009FEF899F802D11248093C002DD2061F009
:101C20000E94FF241D1414F491E001C09FEF899FCE
:101C3000802D11248093C1023091C0023323E1F042
:101C40002091C1022223C1F045EB3403C0011124CD
:101C5000992319F09093C00203C081E08093C002E1
:101C600035EB2303C0011124992319F09093C1028D
:101C700003C081E08093C102E11003C0FF2009F49A
:101C800051C08091BA029091BB020E94B01F9C018A
:101C90009091B702992309F467C22135310508F400
:101CA00041C09F3F19F09F5F9093B702EE2061F013
:101CB0000E94DD241E1414F491E001C09FEF899F5F
:101CC000802D11248093C202FF2061F00E94DD2448
:101CD0001F1414F491E001C09FEF899F802D1124FF
:101CE0008093C3023091C2023323E1F02091C302FA
:101CF0002223C1F045EB3403C0011124992319F0CC
:101D00009093C20203C081E08093C20235EB2303AB
:101D1000C0011124992319F09093C30203C081E0FC
:101D20008093C3028091C00281110BC08091C102D7
:101D3000811107C08091C202811103C08091C3024A
:101D400081110E943C24CB82DC82ED82FE8286E0FF
:101D5000F801AEEBB2E001900D928A95E1F70E9496
:101D600047209091BB0189138093BB01809123028E
:101D7000843009F0B6CD83E08093E9008091E800DB
:101D800082FFAFCD8091E80085FF21C00E94F41B47
:101D900081111BC080E2E82EF12C680109C08091FE
:101DA000F100D6018D936D01B1E0EB1AF10869F0F5
:101DB0008091E80085FDF3CF8091E8008B778093D8
:101DC000E8000E94F41B882399F391E001C090E0A1
:101DD0008091E8008B778093E800992309F481CD06
:101DE000E9818E2F90E0FC013197E331F10508F095
:101DF0006DC1EE59FF4F0C94E1281A8289E0BFC0F3
:101E00008A81823009F4A2C1833089F0813009F0DF
:101E10005DC12FB7F8948091B0029091B102A0916A
:101E2000B202B091B3022FBFBB83AC8321C0F801D3
:101E3000D5018C9111969C91B2E0AB0EB11C9283AE
:101E4000838332968E169F0699F742C18A8182302B
:101E500009F03CC16B817C818D819E810E94E728C5
:101E60000E945B2135C14C816B818A810E942821AF
:101E70009D8373C1ED80FE80FE24EF24FE248C81BF
:101E8000CB809A81E0E2CE9E60011124F0EA9F9F10
:101E9000C00CD11C1124C80ED11CC80ED11C6F2D32
:101EA000C60187960E9408286E2DC60188960E945A
:101EB00008280EC10E94D6200BC18A818138B1F05A
:101EC00050F4803809F004C120E04B816091A302F6
:101ED0008091A20231C0823859F1833809F0F8C0EC
:101EE00020E04091A4026C818B8126C060E08B8150
:101EF0000E94E7239B818091A102911111C08E7FE6
:101F00008093A1021092CB022FEF30E742E02150E4
:101F100030404040E1F700C000000E94BD21D8C021
:101F200081608093A10260E086950E94E723D0C083
:101F30008B818093A502CCC00E940A23C9C08A81EC
:101F4000813899F030F4803809F0C2C08091A40241
:101F500016C0823891F0833809F0BAC08091A2028D
:101F60008B838091A3028C83B3C08091A10280FFF8
:101F700002C0869504C080E002C08091A5028B83D8
:101F8000A7C06091A1027091A2028091A3029091DA
:101F9000A4020E9417229CC05A829AC081E08A83C0
:101FA00089E5EDCFEA80FB80FE24EF24FE24AC809F
:101FB000B12C6801C70189559D4F9601201B310B3B
:101FC0002A153B0508F084C0A9E5EA16A1E0FA0647
:101FD00028F40E94F427F601848303C0D6011496E6
:101FE0001C92BFEFEB1AFB0AEFEFCE1ADE0AE2CF2C
:101FF000EA80FB80FE24EF24FE24AC80B12C680133
:10200000C70189559D4F9601201B310B2A153B05B1
:1020100008F05EC0F9E5EF16F1E0FF0628F4D601FE
:1020200014966C910E940828BFEFEB1AFB0AEFEFA1
:10203000CE1ADE0AE5CF0E94C6204AC084E08A8319
:1020400047C0EA80FB80FE24EF24FE24AC80B12C44
:102050006801C70187969601201B310B2A153B05A5
:10206000B8F5F0E8EF16F2E0FF0630F40E94F4272E
:10207000D60114968C9302C0F6011482FFEFEF1A7A
:10208000FF0A2FEFC21AD20AE4CFEA80FB80FE24B7
:10209000EF24FE24AC80B12C6801C701879696011D
:1020A000201B310B2A153B0598F430E8E31632E08B
:1020B000F30628F4D60114966C910E940828BFEF0D
:1020C000EB1AFB0AEFEFCE1ADE0AE7CF8FEF898318
:1020D00080912302843009F004CC8091E9008F7054
:1020E0002091EC00922F917020FD90E8F92EF82AB3
:1020F00082E08093E9008091E80080FF0CC040E01E
:1021000050E060E270E0C8010E94271C8091E80066
:102110008E778093E8008F2D8F708093E900E1CB5C
:1021200049BCF9BC09B400FEFDCF8091D8008F7D79
:102130008093D8008091E00082608093E0008091DD
:10214000E00081FDFCCF0E945A26D2CB86E290E0CF
:102150000E94F4271B821C821D828E83B9CF2B30F4
:10216000310508F04ACD88CD2B30310508F09BCDE4
:10217000D9CD80E008959091AD0192FF0DC0282F38
:102180002871283019F4877F846006C0282F2471B5
:10219000243011F48B7F886093FF0DC0282F2871A5
:1021A000283119F4877E846106C0282F24712431D8
:1021B00011F48B7E88612091AE0120FF0DC0382F75
:1021C0003871383019F4877F816006C0382F31713B
:1021D000313011F48E7F886021FF0DC0282F2871C7
:1021E000283119F4877E816106C0282F21712131A1
:1021F00011F48E7E886194FD877E0895F894E82F0F
:10220000E295EF70F0E031A1282F2F7081E090E08F
:1022100001C0880F2A95EAF7982F9095932391A3F0
:1022200092A1892B82A3789408958F929F92AF9266
:10223000BF92CF92DF92EF92FF920F931F93CF93B3
:10224000DF93CDB7DEB72A970FB6F894DEBF0FBE87
:10225000CDBFAE014F5F5F4F7A018AE0FA01119264
:102260008A95E9F70FE111E06A01AA24A394B12C41
:10227000F80180818F3F09F447C0F894E82FE29578
:10228000EF70F0E021A18F70A50102C0440F551F2F
:102290008A95E2F7CA01922F982B91A392A180957B
:1022A000892382A3789400C0E4E2F1E021E030E0E9
:1022B000812C912C41914F3F89F0A42FA295AF70B2
:1022C000B0E090968C9190E04F7002C09595879504
:1022D0004A95E2F780FD02C0C90102C080E090E0AB
:1022E000882A992A220F331F51E0E433F50711F7AA
:1022F000F80180818F3F11F00E94FE10F0EAFA95FC
:10230000F1F7F601918280820F5F1F4FF2E0CF0E4E
:10231000D11C41E00432140709F0AACF4AE050E092
:10232000B70183EA91E00E940A2911E0009709F4BD
:1023300010E0892B89F08AE0F701A3EAB1E001906F
:102340000D928A95E1F781E0809315020E94BF1FEC
:10235000909314028093130280911502882391F1C7
:1023600080911302909114020E94B01F059750F1C2
:102370008091A3019091A4019093BD018093BC0131
:102380008091A5019091A6019093BF018093BE0119
:102390008091A7019091A8019093C1018093C00101
:1023A0008091A9019091AA019093C3018093C201E9
:1023B0008091AB019091AC019093C5018093C401D1
:1023C00010921502812F2A960FB6F894DEBF0FBE29
:1023D000CDBFDF91CF911F910F91FF90EF90DF90D4
:1023E000CF90BF90AF909F908F900895CF93DF9341
:1023F0008238910569F1B0F48133910509F46FC019
:1024000048F48932910509F465C08A32910509F4CE
:102410006BC08AC08533910509F457C08933910593
:10242000B9F082C0833E910571F138F4803E910588
:10243000B1F0823E910511F177C0863E9105B9F168
:10244000873E9105C9F1843E910509F06DC024C015
:102450002091AD0120FD53C021FD51C065C0809188
:10246000AD0180FD46C08091AE0180FF48C08091E3
:10247000AD0184FD50C183EE90E04FC18091AD016C
:1024800082FF3AC0F4CF8091AD0182FD35C08091CA
:10249000AE0180FD34C0EBCF8091AE0181FF35C02D
:1024A0008091AD0184FD37C187EE90E036C1809107
:1024B000AD0183FF27C0F4CF8091AD0183FD22C021
:1024C0008091AE0181FD21C0EBCF8091AD0185FDF2
:1024D0001FC021C08091AD0185FD1DC019C0809134
:1024E000AD0186FD1BC01DC08091AD0186FD19C0E8
:1024F00015C089E390E011C182EE90E00EC180EE3C
:1025000090E00BC186EE90E008C184EE90E005C13A
:1025100089E290E002C185E390E0FFC08AE290E0AA
:10252000FCC081E390E0F9C0811531E5930708F024
:1025300069C0811540E59407F0F09C0174E0369580
:1025400027957A95E1F7922F9370482F437021E0F9
:1025500030E002C0220F331F4A95E2F73C68392B66
:10256000982F9F709695969540E2949FC0011124F4
:10257000822B932BD2C0883E910568F5803E910551
:1025800008F0CBC0883A9105B8F4853A910548F037
:10259000855AE82FF0E0EC5CFE4F808190E090647B
:1025A000BCC08130910509F4B3C008F4B4C08430D4
:1025B000910508F4B0C0B1C08F3B910508F0ABC0E5
:1025C000885AE82FF0E0EE0FFF1FE95CFE4F808194
:1025D00091819464A2C0811520E2920758F481157C
:1025E00031E0930708F099C0803F910508F493C04B
:1025F000906593C0811540E4940708F48CC09F70E7
:10260000906A8BC0811525E5920708F042C08115BC
:1026100034E5930728F0982F8827846F906A7DC04F
:10262000811543E59407B0F09C012370332741E006
:1026300050E002C0440F551F2A95E2F7282F269537
:10264000269580E2289F90011124CA01822B932BAA
:102650009A6863C0811522E5920728F4982F88278D
:10266000816F906A5AC09C012370332741E050E08B
:1026700002C0440F551F2A95E2F7282F269526956C
:1026800080E2289F90011124CA01822B932B9C6821
:1026900044C0EC01811539E59307A8F481159845EC
:1026A00028F09C2F8827806F906A37C0C11586E577
:1026B000D80788F58C2F0E94BB108F7190E0982F5F
:1026C000882790622AC081152AE5920790F48C2F02
:1026D0008F700E94BB1094E0D695C7959A95E1F74C
:1026E000CF70D0E0DC2FCC27D0699E01282BC90108
:1026F00014C090568115904270F48D2F8F710E94F6
:10270000BB10282F2F71CE0199279062922B05C004
:1027100081E090E002C080E090E0DF91CF910895E9
:10272000CF9384E090E00E94F427C82F82E290E0EB
:102730000E94F4272C2F30E0A901582BCA01CF9119
:10274000089580E090E00E940228893E9E4F11F497
:102750000C948C2180E0089569EE7EEF80E090E09B
:102760000E94262860E082E090E00E94082860E055
:1027700083E090E00E9408281092120260E084E05A
:1027800090E00E94082860E082E290E00E94082821
:1027900060E085E090E00E94082860E086E090E03C
:1027A0000E9408286FEF87E090E00E94082840E030
:1027B00050E0BA0188E090E00E941A2860E08DE0C5
:1027C00090E00E94082840E050E0BA0188E190E0E3
:1027D0000E941A2860E087E190E00E94082840E00B
:1027E00050E0BA018CE190E00E941A2860E070E0AD
:1027F00080E290E00E94262840E050E0BA0188E1A3
:1028000090E00E941A2880E00E945F210E947D21B2
:1028100040E050E0BA018FE090E00E941A2840E0CA
:1028200050E0BA0183E190E00C941A2880911102E3
:1028300081111092110208958095909110028923C0
:102840008093100208959091100280910F02982BAE
:102850009093C60180911102882389F0892B80937F
:10286000C601E8ECF1E097E080E0915029F0219179
:102870002223D9F38F5FF9CF81110E94161448E00B
:1028800050E067E072E086EC91E00E940A29892B13
:10289000A9F088E0E6ECF1E0A7E0B2E001900D924B
:1028A0008A95E1F7E091AB02F091AC02309731F0FC
:1028B0000280F381E02D86EC91E009940895209147
:1028C00006028095822380930602982F977099F4D0
:1028D00030E0482F082E000C550B2417350759F00F
:1028E0009091AE0192FD07C08595859585950E94D2
:1028F0001F26109206020895CF93C091AE01C2FB2D
:10290000992790F9981799F080FBC2F9C093AE010E
:102910006091AD0184E090E00E9408286C2F82E273
:1029200090E00E94082882E0CF910C945F14CF9130
:102930000895809105029091D401891719F08F5F55
:102940008770FBCF08950F931F93CF93DF938091F0
:10295000D30182958F7009F05DC08091D0018823EA
:1029600009F458C0809105021091D4016091CE0104
:102970007091CF01C091D101D091D20191E06F3F10
:1029800009F090E0292F06E0811709F443C0209751
:1029900021F07F3F21F030E003C031E001C0322F51
:1029A00090E030FD34C0089FF001099FF00D112424
:1029B000DF01AB52BE4F11963C911197371327C0E0
:1029C0003C91361324C012963C91129731111FC0CE
:1029D00013964D915C9114974C1B5D0B483C51052F
:1029E000B0F48091D3018F7080618093D301E6525F
:1029F000FE4F80818F70806180838EEC91E00E9419
:102A0000A304DF91CF911F910F910C94991401961B
:102A10008770BACFDF91CF911F910F910895CF9317
:102A2000DF93EC010E949525BE010E944E210E9479
:102A3000F611DF91CF9108959F92AF92BF92CF92FE
:102A4000DF92EF92FF920F931F93CF93DF93CDB757
:102A5000DEB761970FB6F894DEBF0FBECDBF8C0115
:102A600085E0F801DE011D9601900D928A95E1F74F
:102A7000F801E2809091CE016091CF014091D101A7
:102A80005091D2014115510531F06F3F31F481E091
:102A90009F3F19F403C081E001C080E0F82FF1707E
:102AA0009F2E80FD1AC1F80130812181C380D4801E
:102AB0008EECA82E81E0B82EF090D001F601E41B38
:102AC000F50BFF2009F4C6C08091D301E83CF10565
:102AD00008F091C0482F407F09F050C0621311C028
:102AE00093130FC0FE2CE1100CC08F708061809397
:102AF000D301C5010E94A3048091D301F80185830D
:102B000029C1CD2831F02F3F31F481E03F3F19F446
:102B100003C081E001C080E080FD03C081E08E251C
:102B200002C080E090E0F82FF170FF2E80FF1CC003
:102B3000809105024091D40156E0841709F4E8C061
:102B400090E0589FF001599FF00D1124EB52FE4F79
:102B50006181261306C06081631303C06281E6129F
:102B600003C001968770E9CFFE2CEE2009F4F2C075
:102B70008091D30181608093D30149C0621306C064
:102B8000931304C0E11002C0F80186C0C8010E947E
:102B90003A26882351F1EE2041F12091D301822F72
:102BA00082958F7090E0029774F08091CE019091A1
:102BB000CF0198878F831986DB86CA862C87CE0142
:102BC00007960E94A30486E0F801AEECB1E0019004
:102BD0000D928A95E1F70E94A3140AC06217C9F00A
:102BE000C8010E943A2681111EC0C8010E94A30498
:102BF000FF24F394AFC0482F407F81F78EEC91E023
:102C00000E94A30486E0F50111928A95E9F7F12C60
:102C1000A1C09313E5CFE110E3CFF8018583C8018C
:102C20000E94A30454C0EE2001F32091D301822F0F
:102C300082958F7090E0029734F28091CE0190914E
:102C4000CF019A8389831B82DD82CC822E83CE01C1
:102C50000196B7CFE83CF105D0F5FE2CEE2029F225
:102C6000621327C0931325C02091D30120FD18C003
:102C7000822F82958F70482F50E04115510581F0C9
:102C8000F80125834F30510541F08F5F982F9295C1
:102C9000907F822F8F70892B8583C8010E94A304A7
:102CA00086E0F801AEECB1E001900D928A95E1F773
:102CB00051C0C8010E943A26811185CF8091D3016D
:102CC00081608093D301C8010E94A30443C086E0C1
:102CD000F50111928A95E9F73DC0EE2009F485CF00
:102CE000C8010E943A26F82E882309F47ECF86E098
:102CF000F801AEECB1E001900D928A95E1F7809178
:102D0000CE019091CF010E940F150E94A31422C002
:102D10003D872E878D859E850E940F15292F229530
:102D20002F70223028F49F7039F0811105C00BC03C
:102D3000243028F49F7049F4805E883020F0C80168
:102D40000E94A3049F2CF92C05C0F8019581907F67
:102D500099F7F9CF8F2D61960FB6F894DEBF0FBEAD
:102D6000CDBFDF91CF911F910F91FF90EF90DF903A
:102D7000CF90BF90AF909F9008958091250287FFDC
:102D800011C08091E80082FD05C08091230281116D
:102D9000F8CF11C08091E8008B770BC0809123029F
:102DA000882349F08091E80080FFF8CF8091E80007
:102DB0008E778093E8000895982F973068F5909368
:102DC000E900981739F07091EC002091ED005091D6
:102DD000F00003C0242F762F50E021FD02C09F5F3A
:102DE000ECCF3091EB003E7F3093EB003091ED0063
:102DF0003D7F3093ED003091EB0031603093EB007C
:102E00007093EC002093ED005093F0002091EE00C1
:102E100027FDE5CF80E008958F708093E90081E081
:102E2000089520912B0230912C022617370748F085
:102E30006115710539F42091E8002E772093E800A0
:102E400001C0B901FC0120E06115710579F18091A3
:102E500023028823F1F18530F1F18091E80083FDB0
:102E60003CC08091E80082FD2EC08091E80080FF88
:102E7000EBCF2091F3008091F20090E0922B61154E
:102E8000710551F08830910538F421912093F100BB
:102E9000615071090196F3CF21E0089709F020E015
:102EA0008091E8008E778093E800CECF2111CFCFBC
:102EB0000AC080912302882361F0853061F08091FF
:102EC000E80083FD0AC08091E80082FFF2CF80E035
:102ED000089582E0089583E0089581E008950895BB
:102EE000BC0184E00C944F1FBC0183E00C944F1F85
:102EF00080912D02982F9670963011F4886001C051
:102F0000877F0C941B261F93CF93DF93CDB7DEB73B
:102F1000AA970FB6F894DEBF0FBECDBFE5E2F2E090
:102F20008DE292E02091F10021938E179F07D1F757
:102F300080912602833009F463C030F4813071F04F
:102F4000823009F49DC0B4C08A3009F489C08B3046
:102F500009F46EC0893009F0ABC020C08091250211
:102F6000813A09F0A5C08091E800877F8093E8004E
:102F70008091290290912A02892B21F468E089E14D
:102F800092E003C060E080E090E070E00E941117E2
:102F90008091E8008B778093E8008AC080912502B9
:102FA000813209F085C08091290290912A02009710
:102FB00019F0029709F07CC08091E800877F809328
:102FC000E8008091E80082FD05C080912302811114
:102FD000F8CF6EC02091F3008091F20090E0922B28
:102FE000029731F48091F100813011F0863021F4A4
:102FF0008091F100809318028091E8008B7754C093
:1030000080912502813A09F053C080912902909164
:103010002A02892B09F04CC08091E800877F8093B9
:10302000E8008091E80080FFFCCF8091100137C05C
:10303000809125028132E1F58091290290912A0246
:10304000892BB1F58091E800877F8093E8000E948A
:10305000BD1680912702809310010E945A2628C035
:1030600080912502813221F58091E800877F80934D
:10307000E8000E94BD16809128028093170218C0B4
:1030800080912502813AA1F48091E800877F8093A6
:10309000E8008091E80080FFFCCF809117028093C8
:1030A000F1008091E8008E778093E8000E94BD16C1
:1030B0008091E80083FFDFC1809125029091260274
:1030C000492F50E04A30510508F0D5C1FA01EB58BC
:1030D000FF4F0C94E128803821F0823809F0CBC1F1
:1030E00008C08091210290912202992389F0826088
:1030F0000FC0809129028F70873008F0BCC1809387
:10310000E9008091EB0085FB882780F91092E900A7
:103110009091E800977F9093E8008093F1001092DF
:10312000F10070C1282F2D7F09F0A5C1882319F067
:10313000823061F0A0C180912702813009F09BC1EB
:10314000933009F080E0809322022EC08091270204
:1031500081112AC0809129028F702FEF280F26300D
:1031600008F089C18093E9002091EB0020FF1CC08A
:10317000933021F48091EB00806214C09091EB00B9
:1031800090619093EB0021E030E0A90102C0440F70
:10319000551F8A95E2F74093EA001092EA00809169
:1031A000EB0088608093EB001092E9008091E800CA
:1031B000877F8093E8000E94BD165DC181115BC1CD
:1031C000109127021F778091E3008078812B8093F4
:1031D000E3008091E800877F8093E8000E94BD169D
:1031E0008091E80080FFFCCF8091E30080688093AD
:1031F000E300111102C082E001C083E0809323024A
:103200003AC18058823008F036C1209127023091AF
:1032100028022C3D53E0350779F583E08A838AE262
:1032200089834FB7F894DE01139620E03EE051E227
:10323000E32FF0E050935700E49120FF03C0E295A4
:10324000EF703F5FEF708E2F90E0EA3010F0C7967E
:1032500001C0C0968D939D932F5F243149F74FBFD6
:103260008091E800877F8093E8006AE270E0CE01F9
:1032700001960E941117B4C08091290290912A02F0
:10328000432F552743305105A9F068F441305105CB
:1032900009F400C14230510509F0EDC08BE590E022
:1032A000E0EAF2E04BC04132510529F142325105CA
:1032B00089F1E1C0C901992781309105A1F058F049
:1032C000029709F0D8C0EDE0F3E0E4918E2F90E092
:1032D000EDE0F3E030C0EFE2F3E0E4918E2F90E018
:1032E000EFE2F3E028C0E9E1F3E0E4918E2F90E013
:1032F000E9E1F3E020C08330910508F0BCC0880FFD
:10330000991FFC01E259FE4F0190F081E02D89E008
:1033100090E014C08330910508F0ADC0FC01EE0FC1
:10332000FF1FE859FE4F0190F081E02DDC01AB5901
:10333000BE4F8C9190E0009709F49DC02091E80069
:10334000277F2093E80020912B0230912C02281730
:10335000390708F4C90140E0009789F12091230260
:10336000222309F43DC02530D9F12091E80023FD46
:1033700037C02091E80022FD2FC02091E80020FFF7
:10338000EBCF4091F3002091F20030E0342B009716
:1033900059F02830310540F444914093F1003196C2
:1033A00001972F5F3F4FF3CF41E02830310509F0FF
:1033B00040E02091E8002E772093E800CDCF411126
:1033C000CDCF0AC080912302882351F0853041F08F
:1033D0008091E80083FD04C08091E80082FFF2CF75
:1033E0008091E8008B778093E80045C0803809F031
:1033F00042C08091E800877F8093E800809124029A
:103400008093F1008091E8008E77D3CE811133C094
:1034100080912702909128029927029764F5809164
:10342000E800877F8093E800109127021093240220
:103430000E94BD16111106C08091E30087FD02C0F5
:1034400081E001C084E08093230242E061EC81E0EE
:103450000E94DC1642E261EC84E00E94DC1642E24B
:1034600061EC82E00E94DC1642E260EC83E00E94A4
:10347000DC16809123028091E80083FF10C08091C8
:10348000E800877F8093E8008091EB008062809362
:10349000EB0005C082E190E0EBEFF2E04FCFAA969F
:1034A0000FB6F894DEBF0FBECDBFDF91CF911F9155
:1034B00008951F920F920FB60F9211242F933F93EE
:1034C0004F935F936F937F938F939F93AF93BF932C
:1034D000CF93DF93EF93FF93C091E900CF7080917A
:1034E000EC00D82FD17080FDD0E81092E9008091D7
:1034F000F000877F8093F00078940E9483171092E9
:10350000E9008091F00088608093F000CD2BCF70AF
:10351000C093E900FF91EF91DF91CF91BF91AF91FF
:103520009F918F917F916F915F914F913F912F91DB
:103530000F900FBE0F901F901895E8EDF0E080817E
:103540008E7F80831092E2001092DA001092E100E8
:10355000A0EEB0E08C9181608C9380818F77808326
:1035600019BCA7EDB0E08C918E7F8C9380818F7E0B
:103570008083109216020895CF92DF92EF92FF920D
:103580000F931F93CF93DF93C8EDD0E088818F7E98
:103590008883E7EDF0E080818160808384E082BFF2
:1035A00081E08093160288818E7F888302EE10E08E
:1035B000F80110821092DA0081EEC82ED12CF601AB
:1035C000108288818F77888388818068888388814A
:1035D0008F7D888319BC10922302109224021092CE
:1035E00022021092210290EEE92EF12CF701808147
:1035F0008B7F808388818160888342E060E080E007
:103600000E94DC16F60180818E7F8083F801808124
:1036100081608083808188608083F70180818E7FD4
:103620008083888180618883DF91CF911F910F9182
:10363000FF90EF90DF90CF9008951F920F920FB6FA
:103640000F9211242F933F934F935F936F937F9328
:103650008F939F93AF93BF93EF93FF938091E1007C
:1036600082FF09C08091E20082FF05C08091E100E5
:103670008B7F8093E1008091DA0080FF2AC08091E7
:10368000D80080FF26C08091DA008E7F8093DA0018
:103690008091D90080FF18C080E189BD82E189BD99
:1036A00009B400FEFDCF81E08093230280911602D1
:1036B00081110FC00E949D1A0E94BC1A8091E200E5
:1036C00084608093E20005C019BC1092230210921E
:1036D00016028091E10080FF17C08091E20080FF18
:1036E00013C08091E2008E7F8093E2008091E2001F
:1036F00080618093E2008091D80080628093D8003E
:1037000019BC85E0809323028091E10084FF30C0E2
:103710008091E20084FF2CC080E189BD82E189BDF7
:1037200009B400FEFDCF8091D8008F7D8093D80032
:103730008091E1008F7E8093E1008091E2008F7E96
:103740008093E2008091E20081608093E2008091AA
:103750002402882311F084E007C08091E30087FDF4
:1037600002C081E001C083E08093230280912302A4
:103770008091E10083FF27C08091E20083FF23C096
:103780008091E100877F8093E10082E080932302B3
:10379000109224028091E1008E7F8093E10080915D
:1037A000E2008E7F8093E2008091E200806180934E
:1037B000E20042E060E080E00E94DC168091F000D0
:1037C00088608093F000FF91EF91BF91AF919F913E
:1037D0008F917F916F915F914F913F912F910F90BA
:1037E0000FBE0F901F9018952091E4003091E500D6
:1037F00095E64091EC00842F817040FF23C08091BA
:10380000E80080FD1DC080912302882399F0853057
:1038100099F08091EB0085FD11C04091E40050913A
:10382000E5002417350729F3915011F09A01E1CFF3
:1038300084E0089582E0089583E0089581E008958A
:1038400080E008954091E80042FFDDCF0895EF92B7
:10385000FF920F931F93CF93DF937C018B010E9404
:10386000F41B811119C0E70101151105A1F0809128
:10387000E80085FD0AC08091E8008E778093E8001B
:103880000E94F41B882381F307C089918093F10083
:1038900001501109E9CF80E0DF91CF911F910F9185
:1038A000FF90EF900895809118020895089524E004
:1038B0002093E9002FEF3091E800215035FD06C03C
:1038C00035ED3A95F1F700002111F5CF2091E80090
:1038D00025FF0BC040E050E066E070E00E94271C2E
:1038E0008091E8008E778093E8000895CF93DF936E
:1038F00021E02093E9002FEF3091E800215035FDC1
:1039000006C035ED3A95F1F700002111F5CF209171
:10391000E80025FF14C0EC0140E050E068E070E0F2
:103920000E94271C8091E8008E778093E80088E051
:10393000FE01A9E1B2E001900D928A95E1F7DF91D5
:10394000CF9108959F92AF92BF92CF92DF92EF9264
:10395000FF920F931F93CF93DF93FC01A28094807B
:1039600081E08483E3E3F3E0B490E2EBF3E0E491FD
:10397000CBE5D2E0F1E3EF2EF2E0FF2ECC24CA94A7
:10398000D12CEB190E2F10E022E02A1530F0809197
:10399000A20288838091A3028983911003C01B82B5
:1039A0001A8255C08B818823F9F081508B832FEFC9
:1039B000829FC00111246C8170E00E94B928FB0134
:1039C000FF27ED5CFC4F8491E82FEB192FEFE29F6E
:1039D000C0011124B8010E94B9288091A402689FF7
:1039E000B00111247A8333C00E94E4272091A402FD
:1039F0002695215830E0A901440F551F322F222768
:103A0000240F351F232F33278217930704F582E0F5
:103A10008A1588F40E94E427B6010E94CD28888385
:103A20000E94E4272091A3022695622F70E00E9455
:103A3000CD28280F29831A828091A402843120F096
:103A4000893C18F088EC01C084E18C838B8397015A
:103A50004A81698188810E945A22259623E0E20EDC
:103A6000F11C82E0C13AD80709F08ECFDF91CF91E7
:103A70001F910F91FF90EF90DF90CF90BF90AF908C
:103A80009F900C94BD21EF92FF920F931F93CF93C1
:103A9000DF938C01C1E3D2E0E12CF12CF8018481A9
:103AA000F7E0EF16F1041CF4882339F002C081110D
:103AB00004C09E014091A40202C09E0140E06091BA
:103AC000A3028091A2020E945A228FEFE81AF80AFC
:103AD00023969EE0E916F10409F70E94BD21F80142
:103AE000848190E00196817099278483DF91CF9142
:103AF0001F910F91FF90EF9008958F929F92AF9238
:103B0000BF92CF92DF92EF92FF920F931F93CF93CA
:103B1000DF93EC014C81042F10E09801D8010E9442
:103B200090289B01AC010E945B286B017C01E0E2C4
:103B3000F0E0E01BF10BA5E5B0E09B01AC010E94B9
:103B40005B284B015C019F01DF010E94EE289B0175
:103B5000AC010E9466289B01AC012C0D3D1D4E1D41
:103B60005F1DC501B4010E946E28822FF22E99E2DA
:103B7000921728F093E0299F900111240DC025E5AC
:103B800030E0281B3109C901880F991F280F391F00
:103B900037FF02C02F5F3F4F35952795122F1095A5
:103BA00091E3C92E92E0D92E00E085E5E82EEF18CA
:103BB00001FD02C08E2D01C08F2D9601412F609115
:103BC000A3020E945A220F5F83E0C80ED11C0E3060
:103BD00079F70E94BD218C81811102C091E003C060
:103BE000803219F49FEF9093130190911301890F84
:103BF0008C83DF91CF911F910F91FF90EF90DF9019
:103C0000CF90BF90AF909F908F9008950F931F9388
:103C1000CF93DF93C1E3D2E0FE01118210821282C2
:103C2000339682E0EB35F807C1F700E010E08091B1
:103C30002F02082E000C990B0817190794F0809199
:103C40001201082E000C990B8017910754F09E0169
:103C50004091A4026091A3028091A2020E945A2284
:103C600003C0198218821A820F5F1F4F23960E30ED
:103C70001105E9F60E94BD218091110190912F025A
:103C8000980F90932F0220911201280F2093120178
:103C9000121614F49D301CF0819580931101DF9170
:103CA000CF911F910F910895BF92CF92DF92EF9223
:103CB000FF920F931F93CF93DF93FC01828180FFCC
:103CC00003C0DD24DA9402C0DD24D39401E312E0C2
:103CD000C0E0D0E02EE0B22EF801118210821282F4
:103CE00094E0E92EF12CC12C80912E028C0D8F30A6
:103CF0002CF06B2D0E94AB28892F02C087FD825FBC
:103D0000082E000C990BC817D90791F48091A402D2
:103D10008E9DA0018F9D500D112455954795559569
:103D2000479598016091A3028091A2020E945A22B5
:103D3000CD0CF1E0EF1AF108B9F621960D5F1F4F97
:103D4000CE30D10549F60E94BD2180912E0291E02E
:103D5000D91206C0811102C08DE007C0815005C094
:103D600090E00196BE010E94CD2880932E02DF9143
:103D7000CF911F910F91FF90EF90DF90CF90BF9068
:103D80000895EF92FF921F93CF93DF93EC0181E3AD
:103D9000E82E82E0F82E10E08C8197014091A40279
:103DA0006091A302810F0E945A221E5E83E0E80EFA
:103DB000F11C1C3F89F70E94BD219A818C8190FFE4
:103DC00002C08F5F01C081508C83DF91CF911F9122
:103DD000FF90EF9008950F931F93CF93DF9300D040
:103DE0001F92CDB7DEB78C018091300281110AC0DD
:103DF0009E012F5F3F4F4FEF6FEF0E945A228A8143
:103E000080933002F8018481813051F028F08230B3
:103E100061F4409130020AC08091300240E007C056
:103E20006091300240E080E003C040E080E060E06C
:103E30000E94F321F801848190E0019663E070E034
:103E40000E94CD2884830F900F900F90DF91CF9127
:103E50001F910F910895CF93DF93EC01E1EAF2E017
:103E6000438162818C810E94F0228C818F5F8C83E0
:103E7000DF91CF910895CF93DF93EC01EC81F0E0D7
:103E8000ED5CFC4F4491E1EAF2E0628181810E94A5
:103E9000F0228C818F5F8C83DF91CF910895809386
:103EA000B4027093B6026093B5028091230284300D
:103EB000F9F48093E9008FEF9091E800815095FD2F
:103EC00006C095ED9A95F1F700008111F5CF80912C
:103ED000E80085FF0DC040E050E063E070E084EB57
:103EE00092E00E94271C8091E8008E778093E80082
:103EF000089587E797E790930108809300089AE078
:103F000088E10FB6F894A895809360000FBE909357
:103F10006000FFCF78941F920F920FB60F9211247A
:103F20008F939F93AF93BF938091B0029091B10212
:103F3000A091B202B091B3020196A11DB11D809370
:103F4000B0029093B102A093B202B093B302BF91BA
:103F5000AF919F918F910F900FBE0F901F9018956A
:103F60009C014FB7F8948091B0029091B102A0915A
:103F7000B202B091B3024FBF821B930B08952FB7CB
:103F8000F8948091B0029091B102A091B202B091E8
:103F9000B3022FBF08951F920F920FB60F921124F4
:103FA0008F939F93AF93BF938091AF02811113C002
:103FB0008091B0029091B102A091B202B091B3028F
:103FC0004196A11DB11D8093B0029093B102A093C0
:103FD000B202B093B302BF91AF919F918F910F90B6
:103FE0000FBE0F901F9018959C012A5F3F4FFC0158
:103FF0004281461301C01282019682179307B9F7D6
:1040000008959C01FC0132969FEF80E04191461794
:1040100089F09F3F19F4411101C0982F8F5F8630BE
:10402000A9F79F3F39F0F901E90FF11D97FDFA95C6
:104030006283089508952091AD023091AE02281751
:10404000390771F09093AE028093AD02E091AB021C
:10405000F091AC02309721F00084F185E02D0994B5
:1040600008952091A9023091AA022817390771F00A
:104070009093AA028093A902E091AB02F091AC0266
:10408000309721F00680F781E02D09940895E091A2
:10409000AB02F091AC02309721F00190F081E02D5D
:1040A000099480E008950F931F93CF93DF93C42F5B
:1040B000D22FFC0182818823C9F04093A8020E947C
:1040C000BF1F9093A7028093A60280E28C0F8830D6
:1040D00008F057C0C77081E001C0880FCA95EAF7A1
:1040E000DF91CF911F910F910C946C268091A802C3
:1040F000481330C08091A6029091A7020E94B01F81
:10410000883C910538F510E21D0FCD17B9F080E21B
:104110008C0F883040F4C77081E001C0880FCA95C9
:10412000EAF70E946526183028F581E09D2F9770E8
:1041300001C0880F9A95EAF70E946C26802F0E9492
:104140007A271830F0F4D77081E001C0880FDA9533
:10415000EAF70AC080E28C0F883098F4C77081E0DB
:1041600001C0880FCA95EAF7DF91CF911F910F9197
:104170000C946526802FDF91CF911F910F910C94A5
:104180007A27DF91CF911F910F910895CF93DF93FD
:10419000C7EAD2E060E0CE010E9408282196C1154E
:1041A00084E0D807B9F7DF91CF9108956F927F929D
:1041B0008F929F92AF92BF92CF92DF92EF92FF9237
:1041C0000F931F93CF93DF93C0E0D0E000E010E0A7
:1041D0003E0187E2680E711C6301C00ED11EE12C06
:1041E000F12C4E01800E911EF401EE0DFF1DED5CD1
:1041F000FB4FA590B4906B2DC6010E9408286A2D34
:10420000C60101960E94082882E0E80EF11C82E0B7
:10421000C80ED11C80E2E816F10431F7005E1F4F92
:10422000003A1105C9F6C056DF4FC03882E0D80702
:1042300069F6DF91CF911F910F91FF90EF90DF9082
:10424000CF90BF90AF909F908F907F906F90089588
:104250000F931F93CF93DF93C42FD0E0CC0FDD1FBC
:1042600020E2629FC00DD11D112430EA839FC00D52
:10427000D11D1124CE0187960E94F427082F10E04B
:10428000102F0027CE0188960E94F4279801282B32
:10429000C901DF91CF911F910F910895462F84306E
:1042A00038F4753028F4603118F4672F0C94282105
:1042B00080E090E0089586E290E00C940828CF9387
:1042C000C82F811102C06FEF01C062E283E290E06B
:1042D0000E940828C11102C06FEF01C064E084E2AF
:1042E00090E00E940828C11102C06FEF01C061E098
:1042F00085E290E0CF910C94082880E00E945F2135
:1043000060E070E0CB010E945B210E94D6200E94F9
:10431000C62081E00C945F2183E290E00E94F427A4
:10432000823281F484E290E00E94F427843051F4D8
:1043300085E290E00E94F42791E0813009F090E05E
:10434000892F01C080E0817008959091A10290FFB3
:1043500004C09695981740F003C0811105C090E005
:10436000961710F40C94322461E00C94E723882310
:1043700011F0FA0101C0FB0109948091A10280FFB4
:104380000AC0209A85B18E7F95B191602FB7F894BD
:10439000E1E3F2E00BC0E1E3F2E01182108212826D
:1043A000339632E0EB35F307C1F7EBCF32E0EB3574
:1043B000F30789F0319148E095B9000000C037FF5C
:1043C00085B9330F000000C000C000C085B900C02F
:1043D0004A9591F7EBCF2FBF8FE594E00197F1F766
:1043E00000C0000008959091A10290FF0CC0E1E38D
:1043F000F2E0818360834283339692E0EB35F907E4
:10440000C1F70C94BD2108958091A102282F269513
:1044100030E02115310519F48170826005C02B321E
:10442000310524F0817084658093A1020895CF92B4
:10443000DF92EF92FF926B017C010E940422B70190
:10444000A60188E090E0FF90EF90DF90CF900C9471
:104450001A288091A502882319F081508093A50223
:104460006091A1027091A2028091A3029091A40296
:104470000C9417228091A502833018F48F5F8093EB
:10448000A5026091A1027091A2028091A302909175
:10449000A4020C941722E1EAF2E083E08083118207
:1044A0008FEF828383831482608171818281938103
:1044B0000C941722AF92BF92CF92DF92EF92FF92AD
:1044C0000F931F93CF93DF93E82EF62EE901E42F8D
:1044D000F0E0611106C0ED54F94FE4914E2F2E2FFC
:1044E00071C0062F10E0ED54F94F4491F42FC42E03
:1044F000D12C26E0829FC00111242FEF30E0B901BA
:104500000E94B9285BEA5603C001579F900D112401
:104510008E0D911D8E0D911D582F550F580FD901DD
:10452000A01BB10BAC9DC001AD9D900DBC9D900D2D
:104530001124E92FF59ED0011124AB2FBB2779015F
:10454000EA1AFB0AEC9CD001ED9CB00DFC9CB00D6E
:1045500011245901A51AB108A09E7001A19EF00C6A
:10456000B09EF00C1124EF2CFF242E193F092C9D36
:1045700080012D9D100D3C9D100D1124212F6230C6
:10458000710591F048F461157105E1F06130710534
:10459000B9F4242F4B2F16C06430710569F040F038
:1045A0006630710579F00CC0242F492FE12F0AC025
:1045B000492FEF2F2B2F06C0292FE42F412F02C0A8
:1045C000292FEB2F49832883EA83DF91CF911F9115
:1045D0000F91FF90EF90DF90CF90BF90AF90089534
:1045E000CF93DF9300D01F92CDB7DEB79091A10299
:1045F00090FF0AC09E012F5F3F4F0E945A224B81BD
:1046000069818A810E94F3210F900F900F90DF91B2
:10461000CF9108955F926F927F928F929F92AF9207
:10462000BF92CF92DF92EF92FF920F931F93CF939F
:10463000DF9300D01F92CDB7DEB7182F762E042F50
:10464000622E9091A10290FF6DC0E92FE695AE2FEA
:10465000B0E0AC58BE4F8C918093CA029E7F9230DE
:1046600061F49E012F5F3F4F812F0E945A224B81A0
:1046700069818A810E94F32143C0823019F400913C
:10468000A4023EC0863019F41091A20239C08930CC
:10469000D9F38931A9F5E9518E2F8170582EE6950D
:1046A000F0E0ED54F84FA590B49081E3C82E82E07D
:1046B000D82EE12CF12CBB249EE0892E912CAE9CAF
:1046C000C001AF9C900DBE9C900D1124B4010E94BE
:1046D000B928812F511002C0860F01C0861B960198
:1046E000402F672D0E945A228FEFE81AF80A83E0C4
:1046F000C80ED11C8EE0E816F10409F70E94BD2116
:104700001093A2027092A3020093A402662051F0BB
:104710006091A1027091A2028091A3029091A402E3
:104720000E9417220F900F900F90DF91CF911F9151
:104730000F91FF90EF90DF90CF90BF90AF909F9040
:104740008F907F906F905F900895E1EAF2E043814F
:1047500021E1421B08F440E021E0628181810C9458
:104760000A23E1EAF2E0438121E1420F08F44FEF2E
:1047700021E0628181810C940A23E1EAF2E0628106
:1047800021E1621B08F460E021E0438181810C9407
:104790000A23E1EAF2E0628121E1620F08F46FEF9F
:1047A00021E0438181810C940A23E1EAF2E08181D6
:1047B00021E04381628188500C940A23E1EAF2E00F
:1047C000818121E043816281885F0C940A2390916A
:1047D000A10290FF3DC09170811102C0926006C09D
:1047E0008B3210F0946502C0880F982B9093A10231
:1047F000662351F06091A1027091A2028091A30200
:104800009091A4020E9417226091A102669570E027
:104810004BE050E084E191E00E94FD28892B19F0E3
:104820001092CB0209C081E08093CB020E94BF1F8F
:104830009093C5028093C40281E08093C70220E078
:104840004091A4026091A3028091A2020C940A23D9
:1048500008958091A1028695815009F48AE261E071
:104860000C94E7238091A10286958F5F8B3208F02C
:1048700081E061E00C94E7230E94BF1F2091C002F9
:10488000211104C02091C102222321F09093BD0286
:104890008093BC022091C202211104C02091C30266
:1048A000222321F09093BB028093BA02E091AB02E5
:1048B000F091AC02309749F082E08093BE02048010
:1048C000F581E02D8EEB92E009940895803F39F454
:1048D0009091C10297FF35C01092C10259C0813F2B
:1048E00029F49091C1021916BCF32BC09091C0021B
:1048F000823F29F497FF25C01092C00249C0833F30
:1049000019F41916CCF31DC09091C202893F29F405
:104910001916BCF41092C2023BC08A3F19F497FFEB
:1049200010C0F8CF8B3F39F49091C30297FF09C0B4
:104930001092C3022DC08C3F21F49091C30219162E
:10494000BCF39CE0980F953080F421E030E0A901A1
:1049500002C0440F551F9A95E2F7CA0180959091C5
:10496000BF0289238093BF0213C08D3F21F4809141
:10497000B9028E7F0BC08E3F21F48091B9028D7FEA
:1049800005C08F3F29F48091B9028B7F8093B902D3
:104990008091C002811106C08091C102811102C0C4
:1049A0001092B8028091C202811106C08091C302A8
:1049B000811102C01092B70208958091B90280FD62
:1049C00016C081FD16C082FD18C08091B7028823F1
:1049D00091F0883290F428E0829FC001112468E2AF
:1049E00070E00E94CD28862F672B29F007C082E057
:1049F000089584E0089581E0089588E00895809105
:104A0000B90280FD14C081FD14C082FD16C08091E2
:104A1000B802882381F08E3180F420E5829FC001A6
:104A200011246EE170E00E94CD28862F089584E164
:104A3000089588E2089588E0089580E50895803F0C
:104A400021F40E94FF24819504C0813F29F40E9433
:104A5000FF248093C1020895823F21F40E94FF2425
:104A6000819504C0833F29F40E94FF248093C002F3
:104A70000895893F19F40E94DD2405C08A3F31F46E
:104A80000E94DD2481958093C20208958B3F21F41A
:104A90000E94DD24819504C08C3F29F40E94DD240E
:104AA0008093C30208959CE0980F953078F421E03C
:104AB00030E0A90102C0440F551F9A95E2F7CA01E0
:104AC0009091BF02892B8093BF0208958D3F21F4FE
:104AD0008091B90281600BC08E3F21F48091B902B0
:104AE000826005C08F3F29F48091B9028460809371
:104AF000B902089580E090E00E94312080E090E0CB
:104B00000E941B2010920F020E942314EEEBF2E091
:104B100086E0DF011D928A95E9F71092B8021092A3
:104B2000B7021092B9020C943C24CF92DF92FF920C
:104B30000F931F93CF93DF936C0100912D0280910F
:104B40001202082BC7E0D0E010E0C8010C2E02C012
:104B5000959587950A94E2F780FD04C02197A8F700
:104B6000F12C09C0FC2EB6018C2F0E944E210E9410
:104B7000F611019799F38F2DDF91CF911F910F912E
:104B8000FF90DF90CF90089520E1929F800D112437
:104B9000682F669566956695982F977083E0689F55
:104BA000B001112440E050E080E0FB01E40FF51F6C
:104BB000E453FD4F208130E0092E02C03695279541
:104BC0000A94E2F721703327042E01C0220F0A94C1
:104BD000EAF7822B4F5F5F4F4330510531F708955D
:104BE00020E1929F800D1124E82FE695E695E69549
:104BF000877051E001C0550F8A95EAF783E0E89F7E
:104C0000F0011124E453FD4F20E030E070E04081DA
:104C1000CB01022E02C0969587950A94E2F7817027
:104C2000819584278523842781932F5F3F4F2330ED
:104C3000310569F7089580932D020C947A2521E0BF
:104C400030E001C0220F8A95EAF7209580912D026D
:104C500082230C941B2621E030E001C0220F8A95AC
:104C6000EAF780912D02822B0C941B26809312026E
:104C70000C947A25FC01808191810E940F159295F8
:104C80009F70963079F010F4925001C09A50923093
:104C900068F4803F69F018F4883E40F409C0843F0E
:104CA00029F406C0883E20F0813F11F080E008958D
:104CB00081E008951092100286E0E8ECF1E0DF0157
:104CC0001D928A95E9F70C947A25882321F00E9499
:104CD0001C140C9423140895882339F09091100229
:104CE000892B809310020C9423140895882309F4CF
:104CF0005CC0823869F40E94472081FF56C069E396
:104D000086EC91E00E9401200E94231469E30EC00A
:104D1000833891F40E94472080FF47C063E586EC0A
:104D200091E00E9401200E94231463E586EC91E04B
:104D30000E94F41F0C942314843869F40E944720C5
:104D400082FF33C067E486EC91E00E9401200E945C
:104D5000231467E4EBCF9CEF980F913A10F4682F7F
:104D6000E5CF90E2980F983050F4877091E001C041
:104D7000990F8A95EAF7892F0E941C14DBCF9BE5D7
:104D8000980F933020F480E090E00C94312098E567
:104D9000980F973120F480E090E00C941B20803F26
:104DA00020F00E9466240C943C240895CF9388231D
:104DB00009F49EC0C82F8238B1F40E94472081FDBB
:104DC00097C069E386EC91E00E9401200E942314C1
:104DD0002FEF81EE94E0215080409040E1F700C039
:104DE000000069E317C08338E1F40E94472080FD8A
:104DF0007FC063E586EC91E00E9401200E942314AD
:104E00002FEF81EE94E0215080409040E1F700C008
:104E1000000063E586EC91E00E94F41FCF910C94B2
:104E200023148438B1F40E94472082FD61C067E4F6
:104E300086EC91E00E9401200E9423142FEF81EE66
:104E400094E0215080409040E1F700C0000067E40A
:104E5000E1CF8CEF8C0F813A80F4E8ECF1E08EEC3E
:104E600091E02191C217E1F18E179F07D1F76C2FC6
:104E700086EC91E00E940120D1CF80E28C0F883037
:104E800068F4C77081E090E001C0880FCA95EAF726
:104E900090911002892B80931002C0CFEBE5EC0FAC
:104EA000E33040F4F0E0EC5CFE4F808190E0CF9185
:104EB0000C943120E8E5EC0FE73150F4F0E0EE0F10
:104EC000FF1FE95CFE4F80819181CF910C941B20E4
:104ED000C03F70F08C2F0E941F25CF910C943C2472
:104EE0006C2F86EC91E00E94F41F0E942314BFCF28
:104EF000CF9108951F93CF93DF93182F893319F023
:104F0000C0E0D0E002C0C0E5D0E0812F0E94D626EC
:104F1000209741F08FE99FE00197F1F700C0000072
:104F20002197F6CF812FDF91CF911F910C94762698
:104F30008F929F92AF92BF92CF92DF92EF92FF92A9
:104F4000CF93DF93EC01688179818A819B81611520
:104F500071058105910521F464E279ED8BE597E017
:104F60002DE133EF41E050E00E943C2849015A0115
:104F70009B01AC01A7EAB1E40E945B286B017C01B4
:104F8000ACEEB4EFA50194010E946928DC01CB01CD
:104F90008C0D9D1DAE1DBF1DB7FF03C00197A1095C
:104FA000B04888839983AA83BB839F77DF91CF9191
:104FB000FF90EF90DF90CF90BF90AF909F908F9039
:104FC00008950E949827089580E091E00E94982714
:104FD0000895A0E0B0E08093000190930101A093B8
:104FE0000201B09303010895F999FECF92BD81BDEE
:104FF000F89A992780B50895A6E1B0E044E050E022
:105000000C942E28A8E1B0E042E050E00C942E2849
:10501000262FF999FECF92BD81BDF89A019700B471
:10502000021639F01FBA20BD0FB6F894FA9AF99A11
:105030000FBE08950396272F0E9409280E94082872
:10504000252F0E940928242F0C9409280196272F28
:105050000E9409280C940828DC01CB01FC01F99975
:10506000FECF06C0F2BDE1BDF89A319600B40D92B4
:1050700041505040B8F70895052E97FB1EF4009458
:105080000E94532857FD07D00E946E2807FC03D0CA
:105090004EF40C94532850954095309521953F4FF0
:1050A0004F4F5F4F089590958095709561957F4F14
:1050B0008F4F9F4F08950E949028A59F900DB49FF9
:1050C000900DA49F800D911D11240895B7FF0C949D
:1050D0005B280E945B28821B930B0895A1E21A2E85
:1050E000AA1BBB1BFD010DC0AA1FBB1FEE1FFF1F8C
:1050F000A217B307E407F50720F0A21BB30BE40BDC
:10510000F50B661F771F881F991F1A9469F7609522
:105110007095809590959B01AC01BD01CF010895DC
:10512000A29FB001B39FC001A39F700D811D1124E8
:10513000911DB29F700D811D1124911D0895991B21
:1051400079E004C0991F961708F0961B881F7A957E
:10515000C9F78095089587FB082E062687FD81955F
:1051600067FD61950E949F280EF4919507FC81953B
:105170000895AA1BBB1B51E107C0AA1FBB1FA6179E
:10518000B70710F0A61BB70B881F991F5A95A9F7F0
:1051900080959095BC01CD01089597FB072E16F4DC
:1051A000009407D077FD09D00E94B92807FC05D0EC
:1051B0003EF4909581959F4F0895709561957F4F2E
:1051C0000895EE0FFF1F0590F491E02D09946927D3
:1051D0009627692778278727782708950E9490289F
:1051E000332312F48A1B9B0B0C94F8280E949028FE
:1051F000B7FF0895821B930B0895FC014150504066
:1052000030F001900616D1F73197CF010895882725
:1052100099270895FB01DC0104C08D91019080194C
:1052200021F441505040C8F7881B990B0895F89419
:02523000FFCFAE
:1052320001000000531C761C571C741770176F175F
:105242000101020101191A1B1C1D1E1F2021229798
:1052520066949091F4F5F6F731333236F0F1343545
:10526200379567C6818283E200E900EA00B500B69D
:1052720000B700CD008301CC008A01920194012184
:1052820002230224022502260227022A02B300B4C4
:10529200006F00700040227B60023E02C301B20236
:1052A200CB02EB020001020202020606060909090C
:1052B2000909090F0F0F0F0F0F15151518191919D5
:1052C2001919191919191923242525252525250008
:00000001FF
