:100000000C94A5050C94C2050C94C2050C94C20571
:100010000C94C2050C94C2050C94C2050C94C20544
:100020000C94C2050C94C2050C9420170C945C1619
:100030000C940B1E0C94C2050C94C2050C94C205C2
:100040000C94C2050C94C2050C94C2050C94C20514
:100050000C94C2050C94CD1D0C94C2050C94C205E1
:100060000C94C2050C94C2050C94C2050C94C205F4
:100070000C94C2050C94C2050C94C2050C94C205E4
:100080000C94C2050C94C2050C94C2050C94C205D4
:100090000C94C2050C94C2050C94C2050C94C205C4
:1000A0000C94C2050C94C2050C94C205F00AF00A27
:1000B000230B230B960BB50CB50CB50CB40B280C0D
:1000C000390C390C68148F143E168F143E16DB144D
:1000D000FE143E16F4150416E21AE51A0E1B1B1B3D
:1000E000221B421BE71BE71BE71BE71BE71B451B0C
:1000F000471B4C1B741B991B9C1B9F1BC41B812201
:100100006F229322F621402340236C224023402378
:10011000C0224023D4221E234023402340234023D7
:10012000F22240234023EF224023AC2240234023ED
:100130003A233A233A233A233A233A233A233A23D7
:100140003A233C234023812264224023402340233E
:1001500040234023402340234023402340233C238B
:10016000402340236C22402338233823382338236C
:10017000382338233823382338233C230000000059
:10018000000000000000000000000000000000006F
:10019000000000000000000000000000000000005F
:1001A0007E0F00D4FFFFFFC70000007800000000B2
:1001B000000000002A2B28000000000000000000C2
:1001C0000000000000000029000000002C1E342068
:1001D000212224342627252E362D3738271E1F208E
:1001E0002122232425263333362E37381F040506D3
:1001F0000708090A0B0C0D0E0F1011121314151617
:100200001718191A1B1C1D2F3130232D3504050614
:100210000708090A0B0C0D0E0F10111213141516F6
:100220001718191A1B1C1D2F3130354C44454255E7
:10023000473A2064697361626C65642E0A00444524
:100240004255473A20656E61626C65642E0A004F24
:100250006E6573686F743A206163746976653A20DD
:1002600025640A000A002530325820006B65796247
:100270006F6172645F7265706F72743A200006314C
:10028000FF0974A1010975150026FF009520750866
:1002900081020976150026FF00952075089102C09D
:1002A00005010980A101850319012AB7001501265E
:1002B000B700950175108100C0050C0901A10185E9
:1002C0000419012AA002150126A0029501751081CA
:1002D00000C005010906A1018506050719E029E707
:1002E000150025019508750181020507190029EF00
:1002F0001500250195F075018102050819012905F0
:10030000950575019102950175039101C00660FF85
:100310000961A1010962150026FF00952075088179
:10032000020963150026FF00952075089102C0059B
:10033000010906A101050719E029E7150025019526
:1003400008750181029501750881010507190029C9
:10035000FF150026FF0095067508810005081901A4
:100360002905950575019102950175039101C05B01
:10037000435D005B445D005B535D005B575D005B6C
:10038000525D0009027B00040100A0FA090400008C
:1003900001030101000921110100012240000705AC
:1003A0008103080001090401000203000000092183
:1003B0001101000122220007058203200001070528
:1003C00003032000010904020001030000000921C9
:1003D00011010001226D00070584032000010904BA
:1003E0000300020300000009211101000122220084
:1003F0000705850320000107050503200001120100
:1004000000020000000842534B50010001020001AD
:100410001003500061006E00630061006B00650016
:1004200000001203530070006100630065006D005E
:1004300061006E000000040309045B735D000A00A4
:100440002530313662003A200025303258000A72D9
:100450002F63203031323334353637383941424317
:100460004445460A000A0025303258006C65645F36
:100470007461736B3A20004C25640A002900140053
:100480001A000800150017001C0018000C001200CC
:1004900013002A002B0004001600070009000A00C0
:1004A0000B000D000E000F0034003300E1001D00B2
:1004B0001B0006001900050011001000360037006F
:1004C00052002800E000E200E300035101512C003B
:1004D0002C0002513800500051004F0035021E021E
:1004E0001F022002210222022302240225022602E8
:1004F00027022A00010001000100010001000100A3
:10050000010001002D022E02010031020100010054
:100510000100010001000100010001002F02300272
:10052000A90001000100010001000100010001001B
:100530000100010038020100AA00010035001E0080
:100540001F00200021002200230024002500260097
:1005500027002A0001000100010001000100010044
:10056000010001002D002E000100310001000100FA
:100570000100010001000100010001002F00300016
:10058000A9000100010001000100010001000100BB
:100590000100010001000100AA000100005C3A0016
:1005A0003B003C003D003E003F0040004100420057
:1005B00043000100010001000100010001000100F1
:1005C000010001000100440045000100010001009C
:1005D0000100010001000100010001000100010013
:1005E0000100010001000100010001000100010003
:1005F0000100010001000100010001006164645F6D
:100600006B65795F6269743A2063616E277420615B
:1006100064643A20253032580A0064656C5F6B656B
:10062000795F6269743A2063616E27742064656C37
:100630003A20253032580A003F00433E20006B65C7
:10064000796D61705F636F6E6669672E7261773A6C
:1006500020253032580A2E737761705F636F6E7495
:10066000726F6C5F636170736C6F636B3A2025759A
:100670000A2E636170736C6F636B5F746F5F636F7F
:100680006E74726F6C3A2025750A2E737761705FF5
:100690006C63746C5F6C6775693A2025750A2E73FC
:1006A0007761705F7263746C5F726775693A202559
:1006B000750A2E737761705F6C616C745F6C67751F
:1006C000693A2025750A2E737761705F72616C74C8
:1006D0005F726775693A2025750A2E6E6F5F6775C0
:1006E000693A2025750A2E737761705F67726176AB
:1006F000655F6573633A2025750A2E737761705FB5
:100700006261636B736C6173685F6261636B73706A
:100710006163653A2025750A2E6E6B726F3A20254B
:10072000750A0064656275675F636F6E6669672E40
:100730007261773A20253032580A2E656E61626CFC
:10074000653A2025750A2E6D61747269783A202504
:10075000750A2E6B6579626F6172643A2025750A9D
:100760002E6D6F7573653A2025750A006565636F98
:100770006E6669673A0A64656661756C745F6C6180
:100780007965723A2025750A000A092D204D6167A6
:100790006963202D0A443A094465627567204D65F6
:1007A000737361676520546F67676C650A583A090F
:1007B0004D6174726978204465627567204D6F647D
:1007C0006520546F67676C65202D2053686F772014
:1007D0006B65797072657373657320696E206D61E6
:1007E0007472697820677269640A4B3A094B6579BB
:1007F000626F61726420446562756720546F676739
:100800006C65202D2053686F77206B657970726559
:100810007373207265706F72740A4D3A0944656291
:100820007567204D6F75736520546F67676C650A37
:10083000563A0956657273696F6E0A533A095374D2
:10084000617475730A433A0941637469766174652A
:1008500020436F6E736F6C65204D6F64650A46317F
:100860002D4631303A0953776974636820746F20DC
:100870004C6179657220302D392028463130203D79
:10088000204C30290A302D393A095377697463684E
:1008900020746F204C6179657220302D390A4752DF
:1008A0004156453A0953776974636820746F204C48
:1008B0006179657220302028616C7465726E617494
:1008C00065290A423A094A756D7020746F20426F9B
:1008D0006F746C6F616465720A4553433A094A75D7
:1008E0006D7020746F20426F6F746C6F61646572FD
:1008F0002028616C7465726E617465290A453A0935
:100900005072696E7420454550524F4D20536574A6
:1009100074696E67730A4253504143453A09436C08
:1009200065617220454550524F4D0A4E3A094E4B73
:10093000524F20546F67676C650A000A092D2043E7
:100940006F6E736F6C65202D0A4553432F713A0902
:10095000717569740A000A092D2056657273696FF2
:100960006E202D0A5649443A2030783533343228E7
:1009700053706163656D616E29205049443A20309F
:1009800078353034422850616E63616B652920569A
:1009900045523A203078303030310A4255494C4483
:1009A0003A20202841707220203120323032322902
:1009B0000A4F5054494F4E533A204C55464120451A
:1009C000585452414B455920434F4E534F4C4520AC
:1009D000434F4D4D414E44204E4B524F204C544FAF
:1009E00020343039360A4743433A20352E342E30EE
:1009F000204156522D4C4942433A20322E302E305F
:100A0000204156525F415243483A20617672350A7E
:100A1000000A092D20537461747573202D0A686FC4
:100A200073745F6B6579626F6172645F6C65647328
:100A300028293A20253032580A6B6579626F617235
:100A4000645F70726F746F636F6C3A202530325838
:100A50000A6B6579626F6172645F69646C653A20E4
:100A6000253032580A6B65796D61705F636F6E6611
:100A700069672E6E6B726F3A20253032580A74699E
:100A80006D65725F72656164333228293A202530C2
:100A9000386C580A003F004E4B524F3A206F666642
:100AA0000A004E4B524F3A206F6E0A000A6D6F7566
:100AB00073653A206F66660A000A6D6F7573653A52
:100AC000206F6E0A000A6B6579626F6172643A206A
:100AD0006F66660A000A6B6579626F6172643A201C
:100AE0006F6E0A000A6D61747269783A206F6666EB
:100AF0000A000A6D61747269783A206F6E0A000A02
:100B000064656275673A206F66660A000A6465620A
:100B100075673A206F6E0A000A0A4A756D70696E31
:100B20006720746F20626F6F746C6F616465722EE2
:100B30002E2E2000433E2000436C656172696E6773
:100B400020454550524F4D0A000011241FBECFEFE3
:100B5000DAE0DEBFCDBF11E0A0E0B1E0E4E0F8E410
:100B600002C005900D92A236B107D9F722E0A2E6A5
:100B7000B1E001C01D92A835B207E1F70E94AA18A2
:100B80000C9400240C940000FF93EF93E091620119
:100B9000F0916301309709F00995EF91FF91089565
:100BA000FC018591803011F0EFDFFBCF0895FF2726
:100BB000E0E230E247FF0CC0419597FF09C0EDE24B
:100BC0006095709580959095611D711D811D911D99
:100BD00027FF02C0219530E350E2AA27660F771F56
:100BE000881F991FAA1FA41710F0A41B63955A957C
:100BF000A9F7AA3008F0A95FA05DAF93F39561153E
:100C000071058105910541F7ED3211F4EF93F395EC
:100C1000F21718F43F93F395FBCF8F91B5DFFA9558
:100C2000E1F70895E991F9918591803021F08532BD
:100C300019F0AADFF9CF089520E0E89455915532D4
:100C4000C1F3503311F4689455915A3348F450531A
:100C500090F3220F022E220F220F200D250FF4CF2A
:100C60000EF4219589919991533619F3533729F14F
:100C7000533559F1BC0188279927E8945C3621F453
:100C80008991999168945591543639F446EF7EF0E4
:100C900077FF0DC08FEF9FEF0AC055374AE039F05C
:100CA000583540E121F0523642E009F00895FF93B3
:100CB000EF937DDFEF91FF91B7CFFF93EF93FC01AF
:100CC00081918030B9F360DFFBCFFF93EF9368DF52
:100CD000F1CFDF93CF93CDB7DEB72596A3DFCF91CA
:100CE000DF9108951F93CF93DF93CDB7DEB767975A
:100CF0000FB6F894DEBF0FBECDBF4B8B5C8B6D8BF8
:100D00007E8B8F8B61111092DE0186E09E01235F46
:100D10003F4FD901E82F1D92EA95E9F795E0FE01D2
:100D20007396D90101900D929A95E1F79C894E89AD
:100D30005F897B897D879E876F87598B488BF901F7
:100D4000DE01179601900D928A95E1F7CE01079684
:100D50000E94D51181113EC086E0FE013796DE016A
:100D6000119601900D928A95E1F7FF81E8856A85D9
:100D70007B856115710531F0EF3F31F481E0FF3F74
:100D800019F403C081E001C080E080FD23C0209100
:100D90008B0130E0C9010196877099274091BC0111
:100DA00050E08417950779F1F983EA837D836C839A
:100DB00096E0929FD001939FB00D1124A457BE4F8F
:100DC000FE01319601900D929A95E1F780938B0187
:100DD0000E94521116E08091BC0190918B018917FD
:100DE000F9F0189FC001112484579E4F0E94D5111D
:100DF0008823B1F08091BC0190E00196877099271B
:100E00008093BC01E8CF0E94CA2010928B011092FF
:100E1000BC01E5E8F1E086E0DF011D928A95E9F783
:100E200067960FB6F894DEBF0FBECDBFDF91CF91AE
:100E30001F9108953F924F925F926F927F928F928F
:100E40009F92AF92BF92CF92DF92EF92FF920F9359
:100E50001F93CF93DF93CDB7DEB729970FB6F894E2
:100E6000DEBF0FBECDBFFC01808191812381348123
:100E7000232B31F09F3F31F491E08F3F19F403C0F1
:100E800091E001C090E090FDADC57F0185E0DE01FD
:100E9000119601900D928A95E1F7F70122818981DF
:100EA0009A81222349F00E940520182F682F8981FA
:100EB0009A810E94602003C00E943420182F69810B
:100EC0007A81812F0E94D41F8C01F70182818823AF
:100ED00009F4F2C0980122513F452031310508F054
:100EE0001DC18FEF93E00E9498238111EFC0025142
:100EF00037EA832E99249394002379F08114F4E047
:100F00009F0609F4E3C0C4010E949823811101C027
:100F100001502FEF821A920AEFCF1E821F8218868D
:100F20001986442443942AE0322E84010F5F1F4F18
:100F3000C4010E9498238E831F82882309F4C6C0AF
:100F40009FEF980F933060F48F834E8232E0830ED0
:100F5000911CC8010E9498238887811102C0B6C0E5
:100F600048018E010A5F1F4FF80120812223E9F218
:100F7000213009F04CC08181813049F46801F2E0F0
:100F8000CF0ED11CF80182810E94C5210AC0823097
:100F900051F46801F2E0CF0ED11CF80182810E9469
:100FA0001A21860186C0833049F46801F2E0CF0E31
:100FB000D11CF80182810E94F020F3CF843019F017
:100FC0000F5F1F4F76C0F80122810E5F1F4F80E038
:100FD00090E030E0205331092A30310568F4389E22
:100FE000A001399E500D1124C901840F951F0F5F78
:100FF0001F4FF8012081EDCF009709F45AC0EFE9A7
:10100000FFE03197F1F700C000000197F5CFE22F24
:10101000F0E0E455FE4F5490822F86958695869594
:1010200090E0FC01E456FE4F64902770712C022E74
:1010300002C0759467940A94E2F7F1E06F22772476
:10104000FC01E457FE4FA490B12C022E02C0B594CF
:10105000A7940A94E2F731E0A322BB24FC01E458F0
:10106000FE4FC490D12C02C0D594C7942A95E2F7C4
:1010700081E0C822DD246114710419F081EE0E9420
:101080001A21A114B10419F086EE0E941A21852DAF
:101090000E94C521AB2819F086EE0E94F020672837
:1010A00019F081EE0E94F020CD2819F08CE20E9408
:1010B000C5210F5F1F4F58CF00313FE5130709F0DF
:1010C00088C481E00E948F200E9476138091BD0128
:1010D000877009F487C4F7018281882309F482C4E8
:1010E0008091400282FD7EC482E029960FB6F8947A
:1010F000DEBF0FBECDBFDF91CF911F910F91FF904B
:10110000EF90DF90CF90BF90AF909F908F907F90A7
:101110006F905F904F903F900C9406110031FFE567
:101120001F0711F481E005C001312FE5120721F4FA
:1011300082E00E949B20C8CF033FFCE51F0799F483
:1011400006E221EE40EE63EF7CE509C0073DECE5E9
:101150001E0711F506E221EE41EE67ED7CE5C701C1
:101160000E94EB1EB3CF043F2CE5120708F05CC1D0
:10117000083D3CE5130731F407E225EE45EE68ED46
:101180007CE5EDCF093D9CE5190701F708E221E078
:1011900045EE69ED7CE5E3CF882309F47AC110922E
:1011A000320203309DE5190758F40A3FECE51E07AB
:1011B00080F4C80182509C45449708F054C109C08E
:1011C0000136FDE51F0729F0053A2DE5120709F064
:1011D0004AC10E94EA0F9093400280933F0201317E
:1011E0003CE5130709F4C6C008F042C009309CE58D
:1011F000190709F49BC000F50530FCE51F0709F449
:1012000085C078F403303CE5130709F478C008F092
:101210007AC002301C4509F0F7C080913F0281601E
:10122000F1C00730ECE51E0709F478C008F07AC079
:1012300080913F028061E6C00D302CE5120709F471
:1012400087C058F40B308CE5180709F479C008F012
:101250007BC080913F0288606FC00F30ECE51E07B5
:1012600009F480C008F082C080913F02877FCAC025
:101270000D3F2CE5120709F471C000F505318CE52E
:10128000180709F485C068F40331ECE51E0709F47A
:1012900075C008F095C00E94CA2080913F028F77E8
:1012A000B1C00B3F2CE51207A9F108F054C00A3F6A
:1012B0001C4509F0A9C08091400240C001309DE565
:1012C000190709F489C058F40F3FFCE51F0709F41A
:1012D0005AC008F069C08091400282602FC0013678
:1012E0003DE5130709F47EC0053A8DE5180709F4BA
:1012F00083C002301D4509F087C060E06EC0809158
:101300003F0282607FC080913F0216C080913F0201
:10131000886078C08091400282604FC080913F0217
:10132000806270C080913F0280646CC00E94CA20BD
:1013300080913F02806866C0846064C081603DC067
:1013400080913F028E7F5EC080913F028D7F5AC0A8
:1013500080913F0216C08091400218C080914002E7
:101360008D7F2BC080913F028F7E4CC080913F02C9
:101370008F7D48C080913F028F7B44C080913F02A7
:10138000877F8B7F3FC0809140028D7F8E7F15C00D
:1013900080913F0282FB222720F991E0922790FB67
:1013A00082F990FB83F92EC080914002982F90958E
:1013B00091708E7F892B90FB81F98093400224C02D
:1013C0000E94CA2080913F0287FB222720F991E0EA
:1013D000922790FB87F916C061E08EE090E00E94B2
:1013E000A62312C080913F0284FB222720F991E0BE
:1013F000922790FB84F906C080913F02982F909528
:1014000090FB80F980933F0260913F02109140026F
:1014100084E090E00E94A623612F82E290E00E9487
:10142000A6230E94CA2052CE053FFCE51F0731F4D7
:1014300006E221EE42EE65EF7CE591CE053F2CE51C
:10144000120730F407E225EE44EE64EF7CE587CE28
:10145000063F3CE5130709F09FCE07E225EE46EE76
:1014600066EF7CE57CCE06318CE5180719F5809196
:10147000DF018A7A91E009F490E090936401882377
:1014800011F065E301C069E285E691E00E946D1EFE
:101490000EC006311C4509F056C0809164018823B6
:1014A00009F49EC265E385E691E00E94341E0E9425
:1014B00072100CCE0E3DECE51E07B9F140F401159B
:1014C0002CE5120789F001301C45E1F03CC00B35DA
:1014D0008DE51807A9F10C359DE5190749F10A3585
:1014E0001D4589F581E02DC00E94CA20FFEF24E34D
:1014F0003CE0F15020403040E1F700C000000E9485
:10150000BC1DE4CD80913902982F9095917090FB8D
:1015100080F980933902992319F08EE392E002C09A
:101520008CE292E00E94D005D1CD0E94FB0FCECD7F
:101530008091400282FB882780F991E0892701C0D1
:1015400080E00E942311F7018281008111818823AC
:1015500049F0C8010E940520D82E682FC8010E94BA
:10156000602004C0C8010E943420D82EB8018D2DFF
:101570000E94D41F0E94610EB82E192F982EF701D9
:101580000281A580A2949FE0A9228091BD0187706D
:10159000B9F00023A9F0812F807F803421F080E210
:1015A0008B0D883068F08091400282FD09C082E096
:1015B0000E9406118091BD018770DD24D3948111B2
:1015C000D12CC12EC2948FE0C8228C2D90E08C309B
:1015D000910508F0CAC1FC01EA5AFF4F0C94E623BA
:1015E000812F807F1F70882311F01295107F0023B8
:1015F000B9F0112309F4A7C180E28B0D883010F0F7
:10160000911006C08091DF01182B1093DF0105C0F7
:101610008091DE01182B1093DE010E94721093C19D
:101620008B2D0E94F020112309F49FC180E28B0DC5
:10163000883080F1992071F110958091DE01182396
:101640001093DE012AC0812F807F1F70803211F03D
:101650001295107F8B2D992021F0F1E09F16D9F182
:1016600049C08091400282FF1BC0002369F0112312
:1016700039F08091DF01182B1093DF010E94721066
:1016800080E00E941A2171C180E00E94F0201123A5
:1016900009F46BC1812F0E946B100E94721065C10A
:1016A000002381F08091E001AA2051F021E0A212F4
:1016B00007C0182B181709F458C11093E00155C141
:1016C000812B10C0AA2021F031E0A31609F44DC1EE
:1016D0000E94651027C0002341F085E08A1508F4B8
:1016E00044C1812F0E94E62040C194E09A1508F47D
:1016F0003CC118C0002349F0AA2099F3F701858165
:1017000080FF21C18F708583ECCFAA2059F08933E7
:1017100009F028C1FFEF27EE33E0F15020403040C0
:10172000E1F71EC1812F0E94DF201FC1812F869506
:101730008695837019F0813061F017C1002321F084
:101740008B2D912F937002C080E090E00E94C91E03
:1017500012C1002321F08B2D912F937002C080E0E5
:1017600090E00E94B31E07C1812F8370A9F501117B
:1017700000C14B2D429546954770440F440F8B2D69
:101780008F7090E09C01042E01C0220F0A94EAF7AA
:10179000B4FE08C08FE090E001C0880F4A95EAF7D8
:1017A000809501C080E0169516951370123069F08F
:1017B00088F49091E101113019F0822B892302C045
:1017C000922B892B0E94A620D4C0822B9091E101FC
:1017D0008927F8CF822BF6CF002319F0812F817053
:1017E00001C08695882309F4C4C04B2D42954695C7
:1017F0004770440F440F8B2D8F7090E09C01042E96
:1018000001C0220F0A94EAF7B4FE08C08FE090E00E
:1018100001C0880F4A95EAF7809501C080E01695CF
:1018200016951370123059F078F490911602113019
:1018300019F0822B892309C0922B892B06C0822B99
:1018400090911602892701C0822B0E948B2091C0A3
:101850001F70002339F0812F0E949B208B2D0E9446
:10186000E62087C08B2D0E94DF20812F0E948F20D1
:1018700080C08B2D92EF991679F1991538F0E0EF31
:101880009E1659F0F1EF9F1611F159C023EF9216F1
:1018900051F134EF9316B9F052C0002379F084E08F
:1018A0008A1508F462C01F7181E090E001C0880FC2
:1018B0001A95EAF79091160289271FC095E09A15AC
:1018C00008F453C0F0CF8091400282FF19C000237A
:1018D00029F0812F8F7126C00023D9F3812F8F71BA
:1018E0000E948F2042C0002339F01F7181E001C0A7
:1018F000880F1A95EAF701C080E00E948B2035C05E
:10190000002399F01F71812F0E949B20809140023B
:1019100082FD07C0E8E01E9FC00111248360809310
:10192000BD01812F0E949B2020C081E00E940611F2
:10193000F1E0FA15D0F482E00E94061116C00023EF
:1019400021F0AA2031F28B2D9CCEAA2039F28933C6
:1019500049F42FEF37EE83E0215030408040E1F72B
:1019600000C000008B2D0E94F02088EF8C0D843089
:1019700010F40E94DF1EDD20A9F18091BD0180FDE1
:1019800031C0F70112828595859585950E949B202F
:10199000C7010E941A078091BD018595859585959F
:1019A00029960FB6F894DEBF0FBECDBFDF91CF9161
:1019B0001F910F91FF90EF90DF90CF90BF90AF906D
:1019C0009F908F907F906F905F904F903F900C947E
:1019D0008F2001319FE5190709F0AECB82E072CB71
:1019E00069E261CD29960FB6F894DEBF0FBECDBF78
:1019F000DF91CF911F910F91FF90EF90DF90CF90EB
:101A0000BF90AF909F908F907F906F905F904F901E
:101A10003F9008958295982F937344E0949F90018E
:101A200011248C7C86958695282B822F8575880FAE
:101A30002A7A2695822B089590913F0292FF0DC03D
:101A4000282F2871283019F4877F846006C0282F3A
:101A50002471243011F48B7F886093FF0DC0282FF0
:101A60002871283119F4877E846106C0282F2471DB
:101A7000243111F48B7E88612091400220FF0DC03B
:101A8000382F3871383019F4877F816006C0382FBD
:101A90003171313011F48E7F886021FF0DC0282F05
:101AA0002871283119F4877E816106C0282F2171A1
:101AB000213111F48E7E886194FD877E0895F8941B
:101AC000E82FE295EF70F0E031A1282F2F7081E030
:101AD00090E001C0880F2A95EAF7982F90959323FC
:101AE00091A392A1892B82A3789408956F927F92FB
:101AF0008F929F92AF92BF92CF92DF92EF92FF921E
:101B00000F931F93CF93DF93CDB7DEB728970FB610
:101B1000F894DEBF0FBECDBFAE014F5F5F4F7A01BD
:101B200088E0FA0111928A95E9F702E511E06A016D
:101B300066246394712C22E6822E21E0922EF80115
:101B400080818F3F09F446C0F894E82FE295EF704A
:101B5000F0E021A18F70A30102C0440F551F8A95A8
:101B6000E2F7CA01922F982B91A392A18095892325
:101B700082A3789400C0E6E5F1E021E030E0A12CFA
:101B8000B12C41914F3F89F0A42FA295AF70B0E0E6
:101B900090968C9190E04F7002C0959587954A95EC
:101BA000E2F780FD02C0C90102C080E090E0A82AEF
:101BB000B92A220F331F8E169F0619F7F80180816C
:101BC0008F3F11F00E945F0DF0EAFA95F1F7F601F0
:101BD000B182A0820F5F1F4FF2E0CF0ED11C41E017
:101BE0000635140709F0ABCF48E050E0B70187E1B4
:101BF00092E00E94F32311E0009709F410E0892B92
:101C000089F088E0F701A7E1B2E001900D928A9592
:101C1000E1F781E08093E4010E94FF1D9093E301CE
:101C20008093E2018091E4018823A9F12091E201EF
:101C30003091E3014FB7F89480913B0290913C02C0
:101C4000A0913D02B0913E024FBF821B930B0597BE
:101C500010F18091170290911802909329028093BD
:101C600028028091190290911A0290932B0280937E
:101C70002A0280911B0290911C0290932D02809366
:101C80002C0280911D0290911E0290932F0280934E
:101C90002E021092E401812F28960FB6F894DEBF31
:101CA0000FBECDBFDF91CF911F910F91FF90EF90AD
:101CB000DF90CF90BF90AF909F908F907F906F906C
:101CC0000895CF93DF938238910569F1B0F48133A1
:101CD000910509F46FC048F48932910509F465C093
:101CE0008A32910509F46BC08AC08533910509F4E5
:101CF00057C089339105B9F082C0833E910571F1D7
:101D000038F4803E9105B1F0823E910511F177C023
:101D1000863E9105B9F1873E9105C9F1843E910552
:101D200009F06DC024C020913F0220FD53C021FD69
:101D300051C065C080913F0280FD46C08091400245
:101D400080FF48C080913F0284FD3FC183EE90E058
:101D50003EC180913F0282FF3AC0F4CF80913F02A2
:101D600082FD35C08091400280FD34C0EBCF809170
:101D7000400281FF35C080913F0284FD26C187EE7D
:101D800090E025C180913F0283FF27C0F4CF80916E
:101D90003F0283FD22C08091400281FD21C0EBCF34
:101DA00080913F0285FD1FC021C080913F0285FDCB
:101DB0001DC019C080913F0286FD1BC01DC08091CF
:101DC0003F0286FD19C015C089E390E000C182EE94
:101DD00090E0FDC080EE90E0FAC086EE90E0F7C0A3
:101DE00084EE90E0F4C089E290E0F1C085E390E0F9
:101DF000EEC08AE290E0EBC081E390E0E8C081159C
:101E000032E5930708F069C0811541E5940728F091
:101E1000982F8827816F906ADAC0883E910568F50F
:101E2000803E910508F0D3C0883A9105B8F4853A10
:101E3000910548F0855AE82FF0E0E35FFE4F80817E
:101E400090E09064C4C08130910509F4BBC008F4EF
:101E5000BCC08430910508F4B8C0B9C08F3B91056F
:101E600008F0B3C0885AE82FF0E0EE0FFF1FE05FE4
:101E7000FE4F808191819464AAC0811520E592076C
:101E8000F0F09C0174E0369527957A95E1F7922F52
:101E90009370482F437021E030E002C0220F331FBF
:101EA0004A95E2F73C68392B8F70982F9695969556
:101EB00040E2949FC0011124822B932B88C081158E
:101EC00030E4930718F09F70906A81C09C013A95A6
:101ED00021153F4108F47BC078C0EC01C11586E5AF
:101EE000D807E8F5C11525E5D20748F08C2F0E94E8
:101EF0001C0D8F7190E0982F8827906268C0C115E3
:101F000034E5D30728F09C2F8827846F906A5FC040
:101F1000AE01437055272C2F26952695C115D34524
:101F200078F481E090E002C0880F991F4A95E2F7AB
:101F300040E2249F90011124822B932B9C6847C080
:101F400081E090E002C0880F991F4A95E2F740E2D5
:101F5000249F90011124822B932B9A6838C0C115BD
:101F60002AE5D207F8F4C11539E5D30790F08C2F94
:101F70008F700E941C0D94E0D695C7959A95E1F755
:101F8000CF70D0E0DC2FCC27D0699E01282BC9016F
:101F90001EC0C11548E5D407C0F09C2F8827806F6C
:101FA000906A15C0CE0190568115904270F48D2F25
:101FB0008F710E941C0D282F2F71CE0199279062DE
:101FC000922B05C081E090E002C080E090E0DF91BC
:101FD000CF910895CF9384E090E00E949823C82F7A
:101FE00082E290E00E9498232C2F30E0A901582B28
:101FF000CA01CF91089569EE7EEF80E090E00E94E3
:10200000C42360E082E090E00E94A62360E083E0C9
:1020100090E00E94A6231092E10160E084E090E04D
:102020000E94A62360E082E290E00E94A62360E086
:1020300085E090E00E94A62360E086E090E00E94A8
:10204000A6236FEF87E090E00E94A62340E050E0D7
:10205000BA0188E090E00E94B82360E08DE090E053
:102060000E94A62340E050E0BA0188E190E00E947F
:10207000B82360E087E190E00E94A62340E050E0B2
:10208000BA018CE190E00E94B82360E070E080E249
:1020900090E00E94C42340E050E0BA0188E190E063
:1020A0000E94B82380E00E9452230E94702340E0E7
:1020B00050E0BA018FE090E00E94B82340E050E089
:1020C000BA0183E190E00C94B8238091E001811182
:1020D0001092E001089580959091DF01892380930B
:1020E000DF010895EF92FF920F931F93CF9390918A
:1020F000DF018091DE01982B909365018091E001D2
:102100008823D9F0892B8093650180910001882371
:1021100031F080913F0287FF02C08EE101C086E06E
:10212000E7E6F1E090E0815028F021912223D9F3F5
:102130009F5FF9CF91110E94651040E250E06EEB75
:1021400071E085E691E00E94F323892B09F458C0E1
:1021500080E2E5E6F1E0AEEBB1E001900D928A9508
:10216000E1F7E0913502F0913602309709F448C06A
:1021700080910001882359F080913F0287FF07C0BA
:10218000809165018093660186E0809365010280FD
:10219000F381E02D85E691E009958091390282FF77
:1021A0002FC080FF04C08CE692E00E94D00505E6B7
:1021B00011E0C8E086E6E82E82E0F82E8091390230
:1021C00080FF0CC0F80180811F928F93FF92EF92E5
:1021D0000E9469060F900F900F900F90C1500F5FF3
:1021E0001F4FC111EBCF8091390280FF09C084E6F7
:1021F00092E0CF911F910F91FF90EF900C94D0053A
:10220000CF911F910F91FF90EF9008952091BD0104
:10221000809582238093BD01982F977099F430E0C8
:10222000482F082E000C550B2417350759F09091B4
:10223000400292FD07C08595859585950E948F2067
:102240001092BD010895CF93DF93C0914002C2FB6D
:10225000992790F9981719F1D82F80FBC2F9C093EC
:10226000400260913F0284E090E00E94A6236C2F20
:1022700082E290E00E94A62382E00E9406118091F3
:10228000390280FF0CC01F92DF938FE492E09F938E
:102290008F930E9469060F900F900F900F90DF911F
:1022A000CF9108958091BC0190918B01891719F00D
:1022B0008F5F8770FBCF08950F931F93CF93DF93AA
:1022C00080918A0182958F7009F05DC080918701AD
:1022D000882309F458C08091BC0110918B01609152
:1022E000850170918601C0918801D091890191E0AA
:1022F0006F3F09F090E0292F06E0811709F443C0F1
:10230000209721F07F3F21F030E003C031E001C091
:10231000322F90E030FD34C0089FF001099FF00D8E
:102320001124DF01A457BE4F11963C91119737132A
:1023300027C03C91361324C012963C91129731115C
:102340001FC013964D915C9114974C1B5D0B483C3C
:102350005105B0F480918A018F70806180938A0169
:10236000EF56FE4F80818F708061808385E891E019
:102370000E941A07DF91CF911F910F910C94521177
:1023800001968770BACFDF91CF911F910F91089579
:10239000CF93DF93EC010E940520BE010E94D41F61
:1023A0000E94610EDF91CF9108959F92AF92BF92EC
:1023B000CF92DF92EF92FF920F931F93CF93DF9311
:1023C000CDB7DEB761970FB6F894DEBF0FBECDBFB5
:1023D0008C0185E0F801DE011D9601900D928A9531
:1023E000E1F7F801E28090918501609186014091CA
:1023F0008801509189014115510531F06F3F31F449
:1024000081E09F3F19F403C081E001C080E0F82F14
:10241000F1709F2E80FD1AC1F80130812181C380A7
:10242000D48085E8A82E81E0B82EF0908701F601CF
:10243000E41BF50BFF2009F4C6C080918A01E83C3B
:10244000F10508F091C0482F407F09F050C0621399
:1024500011C093130FC0FE2CE1100CC08F7080616F
:1024600080938A01C5010E941A0780918A01F801B0
:10247000858329C1CD2831F02F3F31F481E03F3FE2
:1024800019F403C081E001C080E080FD03C081E059
:102490008E2502C080E090E0F82FF170FF2E80FFC3
:1024A0001CC08091BC0140918B0156E0841709F457
:1024B000E8C090E0589FF001599FF00D1124E457B7
:1024C000FE4F6181261306C06081631303C06281E1
:1024D000E61203C001968770E9CFFE2CEE2009F4C6
:1024E000F2C080918A01816080938A0149C06213A1
:1024F00006C0931304C0E11002C0F80186C0C801F1
:102500000E94AA20882351F1EE2041F120918A01F6
:10251000822F82958F7090E0029774F080918501F0
:102520009091860198878F831986DB86CA862C87CF
:10253000CE0107960E941A0786E0F801A5E8B1E0EF
:1025400001900D928A95E1F70E945C110AC0621712
:10255000C9F0C8010E94AA2081111EC0C8010E94B2
:102560001A07FF24F394AFC0482F407F81F785E816
:1025700091E00E941A0786E0F50111928A95E9F729
:10258000F12CA1C09313E5CFE110E3CFF8018583CF
:10259000C8010E941A0754C0EE2001F320918A015D
:1025A000822F82958F7090E0029734F2809185019E
:1025B000909186019A8389831B82DD82CC822E834F
:1025C000CE010196B7CFE83CF105D0F5FE2CEE2008
:1025D00029F2621327C0931325C020918A0120FDA0
:1025E00018C0822F82958F70482F50E041155105F9
:1025F00081F0F80125834F30510541F08F5F982F0E
:102600009295907F822F8F70892B8583C8010E94BD
:102610001A0786E0F801A5E8B1E001900D928A95CD
:10262000E1F751C0C8010E94AA20811185CF809195
:102630008A01816080938A01C8010E941A0743C001
:1026400086E0F50111928A95E9F73DC0EE2009F484
:1026500085CFC8010E94AA20F82E882309F47ECFD6
:1026600086E0F801A5E8B1E001900D928A95E1F7C6
:1026700080918501909186010E94C8110E945C1191
:1026800022C03D872E878D859E850E94C811292FE7
:1026900022952F70223028F49F7039F0811105C0E7
:1026A0000BC0243028F49F7049F4805E883020F0FD
:1026B000C8010E941A079F2CF92C05C0F8019581CA
:1026C000907F99F7F9CF8F2D61960FB6F894DEBF02
:1026D0000FBECDBFDF91CF911F910F91FF90EF9073
:1026E000DF90CF90BF90AF909F9008958091160299
:1026F000982F9670963011F4886001C0877F0C94F3
:102700008B201F93CF93DF93CDB7DEB7AA970FB679
:10271000F894DEBF0FBECDBFEEE0F2E08091F10095
:10272000819342E0E631F407C9F780910F028330CC
:1027300009F463C030F4813071F0823009F49DC037
:10274000B4C08A3009F489C08B3009F46EC0893076
:1027500009F0ABC020C080910E02813A09F0A5C0FB
:102760008091E800877F8093E80080911202909129
:102770001302892B21F460E28AEE91E003C060E04D
:1027800080E090E070E00E945E1D8091E8008B7711
:102790008093E8008AC080910E02813209F085C0E2
:1027A0008091120290911302009719F0029709F09C
:1027B0007CC08091E800877F8093E8008091E800EA
:1027C00082FD05C080910C028111F8CF6EC020916E
:1027D000F3008091F20090E0922B029731F4809107
:1027E000F100813011F0863021F48091F100809366
:1027F000E9018091E8008B7754C080910E02813A04
:1028000009F053C08091120290911302892B09F0B4
:102810004CC08091E800877F8093E8008091E800B9
:1028200080FFFCCF8091000137C080910E02813281
:10283000E1F58091120290911302892BB1F58091FC
:10284000E800877F8093E8000E940A1D80911002B3
:10285000809300010E94CA2028C080910E0281321C
:1028600021F58091E800877F8093E8000E940A1D8F
:10287000809111028093E80118C080910E02813A84
:10288000A1F48091E800877F8093E8008091E800C0
:1028900080FFFCCF8091E8018093F1008091E800F7
:1028A0008E778093E8000E940A1D8091E80083FFE4
:1028B000E5C180910E0290910F02492F50E04A30FD
:1028C000510508F0DBC1FA01EE59FF4F0C94E623E5
:1028D000803821F0823809F0D1C108C080910A0205
:1028E00090910B02992389F082600FC080911202AF
:1028F0008F70873008F0C2C18093E9008091EB00AF
:1029000085FB882780F91092E9009091E800977F75
:102910009093E8008093F1001092F10071C1282F8C
:102920002D7F09F0ABC1882319F0823061F0A6C178
:1029300080911002813009F0A1C1933009F080E04C
:1029400080930B022EC08091100281112AC08091C9
:1029500012028F702FEF280F263008F08FC180935E
:10296000E9002091EB0020FF1CC0933021F48091FE
:10297000EB00806214C09091EB0090619093EB00AB
:1029800021E030E0A90102C0440F551F8A95E2F70B
:102990004093EA001092EA008091EB0088608093F7
:1029A000EB001092E9008091E800877F8093E800B7
:1029B0000E940A1D63C1811161C1109110021F772D
:1029C0008091E3008078812B8093E3008091E80080
:1029D000877F8093E8000E940A1D8091E80080FFB5
:1029E000FCCF8091E30080688093E300111102C066
:1029F00082E001C083E080930C0240C180588230A5
:102A000008F03CC120911002309111022C3D53E09E
:102A1000350779F583E08A838AE289834FB7F89492
:102A2000DE01139620E03EE051E2E32FF0E0509308
:102A30005700E49120FF03C0E295EF703F5FEF7015
:102A40008E2F90E0EA3010F0C79601C0C0968D93AB
:102A50009D932F5F243149F74FBF8091E800877F16
:102A60008093E8006AE270E0CE0101960E945E1D4C
:102A7000B5C08091120290911302432F5527433025
:102A80005105A9F068F44130510509F406C14230FE
:102A9000510509F0F3C08BE790E0E3E8F3E04BC0A9
:102AA0004132510529F14232510589F1E7C0C9018E
:102AB000992781309105A1F058F0029709F0DEC006
:102AC000E0E1F4E0E4918E2F90E0E0E1F4E030C04A
:102AD000E6E3F4E0E4918E2F90E0E6E3F4E028C032
:102AE000E2E2F4E0E4918E2F90E0E2E2F4E020C034
:102AF0008430910508F0C2C0880F991FFC01E65B85
:102B0000FE4F0190F081E02D89E090E014C0843008
:102B1000910508F0B3C0FC01EE0FFF1FEE5BFE4F06
:102B20000190F081E02DDC01A25CBE4F8C9190E021
:102B3000009709F4A3C02091E800277F2093E800C4
:102B400020911402309115028217930708F49C011A
:102B500040E02115310589F180910C02882309F4A8
:102B60003DC08530D9F18091E80083FD37C0809168
:102B7000E80082FD2FC08091E80080FFEACF4091FD
:102B8000F3008091F20090E0942B2115310559F06B
:102B90008830910540F444914093F10031962150E2
:102BA00031090196F2CF41E0089709F040E08091A9
:102BB000E8008E778093E800CCCF4111CDCF0AC0DA
:102BC00080910C02882351F0853041F08091E8001B
:102BD00083FD04C08091E80082FFF2CF8091E8007D
:102BE0008B778093E8004AC0803809F047C0809115
:102BF000E800877F8093E80080910D028093F100C8
:102C00008091E8008E77D2CE811138C08091100279
:102C100090911102992702978CF58091E800877FA7
:102C20008093E8001091100210930D020E940A1D7B
:102C3000111106C08091E30087FD02C081E001C050
:102C400084E080930C0242E061EC81E00E94291D47
:102C500042E261EC84E00E94291D42E261EC82E0E4
:102C60000E94291D42E260EC83E00E94291D42E29D
:102C700061EC85E00E94291D80910C028091E800A2
:102C800083FF10C08091E800877F8093E8008091E7
:102C9000EB0080628093EB0005C082E190E0EEEFF4
:102CA000F3E049CFAA960FB6F894DEBF0FBECDBFB2
:102CB000DF91CF911F9108951F920F920FB60F923F
:102CC00011242F933F934F935F936F937F938F9331
:102CD0009F93AF93BF93CF93DF93EF93FF93C091F5
:102CE000E900CF708091EC00D82FD17080FDD0E842
:102CF0001092E9008091F000877F8093F000789433
:102D00000E9481131092E9008091F0008860809306
:102D1000F000CD2BCF70C093E900FF91EF91DF91D0
:102D2000CF91BF91AF919F918F917F916F915F9163
:102D30004F913F912F910F900FBE0F901F901895BC
:102D4000E8EDF0E080818E7F80831092E2001092A7
:102D5000DA001092E100A0EEB0E08C9181608C93DB
:102D600080818F77808319BCA7EDB0E08C918E7F36
:102D70008C9380818F7E80831092E7010895CF929B
:102D8000DF92EF92FF920F931F93CF93DF93C8EDE3
:102D9000D0E088818F7E8883E7EDF0E080818160DC
:102DA000808384E082BF81E08093E70188818E7F09
:102DB000888302EE10E0F80110821092DA0081EEB2
:102DC000C82ED12CF601108288818F778883888164
:102DD0008068888388818F7D888319BC10920C025B
:102DE00010920D0210920B0210920A0290EEE92E40
:102DF000F12CF70180818B7F8083888181608883BB
:102E000042E060E080E00E94291DF60180818E7F13
:102E10008083F801808181608083808188608083E5
:102E2000F70180818E7F8083888180618883DF9134
:102E3000CF911F910F91FF90EF90DF90CF90089569
:102E40001F920F920FB60F9211242F933F934F931F
:102E50005F936F937F938F939F93AF93BF93EF9302
:102E6000FF938091E10082FF49C08091E20082FFE0
:102E700045C08091E1008B7F8093E1002091E601C5
:102E80002F5F822F62E30E94DA23992319F02093A7
:102E9000E60134C01092E6018091E501882371F1CA
:102EA00080910C02843041F58091E9008F7020916F
:102EB000EC00922F917020FD90E8892B95E0909383
:102EC000E9009091EB0090FF14C09091EE0097FF05
:102ED00010C09091E80095FF03C01092F100F9CF67
:102EE0009091E80090FF05C09091E8009E77909344
:102EF000E8008F708093E9001092E5018091DA007C
:102F000080FF32C08091D80080FF2EC08091DA000F
:102F10008E7F8093DA008091D90080FF1CC080E111
:102F200089BD82E189BD09B400FEFDCF81E08093B7
:102F30000C028FE693E00E94D0058091E701811199
:102F400013C00E94A0160E94BF168091E200846008
:102F50008093E20009C019BC10920C0283E793E051
:102F60000E94D0051092E7018091E10080FF1BC014
:102F70008091E20080FF17C08091E2008E7F8093F5
:102F8000E2008091E20080618093E2008091D800AD
:102F900080628093D80019BC85E080930C0287E79B
:102FA00093E00E94D0058091E10084FF34C08091BD
:102FB000E20084FF30C080E189BD82E189BD09B4AF
:102FC00000FEFDCF8091D8008F7D8093D800809146
:102FD000E1008F7E8093E1008091E2008F7E8093FC
:102FE000E2008091E20081608093E20080910D0216
:102FF000882311F084E007C08091E30087FD02C0C0
:1030000081E001C083E080930C028BE793E00E9493
:10301000D00580910C028091E10083FF2BC080914C
:10302000E20083FF27C08091E100877F8093E10069
:1030300082E080930C0210920D028091E1008E7F5D
:103040008093E1008091E2008E7F8093E200809186
:10305000E20080618093E20042E060E080E00E9454
:10306000291D8091F00088608093F0008FE793E045
:103070000E94D005FF91EF91BF91AF919F918F91E9
:103080007F916F915F914F913F912F910F900FBE64
:103090000F901F9018952091E4003091E50095E67F
:1030A0004091EC00842F817040FF23C08091E800A4
:1030B00080FD1DC080910C02882399F0853099F025
:1030C0008091EB0085FD11C04091E4005091E50036
:1030D0002417350729F3915011F09A01E1CF84E0CC
:1030E000089582E0089583E0089581E0089580E0E6
:1030F00008954091E80042FFDDCF0895EF92FF92DE
:103100000F931F93CF93DF937C018B010E944B1889
:10311000811119C0E70101151105A1F08091E800A6
:1031200085FD0AC08091E8008E778093E8000E94B8
:103130004B18882381F307C089918093F1000150D7
:103140001109E9CF80E0DF91CF911F910F91FF909E
:10315000EF900895CF93DF93CDB7DEB7AB970FB65F
:10316000F894DEBF0FBECDBF84B7877F84BF0FB694
:10317000F894A89580916000886180936000109217
:1031800060000FBE90E080E80FB6F8948093610075
:10319000909361000FBE85B7806885BF85B7806852
:1031A00085BF84E39CE190936301809362010E9458
:1031B000A0160E94BF168091E20084608093E20016
:1031C000789480910C028823A1F01091E9001F707F
:1031D0009091EC00892F817090FD80E8182B10925F
:1031E000E9008091E80083FD0E9481131F70109315
:1031F000E90082E084BD93E095BD9AEF97BD80938E
:103200006E000E947F23811102C00E94702302E59C
:1032100011E0B6E5EB2EB1E0FB2ED8018D918D01CA
:103220008F3F11F00E945F0DE016F106B1F706E541
:1032300011E0A2E6EA2EA1E0FA2EF80181918F01B9
:103240008F3F11F00E945F0DE016F106B1F788E0A4
:10325000E8E2F2E0DF01282F1D922A95E9F7E7E185
:10326000F2E0DF011D928A95E9F780E090E00E948C
:10327000A023893E9E4F21F40E947F23811102C02A
:103280000E94FB0F82E090E00E9498238093390215
:103290000E94EA0F9093400280933F020E94760DB5
:1032A000EFEFF6E721E0E150F0402040E1F700C009
:1032B00000000E94760D8091280280FF08C06FEF09
:1032C0007FEF80E090E00E94C4230E94BC1D83E059
:1032D00090E00E9498230E94A62081E091E09093C4
:1032E00036028093350280910C02853009F04CC083
:1032F0008AE394E00E94D005F0E4FF2E00E112E1A1
:1033000080910C02853009F03BC080910C02843022
:1033100019F110923A0248E150E00FB6F894A895DE
:10332000409360000FBEF092600083B7817F84609D
:1033300083BF83B7816083BF7894889583B78E7F7E
:1033400083BF0FB6F894A895809160008861809340
:103350006000109260000FBE80910B02882309F478
:10336000CFCF0E94760DE8E2F2E081919191892B16
:1033700009F056C280E392E08E179F07B1F7C0CFE5
:103380000E94CA200E94DF1E0E94760D81110E94B9
:10339000F31D7FE1472E72E0572EE8E26E2EE2E049
:1033A0007E2E00E010E00BA7D301AD90BD903D0153
:1033B000F201C190D1902F01CA24DB24C114D104A1
:1033C000B1F40F5F1F4F0430110569F78FEF8EA323
:1033D0008FA318A60E94FF1D8160782F9AA789A746
:1033E0004EA15FA168A58AA50E94720678C080914F
:1033F000390281FD05C080E0EE24E394F12C49C040
:103400008EE494E00E94D00558E2852E52E0952E7D
:10341000E12CF12CFF92EF9249E454E05F934F933B
:103420000E94690686E494E00E94D005D4018C9144
:1034300011962C90B2E08B0E911C0E940A0D382E32
:10344000822D0E940A0D232D30E0322F2227F90110
:10345000E82BCF019F938F9340E454E05F934F9309
:103460000E9469068EE394E00E94D0059FEFE91A5E
:10347000F90A0FB6F894DEBF0FBECDBFB4E0EB166D
:10348000F10441F6B8CF8F5FEE0CFF1C8C3009F4CD
:1034900098CF96012E213F21232BA9F389A3EBA5D9
:1034A000EAA3AE20BF2081E0AB2809F480E08BA323
:1034B0000E94FF1D8160782F9DA38CA349A15AA172
:1034C0006BA18DA10E947206000F111FF801E15E31
:1034D000FD4F80819181E826F926F182E0820E94E9
:1034E000DF1E182F80912702181721F11093270251
:1034F0008091390282FF1EC080FF04C08CE694E0F8
:103500000E94D0058091390280FF0CC01F921F934A
:1035100087E694E09F938F930E9469060F900F9027
:103520000F900F908091390280FF04C085E694E0EF
:103530000E94D00580910C02843009F0D4CE83E043
:103540008093E9008091E80082FFCDCE8091E80071
:1035500085FF22C00E944B1881111CC000E210E0C0
:10356000AE014F5F5F4F7A0108C08091F100D70133
:103570008D937D010150110969F08091E80085FD6E
:10358000F4CF8091E8008B778093E8000E944B187D
:10359000882399F391E001C090E08091E8008B7757
:1035A0008093E800992309F49ECEE9818E2F90E064
:1035B000FC013197E331F10508F009C1E459FF4FEF
:1035C0000C94E6231A8289E065C08A81823009F46E
:1035D0003DC1833051F0813009F0F9C00E94F31DE4
:1035E0009B838C837D836E83F4C0809128029091AD
:1035F00029029B838C8380912A0290912B029D83C8
:103600008E8380912C0290912D029F8388878091D8
:103610002E0290912F0299878A87DBC08A8182309F
:1036200009F0D5C06B817C818D819E810E94EC2345
:103630000E944E23CEC04C816B818A810E94AE1FB6
:103640009D830BC1ED80FE80FE24EF24FE248C813F
:103650000B819A81B8E10B9F80011124E0E69E9FC7
:10366000000D111D1124080F111D080F111D6F2DC4
:10367000C80187960E94A6236E2DC80188960E94D5
:10368000A623A7C00E947A1FA4C080E156C082E092
:103690008A8389E58B839DC00A811B8110270127BE
:1036A0001027CC80D12CAE014F5F5F4F5A017A01B9
:1036B000C80189559E4F97012A193B092C153D05D4
:1036C00008F087C0093552E0150730F40E949823AE
:1036D000D70114968C9302C0F70114820F5F1F4F1D
:1036E000FFEFEF1AFF0AE4CF0A811B8110270127A1
:1036F0001027CC80D12CAE014F5F5F4F5A017A0169
:10370000C80189559E4F97012A193B092C153D0583
:1037100008F05FC0093552E0150728F4D701149668
:103720006C910E94A6230F5F1F4FBFEFEB1AFB0A9D
:10373000E7CF0E946A1F4DC084E08A834AC00A8195
:103740001B81102701271027CC80D12CFE01319638
:103750005F017F01C801879697012A193B092C1543
:103760003D05B8F50038F1E01F0730F40E949823BA
:10377000D70114968C9302C0F70114820F5F1F4F7C
:10378000FFEFEF1AFF0AE6CF0A811B8110270127FE
:103790001027CC80D12CAE014F5F5F4F5A017A01C8
:1037A000C801879697012A193B092C153D0588F415
:1037B000003851E0150728F4D70114966C910E9447
:1037C000A6230F5F1F4FBFEFEB1AFB0AE9CF8FEF66
:1037D000898380910C02843009F085CD1091E90035
:1037E0001F709091EC00892F817090FD80E8182B5C
:1037F00082E08093E9008091E80080FF0DC040E006
:1038000050E060E270E0CE0101960E947E18809147
:10381000E8008E778093E8001F701093E90063CD75
:1038200009BD19BD09B400FEFDCF8091D8008F7D80
:103830008093D8008091E00082608093E0008091C6
:10384000E00081FDFCCF0E94CA205ACD86E290E0C4
:103850000E9498231B821C821D828E83BACF0895FA
:1038600008958091E90108959FB7F8941092E501B9
:103870009FBF90910C02943009F057C09091E900DD
:103880009F703091EC00232F217030FD20E8922BA7
:1038900025E02093E9002091EB0020FF43C0209118
:1038A000EE0027FF3FC020914402222321F0209107
:1038B000E80025FF37C01092440226E03091E8006E
:1038C00035FD15C030910C02343061F53091EB00BC
:1038D00035FD28C0215021F481E08093440222C0AC
:1038E000EFE9FFE03197F1F700C00000E7CF8093E8
:1038F000F1008091E80085FD0AC08091E80080FF1A
:10390000FCCF8091E8008E778093E80006C08FB7E7
:10391000F89421E02093E5018FBF9F709093E90018
:1039200080E008959F709093E9008FEF0895809351
:103930004102709343026093420280910C028430F2
:10394000F9F48093E9008FEF9091E800815095FDA4
:1039500006C095ED9A95F1F700008111F5CF8091A1
:10396000E80085FF0DC040E050E063E070E081E4D6
:1039700092E00E947E188091E8008E778093E800A4
:103980000895BC0184E00C94971CBC0183E00C9466
:10399000971CCF93DF9320910001222339F02091CF
:1039A0003F0227FF03C060E224E002C068E021E09C
:1039B0002093E9002FEF3091E800215035FD06C03B
:1039C00035ED3A95F1F700002111F5CF2091E8008F
:1039D00025FF1DC0EC0180910001811105C040E070
:1039E00050E068E070E003C070E040E050E0CE01DD
:1039F0000E947E188091E8008E778093E80080E234
:103A0000FE01AAEEB1E001900D928A95E1F7DF91F7
:103A1000CF91089580910E0287FF11C08091E80038
:103A200082FD05C080910C028111F8CF11C08091F8
:103A3000E8008B770BC080910C02882349F08091BD
:103A4000E80080FFF8CF8091E8008E778093E8004F
:103A50000895982F973068F59093E900981739F0FA
:103A60007091EC002091ED005091F00003C0242FE4
:103A7000762F50E021FD02C09F5FECCF3091EB002C
:103A80003E7F3093EB003091ED003D7F3093ED00B1
:103A90003091EB0031603093EB007093EC00209399
:103AA000ED005093F0002091EE0027FDE5CF80E07F
:103AB00008958F708093E90081E0089520911402A9
:103AC000309115022617370748F06115710539F452
:103AD0002091E8002E772093E80001C0B901FC0195
:103AE00020E06115710579F180910C028823F1F1D4
:103AF0008530F1F18091E80083FD3CC08091E800C1
:103B000082FD2EC08091E80080FFEBCF2091F30072
:103B10008091F20090E0922B6115710551F0883090
:103B2000910538F421912093F100615071090196BB
:103B3000F3CF21E0089709F020E08091E8008E772C
:103B40008093E800CECF2111CFCF0AC080910C0224
:103B5000882361F0853061F08091E80083FD0AC020
:103B60008091E80082FFF2CF80E0089582E008951E
:103B700083E0089581E0089587E797E7909301082F
:103B8000809300089AE088E10FB6F894A895809396
:103B900060000FBE90936000FFCF78941F920F9249
:103BA0000FB60F9211248F939F93AF93BF93809181
:103BB0003B0290913C02A0913D02B0913E020196E1
:103BC000A11DB11D80933B0290933C02A0933D0246
:103BD000B0933E02BF91AF919F918F910F900FBE16
:103BE0000F901F9018952FB7F89460913B02709139
:103BF0003C0280913D0290913E022FBF08952FB765
:103C0000F89480913B0290913C02A0913D02B091CA
:103C10003E022FBF08951F920F920FB60F921124EC
:103C20008F939F93AF93BF9380913A02811113C0FA
:103C300080913B0290913C02A0913D02B0913E02E6
:103C40004196A11DB11D80933B0290933C02A0932D
:103C50003D02B0933E02BF91AF919F918F910F9023
:103C60000FBE0F901F90189520910001222351F153
:103C700020913F0227FF26C0262F269526952695C0
:103C80002E3178F4FC01E20FF11D677081E090E0C5
:103C900001C0880F6A95EAF7809592818923828313
:103CA00008958091390280FF17C01F926F938AE1B7
:103CB00096E09F938F930E9469060F900F900F904C
:103CC0000F900895FC0106962281621301C01282B2
:103CD0003196E817F907C1F70895209100012223D2
:103CE00049F120913F0227FF25C0262F26952695D2
:103CF00026952E3170F4FC01E20FF11D677081E012
:103D000090E001C0880F6A95EAF79281892B82833F
:103D100008958091390280FF25C01F926F938CEF28
:103D200095E09F938F930E9469060F900F900F90DC
:103D30000F900895FC0132962FEF30E04191641707
:103D400089F02F3F19F4411101C0232F3F5F363016
:103D5000A9F72F3F39F0FC01E20FF11D27FDFA957D
:103D60006283089508952091370230913802281710
:103D7000390771F09093380280933702E091350251
:103D8000F0913602309721F00084F185E02D0994FE
:103D9000089520913302309134022817390771F0C9
:103DA0009093340280933302E0913502F091360211
:103DB000309721F00680F781E02D09940895E09175
:103DC0003502F0913602309721F00190F081E02D1C
:103DD000099480E008950F931F93CF93DF93C42F2E
:103DE000122FFC0182818823C9F0409332020E9485
:103DF000FF1D909331028093300280E28C0F883057
:103E000008F063C0C77081E001C0880FCA95EAF767
:103E1000DF91CF911F910F910C94E6208091320297
:103E200048133CC020913002309131024FB7F894D2
:103E300080913B0290913C02A0913D02B0913E02E4
:103E40004FBF821B930B883C910540F5D0E2D10F08
:103E5000C117B9F080E28C0F883040F4C77081E060
:103E600001C0880FCA95EAF70E94DF20D83030F5EC
:103E700081E0912F977001C0880F9A95EAF70E9410
:103E8000E620802F0E94C521D830F8F4212F27701A
:103E900081E001C0880F2A95EAF70AC080E28C0F02
:103EA000883098F4C77081E001C0880FCA95EAF79E
:103EB000DF91CF911F910F910C94DF20802FDF9124
:103EC000CF911F910F910C94C521DF91CF911F913C
:103ED0000F910895CF93DF93C7EAD1E060E0CE0160
:103EE0000E94A6232196C11584E0D807B9F7DF9177
:103EF000CF910895CF92DF92EF92FF920F931F938D
:103F0000CF93DF93C0E0D0E08E01005A1F4F6E01C7
:103F100088E1C80ED11CFE01E458FB4FE590F490F7
:103F20006F2DCE0187960E94A6236E2DCE01889616
:103F30000E94A6232296CC15DD0569F70C171D07F4
:103F400031F7E80100381140F9F6DF91CF911F9168
:103F50000F91FF90EF90DF90CF9008950F931F93F4
:103F6000CF93DF93C42FD0E0CC0FDD1F28E1629FF9
:103F7000C00DD11D112430E6839FC00DD11D112429
:103F8000CE0187960E949823082F10E0102F00275B
:103F9000CE0188960E9498239801282BC901DF91B1
:103FA000CF911F910F910895462F843038F47430CB
:103FB00028F46C3018F4672F0C94AE1F80E090E06A
:103FC0000895CF93C82F1F928F9387E794E09F9314
:103FD0008F930E94690681E001C0880FCA95EAF7B5
:103FE0000E94A6200F900F900F900F90CF910C94ED
:103FF000CA2080E090E00E94C91E80E090E00E940C
:10400000B31E1092DE010C947210CF92DF92FF92D9
:104010000F931F93CF93DF936C0100911602809151
:10402000E101082BC7E0D0E010E0C8010C2E02C06F
:10403000959587950A94E2F780FD04C02197A8F72B
:10404000F12C09C0FC2EB6018C2F0E94D41F0E94B7
:10405000610E019799F38F2DDF91CF911F910F91F1
:10406000FF90DF90CF9008952CE0929F800D112457
:10407000682F669566956695982F977083E0689F80
:10408000B001112440E050E080E0FB01E40FF51F97
:10409000EB5BFD4F208130E0092E02C0369527955D
:1040A0000A94E2F721703327042E01C0220F0A94EC
:1040B000EAF7822B4F5F5F4F4330510531F7089588
:1040C0002CE0929F800D1124E82FE695E695E69569
:1040D000877051E001C0550F8A95EAF783E0E89FA9
:1040E000F0011124EB5BFD4F20E030E070E04081F7
:1040F000CB01022E02C0969587950A94E2F7817053
:10410000819584278523842781932F5F3F4F233018
:10411000310569F70895809316020C94F91F21E088
:1041200030E001C0220F8A95EAF7209580911602AF
:1041300082230C948B2021E030E001C0220F8A956D
:10414000EAF780911602822B0C948B208093E10178
:104150000C94F91FFC01808191810E94C8119295F5
:104160009F70963079F010F4925001C09A509230BE
:1041700068F4803F69F018F4883E40F409C0843F39
:1041800029F406C0883E20F0813F11F080E00895B8
:1041900081E008951092DF0180910001882331F0C1
:1041A00080913F0287FF02C08EE101C086E0E7E612
:1041B000F1E0DF011D928A95E9F70C94F91F88233D
:1041C00021F00E946B100C9472100895882339F02E
:1041D0009091DF01892B8093DF010C947210089578
:1041E000882339F1682F8CEF860F813A28F485E611
:1041F00091E00E94341E0CC080E2860F883050F49B
:10420000677081E001C0880F6A95EAF70E946B1021
:104210000C9472108BE5860F833020F480E090E0E0
:104220000C94C91E685A673120F480E090E00C9429
:10423000B31E0895CF93882309F4A5C09CEF980F6F
:10424000913AB0F5C82F80915702882319F0813038
:1042500051F02BC08091DF01823209F05CC08C2FBD
:104260000E94E32156C08091DF018232C1F3C43144
:1042700091F018F4CB3029F011C0C93261F0C83385
:1042800069F48BE399E00E94D0058AE396E00E94EE
:10429000D00581E008C01092570204C088E396E080
:1042A0000E94D00580E0817034C01092570233C064
:1042B00090E2980F983090F4877021E030E0A901E7
:1042C00002C0440F551F8A95E2F7CA019091DF01A1
:1042D000892B8093DF01CF910C947210EBE5E80FEE
:1042E000E33040F4F0E0E35FFE4F808190E0CF9157
:1042F0000C94C91E885A873108F045C0E82FF0E0B9
:10430000EE0FFF1FE05FFE4F80819181CF910C94F3
:10431000B31E811138C0809100018823E1F08091A3
:104320003F0287FF18C0EC2FE695E695E695F0E092
:10433000EB59FE4F8281282F30E04C2F477081E0EF
:1043400090E002C0880F991F4A95E2F782239323D9
:10435000892B61F412C0E7E6F1E08DE691E021914E
:10436000C21721F08E179F07D1F707C06C2F85E683
:1043700091E00E94341E0E9472106C2F85E691E03D
:104380000E946D1EA8CFCF9108951F93CF93DF9306
:10439000182F893319F0C0E0D0E002C0C0E5D0E0AA
:1043A000812F0E941A21209741F08FE99FE0019709
:1043B000F1F700C000002197F6CF812FDF91CF9158
:1043C0001F910C94F020DF92EF92FF920F931F93B6
:1043D000CF93DF93482F50E0FA013597EF33F10583
:1043E00008F04EC1E158FF4F0C94E62383E090E0C3
:1043F0000E9498231F928F938CE697E09F938F9350
:104400000E94690682E090E00E94982383FB99272E
:1044100090F91F929F9382FB992790F91F929F9387
:1044200081FB992790F91F929F93982F91701F926B
:104430009F931F928F9383E297E09F938F930E94A5
:1044400069060E94EA0F87FB222720F91F922F930B
:1044500086FB222720F91F922F9385FB222720F924
:104460001F922F9384FB222720F91F922F9383FB07
:10447000222720F91F922F9382FB222720F91F92D7
:104480002F9391FB222720F91F922F93292F217020
:104490001F922F9381FB222720F91F922F93282F01
:1044A00021701F922F939F938F938EE396E09F939B
:1044B0008F930E9469068DB79EB788960FB6F894C1
:1044C0009EBF0FBE8DBF06C088E39BE00E94D00553
:1044D0000E94FB0FC1E0D9C089E897E0C6C0809177
:1044E0003902817F8E7F809339028BE399E00E94AD
:1044F000D00584E39BE00E94D00581E080935702C1
:10450000E9CF88E19BE00E94D0050E94CA209FEF7E
:1045100024E38CE0915020408040E1F700C000008F
:104520000E94BC1DD7CF80913902C82FC095C170A1
:10453000C0FB80F980933902CC2319F08CE09BE01A
:104540008FC08FEF9AE00E94D00580913902897F59
:10455000877F80933902BECF9091390291FBCC279F
:10456000C0F981E0C827892FC0FB81F98093390207
:10457000CC2319F082EF9AE027C084EE9AE075C050
:104580009091390292FBCC27C0F981E0C827892F8E
:10459000C0FB82F980933902CC2319F085ED9AE0B3
:1045A00013C085EC9AE061C09091390293FBCC274F
:1045B000C0F981E0C827892FC0FB83F980933902B5
:1045C000CC2351F089EB9AE00E94D005809139020A
:1045D00081608093390259C08CEA9AE046C086E532
:1045E00099E043C00E94F31D062FF72EE82ED92E26
:1045F000C0913F02C7FBCC27C0F91091E801D091D0
:1046000000010E94DF1EDF92EF92FF920F931F9234
:10461000CF931F921F931F92DF931F928F9381E17D
:104620009AE09F938F930E9469068DB79EB70E966E
:104630000FB6F8949EBF0FBE8DBF4CCF0E94CA200C
:1046400090913F0297FBCC27C0F981E0C827892FC2
:10465000C0FB87F980933F02CC2329F082EA9AE0DD
:104660000E94D00512C087E99AE00E94D00532CF9F
:10467000895303C08D5101C080E00E94E11F2ACF01
:1046800085E99AE00E94D005C0E08C2FDF91CF91A0
:104690001F910F91FF90EF90DF90089586E290E0D8
:1046A0000C94A623CF93C82F811102C06FEF01C0D5
:1046B00062E283E290E00E94A623C11102C06FEF84
:1046C00001C064E084E290E00E94A623C11102C010
:1046D0006FEF01C061E085E290E0CF910C94A623DA
:1046E00080E00E94522360E070E0CB010E944E23E4
:1046F0000E947A1F0E946A1F81E00C94522383E279
:1047000090E00E949823823281F484E290E00E943B
:104710009823843051F485E290E00E94982391E040
:10472000813009F090E0892F01C080E08170089508
:10473000F999FECF92BD81BDF89A992780B5089569
:10474000A8E1B0E042E050E00C94CC23262FF99988
:10475000FECF92BD81BDF89A019700B4021639F0E0
:104760001FBA20BD0FB6F894FA9AF99A0FBE0895B1
:104770000396272F0E94A7230E94A623252F0E947D
:10478000A723242F0C94A7230196272F0E94A72349
:104790000C94A623DC01CB01FC01F999FECF06C0E5
:1047A000F2BDE1BDF89A319600B40D9241505040EF
:1047B000B8F70895991B79E004C0991F961708F07F
:1047C000961B881F7A95C9F780950895EE0FFF1FF5
:1047D0000590F491E02D0994692796276927782799
:1047E000872778270895FB01DC0104C08D91019093
:1047F000801921F441505040C8F7881B990B089547
:04480000F894FFCF5A
:1048040001311CC91C301CC51CC11C2F1C81828396
:10481400E200E900EA00B500B600B700CD0083016C
:10482400CC008A0192019401210223022402250270
:10483400260227022A02B300B4006F00700040224F
:104844006D222F030D03A0027E029503AE03CE0357
:10485400E70331333236F4F5F6F7C6343597669408
:02486400909131
:00000001FF
