:100000000C94A4020C94DC020C94DC020C94DC0230
:100010000C94DC020C94DC020C94DC020C94DC02E8
:100020000C94DC020C94DC020C94F0200C94C221A1
:100030000C944F1B0C94DC020C94DC020C94DC023C
:100040000C94DC020C94DC020C94DC020C94DC02B8
:100050000C94DC020C94D71B0C94DC020C94DC0294
:100060000C94DC020C94DC020C94DC020C94DC0298
:100070000C94DC020C94DC020C94DC020C94DC0288
:100080000C94DC020C94DC020C94DC020C94DC0278
:100090000C94DC020C94DC020C94DC020C94DC0268
:1000A0000C94DC020C94DC020C94DC0287068706BC
:1000B000B306B3061B071508150815083907A1076D
:1000C000B207B20712161516351646164E165916F1
:1000D0005C165F166216A816A816651668166D16C9
:1000E0007A1687168A168E169B162F2256224E23B4
:1000F00056224E23A222C5224E231C232B23165CFC
:100100001E001F00200021002200230024002500E3
:10011000260027002D002E002A0049002B00140085
:100120001A000800150017001C0018000C0012002F
:1001300013002F00300031004C003900040016007D
:10014000070009000A000B000D000E000F0033002D
:100150003400280001004B00E1001D001B000600D8
:100160001900050011001000360037003800E500C6
:10017000520000004E00E000E300E200000000003A
:100180002C0000000000E60001510000500051006A
:1001900000004F0035003A003B003C003D003E00AF
:1001A0003F004000410042004300440045004C0035
:1001B00049000100AE00AC00AB00010001000100ED
:1001C000010001004A004600010001000100C95C75
:1001D000005C0100010001000100010001000100BC
:1001E00001004D000100010001000100CA5C010096
:1001F000010001000100010001000100A800AA00A7
:10020000A9000100C35CC75C0000C25C01000100E2
:1002100001000000000001000000000001000100DA
:100220000000C65CC85C0000C55C01000100010064
:1002300001000100010001000100010001000100B6
:1002400001000100010001000100010001000100A6
:100250000100010001000100010001000100010096
:100260000100010001000100010001000100010086
:100270000100010001000100010001000100010076
:100280000100010001000100010001000100010066
:100290000100010001000100010001000100000057
:1002A0000100010001000100000000000100000049
:1002B0000000010001000000010001000000010039
:1002C0000100010001000100010001000100010026
:1002D0000100010001000100010001000100010016
:1002E0000100010001000100010001000100010006
:1002F00001000100010001000100010001000100F6
:1003000001000100010001000100010001000100E5
:1003100001000100010001000100010001000100D5
:1003200001000100010001000100010001000100C5
:1003300001000100000001000100010001000000B7
:1003400000000100000000000100010000000100A9
:1003500001000000010000000000000000002A2B46
:100360002800000000000000000000000000000065
:100370000029000000002C1E3420212224342627CE
:10038000252E362D3738271E1F20212223242526EF
:100390003333362E37381F0405060708090A0B0CBD
:1003A0000D0E0F101112131415161718191A1B1C05
:1003B0001D2F3130232D350405060708090A0B0CC3
:1003C0000D0E0F101112131415161718191A1B1CE5
:1003D0001D2F3130354C00000000000000000000EF
:1003E000000000000000000000000000000000000D
:1003F000000000000000000000007E0F00D4FFFF9E
:10040000FFC7000000780803390031003000000009
:1004100030035300770069007400630068007000C7
:100420006C006100740065002000500065007200DF
:100430006900700068006500720061006C00730064
:1004400000000403090409025B00030100A0FA098B
:1004500004000001030101000921110100012240F3
:1004600000070581030800010904010002030000E0
:10047000000921110100012222000705820320004A
:100480000107050303200001090402000103000025
:100490000009211101000122320007058403200018
:1004A000011201000200000008F354652001000160
:1004B0000200010660FF0961A1010962150026FF23
:1004C000009520750881020963150026FF0095201C
:1004D00075089102C005010980A101850319012A4F
:1004E000B700150126B700950175108100C0050CF5
:1004F0000901A101850419012AA002150126A00203
:10050000950175108100C005010906A101050719B3
:10051000E029E7150025019508750181029501750F
:100520000881010507190029FF150026FF0095061F
:1005300075088100050819012905950575019102C5
:10054000950175039101C00011241FBECFEFDAE0C1
:10055000DEBFCDBF04B603FE18C080915D0290914E
:100560005E02A0915F02B09160028730904BA7407D
:10057000B04B59F410925D0210925E0210925F022D
:1005800010926002E0E0F8E3099511E0A0E0B1E02C
:10059000E0E8F8E402C005900D92A639B107D9F75A
:1005A00022E0A6E9B1E001C01D92AD35B207E1F746
:1005B0000E942E130C943E240C94000081E00895B8
:1005C00081E008950C94E00208950C94E4021F93D6
:1005D000CF93DF9300D000D01F92CDB7DEB7498311
:1005E0005A836B833091990189819A81311114C0AA
:1005F000662359F0222349F00E94A009182F682F82
:1006000089819A810E94490903C00E947409182FA8
:1006100069817A81812F04C00E94A00969817A8151
:100620000F900F900F900F900F90DF91CF911F912F
:100630000C94C218FC01262F408151816281738184
:1006400084810C94E70281E00895CF93DF93EC015D
:1006500060E00E941A03BE01DF91CF910C94E50285
:10066000E1E0F0E0DF0102C0AA0FBB1F6A95E2F7EC
:10067000BD01DF0102C0AA0FBB1F4A95E2F7AD0121
:10068000462B01C0EE0F2A95EAF7942F98234913C1
:1006900002C08E2B0895E0958E230895242F462FB7
:1006A000682F8091B8010E9430030C9406090C94C5
:1006B000DF110C94DB1108950E94A1080E945B03D6
:1006C0002FEF84E39CE0215080409040E1F700C090
:1006D00000000C94FD1B0F931F93CF93DF938C01AD
:1006E00061E00E941A03EC01B8010E94951588236D
:1006F00009F44BC0B801CE010E94E202882309F43C
:1007000044C0B801CE010E9432148823F1F1B8012F
:10071000CE010E94281A8823C1F1B801CE010E949F
:10072000B416882391F1B801CE010E948419882360
:1007300061F1F8018281882309F1CA358DE5D80776
:10074000C1F050F4C115FCE5DF0781F0CE3DDC457A
:10075000A9F40E94C10E19C0CB35EDE5DE0761F0AA
:10076000CC35DD4559F40E94050E08C00E945C039B
:100770000CC00E940E0E02C00E94110EC801DF9133
:10078000CF911F910F910C94DE0280E0DF91CF9109
:100790001F910F9108950E94311B80E00E94671401
:1007A0000C94BB040E9456130E94BE040C94371B89
:1007B000DF92EF92FF920F931F93CF93DF93E82F77
:1007C000F0E0EA5AFC4FD490282F269526952695DE
:1007D00030E0F901EA50FC4F0491877010E0082ED8
:1007E00002C0159507950A94E2F701701127F901E7
:1007F000EA51FC4FE490F12C082E02C0F594E794E6
:100800000A94E2F791E0E922FF24F901EA52FC4F51
:10081000C491D0E002C0D595C7958A95E2F7C17022
:10082000DD270115110519F081EE0E941D05E11467
:10083000F10419F086EE0E941D058D2D0E943506EB
:10084000EF2819F086EE0E94BF05012B19F081EE0A
:100850000E94BF05CD2B51F08CE2DF91CF911F910B
:100860000F91FF90EF90DF900C943506DF91CF91C0
:100870001F910F91FF90EF90DF900895EF92FF92FC
:100880000F931F93CF93DF93EC01162F0AE088811B
:10089000882309F455C0813009F043C08981813033
:1008A00041F47E0182E0E80EF11C8A810E94350647
:1008B00009C0823049F47E01E2E0EE0EF11C8A812B
:1008C0000E941D05E7012FC0833041F47E01F2E054
:1008D000EF0EF11C8A810E94BF05F4CF843011F025
:1008E000219621C02A81229680E090E030E02053BA
:1008F00031092A30310558F4089FA001099F500D95
:100900001124C901840F951F21962881EFCF0097EC
:1009100051F0EFE9FFE03197F1F700C000000197D7
:10092000F6CF0E94D8032196812F882309F4AFCFF8
:10093000EFE9FFE03197F1F700C000008150F5CFFB
:10094000DF91CF911F910F91FF90EF90089560E09C
:100950000C943E0408950C94AA0481E008950C942C
:10096000AD040895CF93C82F0E94AB048C2F0E9432
:10097000AF04CF91089580E00C94B2040E94841AD1
:100980000C94B2040E94841A90919801891721F066
:10099000809398010C94B2040895CF93DF93CDB760
:1009A000DEB72B970FB6F894DEBF0FBECDBF4F83D7
:1009B000588769877A878B8761110E94510D9E0144
:1009C0002F5F3F4F86E0F90111928A95E9F785E0A4
:1009D000FE013796D90101900D928A95E1F7898140
:1009E0009A814C815D81452B31F09F3F31F491E03C
:1009F0008F3F19F403C091E001C090E090FF09C05F
:100A000049815A816B817C818D819E810E94720C0B
:100A100005C0C9010E9423038111F2CF2B960FB6A6
:100A2000F894DEBF0FBECDBFDF91CF910895FC01DA
:100A3000808191810E94CD090895CF93882309F484
:100A40009CC0C82F8238C1F40E94841A81FD95C0D1
:100A500069E380910201909103010E94091B0E94A9
:100A6000730D2FEF81EE94E0215080409040E1F72C
:100A700000C0000069E319C0833801F50E94841AA0
:100A800080FD7BC063E580910201909103010E948B
:100A9000091B0E94730D2FEF81EE94E021508040DE
:100AA0009040E1F700C0000063E580910201909161
:100AB00003010E940B1BCF910C94730D8438C1F479
:100AC0000E94841A82FD59C067E4809102019091CE
:100AD00003010E94091B0E94730D2FEF81EE94E029
:100AE000215080409040E1F700C0000067E4DDCF76
:100AF0008CEF8C0F813AD0F46C2F80910201909191
:100B000003010E94D31A882349F06C2F80910201BF
:100B1000909103010E940B1B0E94730D6C2F80911A
:100B20000201909103010E94091BC5CF80E28C0F46
:100B3000883048F4C77081E001C0880FCA95EAF791
:100B40000E94340DB8CFEBE5EC0FE33040F4F0E059
:100B5000E15CFE4F808190E0CF910C949B1AC85AC3
:100B6000C73158F4EC2FF0E0EE0FFF1FEF5EFE4FA1
:100B700080819181CF910C94B11ACF9108958823EF
:100B800009F45BC0682F823879F40E94841A81FFCF
:100B900054C069E380910201909103010E94091BF6
:100BA0000E94730D69E310C08338B1F40E94841A67
:100BB00080FF43C063E580910201909103010E9490
:100BC000091B0E94730D63E580910201909103015E
:100BD0000E940B1B0C94730D843879F40E94841AC4
:100BE00082FF2BC067E480910201909103010E9473
:100BF000091B0E94730D67E4E7CF8CEF860F813AE3
:100C000018F380E2860F883048F4677081E001C0F5
:100C1000880F6A95EAF70E943A0DDCCF8BE5860FC4
:100C2000833020F480E090E00C949B1A685A67317E
:100C300020F480E090E00C94B11A08951F93CF93B4
:100C4000DF93182FEB010E941D05209741F08FE9DB
:100C50009FE00197F1F700C000002197F6CF812FA8
:100C6000DF91CF911F910C94BF05893319F060E09B
:100C700070E002C060E570E00C941E06882321F04D
:100C80000E94340D0C94730D0895882321F00E9466
:100C90003A0D0C94730D0895CF92DF92EF92FF926C
:100CA0000F931F93CF93DF937C01162FC72FFC0167
:100CB000D281058102950F700E942A0D8823B9F018
:100CC000DD23A9F08C2F807F803421F080E2810F1A
:100CD000883068F08091360282FD09C082E00E946F
:100CE000D30D0E942A0D91E0D82ED92601C0D12C17
:100CF000CC2EC2948FE0C8228C2D90E08C309105D0
:100D000008F093C1FC01EA5AFF4F0C94C8238C2FC2
:100D1000807FCF70882311F0C295C07FDD2399F0CA
:100D2000CC2309F46EC180E2810F883010F01111DC
:100D300004C08C2F0E94340D03C08C2F0E94440DE0
:100D40000E94730D5EC1812F0E94BF05CC2309F460
:100D50006CC180E2810F883038F1112329F18C2F8A
:100D60000E944A0D24C08C2F807FCF70803211F0FA
:100D7000C295C07F112319F01130A1F13DC08091BF
:100D8000360282FF17C0DD2349F0CC2329F08C2FD7
:100D90000E94340D0E94730D80E034C180E00E94F7
:100DA000BF05CC2309F441C18C2F0E943A0D0E944B
:100DB000730D3BC1DD2371F0002341F0013031F4AC
:100DC0000E94540D8C2B0E945C0D2FC10E94540D6B
:100DD0008C2B1DC0002319F0013009F426C10E949C
:100DE000690D25C0DD2321F0063008F01EC10EC0BC
:100DF000053008F01AC11BC0DD2361F0002331F07B
:100E0000F701858180FFFDC08F7085838C2F0E9444
:100E10003E060BC1002359F0193309F003C1FFEF5F
:100E200027EE83E0F15020408040E1F7F9C08C2F9D
:100E30000E944506FAC08C2F86958695837019F01E
:100E4000813061F0F2C0DD2321F0812F9C2F93705F
:100E500002C080E090E00E949B1AEFC0DD2321F0E9
:100E6000812F9C2F937002C080E090E00E94B11A05
:100E7000E4C08C2F837079F5D111DBC0412F4295EE
:100E800046954770440F440F212F2F70042E01C048
:100E9000220F0A94EAF714FF08C08FE090E001C027
:100EA000880F4A95EAF7809501C080E0C695C695FF
:100EB000C370822BC23049F058F4C13019F00E943F
:100EC000FA08B7C00E94F508B4C00E94FF08B1C07C
:100ED0000E94F308AEC0DD2319F08C2F817001C091
:100EE0008695882309F4A5C0412F42954695477001
:100EF000440F440F212F2F70042E01C0220F0A949B
:100F0000EAF714FF08C08FE090E001C0880F4A950F
:100F1000EAF7809501C080E0C695C695C370822B24
:100F2000C23049F058F4C13019F00E943E0981C026
:100F30000E9439097EC00E9443097BC00E940609B5
:100F400078C0CF70DD2339F08C2F0E941709812FD4
:100F50000E943E066EC0812F0E9445068C2F0E9483
:100F6000220967C0123F21F128F4103F41F0113FE0
:100F7000C1F043C0133F19F1143F79F03EC0DD23A7
:100F800041F0053008F051C08C2F8F710E942E095E
:100F90004CC0063008F049C0F7CF8091360282FF7E
:100FA00018C0DD2339F08C2F8F710E9417093DC0C6
:100FB000DD23C9F38C2F8F710E94220936C0DD23F7
:100FC00029F08C2F8F710E940F092FC00E940C09ED
:100FD0002CC0DD2349F0CF718C2F0E94170963E0EC
:100FE0008C2F0E94B80D21C081E00E94D30D0230E9
:100FF000E0F082E00E94D30D18C0DD2331F0002321
:1010000091F2812F0E941D0510C0002399F219331F
:1010100049F49FEFE7EEF3E09150E040F040E1F754
:1010200000C00000812F0E94BF0588EF8C0D843026
:1010300020F40E94841A0E94B204DD20C9F00E94AC
:10104000260D80FD15C0F70112820E94200D0E941E
:101050001709C7010E9459080E94200DDF91CF9106
:101060001F910F91FF90EF90DF90CF900C94220989
:10107000DF91CF911F910F91FF90EF90DF90CF9074
:1010800008950F931F93CF93DF93EC0168817981CB
:101090008A810E94D8098C010E9448090E94E708B1
:1010A000B801CE010E944C06DF91CF911F910F91A4
:1010B0000895CF93DF93EC01988189812B813C8146
:1010C000232B31F08F3F31F481E09F3F19F403C0AF
:1010D00081E001C080E080FD1DC0CE010E946B0355
:1010E000811110C00E942A0D8823A1F08A818823D3
:1010F00089F08091360282FD0DC082E0DF91CF91B0
:101100000C94D30DCE010E944108CE01DF91CF9106
:101110000C942503DF91CF91089580E090E00E9428
:101120009B1A80E090E00E94B11A0E94510D0C942D
:10113000730D80910201909103010E940D1B0C948C
:101140008D080E94410D0C94990892959F709630DD
:1011500079F010F4925001C09A50923068F4803FB8
:1011600069F018F4883E40F409C0843F29F406C0B1
:10117000883E20F0813F11F080E0089581E00895DD
:10118000FC01808191810E94CD090E94A5080895EB
:10119000CF93DF9300D000D01F92CDB7DEB70F9072
:1011A0000F900F900F900F90DF91CF910895CF93F4
:1011B000DF9300D000D000D0CDB7DEB726960FB6B3
:1011C000F894DEBF0FBECDBFDF91CF910895089593
:1011D00008950C94E8080C94E9080E94EB088093A9
:1011E000B9010C948D080C94ED089091B901892BEC
:1011F0000C94ED089091B90189230C94ED0890911D
:10120000B90189270C94ED080C94E8080E940409A0
:101210008093B8010C948D0880E00C94060991E04D
:1012200001C0990F8A95EAF7892F0C94060921E0ED
:1012300030E001C0220F8A95EAF78091B801822B35
:101240000C94060921E030E001C0220F8A95EAF7EC
:1012500020958091B80182230C94060921E030E0AA
:1012600001C0220F8A95EAF78091B80182270C9479
:1012700006099091B801892B0C9406099091B80148
:1012800089230C9406099091B80189270C940609CA
:1012900008952FE0929F800D1124E82FE695E695A2
:1012A000E695877051E001C0550F8A95EAF783E013
:1012B000E89FF0011124E656FE4F20E030E070E098
:1012C0004081CB01022E02C0969587950A94E2F7E1
:1012D0008170819584278523842781932F5F3F4FD9
:1012E0002330310569F708952FE0929F800D112476
:1012F000682F669566956695982F977083E0689F2E
:10130000B001112440E050E080E0FB01E40FF51F44
:10131000E656FE4F208130E0092E02C03695279513
:101320000A94E2F721703327042E01C0220F0A9499
:10133000EAF7822B4F5F5F4F4330510531F7089535
:10134000CF92DF92FF920F931F93CF93DF936C01A5
:101350000091B8018091B901082BC7E0D0E010E0FE
:10136000C8010C2E02C0959587950A94E2F780FD7E
:1013700004C02197A8F7F12C07C0FC2EB6018C2FD2
:101380000E94B6100197A9F38F2DDF91CF911F9185
:101390000F91FF90DF90CF900895CF93DF93EC01F2
:1013A0000E94A009BE010E94B610DF91CF9108955E
:1013B0001F93CF93DF93EB0190919901992321F033
:1013C000CB010E94CD0913C0882349F0CB010E94B4
:1013D000A009182F682FCE010E94490904C0CB0133
:1013E0000E947409182FBE01812F0E94B610DF9150
:1013F000CF911F9108951F93CF93DF93C091BA01AE
:1014000016E08091BB01C81799F0D0E01C9FF00155
:101410001D9FF00D1124E454FE4F408151816281E3
:101420007381848195810E94D7082196C770E9CF86
:10143000DF91CF911F9108954091EC015091ED0102
:101440006091EE017091EF018091F0019091F101B6
:101450000C94D708EF92FF920F931F93CF93DF93D3
:101460008091F10182958F7009F065C08091EE0145
:10147000882309F460C08091BA01F090BB011091FB
:10148000EC010091ED016091EF017091F00191E0AC
:101490001F3F09F090E0C0910001D0910101292F78
:1014A00096E0E92E8F1509F446C06115710521F00B
:1014B0000F3F21F030E003C031E001C0322F90E057
:1014C00030FD36C0E89EF001E99EF00D1124DF01E9
:1014D000A454BE4F11963C911197301329C03C91F2
:1014E000311326C012963C911297311121C01396E8
:1014F0004D915C911497461B570B4C175D07C0F438
:101500008091F1018F7080618093F101EF53FE4F64
:1015100080818F70806180838CEE91E00E945908F9
:10152000DF91CF911F910F91FF90EF900C94FB09E9
:1015300001968770B7CFDF91CF911F910F91FF90E8
:10154000EF9008959F92AF92BF92CF92DF92EF9269
:10155000FF920F931F93CF93DF93CDB7DEB76197C1
:101560000FB6F894DEBF0FBECDBF8C0185E0F80149
:10157000DE011D9601900D928A95E1F7D801129631
:10158000EC909091EC01E091ED012091EF01309110
:10159000F0012115310531F0EF3F31F481E09F3F3B
:1015A00019F403C081E001C080E0B82FB1709B2E18
:1015B00080FD47C1D8014C9111965C91119713960B
:1015C000AD90BC9014978CEEC82E81E0D82EF09090
:1015D000EE01B501621B730B2091000130910101F6
:1015E000FF2009F4D9C08091F1016217730708F058
:1015F00095C0282F207F09F052C05E1313C04913F5
:1016000011C0FE2CE1100EC08F7080618093F1013B
:101610000E941C0AC6010E9459088091F101F8013C
:1016200085834DC1AB2831F05F3F31F481E04F3FFE
:1016300019F403C081E001C080E080FD03C081E0B7
:101640008E2502C080E090E0F82FF170FF2E80FF21
:101650001CC08091BA012091BB0136E0821709F4C9
:101660000BC190E0389FF001399FF00D1124E45434
:10167000FE4F6181561306C06081461303C062812C
:10168000E61203C001968770E9CFFE2CEE2009F424
:1016900016C18091F10181608093F10154C05E1305
:1016A00006C0491304C0E11002C0F80199C0C80186
:1016B0000E94C008882361F1EE2051F12091F101D0
:1016C000822F82958F7090E0029774F08091EC01E8
:1016D0009091ED0198878F831986BB86AA862C8707
:1016E000CE0107960E94590886E0F801ACEEB1E001
:1016F00001900D928A95E1F70E942A0A0E941C0A25
:101700000AC05E1711F1C8010E94C00881112CC0E7
:10171000C8010E945908FF24F394D1C0282F207FCC
:1017200081F77A2DB98AA88A6E2D89890E94C80806
:101730008CEE91E00E94590886E0D6011D928A95B0
:10174000E9F70E941C0AF12CBAC04913DCCFE11062
:10175000DACFF8018583C8010E94590886E0D601D6
:101760001D928A95E9F7ABC0EE2091F22091F1012C
:10177000822F82958F7090E002970CF4B5CF809104
:10178000EC019091ED019A8389831B82BD82AC822A
:101790002E83CE010196A6CF6217730708F044C0CE
:1017A000FE2CEE2009F4B4CF5E1330C049132EC0D6
:1017B0002091F10120FD21C0822F82958F70482F4A
:1017C00050E041155105C9F0F80125834F3051050E
:1017D00041F08F5F982F9295907F822F8F70892B89
:1017E0008583C8010E94590886E0F801ACEEB1E09B
:1017F00001900D928A95E1F73CC086E0F801ACEECD
:10180000B1E001900D928A95E1F759C0C8010E949C
:10181000C008811169CF8091F10181608093F1014D
:10182000C8010E9459084BC07A2DB98AA88A6E2D2A
:1018300089890E94C80886E0D6011D928A95E9F739
:1018400018C0EE2009F464CFC8010E94C008F82E29
:10185000882309F45DCF86E0F801ACEEB1E0019099
:101860000D928A95E1F78CEE91E00E9417050E9497
:101870002A0A0E941C0A23C04D875E878D859E859B
:101880000E94CD09292F22952F70223028F49F70B5
:1018900039F0811105C00BC0243028F49F7049F441
:1018A000805E883020F0C8010E9459089F2CF92CD6
:1018B00006C0D80115969C91907F91F7F8CF8F2D97
:1018C00061960FB6F894DEBF0FBECDBFDF91CF910A
:1018D0001F910F91FF90EF90DF90CF90BF90AF904E
:1018E0009F9008951F93CF93DF93CDB7DEB72C97CA
:1018F0000FB6F894DEBF0FBECDBF4F835887698700
:101900007A878B879C87CE0107960E94A20A88233C
:10191000D1F09F8188852A853B85232B31F08F3F2D
:1019200031F481E09F3F19F403C081E001C080E001
:1019300080FD47C04F81588569857A858B859C8558
:101940000E94D7083EC086E0FE013796DE01119660
:1019500001900D928A95E1F7FF81E8856A857B8584
:101960006115710531F0EF3F31F481E0FF3F19F46B
:1019700003C081E001C080E080FD23C02091BB0155
:1019800030E0C9010196877099274091BA0150E073
:1019900084179507F1F1F983EA837D836C8396E0E0
:1019A000929FD001939FB00D1124A454BE4FFE010D
:1019B000319601900D929A95E1F78093BB010E94B8
:1019C000FB0916E08091BA019091BB01891771F172
:1019D000189FC001112484549E4F0E94A20A88239C
:1019E00029F1E091BA011E9FF0011124E454FE4F49
:1019F0004081518162817381848195810E94D708E1
:101A00008091BA0190E00196877099278093BA017E
:101A1000D9CF0E94A1081092BB011092BA01ECEE3E
:101A2000F1E086E0DF011D928A95E9F72C960FB66A
:101A3000F894DEBF0FBECDBFDF91CF911F91089507
:101A40008091FA0185958595859508958091FA0193
:101A5000877008959091FA01977081E009F480E011
:101A6000089580910502089590910502892B809335
:101A700005020895809590910502892380930502BF
:101A8000089510920502089590910402892B809385
:101A900004020895809590910402892380930402A2
:101AA00008951092040208958091FB01089508950D
:101AB0000C94570D0C94580D9091360292FD08C06D
:101AC0009091FB01981721F08093FB010C945A0D23
:101AD00008958091FB01882329F01092FB0180E09A
:101AE0000C945A0D0895CF93DF93E0910201F09189
:101AF0000301809105028083E0910201F0910301CE
:101B0000908180910402892B80838091FB0188233E
:101B100081F0E0910201F09103019081892B808393
:101B200080910201909103010E94C71A81110E94C5
:101B3000690DC0910201D091030148E050E062EFCD
:101B400071E0CE010E94EF23892B69F088E0FE014D
:101B5000A2EFB1E001900D928A95E1F7CE01DF91FD
:101B6000CF910C94901ADF91CF9108950C94570D5A
:101B70009091360292FD10C098E0899F9001112447
:101B8000262B2093FA010E9417098091FA0185956E
:101B9000859585950C94B60D0C9417091092FA0151
:101BA00080E00C94B60D2091FA01809582238093F9
:101BB000FA01982F977099F430E0482F082E000C06
:101BC000550B2417350759F09091360292FD07C046
:101BD0008595859585950E9422090C94CE0D0895D2
:101BE0009091360292FB222720F9281769F080FB9A
:101BF00092F99093360280913502909136020E94BC
:101C00003E0E82E00C94D30D08958091360282FB43
:101C1000882780F991E089270C94F00D81E00C94DD
:101C2000F00D80E00C94F00D6FEF7FEF80E090E01E
:101C30000C94282480E090E00E940424893E9E4F6A
:101C400011F40C942D1580E0089582E090E00C943E
:101C5000FC2383E090E00C94FC23CF9384E090E09D
:101C60000E94FC23C82F82E290E00E94FC232C2FCC
:101C700030E0A901582BCA01CF910895CF93C92F05
:101C8000682F84E090E00E940A246C2F82E290E0AA
:101C9000CF910C940A24AB01BC018FE090E00C942E
:101CA0001C24AB01BC0183E190E00C941C2460E097
:101CB00070E0CB010C94510E60E070E0CB010E940B
:101CC0004B0E0C94570E69EE7EEF80E090E00E9480
:101CD000282460E082E090E00E940A2460E083E033
:101CE00090E00E940A241092B90160E084E090E044
:101CF0000E940A2460E082E290E00E940A2460E0F0
:101D000085E090E00E940A2460E086E090E00E9476
:101D10000A246FEF87E090E00E940A2440E050E040
:101D2000BA0188E090E00E941C2460E08DE090E021
:101D30000E940A2440E050E0BA0188E190E00E944D
:101D40001C2460E087E190E00E940A2440E050E01B
:101D5000BA018CE190E00E941C2460E070E080E217
:101D600090E00E94282440E050E0BA0188E190E031
:101D70000E941C2480E00E9446150E9479150C9454
:101D80005C0E0C94630E682F8EE090E00C940A2495
:101D90000E94BC1B6093140270931502809316027C
:101DA00090931702609310027093110280931202B5
:101DB00090931302089585B7806885BF85B78068C2
:101DC00085BF089581E008950C94E20E08950C9467
:101DD000E60E0C94E60E0C94E90E0C94E60E0C94B0
:101DE000ED0E0C94E60E0E94DB0E82E991E10E945A
:101DF0007A1A0E94F10E0C94EF0E0E94E70E0C94DA
:101E0000E60E0E94AC110E94B1040C941D150E94B4
:101E1000A71B0E9488150E9487120E94010F0E9432
:101E200056130C94EB0E5F926F927F928F929F925B
:101E3000AF92BF92CF92DF92EF92FF920F931F93D8
:101E4000CF93DF93CDB7DEB72A970FB6F894DEBFF6
:101E50000FBECDBF0E949C12C82E81110E94C80ED9
:101E600036E0832E32E0932E00E010E0502E802FDB
:101E70000E94C6115C01F401619071904F016826C7
:101E8000792661147104B1F40F5F1F4F05301105FD
:101E900069F78FEF89838A831B820E94B01B816060
:101EA000782F9D838C8349815A816B818D810E941B
:101EB000CD043AC08091180281FD0E94CF11D12C2F
:101EC000EE24E394F12CC3018E219F21892B29F16B
:101ED0000E94E40E8823A9F0DE825F82AE20BF203C
:101EE00081E0AB2809F480E088870E94B01B816004
:101EF000782F9A8789874E815F8168858A850E94BD
:101F0000CD04000F111FF801EA5FFD4F8081918120
:101F1000E826F926F182E08207C0D394EE0CFF1C7C
:101F2000FFE0DF12D0CFB0CF81E0C11001C080E070
:101F30002A960FB6F894DEBF0FBECDBFDF91CF91CA
:101F40001F910F91FF90EF90DF90CF90BF90AF90D7
:101F50009F908F907F906F905F9008950E94130FD5
:101F60000E941C150C94C204CF93DF930E94BB10F7
:101F7000EC01811522E59207E8F5811531E593071B
:101F800008F0B6C0883E910528F5803E910508F01E
:101F9000E9C0883A910570F4853A910508F07AC055
:101FA0008130910509F473C008F4D9C0049708F092
:101FB000D9C0D5C08F3B910508F0D1C0C85AD0E038
:101FC000CC0FDD1FCE5BDE4F0990D881C02DCE0136
:101FD0009464C9C0811540E5940708F069C0811573
:101FE00050E4950708F060C09A9581159F4108F468
:101FF000B9C0B5C0811536E5930728F5811545E5CB
:10200000940708F092C0811554E5950708F087C041
:10201000AC0143705527282F26952695C115D34529
:1020200008F06CC081E090E002C0880F991F4A95CB
:10203000E2F740E2249F90011124EC01C22BD32B44
:10204000CE019C6890C081152AE5920780F4811525
:1020500039E5930708F072C0811548E5940708F444
:102060007EC0D82FCC27CE01806F906A7CC090565E
:102070008115904208F073C08D2F8F710E944F110F
:10208000DD27D0628F71AE01582BCA016CC081E090
:1020900090E069C0C55AD0E0C059DE4F8881C82F92
:1020A000D0E0CE0190645FC0DF70CE01906A5BC06B
:1020B00074E0969587957A95E1F7282F23703C2F49
:1020C000337081E090E002C0880F991F3A95E2F7E3
:1020D0009C68AC01522B9A019C2F9F709695969507
:1020E00050E2959FE0011124C9018C2B9D2B3BC030
:1020F000D82FCC27CE01816F906A35C081E090E067
:1021000002C0880F991F4A95E2F750E2259F90017F
:102110001124EC01C22BD32BCE019A6824C0D82FF6
:10212000CC27CE01846F906A1EC00E944F118F7120
:1021300090E0D82FCC27CE01906215C08F700E94FE
:102140004F1194E0D695C7959A95E1F7CF70D0E0FE
:10215000DC2FCC27D0699E01282BC90104C080E068
:1021600090E001C0CE01DF91CF9108950E94C21886
:102170000E94B40F08958238910569F1B0F481335B
:10218000910509F46DC048F48932910509F463C0E2
:102190008A32910509F469C008958533910509F4DF
:1021A00055C089339105B9F00895833E910569F1D1
:1021B00038F4803E9105B1F0823E910509F1089511
:1021C000863E9105A9F1873E9105B9F1843E9105BE
:1021D00009F064C023C02091350220FD4FC021FDCD
:1021E0004DC008958091350280FD44C08091360233
:1021F00080FF44C08091350284FD42C083EE4DC013
:102200008091350282FF38C0F5CF8091350282FD82
:1022100033C08091360280FD31C0ECCF8091360210
:1022200081FF32C08091350284FD2AC087EE35C01F
:102230008091350283FF26C0F5CF8091350283FD62
:1022400021C08091360281FD1FC0ECCF8091350204
:1022500085FD1CC01DC08091350285FD19C016C0CA
:102260008091350286FD16C017C08091350286FD2B
:1022700013C010C089E311C082EE0FC080EE0DC004
:1022800080E00BC086EE09C084EE07C089E205C07D
:1022900085E303C08AE201C081E390E00895909154
:1022A000350292FF0DC0282F2871283019F4877F3E
:1022B000846006C0282F2471243011F48B7F88603D
:1022C00093FF0DC0282F2871283119F4877E84616F
:1022D00006C0282F2471243111F48B7E886120914F
:1022E000360220FF0DC0382F3871383019F4877F3F
:1022F000816006C0382F3171313011F48E7F8860D3
:1023000021FF0DC0282F2871283119F4877E8161A3
:1023100006C0282F2171213111F48E7E886194FD31
:10232000877E089580E008950C94140E0E949C12FC
:102330008FE39CE90197F1F700C000000E949C1216
:1023400080E00E94C61180FF04C00E9494110C948A
:10235000FD1B08950C9496110E941A0E811102C063
:102360000E94C10E0E94250E809318020E942D0E1D
:1023700090933602809335020E94AA110E94290E82
:102380000E94F3088091B8010C940409E82FF0E052
:10239000EE0FFF1FEF5BFD4F80819181089508953F
:1023A00080EA8A95F1F7089500C008950C94D01141
:1023B00008950C94D8110C94D9110C94D8110C9444
:1023C000DD11F894E82FE295EF70F0E031A1282FAD
:1023D0002F7081E090E001C0880F2A95EAF7982FCE
:1023E0009095932391A392A1892B82A37894089529
:1023F0000F931F93CF93DF93C2E8D1E089918F3F72
:1024000011F00E94E11181E0C738D807B9F7C3E79E
:10241000D1E002E811E089918F3F11F00E94E111B3
:102420000C171D07C1F7DF91CF911F910F910895F0
:10243000BF92CF92DF92EF92FF920F931F93CF93B1
:10244000DF938C01C62FD0E0CE018E579E4F6C01DA
:10245000FC0190819F3F09F450C0B62EF894E92FFB
:10246000E295EF70F0E081A19F7021E030E001C0C3
:10247000220F9A95EAF7822B81A382A12095282327
:1024800022A378940E94D411E3E7F1E042E851E0FE
:1024900021E030E0E12CF12C61916F3F89F0A62F13
:1024A000A295AF70B0E090968C9190E06F7002C0F2
:1024B000959587956A95E2F780FD02C0C90102C033
:1024C00080E090E0E82AF92A220F331F4E175F07B9
:1024D00019F7F60180818F3F11F00E94E11161E050
:1024E000E114F10409F460E08B2D0E94D611CC0FA9
:1024F000DD1FC00FD11FF982E882DF91CF911F91BC
:102500000F91FF90EF90DF90CF90BF9008950E94C1
:10251000F8118AE0E1E4F2E0DF01982F1D929A952C
:10252000E9F7E7E3F2E0DF011D928A95E9F785E03C
:102530000E94E7120C945703FF920F931F93CF93BF
:10254000DF93CDB7DEB72A970FB6F894DEBF0FBE84
:10255000CDBF8E010F5F1F4F8AE0F80111928A955F
:10256000E9F7F12C6F2DC8010E941812F394F5E0E1
:10257000FF12F8CF4AE050E0B80187E392E00E94F2
:10258000EF23FF24F394009709F4F12C892B41F0F9
:102590008AE0F801A7E3B2E001900D928A95E1F795
:1025A0002F2D45E061E472E087E392E00E94E8129B
:1025B0000E9459038F2D2A960FB6F894DEBF0FBEE6
:1025C000CDBFDF91CF911F910F91FF900895089596
:1025D000FF920F931F93CF93DF93F82E092F162F9F
:1025E000D72FC42F222349F081E080931B020E9441
:1025F000B01B90931A028093190280911B028823CA
:10260000D9F08091190290911A020E94C81B059777
:1026100098F0EF2DF02FA12FBD2F80E090E04C2FF0
:1026200050E08417950734F4219131912D933D9317
:102630000196F7CF10921B02DF91CF911F910F915E
:10264000FF9008950E94C81D0E94070F0C94D41D8E
:102650000E94D81D0E94AE0F0C94F21D0E944E1BCA
:102660000E94AF1D0E94F30E0E9422130E942813A5
:102670000E94FD0EFBCF86E090E00C94FC23682FB7
:1026800086E090E00C940A2480914B020C943F1356
:1026900080914B028470896180934B020C943F13AC
:1026A00080914B0286958695869508950E941A0E14
:1026B000811104C00E94C10E0E9448130E943B1366
:1026C00080934B02282F26952695269530E02430BE
:1026D000310524F08770886180934B0280914B0212
:1026E00080FF04C086958695869501C080E00C9495
:1026F000671420914B02822F869586958695482FE8
:1027000050E04330510554F48F5F982F990F990F83
:10271000990F822F8770892B80934B0280914B02F7
:10272000816080934B020E943F1380914B028695FB
:10273000869586950C94671480914B02982F9695F8
:1027400096959695A1F0915E990F990F990F8770C4
:10275000892B80934B02887F91E009F490E080916F
:102760004B0290FB80F980934B020E943F138091B3
:102770004B028695869586950C94671480914B0242
:1027800080FD13C0816080934B02813019F489E091
:1027900080934B0280914B020E943F1380914B0229
:1027A0008695869586950C946714089580914B02C2
:1027B00080FF08C08E7F80934B020E943F1380E011
:1027C0000C946714089580914B0280FD0C94D613ED
:1027D0000C94BE1390914B02892F86958695869511
:1027E0008F5F8F719770843038F4880F880F880F4F
:1027F000892B80934B0202C090934B0280914B0235
:10280000887F91E009F490E080914B0290FB80F981
:1028100080934B020E943F1380914B0286958695D0
:1028200086950C946714843008F083E090914B02F5
:102830009770282F220F220F220F922B90934B027A
:10284000987F21E009F420E090914B0220FB90F961
:1028500090934B020C9467140E94131480914B02C6
:102860000C943F139C01FB018281882349F12D3B8D
:10287000FCE53F07C9F040F42B3BECE53E0769F06F
:102880002C3B3C4561F008952F3B9CE5390791F0C6
:1028900070F0203C3C4589F0089583E001C080E061
:1028A0000E942C1480E008950E949C13FBCF0E948C
:1028B0007913F8CF0E94E313F5CF0E94EA13F2CF09
:1028C00081E00895279A2F9808952F9808958F9260
:1028D0009F92AF92BF92CF92DF92EF92FF920F93AF
:1028E0001F93CF93DF93C82F843050F4811109C018
:1028F00080918000877F809380000E94651406C0CD
:10290000C3E080918000886080938000A091860061
:10291000B09187002C2F30E00E94D52323E030E0D7
:1029200040E050E00E94A6230027122F232F342FCF
:10293000012F122F232F332780918600909187003B
:102940006CE070E00E9492236017710730F0C801BC
:1029500069E070E00E9492235EC0809186009091B1
:102960008700E0908600F0908700E0918600F0916B
:102970008700C6E0D0E0BE010E949223060F171F19
:10298000211D311D4801590185E0880C991CAA1CA4
:10299000BB1C8A95D1F7C701BE010E9492236F012B
:1029A000E12CF12CA7019601260F371F411D511D67
:1029B000C501B4010E94A62369017A01E091860055
:1029C000F0918700CA01B9010E9482239B01AC01EA
:1029D000DF010E94E4239B01AC01C701B6010E9404
:1029E0008223DC01CB012FE0B695A79597958795BB
:1029F0002A95D1F7009186001091870020E030E001
:102A0000081719072A073B0728F460918600709180
:102A10008700CB01BC0170938D0060938C00DF9127
:102A2000CF911F910F91FF90EF90DF90CF90BF90CB
:102A3000AF909F908F90089508950E9462148AE04D
:102A40008093800089E1809381008FEF9FEF9093C6
:102A50008700809386000C94561383E290E00E94D6
:102A6000FC23823281F484E290E00E94FC238430D3
:102A700051F485E290E00E94FC2391E0813009F05E
:102A800090E0892F01C080E081700895CF93C82F16
:102A9000811102C06FEF01C062E283E290E00E9408
:102AA0000A24C11102C06FEF01C064E084E290E02B
:102AB0000E940A24C11102C06FEF01C061E085E2EB
:102AC00090E0CF910C940A24089586E290E00E9451
:102AD000FC23682F70E080E090E008950895CF9384
:102AE000C62F0E946E156C2F86E290E0CF910C9459
:102AF0000A2480E00E94461560E070E0CB010E944D
:102B00006F150E943D180E941C1981E00C94461517
:102B10000E9464150E9465150E946E150E942D1575
:102B2000811102C00C9479150895CF93FB01C281E5
:102B3000CC23E9F09C0122513F452031310520F49E
:102B400082510E942C190CC08031FFE59F0751F47F
:102B500081E00E94170943E062E081E00E944E0399
:102B6000C0E018C081319F45A9F482E0F2CF8031E6
:102B7000EFE59E0711F481E004C081319F4549F4DF
:102B800082E00E94220943E062E081E00E944E035D
:102B900001C0C1E08C2FCF9108952FEFFC0120835D
:102BA0000895CF93DF93FC012081293029F02A304A
:102BB00079F4FC0111820CC0EC010E945013FFEF6C
:102BC0008F9FC001112463E070E00E94922369830B
:102BD000DF91CF910895FC012081293061F481813A
:102BE000F3E08F9FC00111246FEF70E00E949223E9
:102BF000862F0C9413140895EF92FF920F931F9356
:102C0000CF93DF93EC01062F0196E8814E2F50E021
:102C1000FA013197E331F10508F09AC0EE59FF4F00
:102C20000C94C823198289E056C08981823039F01A
:102C3000833061F0813029F50E94BC1B02C00E94E4
:102C400065159A838B837C836D8384C07E0110E03D
:102C5000812F0E94C611F701928383831F5FF2E0E8
:102C6000EF0EF11C1530A1F775C08981823049F44F
:102C70006A817B818C819D810E94CE230E946F1589
:102C800069C0602FCE010E94CD1564C04B816A815E
:102C900089810E940F189C838D835CC02C813D81AB
:102CA0003227232732274B816A8189810E94281885
:102CB00051C00E943D184EC00E94EB154BC00E94AF
:102CC000D11548C00E94441345C00E94CF1824C0AB
:102CD0000E94D11899838A833DC06B8170E08981FD
:102CE0009A81AE014C5F5F4F9827892798270E94F1
:102CF000D41830C06B8170E089819A81AE014C5F3D
:102D00005F4F9827892798270E94F91823C00E94AF
:102D10001C1920C00E94FC1789831CC06B8170E0C5
:102D200089819A81AE014C5F5F4F98278927982748
:102D30000E947C180FC06B8170E089819A81AE017E
:102D40004C5F5F4F9827892798270E94A01802C0E0
:102D50008FEF8883602FCE01DF91CF911F910F916C
:102D6000FF90EF900C94841CCF93DF93EC01FB0158
:102D70008281882309F43CC1C330FDE5DF0760F49C
:102D8000CA3F9CE5D90788F49E0122503C45243176
:102D9000310508F02EC109C0C136EDE5DE0729F086
:102DA000C53AFDE5DF0709F024C10E942D0E90937E
:102DB000360280933502C1318CE5D80709F4C6C0CC
:102DC00008F042C0C930ECE5DE0709F49BC000F50D
:102DD000C5308CE5D80709F485C078F4C330ECE53C
:102DE000DE0709F478C008F07AC0C230DC4509F08B
:102DF000F5C0809135028160EFC0C7309CE5D907EE
:102E000009F478C008F07AC0809135028061E4C08E
:102E1000CD30FCE5DF0709F487C058F4CB309CE5E2
:102E2000D90709F479C008F07BC080913502886029
:102E30006FC0CF30FCE5DF0709F480C008F082C026
:102E400080913502877FC8C0CD3F9CE5D90709F442
:102E500071C000F5C531FCE5DF0709F485C068F4F1
:102E6000C3319CE5D90709F475C008F095C00E94EC
:102E7000A108809135028F77AFC0CB3FFCE5DF071B
:102E8000A9F108F054C0CA3FDC4509F0A7C0809101
:102E9000360240C0C130EDE5DE0709F489C058F4C0
:102EA000CF3F8CE5D80709F45AC008F069C080917B
:102EB000360282602FC0C136EDE5DE0709F47CC022
:102EC000C53AFDE5DF0709F481C0C230DD4509F0F0
:102ED00085C080E06EC08091350282607DC08091A7
:102EE000350216C080913502886076C08091360226
:102EF00082604FC08091350280626EC08091350241
:102F000080646AC00E94A10880913502806864C014
:102F1000846062C081603DC0809135028E7F5CC05C
:102F2000809135028D7F58C08091350216C0809106
:102F3000360218C0809136028D7F2BC080913502F9
:102F40008F7E4AC0809135028F7D46C080913502C8
:102F50008F7B42C080913502877F8B7F3DC08091FF
:102F600036028D7F8E7F15C08091350282FB22272D
:102F700020F991E0922790FB82F990FB83F92CC015
:102F800080913602982F909591708E7F892B90FBBF
:102F900081F98093360222C00E94A10880913502F7
:102FA00087FB222720F991E0922790FB87F914C034
:102FB00081E00E94C30E12C08091350284FB22275B
:102FC00020F991E0922790FB84F906C080913502A8
:102FD000982F909590FB80F980933502809135026F
:102FE000909136020E943E0E0E94A10880E001C02E
:102FF00081E0DF91CF91089584E0089550E0440F7F
:10300000551F2EE1629F400D511D11249A0166E962
:10301000869F200D311D1124C901879608950F93B5
:103020001F93CF93DF930E94FE178C010E94FC2315
:10303000C82FD0E0DC2FCC27C80101960E94FC23CA
:103040009E01282BC901DF91CF911F910F91089507
:103050000F931F93CF93DF93122F032F0E94FE171E
:10306000EC01602F0E940A24612FCE010196DF91AE
:10307000CF911F910F910C940A24AF92BF92CF92DF
:10308000DF92EF92FF920F931F93CF93DF93A12CC8
:10309000E12CF12CB12C00E010E0C0E0D0E06701A1
:1030A000C00ED11EFE01EE0FFF1FEC0DFD1DE25004
:1030B000FF4F259134914C2F6B2D8A2D0E9428189B
:1030C0002196CF30D10571F7025E1F4FB39485E092
:1030D000B812E3CF86E9E80EF11CA39484E0A812AD
:1030E000D9CFDF91CF911F910F91FF90EF90DF909B
:1030F000CF90BF90AF900895EF92FF920F931F93E0
:10310000CF93DF93EA017A01E60EF71E8C01C80126
:103110008796CE15DF0569F0083522E0120720F406
:103120000E94FC23888301C0188221960F5F1F4FE5
:10313000EECFDF91CF911F910F91FF90EF90089507
:10314000EF92FF920F931F93CF93DF93EA017A01DF
:10315000E60EF71E8C01C8018796CE15DF0559F0E3
:10316000083522E0120718F468810E940A2421968B
:103170000F5F1F4FF0CFDF91CF911F910F91FF9005
:10318000EF900895462F843038F4753028F46F306E
:1031900018F4672F0C940F1880E090E0089580E1F8
:1031A000089581E891E00895EF92FF920F931F93A5
:1031B000CF93DF93EA017A01E60EF71E8C01C80176
:1031C00081589D4FCE15DF0569F0013821E01207C7
:1031D00020F40E94FC23888301C0188221960F5F8F
:1031E0001F4FEDCFDF91CF911F910F91FF90EF9087
:1031F0000895EF92FF920F931F93CF93DF93EA010D
:103200007A01E60EF71E8C01C80181589D4FCE153C
:10321000DF0559F0013821E0120718F468810E9497
:103220000A2421960F5F1F4FEFCFDF91CF911F919F
:103230000F91FF90EF900895CF93DF93CFE7D2E007
:1032400060E0CE010E940A242196C11584E0D807CF
:10325000B9F7DF91CF910895DF92EF92FF920F932C
:103260001F93CF93DF9300D000D0CDB7DEB7F82EF9
:103270008FE08F15E8F18FEF93E00E94FC2381111E
:1032800037C00FE712E0FF2069F0011584E018074E
:1032900079F1C8010E94FC23811101C0FA940F5FEB
:1032A0001F4FF1CF19821A821B821C82DD24D39416
:1032B00078018FEFE81AF80AC8010E94FC2389837D
:1032C0001A828823A9F09FEF980F933058F48A83CD
:1032D000D9820E5F1F4FC7010E94FC238B83882376
:1032E00039F07801CE0101960E94A7048701E0CF52
:1032F0000F900F900F900F90DF91CF911F910F9132
:10330000FF90EF90DF900895CF93DF9386319C4537
:1033100041F5EB010E94310D982F8A812091020125
:1033200030910301882379F09A7A81E009F480E0F2
:1033300080931C02911102C069E201C065E3C901DA
:103340000E94091B0AC080911C02811102C069E21F
:1033500001C065E3C9010E940B1B0E94730D80E050
:1033600001C081E0DF91CF9108950F931F93CF9318
:10337000DF93C42FD22FFC0182818823C9F04093B0
:103380001F020E94B01B90931E0280931D0280E2D8
:103390008C0F883008F057C0C77081E001C0880FDB
:1033A000CA95EAF7DF91CF911F910F910C943E06D9
:1033B00080911F02481330C080911D0290911E021F
:1033C0000E94C81B883C910538F510E21D0FCD17EF
:1033D000B9F080E28C0F883040F4C77081E001C002
:1033E000880FCA95EAF70E944506183028F581E053
:1033F0009D2F977001C0880F9A95EAF70E943E06AC
:10340000802F0E9435061830F0F4D77081E001C09B
:10341000880FDA95EAF70AC080E28C0F883098F4BA
:10342000C77081E001C0880FCA95EAF7DF91CF919C
:103430001F910F910C944506802FDF91CF911F9122
:103440000F910C943506DF91CF911F910F91089544
:103450000F939C01CB01233F4CE5340731F188F4F5
:10346000283DFCE53F07D9F0293D4CE5340779F1CB
:10347000273D3C45A9F506E221EE41EE67ED7CE5EE
:103480002BC0253FFCE53F07E1F0A8F0263F3C4577
:1034900039F507E225EE46EE66EF7CE51DC007E252
:1034A00025EE45EE68ED7CE517C006E221EE40EE24
:1034B00063EF7CE511C007E225EE44EE64EF7CE5A6
:1034C0000BC006E221EE42EE65EF7CE505C008E2A6
:1034D00021E045EE69ED7CE50E94B51980E008C069
:1034E000FC018281882319F010921F0201C081E043
:1034F0000F9108959093970180939601089590936A
:103500002502809324020895E0912402F09125027F
:10351000309721F00190F081E02D099480E008952A
:10352000E0912402F0912502309721F00280F3818E
:10353000E02D09940895209122023091230228174A
:10354000390771F09093230280932202E0912402C4
:10355000F0912502309721F00680F781E02D099443
:10356000089520912002309121022817390771F027
:103570009093210280932002E0912402F091250291
:10358000309721F00084F185E02D09940895FC0125
:10359000329697E080E0915029F021912223D9F3CF
:1035A0008F5FF9CF0895662349F0FC0132960896A3
:1035B0002191621729F0E817F907D1F780E0089503
:1035C00081E008959C01FC0132969FEF80E04191DB
:1035D000461789F09F3F19F4411101C0982F8F5F62
:1035E0008630A9F79F3F39F0F901E90FF11D97FDEA
:1035F000FA956283089508959C012A5F3F4FFC016C
:103600004281461301C01282019682179307B9F7CF
:1036100008950C94E21A0C94FC1A029626E0FC0120
:1036200011922A95E9F7089508950C94141B83E0EC
:10363000809326020C94151B811102C081E001C009
:1036400082E0809326020C94151B0C941C1B81E0D5
:10365000809326020C94151B0C94271B08950C9440
:103660002E1B0C942F1B0C942E1B0C942E1B0C94B5
:103670002E1BCF930E94351B0E949C120E94331B6D
:10368000C0E08C2F0E94C611892B29F4CF5FC53072
:10369000C1F780E001C081E0CF91089508951F92A5
:1036A0000F920FB60F9211248F939F93AF93BF93F6
:1036B00080912702811113C080914C0290914D029C
:1036C000A0914E02B0914F024196A11DB11D809371
:1036D0004C0290934D02A0934E02B0934F02BF91C3
:1036E000AF919F918F910F900FBE0F901F901895E3
:1036F00080915402843031F10E94CB031092270252
:1037000020E488E190E00FB6F894A89580936000DB
:103710000FBE2093600083B7817F846083BF83B72F
:10372000816083BF7894889583B78E7F83BF0FB6FF
:10373000F894A89580916000886180936000109251
:1037400060000FBE08950E94A1080C94D20382E08D
:1037500084BD93E095BD9AEF97BD80936E00089568
:103760002FB7F89480914C0290914D02A0914E0297
:10377000B0914F022FBF08952FB7F89460914C027B
:1037800070914D0280914E0290914F022FBF08958B
:103790009C014FB7F89480914C0290914D02A091FA
:1037A0004E02B0914F024FBF821B930B0895789445
:1037B0001F920F920FB60F9211248F939F93AF9386
:1037C000BF9380914C0290914D02A0914E02B09116
:1037D0004F020196A11DB11D80934C0290934D02A2
:1037E000A0934E02B0934F02BF91AF919F918F91E2
:1037F0000F900FBE0F901F90189581E08093E0000E
:1038000080E28093D8001092C9008FE19EE4019776
:10381000F1F700C0000087E090EBDC0180935D02CF
:1038200090935E02A0935F02B09360029CE088E1F7
:103830000FB6F894A895809360000FBE9093600037
:10384000FFCF8091330208950895CF93DF9321E055
:103850002093E9002FEF3091E800215035FD06C09C
:1038600035ED3A95F1F700002111F5CF2091E800F0
:1038700025FF14C0EC0140E050E068E070E00E94D9
:10388000991E8091E8008E778093E80088E0FE0121
:10389000ABE2B2E001900D928A95E1F7DF91CF9112
:1038A00008958093280270932A02609329028091E0
:1038B00054028430F9F48093E9008FEF9091E8008E
:1038C000815095FD06C095ED9A95F1F700008111A4
:1038D000F5CF8091E80085FF0DC040E050E063E047
:1038E00070E088E292E00E94991E8091E8008E7755
:1038F0008093E8000895BC0184E00C94511CBC0145
:1039000083E00C94511C0895CF93603219F52091F7
:1039100054022430F9F4C091E900CF703091EC00EA
:10392000232F217030FD20E8C22B22E02093E900F4
:103930002091E80020FF0BC040E050E060E270E022
:103940000E94991E8091E8008E778093E800CF70E6
:10395000C093E900CF91089580915302811109C06D
:103960000E9475200E94D2208091E20084608093A2
:10397000E20008951092530208950C942C1B60915C
:10398000500281E0611101C080E00C94171B9091FE
:10399000540281E0943009F080E0609150020C9470
:1039A0001C1B42E061EC81E00E94EE1F42E261ECF0
:1039B00084E00E94EE1F42E261EC82E00E94EE1F72
:1039C00042E260EC83E00E94EE1F9091540281E09D
:1039D000943009F080E0609150020C94251B809196
:1039E0005602833009F463C030F4813071F08230C4
:1039F00009F49CC008958A3009F488C08B3009F41A
:103A00006EC0893009F0AAC020C080915502813A69
:103A100009F0A4C08091E800877F8093E80080913E
:103A2000590290915A02892B21F468E08BE292E0CE
:103A300003C060E080E090E070E00E942F1F809162
:103A4000E8008B778093E8000895809155028132D9
:103A500009F084C08091590290915A02009719F0A0
:103A6000029709F07BC08091E800877F8093E8008F
:103A70008091E80082FD05C0809154028111F8CF49
:103A80006DC02091F3008091F20090E0922B02979C
:103A900031F48091F100813011F0863021F4809171
:103AA000F100809333028091E8008B7753C08091BE
:103AB0005502813A09F052C08091590290915A0200
:103AC000892B09F04BC08091E800877F8093E80044
:103AD0008091E80080FFFCCF8091100136C080917A
:103AE00055028132D9F58091590290915A02892B61
:103AF000A9F58091E800877F8093E8000E94232049
:103B000080915702809310010C94A1088091550276
:103B1000813221F58091E800877F8093E8000E9440
:103B20002320809158028093340208958091550299
:103B3000813AA1F48091E800877F8093E80080912A
:103B4000E80080FFFCCF809134028093F1008091E7
:103B5000E8008E778093E8000C942320089584B7C2
:103B6000877F84BF0FB6F894A89580916000886124
:103B700080936000109260000FBE90E080E80FB666
:103B8000F89480936100909361000FBE0C94271B02
:103B90000E9475200E94D220E2EEF0E080818460D5
:103BA000808378940C94672384E091E00C947F1ACE
:103BB000809154028530A9F480915402853079F4C3
:103BC0000E94781B809152028823B1F30E94391B16
:103BD000882391F30E94831E0E94A108EDCF0C94CC
:103BE000A31B0895CF93DF93CDB7DEB7A0970FB691
:103BF000F894DEBF0FBECDBF80915402843011F522
:103C000083E08093E9008091E80082FF1BC08091EF
:103C1000E80085FF0AC040E050E060E270E0CE01BD
:103C200001960E94E41E91E001C090E08091E800BE
:103C30008B778093E800992329F060E2CE0101960A
:103C40000E94FC15A0960FB6F894DEBF0FBECDBF44
:103C5000DF91CF9108950C942D1E292F3327233007
:103C60003105C9F060F42130310581F02230310591
:103C700009F041C08BE590E026E434E040C02132F9
:103C80003105E1F02232310531F135C082E190E0B9
:103C900021EA34E034C099278130910549F028F0B9
:103CA000029749F5E6E0F4E005C0E2E4F4E002C082
:103CB000E0E1F4E0849190E09F0121C06330710560
:103CC000D0F4660F771FFB01E057FE4F2081318152
:103CD00089E090E014C06330710568F4FB01EE0FD9
:103CE000FF1FE657FE4F20813181FB01E957FE4F50
:103CF000808190E004C080E090E020E030E0FA01B4
:103D000031832083089580E189BD82E189BD09B4B2
:103D100000FEFDCF8091D8008F7D8093D8008091E8
:103D2000E00082608093E0008091E00081FDFCCFA4
:103D30000895CF92DF92EF92FF920F931F93CF934C
:103D4000DF93EC018B017A010E944220811133C084
:103D5000E114F10439F0F70180819181081B190BFE
:103D6000C80FD91FC12CD12C0115110519F1809153
:103D7000E80085FD16C08091E8008E778093E8000A
:103D8000E114F10449F0F70180819181C80ED91E38
:103D9000D182C08285E00FC00E944220882321F397
:103DA0000AC089918093F10001501109FFEFCF1AE9
:103DB000DF0ADACF80E0DF91CF911F910F91FF9062
:103DC000EF90DF90CF900895CF92DF92EF92FF9225
:103DD0000F931F93CF93DF93EC018B017A010E9425
:103DE0004220811133C0E114F10439F0F7018081E0
:103DF0009181081B190BC80FD91FC12CD12C01159B
:103E0000110519F18091E80085FD16C08091E80048
:103E10008B778093E800E114F10449F0F701808189
:103E20009181C80ED91ED182C08285E00FC00E9448
:103E30004220882321F30AC08091F1008993015028
:103E40001109FFEFCF1ADF0ADACF80E0DF91CF91BF
:103E50001F910F91FF90EF90DF90CF9008952091E8
:103E60005B0230915C022617370748F06115710537
:103E700039F42091E8002E772093E80001C0B901C1
:103E8000FC0120E06115710579F1809154028823CD
:103E9000F1F18530F1F18091E80083FD3CC0809123
:103EA000E80082FD2EC08091E80080FFEBCF2091DA
:103EB000F3008091F20090E0922B6115710551F0B2
:103EC0008830910538F421912093F10061507109F7
:103ED0000196F3CF21E0089709F020E08091E800F7
:103EE0008E778093E800CECF2111CFCF0AC080918A
:103EF0005402882361F0853061F08091E80083FDF1
:103F00000AC08091E80082FFF2CF80E0089582E04D
:103F1000089583E0089581E0089520915B02309137
:103F20005C022617370748F06115710539F42091B6
:103F3000E8002E772093E80001C0B901FC0120E0E1
:103F40006115710591F180915402882309F440C0F4
:103F5000853009F43FC08091E80083FD3DC0809129
:103F6000E80082FD2FC08091E80080FFE9CF20911A
:103F7000F3008091F20090E0922B6115710559F0E9
:103F80008830910540F424912093F10031966150DE
:103F900071090196F2CF21E0089709F020E08091A5
:103FA000E8008E778093E800CBCF2111CCCF0AC0F8
:103FB00080915402882361F0853061F08091E8009F
:103FC00083FD0AC08091E80082FFF2CF80E008956F
:103FD00082E0089583E0089581E00895982F973056
:103FE00068F59093E900981739F07091EC002091F2
:103FF000ED005091F00003C0242F762F50E021FDFA
:1040000002C09F5FECCF3091EB003E7F3093EB001E
:104010003091ED003D7F3093ED003091EB00316049
:104020003093EB007093EC002093ED005093F00080
:104030002091EE0027FDE5CF80E008958F708093FA
:10404000E90081E008958091550287FF11C08091B9
:10405000E80082FD05C0809154028111F8CF11C0A3
:104060008091E8008B770BC080915402882349F03F
:104070008091E80080FFF8CF8091E8008E778093F0
:10408000E80008952091E4003091E50095E6409124
:10409000EC00842F817040FF23C08091E80080FDF8
:1040A0001DC080915402882399F0853099F0809149
:1040B000EB0085FD11C04091E4005091E50024170C
:1040C000350729F3915011F09A01E1CF84E008956A
:1040D00082E0089583E0089581E0089580E00895E6
:1040E0004091E80042FFDDCF08950E94E3200E9446
:1040F000EB20E0EEF0E0808181608083E8EDF0E08D
:1041000080818F77808319BCA7EDB0E08C918E7F82
:104110008C9380818F7E80831092530208950F9339
:104120001F93CF93DF930E94E3200E94EB20C8ED02
:10413000D0E088818F7788838881806888838881B0
:104140008F7D888319BC10925402109250021092F5
:1041500052021092510200EE10E0F80180818B7F34
:10416000808388818160888342E060E080E00E94F3
:10417000EE1FE1EEF0E080818E7F8083E2EEF0E0E2
:10418000808181608083808188608083F801808164
:104190008E7F8083888180618883DF91CF911F919A
:1041A0000F910895E8EDF0E080818F7E8083E7ED48
:1041B000F0E080818160808384E082BF81E0809331
:1041C00053020C948F20E8EDF0E080818E7F808395
:1041D0001092E20008951092DA001092E100089522
:1041E0001F920F920FB60F9211242F933F934F936C
:1041F0005F936F937F938F939F93AF93BF93EF934F
:10420000FF938091E10082FF0BC08091E20082FF6A
:1042100007C08091E1008B7F8093E1000E946623BC
:104220008091DA0080FF1FC08091D80080FF1BC002
:104230008091DA008E7F8093DA008091D90080FF30
:104240000DC080E189BD82E189BD09B400FEFDCFCA
:1042500081E0809354020E94AC1C05C019BC1092EE
:1042600054020E94BA1C8091E10080FF19C0809125
:10427000E20080FF15C08091E2008E7F8093E20013
:104280008091E20080618093E2008091D80080629A
:104290008093D80019BC85E0809354020E94BF1C13
:1042A0008091E10084FF30C08091E20084FF2CC047
:1042B00080E189BD82E189BD09B400FEFDCF809116
:1042C000D8008F7D8093D8008091E1008F7E80930D
:1042D000E1008091E2008F7E8093E2008091E20015
:1042E00081608093E20080915002882311F084E085
:1042F00007C08091E30087FD02C081E001C083E038
:10430000809354020E94C71C8091E10083FF29C062
:104310008091E20083FF25C08091E100877F809338
:10432000E10082E080935402109250028091E100FB
:104330008E7F8093E1008091E2008E7F8093E20087
:104340008091E20080618093E20042E060E080E0E2
:104350000E94EE1F8091F00088608093F0000E9420
:10436000BD1CFF91EF91BF91AF919F918F917F9174
:104370006F915F914F913F912F910F900FBE0F90D2
:104380001F9018951F920F920FB60F9211242F9322
:104390003F934F935F936F937F938F939F93AF93CD
:1043A000BF93CF93DF93EF93FF93C091E900CF705A
:1043B0008091EC00D82FD17080FDD0E81092E900F8
:1043C0008091F000877F8093F00078940E9406220D
:1043D0001092E9008091F00088608093F000CD2B6E
:1043E000CF70C093E900FF91EF91DF91CF91BF9122
:1043F000AF919F918F917F916F915F914F913F917D
:104400002F910F900FBE0F901F9018951F93CF9371
:10441000DF93CDB7DEB7AA970FB6F894DEBF0FBE15
:10442000CDBFE5E5F2E08091F100819322E0ED352A
:10443000F207C9F70E94EF1C8091E80083FF2EC1AC
:104440008091550290915602492F50E04A30510513
:1044500008F024C1FA01EB58FF4F0C94C8238038B0
:1044600021F0823809F01AC108C080915102909160
:104470005202992389F082600FC0809159028F7097
:10448000873008F00BC18093E9008091EB0085FB39
:10449000882780F91092E9009091E800977F909327
:1044A000E8008093F1001092F100D1C0282F2D7FF9
:1044B00009F0F4C0882319F0823061F0EFC08091D8
:1044C0005702813009F0EAC0933009F080E0809310
:1044D00052022EC08091570281112AC08091590248
:1044E0008F702FEF280F263008F0D8C08093E90096
:1044F0002091EB0020FF1CC0933021F48091EB0051
:10450000806214C09091EB0090619093EB0021E0E9
:1045100030E0A90102C0440F551F8A95E2F740938D
:10452000EA001092EA008091EB0088608093EB0033
:104530001092E9008091E800877F8093E8000E9454
:104540002320ACC08111AAC0109157021F7780911F
:10455000E3008078812B8093E3008091E800877FDF
:104560008093E8000E9423208091E80080FFFCCF28
:104570008091E30080688093E300111102C082E023
:1045800001C083E08093540289C08058823008F0D3
:1045900085C080915702909158028C3D53E0950759
:1045A00079F583E08A838AE289834FB7F894DE0144
:1045B000139620E03EE051E2E32FF0E050935700E5
:1045C000E49120FF03C0E295EF703F5FEF708E2F04
:1045D00090E0EA3010F0C79601C0C0968D939D938D
:1045E0002F5F243149F74FBF8091E800877F809388
:1045F000E8006AE270E0CE0101960E942F1F16C00B
:104600006091590270915A02AE014F5F5F4F0E9454
:104610002B1EBC01892B09F441C09091E800977FC3
:104620009093E80089819A810E948D1F8091E80013
:104630008B778093E80032C0803881F58091E80064
:10464000877F8093E800809150028093F1008091F1
:10465000E8008E7772CF811121C08091570290912E
:10466000580299270297D4F48091E800877F8093BD
:10467000E80080915702809350020E94232080918D
:104680005002811106C08091E30087FD02C081E0E5
:1046900001C084E0809354020E94D11C8091E80004
:1046A00083FF0AC08091E800877F8093E8008091B3
:1046B000EB0080628093EB00AA960FB6F894DEBF01
:1046C0000FBECDBFDF91CF911F9108950895CF9375
:1046D000809154028823A1F0C091E900CF7090919D
:1046E000EC00892F817090FD80E8C82B1092E900C2
:1046F0008091E80083FD0E940622CF70C093E900FC
:10470000CF910895DB018F939F930E94E423BF9183
:10471000AF91A29F800D911DA39F900DB29F900D10
:1047200011240895AA1BBB1B51E107C0AA1FBB1F80
:10473000A617B70710F0A61BB70B881F991F5A952D
:10474000A9F780959095BC01CD010895A1E21A2E9C
:10475000AA1BBB1BFD010DC0AA1FBB1FEE1FFF1F25
:10476000A217B307E407F50720F0A21BB30BE40B75
:10477000F50B661F771F881F991F1A9469F76095BC
:104780007095809590959B01AC01BD01CF01089576
:10479000EE0FFF1F0590F491E02D099469279627ED
:1047A00069277827872778270895A29FB001B39FAC
:1047B000C001A39F700D811D1124911DB29F700D2A
:1047C000811D1124911D08950E94D523A59F900D50
:1047D000B49F900DA49F800D911D11240895FB019D
:1047E000DC0104C08D910190801921F441505040AA
:1047F000C8F7881B990B0895F999FECF92BD81BD2A
:10480000F89A992780B50895A8E1B0E042E050E019
:104810000C943024262FF999FECF92BD81BDF89AD1
:10482000019700B4021639F01FBA20BD0FB6F894F4
:10483000FA9AF99A0FBE08950396272F0E940B2427
:104840000E940A24252F0E940B24242F0C940B2451
:104850000196272F0E940B240C940A24DC01CB0123
:10486000FC01F999FECF06C0F2BDE1BDF89A319680
:1048700000B40D9241505040B8F70895F894FFCF1E
:10488000C800FC01211C251C831C7F1C7B1C241CD4
:1048900001E200E900EA00B500B600B700CD0083F0
:1048A00001CC008A019201940121022302240225F5
:1048B00002260227022A02B300B4006F00700081B2
:1048C0008283E200E900EA00B500B600B700CD003F
:1048D0008301CC008A019201940121022302240267
:1048E0002502260227022A02B300B4006F007000DE
:1048F00081828392939594969734353666673332E6
:104900003031F4F5F6F7914022320705B304D504AF
:064910005804710491043B
:00000001FF
