:100000000C946A020C9487020C9487020C94870269
:100010000C9487020C9487020C9487020C9487023C
:100020000C9487020C9487020C9402290C94D42916
:100030000C9456230C9487020C9487020C9487022C
:100040000C9487020C9487020C9487020C9487020C
:100050000C9487020C94DE230C9487020C94870284
:100060000C9487020C9487020C9487020C948702EC
:100070000C9487020C9487020C9487020C948702DC
:100080000C9487020C9487020C9487020C948702CC
:100090000C9487020C9487020C9487020C948702BC
:1000A0000C9487020C9487020C9487028E068E06AD
:1000B000BA06BA0622074007270827084B07B307E6
:1000C000C407C407A61DA91DC91DDA1DE21DED1D2B
:1000D000F01DF31DF61D3C1E3C1EF91DFC1D011EEE
:1000E0000E1E1B1E1E1E221E2F1E412A682A602B5A
:1000F000682A602BB42AD72A602B2E2B3D2B2B008D
:100100004B0052004E004A004900E00050005100F0
:100110004F004D004C00E100E3002900E2002C43B9
:10012000115029001A00080015001C002A00E000E8
:100130000400070009000B001D01E1001B0019006D
:1001400005002C42160129001400F6004900280081
:100150004C00E0002F0030004E004B001C01E1007D
:100160001350C25C10500100000029000000000084
:10017000C25CAB00A900390053000000C35CAC00B6
:10018000AA00FF5CFA5CDE5C005C1050A800000076
:100190000000000000002A2B2800000000000000E2
:1001A00000000000000000000029000000002C1EDC
:1001B0003420212224342627252E362D3738271E99
:1001C0001F202122232425263333362E37381F04BF
:1001D00005060708090A0B0C0D0E0F101112131457
:1001E00015161718191A1B1C1D2F3130232D350415
:1001F00005060708090A0B0C0D0E0F101112131437
:1002000015161718191A1B1C1D2F3130354C0000FC
:1002100000000000000000000000000000000000DE
:1002200000000000000000000000000000000000CE
:1002300000007E0F00D4FFFFFFC70000007800041D
:10024000643214783C1EFFAA7F554006070C0D0E41
:100250000F10110B0A090800010203040500010137
:100260000101010101010102020202020202020275
:100270000303030303030303040404040404040545
:100280000505050506060606060707070707080809
:100290000808090909090A0A0A0B0B0B0C0C0C0DBA
:1002A0000D0D0E0E0E0F0F0F101011111112121353
:1002B000131414151516161717181819191A1A1BCE
:1002C0001B1C1D1D1E1E1F2020212222232424252D
:1002D0002626272829292A2B2C2D2D2E2F30313266
:1002E00032333435363738393A3B3C3D3E3F404176
:1002F00042434445464748494A4C4D4E4F5051535E
:1003000054555658595A5B5D5E5F61626465666814
:10031000696B6C6D6F7072737577787A7B7D7E8098
:1003200082838587888A8C8E8F91939596989A9CE4
:100330009EA0A2A3A5A7A9ABADAFB1B3B5B7BABCF8
:10034000BEC0C2C4C6C9CBCDCFD1D4D6D8DBDDDFC9
:10035000E2E4E7E9EBEEF0F3F5F8FAFDFF100371E4
:10036000007500690063006B003100370000001465
:1003700003790075007300680061006B006F006214
:10038000006F0000000403090409025B0003010080
:10039000A0FA090400000103010100092111010074
:1003A0000122400007058103080001090401000241
:1003B000030000000921110100012222000705822B
:1003C00003200001070503032000010904020001C6
:1003D00003000000092111010001227B00070584B0
:1003E000032000011201000200000008653206002F
:1003F0000100010200010660FF0961A10109621507
:100400000026FF009520750881020963150026FF6C
:1004100000952075089102C005010902A10185021D
:100420000901A100050919012908150025019508F0
:10043000750181020501093009311581257F950279
:100440007508810609381581257F95017508810693
:10045000050C0A38021581257F950175088106C0B3
:10046000C005010980A101850319012AB700150102
:1004700026B700950175108100C0050C0901A10186
:10048000850419012AA002150126A0029501751004
:100490008100C005010906A101050719E029E7153A
:1004A00000250195087501810295017508810105F6
:1004B00007190029FF150026FF0095067508810021
:1004C0000508190129059505750191029501750326
:1004D0009101C00011241FBECFEFDAE0DEBFCDBF17
:1004E00011E0A0E0B1E0E2E1F9E502C005900D9273
:1004F000AC3CB107D9F722E0ACECB1E001C01D92F1
:10050000A53CB207E1F70E945A130C94872C0C9477
:100510000000809370020895809170020895892BE5
:1005200019F5FB0182818823C9F08091720280FD58
:1005300005C085E394E00E944D0316C00E948C0222
:10054000882329F081E90E949B0580E004C080E9AE
:100550000E949B0581E00E94890206C080E90E94FA
:10056000F10581E90E94F10581E00895CF938111A1
:1005700029C0C62F82E00E944209882331F0CC2393
:1005800011F08FE21DC080E31BC081E00E94420990
:10059000882331F0CC2311F089EA12C08AEA10C016
:1005A00083E00E944209882331F0CC2311F08BEACA
:1005B00007C08CEA05C0CC2311F089EF01C08AEF97
:1005C0000E943C0680E0CF91089585E00E94D61AF3
:1005D00080E00C9489029C013A9521153F4130F549
:1005E000BC0166277270AC01442754709C0122271D
:1005F000387094FF0FC090FF02C080E101C080E01E
:10060000672B09F08062452B09F08064232B79F079
:1006100080680895892F8170672B09F08260452BCF
:1006200009F08460232B19F08860089580E0089514
:10063000CF93DF93EB010E94EB02FE01DF91CF919C
:100640000994CF93DF93EC01805E9109089710F035
:10065000209719F465E476E002C06FE978E0CE01F6
:100660000E9418038C2FDF91CF910C949B05CF93A0
:10067000DF93EC010E94F105CE01805E910908979D
:1006800010F0209719F46CE476E002C066EA78E096
:10069000CE01DF91CF910C941803CF93DF93EC013F
:1006A0000E942103C933D10549F42FEF87EE93E06F
:1006B000215080409040E1F700C00000CE01DF9162
:1006C000CF910C94370381E008950C948F02089524
:1006D0000C9467031F93CF93DF9300D000D01F9239
:1006E000CDB7DEB749835A836B833091CF018981BF
:1006F0009A81311114C0662359F0222349F00E94D7
:10070000DA09182F682F89819A810E94810903C014
:100710000E94AD09182F69817A81812F04C00E943F
:10072000DA0969817A810F900F900F900F900F90E6
:10073000DF91CF911F910C945420FC01262F408112
:1007400051816281738184810C946A0381E00895F0
:10075000CF93DF93EC0160E00E949D03BE01DF9127
:10076000CF910C946803E1E0F0E0DF0102C0AA0F32
:10077000BB1F6A95E2F7BD01DF0102C0AA0FBB1FD4
:100780004A95E2F7AD01462B01C0EE0F2A95EAF734
:10079000942F9823491302C08E2B0895E0958E2341
:1007A0000895242F462F682F8091D9010E94B3030A
:1007B0000C942A090C9429120C94251208950E9475
:1007C000C5080E94DE032FEF84E39CE021508040A7
:1007D0009040E1F700C000000C9404240F931F9395
:1007E000CF93DF938C0161E00E949D03EC01B8017F
:1007F0000E94FE1C882309F44BC0B801CE010E9460
:100800006503882309F444C0B801CE010E94222266
:100810008823F1F1B801CE010E94481E8823C1F15E
:10082000B801CE010E947E21882391F1B801CE014A
:100830000E94AB1B882361F1F8018281882309F1B2
:10084000CA358DE5D807C1F050F4C115FCE5DF07C6
:1008500081F0CE3DDC45A9F40E94FB0E19C0CB35DA
:10086000EDE5DE0761F0CC35DD4559F40E943F0E21
:1008700008C00E94DF030CC00E94480E02C00E9404
:100880004B0EC801DF91CF911F910F910C94630320
:1008900080E0DF91CF911F910F9108950E9439233D
:1008A0000C9439050E943C050C943F23DF92EF9293
:1008B000FF920F931F93CF93DF93E82FF0E0E2575F
:1008C000FE4FD490282F26952695269530E0F901E5
:1008D000E25DFD4F0491877010E0082E02C015956F
:1008E00007950A94E2F701701127F901E25EFD4FC6
:1008F000E490F12C082E02C0F594E7940A94E2F7F4
:1009000091E0E922FF24F901E25FFD4FC491D0E0BC
:1009100002C0D595C7958A95E2F7C170DD2701150C
:10092000110519F081EE0E949B05E114F10419F004
:1009300086EE0E949B058D2D0E943C06EF2819F043
:1009400086EE0E94F105012B19F081EE0E94F1055F
:10095000CD2B51F08CE2DF91CF911F910F91FF9041
:10096000EF90DF900C943C06DF91CF911F910F9197
:10097000FF90EF90DF900895EF92FF920F931F93F7
:10098000CF93DF93EC01162F0AE08881882309F4C6
:1009900055C0813009F043C08981813041F47E0126
:1009A00082E0E80EF11C8A810E943C0609C0823078
:1009B00049F47E01E2E0EE0EF11C8A810E949B0563
:1009C000E7012FC0833041F47E01F2E0EF0EF11C0D
:1009D0008A810E94F105F4CF843011F0219621C064
:1009E0002A81229680E090E030E0205331092A30BD
:1009F000310558F4089FA001099F500D1124C90129
:100A0000840F951F21962881EFCF009751F0EFE9D1
:100A1000FFE03197F1F700C000000197F6CF0E9488
:100A200056042196812F882309F4AFCFEFE9FFE028
:100A30003197F1F700C000008150F5CFDF91CF91E1
:100A40001F910F91FF90EF90089560E00C94BC040B
:100A500008950C94280581E008950C942B050895C1
:100A6000CF93C82F0E9429058C2F0E942D05CF916E
:100A7000089580E00C9430050E947E220C9430058D
:100A80000E947E229091CE01891721F08093CE01A1
:100A90000C9430050895CF93DF93CDB7DEB72B9735
:100AA0000FB6F894DEBF0FBECDBF4F83588769875E
:100AB0007A878B8761110E948B0D9E012F5F3F4FBC
:100AC00086E0F90111928A95E9F785E0FE013796F3
:100AD000D90101900D928A95E1F789819A814C8123
:100AE0005D81452B31F09F3F31F491E08F3F19F448
:100AF00003C091E001C090E090FF09C049815A8194
:100B00006B817C818D819E810E94AC0C05C0C901E6
:100B10000E94A6038111F2CF2B960FB6F894DEBF88
:100B20000FBECDBFDF91CF910895FC0180819181EF
:100B30000E94070A0895CF93882309F450C0C82F54
:100B40008CEF8C0F813AD0F46C2F80910201909140
:100B500003010E94DB22882349F06C2F809102015F
:100B6000909103010E9413230E94AD0D6C2F809180
:100B70000201909103010E9411230CC080E28C0FAE
:100B8000883058F4C77081E001C0880FCA95EAF731
:100B90000E946E0DCF910C94AD0DEBE5EC0FE330A0
:100BA00040F4F0E0E85AFE4F808190E0CF910C9441
:100BB000A322E8E5EC0FE73150F4F0E0EE0FFF1F61
:100BC000E65DFE4F80819181CF910C94B922C03FA8
:100BD00030F08C2F0E94DF13CF910C94B114CF9181
:100BE0000895882389F19CEF980F913A40F4682F7B
:100BF00080910201909103010E9413230DC090E2A5
:100C0000980F983058F4877091E001C0990F8A9539
:100C1000EAF7892F0E94740D0C94AD0D9BE5980F97
:100C2000933020F480E090E00C94A32298E5980F94
:100C3000973120F480E090E00C94B922803F20F0BE
:100C40000E943A140C94B11408951F93CF93DF932C
:100C5000182FEB010E949B05209741F08FE99FE040
:100C60000197F1F700C000002197F6CF812FDF91A7
:100C7000CF911F910C94F105893319F060E070E079
:100C800002C060E570E00C942506882321F00E94E4
:100C90006E0D0C94AD0D0895882321F00E94740D03
:100CA0000C94AD0D0895CF92DF92EF92FF920F93C7
:100CB0001F93CF93DF937C01162FC72FFC01D281A6
:100CC000058102950F700E94640D8823B9F0DD2321
:100CD000A9F08C2F807F803421F080E2810F883052
:100CE00068F08091720282FD09C082E00E940D0EC0
:100CF0000E94640D91E0D82ED92601C0D12CCC2EB3
:100D0000C2948FE0C8228C2D90E08C30910508F0C1
:100D10009EC1FC01EA5AFF4F0C94DE2B8C2F807F82
:100D2000CF70882311F0C295C07FDD2399F0CC23CA
:100D300009F479C180E2810F883010F0111104C0EC
:100D40008C2F0E946E0D03C08C2F0E947E0D0E947E
:100D5000AD0D69C1812F0E94F105CC2309F477C143
:100D600080E2810F883038F1112329F18C2F0E9405
:100D7000840D24C08C2F807FCF70803211F0C295FB
:100D8000C07F112319F01130A1F13DC08091720292
:100D900082FF17C0DD2349F0CC2329F08C2F0E945D
:100DA0006E0D0E94AD0D80E03FC180E00E94F10514
:100DB000CC2309F44CC18C2F0E94740D0E94AD0D00
:100DC00046C1DD2371F0002341F0013031F40E946F
:100DD0008E0D8C2B0E94960D3AC10E948E0D8C2B8D
:100DE0001DC0002319F0013009F431C10E94A30D88
:100DF00025C0DD2321F0063008F029C10EC00530E2
:100E000008F025C11BC0DD2361F0002331F0F7019C
:100E1000858180FF08C18F7085838C2F0E944506D5
:100E200016C1002359F0193309F00EC1FFEF27EE68
:100E300083E0F15020408040E1F704C18C2F0E94F4
:100E40004C0605C18C2F86958695837019F08130EC
:100E500061F0FDC0DD2321F0812F9C2F937002C033
:100E600080E090E00E94A322FAC0DD2321F0812FD0
:100E70009C2F937002C080E090E00E94B922EFC0E6
:100E8000812FDD2319F00E94DF1302C00E943A1463
:100E90000E94B114E4C08C2F837079F5D111DBC0AE
:100EA000412F429546954770440F440F212F2F70D4
:100EB000042E01C0220F0A94EAF714FF08C08FE045
:100EC00090E001C0880F4A95EAF7809501C080E064
:100ED000C695C695C370822BC23049F058F4C13014
:100EE00019F00E941E09B7C00E941909B4C00E94DF
:100EF0002309B1C00E941709AEC0DD2319F08C2F61
:100F0000817001C08695882309F4A5C0412F4295C0
:100F100046954770440F440F212F2F70042E01C0B7
:100F2000220F0A94EAF714FF08C08FE090E001C096
:100F3000880F4A95EAF7809501C080E0C695C6956E
:100F4000C370822BC23049F058F4C13019F00E94AE
:100F5000760981C00E9471097EC00E947B097BC016
:100F60000E942A0978C0CF70DD2339F08C2F0E94AF
:100F70004F09812F0E9445066EC0812F0E944C06AA
:100F80008C2F0E945A0967C0123F21F128F4103FAC
:100F900041F0113FC1F043C0133F19F1143F79F004
:100FA0003EC0DD2341F0053008F051C08C2F8F7119
:100FB0000E9466094CC0063008F049C0F7CF809106
:100FC000720282FF18C0DD2339F08C2F8F710E94CE
:100FD0004F093DC0DD23C9F38C2F8F710E945A0940
:100FE00036C0DD2329F08C2F8F710E9447092FC056
:100FF0000E9430092CC0DD2349F0CF718C2F0E9454
:101000004F0963E08C2F0E94F20D21C081E00E9405
:101010000D0E0230E0F082E00E940D0E18C0DD23BC
:1010200031F0002391F2812F0E949B0510C0002314
:1010300099F2193349F49FEFE7EEF3E09150E04065
:10104000F040E1F700C00000812F0E94F10588EF19
:101050008C0D843020F40E947E220E943005DD2019
:10106000C9F00E94600D80FD15C0F70112820E9438
:101070005A0D0E944F09C7010E946B080E945A0D29
:10108000DF91CF911F910F91FF90EF90DF90CF9064
:101090000C945A09DF91CF911F910F91FF90EF901F
:1010A000DF90CF9008950F931F93CF93DF93EC01C0
:1010B000688179818A810E94120A8C010E948009CC
:1010C0000E940B09B801CE010E945306DF91CF9117
:1010D0001F910F910895CF93DF93EC01988189813F
:1010E0002B813C81232B31F08F3F31F481E09F3FF6
:1010F00019F403C081E001C080E080FD1DC0CE0175
:101100000E94EE03811110C00E94640D8823A1F09B
:101110008A81882389F08091720282FD0DC082E06D
:10112000DF91CF910C940D0ECE010E945308CE0199
:10113000DF91CF910C94A803DF91CF91089588237C
:1011400021F00E947E0D0C94AD0D0895882321F0AE
:101150000E94840D0C94AD0D089580E090E00E94F3
:10116000A32280E090E00E94B9220E948B0D0E9491
:10117000AD0D0E94E2150C94B11480910201909182
:1011800003010E9415230C94AD080E947B0D0C9462
:10119000BD0892959F70963079F010F4925001C07E
:1011A0009A50923068F4803F69F018F4883E40F419
:1011B00009C0843F29F406C0883E20F0813F11F029
:1011C00080E0089581E00895FC01808191810E9472
:1011D000070A0E94C9080895CF93DF9300D000D07A
:1011E0001F92CDB7DEB70F900F900F900F900F901A
:1011F000DF91CF910895CF93DF9300D000D000D03E
:10120000CDB7DEB726960FB6F894DEBF0FBECDBFC2
:10121000DF91CF910895089508950C940C090C94D2
:101220000D090E940F098093DA010C94AD080C940B
:1012300011099091DA01892B0C9411099091DA012E
:1012400089230C9411099091DA0189270C941109D2
:101250000C940C090E9428098093D9010C94AD08C4
:1012600080E00C942A09811105C081E0662349F0D1
:1012700080E0089590E002C0959587956A95E2F721
:1012800081700895682F8091D9010C94330991E001
:1012900001C0990F8A95EAF7892F0C942A0921E059
:1012A00030E001C0220F8A95EAF78091D901822BA4
:1012B0000C942A0921E030E001C0220F8A95EAF758
:1012C00020958091D90182230C942A0921E030E0F5
:1012D00001C0220F8A95EAF78091D90182270C94E8
:1012E0002A099091D901892B0C942A099091D9014E
:1012F00089230C942A099091D90189270C942A09F1
:101300000895292F220F920F990F890FE82FE69544
:10131000E695E695877051E001C0550F8A95EAF78A
:1013200083E0E89FF0011124E053FE4F20E030E01D
:1013300070E04081CB01022E02C0969587950A94F9
:10134000E2F78170819584278523842781932F5F1D
:101350003F4F2330310569F70895292F220F920F4F
:10136000990F890F682F669566956695982F9770E7
:1013700083E0689FB001112440E050E080E0FB0171
:10138000E40FF51FE053FE4F208130E0092E02C02C
:10139000369527950A94E2F721703327042E01C071
:1013A000220F0A94EAF7822B4F5F5F4F43305105BB
:1013B00031F70895CF92DF92FF920F931F93CF934F
:1013C000DF936C010091D9018091DA01082BC7E00D
:1013D000D0E010E0C8010C2E02C0959587950A94C4
:1013E000E2F780FD04C02197A8F7F12C07C0FC2E7E
:1013F000B6018C2F0E9403110197A9F38F2DDF9165
:10140000CF911F910F91FF90DF90CF900895CF93D0
:10141000DF93EC010E94DA09BE010E940311DF9103
:10142000CF9108951F93CF93DF93EB019091CF015C
:10143000992321F0CB010E94070A13C0882349F0A9
:10144000CB010E94DA09182F682FCE010E94810972
:1014500004C0CB010E94AD09182FBE01812F0E944C
:101460000311DF91CF911F9108951F93CF93DF93C5
:10147000C091DB0116E08091DC01C81799F0D0E043
:101480001C9FF0011D9FF00D1124E352FE4F40817F
:10149000518162817381848195810E94FB0821962C
:1014A000C770E9CFDF91CF911F91089540910D0250
:1014B00050910E0260910F02709110028091110202
:1014C000909112020C94FB08EF92FF920F931F93DE
:1014D000CF93DF938091120282958F7009F065C0DF
:1014E00080910F02882309F460C08091DB01F090A5
:1014F000DC0110910D0200910E02609110027091BA
:10150000110291E01F3F09F090E0C0910001D091DD
:101510000101292F96E0E92E8F1509F446C06115C7
:10152000710521F00F3F21F030E003C031E001C030
:10153000322F90E030FD36C0E89EF001E99EF00DBC
:101540001124DF01A352BE4F11963C911197301325
:1015500029C03C91311326C012963C91129731114B
:1015600021C013964D915C911497461B570B4C1755
:101570005D07C0F4809112028F7080618093120227
:10158000EE51FE4F80818F70806180838DE092E00C
:101590000E946B08DF91CF911F910F91FF90EF9008
:1015A0000C94350A01968770B7CFDF91CF911F91C8
:1015B0000F91FF90EF9008959F92AF92BF92CF92BC
:1015C000DF92EF92FF920F931F93CF93DF93CDB7EC
:1015D000DEB761970FB6F894DEBF0FBECDBF8C01AA
:1015E00085E0F801DE011D9601900D928A95E1F7E4
:1015F000D8011296EC9090910D02E0910E0220918C
:101600001002309111022115310531F0EF3F31F414
:1016100081E09F3F19F403C081E001C080E0B82F52
:10162000B1709B2E80FD47C1D8014C9111965C9101
:1016300011971396AD90BC9014978DE0C82E82E060
:10164000D82EF0900F02B501621B730B20910001A0
:1016500030910101FF2009F4D9C080911202621774
:10166000730708F095C0282F207F09F052C05E1341
:1016700013C0491311C0FE2CE1100EC08F708061A1
:10168000809312020E94560AC6010E946B08809144
:101690001202F80185834DC1AB2831F05F3F31F470
:1016A00081E04F3F19F403C081E001C080E080FD7C
:1016B00003C081E08E2502C080E090E0F82FF17039
:1016C000FF2E80FF1CC08091DB012091DC0136E001
:1016D000821709F40BC190E0389FF001399FF00D9B
:1016E0001124E352FE4F6181561306C060814613F8
:1016F00003C06281E61203C001968770E9CFFE2C19
:10170000EE2009F416C180911202816080931202CA
:1017100054C05E1306C0491304C0E11002C0F801B2
:1017200099C0C8010E94E408882361F1EE2051F1BC
:1017300020911202822F82958F7090E0029774F0B0
:1017400080910D0290910E0298878F831986BB8637
:10175000AA862C87CE0107960E946B0886E0F801C6
:10176000ADE0B2E001900D928A95E1F70E94640A23
:101770000E94560A0AC05E1711F1C8010E94E408CF
:1017800081112CC0C8010E946B08FF24F394D1C0C2
:10179000282F207F81F77A2DB98AA88A6E2D898912
:1017A0000E94EC088DE092E00E946B0886E0D60172
:1017B0001D928A95E9F70E94560AF12CBAC0491386
:1017C000DCCFE110DACFF8018583C8010E946B08F5
:1017D00086E0D6011D928A95E9F7ABC0EE2091F222
:1017E00020911202822F82958F7090E002970CF464
:1017F000B5CF80910D0290910E029A8389831B824E
:10180000BD82AC822E83CE010196A6CF62177307EC
:1018100008F044C0FE2CEE2009F4B4CF5E1330C0B3
:1018200049132EC02091120220FD21C0822F8295E3
:101830008F70482F50E041155105C9F0F8012583FC
:101840004F30510541F08F5F982F9295907F822FF6
:101850008F70892B8583C8010E946B0886E0F80190
:10186000ADE0B2E001900D928A95E1F73CC086E0D0
:10187000F801ADE0B2E001900D928A95E1F759C010
:10188000C8010E94E408811169CF80911202816031
:1018900080931202C8010E946B084BC07A2DB98A4E
:1018A000A88A6E2D89890E94EC0886E0D6011D92D7
:1018B0008A95E9F718C0EE2009F464CFC8010E94A8
:1018C000E408F82E882309F45DCF86E0F801ADE046
:1018D000B2E001900D928A95E1F78DE092E00E94CE
:1018E00095050E94640A0E94560A23C04D875E87B0
:1018F0008D859E850E94070A292F22952F70223000
:1019000028F49F7039F0811105C00BC0243028F4F1
:101910009F7049F4805E883020F0C8010E946B08F7
:101920009F2CF92C06C0D80115969C91907F91F7B9
:10193000F8CF8F2D61960FB6F894DEBF0FBECDBFE6
:10194000DF91CF911F910F91FF90EF90DF90CF909B
:10195000BF90AF909F9008951F93CF93DF93CDB723
:10196000DEB72C970FB6F894DEBF0FBECDBF4F8306
:10197000588769877A878B879C87CE0107960E9454
:10198000DC0A8823D1F09F8188852A853B85232B1B
:1019900031F08F3F31F481E09F3F19F403C081E0C3
:1019A00001C080E080FD47C04F81588569857A85F8
:1019B0008B859C850E94FB083EC086E0FE01379621
:1019C000DE01119601900D928A95E1F7FF81E8857D
:1019D0006A857B856115710531F0EF3F31F481E057
:1019E000FF3F19F403C081E001C080E080FD23C007
:1019F0002091DC0130E0C901019687709927409160
:101A0000DB0150E084179507F1F1F983EA837D83C8
:101A10006C8396E0929FD001939FB00D1124A35246
:101A2000BE4FFE01319601900D929A95E1F7809399
:101A3000DC010E94350A16E08091DB019091DC0107
:101A4000891771F1189FC001112483529E4F0E9483
:101A5000DC0A882329F1E091DB011E9FF0011124AB
:101A6000E352FE4F4081518162817381848195816F
:101A70000E94FB088091DB0190E001968770992716
:101A80008093DB01D9CF0E94C5081092DC0110922F
:101A9000DB01EDE0F2E086E0DF011D928A95E9F7D7
:101AA0002C960FB6F894DEBF0FBECDBFDF91CF915D
:101AB0001F91089580911B028595859585950895C0
:101AC00080911B028770089590911B02977081E0AE
:101AD00009F480E0089580912602089590912602ED
:101AE000892B809326020895809590912602892360
:101AF000809326020895109226020895909125025F
:101B0000892B809325020895809590912502892341
:101B100080932502089510922502089580911C0259
:101B2000089508950C94910D0C94920D9091720269
:101B300092FD08C090911C02981721F080931C021E
:101B40000C94940D089580911C02882329F0109222
:101B50001C0280E00C94940D0895CF93DF93E091E4
:101B60000201F0910301809126028083E09102013D
:101B7000F0910301908180912502892B80838091CF
:101B80001C02882381F0E0910201F0910301908111
:101B9000892B808380910201909103010E94CF22C2
:101BA00081110E94A30DC0910201D091030148E070
:101BB00050E063E172E0CE010E94322C892B69F083
:101BC00088E0FE01A3E1B2E001900D928A95E1F771
:101BD000CE01DF91CF910C948A22DF91CF910895AD
:101BE0000C94910D9091720292FD10C098E0899F23
:101BF00090011124262B20931B020E944F098091F3
:101C00001B028595859585950C94F00D0C944F09D4
:101C100010921B0280E00C94F00D20911B02809525
:101C2000822380931B02982F977099F430E0482FFD
:101C3000082E000C550B2417350759F090917202AD
:101C400092FD07C08595859585950E945A090C944B
:101C5000080E08959091720292FB222720F928170E
:101C600069F080FB92F990937202809171029091D9
:101C700072020E94780E82E00C940D0E08958091FD
:101C8000720282FB882780F991E089270C942A0E42
:101C900081E00C942A0E80E00C942A0E6FEF7FEF07
:101CA00080E090E00C94712C80E090E00E944D2C3C
:101CB000893E9E4F11F40C94961C80E0089582E0BA
:101CC00090E00C943F2C83E090E00C943F2CCF9359
:101CD00084E090E00E943F2CC82F82E290E00E94B6
:101CE0003F2C2C2F30E0A901582BCA01CF91089529
:101CF000CF93C92F682F84E090E00E94532C6C2F63
:101D000082E290E0CF910C94532CAB01BC018FE0A8
:101D100090E00C94652CAB01BC0183E190E00C9445
:101D2000652C60E070E0CB010C948B0E60E070E0FD
:101D3000CB010E94850E0C94910E69EE7EEF80E03F
:101D400090E00E94712C60E082E090E00E94532CB1
:101D500060E083E090E00E94532C1092DA0160E092
:101D600084E090E00E94532C60E082E290E00E94C8
:101D7000532C60E085E090E00E94532C60E086E008
:101D800090E00E94532C6FEF87E090E00E94532C6C
:101D900040E050E0BA0188E090E00E94652C60E0ED
:101DA0008DE090E00E94532C40E050E0BA0188E1C1
:101DB00090E00E94652C60E087E190E00E94532C47
:101DC00040E050E0BA018CE190E00E94652C60E0B8
:101DD00070E080E290E00E94712C40E050E0BA0197
:101DE00088E190E00E94652C80E00E94AF1C0E9478
:101DF000E21C0C94960E0C949D0E682F8EE090E0E1
:101E00000C94532C0E94C3236093320270933302CC
:101E1000809334029093350260932E0270932F02C8
:101E2000809330029093310208950E94C3236093FF
:101E300032027093330280933402909335026093A0
:101E40002A0270932B0280932C0290932D02089506
:101E500085B7806885BF85B7806885BF089581E0B4
:101E600008950C942F0F08950C94330F0C94E502F1
:101E70000C94330F0C94380F0C94330F0E94280FDE
:101E80008FED91E10E9474220E943C0F0C943A0F56
:101E90000E94340F0C94330F0E94F9110C942F05FB
:101EA0000E94AE230E94F11C0E94BF120E944C0FA0
:101EB0000E94EB1A0E941F210C94360F8F929F9262
:101EC000AF92BF92CF92DF92EF92FF920F931F9348
:101ED000CF93DF93CDB7DEB72A970FB6F894DEBF66
:101EE0000FBECDBF0E94D412982E81110E94020F06
:101EF00087E2A82E82E0B82E00E010E0802E802F2E
:101F00000E941312D82EF501C1905F01C826B1F4CA
:101F10000F5F1F4F0330110589F78FEF89838A8385
:101F20001B820E94B7238160782F9D838C83498117
:101F30005A816B818D810E944B052FC080913602A2
:101F400081FD0E941912E12CFF24F3948C2D8F2126
:101F5000F1F00E94310F882399F0EE828F82DF200A
:101F600081E009F480E088870E94B7238160782FA0
:101F70009A8789874E815F8168858A850E944B0593
:101F8000F801E95DFD4F8081F826F08206C0E394F8
:101F9000FF0CF6E0EF12DACFBBCF81E0911001C069
:101FA00080E02A960FB6F894DEBF0FBECDBFDF915A
:101FB000CF911F910F91FF90EF90DF90CF90BF9046
:101FC000AF909F908F9008950E945E0F0E94261BF5
:101FD0000E94312181110E94150F0E94CF140C9490
:101FE0004005CF93DF930E940811EC01811521E594
:101FF000920708F045C0811530E5930708F094C0BA
:10200000883E910528F5803E910508F0F8C0883A91
:10201000910570F4853A910508F07CC081309105F6
:1020200009F475C008F4E8C0049708F0E8C0E4C0FB
:102030008F3B910508F0E0C0C85AD0E0CC0FDD1FFF
:10204000C55ADE4F0990D881C02DCE019464D8C006
:10205000811540E2940758F4811551E0950708F086
:10206000CEC0803F910508F4C7C09065C9C0C115B6
:1020700080E4D80708F4C0C0DF70CE01906AC0C009
:10208000811525E59207A8F4811534E5930708F03A
:1020900095C0811543E5940708F07BC0811552E592
:1020A000950708F061C0D82FCC27CE01816F906AC8
:1020B000A7C0C11589E5D807A0F4C11528E5D20746
:1020C00008F082C0C11536E5D30708F095C08C2F03
:1020D0000E949C118F7190E0D82FCC27CE01906286
:1020E0008FC0C1154AE5D40708F474C0CE019056DC
:1020F0008115904208F080C08D2F8F710E949C1135
:10210000DD27D0628F71AE01582BCA0179C081E002
:1021100090E076C0C55AD0E0C757DE4F8881C82FFF
:10212000D0E0CE0190646CC074E0969587957A9566
:10213000E1F7282F23703C2F337081E090E002C03C
:10214000880F991F3A95E2F79C68AC01522B9A01CF
:102150009C2F9F709695969550E2959FE0011124D3
:10216000C9018C2B9D2B4CC08370992721E030E056
:1021700002C0220F331F8A95E2F79C2F9695969501
:1021800080E2989FE0011124C22BD32BCE019C68E2
:1021900037C08370992721E030E002C0220F331F3F
:1021A0008A95E2F79C2F9695969540E2949FE001E0
:1021B0001124C22BD32BCE019A6822C0D82FCC2752
:1021C000CE01846F906A1CC0DC2FCC27CE01806FBB
:1021D000906A16C08C2F8F700E949C1194E0D69547
:1021E000C7959A95E1F7CF70D0E0DC2FCC27D06966
:1021F0009E01282BC90104C080E090E001C0CE01FF
:10220000DF91CF9108950E9454200E94F10F08950C
:102210008238910569F1B0F48133910509F46DC0FC
:1022200048F48932910509F463C08A32910509F4B2
:1022300069C008958533910509F455C08933910526
:10224000B9F00895833E910569F138F4803E910517
:10225000B1F0823E910509F10895863E9105A9F1FC
:10226000873E9105B9F1843E910509F064C023C011
:102270002091710220FD4FC021FD4DC00895809135
:10228000710280FD44C08091720280FF44C0809141
:10229000710284FD42C083EE4DC08091710282FFC5
:1022A00038C0F5CF8091710282FD33C080917202F7
:1022B00080FD31C0ECCF8091720281FF32C08091ED
:1022C000710284FD2AC087EE35C08091710283FFC0
:1022D00026C0F5CF8091710283FD21C080917202EA
:1022E00081FD1FC0ECCF8091710285FD1CC01DC017
:1022F0008091710285FD19C016C08091710286FD22
:1023000016C017C08091710286FD13C010C089E30A
:1023100011C082EE0FC080EE0DC080E00BC086EED3
:1023200009C084EE07C089E205C085E303C08AE2E4
:1023300001C081E390E008959091710292FF0DC079
:10234000282F2871283019F4877F846006C0282F31
:102350002471243011F48B7F886093FF0DC0282FE7
:102360002871283119F4877E846106C0282F2471D2
:10237000243111F48B7E88612091720220FF0DC000
:10238000382F3871383019F4877F816006C0382FB4
:102390003171313011F48E7F886021FF0DC0282FFC
:1023A0002871283119F4877E816106C0282F217198
:1023B000213111F48E7E886194FD877E089580E03E
:1023C00008950C944E0E0E94D4128FE39CE901975D
:1023D000F1F700C000000E94D41280E00E941312A6
:1023E00080FF04C00E94E1110C94042408950C9411
:1023F000E3110E94540E811102C00E94FB0E0E9444
:102400005F0E809336020E94670E90937202809353
:1024100071020E94F7110E94630E0E9417098091B9
:10242000D9010C942809E82FF0E0EA58FD4F80818B
:102430000895089580EA8A95F1F7089500C00895F7
:102440000C941A1208950C9422120C9423120C94DA
:1024500022120C942712F894E82FE295EF70F0E026
:1024600031A1282F2F7081E090E001C0880F2A95BC
:10247000EAF7982F9095932391A392A1892B82A399
:1024800078940895CF93DF9384EF0E942B1283E317
:102490000E942B1286E30E942B12CCE8D1E0899196
:1024A0008F3F11F00E942B1281E0C239D807B9F793
:1024B000DF91CF910895CF92DF92EF92FF920F9329
:1024C0001F93CF93DF938C01C62FD0E0CE018E56A1
:1024D0009E4F7C01FC0190819F3F09F447C0D62E9E
:1024E000F894E92FE295EF70F0E081A19F7021E070
:1024F00030E001C0220F9A95EAF7822B81A382A1D6
:102500002095282322A378940E941E12ECE8F1E083
:1025100042E951E031E0C12C21912F3F89F0A22FF7
:10252000A295AF70B0E090968C9190E02F7002C0B1
:10253000959587952A95E2F780FD02C0832F01C00B
:1025400080E0C82A330F4E175F0731F7F70180810B
:102550008F3F11F00E942B1261E0C11001C060E0BA
:102560008D2D0E942012C00FD11FC882DF91CF9104
:102570001F910F91FF90EF90DF90CF9008950E94F0
:10258000421283E0E6E7F2E0DF01982F1D929A9570
:10259000E9F7E3E7F2E0DF011D928A95E9F783E0CE
:1025A0000E9417130C94DA031F93CF93DF9300D08C
:1025B0001F92CDB7DEB719821A821B8260E0CE016E
:1025C00001960E945B1261E0CE0101960E945B12AF
:1025D00062E0CE0101960E945B1243E050E0BE0132
:1025E0006F5F7F4F83E792E00E94322C11E00097EB
:1025F00009F410E0892B49F089819A81AB8180939D
:10260000730290937402A0937502212F43E066E752
:1026100072E083E792E00E9418130E94DC03812F8E
:102620000F900F900F90DF91CF911F910895089513
:10263000FF920F931F93CF93DF938C01F62ED72F2A
:10264000C42F222349F081E0809339020E94B723EE
:102650009093380280933702809139028823C1F029
:1026600080913702909138020E94CF23059780F025
:10267000EF2DFD2FD8014C2F50E0CD01801B910B89
:10268000841795071CF48D918193F7CF109239022E
:10269000DF91CF911F910F91FF9008950E94DA254D
:1026A0000E94500F0C94E6250E94EA250E94E40F38
:1026B0000C9404260E9455230E94C1250E943E0FBF
:1026C0000E944E130E9454130E94480FFBCF80912A
:1026D000400280FF06C06091090170E0660F771F1D
:1026E00026C081FF04C06091090184E005C082FF1B
:1026F00007C06091090188E0689FB001112417C0EC
:1027000090913F029923D1F060910801961788F7C4
:102710002091090188E0289F90011124929FA00137
:10272000939F500D112470E0CA010E94A82B6038BD
:10273000710540F46115710519F406C068E070E098
:10274000862F08958FE7089581E0089580914002D3
:1027500080FF08C06091050170E0759567957595DB
:10276000679521C081FF06C06091050170E07595F5
:10277000679519C082FF04C06091050170E010C028
:1027800090913E02992399F0609104019617A0F769
:1027900080910501899FC001112470E00E94A82B3F
:1027A0006038710540F46115710519F406C061E0E7
:1027B00070E0862F08958FE7089581E00895803FA7
:1027C00021F40E946713819504C0813F29F40E947F
:1027D0006713809344020895823F21F40E94671397
:1027E000819504C0833F29F40E94671380934302BC
:1027F0000895893F19F40E94A61305C08A3F31F459
:102800000E94A61381958093450208958B3F21F481
:102810000E94A613819504C08C3F29F40E94A61340
:102820008093460208959CE0980F953078F421E05B
:1028300030E0A90102C0440F551F9A95E2F7CA0182
:1028400090914202892B8093420208958D3F21F49A
:102850008091400281600BC08E3F21F48091400244
:10286000826005C08F3F29F480914002846080938C
:1028700040020895803F39F49091440297FF35C09B
:102880001092440259C0813F29F4909144021916D4
:10289000BCF32BC090914302823F29F497FF25C0DF
:1028A0001092430249C0833F19F41916CCF31DC09E
:1028B00090914502893F29F41916BCF41092450203
:1028C0003BC08A3F19F497FF10C0F8CF8B3F39F413
:1028D0009091460297FF09C0109246022DC08C3F8E
:1028E00021F4909146021916BCF39CE0980F9530A4
:1028F00080F421E030E0A90102C0440F551F9A95F1
:10290000E2F7CA01809590914202892380934202A6
:1029100013C08D3F21F4809140028E7F0BC08E3F0B
:1029200021F4809140028D7F05C08F3F29F4809172
:1029300040028B7F8093400280914302811106C048
:1029400080914402811102C010923F0280914502A1
:10295000811106C080914602811102C010923E0290
:1029600008950E94B72320914302211104C02091B1
:102970004402222321F090933D0280933C02209157
:102980004502211104C020914602222321F0909398
:102990003B0280933A0281E492E00C949522EF92FC
:1029A000FF920F931F93CF93DF9300D000D000D0FE
:1029B000CDB7DEB786E0E1E4F2E0DE0111960190EA
:1029C0000D928A95E1F7E0904302F0904402009165
:1029D0004502109146021092430210924402109256
:1029E000450210924602E11003C0FF2009F45DC0C9
:1029F00080913C0290913D020E94CF23AC019091C6
:102A00003F02992339F020910A0130E0241735075D
:102A100058F04BC020910B018AE0289F90011124AF
:102A20002417350718F041C09F3F19F09F5F90931E
:102A30003F02EE2061F00E9467131E1414F09FEF16
:102A400001C091E0989F902D112490934302FF20A4
:102A500061F00E9467131F1414F09FEF01C091E012
:102A6000989F902D11249093440230914302332378
:102A7000E1F0209144022223C1F045EB3403C00170
:102A80001124992319F09093430203C081E08093AD
:102A9000430235EB2303C0011124992319F09093CD
:102AA000440203C081E080934402011103C011235A
:102AB00009F45DC080913A0290913B020E94CF23BD
:102AC000AC0190913E02992339F02091060130E04B
:102AD0002417350758F04BC0209107018AE0289F42
:102AE000900111242417350718F041C09F3F19F0B9
:102AF0009F5F90933E02002361F00E94A613101680
:102B000014F09FEF01C091E0989F902D11249093B5
:102B10004502112361F00E94A613111614F09FEFD5
:102B200001C091E0989F902D11249093460230911E
:102B300045023323E1F0209146022223C1F045EB08
:102B40003403C0011124992319F09093450203C066
:102B500081E08093450235EB2303C00111249923C2
:102B600019F09093460203C081E080934602809161
:102B7000430281110BC080914402811107C08091F2
:102B80004502811103C08091460281110E94B11457
:102B9000EB82FC820D831E8386E0FE013196A1E468
:102BA000B2E001900D928A95E1F726960FB6F8945F
:102BB000DEBF0FBECDBFDF91CF911F910F91FF9070
:102BC000EF900895E1E4F2E086E0DF011D928A953E
:102BD000E9F710923F0210923E02109240020895CF
:102BE000EF92FF920F931F93CF93DF938B01682F88
:102BF00011110AC0442329F0E82FF0E0E35AFD4FF9
:102C00006491762F862F75C0212F30E0E82FF0E0F9
:102C1000442321F0E35AFD4FE491F0E046E0049FA5
:102C2000C0011124CFEFD0E0BE010E94942B4BEAEB
:102C30004603C001479F900D1124800F911D800F06
:102C4000911D982F990F890FAE01421B530B4E9F78
:102C5000D0014F9FB00D5E9FB00D11249B2F189F88
:102C6000A0011124452F55278E01041B150B0E9F23
:102C7000A0010F9F500D1E9F500D11247E01E81AD8
:102C8000F108E29E8001E39E100DF29E100D1124CA
:102C9000212F3327C21BD30BCE9F9001CF9F300D26
:102CA000DE9F300D112462307105A9F048F46115E2
:102CB000710569F061307105C9F48B2F752F0DC056
:102CC0006430710581F058F06630710579F47E2F1B
:102CD0008B2F932F0DC0832F7B2F9E2F09C08E2FFC
:102CE0007B2F952F05C08E2F732F02C07E2F852F2F
:102CF000692FDF91CF911F910F91FF90EF90089571
:102D000041E00E94F015089508950E9480160895EC
:102D1000CF93DF93762FE901682F842F0E948516C9
:102D2000798368838A83DF91CF910895473908F0CA
:102D300046E90C94881680917902282F269530E078
:102D40002115310519F48170826005C027313105E4
:102D500024F081708C628093790280917C028739A3
:102D600018F086E980937C02089588E090E00C9446
:102D7000472CCF92DF92EF92FF926B017C010E9471
:102D80009B16B701A60188E090E0FF90EF90DF90DE
:102D9000CF900C94652C6091790270917A028091A9
:102DA0007B0290917C020C94B916E9E7F2E083E093
:102DB000808311828FEF828386E98383148260810E
:102DC0007181828193810C94B9168091790280FF80
:102DD00002C08695089580E0089590917D02933019
:102DE00018F49F5F90937D02882351F060917902DF
:102DF00070917A0280917B0290917C020C94B916BA
:102E0000089581E00C94ED1690917D02992319F0BC
:102E1000915090937D02882351F0609179027091D6
:102E20007A0280917B0290917C020C94B9160895ED
:102E300081E00C94041780917D02089580937D02B7
:102E4000662351F06091790270917A0280917B0241
:102E500090917C020C94B916089560E00C941E17B2
:102E600080917A02089580917B02089580917C027E
:102E7000089521E030E001C0220F8A95EAF78091A1
:102E80005302282381E009F480E0089570E00C9457
:102E90006B1C8F929F92AF92BF92CF92DF92EF9274
:102EA000FF920F931F93CF93DF93CDB7DEB7E697D3
:102EB0000FB6F894DEBF0FBECDBF90900E0180918B
:102EC0007902982F917080FF08C0A0904802B090BE
:102ED0004902A114B104A9F423C080910F012091EB
:102EE0001001821790F7E82FF0E0AF01440F551F53
:102EF000E40FF51FE258FD4F1182108212828F5F9E
:102F0000F0CF992369F0812C882D0E9439178823EE
:102F100009F444C0F501C590D490C114D10469F4FA
:102F2000EBE4F2E0AE014F5F5F4FBE01695C7F4FA3
:102F3000CA013CC0B5E0CB0ED11C45E050E0B60163
:102F4000CE0101960E941C2C09810F3F39F110E03F
:102F50008A819801280F311DC9012331310514F0F0
:102F600082E190E07C01EE0CFF1C8E0D9F1DDC01C8
:102F7000A258BD4F7D01C801880F991F080F191F66
:102F800002581D4F0E151F05A8F698014D816C8142
:102F90008B810E9496160D5F1F4FF4CF22E0A20E88
:102FA000B11C839438E08312AFCFBACF249130E0C4
:102FB000D901AA0FBB1F2A0F3B1FD901A258BD4F31
:102FC000CD90DD90EC90DA01CD92DD92ED92AD01E5
:102FD00031966A177B0751F720910D01692DB3E0F7
:102FE0002B9F800D911D11240E944617E6960FB667
:102FF000F894DEBF0FBECDBFDF91CF911F910F912F
:10300000FF90EF90DF90CF90BF90AF909F908F9008
:1030100008959091790290FF16C090910F01209130
:103020001001921770F4E92FF0E0DF01AA0FBB1F27
:10303000EA0FFB1FE258FD4F8183608342839F5F4D
:10304000F0CF0C9449170895CF93DF9300D01F92CF
:10305000CDB7DEB79091790290FF0AC09E012F5F35
:103060003F4F0E9496164B8169818A810E94091800
:103070000F900F900F90DF91CF910895CF93DF9332
:10308000EC01E9E7F2E0438162818C810E9424181F
:103090008C818F5F8C83DF91CF9108950F931F9365
:1030A000CF93DF9300D01F92CDB7DEB78C01809114
:1030B000470281110AC09E012F5F3F4F46E96FEF23
:1030C0000E9496168A8180934702F801848181309C
:1030D00051F028F0823061F4409147020AC080919B
:1030E000470240E007C06091470240E080E003C033
:1030F00040E080E060E00E940918F801848190E0DF
:10310000019663E070E00E94A82B84830F900F90DB
:103110000F90DF91CF911F910F910895AF92BF92C1
:10312000CF92DF92EF92FF920F931F93CF93DF9393
:1031300000D01F92CDB7DEB7182FF62E042FE22E47
:103140008091790280FF68C0E82FE695AE2FB0E04D
:10315000AB56BE4F9C91909351028E7F823061F4AA
:103160009E012F5F3F4F812F0E9496164B816981F0
:103170008A810E9409183EC0923019F410917A0297
:1031800039C09530D9F39C30A9F5EC508E2F817061
:10319000D82EE695F0E0EA5BFD4FA590B490C12CE7
:1031A000BB2460911101C61618F52C2D30E0A29EAB
:1031B000C001A39E900DB29E900D112470E00E945C
:1031C000942B812FD11002C0860F01C0861B9091D5
:1031D0000F01290F311DA901440F551F240F351F61
:1031E00022583D4F402F6F2D0E949616C394D9CF81
:1031F0000E94491710937A02F0927B0200937C029E
:10320000EE2051F06091790270917A0280917B02F8
:1032100090917C020E94B9160F900F900F90DF9151
:10322000CF911F910F91FF90EF90DF90CF90BF90C3
:10323000AF900895E9E7F2E09181282F4381628100
:1032400088E0890F0C948E1881E00C941A19E9E734
:10325000F2E09181282F4381628188EF890F0C94DD
:103260008E1881E00C942719E9E7F2E0628128E0EA
:10327000620F08F46FEF282F438181810C948E1820
:1032800081E00C943419E9E7F2E0628128E0621BE6
:1032900008F460E0282F438181810C948E1881E02E
:1032A0000C944319E9E7F2E0438128E0420F08F467
:1032B0004FEF282F628181810C948E1881E00C944D
:1032C0005219E9E7F2E0438128E0421B08F440E0AC
:1032D000282F628181810C948E1881E00C946119F1
:1032E00020E00C948E18FF920F931F93CF93DF93DF
:1032F000EC01F12C0FEF10E060911101F616F0F4E3
:1033000080910F012F2D30E0280F311DC901880F4A
:10331000991F280F391F22583D4F70E0C8010E94A5
:10332000A82B962F8C8140917C0260917B02F99EA4
:10333000800D11240E949616F394DECF0E94491747
:103340009A818C8190FF02C08F5F01C081508C8375
:10335000DF91CF911F910F91FF9008958F929F92CF
:10336000AF92BF92CF92DF92EF92FF920F931F9393
:10337000CF93DF938C01FC014481C42FD0E09E01E8
:10338000DE010E94F32B9B01AC010E94092C6B0112
:103390007C01E0E2F0E0EC1BFD0BA5E5B0E09B0159
:1033A000AC010E94092C4B015C019F01DF010E94CE
:1033B000EB2B9B01AC010E94142C9B01AC012C0D4A
:1033C0003D1D4E1D5F1DC501B4010E94BC2BC22FC7
:1033D000D22F2A3228F4F3E02F9F900111240DC040
:1033E00025E530E02C1B3109C901880F991F280FF2
:1033F000391F37FF02C02F5F3F4F35952795C22FEA
:10340000C095F12C85E5E82EED1A80911101F81692
:10341000C8F4F1FC02C08E2D01C08D2F90910F01D8
:103420002F2D30E0290F311DA901440F551F240F06
:10343000351F22583D4F4C2F60917B020E949616FB
:10344000F394E3CF0E944917F8018481811102C0EF
:1034500091E003C0803219F49FEF90930C0190919A
:103460000C01890FF8018483DF91CF911F910F9197
:10347000FF90EF90DF90CF90BF90AF909F908F9094
:103480000895E9E7F2E080818E7F80836081718119
:10349000828193810E94B916109252022FEF80E729
:1034A00092E0215080409040E1F700C000000C9471
:1034B0004917E9E7F2E080818E7F80831092520203
:1034C0002FEF80E792E0215080409040E1F700C06C
:1034D00000000C94491760917902669570E04BE00A
:1034E00050E082E191E00E94252C892B19F481E0C3
:1034F000809352020E94B72390934B0280934A021A
:1035000008959091790290FF35C09170811102C0A9
:10351000926006C0873110F09C6202C0880F982B21
:1035200090937902662351F06091790270917A024A
:1035300080917B0290917C020E94B9166091790281
:10354000669570E04BE050E082E191E00E94252C0E
:10355000892B19F01092520202C00E946B1A81E06E
:1035600080934D0240917C0260917B0280917A02AF
:103570000C9470190895682F90917902969581E0C6
:10358000890F873108F081E00C94811A81E00C9456
:10359000BB1A682F9091790296958FEF890F09F4E5
:1035A00086E10C94811A81E00C94C91A61E00C94B4
:1035B000811AE9E7F2E080818160808386950C942E
:1035C000D61A8091790280FD0C94411A0C94D91A74
:1035D00060E00C94811A8091500281112EC00E94EB
:1035E000540E811104C00E94FB0E0E94D5160E9449
:1035F000B5166093790270937A0280937B02909360
:103600007C026E7F61F40E94D5160E94B51660930D
:10361000790270937A0280937B0290937C020E94DD
:103620009B16109252028091790280FF03C086950A
:103630000E94E81A81E0809350020895E9E7F2E0E1
:1036400080818160808386950C94E81A0F931F9384
:10365000CF93DF9380915202882309F45CC080915C
:103660005102E0917902E695E81BE0934C0282302A
:1036700049F4F0E0ED5BFD4FE491CE2FD0E00EE396
:1036800018E120C0853051F4E695F0E0E05CFD4F94
:10369000E491CE2FD0E003E719E114C08B3049F05C
:1036A000863161F4EEE3F2E0C591D4910EE418E1C5
:1036B00009C0C8E2D0E00EEA19E104C0C0EDD7E0CD
:1036C00004E816E180914D02882361F010924D02CA
:1036D0000E94B72390934B0280934A0210924F02AC
:1036E00010924E020E94B723E0914A02F0914B02E1
:1036F0008E1B9F0B8F3F9F4770F4CE0FDF1FD09321
:103700004B02C0934A028AE492E0F801DF91CF9124
:103710001F910F910994DF91CF911F910F910895FF
:10372000882311F0FA0101C0FB010994CF93DF93C4
:10373000C82FD62F0E94E5168C1740F00E94E51680
:103740008D1720F4DF91CF910C94C61A8C2FDF9146
:10375000CF910C94D61A1F93CF93DF93FB01128164
:103760001111B4C0EC010E946B0D8272CC3CFCE5DF
:10377000DF0709F494C0A8F5C63CECE5DE0709F4C0
:1037800070C0A8F4C33C9CE5D90709F459C028F4DB
:10379000C23CDC4509F451C04EC0C43C9CE5D9078D
:1037A00009F453C0C53CDC4509F456C044C0C93CCB
:1037B000FCE5DF0709F464C050F4C73CECE5DE0724
:1037C00009F454C0C83CDC4509F455C034C0CA3CB7
:1037D0009CE5D90709F459C0CB3CDC4509F45AC033
:1037E0002AC0C33DFCE5DF07B0F4C13D8CE5D80736
:1037F00008F06CC0CE3C9CE5D90709F467C008F41A
:1038000053C0CF3CFCE5DF0709F450C0C03DDC45A8
:1038100009F44FC010C0C43D9CE5D90709F44EC05F
:1038200008F44AC0C53DFCE5DF0709F44CC0CD35BE
:10383000DD4509F44BC011E049C00E94E11A46C0C1
:1038400043ED5AE166EC7AE104C046EC5AE163EDDF
:103850007AE10E94901B3AC041E359E164E279E1C8
:10386000F8CF44E259E161E379E1F3CF4FE459E164
:1038700060E479E1EECF40E459E16FE479E1E9CF2A
:103880004DE659E16EE579E1E4CF4EE559E16DE6AB
:1038900079E1DFCF48E157E161E077E1DACF41E05C
:1038A00057E168E177E1D5CF81E00EC064E082E0C6
:1038B00007C06AE085E004C08BE006C065E18CE0EB
:1038C0000E94961B03C086E10E94D61A812FDF91C9
:1038D000CF911F910895529A2BB12B7F3BB1346049
:1038E0004FB7F894FC01CB01880F991F680F791F1F
:1038F0006E0F7F1FE617F70789F0819198E03BB9BB
:10390000000000C087FF2BB9880F000000C000C076
:1039100000C02BB900C09A9591F7ECCF4FBF8FE54F
:1039200094E00197F1F700C00000089583E290E071
:103930000E943F2C823281F484E290E00E943F2C6E
:10394000843051F485E290E00E943F2C91E0813078
:1039500009F090E0892F01C080E081700895CF9335
:10396000C82F811102C06FEF01C062E283E290E0D4
:103970000E94532CC11102C06FEF01C064E084E2C9
:1039800090E00E94532CC11102C06FEF01C061E0B2
:1039900085E290E0CF910C94532C089586E290E05C
:1039A0000E943F2C682F70E080E090E00895089519
:1039B000CF93C62F0E94D71C6C2F86E290E0CF9148
:1039C0000C94532C80E00E94AF1C60E070E0CB01AF
:1039D0000E94D81C0E94D11F0E94AE2081E00C944E
:1039E000AF1C0E94CD1C0E94CE1C0E94D71C0E94BE
:1039F000961C811102C00C94E21C0895CF93FB0128
:103A0000C281CC23E9F09C0122513F452031310590
:103A100020F482510E94BE200CC08031FFE59F0738
:103A200051F481E00E944F0943E062E081E00E948E
:103A3000D103C0E018C081319F45A9F482E0F2CFE4
:103A40008031EFE59E0711F481E004C081319F458C
:103A500049F482E00E945A0943E062E081E00E945A
:103A6000D10301C0C1E08C2FCF9108952FEFFC014D
:103A700020830895CF93DF93EC018881813889F00A
:103A800028F48038A1F40E94361710C0823861F003
:103A9000833869F40E94301789830E9433178A8320
:103AA00006C00E94E51602C00E941B178983DF91A1
:103AB000CF910895CF93DF93EC0188818138B1F0E5
:103AC00058F4803851F5D9810E943317C82F0E94CD
:103AD00030174D2F6C2F1DC08238B1F08338E9F4B8
:103AE0000E943617482F6A81898113C089810E94FC
:103AF000E81A8981811104C0DF91CF910C94591A81
:103B0000DF91CF910C941E1B8981DF91CF910C9492
:103B10002D17DF91CF910C947019DF91CF910895FB
:103B2000EF92FF920F931F93CF93DF93EC01062F39
:103B30000196E8814E2F50E0FA013197E331F1050B
:103B400008F09AC0EE59FF4F0C94DE2B198289E0E1
:103B500056C08981823039F0833061F0813029F597
:103B60000E94C32302C00E94CE1C9A838B837C8355
:103B70006D8384C07E0182E0E80EF11C10E0812F8D
:103B80000E941312F70181937F011F5F1330B9F771
:103B900075C08981823049F46A817B818C819D81E5
:103BA0000E94E42B0E94D81C69C0602FCE010E94A5
:103BB000361D64C04B816A8189810E94A31F9C834A
:103BC0008D835CC02C813D813227232732274B8196
:103BD0006A8189810E94BC1F51C00E94D11F4EC0C2
:103BE0000E945A1D4BC00E943A1D48C00E94CB162D
:103BF00045C00E94612024C00E94632099838A836B
:103C00003DC06B8170E089819A81AE014C5F5F4F4E
:103C10009827892798270E94662030C06B8170E022
:103C200089819A81AE014C5F5F4F98278927982739
:103C30000E948B2023C00E94AE2020C00E94901FB3
:103C400089831CC06B8170E089819A81AE014C5FD1
:103C50005F4F9827892798270E9410200FC06B81FB
:103C600070E089819A81AE014C5F5F4F9827892768
:103C700098270E94332002C08FEF8883602FCE01E7
:103C8000DF91CF911F910F91FF90EF900C949624AC
:103C9000CF93DF93EC01FB018281882309F43CC1BF
:103CA000C330FDE5DF0760F4CA3F9CE5D90788F41F
:103CB0009E0122503C452431310508F02EC109C037
:103CC000C136EDE5DE0729F0C53AFDE5DF0709F06D
:103CD00024C10E94670E9093720280937102C131D9
:103CE0008CE5D80709F4C6C008F042C0C930ECE53D
:103CF000DE0709F49BC000F5C5308CE5D80709F450
:103D000085C078F4C330ECE5DE0709F478C008F02C
:103D10007AC0C230DC4509F0F5C080917102816043
:103D2000EFC0C7309CE5D90709F478C008F07AC025
:103D3000809171028061E4C0CD30FCE5DF0709F4B9
:103D400087C058F4CB309CE5D90709F479C008F056
:103D50007BC08091710288606FC0CF30FCE5DF07C7
:103D600009F480C008F082C080917102877FC8C0CA
:103D7000CD3F9CE5D90709F471C000F5C531FCE5DC
:103D8000DF0709F485C068F4C3319CE5D90709F45D
:103D900075C008F095C00E94C508809171028F77A8
:103DA000AFC0CB3FFCE5DF07A9F108F054C0CA3F24
:103DB000DC4509F0A7C08091720240C0C130EDE53A
:103DC000DE0709F489C058F4CF3F8CE5D80709F421
:103DD0005AC008F069C08091720282602FC0C1365B
:103DE000EDE5DE0709F47CC0C53AFDE5DF0709F41F
:103DF00081C0C230DD4509F085C080E06EC0809191
:103E0000710282607DC08091710216C08091710242
:103E1000886076C08091720282604FC0809171028A
:103E200080626EC08091710280646AC00E94C50881
:103E300080917102806864C0846062C081603DC00E
:103E4000809171028E7F5CC0809171028D7F58C01D
:103E50008091710216C08091720218C08091720226
:103E60008D7F2BC0809171028F7E4AC0809171023C
:103E70008F7D46C0809171028F7B42C0809171021C
:103E8000877F8B7F3DC0809172028D7F8E7F15C0B2
:103E90008091710282FB222720F991E0922790FB0A
:103EA00082F990FB83F92CC080917202982F909533
:103EB00091708E7F892B90FB81F98093720222C0D2
:103EC0000E94C5088091710287FB222720F991E0AA
:103ED000922790FB87F914C081E00E94FD0E12C06A
:103EE0008091710284FB222720F991E0922790FBB8
:103EF00084F906C080917102982F909590FB80F90B
:103F00008093710280917102909172020E94780EEA
:103F10000E94C50880E001C081E0DF91CF91089543
:103F200084E0089550E0440F551F2CE0629F400D3F
:103F3000511D11249A0164E2869F200D311D112428
:103F4000C901879608950F931F93CF93DF930E9423
:103F5000921F8C010E943F2CC82FD0E0DC2FCC2771
:103F6000C80101960E943F2C9E01282BC901DF91B8
:103F7000CF911F910F9108950F931F93CF93DF93CC
:103F8000122F032F0E94921FEC01602F0E94532CCE
:103F9000612FCE010196DF91CF911F910F910C946B
:103FA000532CAF92BF92CF92DF92EF92FF920F937A
:103FB0001F93CF93DF93A12CE12CF12CB12C00E0C7
:103FC00010E0C0E0D0E06701C00ED11EFE01EE0F90
:103FD000FF1FEC0DFD1DE250FF4F259134914C2F3A
:103FE0006B2D8A2D0E94BC1F2196C630D10571F71A
:103FF000045F1F4FB39483E0B812E3CF84E2E80E6E
:10400000F11CA39484E0A812D9CFDF91CF911F9126
:104010000F91FF90EF90DF90CF90BF90AF900895F9
:10402000EF92FF920F931F93CF93DF93EA017A01F0
:10403000E60EF71E8C01C8018796CE15DF0561F0EC
:104040000039110520F40E943F2C888301C018829A
:1040500021960F5F1F4FEFCFDF91CF911F910F91EF
:10406000FF90EF900895EF92FF920F931F93CF93DD
:10407000DF93EA017A01E60EF71E8C01C8018796EC
:10408000CE15DF0551F00039110518F468810E9442
:10409000532C21960F5F1F4FF1CFDF91CF911F91CE
:1040A0000F91FF90EF900895462F843038F47330CD
:1040B00028F4663018F4672F0C94A31F80E090E07A
:1040C000089580E1089589E493E00895EF92FF92C6
:1040D0000F931F93CF93DF93EA017A01E60EF71E49
:1040E0008C01C80189549F4FCE15DF0569F0093452
:1040F00023E0120720F40E943F2C888301C018821D
:1041000021960F5F1F4FEDCFDF91CF911F910F9140
:10411000FF90EF900895EF92FF920F931F93CF932C
:10412000DF93EA017A01E60EF71E8C01C80189547B
:104130009F4FCE15DF0559F0093423E0120718F41C
:1041400068810E94532C21960F5F1F4FEFCFDF91A4
:10415000CF911F910F91FF90EF900895CF93DF9330
:10416000C7EBD0E060E0CE010E94532C2196C11530
:1041700084E0D807B9F7DF91CF910895DF92EF92ED
:10418000FF920F931F93CF93DF9300D000D0CDB752
:10419000DEB7F82E8FE08F15E8F18FEF93E00E94E5
:1041A0003F2C811137C007EB10E0FF2069F00115AB
:1041B00084E0180779F1C8010E943F2C811101C0E9
:1041C000FA940F5F1F4FF1CF19821A821B821C8253
:1041D000DD24D39478018FEFE81AF80AC8010E9411
:1041E0003F2C89831A828823A9F09FEF980F933080
:1041F00058F48A83D9820E5F1F4FC7010E943F2C5B
:104200008B83882339F07801CE0101960E94250521
:104210008701E0CF0F900F900F900F90DF91CF911B
:104220001F910F91FF90EF90DF9008958FE891E03C
:104230000197F1F700C0000008950C94B60224988D
:104240002C9A25982D9A0E94162183B1829581700F
:104250001D9902C090E001C092E0892B8093560224
:104260000895E0915602EE0FEE0FE093560243B12F
:1042700044FB882780F990E043B145FB222720F9D1
:1042800030E045FF02C022E030E0822B932B8E2BE2
:10429000809356028F70E82FF0E0E455FE4F908136
:1042A00080915502890F8093550284305CF0809193
:1042B00054028F5F8093540260E080E00E941D21D1
:1042C00021E001C020E0809155028D3F54F480919F
:1042D000540281508093540261E080E00E941D21CD
:1042E00021E080915502082E000C990B64E070E0EB
:1042F0000E94A82B80935502822F0895CF93DF93BD
:1043000086319C4541F5EB010E946B0D982F8A8107
:104310002091020130910301882379F09A7A81E09B
:1043200009F480E080935702911102C069E201C054
:1043300065E3C9010E9411230AC0809157028111CF
:1043400002C069E201C065E3C9010E9413230E9413
:10435000AD0D80E001C081E0DF91CF9108950F9312
:104360001F93CF93DF93C42FD22FFC018281882328
:10437000C9F040935A020E94B72390935902809348
:10438000580280E28C0F883008F057C0C77081E077
:1043900001C0880FCA95EAF7DF91CF911F910F9165
:1043A0000C94450680915A02481330C080915802FF
:1043B000909159020E94CF23883C910538F510E274
:1043C0001D0FCD17B9F080E28C0F883040F4C77014
:1043D00081E001C0880FCA95EAF70E944C061830A8
:1043E00028F581E09D2F977001C0880F9A95EAF714
:1043F0000E944506802F0E943C061830F0F4D770CA
:1044000081E001C0880FDA95EAF70AC080E28C0FDC
:10441000883098F4C77081E001C0880FCA95EAF728
:10442000DF91CF911F910F910C944C06802FDF915B
:10443000CF911F910F910C943C06DF91CF911F916A
:104440000F9108950F939C01CB01233F4CE5340756
:1044500031F188F4283DFCE53F07D9F0293D4CE5D2
:10446000340779F1273D3C45A9F506E221EE41EEFE
:1044700067ED7CE52BC0253FFCE53F07E1F0A8F0A8
:10448000263F3C4539F507E225EE46EE66EF7CE532
:104490001DC007E225EE45EE68ED7CE517C006E29B
:1044A00021EE40EE63EF7CE511C007E225EE44EE1D
:1044B00064EF7CE50BC006E221EE42EE65EF7CE5A1
:1044C00005C008E221E045EE69ED7CE50E94AF21E0
:1044D00080E008C0FC018281882319F010925A0202
:1044E00001C081E00F9108959093CD018093CC019C
:1044F00008959093600280935F020895E0915F02B7
:10450000F0916002309721F00190F081E02D099444
:1045100080E00895E0915F02F0916002309721F011
:104520000280F381E02D09940895E0915F02F091FB
:104530006002309739F022E0DC012C930480F58191
:10454000E02D0994089520915D0230915E022817B4
:10455000390771F090935E0280935D02E0915F02F3
:10456000F0916002309721F00680F781E02D0994E8
:10457000089520915B0230915C022817390771F091
:1045800090935C0280935B02E0915F02F091600285
:10459000309721F00084F185E02D09940895FC0105
:1045A000329697E080E0915029F021912223D9F3AF
:1045B0008F5FF9CF0895662349F0FC013296089683
:1045C0002191621729F0E817F907D1F780E00895E3
:1045D00081E008959C01FC0132969FEF80E04191BB
:1045E000461789F09F3F19F4411101C0982F8F5F42
:1045F0008630A9F79F3F39F0F901E90FF11D97FDCA
:10460000FA956283089508959C012A5F3F4FFC014B
:104610004281461301C01282019682179307B9F7AF
:1046200008950C94EA220C940423029626E0FC01DF
:1046300011922A95E9F7089508950C941C2383E0BC
:10464000809361020C941D23811102C081E001C09E
:1046500082E0809361020C941D230C94242381E05A
:10466000809361020C941D230C942F2308950C94C5
:1046700036230C9437230C9436230C9436230C9455
:104680003623CF930E943D230E94D4120E943B23E5
:10469000C0E08C2F0E941312811104C0CF5FC33081
:1046A000C1F701C081E0CF91089508951F920F9244
:1046B0000FB60F9211248F939F93AF93BF93809166
:1046C0006202811113C08091B4029091B502A09151
:1046D000B602B091B7024196A11DB11D8093B402FC
:1046E0009093B502A093B602B093B702BF91AF9179
:1046F0009F918F910F900FBE0F901F9018958091F2
:10470000BC02843031F10E944E041092620220E417
:1047100088E190E00FB6F894A895809360000FBEF2
:104720002093600083B7817F846083BF83B78160FB
:1047300083BF7894889583B78E7F83BF0FB6F89434
:10474000A89580916000886180936000109260005D
:104750000FBE08950E94C5080C94520482E084BDE7
:1047600093E095BD9AEF97BD80936E0008952FB7A3
:10477000F8948091B4029091B502A091B602B091E4
:10478000B7022FBF08952FB7F8946091B4027091CB
:10479000B5028091B6029091B7022FBF08959C0197
:1047A0004FB7F8948091B4029091B502A091B602EF
:1047B000B091B7024FBF821B930B089578941F925C
:1047C0000F920FB60F9211248F939F93AF93BF93C5
:1047D0008091B4029091B502A091B602B091B70257
:1047E0000196A11DB11D8093B4029093B502A093D0
:1047F000B602B093B702BF91AF919F918F910F9086
:104800000FBE0F901F90189587E797E790930108C8
:10481000809300089AE088E10FB6F894A8958093F9
:1048200060000FBE90936000FFCF80916E020895EC
:10483000089524E02093E9002FEF3091E800215003
:1048400035FD06C035ED3A95F1F700002111F5CFA1
:104850002091E80025FF0BC040E050E066E070E0EA
:104860000E94AB268091E8008E778093E80008953F
:10487000CF93DF9321E02093E9002FEF3091E80000
:10488000215035FD06C035ED3A95F1F700002111B4
:10489000F5CF2091E80025FF14C0EC0140E050E086
:1048A00068E070E00E94AB268091E8008E778093EC
:1048B000E80088E0FE01A6E6B2E001900D928A953C
:1048C000E1F7DF91CF9108958093630270936502C1
:1048D000609364028091BC028430F9F48093E90013
:1048E0008FEF9091E800815095FD06C095ED9A9567
:1048F000F1F700008111F5CF8091E80085FF0DC030
:1049000040E050E063E070E083E692E00E94AB2676
:104910008091E8008E778093E8000895BC0184E0E0
:104920000C946424BC0183E00C946424CF93603223
:1049300019F52091BC022430F9F4C091E900CF7040
:104940003091EC00232F217030FD20E8C22B22E0B3
:104950002093E9002091E80020FF0BC040E050E0E8
:1049600060E270E00E94AB268091E8008E77809331
:10497000E800CF70C093E900CF9108958091BB0209
:10498000811109C00E9487280E94E4288091E200DA
:1049900084608093E20008951092BB0208950C9405
:1049A00034236091B80281E0611101C080E00C9471
:1049B0001F239091BC0281E0943009F080E0609167
:1049C000B8020C94242342E061EC81E00E940028AC
:1049D00042E261EC84E00E94002842E261EC82E065
:1049E0000E94002842E260EC83E00E94002890913F
:1049F000BC0281E0943009F080E06091B8020C9430
:104A00002D238091BE02833009F463C030F48130DD
:104A100071F0823009F49CC008958A3009F488C08E
:104A20008B3009F46EC0893009F0AAC020C0809193
:104A3000BD02813A09F0A4C08091E800877F80938D
:104A4000E8008091C1029091C202892B21F468E0B4
:104A500086E692E003C060E080E090E070E00E94B3
:104A600041278091E8008B778093E800089580913A
:104A7000BD02813209F084C08091C1029091C202CE
:104A8000009719F0029709F07BC08091E800877FBA
:104A90008093E8008091E80082FD05C08091BC020F
:104AA0008111F8CF6DC02091F3008091F20090E069
:104AB000922B029731F48091F100813011F0863011
:104AC00021F48091F10080936E028091E8008B7751
:104AD00053C08091BD02813A09F052C08091C10259
:104AE0009091C202892B09F04BC08091E800877F2A
:104AF0008093E8008091E80080FFFCCF809129013D
:104B000036C08091BD028132D9F58091C102909169
:104B1000C202892BA9F58091E800877F8093E80085
:104B20000E9435288091BF02809329010C94C5080A
:104B30008091BD02813221F58091E800877F8093CA
:104B4000E8000E9435288091C00280936F0208958A
:104B50008091BD02813AA1F48091E800877F809323
:104B6000E8008091E80080FFFCCF80916F02809385
:104B7000F1008091E8008E778093E8000C9435284E
:104B8000089584B7877F84BF0FB6F894A895809165
:104B90006000886180936000109260000FBE90E01A
:104BA00080E80FB6F89480936100909361000FBE87
:104BB0000C942F230E9487280E94E428E2EEF0E064
:104BC00080818460808378940C94792B8DE191E0CE
:104BD0000C9479228091BC028530A9F48091BC02AA
:104BE000853079F40E947F238091BA028823B1F343
:104BF0000E944123882391F30E9495260E94C508B4
:104C0000EDCF0C94AA230895CF93DF93CDB7DEB7F1
:104C1000A0970FB6F894DEBF0FBECDBF8091BC0247
:104C2000843011F583E08093E9008091E80082FFF1
:104C30001BC08091E80085FF0AC040E050E060E2C0
:104C400070E0CE0101960E94F62691E001C090E04E
:104C50008091E8008B778093E800992329F060E247
:104C6000CE0101960E94901DA0960FB6F894DEBF6B
:104C70000FBECDBFDF91CF9108950C943F26292F11
:104C8000332723303105C9F060F42130310581F03C
:104C90002230310509F041C08BE590E029E833E08E
:104CA00040C021323105E1F02232310531F135C009
:104CB00082E190E024EE33E034C099278130910501
:104CC00049F028F0029749F5EDE5F3E005C0E5E885
:104CD000F3E002C0EFE6F3E0849190E09F0121C091
:104CE00063307105D0F4660F771FFB01EB53FE4F65
:104CF0002081318189E090E014C06330710568F44F
:104D0000FB01EE0FFF1FE154FE4F20813181FB01BB
:104D1000E454FE4F808190E004C080E090E020E009
:104D200030E0FA0131832083089580E189BD82E17A
:104D300089BD09B400FEFDCF8091D8008F7D80939E
:104D4000D8008091E00082608093E0008091E000D4
:104D500081FDFCCF0895CF92DF92EF92FF920F93E7
:104D60001F93CF93DF93EC018B017A010E945428AB
:104D7000811133C0E114F10439F0F7018081918190
:104D8000081B190BC80FD91FC12CD12C01151105F7
:104D900019F18091E80085FD16C08091E8008E77BA
:104DA0008093E800E114F10449F0F70180819181DA
:104DB000C80ED91ED182C08285E00FC00E9454283F
:104DC000882321F30AC089918093F10001501109D1
:104DD000FFEFCF1ADF0ADACF80E0DF91CF911F918A
:104DE0000F91FF90EF90DF90CF900895CF92DF92D8
:104DF000EF92FF920F931F93CF93DF93EC018B0100
:104E00007A010E945428811133C0E114F10439F071
:104E1000F70180819181081B190BC80FD91FC12C84
:104E2000D12C0115110519F18091E80085FD16C0FE
:104E30008091E8008B778093E800E114F10449F059
:104E4000F70180819181C80ED91ED182C08285E090
:104E50000FC00E945428882321F30AC08091F100DA
:104E6000899301501109FFEFCF1ADF0ADACF80E0F2
:104E7000DF91CF911F910F91FF90EF90DF90CF9036
:104E800008952091C3023091C4022617370748F0D5
:104E90006115710539F42091E8002E772093E80020
:104EA00001C0B901FC0120E06115710579F1809123
:104EB000BC028823F1F18530F1F18091E80083FD97
:104EC0003CC08091E80082FD2EC08091E80080FF08
:104ED000EBCF2091F3008091F20090E0922B6115CE
:104EE000710551F08830910538F421912093F1003B
:104EF000615071090196F3CF21E0089709F020E095
:104F00008091E8008E778093E800CECF2111CFCF3B
:104F10000AC08091BC02882361F0853061F08091E5
:104F2000E80083FD0AC08091E80082FFF2CF80E0B4
:104F3000089582E0089583E0089581E00895209126
:104F4000C3023091C4022617370748F06115710576
:104F500039F42091E8002E772093E80001C0B901D0
:104F6000FC0120E06115710591F18091BC0288235C
:104F700009F440C0853009F43FC08091E80083FD0A
:104F80003DC08091E80082FD2FC08091E80080FF45
:104F9000E9CF2091F3008091F20090E0922B61150F
:104FA000710559F08830910540F424912093F10067
:104FB0003196615071090196F2CF21E0089709F00E
:104FC00020E08091E8008E778093E800CBCF21111C
:104FD000CCCF0AC08091BC02882361F0853061F09B
:104FE0008091E80083FD0AC08091E80082FFF2CF43
:104FF00080E0089582E0089583E0089581E00895B7
:10500000982F973068F59093E900981739F07091D0
:10501000EC002091ED005091F00003C0242F762F7A
:1050200050E021FD02C09F5FECCF3091EB003E7F4E
:105030003093EB003091ED003D7F3093ED003091E7
:10504000EB0031603093EB007093EC002093ED00A7
:105050005093F0002091EE0027FDE5CF80E0089509
:105060008F708093E90081E008958091BD0287FFF1
:1050700011C08091E80082FD05C08091BC028111C1
:10508000F8CF11C08091E8008B770BC08091BC02F3
:10509000882349F08091E80080FFF8CF8091E800F4
:1050A0008E778093E80008952091E4003091E50028
:1050B00095E64091EC00842F817040FF23C08091E1
:1050C000E80080FD1DC08091BC02882399F08530E6
:1050D00099F08091EB0085FD11C04091E400509162
:1050E000E5002417350729F3915011F09A01E1CF1B
:1050F00084E0089582E0089583E0089581E00895B2
:1051000080E008954091E80042FFDDCF08950E94BD
:10511000F5280E94FD28E0EEF0E080818160808328
:10512000E8EDF0E080818F77808319BCA7EDB0E0D7
:105130008C918E7F8C9380818F7E80831092BB02B6
:1051400008950F931F93CF93DF930E94F5280E9439
:10515000FD28C8EDD0E088818F77888388818068BA
:10516000888388818F7D888319BC1092BC0210923D
:10517000B8021092BA021092B90200EE10E0F801E3
:1051800080818B7F808388818160888342E060E0BA
:1051900080E00E940028E1EEF0E080818E7F808335
:1051A000E2EEF0E08081816080838081886080838E
:1051B000F80180818E7F8083888180618883DF9180
:1051C000CF911F910F910895E8EDF0E080818F7EDF
:1051D0008083E7EDF0E080818160808384E082BF9E
:1051E00081E08093BB020C94A128E8EDF0E080817F
:1051F0008E7F80831092E20008951092DA00109260
:10520000E10008951F920F920FB60F9211242F9371
:105210003F934F935F936F937F938F939F93AF933E
:10522000BF93EF93FF938091E10082FF0BC08091C9
:10523000E20082FF07C08091E1008B7F8093E10054
:105240000E94782B8091DA0080FF1FC08091D800E7
:1052500080FF1BC08091DA008E7F8093DA008091FE
:10526000D90080FF0DC080E189BD82E189BD09B40C
:1052700000FEFDCF81E08093BC020E94BE2405C0E9
:1052800019BC1092BC020E94CC248091E10080FFE6
:1052900019C08091E20080FF15C08091E2008E7FEE
:1052A0008093E2008091E20080618093E20080912F
:1052B000D80080628093D80019BC85E08093BC023E
:1052C0000E94D1248091E10084FF30C08091E200EF
:1052D00084FF2CC080E189BD82E189BD09B400FE54
:1052E000FDCF8091D8008F7D8093D8008091E10020
:1052F0008F7E8093E1008091E2008F7E8093E200B8
:105300008091E20081608093E2008091B80288235E
:1053100011F084E007C08091E30087FD02C081E0C6
:1053200001C083E08093BC020E94D9248091E100F7
:1053300083FF29C08091E20083FF25C08091E100B6
:10534000877F8093E10082E08093BC021092B802D4
:105350008091E1008E7F8093E1008091E2008E7F5A
:105360008093E2008091E20080618093E20042E05D
:1053700060E080E00E9400288091F00088608093C7
:10538000F0000E94CF24FF91EF91BF91AF919F91C8
:105390008F917F916F915F914F913F912F910F90DE
:1053A0000FBE0F901F9018951F920F920FB60F927D
:1053B00011242F933F934F935F936F937F938F931A
:1053C0009F93AF93BF93CF93DF93EF93FF93C091DE
:1053D000E900CF708091EC00D82FD17080FDD0E82B
:1053E0001092E9008091F000877F8093F00078941C
:1053F0000E94182A1092E9008091F0008860809342
:10540000F000CD2BCF70C093E900FF91EF91DF91B9
:10541000CF91BF91AF919F918F917F916F915F914C
:105420004F913F912F910F900FBE0F901F901895A5
:105430001F93CF93DF93CDB7DEB7AA970FB6F8943B
:10544000DEBF0FBECDBFEDEBF2E08091F1008193A6
:1054500022E0E53CF207C9F70E9401258091E800AF
:1054600083FF2EC18091BD029091BE02492F50E072
:105470004A30510508F024C1FA01EB58FF4F0C9453
:10548000DE2B803821F0823809F01AC108C08091E3
:10549000B9029091BA02992389F082600FC080917D
:1054A000C1028F70873008F00BC18093E9008091B2
:1054B000EB0085FB882780F91092E9009091E800C5
:1054C000977F9093E8008093F1001092F100D1C093
:1054D000282F2D7F09F0F4C0882319F0823061F065
:1054E000EFC08091BF02813009F0EAC0933009F02B
:1054F00080E08093BA022EC08091BF0281112AC041
:105500008091C1028F702FEF280F263008F0D8C08D
:105510008093E9002091EB0020FF1CC0933021F420
:105520008091EB00806214C09091EB0090619093A9
:10553000EB0021E030E0A90102C0440F551F8A951D
:10554000E2F74093EA001092EA008091EB00886055
:105550008093EB001092E9008091E800877F8093B0
:10556000E8000E943528ACC08111AAC01091BF028A
:105570001F778091E3008078812B8093E3008091F6
:10558000E800877F8093E8000E9435288091E8003A
:1055900080FFFCCF8091E30080688093E3001111CD
:1055A00002C082E001C083E08093BC0289C08058C1
:1055B000823008F085C08091BF029091C0028C3D7E
:1055C00053E0950779F583E08A838AE289834FB7B0
:1055D000F894DE01139620E03EE051E2E32FF0E084
:1055E00050935700E49120FF03C0E295EF703F5FB6
:1055F000EF708E2F90E0EA3010F0C79601C0C09691
:105600008D939D932F5F243149F74FBF8091E80020
:10561000877F8093E8006AE270E0CE0101960E94E5
:10562000412716C06091C1027091C202AE014F5F66
:105630005F4F0E943D26BC01892B09F441C0909127
:10564000E800977F9093E80089819A810E949F27C4
:105650008091E8008B778093E80032C0803881F534
:105660008091E800877F8093E8008091B802809362
:10567000F1008091E8008E7772CF811121C0809176
:10568000BF029091C00299270297D4F48091E8005C
:10569000877F8093E8008091BF028093B8020E94C8
:1056A00035288091B802811106C08091E30087FD02
:1056B00002C081E001C084E08093BC020E94E32428
:1056C0008091E80083FF0AC08091E800877F809383
:1056D000E8008091EB0080628093EB00AA960FB601
:1056E000F894DEBF0FBECDBFDF91CF911F9108951B
:1056F0000895CF938091BC028823A1F0C091E90066
:10570000CF709091EC00892F817090FD80E8C82BBC
:105710001092E9008091E80083FD0E94182ACF7062
:10572000C093E900CF910895AA1BBB1B51E107C0AC
:10573000AA1FBB1FA617B70710F0A61BB70B881F21
:10574000991F5A95A9F780959095BC01CD010895B0
:1057500097FB072E16F4009407D077FD09D00E941E
:10576000942B07FC05D03EF4909581959F4F0895AA
:10577000709561957F4F0895A1E21A2EAA1BBB1B5D
:10578000FD010DC0AA1FBB1FEE1FFF1FA217B3070D
:10579000E407F50720F0A21BB30BE40BF50B661F23
:1057A000771F881F991F1A9469F7609570958095E7
:1057B00090959B01AC01BD01CF010895EE0FFF1F35
:1057C0000590F491E02D0994692796276927782799
:1057D0008727782708950E94F32B332312F48A1B1E
:1057E0009B0B0C94042CA29FB001B39FC001A39FFC
:1057F000700D811D1124911DB29F700D811D11240A
:10580000911D08950E94F32BB7FF0895821B930BFF
:1058100008950E94F32BA59F900DB49F900DA49F17
:10582000800D911D11240895B7FF0C94092C0E943E
:10583000092C821B930B0895FB01DC0102C005902B
:105840000D9241505040D8F70895FC01415050400E
:1058500030F001900616D1F73197CF0108958827CF
:1058600099270895FB01DC0104C08D9101908019F6
:1058700021F441505040C8F7881B990B0895F999BD
:10588000FECF92BD81BDF89A992780B50895A6E113
:10589000B0E044E050E00C94792CA8E1B0E042E0A4
:1058A00050E00C94792C262FF999FECF92BD81BD42
:1058B000F89A019700B4021639F01FBA20BD0FB64E
:1058C000F894FA9AF99A0FBE08950396272F0E942A
:1058D000542C0E94532C252F0E94542C242F0C94BE
:1058E000542C0196272F0E94542C0C94532CDC012D
:1058F000CB01FC01F999FECF06C0F2BDE1BDF89ADB
:10590000319600B40D9241505040B8F70895F89484
:02591000FFCFC7
:10591200C8001D02280850011E0A140101001200CD
:105922001212010C0D0E0F1011121314151524383A
:1059320024192492248E24182401E200E900EA00AA
:10594200B500B600B700CD008301CC008A019201F8
:1059520094012102230224022502260227022A029E
:10596200B300B4006F007000818283E200E900EAB4
:1059720000B500B600B700CD008301CC008A0192C9
:105982000194012102230224022502260227022A6F
:1059920002B300B4006F007000818283F594C6F7F1
:1059A2006697F43336000102020205050505050576
:1059B2000B0C0C0C0C0C0C0C0C0C0C1600FF01004C
:1059C200010000FFFF0000010001FF0040227B9365
:0C59D20004F60318049B03B403D4030084
:00000001FF
